:100000000C9427020C944F020C944F020C944F0254
:100010000C944F020C944F020C944F020C944F021C
:100020000C944F020C944F020C944F020C944F020C
:100030000C944F020C944F020C944F020C944F02FC
:100040000C94A92A0C944F020C94772A0C94512AF0
:100050000C944F020C944F020C944F020C944F02DC
:100060000C944F020C944F02556E6B6E6F776E209E
:100070006576656E743A200045565F4A4F494E5F7B
:100080005458434F4D504C4554453A206E6F204ACA
:100090006F696E4163636570740045565F545843E1
:1000A000414E43454C454400206279746573206F8E
:1000B00066205048595061796C6F61643A20004164
:1000C000637475616C2053656E74200020627974CE
:1000D0006573206F662046524D5061796C6F616484
:1000E0003A0041637475616C2053656E742000455D
:1000F000565F545853544152540045565F4C494E34
:100100004B5F414C4956450045565F4C494E4B5F4D
:10011000444541440045565F5258434F4D504C456D
:1001200054450045565F52455345540045565F4C73
:100130004F53545F5453594E430046524D506179CA
:100140006C6F61643A2000206279746573206F6679
:10015000207061796C6F61643A2000526563656953
:100160007665642000526563656976656420616325
:100170006B0045565F5458434F4D504C45544520F5
:1001800028696E636C756465732077616974696E44
:100190006720666F722052582077696E646F77739C
:1001A000290045565F52454A4F494E5F4641494CEA
:1001B00045440045565F4A4F494E5F4641494C45CC
:1001C000440045565F4A4F494E45440045565F4AF4
:1001D0004F494E494E470045565F424541434F4EB9
:1001E0005F545241434B45440045565F42454143AD
:1001F0004F4E5F4D49535345440045565F4245417C
:10020000434F4E5F464F554E440045565F53434162
:100210004E5F54494D454F5554004661696C6564C5
:1002200020746F20726561642066726F6D2044488F
:10023000542073656E736F7221004F505F54585293
:100240005850454E442C206E6F742073656E64695F
:100250006E670003050205010602020500000600A4
:100260000001050404000400000002000000010079
:10027000008000000040000000200000002020203E
:100280000E11140C0F12090C0F06090C03060900BD
:10029000030613110F0D0B09070540404080EBEBDF
:1002A000080A0C0D0E10121415181A1B1D1E2124FD
:1002B000FF060504030201FFC04000000000002506
:1002C0000028002B000000000800020100000304C9
:1002D00007000000000000000000000000240027CC
:1002E000002A0043579EA99CF9256204D4778F63A6
:1002F000A61C0CE9B53B908577E0CF4A7DBE490D41
:1003000040B0455374617274696E6700000000006C
:100310006700CC00B80154039D07637C777BF26BC8
:100320006FC53001672BFED7AB76CA82C97DFA59FB
:1003300047F0ADD4A2AF9CA472C0B7FD9326363F60
:10034000F7CC34A5E5F171D8311504C723C318964D
:10035000059A071280E2EB27B27509832C1A1B6EEF
:100360005AA0523BD6B329E32F8453D100ED20FC91
:10037000B15B6ACBBE394A4C58CFD0EFAAFB434D94
:10038000338545F9027F503C9FA851A3408F929D31
:1003900038F5BCB6DA2110FFF3D2CD0C13EC5F9721
:1003A0004417C4A77E3D645D197360814FDC222A27
:1003B000908846EEB814DE5E0BDBE0323A0A49065E
:1003C000245CC2D3AC629195E479E7C8376D8DD5D2
:1003D0004EA96C56F4EA657AAE08BA78252E1CA6AA
:1003E000B4C6E8DD741F4BBD8B8A703EB56648030A
:1003F000F60E613557B986C11D9EE1F8981169D98D
:100400008E949B1E87E9CE5528DF8CA1890DBFE60F
:10041000426841992D0FB054BB1600000000230024
:100420002600290004040404040404040202020255
:1004300002020303030303030102040810204080A7
:10044000010204081020010204081020F32A1124DC
:100450001FBECFEFD8E0DEBFCDBF26E0A0EDB3E0FA
:1004600001C01D92AF37B207E1F713E0A0E0B1E0A1
:10047000E2E9FAE602C005900D92A03DB107D9F776
:1004800012E0C7E2D2E004C02197FE010E945F3172
:10049000C632D107C9F70E94462B0C9447350C94FD
:1004A0000000CF92DF92EF92FF92CF93DF93C82F9D
:1004B00080916C068C3009F45EC038F48B30F1F01A
:1004C00060E070E080EC9FE74FC085518230C0F75C
:1004D000D09168066D2F70E0762F662766277F77AC
:1004E00080916906682B90E080E00E94D52F2DEC6A
:1004F0003CEC4CEC5DE30E948C3059C06091680686
:1005000070E090E080E00E94D52F6B017C01D091DB
:100510006906D7FF0AC0AC019B0160E070E080E88B
:100520009FEB0E94BB2E6B017C01DF706D2F70E092
:1005300090E080E00E94D72F2DEC3CEC4CEC5DE38A
:100540000E948C30A70196010E94BC2ECC2361F042
:1005500026E636E646EE5FE30E948C3020E030E08F
:1005600040E052E40E94BC2EDF91CF91FF90EF90CB
:10057000DF90CF900895D09168066D2F70E090E0E5
:1005800080E00E94D52F6B017C01609169066F703D
:1005900070E090E080E00E94D72F2DEC3CEC4CEC1A
:1005A0005DE30E948C30A70196010E94BC2ED7FF0C
:1005B000CDCF9058CBCFCF92DF92EF92FF92CF93D7
:1005C000DF93B0916D06A0E08111AB2F80916E0694
:1005D00090E0880F991FAC01465E5B4FC090730698
:1005E000D0907406E0907506F090760630E020E03A
:1005F000FA01C591D491E881B90190E080E0EB2344
:10060000EA130AC02F5F3F4F6C157D058E059F05CD
:1006100078F36FEF7FEFCB01DF91CF91FF90EF90F9
:10062000DF90CF900895FC0120E1215008F4089557
:1006300080E0211181819191990F87FD9160DF0107
:1006400011979C93F2CFAF92BF92CF92DF92EF922D
:10065000FF920F931F93CF93DF936C017B018B016C
:10066000040F151FEB015E01AE18BF08C017D107BC
:1006700059F06991D601ED91FC910190F081E02D46
:10068000C6010995892B79F7C501DF91CF911F919B
:100690000F91FF90EF90DF90CF90BF90AF900895B3
:1006A000FC01538D448D252F30E0842F90E0821B78
:1006B000930B541710F0CF96089501970895FC01FD
:1006C000918D828D981761F0A28DAE0FBF2FB11D55
:1006D0005D968C91928D9F5F9F73928F90E00895AD
:1006E0008FEF9FEF0895FC01918D828D981731F067
:1006F000828DE80FF11D858D90E008958FEF9FEFBB
:100700000895FC01918D228D892F90E0805C9F4F90
:10071000821B91098F739927089587EC95E00E94B9
:10072000810321E0892B09F420E0822F089580E0E5
:1007300090E0892B29F00E948D0381110C94000018
:100740000895FC01A48DA80FB92FB11DA35ABF4F66
:100750002C91848D90E001968F739927848FA689C0
:10076000B7892C93A089B1898C91837080648C9314
:10077000938D848D981306C00288F389E02D8081C3
:100780008F7D80830895EF92FF920F931F93CF93F5
:10079000DF93EC0181E0888F9B8D8C8D98131AC0BC
:1007A000E889F989808185FF15C09FB7F894EE89A3
:1007B000FF896083E889F989808183708064808300
:1007C0009FBF81E090E0DF91CF911F910F91FF904B
:1007D000EF900895F62E0B8D10E00F5F1F4F0F73F3
:1007E0001127E02E8C8D8E110CC00FB607FCFACFAE
:1007F000E889F989808185FFF5CFCE010E94A103A8
:10080000F1CFEB8DEC0FFD2FF11DE35AFF4FF0827E
:100810009FB7F8940B8FEA89FB8980818062CFCFE4
:100820000F931F93CF93DF938C01D0E0C0E0F801CA
:10083000EC0FFD1F6491662341F087EC95E00E9468
:10084000C303892B11F02196F2CFCE01DF91CF9116
:100850001F910F910895CF93DF93EC01888D88232A
:10086000B9F0AA89BB89E889F9898C9185FD03C013
:10087000808186FD0DC00FB607FCF7CF8C9185FFF8
:10088000F2CF808185FFEDCFCE010E94A103E9CF99
:10089000DF91CF910895833081F028F4813099F071
:1008A0008230A9F008958730A9F08830C9F08430EB
:1008B000B1F4809180008F7D03C0809180008F779C
:1008C00080938000089584B58F7784BD089584B5A2
:1008D0008F7DFBCF8091B0008F778093B00008951B
:1008E0008091B0008F7DF9CF1F93CF93DF93282F96
:1008F00030E0F901EB53FD4F8491F901E85CFB4FC7
:10090000D491F901EC5DFB4FC491CC23A9F0162FD3
:1009100081110E944B04EC2FF0E0EE0FFF1FE55415
:10092000FD4FA591B4918FB7F894EC91111108C0C7
:10093000D095DE23DC938FBFDF91CF911F91089577
:10094000DE2BF8CFCF93DF9390E0FC01E85CFB4F08
:1009500024918C5D9B4FFC0184918823C9F090E029
:10096000880F991FFC01E752FD4FA591B491FC013E
:10097000E554FD4FC591D49161110DC09FB7F89416
:100980008C91209582238C938881282328839FBF74
:10099000DF91CF910895623051F49FB7F8943C9164
:1009A000822F809583238C93E8812E2BEFCF8FB7F6
:1009B000F894EC912E2B2C938FBFEACF3FB7F8948D
:1009C0008091E6039091E703A091E803B091E903D9
:1009D00026B5A89B05C02F3F19F00196A11DB11D9A
:1009E0003FBFBA2FA92F982F8827BC01CD01620FD6
:1009F000711D811D911D42E0660F771F881F991F91
:100A00004A95D1F708958F929F92AF92BF92CF925D
:100A1000DF92EF92FF924B015C010E94DE046B01BA
:100A20007C010E94DE046C197D098E099F09683ED5
:100A3000734081059105A8F321E0821A9108A1086D
:100A4000B10888EEC80E83E0D81EE11CF11C8114A9
:100A50009104A104B10429F7FF90EF90DF90CF90AB
:100A6000BF90AF909F908F900895CF92DF92EF92BA
:100A7000FF920F931F93CF93DF93CDB7DEB7C05490
:100A8000D1400FB6F894DEBF0FBECDBF2FB7F8949C
:100A90008091C3059091C405A091C505B091C6058C
:100AA0002FBF40916F065091700660917106709152
:100AB00072068C019D01041B150B260B370BB90127
:100AC000A801403D57406105710590F4809177067B
:100AD000C05CDE4F0FB6F894DEBF0FBECDBFDF9116
:100AE000CF911F910F91FF90EF90DF90CF900895DD
:100AF00080936F0690937006A0937106B093720670
:100B000010926A06109269061092680610926706A3
:100B10001092660662E080916B060E94A20461E07A
:100B200070E080E090E00E94030561E080916B0638
:100B30000E94A20460E080916B060E947404809180
:100B40006C068551823020F58BE291E10197F1F737
:100B500062E080916B060E94A2048091780690E08A
:100B60008230910538F0880F991F880F991F0597DB
:100B70000197F1F7F89480E00E94DB026F3F7F4F0E
:100B80008F4F9F4F61F410927706789480E0A0CF4A
:100B900064E170E080E090E00E940305D9CF81E03D
:100BA0000E94DB026F3F7F4F8F4F9F4F61F38E019B
:100BB0000F5F1F4F6E018FEBC81A8EEFD80A7801B6
:100BC00080E00E94DB02F70160837183828393835C
:100BD00081E00E94DB02F70164837583868397833B
:100BE000F8E0EF0EF11CEC14FD0451F7789430E0BE
:100BF00020E0F801C080D180E280F38044815581FB
:100C000066817781FFEFCF16DF06EF06FF0631F032
:100C10004F3F8FEF58076807780719F4109277064F
:100C2000B5CFF90183E0F595E7958A95E1F7EA59A3
:100C3000F94F8081880FC416D506E606F70610F135
:100C400080832F5F3F4F085F1F4F2832310589F6A1
:100C500040916A062091660680916706280F332727
:100C6000331F80916806280F311D80916906820F1D
:100C7000932F911D99274817190681F681E08093DB
:100C8000770626CF8160DCCF0F931F936115710526
:100C900081059105F9F000915804109159042091B3
:100CA0005A0430915B04DC01CB01800F911FA21F1D
:100CB000B31F8093580490935904A0935A04B0939F
:100CC0005B0480915C0490915D04019690935D04B7
:100CD00080935C041F910F910895FC012081318164
:100CE0002115310519F490E080E0089526173707A3
:100CF00049F4FB0120813181FC013183208381E0B3
:100D000090E00895C901E9CF803660F5282F22953B
:100D10002F7030E0220F331FF901E457FB4F408161
:100D200051818F7061E070E002C0660F771F8A9575
:100D3000E2F7CA0186239723892B91F48091A404BA
:100D40009091A50401969093A5048093A40481E05A
:100D500024573B4F462B572BF9015183408308956D
:100D600080E0F6CF80E00895803670F5282F229538
:100D70002F7030E0220F331FF901E457FB4F6081E1
:100D800071818F7041E050E002C0440F551F8A9579
:100D9000E2F7CA0186239723892BA1F08091A4044E
:100DA0009091A50401979093A5048093A40481E0F9
:100DB00024573B4F4095509546235723F9015183C3
:100DC0004083089580E0F4CF80E00895FC0190E036
:100DD00080E06115710509F4089521913191A9010F
:100DE0005695479545755575241B350BA9014373D9
:100DF0005373369527953695279523733373240FB0
:100E0000351FA901407F507F2F703F70A4E0220F53
:100E1000331FAA95E1F7240F351FA9015527232F6A
:100E20003327240F351F820F931F61507109D1CFD3
:100E3000982F6038C1F08091BD046817A1F06093CD
:100E4000BD0481E02091BE04291761F09093BE0497
:100E50008091AA049091AB0498609093AB04809326
:100E6000AA0481E0089580E0EDCF2091AE04309196
:100E7000AF0420383F4F21F09093AF048093AE042D
:100E80000895982F8091FB04E091FA04882361F083
:100E9000EF30A0F481E08E0F8093FA04F0E0E4508C
:100EA000FB4F908381E00895E43348F481E08E0F96
:100EB0008093FA04F0E0EA53FB4FF3CF80E008950B
:100EC000CF93DF93C62FD091FA040E94410781117E
:100ED00006C0D093FA0480E0DF91CF9108958C2F63
:100EE0000E9441078823A9F381E0F6CF10923405D0
:100EF0001092350580E294E4AEE1BEE1809388046F
:100F000090938904A0938A04B0938B048FEF80930D
:100F1000330508951092840410928504109286047B
:100F2000109287041092800410928104109282041F
:100F3000109283041092C00410922D0510922C057B
:100F400010922B051092BC041092C1041092360529
:100F500010923805109232050C947607FC016081DE
:100F60007181828193810895682F87EC95E00E94BA
:100F7000C30390E080E00895F8948091D4038F5FDC
:100F80008093D40308950E94BC07FFCFEF92FF9295
:100F90001F93CF93DF938C3030F067EA70E085E3E6
:100FA00091E00E94C307880F880F880F98E0980F80
:100FB000C82FD0E010E0E92EF12CCE15DF053CF073
:100FC000812FDF91CF911F91FF90EF9008958C2F8B
:100FD0000E94B406182B2196F0CFEF92FF921F9338
:100FE000CF93DF93880F880F880F98E0980FC82F52
:100FF000D0E010E0E92EF12CCE15DF053CF0812F7A
:10100000DF91CF911F91FF90EF9008958C2F0E9458
:101010008406182B2196F0CF0F931F930E94DE04B5
:10102000AB01BC012091D003DC01CA013CE1B695C3
:10103000A795979587953A95D1F782278870820F63
:101040008093D003E4E07695679557954795EA95A8
:10105000D1F79B01382BC901BA011F910F91089557
:10106000AF92BF92CF92DF92EF92FF920F931F93B6
:10107000CF93DF938091D40381508093D403811167
:1010800069C0789401ED13E0D0E0C0E0BB24B394D4
:10109000E0911F04F0912004EC0FFD1F23812F3FEE
:1010A00009F451C0F801D080ED2CF12C30E0F901A9
:1010B000EB53FD4F8491F901E85CFB4FC490F901BB
:1010C000EC5DFB4FA490AA2009F44FC081110E944F
:1010D0004B04EA2DF0E0EE0FFF1FE65EFB4FA591FB
:1010E000B491EC91CE2231E020E009F430E0832F7E
:1010F000922FE816F90639F1DB24F801D082DD20C1
:1011000011F1CE01880F991F880F991F9C012D5E48
:101110003B4F7901F90180819181A281B381892BB3
:101120008A2B8B2B81F40E940C08611571058105B7
:10113000910521F461E070E080E090E0F7016083C8
:1011400071838283938321960F5F1F4FC330D10534
:1011500009F09ECFDF91CF911F910F91FF90EF90FB
:10116000DF90CF90BF90AF90089590E080E0C1CF26
:10117000CF93DF93EC010E94BC07809152049091C1
:101180005304A0915404B0915504892B8A2B8B2BC6
:1011900031F581EC95E060E574E00E946D061092F7
:1011A0005104109250041092520410925304109261
:1011B000540410925504D0935704C0935604E09100
:1011C000C105F091C205A1ECB5E0309759F480E576
:1011D00094E08D939C93DF91CF910C9430088FEB2A
:1011E00095E0D9CFDF010190F081E02DEECFCF92D5
:1011F000DF92EF92FF920F931F93CF93DF93EC0157
:101200006A017B018901C114D104E104F10421F4D4
:10121000C12CD12C7601C3940E94BC078A819B818A
:10122000AC81BD81892B8A2B8B2B89F581EC95E0D4
:10123000BE010E946D0619821882CA82DB82EC828E
:10124000FD821F830E83E091BF05F091C0052FEB57
:1012500035E0309779F082819381A481B5818C1932
:101260009D09AE09BF09181619061A061B0694F443
:10127000F983E883F901D183C083DF91CF911F9176
:101280000F91FF90EF90DF90CF900C9430088FEB90
:1012900095E0CECF9F010190F081E02DDACFCF9283
:1012A000DF92EF92FF926B017C010E940C08A70174
:1012B0009601261B370B480B590BDA01C901B7FF02
:1012C0000CC066277727CB01621B730B840B950B31
:1012D000FF90EF90DF90CF900895833332E0930733
:1012E000A105B1058CF068E070E080E090E00E941C
:1012F00003050E940C08A7019601261B370B480B1B
:10130000590BDA01C901E9CF181619061A061B068E
:1013100064F424E0880F991F2A95E1F7880F991F3C
:10132000880F991F05970197F1F760E070E0CB01F6
:10133000CFCFCF92DF92EF92FF92A0910904B091AC
:101340000A04682F6170ED91FC9111970190F08172
:10135000E02DCD0109956B017C01C114D104E1049C
:10136000F10461F00E940C086C0D7D1D8E1D9F1D07
:10137000FF90EF90DF90CF900C944F09FF90EF908B
:10138000DF90CF900895982FE0911F04F0912004F2
:1013900081818F3F39F061E02681291301C060E02F
:1013A0000C947404089581E0089580E008950895F0
:1013B00060E070E0CB010895E1E3F4E08481958181
:1013C0009483968195839781968387838085928580
:1013D0009087828781859385918783878785968586
:1013E0009787958596879485958784870895CF9369
:1013F00021E334E0BC01605F7F4FDC01F90140E094
:10140000CD9150815C2750834F5F34964430C1F7B3
:101410002F5F3F4F04968617970779F7CF9108956E
:10142000FC0101900020E9F73197AF01481B590BEF
:10143000BC0187EC95E00C9423038F929F92AF92AE
:10144000BF920F931F93CF93DF93CDB7DEB7A197D2
:101450000FB6F894DEBF0FBECDBF19A2423008F41C
:101460004AE08E010F5D1F4F842E912CB12CA12CD0
:10147000A50194010E941E31E62FB901CA01EA308C
:10148000F4F4E05DD801EE938D01232B242B252B62
:1014900079F790E080E0109719F0CD010E94100AD2
:1014A000A1960FB6F894DEBF0FBECDBFDF91CF91EE
:1014B0001F910F91BF90AF909F908F900895E95C1E
:1014C000E1CF85E791E00C94100ACF93DF930E945F
:1014D0001004EC010E94610A8C0F9D1FDF91CF91D7
:1014E00008954F925F926F927F928F929F92AF92E8
:1014F000BF92CF92DF92EF92FF920F931F93CF9301
:101500006B017C01742EAC019B010E94F930882391
:1015100099F088E791E0CF911F910F91FF90EF90A4
:10152000DF90CF90BF90AF909F908F907F906F9003
:101530005F904F900C94100A46015701E894B7F859
:101540002FEF3FEF4FE75FE7C501B4010E94F9308D
:1015500081110DC02FEF3FEF4FE75FE7C501B401E9
:101560000E94282F18161CF48CE791E0D4CF2FEF9F
:101570003FEF4FE75FE4C701B6010E9487301816BE
:101580001CF480E891E0C7CF2FEF3FEF4FE75FEC0F
:10159000C701B6010E94282F87FDF3CF20E030E07D
:1015A000A901C701B6010E94282F10E000E087FFC3
:1015B0000AC06DE287EC95E00E94C3038C01F7FA44
:1015C000F094F7F8F094C0E060E070E080E09FE312
:1015D0007C1641F020E030E040E251E40E942D2FE3
:1015E000CF5FF6CFA70196010E94BC2E2B013C01D4
:1015F0000E94A62F4B015C014AE00E941D0A7C015B
:10160000E00EF11ECC23C1F1C501B4010E94D52F1B
:101610009B01AC01C301B2010E94BB2E4B015C01D6
:101620006EE287EC95E00E94C303E80EF91EC150FC
:1016300018F120E030E040E251E4C501B4010E941D
:101640008C302B013C010E94A62F4B01B12CA12C08
:101650004AE0C501B4010E941D0AE80EF91EC50149
:10166000B4010E94D52F9B01AC01C301B2010E94BD
:10167000BB2E4B015C01DBCFC701CF911F910F91B6
:10168000FF90EF90DF90CF90BF90AF909F908F90A2
:101690007F906F905F904F9008950F931F93CF931B
:1016A000DF9300D000D0CDB7DEB7DB011C969C9154
:1016B0001C971E963C911E971F962C911F971D9666
:1016C0004C911D9749833A832B839C83BE016B5FAA
:1016D0007F4F9E012F5F3F4FF90111919F01412FD5
:1016E00042954F70F0E14F9FA0011124E12FEF7060
:1016F000E40FF52FF11DE65EFC4F9491A9014150D6
:101700005109FA0190832617370731F791E05BE121
:10171000813039F0492F440F97FD45278150942F90
:10172000F7CF8981982799838D0194E0FE01319646
:10173000A801DA018D91AD0161918627BD0161504B
:101740007109DB018C93BF0161507109DB018C933E
:10175000E217F30771F791500C5F1F4F9111E6CF1D
:101760000F900F900F900F90DF91CF911F910F91DD
:1017700008953F924F925F926F927F928F929F92C5
:10178000AF92BF92CF92DF92EF92FF920F931F938F
:10179000CF93DF93CDB7DEB768970FB6F894DEBF6F
:1017A0000FBECDBF8C0121E3C22E24E0D22EAC01AE
:1017B000405F5F4FC6017801FC01D70120E03D91F9
:1017C00030832F5F34962430D1F724E0E20EF11CF1
:1017D00001964E155F0581F7A1E2B4E0FE01319656
:1017E00081E394E05E2E6F2E2D9121938A179B0743
:1017F000D9F7852D962D0E94F7094424439485E35B
:10180000A82E84E0B82E4E0139E1830E911C9BE195
:10181000392E81E394E024E0DC01712CEC914E2F11
:1018200042954F7030E1439FA0011124EF70E40F07
:10183000F52FF11DE65EFC4FE491EC937394149642
:1018400054E07512EBCF215001962111E5CF0E9493
:10185000DC09E1E3F4E0CE014596BE016F5E7F4F07
:101860009F01D9015C91DC015D93CD01452F440FAF
:1018700057FD83C0DB014C932C5F3F4F6F5F7F4F61
:101880008816990671F78E89398938272F89688DCE
:101890009A8992279627432F492741934D895B893F
:1018A0009427952793839C898627842785278927D2
:1018B00087832427292732273387AE16BF0659F698
:1018C000652D762D842D0E944D0B852D962D0E9421
:1018D000F7094394BAE04B129CCF81E394E0DC011A
:1018E00040E0EC912E2F22952F7050E1259F900122
:1018F0001124EF70E20FF32FF11DE65EFC4FE4912F
:10190000EC934F5F1496443061F77A94019671100E
:10191000E6CF0E94DC09652D762D8AE00E944D0BF2
:10192000852D962D0E94F709D801F60180E090815F
:101930009D938F5F34968430D1F78FEFC81AD80A01
:101940000C5F1F4FE016F10679F768960FB6F89412
:10195000DEBF0FBECDBFDF91CF911F910F91FF90E2
:10196000EF90DF90CF90BF90AF909F908F907F903F
:101970006F905F904F903F90089543257BCFE0910B
:10198000B504A091B904A770B0E020E43DE043E0C5
:1019900050E00E94823160527F458C4C914E6093A2
:1019A0007004709371048093720490937304809117
:1019B0003405E53090F4E81BE63008F0E5E0E0930C
:1019C000B504F0E0EF54FD4FE491F0E0EF77E0680C
:1019D000F093A904E093A8040895E5E0ECCF4F92BA
:1019E0005F926F927F928F929F92AF92BF92CF92AF
:1019F000DF92EF92FF920F93CF93DF9300D000D04E
:101A000000D0CDB7DEB76B017C015E834D832770BC
:101A100084E0289FF0011124EB59FD4F85919591A9
:101A2000A591B49189839A83AB83BC83409064046D
:101A300050906504609066047090670460914D0456
:101A400070914E046115710531F0673091E07907AE
:101A500010F066E071E090E080E0A70196010E943E
:101A60008D3100E10E94763249015A0129813A8183
:101A70004B815C81220F331F441F551FC501B401E8
:101A8000660F771F881F991F620F731F841F951F92
:101A900064587F4F8F4F9F4F0E9440312A5F3F4FC6
:101AA00043E85FEF6FEF7FEF481959096A097B0937
:101AB0002115A4E03A07B8F18FEF93E09093B404B6
:101AC0008093B304C40ED51EE61EF71E4C0C5D1C9D
:101AD0006E1C7F1C409268045092690460926A04F4
:101AE00070926B04B301A201415752406109710920
:101AF0002D813E8180E594E026960FB6F894DEBFF6
:101B00000FBECDBFDF91CF910F91FF90EF90DF908F
:101B1000CF90BF90AF909F908F907F906F905F908D
:101B20004F900C94F7083093B4042093B304CACFB9
:101B3000CF92DF92EF92FF9220912E0530E0A4E247
:101B4000B4EF0E946C316B017C010E94BF0C2091AC
:101B5000B50444EE59E1C701B601FF90EF90DF9064
:101B6000CF900C94EF0C0E94BF0C2091B50448EE6E
:101B700059E164EB74EC84E090E00C94EF0CE82FF6
:101B8000F0E0E055FD4FE491EF3F09F081500895FA
:101B90008F929F92AF92BF92DF92EF92FF920F933C
:101BA0001F93CF93DF93D82EEB018A01E22EE091B1
:101BB0001F04F0912004F08080849184A284B38477
:101BC00081149104A104B10439F420E4822E22E4AA
:101BD000922E2FE0A22EB12C40E052E16AE770E095
:101BE00080E084169506A606B70640F476956795BC
:101BF000579547958F5F8630A1F787E0982F906AB9
:101C00009695809581709CBD8DBD60E08F2D0E9462
:101C10007404DEBC00000DB407FEFDCF8EB50C0FC2
:101C20001D1FC017D10771F080E0E11001C088814D
:101C30008EBD00000DB407FEFDCF8EB5E110888388
:101C40002196EFCF61E08F2DDF91CF911F910F9102
:101C5000FF90EF90DF90BF90AF909F908F900C948B
:101C60007404CF93DF931F92CDB7DEB721E041E03C
:101C700050E0BE016F5F7F4F0E94C80D89810F90B9
:101C8000DF91CF910895CF93DF931F92CDB7DEB749
:101C9000698320E041E050E0BE016F5F7F4F8068C4
:101CA0000E94C80D0F90DF91CF910895CF93C82F58
:101CB00062E082E00E94430E60E883E00E94430EEF
:101CC00061E084E00E94430E69E985E00E94430ED2
:101CD00062E187E20E94430E60EDC11168ED80E38E
:101CE0000E94430E60E481E30E94430E61EC88E2AF
:101CF0000E94430E64E989E20E94430E61EC8AE28D
:101D0000CF910C94430E0F931F93CF93DF93C09109
:101D1000B704C4310CF040C0CE30CCF1C2310CF06D
:101D2000C1E161E08091090490910A04009170047E
:101D3000109171042091720430917304DC01ED91D3
:101D4000FC910084F185E02D4C2F0995813059F1EB
:101D50008230E1F1CF301CF5CC301CF1C067D7E008
:101D600014E06C2F89E00E94430E8DE40E94310E36
:101D7000887F682F612B8DE40E94430E6D2F606277
:101D80008BE0DF91CF911F910F910C94430ECC3FCC
:101D90000CF4CCEF60E0C6CF62E0C4E1C3CFCEE08C
:101DA000DDCFCC5FDCCF8091A804877011F4CB30FD
:101DB0005CF0C2302CF4C2E0C250C068DBE0D0CF8F
:101DC000C231D4F3C1E1F8CFCBE0F6CFD0E117E0D8
:101DD000CFE8C7CFAF92BF92CF92DF92EF92FF9240
:101DE0000F931F93CF93DF938091700490917104B0
:101DF000A0917204B09173049C01AD0160E070E0A9
:101E000080E090E003E10E945D32A12CE8E4BE2E68
:101E1000F8EECF2EDD24D394E12CF12C00E010E07D
:101E20000E94C931C22FB32E6A017B01182FD92F0E
:101E300000E10E947832622F86E00E94430E2C2F30
:101E40003B2DA601B701812F9D2F08E00E9478321B
:101E5000622F87E00E94430E6C2F88E0DF91CF91C4
:101E60001F910F91FF90EF90DF90CF90BF90AF90B8
:101E70000C94430E1F93CF93DF936091A80470914D
:101E8000A904162F1770CB0133E0969587953A95E4
:101E9000E1F7D82FD370D13059F008F466C0D230B2
:101EA00009F465C066EC71E084E891E00E94C30724
:101EB000C0E8CB0125E0969587952A95E1F78370D8
:101EC000823009F458C0833009F457C0813009F4D6
:101ED00050C0C260672F77276115710521F0C1607E
:101EE00082E20E94430E6C2F8DE10E94430E6091AE
:101EF000B404637060598FEF810F8295807F680F03
:101F00008091A80487FF64608EE10E94430E8BEFEE
:101F1000810F823010F4DD2391F1163011F4D130AD
:101F200071F164E086E20E94430EC0E063E0D230CB
:101F300081F48091700490917104A0917204B09129
:101F40007304CFE781349D4DAA44BF4108F0C4E635
:101F500062E086E30E94430ECC2399F06C2F8AE363
:101F6000DF91CF911F910C94430EC0E7A2CFC0E93F
:101F7000A0CFC460AFCFC660ADCFC860ABCF6CE0C0
:101F8000D1CFDF91CF911F910895CF93DF93D82FB9
:101F9000C82FC77019F081E00E9499096D2F81E068
:101FA0000E94430EC11105C080E0DF91CF910C94D7
:101FB0009909DF91CF9108958091700490917104F7
:101FC000A0917204B091730481349D4DAA44BF4125
:101FD00018F488E00C94C50F80E0FCCF8091700469
:101FE00090917104A0917204B091730481349D4D5D
:101FF000AA44BF4118F488E80C94C50F80E8FCCFD0
:10200000CF93C82F81E00E94310E887F8C2BCF9117
:102010000C94C50FCF92DF92EF92FF92CF93DF9394
:10202000D82F0E94EE0F81E00E94310E87FD06C07E
:102030006BE973E084E891E00E94C30781E00E94AD
:102040000010D23009F07CC06AE08DE10E94430E9E
:1020500060E78EE10E94430E63E28CE00E94430E33
:1020600060E483E20E94430E8091BD05882309F459
:102070006CC083E30E94310E682F6F7B83E30E9464
:10208000430E8091A8049091A90423E0969587952A
:102090002A95E1F7C82FC37081E30E94310E88773B
:1020A000682F6360C23008F056C081E30E94430E7F
:1020B00060E48FE20E94430E60E480E30E94430EDE
:1020C0006091B3048FE10E94430E64E389E30E94B0
:1020D000430E6CE080E40E94430E6FEF82E10E94A9
:1020E000430EED2FF0E0E854FD4F6491609581E1DF
:1020F0000E94430E80E00E94C30960E08DE00E94D0
:10210000430E60E08FE00E94430ED11128C0609121
:1021100068047091690480916A0490916B040E9434
:102120004F096B017C0186E00E940010C701B601D7
:10213000DF91CF91FF90EF90DF90CF900C94440609
:102140000E943A0F0E94EA0E87CF83E30E94310E6D
:10215000682F606493CF682F636881E3AFCF85E019
:10216000DF91CF91FF90EF90DF90CF900C94001013
:10217000CF92DF92EF92FF92CF93C82F81E00E941F
:10218000310E877069E274E0C1F48091A804877011
:1021900009F060C0C13041F410923C0580915604B2
:1021A000909157040E94B8080E94DC0F81E00E94C1
:1021B000310E87FF06C062E074E084E891E00E947F
:1021C000C30781E00E9400100E94EA0E63E28CE0E7
:1021D0000E94430E6EE18DE00E94430E6BE082E1AF
:1021E0000E94430E62E183E10E94430E6AEA8FE19E
:1021F0000E94430E6FEF81E20E94430E81E00E9435
:10220000560E68E380E40E94430E80E00E94C309FA
:10221000C11118C0609168047091690480916A04CA
:1022200090916B040E944F096B017C0185E00E9434
:102230000010C701B601CF91FF90EF90DF90CF90D3
:102240000C94440685E0CF91FF90EF90DF90CF9003
:102250000C9400108C2FCF91FF90EF90DF90CF90D7
:102260000C940A108FEF9FEF90938D0480938C0451
:1022700090938F0480938E049093910480939004A4
:1022800090939304809392048FEF90E09093950441
:1022900080939404E8E9F4E08CE0DF011D928A95D4
:1022A000E9F780E690E09093A5048093A4048FEF73
:1022B0008093B90408956F927F928F929F92AF920C
:1022C000BF92CF92DF92EF92FF920F931F93CF9323
:1022D000DF93CDB7DEB760970FB6F894DEBF0FBEC1
:1022E000CDBF7B018A01282F30E0277F22303105C6
:1022F00049F02430310509F4CBC0232B09F09FC0ED
:10230000D12C98C083FD32C085ED93E00E94B90BBB
:1023100090E1692EFE0131966F0125EE822E23E0B9
:10232000922E37E8732E0115110509F060C06091F7
:10233000D5037091D6038091D7039091D8030E9462
:10234000653160960FB6F894DEBF0FBECDBFDF914A
:10235000CF911F910F91FF90EF90DF90CF90BF90A2
:10236000AF909F908F907F906F900895E5EDF3E090
:1023700080E1DF011D928A95E9F7CACF01151105A9
:10238000E9F5E62FF0E0EB52FC4F80818058808326
:1023900011E0D601E62D1D92EA95E9F7C6010E94EB
:1023A000B90B0981C6010E94130307FF03C0888986
:1023B0008725888B112349F01981C6010E941303D8
:1023C00017FF03C088898725888BF601D5018D9179
:1023D0005D019191119789278C938A149B04B1F721
:1023E00010E000E085ED93E00E94B90B9CCF85EDF5
:1023F000A82E83E0B82ED701950160E0F901819104
:102400009F019D91AF01415051098927FA018083B5
:102410006F5F7D0101501109603109F0AFCF0115E7
:10242000110501F710E0B5CF8E0D9F1D0E94B90B6D
:10243000B0E1DB0E8D2D90E080179107A8F360E0EE
:1024400070E0CB017ECF80E1E5EDF3E0DE01119697
:1024500001900D928A95E1F7CE0101960E94B90B89
:10246000FE0131969701205F3F4F9191D7018C91EA
:1024700089278D937D0101501109A217B30719F027
:102480000115110591F78091E4038F5F8093E403B8
:1024900001151105C1F6D3CF9091EA03911106C041
:1024A0006CE874E084E891E00E94C307903141F445
:1024B00040E150E06AEE73E080E00E945B1190E042
:1024C000E92FF0E0E651FC4F80819F5F9093EA0393
:1024D0000895DF92EF92FF920F931F93CF93DF93B4
:1024E0006FE270E0009729F08136910530F061E3EA
:1024F00070E08FEB91E00E94C307C091B904D0E077
:10250000CF3F11F4CFEFDFEFECE8F4E028E934E05F
:10251000DF0132961C968D919C911D974D915C9197
:1025200084239523938782872E173F0789F766E0D8
:1025300070E088E994E00E94E6067C01892B09F0AE
:102540008FC08CE0ECE8F4E0A8E9B4E001900D92D3
:102550008A95E1F766E070E088E994E00E94E6067B
:102560007C01009709F4DDC0419708F479C010E0C0
:1025700000E0CF3FDC0751F1C136D1050CF070C04F
:102580009E012F70332781E090E002C0880F991FD1
:102590002A95E2F7FE0144E0F595E7954A95E1F7C3
:1025A000EE0FFF1FE856FB4F208131818C01022383
:1025B0001323809590958223932391838083011523
:1025C000110509F44FC070E1E71AF1080E944C129E
:1025D000D82E0E944C129D2DB70124E07695679568
:1025E0002A95E1F70E940A3134E0880F991F3A9545
:1025F000E1F7E8E9F4E070E060E021913191211524
:10260000310559F1A9015695479545755575D9017B
:10261000A41BB50BAD0143735373B695A795B6953F
:10262000A795A373B3734A0F5B1FDA01A07FB07F36
:102630004F705F7042955295507F5427407F5427CA
:102640004A0F5B1FDA01BB27452F55274A0F5B1F37
:102650008417950780F0841B950B605F7F4FCDCF6B
:1026600010E000E0CFEFDFEFB1CFA90141505109F9
:102670002423352340970097C1F744275527421B51
:10268000530B42235323CA018575957521E030E031
:10269000892B11F030E020E0CA0183739373892BFA
:1026A00009F447C090E080E0820F931F9A012F70D9
:1026B0003F70232B09F440C030E020E0820F931FCD
:1026C00030E020E0411102C028E030E0820F931F8B
:1026D000860F971FFC0144E0F695E7954A95E1F7D0
:1026E000EE0FFF1FE856FB4FAC014F70552721E05E
:1026F00030E0B90102C0660F771F4A95E2F7AB01DF
:10270000208131812627352731832083CF3FDC0785
:10271000B1F497FD06C0803491050CF4885F809376
:10272000B904DF91CF911F910F91FF90EF90DF904F
:10273000089582E090E0B8CF24E030E0BFCF24E0FD
:10274000D595C7952A95E1F7CC0FDD1FC856DB4F0D
:1027500028813981022B132B19830883DACF8091CA
:102760007C0490917D04A0917E04B0917F04892B1C
:102770008A2B8B2B09F04BC08091AA049091AB045B
:102780001092BA048E7C977A9093AB048093AA043B
:10279000109239051092C0040E9476078FEF809343
:1027A000B9048091A4049091A5040E9469120E942A
:1027B0000C0860936404709365048093660490939E
:1027C00067048091AA049091AB0493FF06C064ED66
:1027D00070E08FEB91E00E94C3071092BE04E0917D
:1027E0003305EF3F91F0EF70F0E0E056FD4FE491DC
:1027F000E093BD0484609093AB048093AA0481E9C4
:1028000092E20E94B80881E00895E3E1F1CF80E010
:1028100008951F93CF93DF93CDB7DEB72F970FB6F1
:10282000F894DEBF0FBECDBF80E00E9400100E9472
:10283000BC078091520490915304A0915404B0912C
:102840005504892B8A2B8B2B09F047C081EC95E02E
:1028500060E574E00E946D060E9430088FE0E1E4BC
:10286000F4E0DE01119601900D928A95E1F7E1E422
:10287000F4E08EE791E0DF019C011D922150304091
:10288000E1F78FE0FE013196A1E4B4E001900D92F2
:102890008A95E1F70E944C12182F0E944C12912F3A
:1028A0009093AD048093AC041092AB041092AA04F0
:1028B0001092BF0480E8809331050E94760781E082
:1028C00080932E052F960FB6F894DEBF0FBECDBFB6
:1028D000DF91CF911F910C9432118FEB95E0B8CF1F
:1028E000CF92DF92EF92FF92CF93C82F0E944C12AB
:1028F000F82E0E944C129F2D6C01853224EF920716
:1029000020F024E2C21A24EFD20AF12CE12CCC23CD
:1029100069F06C2F0E94FE30292F30E0A4E2B4EF62
:102920000E946C31C60ED71EE81EF91EC701B60103
:10293000CF91FF90EF90DF90CF900895CF92DF92EC
:10294000EF92FF926B017C01842F442331F00E94AF
:102950007014C60ED71EE81EF91E8091BA04882393
:10296000A9F08091740490917504A0917604B091BF
:102970007704A7019601281B390B4A0B5B0BDA0180
:10298000C901181619061A061B068CF4C0927404A5
:10299000D0927504E0927604F09277048091AA04B4
:1029A0009091AB0491609093AB048093AA04FF9044
:1029B000EF90DF90CF900895AF92BF92CF92DF92C9
:1029C000EF920F931F93CF93DF93DC011A141B0434
:1029D000A4F590E1E5EDF3E0EF01892F19928A95D6
:1029E000E9F7F1E0F093E403F093D503E092DA0322
:1029F0004093DB035093DC036093DD037093DE03AD
:102A00000093DF031093E0032093E1033093E2038C
:102A1000FD01A1E2B4E001900D929A95E1F7A501C4
:102A2000B60184E0DF91CF911F910F91EF90DF907D
:102A3000CF90BF90AF900C945B11DF91CF911F911D
:102A40000F91EF90DF90CF90BF90AF9008952F92AD
:102A50003F924F925F926F927F928F929F92AF922E
:102A6000BF92CF92DF92EF92FF920F931F93CF937B
:102A7000DF93CDB7DEB72A970FB6F894DEBF0FBE4F
:102A8000CDBF8C010E940C086B017C014AE0F7FE6F
:102A90000DC06DE287EC95E00E94C303662777279F
:102AA000CB016C197D098E099F094AE00E941D0A1D
:102AB00087E293E00E94100AF8013197E431F105B2
:102AC00008F085C3EA59FA4E0C945F317A159615D1
:102AD00099159C159F15A215E718A515A815AB15F6
:102AE0001F162216251628162B16E7182E16E11883
:102AF000F218E4188AE092E02A960FB6F894DEBF46
:102B00000FBECDBFDF91CF911F910F91FF90EF903E
:102B1000DF90CF90BF90AF909F908F907F906F90FD
:102B20005F904F903F902F900C94650A8AEF91E050
:102B3000E3CF89EE91E0E0CF87ED91E0DDCF8CEC43
:102B400091E0DACF82EC91E0D7CF83EB91E0D4CF64
:102B500082EA91E0D1CF82E791E00E94650A8091FC
:102B60003A0587FF04C085E691E00E94650A8091DE
:102B70003C058823F1F18BE591E00E9410046091FF
:102B80003C0570E090E080E04AE00E941D0A87E486
:102B900091E00E9410048AE391E00E9410041A82DE
:102BA000198201E012E080913C0529813A81821767
:102BB0001306E9F0E4F0E0913B05C9018F5B9B4F00
:102BC000E80FF92FF11DE450FF4F80811F928F9382
:102BD0001F930F930E94AC3249815A814F5F5F4F20
:102BE0005A8349830F900F900F900F90DCCF0E9473
:102BF000610A0E940C08AB01BC0148595647664F58
:102C00007F4F20E734E28BE094E02A960FB6F894E9
:102C1000DEBF0FBECDBFDF91CF911F910F91FF900F
:102C2000EF90DF90CF90BF90AF909F908F907F906C
:102C30006F905F904F903F902F900C94F7088CE22C
:102C400091E05ACF83E291E057CF85E191E054CFF4
:102C500088E091E051CF8AEF90E04ECF8FEE90E088
:102C60000E94650A1F9281E08F9386E092E09F9315
:102C70008F930E94AC321F9282E08F9381E392E0A7
:102C80009F938F930E94AC32A0903C050FB6F894AE
:102C9000DEBF0FBECDBFAA2009F4A4C2C090A80415
:102CA000D090A9040C2D07700A5F960143E0369579
:102CB00027954A95E1F72370C60155E096958795CB
:102CC0005A95E1F783708090BD04E0908404F09001
:102CD000850471E0E71AF10815E0882339F016E061
:102CE000813021F017E0823009F018E0222349F00A
:102CF0003AEFB32E213039F094EFB92E9924939402
:102D000003C02DE7B22E912CC09070047090710416
:102D100060907204509073040E940C081F92DF921E
:102D2000FF92EF921F921F939F92BF921F928F92DA
:102D30001F920F931F92AF925F926F927F92CF92EA
:102D40009F938F937F936F9385E592E09F938F93EB
:102D50000E94AC328091BC041F928F9382EA92E071
:102D60009F938F930E94AC3282EE90E00E941004F9
:102D70006091C50470E090E080E04AE00E941D0A86
:102D80008CEC90E00E9410040FB6F894DEBF0FBEEA
:102D9000CDBFF12CE12C01E012E08091C5048E152D
:102DA0001F04D1F0CCF0E0913B05C7018F5B9B4F36
:102DB000E80FF92FF11DEB57FF4F80811F928F9382
:102DC0001F930F930E94AC329FEFE91AF90A0F90FC
:102DD0000F900F900F90E1CF0E94610A8FEB90E06F
:102DE0000E94100460913C0570E090E080E04AE0B1
:102DF0000E941D0A88EA90E00E941004F12CE12C48
:102E000001E012E080913C058E151F04D1F0CCF05A
:102E1000E0913B05C7018F5B9B4FE80FF92FF11D38
:102E2000E450FF4F80811F928F931F930F930E9456
:102E3000AC32EFEFEE1AFE0A0F900F900F900F904A
:102E4000E1CF0E94610A80913C051F928F9386EB2F
:102E500092E09F938F930E94AC3200913C05045006
:102E6000110B0F900F900F900F9081E0E82E82E0F1
:102E7000F82E80913C0580171106C9F0C4F0E0914E
:102E80003B05C8018F5B9B4FE80FF92FF11DE45004
:102E9000FF4F80811F928F93FF92EF920E94AC327E
:102EA0000F5F1F4F0F900F900F900F90E2CF0E9477
:102EB000610A20913C054DE355E05C834B8390E033
:102EC00080E01A821982622F70E078876F83EF8129
:102ED000F88529813A812E173F070CF048C1EB8114
:102EE000FC812191FC83EB83022E000C330B6C01DF
:102EF0004CE0D594C7944A95E1F7A92FBB27A7FDCD
:102F0000BA95AC25BD253D0162267326F1E06F22FE
:102F100077247C016DE0F594E7946A95E1F75C0114
:102F2000AB2CBB0CBB08A594AE24BF2449019594DF
:102F300087948A249B24880C991C42E0842299243B
:102F4000862897288C01110F000B110F102F001FDE
:102F50002C01452C550C5508459445944026512686
:102F6000F901F595E795F595E795E425F525EE0F3B
:102F7000FF1FEE0FFF1FE470FF27E80DF91D592F0B
:102F8000551F5527551F59871A861C014BE035944C
:102F900027944A95E1F723FB662760F96D831E822B
:102FA000A1014170552769857A85462757276D818C
:102FB0007E814627572763E0440F551F6A95E1F746
:102FC0004E0F5F1FB901E4E075956795EA95E1F74B
:102FD0006C257D25F4E0660F771FFA95E1F76071A7
:102FE0007727460F571FF90165E0F595E7956A9534
:102FF000E1F7BD016E257F256E277F27E5E0660F8F
:10300000771FEA95E1F760727727640F751FA501B6
:1030100040275127F901689415F8F595E79516941E
:10302000E1F74E275F27E6E0440F551FEA95E1F7E9
:1030300040745527640F751F4201E1E08E229924E8
:1030400049855A85842695262227330F221F332748
:10305000282539253695322F222737952795260F93
:10306000371FB10168277927617077276427752793
:10307000762F6627620F731F3C0175946794C624F0
:10308000D724DC2CCC24DD0CCC2452E0D5226C0DD2
:103090007D1DAC0155954795559547954E255F2566
:1030A000542F4427550F550F44275470640F751F34
:1030B000FC0123E0F595E7952A95E1F7E027F12754
:1030C000FE2FEE27FF0FFF0FFF0FEE27F8706E0F9A
:1030D0007F1F9C0144E0359527954A95E1F7A2278B
:1030E000B327A170BB27E985FA85AE27BF27BA2F82
:1030F000AA27B295B07F6A0F7B1F9C01E5E035954A
:103100002795EA95E1F72A253B25322F222732958C
:10311000330F307E22273072620F731F9C01A6E0AE
:1031200035952795AA95E1F742265326B0E44B9EA4
:10313000502C442411244424F0E45F22640D751DB6
:10314000880F892F881F990B8225932529853A8519
:10315000822793279927869597958827860F971F0B
:1031600049815A814F5F5F4F5A834983B0CE9F9305
:103170008F939F938F938FEC92E09F938F930E94F6
:10318000AC320F900F900F900F900F900F902A96E7
:103190000FB6F894DEBF0FBECDBFDF91CF911F9168
:1031A0000F91FF90EF90DF90CF90BF90AF909F90E6
:1031B0008F907F906F905F904F903F902F900C94E6
:1031C000610A8AE990E098CC88E790E095CC88E69F
:1031D00090E00E941004B80190E080E04AE00E9474
:1031E0001D0AD5CF2A960FB6F894DEBF0FBECDBF0D
:1031F000DF91CF911F910F91FF90EF90DF90CF90D3
:10320000BF90AF909F908F907F906F905F904F9006
:103210003F902F900895CF92DF92EF92FF92CF933D
:10322000DF93EC01C12CD12C7601C3940C2E04C089
:10323000CC0CDD1CEE1CFF1C0A94D2F7E3FC03C08F
:10324000CE010E942715D701C60188279472AA27AC
:10325000BB27892B8A2B8B2B01F1E0914504F09140
:1032600046043097D1F020913C0540913B05211157
:1032700002C0442391F080913A0550E060E084FF61
:1032800004C0DA01A45CBA4F6C9130E0435C5A4F41
:1032900080914704909148040995CC2484E0D82279
:1032A000E822FF24CD28CE28CF2819F1E091490447
:1032B000F0914A043097E9F010924A0410924904C0
:1032C000C231D10541F180913A0583FD24C090912E
:1032D000C40461E0992339F0082E000C990B692F82
:1032E000661F6627661F70E080914B0490914C0426
:1032F0000995E0914104F0914204309771F0BE01CC
:103300008091430490914404DF91CF91FF90EF901E
:10331000DF90CF90099460E0E6CFDF91CF91FF90EE
:10332000EF90DF90CF90089582E080933A05E0918E
:103330003505F0E0EF54FD4FE491F0E0EF77E06801
:10334000F093A904E093A8048091880490918904E3
:10335000A0918A04B0918B048093700490937104BF
:10336000A0937204B093730410923C0583E190E043
:103370000E940B1980E00C94B81080E49AE29093BC
:103380005704809356040C94941982E694E2909327
:103390005704809356040C94941921E020933A0525
:1033A000E8EAF4E0208131812068318320831092A3
:1033B0003C05909357048093560483E190E00E946B
:1033C0000B1980E00C94B81089E29AE20C94CD19A4
:1033D0008FE494E20C94CD192F923F924F925F921A
:1033E0006F927F928F929F92AF92BF92CF92DF9215
:1033F000EF92FF920F931F93CF93DF93CDB7DEB77A
:10340000CB58D1090FB6F894DEBF0FBECDBF809167
:10341000B004811149C781E08093B0048091AA046F
:103420009091AB049C01217C3327232B81F44091A4
:103430007C0450917D0460917E0470917F04452B43
:10344000462B472B29F582FD2FC00E94AF13809198
:10345000B00481508093B0048111E0CFC557DF4F95
:103460000FB6F894DEBF0FBECDBFDF91CF911F9195
:103470000F91FF90EF90DF90CF90BF90AF909F9013
:103480008F907F906F905F904F903F902F90089516
:1034900096FF0AC09F7B9093AB048093AA048EE9A9
:1034A00091E20E94B808D3CF0E940C086B017C0106
:1034B0000091AA041091AB04C8018C739927892B41
:1034C00009F4E7C613FF58C18091A4049091A504A4
:1034D000009711F00E946912C0926404D0926504B2
:1034E000E0926604F09267048091AA049091AB0484
:1034F000977F9093AB048093AA04B701A6018091B3
:10350000BA04811106C08091AA049091AB0490FF87
:1035100012C08091740490917504A0917604B091CA
:1035200077042A013B01481A590A6A0A7B0A77FE86
:1035300002C0AC01BD0121E7C20E22E0D21EE11C97
:10354000F11CDB01CA018C199D09AE09BF09B7FF47
:103550008CC63091BE04CF57DF4F3883C158D0405E
:1035600004721127012B09F41FC18091AA04109144
:10357000C00485FD16C110923D059091AC04809168
:10358000AD0490934E0580934F0543E150E06DE309
:1035900075E08AE00E945B116093530570935205B9
:1035A000809351059093500587E180933C0580916D
:1035B000AC049091AD0401969093AD048093AC045B
:1035C00083EB9DE09093570480935604CF57DF4FD1
:1035D000C880C158D040EC2DF0E0EF54FD4FE4918D
:1035E0008091BF0420E2829FC0011124EF798E2BCD
:1035F0009093A9048093A804C092B5048091AA0472
:103600009091AB048F76967F806898609093AB041E
:103610008093AA04A091B904A03670F5B0E020E42C
:103620003DE043E050E00E9482318B019C01005A52
:103630001A4C274F334E00364FE9140740E2240757
:103640004CE1340708F0E9C4605A764A8340934E4F
:103650006093700470937104809372049093730468
:10366000E0913305EF3F09F456C5EF70F0E0E05606
:10367000FD4FE491E093B6049091BD048091B604AF
:1036800098170CF4892F8093B70481E190E00E9491
:103690000B19109264041092650410926604109243
:1036A000670481E00E94310E877059F080E00E942B
:1036B00000100E940C08625C7F4F8F4F9F4F0E944A
:1036C0004F0940906C0450906D0460906E047090AF
:1036D0006F0414141504160417040CF021C581E0BE
:1036E0000E940A108091700490917104A09172045C
:1036F000B091730481349D4DAA44BF4108F40DC5B7
:1037000083E69FEFE0911F04F091200427817C0164
:10371000E20EF11C27FDFA940E940C08615E7F4FB7
:103720008F4F9F4F0E944F090E940C0810E0460ED9
:10373000571E681E791E8BE10E94310E181708F47F
:10374000182F0E940C08641975098609970997FDBE
:10375000F2CF80E00E9400108091B804082E000C87
:10376000990BE10EF11CE816F9060CF4D9C480910E
:1037700056049091570495CE40916404509165048D
:103780006091660470916704BACECF57DF4F88818D
:10379000C158D0400E94BF0DCF57DF4F8883C1581A
:1037A000D040115090F7E7CE809180049091810431
:1037B000A0918204B091830480389F4FAF4FBF4FD8
:1037C00018F084E991E26DCE8091390581110DC028
:1037D0008091840490918504A0918604B09187041F
:1037E0008F3F9F4FAF4FBF4F61F3E090AA04F0901F
:1037F000AB0478E1E722FF2480E1E816F10409F444
:10380000EBC1A090C5048091C304882309F4E6C1EC
:103810008091FB04882309F4E1C10091FA0400239C
:1038200009F4DCC110E0A8016CEF74E085E495E0D8
:103830000E949C32085F1F4F1092FA041092FB0402
:1038400080913605882331F086FFCBC190E489272B
:103850008093360580913705882331F086FFD1C1EA
:1038600090E489278093370580913805823009F0EC
:10387000D8C181E080933805093111050CF0ACC343
:1038800080912D05882361F08091AE049091AF0462
:1038900097FF04C090E080E00E94350710922D054C
:1038A0006A2C712C25E0620E711CF0E1EF16F10418
:1038B00019F4A4E06A2E712C600E711E31E46316B7
:1038C00071040CF0B9C191E040E1E416F10409F48F
:1038D00090E0E091BE04E63008F0B3C1F0E0E656B7
:1038E000FD4FE491E615170408F476C380E4809355
:1038F0003D0580912B0540913105482B2091AE0468
:103900003091AF0437FD9FC121523109203B324035
:1039100008F499C120E488EF800F842B822B8093D8
:10392000420540917C0430917D0420917E04809179
:103930007F0440933E0530933F05209340058093DC
:10394000410580913905811118C02091C1042111D0
:1039500014C0409184045091850460918604709154
:1039600087044F5F5F4F6F4F7F4F409384045093A6
:1039700085046093860470938704209184043091B9
:10398000850421503109209343053093440510925A
:103990002B059923D9F19091C404992309F455C1B9
:1039A00090E890933D05811103C081E08093390533
:1039B000F801E35CFA4F8091C3048083C801825C04
:1039C0009A4F6C01B12CA50166EC74E00E949C3208
:1039D000009184041091850420918604309187041D
:1039E000015011092109310940917C0450917D0455
:1039F00060917E0470917F048091C304811132C173
:103A00008BE095E0F12CE12C0E94DC148301045042
:103A100011098091840490918504A0918604B0914D
:103A200087040197A109B10960917C0450917D043C
:103A300040917E0430917F0420E1E5EDF3E0C22E59
:103A40001192CA94E9F779E47093D5031092DA03DE
:103A50000093E4036093DB035093DC034093DD03A6
:103A60003093DE038093DF039093E003A093E103A0
:103A7000B093E203EBE0F5E0A1E2B4E001900D9237
:103A80002A95E1F7A8016DE375E082E00E945B11E1
:103A9000F801E35CFA4F63837283818390836092C1
:103AA0003C057F926F9226E033E03F932F930E9474
:103AB000AC320F900F900F900F9010E000E08091CB
:103AC0003C058017110611F00CF0CFC08AE090E0A1
:103AD0000E94C23280913C051F928F93EAE2F3E08C
:103AE000FF93EF930E94AC3200913C050450110B00
:103AF0000F900F900F900F9080913C05801711064A
:103B000011F00CF0CCC08AE090E00E94C2328091AB
:103B10003C05ADE3B5E0CC57DF4FB983A883C4586B
:103B2000D040CA57DF4FB983A883C658D04010E0B1
:103B300000E0912C812CC82ED12CC657DF4FD982A2
:103B4000C882CA58D040C657DF4F48815981CA58E9
:103B5000D040841695060CF4B8C01F930F931F93A2
:103B60000F9384E493E09F938F930E94AC32198368
:103B70001A8211271C830B8310913C05412F50E0C2
:103B8000FE0135960F900F900F900F900F900F90B1
:103B9000ADE3B5E090E080E0841795070CF404C233
:103BA000440F551F70E060E08DE395E00E94A53260
:103BB0001E5F10933C05FE01319630E020E0812F1E
:103BC00090E0281739070CF4F5C1E8E9FDE0F0931F
:103BD0005704E0935604FACCA12C1ACE08E010E06A
:103BE0002BCE98012F5B3B4FF901E450FF4F95E03E
:103BF000908323503F4F8770D9018C930E5F1F4FE6
:103C000029CE98012F5B3B4FF901E450FF4F9AE01A
:103C1000908323503F4F8370F90180830E5F1F4FC5
:103C200023CE882309F428CEF801E35CFA4F88E01C
:103C300080830F5F1F4F20CE380154E0650E711C4A
:103C400047CEE0E04FCE20E066CE8091BC048823D2
:103C500009F4AECE8091C1048111AACE81E0809397
:103C6000C104A6CE8BE195E0CDCEE0913B05C80125
:103C70008F5B9B4FE80FF92FF11DE450FF4F8081C0
:103C80001F928F9381E092E09F938F930E94AC32BA
:103C90000F5F1F4F0F900F900F900F9010CFE0917C
:103CA0003B05C8018F5B9B4FE80FF92FF11DE450D6
:103CB000FF4F80811F928F9321E032E03F932F933B
:103CC0000E94AC320F5F1F4F13CFCA57DF4FA8813E
:103CD000B981C658D040BD90CA57DF4FB983A88379
:103CE000C658D04078019CE0F594E7949A95E1F7A6
:103CF000212E332427FC3A942E243F244B2D0B2CC9
:103D0000000C550B42255325CA0181709927D80113
:103D1000A8E0BA02A12DBB0B11249801232F330F69
:103D2000330B2595F901EA27FB27CE57DF4FF9839F
:103D3000E883C258D0402B2D2595022E000C330B62
:103D40002E273F27220F331F22703327822B932BDE
:103D5000F801FF0FEE0BFF0FFE2FEE1F2801452C81
:103D6000550C5508459445944E265F262B2D2595D8
:103D70002595022E000C330B24253525220F331FE9
:103D8000220F331F24703327280F391FA80144271F
:103D9000550F441F5527B80160E27602612D770B5D
:103DA0001124CB018170992784279527B3FACC245D
:103DB000C0F8C857DF4FC882C858D040C757DF4F38
:103DC0001882C958D040C857DF4FC880D980C8581A
:103DD000D0408C259D25880F991F880F991F880F2B
:103DE000991F280F391F8B2D85958595859585956C
:103DF000082E000C990B8E259F2582959295907F19
:103E00009827807F982780719927820F931F2B2DE9
:103E100025952595259525952595022E000C330B86
:103E20006D01C224D3242C253D25689414F8220F5B
:103E3000331F1694E1F720723327820F931FCE575A
:103E4000DF4F28813981C258D0402E273F27CB2C05
:103E5000C6FACC0CCC08C0F80C2C000CDD082C25C4
:103E60003D25689415F8220F331F1694E1F720744E
:103E70003327820F931F320121E0622277246426C8
:103E80007526BB1CBB24BB1C6B247694762C662445
:103E900077946794680E791ECB01802791278170F3
:103EA000992784279527982F8827860D971D980195
:103EB00035952795E226F326FE2CEE24FF0CEE2402
:103EC00032E0F3228E0D9F1D6801D594C794D594DE
:103ED000C794CA26DB26DC2CCC24DD0CDD0CCC24DC
:103EE000A4E0DA228C0D9D1D3801B3E0759467942F
:103EF000BA95E1F76E267F26762C6624770C770C30
:103F0000770C6624B8E07B22860D971D9801E4E0CB
:103F100035952795EA95E1F722263326E1E02E2212
:103F2000332424263526322C22243294F0EF3F22EB
:103F3000820D931D9801A5E035952795AA95E1F787
:103F4000CE57DF4FC880D980C258D0402C253D25A0
:103F5000322F22273295330F307E22273072820F84
:103F6000931FD80126E0B595A7952A95E1F7A425DA
:103F7000B525B0E4AB9FB02DAA271124AA27B074B1
:103F80008A0F9B1F000F012F001F110B06271727F9
:103F9000042715271127069517950027080F191FC5
:103FA0002FEF821A920ACFCD2D9130E021933193D9
:103FB0000196F2CD40813296CC57DF4FA881B9816E
:103FC000C458D0404D93CC57DF4FB983A883C45811
:103FD000D0402F5F3F4FF5CD88E080933A05809128
:103FE000C404811104C080913905882319F088E444
:103FF00080933A058091AA049091AB0487769E7FC6
:104000009093AB048093AA0410923C0510923B0558
:104010008AE090E00E940B191ACA003659E0150791
:1040200059E325075CE1350728F4605A70418C415B
:10403000934E0ECB0036A3E71A07A1E52A07ACE1A1
:104040003A0728F4605A7A478443934E01CB0036EE
:10405000BDED1B07B9E62B07BCE13B0728F4605A0E
:10406000744E8C44934EF4CA0036E7E41E07E2E82F
:104070002E07ECE13E0728F4605A7E448546934EB5
:10408000E7CA0036F1EB1F07FAE92F07FCE13F070B
:1040900028F4605A784B8D47934EDACA00364BE1CC
:1040A000140743EB24074CE1340728F4605A7242AA
:1040B0008649934ECDCA003655E815075BEC2507B7
:1040C0005CE1350728F4605A7C488E4A934EC0CA9A
:1040D0000036AFEE1A07A3EE2A07ACE13A0728F440
:1040E000605A764F864C934EB3CA0036B9E51B072B
:1040F000BCEF2B07BCE13B0728F4605A70468F4D9C
:10410000934EA6CA00937004109371042093720416
:1041100030937304A5CAE3E1ADCA8CE59FEFF2CA00
:104120008091A804877009F06AC00E94DC0F81E0CA
:104130000E94001080E00E94560E60E085E20E941E
:10414000430E65E086E20E94430E0E94EA0E0E9442
:10415000830E69E28AE00E94430E64E380E40E94D9
:10416000430E60913C056F5F82E30E94430E6091B5
:104170003C0580E00E94430E40913C0550E020E069
:104180006DE375E080E80E94C80D81E00E94C309DC
:104190006091640470916504809166049091670455
:1041A000611571058105910531F10E944F09611575
:1041B000710581059105F9F000915E0410915F048D
:1041C0002091600430916104DC01CB01800F911FCC
:1041D000A21FB31F80935E0490935F04A0936004BA
:1041E000B09361048091620490916304019690936E
:1041F00063048093620483E00E94001028C90E9437
:10420000EE0F81E00E94310E87FD06C061E273E08F
:1042100084E891E00E94C30781E00E9400100E94A0
:104220003A0F0E94EA0E68E08AE00E94430E0E9464
:10423000830E64E389E30E94430E6CE780E40E94EE
:10424000430E6FEF82E10E94430E67EF81E10E940F
:10425000430E60E08EE00E94430E60E08DE00E941D
:10426000430E60913C0582E285CF8091AA0481FFD4
:1042700005C0411551056105710589F0415752404E
:104280006109710922EB31E280E594E00E94F708B0
:10429000DEC840E050E0BA0101FDF0CFD8C841E0EF
:1042A00050E060E070E0EACF82E08093B004D6C8CE
:1042B0008091AA049091AB0483FF35C01092C5048D
:1042C00082FF2CC0877E9093AB048093AA0482E186
:1042D00090E00E940B198091AA049091AB04857024
:1042E0009927892B01F50E94BC0780915204909177
:1042F0005304A0915404B0915504892B8A2B8B2B25
:1043000079F481EC95E060E574E00E946D060E940E
:10431000300880E00E9400100C94EC198776D3CF0F
:104320008FEB95E0F0CF08950E9458210E94091468
:104330008CE090E00E940B190C94AF13EAEAF4E0D1
:10434000808191818E7D9F7B9183808310927C04FC
:1043500010927D0410927E0410927F040E945821D6
:104360000C94AF130C94EC19CF938091AA04909104
:10437000AB0487779093AB048093AA041092C10496
:10438000109239052091FA04222351F03091FB0458
:10439000332309F466C080619093AB048093AA0430
:1043A0000E940C086E5E75488F4F9F4F40E00E9440
:1043B0009E1480913A05877079F08091AA049091BB
:1043C000AB0494FF09C09F7E9093AB048093AA0432
:1043D0008FE090E00E940B198AE090E00E940B1998
:1043E0000E94EC198091AE049091AF048197B4F1D2
:1043F0008091BE040E94BF0DC82F2091A40430916B
:10440000A5048091BE042730310508F4C82F8C1311
:1044100032C08091AE049091AF04813F92404CF045
:104420008091AA049091AB0490649093AB04809324
:10443000AA0463E18C2F0E9418078091AA0490912E
:10444000AB049C0130613093AB042093AA0428177D
:10445000390721F08EE090E00E940B1981E0CF91A6
:1044600008951092C4041092C3042093C5041092BE
:10447000FA04886091CFCC23E1F290E080E00E94C2
:104480003507D7CF809139058823B1F1883020F5E1
:104490008F5F8093390580FF07C08091BE040E9422
:1044A000BF0D60E80E94180760916804709169046C
:1044B00080916A0490916B0443E00E949E14809165
:1044C000AA049091AB048F779093AB048093AA04D5
:1044D0000E94EC1981E0089580E680933A0580916E
:1044E000AE049091AF0401960E94350710923C05EE
:1044F00010923B050C94B4218091C104882379F07B
:104500009091BC04891758F48F5F8093C1040E9476
:104510000C086E5E75488F4F9F4F40E0CECF80E213
:10452000DCCF8091C204882341F00E94321185E0E3
:1045300090E00E940B190C94EC1981E08093C20466
:10454000F6CFCF92DF92EF92FF92CF93DF938091DD
:10455000AA049091AB0482FD22C085FD0DC08F7727
:104560009093AB048093AA0481E0DF91CF91FF90F8
:10457000EF90DF90CF9008958F759093AB04809368
:10458000AA048091C0048A3018F48F5F8093C0041D
:1045900089E090E00E940B190E94EC19E5CF8F771B
:1045A0009093AB048093AA0484E190E00E940B19DD
:1045B0008091BB048093B9048091A4049091A504D8
:1045C0000E946912809139058F5F80933905C82F49
:1045D000C7701092BE048091AA049091AB04977F9B
:1045E0009093AB048093AA040E940C086B017C0199
:1045F0002091BE0480E190E002C0959587952A95B0
:10460000E2F70E947014C60ED71EE81EF91EC09273
:104610006404D0926504E0926604F0926704C12CB1
:10462000D12C7601C394CC2399F0C12CD12C7601E6
:10463000C2EBD1E20E940C08AB01BC014C0D5D1D28
:104640006E1D7F1D9E0180E594E00E94F7088CCFCF
:10465000CAE6D4E2EFCF80913A0580FF0C94A12204
:1046600080E00895CF92DF92EF92FF920F931F9315
:10467000CF93DF9380913A0580FF05C080913C0580
:10468000882309F402C18091AA049091AB0487FFAA
:10469000E6C084729927892B51F4DF91CF911F9145
:1046A0000F91FF90EF90DF90CF900C942B231091FF
:1046B0003C0511110AC0DF91CF911F910F91FF901E
:1046C000EF90DF90CF900C94A122113111F01132B4
:1046D00021F780913D05837E8032F9F6C12FD0E02D
:1046E000AE01415051096EE375E080E00E945B111C
:1046F0002497AE016DE375E08AE00E945B116B01C7
:104700007C01C35CDA4F688179818A819B810E9438
:104710006531C616D706E806F90609F0BECF84E46F
:1047200095E00E94AE0760937C0470937D048093B3
:104730007E0490937F0481E495E00E94AE07992760
:10474000609378047093790480937A0490937B0447
:104750001132D1F4809159058130B1F49AE4E92EF7
:1047600095E0F92EC0E0D70111960C9111978C912C
:10477000102F082FD0E1DC0FDC1373C0B2E0EB0E7A
:10478000F11CCD2FD03679F78091AC049091AD0417
:104790000197E3E1F5E028E0DF011D922A95E9F7B2
:1047A00021E020930B0526E0EEE3F5E0ACE0B5E078
:1047B00001900D922A95E1F78093120590931305CD
:1047C00080E1EBE0F5E0ABE1B5E001900D928A9578
:1047D000E1F782E080931B0540E150E06BE075E07B
:1047E00080E00E945B1140E150E06BE175E080E009
:1047F0000E945B118091AA0485FF08C0C091C0048B
:104800008091BE04C150E0F58093BE048091AA045B
:104810009091AB0489759D7F98609093AB048093D1
:10482000AA04109239050E948A0780EC9FEF0E942B
:10483000350780914805982F9F7090933505829594
:10484000877080933405809149058823E1F0809337
:104850002E0586E090E00E940B190E94EC1981E081
:1048600015C0C03609F48ACF8C2F00FF06C00E9405
:104870008406CF5F169507957FCF0E94B406F9CFC7
:104880000E94BF0DBFCF81E0E2CF80E0DF91CF91EA
:104890001F910F91FF90EF90DF90CF90089580913E
:1048A0003C0581110AC02091350545EC59E168EDC0
:1048B00078EB85E090E00C94EF0C0E943223882383
:1048C00091F3089580913C05811102C010923A0540
:1048D0000C94322388E090E00E940B190C94EC19A0
:1048E0004F925F926F927F928F929F92AF92BF9200
:1048F000CF92DF92EF92FF928091AA0487FF10C0BF
:104900008AE392E0FF90EF90DF90CF90BF90AF905E
:104910009F908F907F906F905F904F900C94650A5E
:104920000E943505812C912C20ECA22E2FE7B22E6F
:10493000882329F080E00E9451024B015C018CE742
:1049400093E00E94100A42E0C501B4010E94710A7E
:104950008AE893E00E94100A0E94610A0E943505CD
:10496000412C512C90EC692E9FE7792E882329F059
:1049700081E00E9451022B013C010E9435058823F1
:1049800051F080916C068B3030F08D3058F08551AD
:10499000823008F44BC0C12CD12C80ECE82E8FE77C
:1049A000F82E1EC06091670670E090E080E00E94E3
:1049B000D72F2DEC3CEC4CEC5DE30E948C306B016E
:1049C0007C016091660670E090E080E00E94D72F45
:1049D0009B01AC01C701B6010E94BC2E6B017C019A
:1049E0008EE893E00E94100A42E0C701B6010E94DF
:1049F000710A0E94610AA5019401C501B4010E94D7
:104A0000F930811110C0A3019201C301B2010E94CB
:104A1000F930811108C0A7019601C701B6010E94B3
:104A2000F9308823A9F08AE192E06CCF60916606A4
:104A30007091670676276727762790E080E00E94CE
:104A4000D52F2DEC3CEC4CEC5DE30E948C30C6CFB6
:104A500020E030E040E251E4C501B4010E948C3016
:104A60000E949F2F7093020160930301A70196019A
:104A7000C701B6010E94BC2E0E94A62F60930601BA
:104A80008091AA049091AB048C799927892BE1F449
:104A90003091BE044091A4045091A504832F90E06E
:104AA0004730510588F0863078F4FC01E656FD4F1A
:104AB000E491EE2349F0E431D8F5FC01EE54FD4FCA
:104AC000E4910196EF3F61F78091AA049091AB04C5
:104AD0009C012C793327232B89F527E0E0E0F1E0D6
:104AE000A6ECB4E001900D922A95E1F71092C4046F
:104AF00021E02093C30427E02093C5049C01286093
:104B00003093AB042093AA0482FD04C010923905AF
:104B10001092C104FF90EF90DF90CF90BF90AF90C4
:104B20009F908F907F906F905F904F900C94EC19B6
:104B3000381751F260E80E941807C6CFFF90EF9037
:104B4000DF90CF90BF90AF909F908F907F906F90AD
:104B50005F904F9008952F923F924F925F926F9285
:104B60007F928F929F92AF92BF92CF92DF92EF92FD
:104B7000FF920F931F93CF93DF93CDB7DEB76C9760
:104B80000FB6F894DEBF0FBECDBF998F888F3B0163
:104B90001092FA04452B09F51092FB04F12CE12C3C
:104BA000E614F704F4F0C7016C960FB6F894DEBF74
:104BB0000FBECDBFDF91CF911F910F91FF90EF906E
:104BC000DF90CF90BF90AF909F908F907F906F902D
:104BD0005F904F903F902F90089581E08093FB0469
:104BE000DDCFC88CD98CCE0CDF1CF60120812230A1
:104BF00050F1422F4250550BFA014231510518F540
:104C0000ED5AFD4FE4918E2F90E09D8B8C8B892B7C
:104C100051F2C3018E199F09EC89FD898E179F07F8
:104C20000CF4C1CF2250283080F4E22FF0E0E55E92
:104C3000F94D0C945F3126262E26F1277A274E2730
:104C40002526E3270228E0E0DECF3701EC89FD8945
:104C5000EE0DFF1D730137017F01A2CFD60107E0E2
:104C60001B8A1A8A2A893B892B5F3F4F49019C0185
:104C70004A895B89241B350B253031050CF493C020
:104C800011962C91119712964D915C911397149651
:104C90003C9114973077E22FE295EF70303558F061
:104CA000303509F078C04115510509F47AC0442720
:104CB000452B09F076C0E63030F4F0E0EF54FD4FBC
:104CC000E491EF3F09F40D7F2F70283038F4E22F84
:104CD000F0E0EE56FD4FE491E03809F40B7F1596B5
:104CE0002C91233009F454C08CE0ECE8F4E0DE01B0
:104CF000119601900D928A95E1F78091A40490910C
:104D0000A5049B8F8A8F412C10E0073009F077C0F3
:104D10009F8A8E8A160181E0412C10E0EE89FF897E
:104D200035970CF469C0F101A280B38011814480F1
:104D3000F42DF077F98BF035D9F5512C852DA0FEA7
:104D400034C00E94ED075394B694A79428E0521201
:104D5000F5CF2091A4043091A5044E895F89455078
:104D600051095F8B4E8B55E0250E311C81E02115DA
:104D7000310509F480E0A1014C195D094815590578
:104D80006CF2232BD9F1A12EA2948FE0A8223DC072
:104D90009B8A8A8A67CF303609F489CF303709F485
:104DA00082CF0E7F88CF00E09FCF0E94C607CBCF77
:104DB0008989803578F4805F8C8F5988FC8D5F16E7
:104DC00040F6852DA0FE15C00E9484065394B6942B
:104DD000A794F4CF512C9989852D903639F40E94EF
:104DE00084065394E0E65E12F6CFE8CF0E94B40644
:104DF000F8CF0E94B406EACF811101C006E0A12ECF
:104E0000A2947FE0A722073041F48091A4049091FE
:104E1000A50407E0079780F405E08CE0FE013196D9
:104E2000ACE8B4E001900D928A95E1F72A8D3B8DB4
:104E30003093A5042093A404BB24B394D12CC12C9B
:104E4000C4018C199D0905976CF0602F83E00E94C6
:104E50006007B82E35E0C30ED11CC814D90414F471
:104E60008111EECF073099F4842D8F709091BC049E
:104E700089138093BC041F7060E8183028F4E12F78
:104E8000F0E0EE56FD4F64918A2D0E9418074A8982
:104E90005B89E40EF51EBB2001F1D8CE2091B2044F
:104EA000022E000C330BC901029697FD03969595CF
:104EB000879595958795182F1F734F970CF01FE1D5
:104EC00010933005D0904F040091FA0486E00E94C0
:104ED0004107811104C00093FA04F701BCCE8D2D67
:104EE0000E9441078823B9F3812F0E94410788233C
:104EF00091F3ACCEC7010196E88DF98D8E0F9F1FFF
:104F0000FC012081122F1F7030E044E03595279579
:104F10004A95E1F7022F07700E94AE07272F382F1E
:104F2000492F5527A4E6B0E00E9482314B015C0175
:104F3000F0E88F1AF1EA9F0AF3E0AF0AFCE1BF0A3A
:104F400021E082162AE5920622E6A20622E0B206B7
:104F500018F060E070E0CB0130EC3093360516308D
:104F600050F4E12FF0E0EF54FD4FE491EF3F19F0E2
:104F700042EC40933605611571058105910529F0D4
:104F800020913605216020933605043028F42091C5
:104F9000360524602093360520913605273C61F4C0
:104FA00010933505609388047093890480938A0474
:104FB00090938B0400933405622F677085E00E9404
:104FC0006007B82E68CFF60181818F7009F481E007
:104FD00080932E05F2E0F093380588E00E944107A7
:104FE000F0CFF60181818F708093BA040E940C0883
:104FF000609374047093750480937604909377049F
:1050000084E0ECCFF60181818F738093330589E0D2
:10501000E5CF2F923F924F925F926F927F928F9245
:105020009F92AF92BF92CF92DF92EF92FF920F9337
:105030001F93CF93DF9300D000D000D0CDB7DEB761
:105040008091AA0487FFE5C1F0903C05F1101AC0D9
:1050500026960FB6F894DEBF0FBECDBFDF91CF917D
:105060001F910F91FF90EF90DF90CF90BF90AF9086
:105070009F908F907F906F905F904F903F902F9078
:105080000C9442222F2D30E03E832D832C303105AD
:1050900044F410923C0580913A0580FFD9CF80E01E
:1050A000B9C180913D05982F937099F7807E8983CF
:1050B000803611F0803A69F78EE395E00E94AE07E2
:1050C00000917C0410917D0420917E0430917F0436
:1050D0006017710782079307E1F6309142053B8321
:1050E0003F70E32EC32ED12C1601A8E02A0E311CEE
:1050F0002D813E81245031093E832D8322153305B5
:1051000044F288248A94982C221633064CF4F10138
:10511000E35CFA4F2081822E912CD60119961D0155
:1051200040908004509081046090820470908304C9
:105130000091430510914405041915090F3F10070C
:1051400009F078C021E0421A51086108710820E195
:10515000E5EDF3E0DF01322F1D923A95E9F739E4EE
:105160003093D50331E03093DA03ACEFAF0DAC836D
:10517000A093E4036093DB037093DC038093DD036F
:105180009093DE034092DF035092E0036092E103CC
:105190007092E203EBE0F5E0A1E2B4E001900D9241
:1051A0002A95E1F74D815E816DE375E082E00E9412
:1051B0005B119B01AC01ED81FE81E35CFA4F6081E4
:1051C0007181828193810E946531261737074807D4
:1051D000590709F05ECF8091800490918104A091DD
:1051E0008204B0918304481659066A067B0638F596
:1051F00084159505A605B7050CF44BCF0197A109B9
:10520000B109481659066A067B0609F042CF80911B
:105210002C05882309F43DCFB981B03A09F039CF84
:1052200080E280932B058114910409F40CC101E004
:1052300010E033C0400E511E611C711C88CF01303C
:10524000104408F026CFD301C2010196A11DB11D63
:105250008093800490938104A0938204B09383048C
:10526000398180E2303A09F080E080932C05809308
:105270002B0510E000E08114910441F4EE2031F0A0
:105280008D819E81281639060CF403CF80912B0561
:10529000811103C09B8194FF09C08091AA04909161
:1052A000AB0480619093AB048093AA041092C00475
:1052B00010922D0580EC9FEF0E9435071092360565
:1052C00010923805E091A804F091A9048E2F877000
:1052D00033E0F695E7953A95E1F7E370F0E0A3E067
:1052E0008A9FE00DF11D1124E358FD4FE491809158
:1052F000B104082E000C990B80549109ED58FF0B56
:105300008E1B9F0B97FD80E080932F05A401B601B3
:1053100085E495E00E94AB25012B09F0BACEBFEFE2
:105320008B169B0699F12D813E81221933093E830C
:105330002D831216130654F5C101835C9A4F9A838C
:10534000898340917C0450917D0460917E0470912A
:105350007F048BE095E08114910411F08BE195E0DE
:10536000AD80BE80C980DA80EE24E394F12C9301F5
:1053700082010E94DC148114910441F450E040E069
:105380006D817E8189819A810E94AB25909139053A
:10539000992349F0AB8120E8A5FF20E480913A05EC
:1053A000822B80933A0580913A05181419043CF138
:1053B000806280933A0520923B0510923C05992328
:1053C00021F080913A0586FD43CE26960FB6F894DB
:1053D000DEBF0FBECDBFDF91CF911F910F91FF9028
:1053E000EF90DF90CF90BF90AF909F908F907F9085
:1053F0006F905F904F903F902F900C94B4218061FC
:1054000080933A0520923B05FC80F218F0923C050F
:10541000D6CF81E026960FB6F894DEBF0FBECDBF83
:10542000DF91CF911F910F91FF90EF90DF90CF9080
:10543000BF90AF909F908F907F906F905F904F90B4
:105440003F902F900895EE2009F4F1CE01E010E096
:1054500017CF80913C0581110EC0A0912E05B0E0C0
:10546000119624E234EF0E947B31209135054DEBFB
:1054700059E10C94EF0C0E940928882371F30895D8
:1054800080913C0581110BC010923A050E940C08D6
:10549000655E78448F4F9F4F42E00E949E140C94AB
:1054A00009281F920F920FB60F9211242F933F934A
:1054B0004F935F936F937F938F939F93AF93BF931C
:1054C000EF93FF9387EC95E00E94A103FF91EF918A
:1054D000BF91AF919F918F917F916F915F914F910C
:1054E0003F912F910F900FBE0F901F9018951F9214
:1054F0000F920FB60F9211242F938F939F93EF93D8
:10550000FF93E091D705F091D8058081E091DD050A
:10551000F091DE0582FD1BC090818091E0058F5FD8
:105520008F732091E105821741F0E091E005F0E0F2
:10553000E953FA4F958F8093E005FF91EF919F918A
:105540008F912F910F900FBE0F901F901895808113
:10555000F4CF1F920F920FB60F9211242F933F9307
:105560008F939F93AF93BF938091C3059091C40590
:10557000A091C505B091C6053091E50323E0230F46
:105580002D3758F50196A11DB11D2093E503809399
:10559000C3059093C405A093C505B093C60580913B
:1055A000E6039091E703A091E803B091E903019627
:1055B000A11DB11D8093E6039093E703A093E80338
:1055C000B093E903BF91AF919F918F913F912F913C
:1055D0000F900FBE0F901F90189526E8230F02968C
:1055E000A11DB11DD2CFE7ECF5E01382128288EE47
:1055F00093E0A0E0B0E084839583A683B78389E13C
:1056000091E09183808385EC90E09587848784EC9A
:1056100090E09787868780EC90E0918B808B81EC7F
:1056200090E0938B828B82EC90E0958B848B86EC60
:1056300090E0978B868B118E128E138E148E8BE2D8
:1056400091E09093650680936406A6E6B6E08FE04D
:1056500015968C93159786E116968C931697E7E42A
:10566000F4E0E4911796EC931797E3E3F4E0E49108
:105670001896EC93189740E85EE360E070E01D96A2
:105680004D935D936D937C9350970895CF93DF93E3
:10569000CDB7DEB7A0970FB6F894DEBF0FBECDBF73
:1056A000789484B5826084BD84B5816084BD85B5FD
:1056B000826085BD85B5816085BD80916E00816009
:1056C00080936E00109281008091810082608093AF
:1056D00081008091810081608093810080918000B1
:1056E0008160809380008091B10084608093B100DC
:1056F0008091B00081608093B00080917A008460D6
:1057000080937A0080917A00826080937A00809101
:105710007A00816080937A0080917A00806880931B
:105720007A001092C10068E873E180E090E00E9486
:105730000305E091D705F091D80582E08083E091E0
:10574000D305F091D4051082E091D505F091D605EE
:1057500080E180831092DF05E091DB05F091DC05AC
:1057600086E08083E091D905F091DA05808180613F
:105770008083E091D905F091DA058081886080838B
:10578000E091D905F091DA05808180688083E0910D
:10579000D905F091DA0580818F7D808364E670E021
:1057A00080E090E00E94030583E093E00E94650A98
:1057B00062E080916B060E94A2042FB7F89480915A
:1057C000C3059091C405A091C505B091C6052FBF32
:1057D000805D9740A109B10980936F069093700690
:1057E000A0937106B093720687E380937806EFEB7F
:1057F000F5E084E0DF011D928A95E9F787E091E00A
:105800009093200480931F0484E696E090930A040A
:105810008093090461E08AE00E94740461E08AE0F8
:105820000E94A20460E089E00E94A20460E082E09D
:105830000E94A20460E086E00E94A20460E087E08B
:105840000E94A2041FB7F89480910804811127C018
:10585000EEE2F4E08491E2E4F4E09491E82FF0E0E9
:10586000EE0FFF1FE752FD4FA591B491EC91E92394
:1058700021F461E08AE00E94740461E08AE00E9401
:10588000A2048CB580618CBD8CB580648CBD61E058
:105890008DE00E94A20461E08BE00E94A20480914E
:1058A00008048F5F809308041FBFEAEFF3E08EE0E7
:1058B000DF011D928A95E9F784EB97E0909303044A
:1058C0008093020482E08093FD03F0937C06E093D2
:1058D0007B0681E00E94990900911F041091200429
:1058E000F80182818F3F49F060E00E94740461E01A
:1058F000D80112968C910E94A2040E940C08625C4E
:105900007F4F8F4F9F4F0E944F09F80182818F3F39
:1059100019F060E00E94A2040E940C08685C7E4FAF
:105920008F4F9F4F0E944F0980E00E94001082E439
:105930000E94310E823109F00FC2809109049091CA
:105940000A04DC01ED91FC910680F781E02D0995B8
:10595000882341F08BE40E94310E682F60618BE454
:105960000E94430E82E00E940A1081E00E94310EE4
:1059700087708530D1F70AEE13E0B9EFCB2EB3E094
:10598000DB2EA8E0EA2EF12C8CE20E94310E817011
:10599000B82E8CE20E94310E8170B816A9F3F8017E
:1059A0008181880F8B298183F1E0EF1AF10861F77B
:1059B0000F5F1F4FC016D10621F710E11093EA03C5
:1059C00080E00E94001080E490E09093AB0480930C
:1059D000AA048FEF80934F040E94091440E150E025
:1059E00063EF72E0CE0141960E94B22E40E150E09A
:1059F00063EE72E0CE0101960E94B22E83E190E048
:105A0000A0E0B0E08093780490937904A0937A04A6
:105A1000B0937B0485E19AEEAEEDB0E080937C0418
:105A200090937D04A0937E04B0937F04FE01319691
:105A3000ABE0B5E0812F01900D928A95E1F7FE0170
:105A40007196ABE1B5E001900D921A95E1F7809166
:105A5000AA049091AB0489759D7B98609093AB04E8
:105A60008093AA040E948A0790E080E00E94350794
:105A700010E0812F0E94C6071F5F1830D1F71092E7
:105A80002D0580E89FEF9093AF048093AE041092B1
:105A900035051092310561E182E00E9418078BE024
:105AA00094E00E947024EFE0BE2EF0E0CF2EF0E0F4
:105AB000DF2E73E1E72E74E0F72E10E000E0E091B6
:105AC0001F04F0912004E00FF11F83818F3FC9F183
:105AD000D7014D905D906D907C904114510461040C
