:100000000C9427020C944F020C944F020C944F0254
:100010000C944F020C944F020C944F020C944F021C
:100020000C944F020C944F020C944F020C944F020C
:100030000C944F020C944F020C944F020C944F02FC
:100040000C94922A0C944F020C94602A0C943A2A35
:100050000C944F020C944F020C944F020C944F02DC
:100060000C944F020C944F02556E6B6E6F776E209E
:100070006576656E743A200045565F4A4F494E5F7B
:100080005458434F4D504C4554453A206E6F204ACA
:100090006F696E4163636570740045565F545843E1
:1000A000414E43454C454400206279746573206F8E
:1000B00066205048595061796C6F61643A20004164
:1000C000637475616C2053656E74200020627974CE
:1000D0006573206F662046524D5061796C6F616484
:1000E0003A0041637475616C2053656E742000455D
:1000F000565F545853544152540045565F4C494E34
:100100004B5F414C4956450045565F4C494E4B5F4D
:10011000444541440045565F5258434F4D504C456D
:1001200054450045565F52455345540045565F4C73
:100130004F53545F5453594E430046524D506179CA
:100140006C6F61643A2000206279746573206F6679
:10015000207061796C6F61643A2000526563656953
:100160007665642000526563656976656420616325
:100170006B0045565F5458434F4D504C45544520F5
:1001800028696E636C756465732077616974696E44
:100190006720666F722052582077696E646F77739C
:1001A000290045565F52454A4F494E5F4641494CEA
:1001B00045440045565F4A4F494E5F4641494C45CC
:1001C000440045565F4A4F494E45440045565F4AF4
:1001D0004F494E494E470045565F424541434F4EB9
:1001E0005F545241434B45440045565F42454143AD
:1001F0004F4E5F4D49535345440045565F4245417C
:10020000434F4E5F464F554E440045565F53434162
:100210004E5F54494D454F5554004661696C6564C5
:1002200020746F20726561642066726F6D2044488F
:10023000542073656E736F7221004F505F54585293
:100240005850454E442C206E6F742073656E64695F
:100250006E670003050205010602020500000600A4
:100260000001050404000400000002000000010079
:10027000008000000040000000200000002020203E
:100280000E11140C0F12090C0F06090C03060900BD
:10029000030613110F0D0B09070540404080EBEBDF
:1002A000080A0C0D0E10121415181A1B1D1E2124FD
:1002B000FF060504030201FFC04000000000002506
:1002C0000028002B000000000800020100000304C9
:1002D00007000000000000000000000000240027CC
:1002E000002A0043579EA99CF9256204D4778F63A6
:1002F000A61C0CE9B53B908577E0CF4A7DBE490D41
:1003000040B0455374617274696E6700000000006C
:100310006700CC00B80154039D07637C777BF26BC8
:100320006FC53001672BFED7AB76CA82C97DFA59FB
:1003300047F0ADD4A2AF9CA472C0B7FD9326363F60
:10034000F7CC34A5E5F171D8311504C723C318964D
:10035000059A071280E2EB27B27509832C1A1B6EEF
:100360005AA0523BD6B329E32F8453D100ED20FC91
:10037000B15B6ACBBE394A4C58CFD0EFAAFB434D94
:10038000338545F9027F503C9FA851A3408F929D31
:1003900038F5BCB6DA2110FFF3D2CD0C13EC5F9721
:1003A0004417C4A77E3D645D197360814FDC222A27
:1003B000908846EEB814DE5E0BDBE0323A0A49065E
:1003C000245CC2D3AC629195E479E7C8376D8DD5D2
:1003D0004EA96C56F4EA657AAE08BA78252E1CA6AA
:1003E000B4C6E8DD741F4BBD8B8A703EB56648030A
:1003F000F60E613557B986C11D9EE1F8981169D98D
:100400008E949B1E87E9CE5528DF8CA1890DBFE60F
:10041000426841992D0FB054BB1600000000230024
:100420002600290004040404040404040202020255
:1004300002020303030303030102040810204080A7
:10044000010204081020010204081020DC2A1124F3
:100450001FBECFEFD8E0DEBFCDBF26E0AEEFB3E0EA
:1004600001C01D92AD3AB207E1F713E0A0E0B1E0A0
:10047000E4E9FAE602C005900D92AE3FB107D9F764
:1004800012E0C7E2D2E004C02197FE010E94603171
:10049000C632D107C9F70E942F2B0C9448350C9413
:1004A0000000CF92DF92EF92FF92CF93DF93C82F9D
:1004B00080919A068C3009F45EC038F48B30F1F0EC
:1004C00060E070E080EC9FE74FC085518230C0F75C
:1004D000D09196066D2F70E0762F662766277F777E
:1004E00080919706682B90E080E00E94D62F2DEC3B
:1004F0003CEC4CEC5DE30E948D3059C06091960657
:1005000070E090E080E00E94D62F6B017C01D091DA
:100510009706D7FF0AC0AC019B0160E070E080E85D
:100520009FEB0E94C32E6B017C01DF706D2F70E08A
:1005300090E080E00E94D82F2DEC3CEC4CEC5DE389
:100540000E948D30A70196010E94C42ECC2361F039
:1005500026E636E646EE5FE30E948D3020E030E08E
:1005600040E052E40E94C42EDF91CF91FF90EF90C3
:10057000DF90CF900895D09196066D2F70E090E0B7
:1005800080E00E94D62F6B017C01609197066F700E
:1005900070E090E080E00E94D82F2DEC3CEC4CEC19
:1005A0005DE30E948D30A70196010E94C42ED7FF03
:1005B000CDCF9058CBCFCF92DF92EF92FF92CF93D7
:1005C000DF93B0919B06A0E08111AB2F80919C0638
:1005D00090E0880F991FAC01465E5B4FC090A1066A
:1005E000D090A206E090A306F090A40630E020E0B0
:1005F000FA01C591D491E881B90190E080E0EB2344
:10060000EA130AC02F5F3F4F6C157D058E059F05CD
:1006100078F36FEF7FEFCB01DF91CF91FF90EF90F9
:10062000DF90CF900895FC0120E1215008F4089557
:1006300080E0211181819191990F87FD9160DF0107
:1006400011979C93F2CFAF92BF92CF92DF92EF922D
:10065000FF920F931F93CF93DF936C017B018B016C
:10066000040F151FEB015E01AE18BF08C017D107BC
:1006700059F06991D601ED91FC910190F081E02D46
:10068000C6010995892B79F7C501DF91CF911F919B
:100690000F91FF90EF90DF90CF90BF90AF900895B3
:1006A000FC01538D448D252F30E0842F90E0821B78
:1006B000930B541710F0CF96089501970895FC01FD
:1006C000918D828D981761F0A28DAE0FBF2FB11D55
:1006D0005D968C91928D9F5F9F73928F90E00895AD
:1006E0008FEF9FEF0895FC01918D828D981731F067
:1006F000828DE80FF11D858D90E008958FEF9FEFBB
:100700000895FC01918D228D892F90E0805C9F4F90
:10071000821B91098F739927089585EF95E00E94B8
:10072000810321E0892B09F420E0822F089580E0E5
:1007300090E0892B29F00E948D0381110C94000018
:100740000895FC01A48DA80FB92FB11DA35ABF4F66
:100750002C91848D90E001968F739927848FA689C0
:10076000B7892C93A089B1898C91837080648C9314
:10077000938D848D981306C00288F389E02D8081C3
:100780008F7D80830895EF92FF920F931F93CF93F5
:10079000DF93EC0181E0888F9B8D8C8D98131AC0BC
:1007A000E889F989808185FF15C09FB7F894EE89A3
:1007B000FF896083E889F989808183708064808300
:1007C0009FBF81E090E0DF91CF911F910F91FF904B
:1007D000EF900895F62E0B8D10E00F5F1F4F0F73F3
:1007E0001127E02E8C8D8E110CC00FB607FCFACFAE
:1007F000E889F989808185FFF5CFCE010E94A103A8
:10080000F1CFEB8DEC0FFD2FF11DE35AFF4FF0827E
:100810009FB7F8940B8FEA89FB8980818062CFCFE4
:100820000F931F93CF93DF938C01D0E0C0E0F801CA
:10083000EC0FFD1F6491662341F085EF95E00E9467
:10084000C303892B11F02196F2CFCE01DF91CF9116
:100850001F910F910895CF93DF93EC01888D88232A
:10086000B9F0AA89BB89E889F9898C9185FD03C013
:10087000808186FD0DC00FB607FCF7CF8C9185FFF8
:10088000F2CF808185FFEDCFCE010E94A103E9CF99
:10089000DF91CF910895833081F028F4813099F071
:1008A0008230A9F008958730A9F08830C9F08430EB
:1008B000B1F4809180008F7D03C0809180008F779C
:1008C00080938000089584B58F7784BD089584B5A2
:1008D0008F7DFBCF8091B0008F778093B00008951B
:1008E0008091B0008F7DF9CF1F93CF93DF93282F96
:1008F00030E0F901EB53FD4F8491F901E85CFB4FC7
:10090000D491F901EC5DFB4FC491CC23A9F0162FD3
:1009100081110E944B04EC2FF0E0EE0FFF1FE55415
:10092000FD4FA591B4918FB7F894EC91111108C0C7
:10093000D095DE23DC938FBFDF91CF911F91089577
:10094000DE2BF8CFCF93DF9390E0FC01E85CFB4F08
:1009500024918C5D9B4FFC0184918823C9F090E029
:10096000880F991FFC01E752FD4FA591B491FC013E
:10097000E554FD4FC591D49161110DC09FB7F89416
:100980008C91209582238C938881282328839FBF74
:10099000DF91CF910895623051F49FB7F8943C9164
:1009A000822F809583238C93E8812E2BEFCF8FB7F6
:1009B000F894EC912E2B2C938FBFEACF3FB7F8948D
:1009C0008091140490911504A0911604B09117041D
:1009D00026B5A89B05C02F3F19F00196A11DB11D9A
:1009E0003FBFBA2FA92F982F8827BC01CD01620FD6
:1009F000711D811D911D42E0660F771F881F991F91
:100A00004A95D1F708958F929F92AF92BF92CF925D
:100A1000DF92EF92FF924B015C010E94DE046B01BA
:100A20007C010E94DE046C197D098E099F09683ED5
:100A3000734081059105A8F321E0821A9108A1086D
:100A4000B10888EEC80E83E0D81EE11CF11C8114A9
:100A50009104A104B10429F7FF90EF90DF90CF90AB
:100A6000BF90AF909F908F900895CF92DF92EF92BA
:100A7000FF920F931F93CF93DF93CDB7DEB7C05490
:100A8000D1400FB6F894DEBF0FBECDBF2FB7F8949C
:100A90008091F1059091F205A091F305B091F405D4
:100AA0002FBF40919D0650919E0660919F067091C8
:100AB000A0068C019D01041B150B260B370BB901F9
:100AC000A801403D57406105710590F48091A5064D
:100AD000C05CDE4F0FB6F894DEBF0FBECDBFDF9116
:100AE000CF911F910F91FF90EF90DF90CF900895DD
:100AF00080939D0690939E06A0939F06B093A006B8
:100B000010929806109297061092960610929506EB
:100B10001092940662E0809199060E94A20461E01E
:100B200070E080E090E00E94030561E0809199060A
:100B30000E94A20460E0809199060E947404809152
:100B40009A068551823020F58BE291E10197F1F709
:100B500062E0809199060E94A2048091A60690E02E
:100B60008230910538F0880F991F880F991F0597DB
:100B70000197F1F7F89480E00E94DB026F3F7F4F0E
:100B80008F4F9F4F61F41092A506789480E0A0CF1C
:100B900064E170E080E090E00E940305D9CF81E03D
:100BA0000E94DB026F3F7F4F8F4F9F4F61F38E019B
:100BB0000F5F1F4F6E018FEBC81A8EEFD80A7801B6
:100BC00080E00E94DB02F70160837183828393835C
:100BD00081E00E94DB02F70164837583868397833B
:100BE000F8E0EF0EF11CEC14FD0451F7789430E0BE
:100BF00020E0F801C080D180E280F38044815581FB
:100C000066817781FFEFCF16DF06EF06FF0631F032
:100C10004F3F8FEF58076807780719F41092A50621
:100C2000B5CFF90183E0F595E7958A95E1F7EC56A4
:100C3000F94F8081880FC416D506E606F70610F135
:100C400080832F5F3F4F085F1F4F2832310589F6A1
:100C5000409198062091940680919506280F33279D
:100C6000331F80919606280F311D80919706820FC1
:100C7000932F911D99274817190681F681E08093DB
:100C8000A50626CF8160DCCF0F931F9361157105F8
:100C900081059105F9F00091860410918704209157
:100CA000880430918904DC01CB01800F911FA21FC1
:100CB000B31F8093860490938704A0938804B09315
:100CC000890480918A0490918B04019690938B04FF
:100CD00080938A041F910F910895FC012081318136
:100CE0002115310519F490E080E0089526173707A3
:100CF00049F4FB0120813181FC013183208381E0B3
:100D000090E00895C901E9CF803660F5282F22953B
:100D10002F7030E0220F331FF901E654FB4F408162
:100D200051818F7061E070E002C0660F771F8A9575
:100D3000E2F7CA0186239723892B91F48091D2048C
:100D40009091D30401969093D3048093D20481E0D0
:100D500026543B4F462B572BF9015183408308956E
:100D600080E0F6CF80E00895803670F5282F229538
:100D70002F7030E0220F331FF901E654FB4F6081E2
:100D800071818F7041E050E002C0440F551F8A9579
:100D9000E2F7CA0186239723892BA1F08091D20420
:100DA0009091D30401979093D3048093D20481E06F
:100DB00026543B4F4095509546235723F9015183C4
:100DC0004083089580E0F4CF80E00895FC0190E036
:100DD00080E06115710509F4089521913191A9010F
:100DE0005695479545755575241B350BA9014373D9
:100DF0005373369527953695279523733373240FB0
:100E0000351FA901407F507F2F703F70A4E0220F53
:100E1000331FAA95E1F7240F351FA9015527232F6A
:100E20003327240F351F820F931F61507109D1CFD3
:100E3000982F6038C1F08091EB046817A1F060939F
:100E4000EB0481E02091EC04291761F09093EC040D
:100E50008091D8049091D90498609093D90480939C
:100E6000D80481E0089580E0EDCF2091DC0430913A
:100E7000DD0420383F4F21F09093DD048093DC04A3
:100E80000895982F80912905E0912805882361F025
:100E9000EF30A0F481E08E0F80932805F0E0E65D4E
:100EA000FA4F908381E00895E43348F481E08E0F97
:100EB00080932805F0E0EC50FB4FF3CF80E00895DD
:100EC000CF93DF93C62FD09128050E94410781114F
:100ED00006C0D093280580E0DF91CF9108958C2F34
:100EE0000E9441078823A9F381E0F6CF10926205A2
:100EF0001092630580E294E4AEE1BEE18093B60413
:100F00009093B704A093B804B093B9048FEF809383
:100F1000610508951092B2041092B3041092B404C3
:100F20001092B5041092AE041092AF041092B00467
:100F30001092B1041092EE0410925B0510925A05C3
:100F4000109259051092EA041092EF041092640571
:100F500010926605109260050C947607FC01608182
:100F60007181828193810895682F85EF95E00E94B9
:100F7000C30390E080E00895F894809102048F5FAD
:100F80008093020408950E94BC07FFCFEF92FF9266
:100F90001F93CF93DF938C3030F067EA70E085E3E6
:100FA00091E00E94C307880F880F880F98E0980F80
:100FB000C82FD0E010E0E92EF12CCE15DF053CF073
:100FC000812FDF91CF911F91FF90EF9008958C2F8B
:100FD0000E94B406182B2196F0CFEF92FF921F9338
:100FE000CF93DF93880F880F880F98E0980FC82F52
:100FF000D0E010E0E92EF12CCE15DF053CF0812F7A
:10100000DF91CF911F91FF90EF9008958C2F0E9458
:101010008406182B2196F0CF0F931F930E94DE04B5
:10102000AB01BC012091FE03DC01CA013CE1B69595
:10103000A795979587953A95D1F782278870820F63
:101040008093FE03E4E07695679557954795EA957A
:10105000D1F79B01382BC901BA011F910F91089557
:10106000AF92BF92CF92DF92EF92FF920F931F93B6
:10107000CF93DF9380910204815080930204811109
:1010800069C078940FEF13E0D0E0C0E0BB24B394C4
:10109000E0914D04F0914E04EC0FFD1F23812F3F92
:1010A00009F451C0F801D080ED2CF12C30E0F901A9
:1010B000EB53FD4F8491F901E85CFB4FC490F901BB
:1010C000EC5DFB4FA490AA2009F44FC081110E944F
:1010D0004B04EA2DF0E0EE0FFF1FE65EFB4FA591FB
:1010E000B491EC91CE2231E020E009F430E0832F7E
:1010F000922FE816F90639F1DB24F801D082DD20C1
:1011000011F1CE01880F991F880F991F9C012F5B49
:101110003B4F7901F90180819181A281B381892BB3
:101120008A2B8B2B81F40E940C08611571058105B7
:10113000910521F461E070E080E090E0F7016083C8
:1011400071838283938321960F5F1F4FC330D10534
:1011500009F09ECFDF91CF911F910F91FF90EF90FB
:10116000DF90CF90BF90AF90089590E080E0C1CF26
:10117000CF93DF93EC010E94BC0780918004909193
:101180008104A0918204B0918304892B8A2B8B2B3C
:1011900031F58FEE95E06EE774E00E946D061092D7
:1011A0007F0410927E0410928004109281041092A9
:1011B000820410928304D0938504C0938404E09148
:1011C000EF05F091F005AFEEB5E0309759F48EE7FA
:1011D00094E08D939C93DF91CF910C9430088DEE29
:1011E00095E0D9CFDF010190F081E02DEECFCF92D5
:1011F000DF92EF92FF920F931F93CF93DF93EC0157
:101200006A017B018901C114D104E104F10421F4D4
:10121000C12CD12C7601C3940E94BC078A819B818A
:10122000AC81BD81892B8A2B8B2B89F58FEE95E0C4
:10123000BE010E946D0619821882CA82DB82EC828E
:10124000FD821F830E83E091ED05F091EE052DEEFA
:1012500035E0309779F082819381A481B5818C1932
:101260009D09AE09BF09181619061A061B0694F443
:10127000F983E883F901D183C083DF91CF911F9176
:101280000F91FF90EF90DF90CF900C9430088DEE8F
:1012900095E0CECF9F010190F081E02DDACFCF9283
:1012A000DF92EF92FF926B017C010E940C08A70174
:1012B0009601261B370B480B590BDA01C901B7FF02
:1012C0000CC066277727CB01621B730B840B950B31
:1012D000FF90EF90DF90CF900895833332E0930733
:1012E000A105B1058CF068E070E080E090E00E941C
:1012F00003050E940C08A7019601261B370B480B1B
:10130000590BDA01C901E9CF181619061A061B068E
:1013100064F424E0880F991F2A95E1F7880F991F3C
:10132000880F991F05970197F1F760E070E0CB01F6
:10133000CFCFCF92DF92EF92FF92A0913704B0917E
:101340003804682F6170ED91FC9111970190F08144
:10135000E02DCD0109956B017C01C114D104E1049C
:10136000F10461F00E940C086C0D7D1D8E1D9F1D07
:10137000FF90EF90DF90CF900C944F09FF90EF908B
:10138000DF90CF900895982FE0914D04F0914E0496
:1013900081818F3F39F061E02681291301C060E02F
:1013A0000C947404089581E0089580E008950895F0
:1013B00060E070E0CB010895EFE5F4E08481958171
:1013C0009483968195839781968387838085928580
:1013D0009087828781859385918783878785968586
:1013E0009787958596879485958784870895CF9369
:1013F0002FE534E0BC01605F7F4FDC01F90140E084
:10140000CD9150815C2750834F5F34964430C1F7B3
:101410002F5F3F4F04968617970779F7CF9108956E
:10142000FC0101900020E9F73197AF01481B590BEF
:10143000BC0185EF95E00C9423038F929F92AF92AD
:10144000BF920F931F93CF93DF93CDB7DEB7A197D2
:101450000FB6F894DEBF0FBECDBF19A2423008F41C
:101460004AE08E010F5D1F4F842E912CB12CA12CD0
:10147000A50194010E941F31E62FB901CA01EA308B
:10148000F4F4E05DD801EE938D01232B242B252B62
:1014900079F790E080E0109719F0CD010E94100AD2
:1014A000A1960FB6F894DEBF0FBECDBFDF91CF91EE
:1014B0001F910F91BF90AF909F908F900895E95C1E
:1014C000E1CF85E791E00C94100ACF93DF930E945F
:1014D0001004EC010E94610A8C0F9D1FDF91CF91D7
:1014E00008954F925F926F927F928F929F92AF92E8
:1014F000BF92CF92DF92EF92FF920F931F93CF9301
:101500006B017C01742EAC019B010E94FA30882390
:1015100099F088E791E0CF911F910F91FF90EF90A4
:10152000DF90CF90BF90AF909F908F907F906F9003
:101530005F904F900C94100A46015701E894B7F859
:101540002FEF3FEF4FE75FE7C501B4010E94FA308C
:1015500081110DC02FEF3FEF4FE75FE7C501B401E9
:101560000E94302F18161CF48CE791E0D4CF2FEF97
:101570003FEF4FE75FE4C701B6010E9488301816BD
:101580001CF480E891E0C7CF2FEF3FEF4FE75FEC0F
:10159000C701B6010E94302F87FDF3CF20E030E075
:1015A000A901C701B6010E94302F10E000E087FFBB
:1015B0000AC06DE285EF95E00E94C3038C01F7FA43
:1015C000F094F7F8F094C0E060E070E080E09FE312
:1015D0007C1641F020E030E040E251E40E94352FDB
:1015E000CF5FF6CFA70196010E94C42E2B013C01CC
:1015F0000E94A72F4B015C014AE00E941D0A7C015A
:10160000E00EF11ECC23C1F1C501B4010E94D62F1A
:101610009B01AC01C301B2010E94C32E4B015C01CE
:101620006EE285EF95E00E94C303E80EF91EC150FB
:1016300018F120E030E040E251E4C501B4010E941D
:101640008D302B013C010E94A72F4B01B12CA12C06
:101650004AE0C501B4010E941D0AE80EF91EC50149
:10166000B4010E94D62F9B01AC01C301B2010E94BC
:10167000C32E4B015C01DBCFC701CF911F910F91AE
:10168000FF90EF90DF90CF90BF90AF909F908F90A2
:101690007F906F905F904F9008950F931F93CF931B
:1016A000DF9300D000D0CDB7DEB7DB011C969C9154
:1016B0001C971E963C911E971F962C911F971D9666
:1016C0004C911D9749833A832B839C83BE016B5FAA
:1016D0007F4F9E012F5F3F4FF90111919F01412FD5
:1016E00042954F70F0E14F9FA0011124E12FEF7060
:1016F000E40FF52FF11DE65EFC4F9491A9014150D6
:101700005109FA0190832617370731F791E05BE121
:10171000813039F0492F440F97FD45278150942F90
:10172000F7CF8981982799838D0194E0FE01319646
:10173000A801DA018D91AD0161918627BD0161504B
:101740007109DB018C93BF0161507109DB018C933E
:10175000E217F30771F791500C5F1F4F9111E6CF1D
:101760000F900F900F900F90DF91CF911F910F91DD
:1017700008953F924F925F926F927F928F929F92C5
:10178000AF92BF92CF92DF92EF92FF920F931F938F
:10179000CF93DF93CDB7DEB768970FB6F894DEBF6F
:1017A0000FBECDBF8C012FE5C22E24E0D22EAC019E
:1017B000405F5F4FC6017801FC01D70120E03D91F9
:1017C00030832F5F34962430D1F724E0E20EF11CF1
:1017D00001964E155F0581F7AFE4B4E0FE01319646
:1017E0008FE594E05E2E6F2E2D9121938A179B0733
:1017F000D9F7852D962D0E94F7094424439483E65A
:10180000A82E84E0B82E4E0139E1830E911C9BE195
:10181000392E8FE594E024E0DC01712CEC914E2F01
:1018200042954F7030E1439FA0011124EF70E40F07
:10183000F52FF11DE65EFC4FE491EC937394149642
:1018400054E07512EBCF215001962111E5CF0E9493
:10185000DC09EFE5F4E0CE014596BE016F5E7F4FF7
:101860009F01D9015C91DC015D93CD01452F440FAF
:1018700057FD83C0DB014C932C5F3F4F6F5F7F4F61
:101880008816990671F78E89398938272F89688DCE
:101890009A8992279627432F492741934D895B893F
:1018A0009427952793839C898627842785278927D2
:1018B00087832427292732273387AE16BF0659F698
:1018C000652D762D842D0E944D0B852D962D0E9421
:1018D000F7094394BAE04B129CCF8FE594E0DC010A
:1018E00040E0EC912E2F22952F7050E1259F900122
:1018F0001124EF70E20FF32FF11DE65EFC4FE4912F
:10190000EC934F5F1496443061F77A94019671100E
:10191000E6CF0E94DC09652D762D8AE00E944D0BF2
:10192000852D962D0E94F709D801F60180E090815F
:101930009D938F5F34968430D1F78FEFC81AD80A01
:101940000C5F1F4FE016F10679F768960FB6F89412
:10195000DEBF0FBECDBFDF91CF911F910F91FF90E2
:10196000EF90DF90CF90BF90AF909F908F907F903F
:101970006F905F904F903F90089543257BCFE0910B
:10198000E304A091E704A770B0E020E43DE043E069
:1019900050E00E94833160527F458C4C914E6093A1
:1019A0009E0470939F048093A0049093A10480915F
:1019B0006205E53090F4E81BE63008F0E5E0E093DE
:1019C000E304F0E0EF54FD4FE491F0E0EF77E068DE
:1019D000F093D704E093D6040895E5E0ECCF4F925E
:1019E0005F926F927F928F929F92AF92BF92CF92AF
:1019F000DF92EF92FF920F93CF93DF9300D000D04E
:101A000000D0CDB7DEB76B017C015E834D832770BC
:101A100084E0289FF0011124EB59FD4F85919591A9
:101A2000A591B49189839A83AB83BC83409092043F
:101A300050909304609094047090950460917B049E
:101A400070917C046115710531F0673091E0790780
:101A500010F066E071E090E080E0A70196010E943E
:101A60008E3100E10E94773249015A0129813A8181
:101A70004B815C81220F331F441F551FC501B401E8
:101A8000660F771F881F991F620F731F841F951F92
:101A900064587F4F8F4F9F4F0E9441312A5F3F4FC5
:101AA00043E85FEF6FEF7FEF481959096A097B0937
:101AB0002115A4E03A07B8F18FEF93E09093E20488
:101AC0008093E104C40ED51EE61EF71E4C0C5D1C6F
:101AD0006E1C7F1C4092960450929704609298046A
:101AE00070929904B301A2014157524061097109F2
:101AF0002D813E818EE794E026960FB6F894DEBFE6
:101B00000FBECDBFDF91CF910F91FF90EF90DF908F
:101B1000CF90BF90AF909F908F907F906F905F908D
:101B20004F900C94F7083093E2042093E104CACF5D
:101B3000CF92DF92EF92FF9220915C0530E0A4E219
:101B4000B4EF0E946D316B017C010E94BF0C2091AB
:101B5000E3044DEC59E1C701B601FF90EF90DF902F
:101B6000CF900C94EF0C0E94BF0C2091E30441ED48
:101B700059E164EB74EC84E090E00C94EF0CE82FF6
:101B8000F0E0E055FD4FE491EF3F09F081500895FA
:101B90008F929F92AF92BF92DF92EF92FF920F933C
:101BA0001F93CF93DF93D82EEB018A01E22EE091B1
:101BB0004D04F0914E04F08080849184A284B3841B
:101BC00081149104A104B10439F420E4822E22E4AA
:101BD000922E2FE0A22EB12C40E052E16AE770E095
:101BE00080E084169506A606B70640F476956795BC
:101BF000579547958F5F8630A1F787E0982F906AB9
:101C00009695809581709CBD8DBD60E08F2D0E9462
:101C10007404DEBC00000DB407FEFDCF8EB50C0FC2
:101C20001D1FC017D10771F080E0E11001C088814D
:101C30008EBD00000DB407FEFDCF8EB5E110888388
:101C40002196EFCF61E08F2DDF91CF911F910F9102
:101C5000FF90EF90DF90BF90AF909F908F900C948B
:101C60007404CF93DF931F92CDB7DEB721E041E03C
:101C700050E0BE016F5F7F4F0E94C80D89810F90B9
:101C8000DF91CF910895CF93DF931F92CDB7DEB749
:101C9000698320E041E050E0BE016F5F7F4F8068C4
:101CA0000E94C80D0F90DF91CF910895CF93C82F58
:101CB00062E082E00E94430E60E883E00E94430EEF
:101CC00061E084E00E94430E69E985E00E94430ED2
:101CD00062E187E20E94430E60EDC11168ED80E38E
:101CE0000E94430E60E481E30E94430E61EC88E2AF
:101CF0000E94430E64E989E20E94430E61EC8AE28D
:101D0000CF910C94430E0F931F93CF93DF93C09109
:101D1000E504C4310CF040C0CE30CCF1C2310CF03F
:101D2000C1E161E0809137049091380400919E04F4
:101D300010919F042091A0043091A104DC01ED9149
:101D4000FC910084F185E02D4C2F0995813059F1EB
:101D50008230E1F1CF301CF5CC301CF1C067D7E008
:101D600014E06C2F89E00E94430E8DE40E94310E36
:101D7000887F682F612B8DE40E94430E6D2F606277
:101D80008BE0DF91CF911F910F910C94430ECC3FCC
:101D90000CF4CCEF60E0C6CF62E0C4E1C3CFCEE08C
:101DA000DDCFCC5FDCCF8091D604877011F4CB30CF
:101DB0005CF0C2302CF4C2E0C250C068DBE0D0CF8F
:101DC000C231D4F3C1E1F8CFCBE0F6CFD0E117E0D8
:101DD000CFE8C7CFAF92BF92CF92DF92EF92FF9240
:101DE0000F931F93CF93DF9380919E0490919F0454
:101DF000A091A004B091A1049C01AD0160E070E04D
:101E000080E090E003E10E945E32A12CE8E4BE2E67
:101E1000F8EECF2EDD24D394E12CF12C00E010E07D
:101E20000E94CA31C22FB32E6A017B01182FD92F0D
:101E300000E10E947932622F86E00E94430E2C2F2F
:101E40003B2DA601B701812F9D2F08E00E9479321A
:101E5000622F87E00E94430E6C2F88E0DF91CF91C4
:101E60001F910F91FF90EF90DF90CF90BF90AF90B8
:101E70000C94430E1F93CF93DF936091D60470911F
:101E8000D704162F1770CB0133E0969587953A95B6
:101E9000E1F7D82FD370D13059F008F466C0D230B2
:101EA00009F465C066EC71E084E891E00E94C30724
:101EB000C0E8CB0125E0969587952A95E1F78370D8
:101EC000823009F458C0833009F457C0813009F4D6
:101ED00050C0C260672F77276115710521F0C1607E
:101EE00082E20E94430E6C2F8DE10E94430E6091AE
:101EF000E204637060598FEF810F8295807F680FD5
:101F00008091D60487FF64608EE10E94430E8BEFC0
:101F1000810F823010F4DD2391F1163011F4D130AD
:101F200071F164E086E20E94430EC0E063E0D230CB
:101F300081F480919E0490919F04A091A004B0919F
:101F4000A104CFE781349D4DAA44BF4108F0C4E607
:101F500062E086E30E94430ECC2399F06C2F8AE363
:101F6000DF91CF911F910C94430EC0E7A2CFC0E93F
:101F7000A0CFC460AFCFC660ADCFC860ABCF6CE0C0
:101F8000D1CFDF91CF911F910895CF93DF93D82FB9
:101F9000C82FC77019F081E00E9499096D2F81E068
:101FA0000E94430EC11105C080E0DF91CF910C94D7
:101FB0009909DF91CF91089580919E0490919F049B
:101FC000A091A004B091A10481349D4DAA44BF41C9
:101FD00018F488E00C94C50F80E0FCCF80919E043B
:101FE00090919F04A091A004B091A10481349D4DD3
:101FF000AA44BF4118F488E80C94C50F80E8FCCFD0
:10200000CF93C82F81E00E94310E887F8C2BCF9117
:102010000C94C50FCF92DF92EF92FF92CF93DF9394
:10202000D82F0E94EE0F81E00E94310E87FD06C07E
:102030006BE973E084E891E00E94C30781E00E94AD
:102040000010D23009F07CC06AE08DE10E94430E9E
:1020500060E78EE10E94430E63E28CE00E94430E33
:1020600060E483E20E94430E8091EB05882309F42B
:102070006CC083E30E94310E682F6F7B83E30E9464
:10208000430E8091D6049091D70423E096958795CE
:102090002A95E1F7C82FC37081E30E94310E88773B
:1020A000682F6360C23008F056C081E30E94430E7F
:1020B00060E48FE20E94430E60E480E30E94430EDE
:1020C0006091E1048FE10E94430E64E389E30E9482
:1020D000430E6CE080E40E94430E6FEF82E10E94A9
:1020E000430EED2FF0E0E854FD4F6491609581E1DF
:1020F0000E94430E80E00E94C30960E08DE00E94D0
:10210000430E60E08FE00E94430ED11128C0609121
:1021100096047091970480919804909199040E947C
:102120004F096B017C0186E00E940010C701B601D7
:10213000DF91CF91FF90EF90DF90CF900C94440609
:102140000E943A0F0E94EA0E87CF83E30E94310E6D
:10215000682F606493CF682F636881E3AFCF85E019
:10216000DF91CF91FF90EF90DF90CF900C94001013
:10217000CF92DF92EF92FF92CF93C82F81E00E941F
:10218000310E877069E274E0C1F48091D6048770E3
:1021900009F060C0C13041F410926A058091840456
:1021A000909185040E94B8080E94DC0F81E00E9493
:1021B000310E87FF06C062E074E084E891E00E947F
:1021C000C30781E00E9400100E94EA0E63E28CE0E7
:1021D0000E94430E6EE18DE00E94430E6BE082E1AF
:1021E0000E94430E62E183E10E94430E6AEA8FE19E
:1021F0000E94430E6FEF81E20E94430E81E00E9435
:10220000560E68E380E40E94430E80E00E94C309FA
:10221000C11118C060919604709197048091980440
:10222000909199040E944F096B017C0185E00E9406
:102230000010C701B601CF91FF90EF90DF90CF90D3
:102240000C94440685E0CF91FF90EF90DF90CF9003
:102250000C9400108C2FCF91FF90EF90DF90CF90D7
:102260000C940A108FEF9FEF9093BB048093BA04F5
:102270009093BD048093BC049093BF048093BE04EC
:102280009093C1048093C0048FEF90E09093C304B7
:102290008093C204E6ECF4E08CE0DF011D928A95A5
:1022A000E9F780E690E09093D3048093D2048FEF17
:1022B0008093E70408956F927F928F929F92AF92DE
:1022C000BF92CF92DF92EF92FF920F931F93CF9323
:1022D000DF93CDB7DEB760970FB6F894DEBF0FBEC1
:1022E000CDBF7B018A01282F30E0277F22303105C6
:1022F00049F02430310509F4CBC0232B09F09FC0ED
:10230000D12C98C083FD32C083E094E00E94B90BC9
:1023100090E1692EFE0131966F0123E1822E24E0C7
:10232000922E37E8732E0115110509F060C06091F7
:1023300003047091040480910504909106040E94A6
:10234000663160960FB6F894DEBF0FBECDBFDF9149
:10235000CF911F910F91FF90EF90DF90CF90BF90A2
:10236000AF909F908F907F906F900895E3E0F4E09E
:1023700080E1DF011D928A95E9F7CACF01151105A9
:10238000E9F5E62FF0E0ED5FFB4F80818058808318
:1023900011E0D601E62D1D92EA95E9F7C6010E94EB
:1023A000B90B0981C6010E94130307FF03C0888986
:1023B0008725888B112349F01981C6010E941303D8
:1023C00017FF03C088898725888BF601D5018D9179
:1023D0005D019191119789278C938A149B04B1F721
:1023E00010E000E083E094E00E94B90B9CCF83E012
:1023F000A82E84E0B82ED701950160E0F901819103
:102400009F019D91AF01415051098927FA018083B5
:102410006F5F7D0101501109603109F0AFCF0115E7
:10242000110501F710E0B5CF8E0D9F1D0E94B90B6D
:10243000B0E1DB0E8D2D90E080179107A8F360E0EE
:1024400070E0CB017ECF80E1E3E0F4E0DE011196A5
:1024500001900D928A95E1F7CE0101960E94B90B89
:10246000FE0131969701205F3F4F9191D7018C91EA
:1024700089278D937D0101501109A217B30719F027
:102480000115110591F7809112048F5F809312045A
:1024900001151105C1F6D3CF90911804911106C012
:1024A0006CE874E084E891E00E94C307903141F445
:1024B00040E150E068E174E080E00E945B1190E050
:1024C000E92FF0E0E85EFB4F80819F5F9093180456
:1024D0000895DF92EF92FF920F931F93CF93DF93B4
:1024E0006FE270E0009729F08136910530F061E3EA
:1024F00070E08FEB91E00E94C307C091E704D0E049
:10250000CF3F11F4CFEFDFEFEAEBF4E026EC34E05D
:10251000DF0132961C968D919C911D974D915C9197
:1025200084239523938782872E173F0789F766E0D8
:1025300070E086EC94E00E94E6067C01892B09F0AD
:102540008FC08CE0EAEBF4E0A6ECB4E001900D92D1
:102550008A95E1F766E070E086EC94E00E94E6067A
:102560007C01009709F4DDC0419708F479C010E0C0
:1025700000E0CF3FDC0751F1C136D1050CF070C04F
:102580009E012F70332781E090E002C0880F991FD1
:102590002A95E2F7FE0144E0F595E7954A95E1F7C3
:1025A000EE0FFF1FEA53FB4F208131818C01022384
:1025B0001323809590958223932391838083011523
:1025C000110509F44FC070E1E71AF1080E944C129E
:1025D000D82E0E944C129D2DB70124E07695679568
:1025E0002A95E1F70E940B3134E0880F991F3A9544
:1025F000E1F7E6ECF4E070E060E021913191211523
:10260000310559F1A9015695479545755575D9017B
:10261000A41BB50BAD0143735373B695A795B6953F
:10262000A795A373B3734A0F5B1FDA01A07FB07F36
:102630004F705F7042955295507F5427407F5427CA
:102640004A0F5B1FDA01BB27452F55274A0F5B1F37
:102650008417950780F0841B950B605F7F4FCDCF6B
:1026600010E000E0CFEFDFEFB1CFA90141505109F9
:102670002423352340970097C1F744275527421B51
:10268000530B42235323CA018575957521E030E031
:10269000892B11F030E020E0CA0183739373892BFA
:1026A00009F447C090E080E0820F931F9A012F70D9
:1026B0003F70232B09F440C030E020E0820F931FCD
:1026C00030E020E0411102C028E030E0820F931F8B
:1026D000860F971FFC0144E0F695E7954A95E1F7D0
:1026E000EE0FFF1FEA53FB4FAC014F70552721E05F
:1026F00030E0B90102C0660F771F4A95E2F7AB01DF
:10270000208131812627352731832083CF3FDC0785
:10271000B1F497FD06C0803491050CF4885F809376
:10272000E704DF91CF911F910F91FF90EF90DF9021
:10273000089582E090E0B8CF24E030E0BFCF24E0FD
:10274000D595C7952A95E1F7CC0FDD1FCA53DB4F0E
:1027500028813981022B132B19830883DACF8091CA
:10276000AA049091AB04A091AC04B091AD04892B64
:102770008A2B8B2B09F04BC08091D8049091D904FF
:102780001092E8048E7C977A9093D9048093D804B1
:10279000109267051092EE040E9476078FEF8093E7
:1027A000E7048091D2049091D3040E9469120E94A0
:1027B0000C08609392047093930480939404909314
:1027C00095048091D8049091D90493FF06C064EDDC
:1027D00070E08FEB91E00E94C3071092EC04E0914F
:1027E0006105EF3F91F0EF70F0E0E056FD4FE491AE
:1027F000E093EB0484609093D9048093D8048AE733
:1028000092E20E94B80881E00895E3E1F1CF80E010
:1028100008951F93CF93DF93CDB7DEB72F970FB6F1
:10282000F894DEBF0FBECDBF80E00E9400100E9472
:10283000BC078091800490918104A0918204B091A2
:102840008304892B8A2B8B2B09F047C08FEE95E0F0
:102850006EE774E00E946D060E9430088FE0EFE69C
:10286000F4E0DE01119601900D928A95E1F7EFE612
:10287000F4E08EE791E0DF019C011D922150304091
:10288000E1F78FE0FE013196AFE6B4E001900D92E2
:102890008A95E1F70E944C12182F0E944C12912F3A
:1028A0009093DB048093DA041092D9041092D80438
:1028B0001092ED0480E880935F050E94760781E026
:1028C00080935C052F960FB6F894DEBF0FBECDBF88
:1028D000DF91CF911F910C9432118DEE95E0B8CF1E
:1028E000CF92DF92EF92FF92CF93C82F0E944C12AB
:1028F000F82E0E944C129F2D6C01853224EF920716
:1029000020F024E2C21A24EFD20AF12CE12CCC23CD
:1029100069F06C2F0E94FF30292F30E0A4E2B4EF61
:102920000E946D31C60ED71EE81EF91EC701B60102
:10293000CF91FF90EF90DF90CF900895CF92DF92EC
:10294000EF92FF926B017C01842F442331F00E94AF
:102950007014C60ED71EE81EF91E8091E804882365
:10296000A9F08091A2049091A304A091A404B09135
:10297000A504A7019601281B390B4A0B5B0BDA0152
:10298000C901181619061A061B068CF4C092A20477
:10299000D092A304E092A404F092A5048091D804FC
:1029A0009091D90491609093D9048093D804FF90BA
:1029B000EF90DF90CF900895AF92BF92CF92DF92C9
:1029C000EF920F931F93CF93DF93DC011A141B0434
:1029D000A4F590E1E3E0F4E0EF01892F19928A95E4
:1029E000E9F7F1E0F0931204F0930304E092080495
:1029F0004093090450930A0460930B0470930C04F1
:102A000000930D0410930E0420930F0430931004D0
:102A1000FD01AFE4B4E001900D929A95E1F7A501B4
:102A2000B60184E0DF91CF911F910F91EF90DF907D
:102A3000CF90BF90AF900C945B11DF91CF911F911D
:102A40000F91EF90DF90CF90BF90AF9008952F92AD
:102A50003F924F925F926F927F928F929F92AF922E
:102A6000BF92CF92DF92EF92FF920F931F93CF937B
:102A7000DF93CDB7DEB72A970FB6F894DEBF0FBE4F
:102A8000CDBF8C010E940C086B017C014AE0F7FE6F
:102A90000DC06DE285EF95E00E94C303662777279E
:102AA000CB016C197D098E099F094AE00E941D0A1D
:102AB00088ED92E00E94100AF8013197E431F105A7
:102AC00008F06EC3EA59FA4E0C9460317A159615E7
:102AD00099159C159F15A215D018A515A815AB150D
:102AE0001F162216251628162B16D0182E16CA18B1
:102AF000DB18CD188AE092E02A960FB6F894DEBF74
:102B00000FBECDBFDF91CF911F910F91FF90EF903E
:102B1000DF90CF90BF90AF909F908F907F906F90FD
:102B20005F904F903F902F900C94650A8AEF91E050
:102B3000E3CF89EE91E0E0CF87ED91E0DDCF8CEC43
:102B400091E0DACF82EC91E0D7CF83EB91E0D4CF64
:102B500082EA91E0D1CF82E791E00E94650A8091FC
:102B6000680587FF04C085E691E00E94650A8091B0
:102B70006A058823F1F18BE591E00E9410046091D1
:102B80006A0570E090E080E04AE00E941D0A87E458
:102B900091E00E9410048AE391E00E9410041A82DE
:102BA000198201E012E080916A0529813A81821739
:102BB0001306E9F0E4F0E0916905C90181599B4FE2
:102BC000E80FF92FF11DE450FF4F80811F928F9382
:102BD0001F930F930E94AD3249815A814F5F5F4F1F
:102BE0005A8349830F900F900F900F90DCCF0E9473
:102BF000610A0E940C08AB01BC0148595647664F58
:102C00007F4F29E534E289E394E02A960FB6F894E1
:102C1000DEBF0FBECDBFDF91CF911F910F91FF900F
:102C2000EF90DF90CF90BF90AF909F908F907F906C
:102C30006F905F904F903F902F900C94F7088CE22C
:102C400091E05ACF83E291E057CF85E191E054CFF4
:102C500088E091E051CF8AEF90E04ECF8FEE90E088
:102C60000E94650AA0906A05AA2009F4A4C2C09037
:102C7000D604D090D7040C2D07700A5F960143E06C
:102C8000369527954A95E1F72370C60155E096954C
:102C900087955A95E1F783708090EB04E090B20439
:102CA000F090B30451E0E51AF10815E0882339F0FB
:102CB00016E0813021F017E0823009F018E022237D
:102CC00049F03AEFB32E213039F094EFB92E992420
:102CD000939403C02DE7B22E912CC0909E04709067
:102CE0009F046090A0045090A1040E940C081F92C1
:102CF000DF92FF92EF921F921F939F92BF921F92BB
:102D00008F921F920F931F92AF925F926F927F925A
:102D1000CF929F938F937F936F9386E092E09F93E0
:102D20008F930E94AD328091EA041F928F9383E5C6
:102D300092E09F938F930E94AD3282EE90E00E94CA
:102D400010046091F30470E090E080E04AE00E949B
:102D50001D0A8CEC90E00E9410040FB6F894DEBFC0
:102D60000FBECDBFF12CE12C01E012E08091F30405
:102D70008E151F04D1F0CCF0E0916905C70181598F
:102D80009B4FE80FF92FF11DEB57FF4F80811F92EA
:102D90008F931F930F930E94AD327FEFE71AF70ACC
:102DA0000F900F900F900F90E1CF0E94610A8FEB70
:102DB00090E00E94100460916A0570E090E080E06D
:102DC0004AE00E941D0A88EA90E00E941004F12C5B
:102DD000E12C01E012E080916A058E151F04D1F00C
:102DE000CCF0E0916905C70181599B4FE80FF92F9D
:102DF000F11DE450FF4F80811F928F931F930F931B
:102E00000E94AD328FEFE81AF80A0F900F900F90E2
:102E10000F90E1CF0E94610A80916A051F928F9303
:102E200087E692E09F938F930E94AD3200916A05EE
:102E30000450110B0F900F900F900F9081E0E82E2F
:102E400082E0F82E80916A0580171106C9F0C4F05F
:102E5000E0916905C80181599B4FE80FF92FF11DD9
:102E6000E450FF4F80811F928F93FF92EF920E9458
:102E7000AD320F5F1F4F0F900F900F900F90E2CF6A
:102E80000E94610A20916A05EBE6F5E0FC83EB8382
:102E900090E080E01A821982422F50E058874F83D9
:102EA0006F817885E981FA81E617F7070CF048C150
:102EB000EB81FC812191FC83EB83022E000C330B10
:102EC0006C014CE0D594C7944A95E1F7A92FBB2734
:102ED000A7FDBA95AC25BD253D0162267326F1E01C
:102EE0006F2277247C016DE0F594E7946A95E1F711
:102EF0005C01AB2CBB0CBB08A594AE24BF244901DC
:102F0000959487948A249B24880C991C42E08422FF
:102F10009924862897288C01110F000B110F102F70
:102F2000001F2C01452C550C55084594459440260E
:102F30005126F901F595E795F595E795E425F525F1
:102F4000EE0FFF1FEE0FFF1FE470FF27E80DF91DC6
:102F5000592F551F5527551F59871A861C014BE0BD
:102F6000359427944A95E1F723FB662760F96D8332
:102F70001E82A1014170552769857A85462757270A
:102F80006D817E814627572763E0440F551F6A9560
:102F9000E1F74E0F5F1FB901E4E075956795EA957B
:102FA000E1F76C257D25F4E0660F771FFA95E1F7D0
:102FB00060717727460F571FF90165E0F595E79592
:102FC0006A95E1F7BD016E257F256E277F27E5E035
:102FD000660F771FEA95E1F760727727640F751F18
:102FE000A50140275127F901689415F8F595E79553
:102FF0001694E1F74E275F27E6E0440F551FEA9548
:10300000E1F740745527640F751F4201E1E08E22FD
:10301000992449855A85842695262227330F221F15
:103020003327282539253695322F2227379527959E
:10303000260F371FB101682779276170772764272A
:103040007527762F6627620F731F3C01759467946E
:10305000C624D724DC2CCC24DD0CCC2452E0D52291
:103060006C0D7D1DAC0155954795559547954E25A1
:103070005F25542F4427550F550F44275470640F74
:10308000751FFC0123E0F595E7952A95E1F7E02708
:10309000F127FE2FEE27FF0FFF0FFF0FEE27F8702F
:1030A0006E0F7F1F9C0144E0359527954A95E1F707
:1030B000A227B327A170BB27E985FA85AE27BF27D2
:1030C000BA2FAA27B295B07F6A0F7B1F9C01E5E05B
:1030D00035952795EA95E1F72A253B25322F2227BA
:1030E0003295330F307E22273072620F731F9C019E
:1030F000A6E035952795AA95E1F742265326B0E438
:103100004B9E502C442411244424F0E45F22640D8F
:10311000751D880F892F881F990B82259325298576
:103120003A85822793279927869597958827860F32
:10313000971F49815A814F5F5F4F5A834983B0CEB1
:103140009F938F939F938F9380E892E09F938F93A9
:103150000E94AD320F900F900F900F900F900F9034
:103160002A960FB6F894DEBF0FBECDBFDF91CF9188
:103170001F910F91FF90EF90DF90CF90BF90AF9095
:103180009F908F907F906F905F904F903F902F9087
:103190000C94610A8AE990E0AFCC88E790E0ACCC6F
:1031A00088E690E00E941004B80190E080E04AE0D8
:1031B0000E941D0AD5CF2A960FB6F894DEBF0FBE27
:1031C000CDBFDF91CF911F910F91FF90EF90DF90D6
:1031D000CF90BF90AF909F908F907F906F905F90B7
:1031E0004F903F902F900895CF92DF92EF92FF92F1
:1031F000CF93DF93EC01C12CD12C7601C3940C2E1C
:1032000004C0CC0CDD1CEE1CFF1C0A94D2F7E3FCBE
:1032100003C0CE010E942715D701C60188279472EA
:10322000AA27BB27892B8A2B8B2B01F1E0917304F2
:10323000F09174043097D1F020916A0540916905AE
:10324000211102C0442391F08091680550E060E0B4
:1032500084FF04C0DA01A659BA4F6C9130E0455999
:103260005A4F80917504909176040995CC2484E09E
:10327000D822E822FF24CD28CE28CF2819F1E091CA
:103280007704F09178043097E9F010927804109266
:103290007704C231D10541F18091680583FD24C0D6
:1032A0009091F20461E0992339F0082E000C990BFB
:1032B000692F661F6627661F70E0809179049091E0
:1032C0007A040995E0916F04F0917004309771F0E1
:1032D000BE018091710490917204DF91CF91FF90B3
:1032E000EF90DF90CF90099460E0E6CFDF91CF912F
:1032F000FF90EF90DF90CF90089582E08093680573
:10330000E0916305F0E0EF54FD4FE491F0E0EF77DA
:10331000E068F093D704E093D6048091B6049091CE
:10332000B704A091B804B091B90480939E0490931F
:103330009F04A093A004B093A10410926A0583E1B6
:1033400090E00E94F41880E00C94B81089E29AE2B0
:1033500090938504809384040C947D198BE494E20B
:1033600090938504809384040C947D1921E020932C
:103370006805E6EDF4E02081318120683183208307
:1033800010926A05909385048093840483E190E011
:103390000E94F41880E00C94B81082E19AE20C9438
:1033A000B61988E394E20C94B6192F923F924F928B
:1033B0005F926F927F928F929F92AF92BF92CF92C5
:1033C000DF92EF92FF920F931F93CF93DF93CDB7CE
:1033D000DEB7CB58D1090FB6F894DEBF0FBECDBF14
:1033E0008091DE04811149C781E08093DE048091E1
:1033F000D8049091D9049C01217C3327232B81F49C
:103400004091AA045091AB046091AC047091AD045A
:10341000452B462B472B29F582FD2FC00E94AF1369
:103420008091DE0481508093DE048111E0CFC55786
:10343000DF4F0FB6F894DEBF0FBECDBFDF91CF9147
:103440001F910F91FF90EF90DF90CF90BF90AF90C2
:103450009F908F907F906F905F904F903F902F90B4
:10346000089596FF0AC09F7B9093D9048093D80457
:1034700087E891E20E94B808D3CF0E940C086B0144
:103480007C010091D8041091D904C8018C7399274C
:10349000892B09F4E7C613FF58C18091D20490919B
:1034A000D304009711F00E946912C0929204D09246
:1034B0009304E0929404F09295048091D804909142
:1034C000D904977F9093D9048093D804B701A601BB
:1034D0008091E804811106C08091D8049091D904AC
:1034E00090FF12C08091A2049091A304A091A40423
:1034F000B091A5042A013B01481A590A6A0A7B0ABD
:1035000077FE02C0AC01BD0121E7C20E22E0D21E4F
:10351000E11CF11CDB01CA018C199D09AE09BF0930
:10352000B7FF8CC63091EC04CF57DF4F3883C158BA
:10353000D04004721127012B09F41FC18091D804D7
:103540001091EE0485FD16C110926B059091DA047E
:103550008091DB0490937C0580937D0543E150E0EE
:103560006BE675E08AE00E945B11609381057093C1
:10357000800580937F0590937E0587E180936A059F
:103580008091DA049091DB0401969093DB048093A0
:10359000DA0483EB9DE09093850480938404CF57F5
:1035A000DF4FC880C158D040EC2DF0E0EF54FD4F04
:1035B000E4918091ED0420E2829FC0011124EF7913
:1035C0008E2B9093D7048093D604C092E30480910D
:1035D000D8049091D9048F76967F806898609093F4
:1035E000D9048093D804A091E704A03670F5B0E028
:1035F00020E43DE043E050E00E9483318B019C01D8
:10360000005A1A4C274F334E00364FE9140740E258
:1036100024074CE1340708F0E9C4605A764A834035
:10362000934E60939E0470939F048093A0049093A4
:10363000A104E0916105EF3F09F456C5EF70F0E099
:10364000E056FD4FE491E093E4049091EB04809107
:10365000E40498170CF4892F8093E50481E190E04D
:103660000E94F41810929204109293041092940401
:103670001092950481E00E94310E877059F080E02D
:103680000E9400100E940C08625C7F4F8F4F9F4F7A
:103690000E944F0940909A0450909B0460909C04B3
:1036A00070909D0414141504160417040CF021C521
:1036B00081E00E940A1080919E0490919F04A09145
:1036C000A004B091A10481349D4DAA44BF4108F4E7
:1036D0000DC583E69FEFE0914D04F0914E042781E4
:1036E0007C01E20EF11C27FDFA940E940C08615E39
:1036F0007F4F8F4F9F4F0E944F090E940C0810E090
:10370000460E571E681E791E8BE10E94310E181757
:1037100008F4182F0E940C08641975098609970986
:1037200097FDF2CF80E00E9400108091E604082E01
:10373000000C990BE10EF11CE816F9060CF4D9C443
:10374000809184049091850495CE4091920450918B
:1037500093046091940470919504BACECF57DF4FD3
:103760008881C158D0400E94BF0DCF57DF4F88835A
:10377000C158D040115090F7E7CE8091AE0490919F
:10378000AF04A091B004B091B10480389F4FAF4F07
:10379000BF4F18F08DE791E26DCE809167058111E2
:1037A0000DC08091B2049091B304A091B404B09183
:1037B000B5048F3F9F4FAF4FBF4F61F3E090D804E8
:1037C000F090D90478E1E722FF2480E1E816F104C3
:1037D00009F4EBC1A090F3048091F104882309F46B
:1037E000E6C180912905882309F4E1C100912805EB
:1037F000002309F4DCC110E0A8016AE275E083E768
:1038000095E00E949D32085F1F4F1092280510928C
:10381000290580916405882331F086FFCBC190E4AF
:1038200089278093640580916505882331F086FFA0
:10383000D1C190E489278093650580916605823027
:1038400009F0D8C181E080936605093111050CF0BB
:10385000ACC380915B05882361F08091DC0490917A
:10386000DD0497FF04C090E080E00E9435071092CD
:103870005B056A2C712C25E0620E711CF0E1EF16DD
:10388000F10419F4A4E06A2E712C600E711E31E46B
:10389000631671040CF0B9C191E040E1E416F10443
:1038A00009F490E0E091EC04E63008F0B3C1F0E0F8
:1038B000E656FD4FE491E615170408F476C380E45C
:1038C00080936B058091590540915F05482B2091AD
:1038D000DC043091DD0437FD9FC121523109203BCA
:1038E000324008F499C120E488EF800F842B822BAA
:1038F000809370054091AA043091AB042091AC04F0
:103900008091AD0440936C0530936D0520936E0556
:1039100080936F0580916705811118C02091EF0495
:10392000211114C04091B2045091B3046091B404C9
:103930007091B5044F5F5F4F6F4F7F4F4093B2045C
:103940005093B3046093B4047093B5042091B2040F
:103950003091B304215031092093710530937205E1
:10396000109259059923D9F19091F204992309F401
:1039700055C190E890936B05811103C081E080935D
:103980006705F801E559FA4F8091F1048083C80179
:1039900084599A4F6C01B12CA50164EF74E00E9428
:1039A0009D320091B2041091B3042091B40430917F
:1039B000B50401501109210931094091AA0450911F
:1039C000AB046091AC047091AD048091F10481115D
:1039D00032C189E395E0F12CE12C0E94DC148301D3
:1039E000045011098091B2049091B304A091B404E1
:1039F000B091B5040197A109B1096091AA04509151
:103A0000AB044091AC043091AD0420E1E3E0F4E07C
:103A1000C22E1192CA94E9F779E4709303041092CC
:103A20000804009312046093090450930A0440931D
:103A30000B0430930C0480930D0490930E04A09318
:103A40000F04B0931004E9E3F5E0AFE4B4E00190B3
:103A50000D922A95E1F7A8016BE675E082E00E94DD
:103A60005B11F801E559FA4F638372838183908378
:103A700060926A057F926F9227EB32E03F932F931B
:103A80000E94AD320F900F900F900F9010E000E069
:103A900080916A058017110611F00CF0CFC08AE002
:103AA00090E00E94C33280916A051F928F93EBEDE4
:103AB000F2E0FF93EF930E94AD3200916A0504504B
:103AC000110B0F900F900F900F9080916A05801747
:103AD000110611F00CF0CCC08AE090E00E94C332D5
:103AE00080916A05ABE6B5E0CC57DF4FB983A88378
:103AF000C458D040CA57DF4FB983A883C658D040B6
:103B000010E000E0912C812CC82ED12CC657DF4F3D
:103B1000D982C882CA58D040C657DF4F48815981E0
:103B2000CA58D040841695060CF4B8C01F930F9362
:103B30001F930F9385EF92E09F938F930E94AD3276
:103B400019831A8211271C830B8310916A05412F58
:103B500050E0FE0135960F900F900F900F900F9050
:103B60000F90ABE6B5E090E080E0841795070CF489
:103B700004C2440F551F70E060E08BE695E00E94A0
:103B8000A6321E5F10936A05FE01319630E020E0F8
:103B9000812F90E0281739070CF4F5C1E8E9FDE022
:103BA000F0938504E0938404FACCA12C1ACE08E0AB
:103BB00010E02BCE980121593B4FF901E450FF4F03
:103BC00095E0908323503F4F8770D9018C930E5F0F
:103BD0001F4F29CE980121593B4FF901E450FF4F67
:103BE0009AE0908323503F4F8370F90180830E5FEA
:103BF0001F4F23CE882309F428CEF801E559FA4F48
:103C000088E080830F5F1F4F20CE380154E0650E9F
:103C1000711C47CEE0E04FCE20E066CE8091EA04F2
:103C2000882309F4AECE8091EF048111AACE81E001
:103C30008093EF04A6CE89E495E0CDCEE0916905AE
:103C4000C80181599B4FE80FF92FF11DE450FF4F38
:103C500080811F928F9381E092E09F938F930E94C7
:103C6000AD320F5F1F4F0F900F900F900F9010CF3E
:103C7000E0916905C80181599B4FE80FF92FF11DAB
:103C8000E450FF4F80811F928F9321E032E03F93F9
:103C90002F930E94AD320F5F1F4F13CFCA57DF4FD4
:103CA000A881B981C658D040BD90CA57DF4FB983AB
:103CB000A883C658D04078019CE0F594E7949A9583
:103CC000E1F7212E332427FC3A942E243F244B2D58
:103CD0000B2C000C550B42255325CA0181709927E6
:103CE000D801A8E0BA02A12DBB0B11249801232F03
:103CF000330F330B2595F901EA27FB27CE57DF4F0A
:103D0000F983E883C258D0402B2D2595022E000C54
:103D1000330B2E273F27220F331F22703327822B8E
:103D2000932BF801FF0FEE0BFF0FFE2FEE1F280164
:103D3000452C550C5508459445944E265F262B2D51
:103D400025952595022E000C330B24253525220FB1
:103D5000331F220F331F24703327280F391FA80168
:103D60004427550F441F5527B80160E27602612DA4
:103D7000770B1124CB018170992784279527B3FAFB
:103D8000CC24C0F8C857DF4FC882C858D040C757A6
:103D9000DF4F1882C958D040C857DF4FC880D9803C
:103DA000C858D0408C259D25880F991F880F991FD2
:103DB000880F991F280F391F8B2D8595859585951F
:103DC0008595082E000C990B8E259F25829592953E
:103DD000907F9827807F982780719927820F931F63
:103DE0002B2D25952595259525952595022E000C9D
:103DF000330B6D01C224D3242C253D25689414F87F
:103E0000220F331F1694E1F720723327820F931F7E
:103E1000CE57DF4F28813981C258D0402E273F2707
:103E2000CB2CC6FACC0CCC08C0F80C2C000CDD084E
:103E30002C253D25689415F8220F331F1694E1F7C1
:103E400020743327820F931F320121E062227724EE
:103E500064267526BB1CBB24BB1C6B247694762C75
:103E6000662477946794680E791ECB01802791278A
:103E70008170992784279527982F8827860D971D6D
:103E8000980135952795E226F326FE2CEE24FF0CAB
:103E9000EE2432E0F3228E0D9F1D6801D594C79465
:103EA000D594C794CA26DB26DC2CCC24DD0CDD0C93
:103EB000CC24A4E0DA228C0D9D1D3801B3E075946A
:103EC0006794BA95E1F76E267F26762C6624770CE8
:103ED000770C770C6624B8E07B22860D971D98013D
:103EE000E4E035952795EA95E1F722263326E1E0CF
:103EF0002E22332424263526322C22243294F0EF2D
:103F00003F22820D931D9801A5E035952795AA952E
:103F1000E1F7CE57DF4FC880D980C258D0402C255A
:103F20003D25322F22273295330F307E22273072E3
:103F3000820F931FD80126E0B595A7952A95E1F742
:103F4000A425B525B0E4AB9FB02DAA271124AA273C
:103F5000B0748A0F9B1F000F012F001F110B062743
:103F60001727042715271127069517950027080FEF
:103F7000191F2FEF821A920ACFCD2D9130E0219395
:103F800031930196F2CD40813296CC57DF4FA88114
:103F9000B981C458D0404D93CC57DF4FB983A88323
:103FA000C458D0402F5F3F4FF5CD88E0809368051F
:103FB0008091F204811104C080916705882319F073
:103FC00088E4809368058091D8049091D90487761D
:103FD0009E7F9093D9048093D80410926A05109222
:103FE00069058AE090E00E94F4181ACA003659E088
:103FF000150759E325075CE1350728F4605A70413D
:104000008C41934E0ECB0036A3E71A07A1E52A0791
:10401000ACE13A0728F4605A7A478443934E01CBC7
:104020000036BDED1B07B9E62B07BCE13B0728F4C2
:10403000605A744E8C44934EF4CA0036E7E41E076F
:10404000E2E82E07ECE13E0728F4605A7E448546FC
:10405000934EE7CA0036F1EB1F07FAE92F07FCE1A0
:104060003F0728F4605A784B8D47934EDACA0036E2
:104070004BE1140743EB24074CE1340728F4605A62
:1040800072428649934ECDCA003655E815075BEC5F
:1040900025075CE1350728F4605A7C488E4A934E28
:1040A000C0CA0036AFEE1A07A3EE2A07ACE13A0702
:1040B00028F4605A764F864C934EB3CA0036B9E561
:1040C0001B07BCEF2B07BCE13B0728F4605A704686
:1040D0008F4D934EA6CA00939E0410939F04209385
:1040E000A0043093A104A5CAE3E1ADCA8CE59FEF1B
:1040F000F2CA8091D604877009F06AC00E94DC0F72
:1041000081E00E94001080E00E94560E60E085E28F
:104110000E94430E65E086E20E94430E0E94EA0E72
:104120000E94830E69E28AE00E94430E64E380E409
:104130000E94430E60916A056F5F82E30E94430E06
:1041400060916A0580E00E94430E40916A0550E04C
:1041500020E06BE675E080E80E94C80D81E00E94D7
:10416000C30960919204709193048091940490919A
:104170009504611571058105910531F10E944F0982
:104180006115710581059105F9F000918C0410917C
:104190008D0420918E0430918F04DC01CB01800FBF
:1041A000911FA21FB31F80938C0490938D04A09342
:1041B0008E04B0938F0480919004909191040196A5
:1041C000909391048093900483E00E94001028C98A
:1041D0000E94EE0F81E00E94310E87FD06C061E271
:1041E00073E084E891E00E94C30781E00E94001020
:1041F0000E943A0F0E94EA0E68E08AE00E94430E95
:104200000E94830E64E389E30E94430E6CE780E41E
:104210000E94430E6FEF82E10E94430E67EF81E13F
:104220000E94430E60E08EE00E94430E60E08DE04D
:104230000E94430E60916A0582E285CF8091D80486
:1042400081FF05C0411551056105710589F0415790
:104250005240610971092BE931E28EE794E00E9436
:10426000F708DEC840E050E0BA0101FDF0CFD8C841
:1042700041E050E060E070E0EACF82E08093DE044D
:10428000D6C88091D8049091D90483FF35C010928C
:10429000F30482FF2CC0877E9093D9048093D804C6
:1042A00082E190E00E94F4188091D8049091D904A2
:1042B00085709927892B01F50E94BC0780918004A5
:1042C00090918104A0918204B0918304892B8A2B60
:1042D0008B2B79F48FEE95E06EE774E00E946D060B
:1042E0000E94300880E00E9400100C94D519877657
:1042F000D3CF8DEE95E0F0CF08950E9441210E942A
:1043000009148CE090E00E94F4180C94AF13E8EDCF
:10431000F4E0808191818E7D9F7B918380831092D8
:10432000AA041092AB041092AC041092AD040E9447
:1043300041210C94AF130C94D519CF938091D804DC
:104340009091D90487779093D9048093D8041092E0
:10435000EF041092670520912805222351F0309137
:104360002905332309F466C080619093D9048093B2
:10437000D8040E940C086E5E75488F4F9F4F40E036
:104380000E949E1480916805877079F08091D8040E
:104390009091D90494FF09C09F7E9093D904809393
:1043A000D8048FE090E00E94F4188AE090E00E9428
:1043B000F4180E94D5198091DC049091DD04819756
:1043C000B4F18091EC040E94BF0DC82F2091D2045B
:1043D0003091D3048091EC042730310508F4C82FC4
:1043E0008C1332C08091DC049091DD04813F9240B7
:1043F0004CF08091D8049091D90490649093D904A2
:104400008093D80463E18C2F0E9418078091D80410
:104410009091D9049C0130613093D9042093D80441
:104420002817390721F08EE090E00E94F41881E00F
:10443000CF9108951092F2041092F1042093F304A6
:1044400010922805886091CFCC23E1F290E080E0C3
:104450000E943507D7CF809167058823B1F1883056
:1044600020F58F5F8093670580FF07C08091EC0483
:104470000E94BF0D60E80E94180760919604709139
:104480009704809198049091990443E00E949E14AF
:104490008091D8049091D9048F779093D904809318
:1044A000D8040E94D51981E0089580E680936805BC
:1044B0008091DC049091DD0401960E9435071092F2
:1044C0006A05109269050C949D218091EF04882360
:1044D00079F09091EA04891758F48F5F8093EF0484
:1044E0000E940C086E5E75488F4F9F4F40E0CECF04
:1044F00080E2DCCF8091F004882341F00E943211E9
:1045000085E090E00E94F4180C94D51981E0809326
:10451000F004F6CFCF92DF92EF92FF92CF93DF932A
:104520008091D8049091D90482FD22C085FD0DC0F0
:104530008F779093D9048093D80481E0DF91CF9155
:10454000FF90EF90DF90CF9008958F759093D904EE
:104550008093D8048091EE048A3018F48F5F8093A2
:10456000EE0489E090E00E94F4180E94D519E5CF8E
:104570008F779093D9048093D80484E190E00E94CF
:10458000F4188091E9048093E7048091D20490911B
:10459000D3040E946912809167058F5F809367053D
:1045A000C82FC7701092EC048091D8049091D90460
:1045B000977F9093D9048093D8040E940C086B01D4
:1045C0007C012091EC0480E190E002C095958795F4
:1045D0002A95E2F70E947014C60ED71EE81EF91E37
:1045E000C0929204D0929304E0929404F0929504C5
:1045F000C12CD12C7601C394CC2399F0C12CD12CA1
:104600007601CBE9D1E20E940C08AB01BC014C0D54
:104610005D1D6E1D7F1D9E018EE794E00E94F708D0
:104620008CCFC3E5D4E2EFCF8091680580FF0C9476
:104630008A2280E00895CF92DF92EF92FF920F934B
:104640001F93CF93DF938091680580FF05C0809111
:104650006A05882309F402C18091D8049091D90495
:1046600087FFE6C084729927892B51F4DF91CF919F
:104670001F910F91FF90EF90DF90CF900C94142337
:1046800010916A0511110AC0DF91CF911F910F910E
:10469000FF90EF90DF90CF900C948A22113111F0AF
:1046A000113221F780916B05837E8032F9F6C12F9C
:1046B000D0E0AE01415051096CE675E080E00E9407
:1046C0005B112497AE016BE675E08AE00E945B11F6
:1046D0006B017C01C559DA4F688179818A819B81A0
:1046E0000E946631C616D706E806F90609F0BECF65
:1046F00082E795E00E94AE076093AA047093AB0432
:104700008093AC049093AD048FE695E00E94AE07D1
:1047100099276093A6047093A7048093A8049093AC
:10472000A9041132D1F4809187058130B1F498E762
:10473000E92E95E0F92EC0E0D70111960C91119762
:104740008C91102F082FD0E1DC0FDC1373C0B2E086
:10475000EB0EF11CCD2FD03679F78091DA049091D1
:10476000DB040197E1E4F5E028E0DF011D922A95E2
:10477000E9F721E02093390526E0ECE6F5E0AAE32D
:10478000B5E001900D922A95E1F780934005909352
:10479000410580E1E9E3F5E0A9E4B5E001900D927F
:1047A0008A95E1F782E08093490540E150E069E3B2
:1047B00075E080E00E945B1140E150E069E475E043
:1047C00080E00E945B118091D80485FF08C0C091F1
:1047D000EE048091EC04C150E0F58093EC048091EC
:1047E000D8049091D90489759D7F98609093D904DD
:1047F0008093D804109267050E948A0780EC9FEF8F
:104800000E94350780917605982F9F7090936305DD
:104810008295877080936205809177058823E1F007
:1048200080935C0586E090E00E94F4180E94D51900
:1048300081E015C0C03609F48ACF8C2F00FF06C076
:104840000E948406CF5F169507957FCF0E94B4061D
:10485000F9CF0E94BF0DBFCF81E0E2CF80E0DF91B2
:10486000CF911F910F91FF90EF90DF90CF9008951F
:1048700080916A0581110AC0209163054EEA59E1D1
:1048800068ED78EB85E090E00C94EF0C0E941B2320
:10489000882391F3089580916A05811102C01092D6
:1048A00068050C941B2388E090E00E94F4180C9497
:1048B000D5194F925F926F927F928F929F92AF9293
:1048C000BF92CF92DF92EF92FF928091D80487FF40
:1048D00010C08AE392E0FF90EF90DF90CF90BF90FE
:1048E000AF909F908F907F906F905F904F900C94BF
:1048F000650A0E943505812C912C20ECA22E2FE711
:10490000B22E882329F080E00E9451024B015C0105
:104910008DE293E00E94100A42E0C501B4010E94BA
:10492000710A8BE393E00E94100A0E94610A0E94C0
:104930003505412C512C90EC692E9FE7792E882368
:1049400029F081E00E9451022B013C010E943505B3
:10495000882351F080919A068B3030F08D3058F0DA
:104960008551823008F44BC0C12CD12C80ECE82E4C
:104970008FE7F82E1EC06091950670E090E080E011
:104980000E94D82F2DEC3CEC4CEC5DE30E948D3066
:104990006B017C016091940670E090E080E00E94E1
:1049A000D82F9B01AC01C701B6010E94C42E6B0138
:1049B0007C018FE393E00E94100A42E0C701B60138
:1049C0000E94710A0E94610AA5019401C501B40107
:1049D0000E94FA30811110C0A3019201C301B201FB
:1049E0000E94FA30811108C0A7019601C701B601E3
:1049F0000E94FA308823A9F08AE192E06CCF60919E
:104A000094067091950676276727762790E080E0D8
:104A10000E94D62F2DEC3CEC4CEC5DE30E948D30D7
:104A2000C6CF20E030E040E251E4C501B4010E946D
:104A30008D300E94A72F7093020160930301A7019C
:104A40009601C701B6010E94C42E0E94A72F609351
:104A500006018091D8049091D9048C799927892BEB
:104A6000E1F43091EC044091D2045091D304832FAF
:104A700090E04730510588F0863078F4FC01E65626
:104A8000FD4FE491EE2349F0E431D8F5FC01EE54FA
:104A9000FD4FE4910196EF3F61F78091D80490912A
:104AA000D9049C012C793327232B89F527E0E0E0FA
:104AB000F1E0A4EFB4E001900D922A95E1F7109295
:104AC000F20421E02093F10427E02093F3049C01F9
:104AD00028603093D9042093D80482FD04C010923A
:104AE00067051092EF04FF90EF90DF90CF90BF909A
:104AF000AF909F908F907F906F905F904F900C94AD
:104B0000D519381751F260E80E941807C6CFFF90F8
:104B1000EF90DF90CF90BF90AF909F908F907F905D
:104B20006F905F904F9008952F923F924F925F92B7
:104B30006F927F928F929F92AF92BF92CF92DF92AD
:104B4000EF92FF920F931F93CF93DF93CDB7DEB712
:104B50006C970FB6F894DEBF0FBECDBF998F888FCC
:104B60003B0110922805452B09F510922905F12CDF
:104B7000E12CE614F704F4F0C7016C960FB6F89434
:104B8000DEBF0FBECDBFDF91CF911F910F91FF9080
:104B9000EF90DF90CF90BF90AF909F908F907F90DD
:104BA0006F905F904F903F902F90089581E0809399
:104BB0002905DDCFC88CD98CCE0CDF1CF6012081F5
:104BC000223050F1422F4250550BFA01423151052B
:104BD00018F5ED5AFD4FE4918E2F90E09D8B8C8B54
:104BE000892B51F2C3018E199F09EC89FD898E171B
:104BF0009F070CF4C1CF2250283080F4E22FF0E060
:104C0000EC5FF94D0C9460310F261726DA276327E5
:104C100037270E26CC27EB27E0E0DECF3701EC89E3
:104C2000FD89EE0DFF1D730137017F01A2CFD60173
:104C300007E01B8A1A8A2A893B892B5F3F4F49016B
:104C40009C014A895B89241B350B253031050CF406
:104C500093C011962C91119712964D915C911397D8
:104C600014963C9114973077E22FE295EF7030352F
:104C700058F0303509F078C04115510509F47AC073
:104C80004427452B09F076C0E63030F4F0E0EF54CD
:104C9000FD4FE491EF3F09F40D7F2F70283038F479
:104CA000E22FF0E0EE56FD4FE491E03809F40B7F7F
:104CB00015962C91233009F454C08CE0EAEBF4E013
:104CC000DE01119601900D928A95E1F78091D20450
:104CD0009091D3049B8F8A8F412C10E0073009F00C
:104CE00077C09F8A8E8A160181E0412C10E0EE8900
:104CF000FF8935970CF469C0F101A280B38011815E
:104D00004480F42DF077F98BF035D9F5512C852DB1
:104D1000A0FE34C00E94ED075394B694A79428E0F7
:104D20005212F5CF2091D2043091D3044E895F897D
:104D3000455051095F8B4E8B55E0250E311C81E0AB
:104D40002115310509F480E0A1014C195D094815D0
:104D500059056CF2232BD9F1A12EA2948FE0A82241
:104D60003DC09B8A8A8A67CF303609F489CF3037B5
:104D700009F482CF0E7F88CF00E09FCF0E94C60744
:104D8000CBCF8989803578F4805F8C8F5988FC8DF2
:104D90005F1640F6852DA0FE15C00E948406539430
:104DA000B694A794F4CF512C9989852D903639F477
:104DB0000E9484065394E0E65E12F6CFE8CF0E948C
:104DC000B406F8CF0E94B406EACF811101C006E014
:104DD000A12EA2947FE0A722073041F48091D20453
:104DE0009091D30407E0079780F405E08CE0FE0182
:104DF0003196AAEBB4E001900D928A95E1F72A8DE5
:104E00003B8D3093D3042093D204BB24B394D12C94
:104E1000C12CC4018C199D0905976CF0602F83E0AB
:104E20000E946007B82E35E0C30ED11CC814D90407
:104E300014F48111EECF073099F4842D8F70909186
:104E4000EA0489138093EA041F7060E8183028F49C
:104E5000E12FF0E0EE56FD4F64918A2D0E94180775
:104E60004A895B89E40EF51EBB2001F1D8CE209162
:104E7000E004022E000C330BC901029697FD039645
:104E80009595879595958795182F1F734F970CF0DB
:104E90001FE110935E05D0907D040091280586E007
:104EA0000E944107811104C000932805F701BCCE80
:104EB0008D2D0E9441078823B9F3812F0E9441075D
:104EC000882391F3ACCEC7010196E88DF98D8E0F42
:104ED0009F1FFC012081122F1F7030E044E03595A8
:104EE00027954A95E1F7022F07700E94AE07272FFA
:104EF000382F492F5527A4E6B0E00E9483314B019B
:104F00005C01F0E88F1AF1EA9F0AF3E0AF0AFCE1D6
:104F1000BF0A21E082162AE5920622E6A20622E0D6
:104F2000B20618F060E070E0CB0130EC309364051D
:104F3000163050F4E12FF0E0EF54FD4FE491EF3FD5
:104F400019F042EC409364056115710581059105E6
:104F500029F020916405216020936405043028F431
:104F60002091640524602093640520916405273C0A
:104F700061F4109363056093B6047093B704809353
:104F8000B8049093B90400936205622F677085E0BE
:104F90000E946007B82E68CFF60181818F7009F4F6
:104FA00081E080935C05F2E0F093660588E00E9462
:104FB0004107F0CFF60181818F708093E8040E9451
:104FC0000C086093A2047093A3048093A4049093AC
:104FD000A50484E0ECCFF60181818F738093610595
:104FE00089E0E5CF2F923F924F925F926F927F922E
:104FF0008F929F92AF92BF92CF92DF92EF92FF92E9
:105000000F931F93CF93DF9300D000D000D0CDB784
:10501000DEB78091D80487FFE5C1F0906A05F110F2
:105020001AC026960FB6F894DEBF0FBECDBFDF9133
:10503000CF911F910F91FF90EF90DF90CF90BF9095
:10504000AF909F908F907F906F905F904F903F9028
:105050002F900C942B222F2D30E03E832D832C306B
:10506000310544F410926A058091680580FFD9CF1C
:1050700080E0B9C180916B05982F937099F7807E7D
:105080008983803611F0803A69F78CE695E00E94BA
:10509000AE070091AA041091AB042091AC043091AA
:1050A000AD046017710782079307E1F63091700530
:1050B0003B833F70E32EC32ED12C1601A8E02A0EAD
:1050C000311C2D813E81245031093E832D832215D0
:1050D000330544F288248A94982C221633064CF423
:1050E000F101E559FA4F2081822E912CD6011996B3
:1050F0001D014090AE045090AF046090B0047090D9
:10510000B1040091710510917205041915090F3F42
:10511000100709F078C021E0421A510861087108AF
:1051200020E1E3E0F4E0DF01322F1D923A95E9F748
:1051300039E43093030431E030930804ACEFAF0D51
:10514000AC83A09312046093090470930A048093C3
:105150000B0490930C0440920D0450920E04609244
:105160000F0470921004E9E3F5E0AFE4B4E00190BD
:105170000D922A95E1F74D815E816BE675E082E044
:105180000E945B119B01AC01ED81FE81E559FA4F54
:1051900060817181828193810E9466312617370771
:1051A0004807590709F05ECF8091AE049091AF0493
:1051B000A091B004B091B104481659066A067B0666
:1051C00038F584159505A605B7050CF44BCF019766
:1051D000A109B109481659066A067B0609F042CFB3
:1051E00080915A05882309F43DCFB981B03A09F07E
:1051F00039CF80E2809359058114910409F40CC1E0
:1052000001E010E033C0400E511E611C711C88CFBC
:105210000130104408F026CFD301C2010196A11D30
:10522000B11D8093AE049093AF04A093B004B093EB
:10523000B104398180E2303A09F080E080935A0568
:105240008093590510E000E08114910441F4EE20B0
:1052500031F08D819E81281639060CF403CF8091A0
:105260005905811103C09B8194FF09C08091D80426
:105270009091D90480619093D9048093D8041092BE
:10528000EE0410925B0580EC9FEF0E9435071092B0
:10529000640510926605E091D604F091D7048E2F34
:1052A000877033E0F695E7953A95E1F7E370F0E023
:1052B000A3E08A9FE00DF11D1124E358FD4FE49116
:1052C0008091DF04082E000C990B80549109ED5851
:1052D000FF0B8E1B9F0B97FD80E080935D05A40163
:1052E000B60183E795E00E949425012B09F0BACE20
:1052F000BFEF8B169B0699F12D813E812219330950
:105300003E832D831216130654F5C10185599A4F19
:105310009A8389834091AA045091AB046091AC04B4
:105320007091AD0489E395E08114910411F089E452
:1053300095E0AD80BE80C980DA80EE24E394F12C44
:10534000930182010E94DC148114910441F450E025
:1053500040E06D817E8189819A810E94942590919F
:105360006705992349F0AB8120E8A5FF20E48091EF
:105370006805822B809368058091680518141904CC
:105380003CF18062809368052092690510926A055D
:10539000992321F08091680586FD43CE26960FB6AD
:1053A000F894DEBF0FBECDBFDF91CF911F910F915B
:1053B000FF90EF90DF90CF90BF90AF909F908F9035
:1053C0007F906F905F904F903F902F900C949D2115
:1053D00080618093680520926905FC80F218F09244
:1053E0006A05D6CF81E026960FB6F894DEBF0FBED1
:1053F000CDBFDF91CF911F910F91FF90EF90DF9084
:10540000CF90BF90AF909F908F907F906F905F9064
:105410004F903F902F900895EE2009F4F1CE01E0D7
:1054200010E017CF80916A0581110EC0A0915C0534
:10543000B0E0119624E234EF0E947C3120916305A4
:1054400046EA59E10C94EF0C0E94F227882371F38D
:10545000089580916A0581110BC0109268050E9421
:105460000C08655E78448F4F9F4F42E00E949E1467
:105470000C94F2271F920F920FB60F9211242F93C4
:105480003F934F935F936F937F938F939F93AF93CC
:10549000BF93EF93FF9385EF95E00E94A103FF91E7
:1054A000EF91BF91AF919F918F917F916F915F919C
:1054B0004F913F912F910F900FBE0F901F90189515
:1054C0001F920F920FB60F9211242F938F939F93D9
:1054D000EF93FF93E0910506F09106068081E0913D
:1054E0000B06F0910C0682FD1BC0908180910E0688
:1054F0008F5F8F7320910F06821741F0E0910E06A7
:10550000F0E0EB50FA4F958F80930E06FF91EF91EC
:105510009F918F912F910F900FBE0F901F90189514
:105520008081F4CF1F920F920FB60F9211242F9308
:105530003F938F939F93AF93BF938091F105909189
:10554000F205A091F305B091F4053091130423E026
:10555000230F2D3758F50196A11DB11D209313047B
:105560008093F1059093F205A093F305B093F405B1
:105570008091140490911504A0911604B091170421
:105580000196A11DB11D8093140490931504A0935E
:105590001604B0931704BF91AF919F918F913F91E3
:1055A0002F910F900FBE0F901F90189526E8230F94
:1055B0000296A11DB11DD2CFE5EFF5E01382128254
:1055C00088EE93E0A0E0B0E084839583A683B78360
:1055D00089E191E09183808385EC90E095878487D1
:1055E00084EC90E09787868780EC90E0918B808BAD
:1055F00081EC90E0938B828B82EC90E0958B848B96
:1056000086EC90E0978B868B118E128E138E148E03
:105610008BE291E09093930680939206A4E9B6E022
:105620008FE015968C93159786E116968C931697B6
:10563000E7E4F4E0E4911796EC931797E3E3F4E0E2
:10564000E4911896EC93189740E85EE360E070E010
:105650001D964D935D936D937C9350970895CF93D2
:10566000DF93CDB7DEB7A0970FB6F894DEBF0FBEBD
:10567000CDBF789484B5826084BD84B5816084BDDB
:1056800085B5826085BD85B5816085BD80916E00E0
:10569000816080936E001092810080918100826011
:1056A000809381008091810081608093810080914E
:1056B00080008160809380008091B100846080933D
:1056C000B1008091B00081608093B00080917A0039
:1056D000846080937A0080917A00826080937A005F
:1056E00080917A00816080937A0080917A0080684E
:1056F00080937A001092C10068E873E180E090E046
:105700000E940305E0910506F091060682E0808381
:10571000E0910106F09102061082E0910306F091FB
:10572000040680E1808310920D06E0910906F09155
:105730000A0686E08083E0910706F09108068081E2
:1057400080618083E0910706F0910806808188607F
:105750008083E0910706F09108068081806880834D
:10576000E0910706F091080680818F7D808364E6D2
:1057700070E080E090E00E94030583E093E00E94E7
:10578000650A62E0809199060E94A2042FB7F894FE
:105790008091F1059091F205A091F305B091F40587
:1057A0002FBF805D9740A109B10980939D0690931A
:1057B0009E06A0939F06B093A00687E38093A6065B
:1057C000EDEEF5E084E0DF011D928A95E9F787E0D0
:1057D00091E090934E0480934D0482E996E090937B
:1057E00038048093370461E08AE00E94740461E029
:1057F0008AE00E94A20460E089E00E94A20460E0C6
:1058000082E00E94A20460E086E00E94A20460E0C0
:1058100087E00E94A2041FB7F8948091360481119A
:1058200027C0EEE2F4E08491E2E4F4E09491E82F02
:10583000F0E0EE0FFF1FE752FD4FA591B491EC9100
:10584000E92321F461E08AE00E94740461E08AE0C7
:105850000E94A2048CB580618CBD8CB580648CBD27
:1058600061E08DE00E94A20461E08BE00E94A2044E
:10587000809136048F5F809336041FBFE8E2F4E026
:105880008EE0DF011D928A95E9F784EB97E0909313
:1058900031048093300482E080932B04F093AA06B5
:1058A000E093A90681E00E94990900914D041091AE
:1058B0004E04F80182818F3F49F060E00E94740439
:1058C00061E0D80112968C910E94A2040E940C08FB
:1058D000625C7F4F8F4F9F4F0E944F09F80182817A
:1058E0008F3F19F060E00E94A2040E940C08685CDF
:1058F0007E4F8F4F9F4F0E944F0980E00E94001003
:1059000082E40E94310E823109F02EC28091370468
:1059100090913804DC01ED91FC910680F781E02D37
:105920000995882341F08BE40E94310E682F606155
:105930008BE40E94430E82E00E940A1081E00E94E4
:10594000310E87708530D1F708E114E0B7E2CB2E35
:10595000B4E0DB2EA8E0EA2EF12C8CE20E94310E9E
:105960008170B82E8CE20E94310E8170B816A9F3B6
:10597000F8018181880F8B298183F1E0EF1AF1080A
:1059800061F70F5F1F4FC016D10621F710E110938A
:10599000180480E00E94001080E490E09093D90405
:1059A0008093D8048FEF80937D040E94091440E116
:1059B00050E063EF72E0CE0141960E94BA2E40E1C2
:1059C00050E063EE72E0CE0101960E94BA2E83E1B0
:1059D00090E0A0E0B0E08093A6049093A704A09389
:1059E000A804B093A90485E19AEEAEEDB0E08093EF
:1059F000AA049093AB04A093AC04B093AD04FE0151
:105A00003196A9E3B5E0812F01900D928A95E1F7D7
:105A1000FE017196A9E4B5E001900D921A95E1F7A7
:105A20008091D8049091D90489759D7B986090935A
:105A3000D9048093D8040E948A0790E080E00E94F5
:105A4000350710E0812F0E94C6071F5F1830D1F77D
:105A500010925B0580E89FEF9093DD048093DC0457
:105A60001092630510925F0561E182E00E941807C1
:105A70001F9211E01F9384E493E09F938F930E9401
:105A8000AD321F9282E08F938FE693E09F938F93C6
:105A90000E94AD321F921F9383E993E09F938F93EF
:105AA0000E94AD3289E394E00E9459240FB6F89425
:105AB000DEBF0FBECDBFEFE0BE2EF0E0CF2EF0E098
:105AC000DF2E71E4E72E74E0F72E10E000E0E091A5
:105AD0004D04F0914E04E00FF11F83818F3FC9F117
