:100000000C943E020C9466020C9466020C946602F8
:100010000C9466020C9466020C9466020C946602C0
:100020000C9466020C9466020C9466020C946602B0
:100030000C9466020C9466020C9466020C946602A0
:100040000C9456260C9466020C9424260C94FE25DF
:100050000C9466020C9466020C9466020C94660280
:100060000C9466020C946602556E6B6E6F776E2070
:100070006576656E743A200045565F4A4F494E5F7B
:100080005458434F4D504C4554453A206E6F204ACA
:100090006F696E4163636570740045565F545843E1
:1000A000414E43454C454400206279746573206F8E
:1000B0006620504859205061796C6F61643A200085
:1000C00053656E742000206279746573206F66201A
:1000D0004672616D65205061796C6F61643A2042AF
:1000E00061736536342D6465636F6465642068658B
:1000F0007861646563696D616C20737472696E67A1
:10010000207061796C6F61643A0053656E742000F1
:1001100045565F545853544152540045565F4C491C
:100120004E4B5F414C4956450045565F4C494E4B3E
:100130005F444541440045565F5258434F4D504C33
:100140004554450045565F52455345540045565F5A
:100150004C4F53545F5453594E43004261736536BC
:10016000342D6465636F64656420686578616465D7
:1001700063696D616C20737472696E672070617958
:100180006C6F61643A2000206279746573206F6639
:10019000207061796C6F61643A2000526563656913
:1001A00076656420005265636569766564206163E5
:1001B0006B0045565F5458434F4D504C45544520B5
:1001C00028696E636C756465732077616974696E04
:1001D0006720666F722052582077696E646F77735C
:1001E000290045565F52454A4F494E5F4641494CAA
:1001F00045440045565F4A4F494E5F4641494C458C
:10020000440045565F4A4F494E45440045565F4AB3
:100210004F494E494E470045565F424541434F4E78
:100220005F545241434B45440045565F424541436C
:100230004F4E5F4D49535345440045565F4245413B
:10024000434F4E5F464F554E440045565F53434122
:100250004E5F54494D454F5554004F505F545852CE
:100260005850454E442C206E6F742073656E64693F
:100270006E67005061636B657420717565756564A8
:1002800000000000002300260029000305020501EC
:100290000602020500000600000105040400040037
:1002A000000002000000010000800000004000008B
:1002B00000200000002020200E11140C0F12090C49
:1002C0000F06090C03060900030613110F0D0B0995
:1002D00007052A7C0C64EC4CEC8B2A7C0C64EC4CFF
:1002E000EC8B40404080EBEB080A0C0D0E10121412
:1002F00015181A1B1D1E2124FF060504030201FF09
:10030000C0400000000000250028002B0000000075
:1003100008000201000003040700000000000000C4
:100320000000000000240027002A00010204081039
:10033000204080010204081020010204081020045B
:10034000040404040404040202020202020303037C
:100350000303035374617274696E67000000000048
:100360006700CC00B80154039D071561354576A0A0
:100370005E2B0DB920DA6FF3E3E1637C777BF26BE0
:100380006FC53001672BFED7AB76CA82C97DFA599B
:1003900047F0ADD4A2AF9CA472C0B7FD9326363F00
:1003A000F7CC34A5E5F171D8311504C723C31896ED
:1003B000059A071280E2EB27B27509832C1A1B6E8F
:1003C0005AA0523BD6B329E32F8453D100ED20FC31
:1003D000B15B6ACBBE394A4C58CFD0EFAAFB434D34
:1003E000338545F9027F503C9FA851A3408F929DD1
:1003F00038F5BCB6DA2110FFF3D2CD0C13EC5F97C1
:100400004417C4A77E3D645D197360814FDC222AC6
:10041000908846EEB814DE5E0BDBE0323A0A4906FD
:10042000245CC2D3AC629195E479E7C8376D8DD571
:100430004EA96C56F4EA657AAE08BA78252E1CA649
:10044000B4C6E8DD741F4BBD8B8A703EB5664803A9
:10045000F60E613557B986C11D9EE1F8981169D92C
:100460008E949B1E87E9CE5528DF8CA1890DBFE6AF
:10047000426841992D0FB054BB16A02611241FBE0F
:10048000CFEFD8E0DEBFCDBF25E0A6EEB2E001C0E1
:100490001D92A234B207E1F712E0A0E0B1E0E4E17E
:1004A000FCE502C005900D92A63EB107D9F712E017
:1004B000CEE3D2E004C02197FE010E94272ACD336B
:1004C000D107C9F70E94D3260C94082E0C94000083
:1004D000FC0120E1215008F4089580E02111818180
:1004E0009191990F87FD9160DF0111979C93F2CF55
:1004F000AF92BF92CF92DF92EF92FF920F931F9332
:10050000CF93DF936C017B018B01040F151FEB016F
:100510005E01AE18BF08C017D10759F06991D60126
:10052000ED91FC910190F081E02DC6010995892B98
:1005300079F7C501DF91CF911F910F91FF90EF9057
:10054000DF90CF90BF90AF900895FC01538D448D04
:10055000252F30E0842F90E0821B930B541710F06E
:10056000CF96089501970895FC01918D828D98177B
:1005700061F0A28DAE0FBF2FB11D5D968C91928D53
:100580009F5F9F73928F90E008958FEF9FEF089584
:10059000FC01918D828D981731F0828DE80FF11D4D
:1005A000858D90E008958FEF9FEF0895FC01918D68
:1005B000228D892F90E0805C9F4F821B91098F7361
:1005C000992708958DE994E00E94D60221E0892BB5
:1005D00009F420E0822F089580E090E0892B29F033
:1005E0000E94E20281110C9400000895FC01A48D88
:1005F000A80FB92FB11DA35ABF4F2C91848D90E045
:1006000001968F739927848FA689B7892C93A08927
:10061000B1898C91837080648C93938D848D9813B1
:1006200006C00288F389E02D80818F7D8083089544
:10063000EF92FF920F931F93CF93DF93EC0181E032
:10064000888F9B8D8C8D98131AC0E889F9898081D9
:1006500085FF15C09FB7F894EE89FF896083E8890C
:10066000F98980818370806480839FBF81E090E0FE
:10067000DF91CF911F910F91FF90EF900895F62E8B
:100680000B8D10E00F5F1F4F0F731127E02E8C8D25
:100690008E110CC00FB607FCFACFE889F98980816A
:1006A00085FFF5CFCE010E94F602F1CFEB8DEC0F66
:1006B000FD2FF11DE35AFF4FF0829FB7F8940B8F87
:1006C000EA89FB8980818062CFCF0F931F93CF93FC
:1006D000DF938C01D0E0C0E0F801EC0FFD1F6491C6
:1006E000662341F08DE994E00E941803892B11F0F4
:1006F0002196F2CFCE01DF91CF911F910F910895F6
:10070000CF93DF93EC01888D8823B9F0AA89BB8948
:10071000E889F9898C9185FD03C0808186FD0DC033
:100720000FB607FCF7CF8C9185FFF2CF808185FF54
:10073000EDCFCE010E94F602E9CFDF91CF9108956F
:10074000833081F028F4813099F08230A9F0089547
:100750008730A9F08830C9F08430B1F480918000EE
:100760008F7D03C0809180008F77809380000895F3
:1007700084B58F7784BD089584B58F7DFBCF80913C
:10078000B0008F778093B00008958091B0008F7D86
:10079000F9CF1F93CF93DF93282F30E0F901E35F68
:1007A000FC4F8491F901E55DFC4FD491F901E15CC6
:1007B000FC4FC491CC23A9F0162F81110E94A003F5
:1007C000EC2FF0E0EE0FFF1FED5FFC4FA591B49111
:1007D0008FB7F894EC91111108C0D095DE23DC930B
:1007E0008FBFDF91CF911F910895DE2BF8CFCF936C
:1007F000DF9390E0FC01E55DFC4F2491815C9C4F10
:10080000FC0184918823D1F090E0880F991FFC01AE
:10081000EF5DFC4FA591B491FC01ED5FFC4FC591DC
:10082000D49161110EC09FB7F8948C91E22FE0959E
:100830008E238C932881E223E8839FBFDF91CF91A1
:1008400008958FB7F894EC91E22BEC938FBFF6CF1D
:100850003FB7F8948091000390910103A0910203A7
:10086000B091030326B5A89B05C02F3F19F0019650
:10087000A11DB11D3FBFBA2FA92F982F8827BC01FA
:10088000CD01620F711D811D911D42E0660F771F22
:10089000881F991F4A95D1F708950F931F936115EB
:1008A000710581059105F9F00091720310917303B0
:1008B0002091740330917503DC01CB01800F911FEF
:1008C000A21FB31F8093720390937303A0937403CA
:1008D000B09375038091760390917703019690937E
:1008E0007703809376031F910F910895FC01208177
:1008F00031812115310519F490E080E00895261723
:10090000370749F4FB0120813181FC0131832083C9
:1009100081E090E00895C901E9CF803660F5282F85
:1009200022952F7030E0220F331FF901EA55FC4F5A
:10093000408151818F7061E070E002C0660F771FC7
:100940008A95E2F7CA0186239723892B91F4809137
:10095000BE039091BF0301969093BF038093BE03A3
:1009600081E02A553C4F462B572BF9015183408398
:10097000089580E0F6CF80E00895803670F5282F46
:1009800022952F7030E0220F331FF901EA55FC4FFA
:10099000608171818F7041E050E002C0440F551FAB
:1009A0008A95E2F7CA0186239723892BA1F08091CB
:1009B000BE039091BF0301979093BF038093BE0342
:1009C00081E02A553C4F4095509546235723F90125
:1009D00051834083089580E0F4CF80E00895FC01C6
:1009E00090E080E06115710509F40895219131913D
:1009F000A9015695479545755575241B350BA901D9
:100A00004373537336952795369527952373337320
:100A1000240F351FA901407F507F2F703F70A4E045
:100A2000220F331FAA95E1F7240F351FA90155277F
:100A3000232F3327240F351F820F931F6150710915
:100A4000D1CF982F6038C1F08091D7036817A1F0FB
:100A50006093D70381E02091D803291761F0909328
:100A6000D8038091C4039091C50398609093C50307
:100A70008093C40381E0089580E0EDCF2091C80306
:100A80003091C90320383F4F21F09093C9038093E0
:100A9000C8030895982F80911504E09114048823C9
:100AA00061F0EF30A0F481E08E0F80931404F0E049
:100AB000EA5EFB4F908381E00895E43348F481E0DF
:100AC0008E0F80931404F0E0E052FC4FF3CF80E0EF
:100AD0000895CF93DF93C62FD09114040E944A0546
:100AE000811106C0D093140480E0DF91CF91089566
:100AF0008C2F0E944A058823A9F381E0F6CF10923B
:100B00004E0410924F0480E294E4AEE1BEE1809383
:100B1000A2039093A303A093A403B093A5038FEF24
:100B200080934D040895FC016081718182819381DD
:100B30000895682F8DE994E00E94180390E080E00A
:100B40000895F8948091EA028F5F8093EA020895F5
:100B50000E94A105FFCFEF92FF921F93CF93DF93E7
:100B60008C3030F067EA70E08CE391E00E94A805D9
:100B7000880F880F880F98E0980FC82FD0E010E0FA
:100B8000E92EF12CCE15DF053CF0812FDF91CF91BE
:100B90001F91FF90EF9008958C2F0E94BD04182B99
:100BA0002196F0CFEF92FF921F93CF93DF93880FA0
:100BB000880F880F98E0980FC82FD0E010E0E92E3A
:100BC000F12CCE15DF053CF0812FDF91CF911F91E5
:100BD000FF90EF9008958C2F0E948D04182B219682
:100BE000F0CF0F931F930E942804AB01BC0120910A
:100BF000E602DC01CA013CE1B695A7959795879579
:100C00003A95D1F782278870820F8093E602E4E05C
:100C10007695679557954795EA95D1F79B01382BBF
:100C2000C901BA011F910F910895AF92BF92CF925F
:100C3000DF92EF92FF920F931F93CF93DF938091F8
:100C4000EA0281508093EA02811169C0789407EE2C
:100C500012E0D0E0C0E0BB24B394E0913903F091FE
:100C60003A03EC0FFD1F23812F3F09F451C0F80117
:100C7000D080ED2CF12C30E0F901E35FFC4F849142
:100C8000F901E55DFC4FC490F901E15CFC4FA490D3
:100C9000AA2009F44FC081110E94A003EA2DF0E0C0
:100CA000EE0FFF1FEF57FD4FA591B491EC91CE22AF
:100CB00031E020E009F430E0832F922FE816F906A6
:100CC00039F1DB24F801D082DD2011F1CE01880F4B
:100CD000991F880F991F9C01235D3C4F7901F901F1
:100CE00080819181A281B381892B8A2B8B2B81F406
:100CF0000E94F105611571058105910521F461E0FE
:100D000070E080E090E0F7016083718382839383D9
:100D100021960F5F1F4FC330D10509F09ECFDF91A1
:100D2000CF911F910F91FF90EF90DF90CF90BF90E8
:100D3000AF90089590E080E0C1CFCF93DF93EC01B6
:100D40000E94A10580916C0390916D03A0916E03A8
:100D5000B0916F03892B8A2B8B2B31F58BE994E0B3
:100D60006AE673E00E94760410926B0310926A03A5
:100D700010926C0310926D0310926E0310926F0329
:100D8000D0937103C0937003E0919B04F0919C0495
:100D9000ABE9B4E0309759F48AE693E08D939C93E5
:100DA000DF91CF910C94150689E994E0D9CFDF014A
:100DB0000190F081E02DEECFCF92DF92EF92FF9283
:100DC0000F931F93CF93DF93EC016A017B0189019D
:100DD000C114D104E104F10421F4C12CD12C760119
:100DE000C3940E94A1058A819B81AC81BD81892B1E
:100DF0008A2B8B2B89F58BE994E0BE010E94760447
:100E000019821882CA82DB82EC82FD821F830E83E4
:100E1000E0919904F0919A0429E934E0309779F04F
:100E200082819381A481B5818C199D09AE09BF0986
:100E3000181619061A061B0694F4F983E883F901BB
:100E4000D183C083DF91CF911F910F91FF90EF90DD
:100E5000DF90CF900C94150689E994E0CECF9F01E6
:100E60000190F081E02DDACF4F925F926F927F92E6
:100E70008F929F92AF92BF92CF92DF92EF92FF92AA
:100E80004B015C010E94F105A5019401261B370B63
:100E9000480B590BDA01C901B7FF14C06627772741
:100EA000CB01621B730B840B950BFF90EF90DF90CF
:100EB000CF90BF90AF909F908F907F906F905F90FA
:100EC0004F900895833332E09307A105B1057CF17B
:100ED0000E9428042B013C0148E0C42ED12CE12CB7
:100EE000F12C0E9428046419750986099709683E47
:100EF000734081059105A8F341E0C41AD108E108C7
:100F0000F10858EE450E53E0551E611C711CC114CA
:100F1000D104E104F10429F70E94F105A50194012F
:100F2000261B370B480B590BDA01C901CBCF18161A
:100F300019061A061B0664F424E0880F991F2A95E7
:100F4000E1F7880F991F880F991F05970197F1F70F
:100F500060E070E0CB01A9CFCF92DF92EF92FF92D9
:100F6000A0912303B0912403682F6170ED91FC914F
:100F700011970190F081E02DCD0109956B017C0165
:100F8000C114D104E104F10461F00E94F1056C0D7B
:100F90007D1D8E1D9F1DFF90EF90DF90CF900C94D4
:100FA0003407FF90EF90DF90CF900895982FE09155
:100FB0003903F0913A0381818F3F39F061E0268156
:100FC000291301C060E00C94C903089581E00895DD
:100FD00080E00895089560E070E0CB010895EBE4AF
:100FE000F3E084819581948396819583978196839C
:100FF0008783808592859087828781859385918775
:101000008387878596859787958596879485958725
:1010100084870895CF932BE433E0BC01605F7F4F5A
:10102000DC01F90140E0CD9150815C2750834F5F96
:1010300034964430C1F72F5F3F4F049686179707C9
:1010400079F7CF910895FC0101900020E9F73197DD
:10105000AF01481B590BBC018DE994E00C94780258
:1010600084E791E00C942308CF93DF930E946503FB
:10107000EC010E9430088C0F9D1FDF91CF910895E5
:101080008F929F92AF92BF920F931F93CF93DF9354
:10109000CDB7DEB7A1970FB6F894DEBF0FBECDBFB8
:1010A00019A2423008F44AE08E010F5D1F4F842ED2
:1010B000912CB12CA12CA50194010E94E629E62FC8
:1010C000B901CA01EA30F4F4E05DD801EE938D0174
:1010D000232B242B252B79F790E080E0109719F033
:1010E000CD010E942308A1960FB6F894DEBF0FBE73
:1010F000CDBFDF91CF911F910F91BF90AF909F9087
:101100008F900895E95CE1CF0F931F93CF93DF9306
:1011100000D000D0CDB7DEB7DB011C969C911C97A8
:101120001E963C911E971F962C911F971D964C91D1
:101130001D9749833A832B839C83BE016B5F7F4F4E
:101140009E012F5F3F4FF90111919F01412F429561
:101150004F70F0E14F9FA0011124E12FEF70E40FD9
:10116000F52FF11DE658FC4F9491A901415051090A
:10117000FA0190832617370731F791E05BE1813060
:1011800039F0492F440F97FD45278150942FF7CF11
:101190008981982799838D0194E0FE013196A801F9
:1011A000DA018D91AD0161918627BD016150710910
:1011B000DB018C93BF0161507109DB018C93E21755
:1011C000F30771F791500C5F1F4F9111E6CF0F900D
:1011D0000F900F900F90DF91CF911F910F91089575
:1011E0003F924F925F926F927F928F929F92AF92B7
:1011F000BF92CF92DF92EF92FF920F931F93CF9304
:10120000DF93CDB7DEB768970FB6F894DEBF0FBE99
:10121000CDBF8C012BE4C22E23E0D22EAC01405F67
:101220005F4FC6017801FC01D70120E03D9130837A
:101230002F5F34962430D1F724E0E20EF11C0196A2
:101240004E155F0581F7ABE3B3E0FE0131968BE409
:1012500093E05E2E6F2E2D9121938A179B07D9F76D
:10126000852D962D0E940A08442443948FE4A82ECD
:1012700083E0B82E4E0139E1830E911C9BE1392E9B
:101280008BE493E024E0DC01712CEC914E2F42952D
:101290004F7030E1439FA0011124EF70E40FF52F50
:1012A000F11DE658FC4FE491EC937394149654E0CE
:1012B0007512EBCF215001962111E5CF0E94EF0767
:1012C000EBE4F3E0CE014596BE016F5E7F4F9F01D8
:1012D000D9015C91DC015D93CD01452F440F57FD91
:1012E00083C0DB014C932C5F3F4F6F5F7F4F8816AD
:1012F000990671F78E89398938272F89688D9A89DF
:1013000092279627432F492741934D895B8994273C
:10131000952793839C898627842785278927878318
:101320002427292732273387AE16BF0659F6652DA5
:10133000762D842D0E948408852D962D0E940A0802
:101340004394BAE04B129CCF8BE493E0DC0140E085
:10135000EC912E2F22952F7050E1259F90011124A2
:10136000EF70E20FF32FF11DE658FC4FE491EC9380
:101370004F5F1496443061F77A9401967110E6CF6E
:101380000E94EF07652D762D8AE00E948408852D46
:10139000962D0E940A08D801F60180E090819D9365
:1013A0008F5F34968430D1F78FEFC81AD80A0C5F5C
:1013B0001F4FE016F10679F768960FB6F894DEBF76
:1013C0000FBECDBFDF91CF911F910F91FF90EF9096
:1013D000DF90CF90BF90AF909F908F907F906F9055
:1013E0005F904F903F90089543257BCFE091CF03CE
:1013F000A091D303A770B0E020E43DE043E050E0CB
:101400000E944A2A60527F458C4C914E60938A0319
:1014100070938B0380938C0390938D0380914E0483
:10142000E53090F4E81BE63008F0E5E0E093CF0308
:10143000F0E0E750FD4FE491F0E0EF77E068F093E3
:10144000C303E093C2030895E5E0ECCF4F925F92AF
:101450006F927F928F929F92AF92BF92CF92DF92C4
:10146000EF92FF920F93CF93DF9300D000D000D084
:10147000CDB7DEB76B017C015E834D83277084E0BE
:10148000289FF0011124E356FD4F85919591A59178
:10149000B49189839A83AB83BC8340907E03509040
:1014A0007F03609080037090810360916703709167
:1014B00068036115710531F0673091E0790710F02C
:1014C00066E071E090E080E0A70196010E94552A55
:1014D00000E10E943E2B49015A0129813A814B814A
:1014E0005C81220F331F441F551FC501B401660FD5
:1014F000771F881F991F620F731F841F951F6458E1
:101500007F4F8F4F9F4F0E94082A2A5F3F4F43E82B
:101510005FEF6FEF7FEF481959096A097B092115C1
:10152000A4E03A07B8F18FEF93E09093CE03809355
:10153000CD03C40ED51EE61EF71E4C0C5D1C6E1CA2
:101540007F1C4092820350928303609284037092C6
:101550008503B301A20141575240610971092D81F0
:101560003E818AE693E026960FB6F894DEBF0FBE62
:10157000CDBFDF91CF910F91FF90EF90DF90CF9093
:10158000BF90AF909F908F907F906F905F904F90A3
:101590000C94DC063093CE032093CD03CACFCF92B8
:1015A000DF92EF92FF922091480430E0A4E2B4EF82
:1015B0000E94342A6B017C010E94F6092091CF031E
:1015C00046EF55E2C701B601FF90EF90DF90CF9054
:1015D0000C94260A0E94F6092091CF034AEF55E2A7
:1015E00064EB74EC84E090E00C94260AE82FF0E0C1
:1015F000E850FD4FE491EF3F09F0815008958F923C
:101600009F92AF92BF92DF92EF92FF920F931F9340
:10161000CF93DF93D82EEB018A01E22EE0913903BC
:10162000F0913A03F08080849184A284B384811481
:101630009104A104B10439F420E4822E22E4922E14
:101640002FE0A22EB12C40E052E16AE770E080E08A
:1016500084169506A606B70640F4769567955795C5
:1016600047958F5F8630A1F787E0982F906A96950F
:10167000809581709CBD8DBD60E08F2D0E94C90357
:10168000DEBC00000DB407FEFDCF8EB50C0F1D1F94
:10169000C017D10771F080E0E11001C088818EBDD4
:1016A00000000DB407FEFDCF8EB5E11088832196B2
:1016B000EFCF61E08F2DDF91CF911F910F91FF90C0
:1016C000EF90DF90BF90AF909F908F900C94C903E4
:1016D000CF93DF931F92CDB7DEB721E041E050E01A
:1016E000BE016F5F7F4F0E94FF0A89810F90DF91DB
:1016F000CF910895CF93DF931F92CDB7DEB7698363
:1017000020E041E050E0BE016F5F7F4F80680E94A3
:10171000FF0A0F90DF91CF910895CF93C82F62E019
:1017200082E00E947A0B60E883E00E947A0B61E01D
:1017300084E00E947A0B69E985E00E947A0B62E1FD
:1017400087E20E947A0B60EDC11168ED80E30E9490
:101750007A0B60E481E30E947A0B61EC88E20E94DC
:101760007A0B64E989E20E947A0B61EC8AE2CF91FC
:101770000C947A0B0F931F93CF93DF93C091D103F7
:10178000C4310CF040C0CE30CCF1C2310CF0C1E11C
:1017900061E0809123039091240300918A031091CA
:1017A0008B0320918C0330918D03DC01ED91FC9132
:1017B0000084F185E02D4C2F0995813059F182305C
:1017C000E1F1CF301CF5CC301CF1C067D7E014E05C
:1017D0006C2F89E00E947A0B8DE40E94680B887F51
:1017E000682F612B8DE40E947A0B6D2F60628BE075
:1017F000DF91CF911F910F910C947A0BCC3F0CF499
:10180000CCEF60E0C6CF62E0C4E1C3CFCEE0DDCF75
:10181000CC5FDCCF8091C203877011F4CB305CF0D9
:10182000C2302CF4C2E0C250C068DBE0D0CFC2317D
:10183000D4F3C1E1F8CFCBE0F6CFD0E117E0CFE8A9
:10184000C7CFAF92BF92CF92DF92EF92FF920F93EA
:101850001F93CF93DF9380918A0390918B03A09184
:101860008C03B0918D039C01AD0160E070E080E0DD
:1018700090E003E10E94252BA12CE8E4BE2EF8EEB7
:10188000CF2EDD24D394E12CF12C00E010E00E9457
:10189000912AC22FB32E6A017B01182FD92F00E1A4
:1018A0000E94402B622F86E00E947A0B2C2F3B2D4A
:1018B000A601B701812F9D2F08E00E94402B622FC7
:1018C00087E00E947A0B6C2F88E0DF91CF911F9107
:1018D0000F91FF90EF90DF90CF90BF90AF900C945E
:1018E0007A0B1F93CF93DF936091C2037091C30370
:1018F000162F1770CB0133E0969587953A95E1F74F
:10190000D82FD370D13059F008F466C0D23009F422
:1019100065C066EC71E087E791E00E94A805C0E829
:10192000CB0125E0969587952A95E1F78370823063
:1019300009F458C0833009F457C0813009F450C00D
:10194000C260672F77276115710521F0C16082E2BF
:101950000E947A0B6C2F8DE10E947A0B6091CE036E
:10196000637060598FEF810F8295807F680F80913F
:10197000C20387FF64608EE10E947A0B8BEF810FB8
:10198000823010F4DD2391F1163011F4D13071F171
:1019900064E086E20E947A0BC0E063E0D23081F41A
:1019A00080918A0390918B03A0918C03B0918D0359
:1019B000CFE781349D4DAA44BF4108F0C4E662E000
:1019C00086E30E947A0BCC2399F06C2F8AE3DF9197
:1019D000CF911F910C947A0BC0E7A2CFC0E9A0CFA2
:1019E000C460AFCFC660ADCFC860ABCF6CE0D1CF25
:1019F000DF91CF911F910895CF93DF93D82FC82FF8
:101A0000C77019F081E00E94AC076D2F81E00E9441
:101A10007A0BC11105C080E0DF91CF910C94AC0727
:101A2000DF91CF91089580918A0390918B03A091CB
:101A30008C03B0918D0381349D4DAA44BF4118F4AD
:101A400088E00C94FC0C80E0FCCF80918A0390919C
:101A50008B03A0918C03B0918D0381349D4DAA44DA
:101A6000BF4118F488E80C94FC0C80E8FCCFCF93BD
:101A7000C82F81E00E94680B887F8C2BCF910C943B
:101A8000FC0CCF92DF92EF92FF92CF93DF93D82F8F
:101A90000E94250D81E00E94680B87FD06C06BE95E
:101AA00073E087E791E00E94A80581E00E94370D6E
:101AB000D23009F07CC06AE08DE10E947A0B60E7C9
:101AC0008EE10E947A0B63E28CE00E947A0B60E464
:101AD00083E20E947A0B80919704882309F46CC0FA
:101AE00083E30E94680B682F6F7B83E30E947A0B6D
:101AF0008091C2039091C30323E0969587952A9520
:101B0000E1F7C82FC37081E30E94680B8877682FC4
:101B10006360C23008F056C081E30E947A0B60E433
:101B20008FE20E947A0B60E480E30E947A0B60915E
:101B3000CD038FE10E947A0B64E389E30E947A0B64
:101B40006CE080E40E947A0B6FEF82E10E947A0BD6
:101B5000ED2FF0E0E050FD4F6491609581E10E942F
:101B60007A0B80E00E94D60760E08DE00E947A0B3D
:101B700060E08FE00E947A0BD11128C0609182034F
:101B80007091830380918403909185030E943407B0
:101B90006B017C0186E00E94370DC701B601DF9121
:101BA000CF91FF90EF90DF90CF900C944D040E9466
:101BB000710C0E94210C87CF83E30E94680B682F71
:101BC000606493CF682F636881E3AFCF85E0DF91D6
:101BD000CF91FF90EF90DF90CF900C94370DCF9284
:101BE000DF92EF92FF92CF93C82F81E00E94680BA3
:101BF000877069E274E0C1F48091C203877009F0D4
:101C000060C0C13041F410925604809170039091ED
:101C100071030E949D060E94130D81E00E94680BD3
:101C200087FF06C062E074E087E791E00E94A805A4
:101C300081E00E94370D0E94210C63E28CE00E943B
:101C40007A0B6EE18DE00E947A0B6BE082E10E94DC
:101C50007A0B62E183E10E947A0B6AEA8FE10E94CB
:101C60007A0B6FEF81E20E947A0B81E00E948D0B6C
:101C700068E380E40E947A0B80E00E94D607C111DD
:101C800018C06091820370918303809184039091C6
:101C900085030E9434076B017C0185E00E94370DAB
:101CA000C701B601CF91FF90EF90DF90CF900C94D9
:101CB0004D0485E0CF91FF90EF90DF90CF900C9492
:101CC000370D8C2FCF91FF90EF90DF90CF900C9439
:101CD000410D40E150E06AE673E08BE393E00C9441
:101CE000A9298FEF9FEF9093A7038093A60390936A
:101CF000A9038093A8039093AB038093AA039093C6
:101D0000AD038093AC038FEF90E09093AF0380938B
:101D1000AE03E2EBF3E08CE0DF011D928A95E9F778
:101D200080E690E09093BF038093BE038FEF809393
:101D3000D30308956F927F928F929F92AF92BF923A
:101D4000CF92DF92EF92FF920F931F93CF93DF9387
:101D5000CDB7DEB760970FB6F894DEBF0FBECDBF2C
:101D60007B018A01282F30E0277F2230310549F09E
:101D70002430310509F4CBC0232B09F09FC0D12CAE
:101D800098C083FD32C08BEE92E00E94F00890E193
:101D9000692EFE0131966F012BEF822E22E0922EEA
:101DA00037E8732E0115110509F060C06091EB0250
:101DB0007091EC028091ED029091EE020E942D2A2A
:101DC00060960FB6F894DEBF0FBECDBFDF91CF9106
:101DD0001F910F91FF90EF90DF90CF90BF90AF9049
:101DE0009F908F907F906F900895EBEEF2E080E1EE
:101DF000DF011D928A95E9F7CACF01151105E9F5B2
:101E0000E62FF0E0E551FD4F80818058808311E09E
:101E1000D601E62D1D92EA95E9F7C6010E94F00869
:101E20000981C6010E94680207FF03C088898725CF
:101E3000888B112349F01981C6010E94680217FF9F
:101E400003C088898725888BF601D5018D915D01B6
:101E50009191119789278C938A149B04B1F710E014
:101E600000E08BEE92E00E94F0089CCF8BEEA82E53
:101E700082E0B82ED701950160E0F90181919F01C0
:101E80009D91AF01415051098927FA0180836F5F0D
:101E90007D0101501109603109F0AFCF0115110525
:101EA00001F710E0B5CF8E0D9F1D0E94F008B0E144
:101EB000DB0E8D2D90E080179107A8F360E070E0B5
:101EC000CB017ECF80E1EBEEF2E0DE0111960190D6
:101ED0000D928A95E1F7CE0101960E94F008FE016D
:101EE00031969701205F3F4F9191D7018C918927BF
:101EF0008D937D0101501109A217B30719F0011547
:101F0000110591F78091FA028F5F8093FA02011513
:101F10001105C1F6D3CF90910403911106C06CE86E
:101F200074E087E791E00E94A805903141F440E118
:101F300050E064E073E080E00E949A0E90E0E92FA8
:101F4000F0E0EC5FFC4F80819F5F90930403089565
:101F5000DF92EF92FF920F931F93CF93DF936FE285
:101F600070E0009729F08136910530F061E370E070
:101F70008AEA91E00E94A805C091D303D0E0CF3F48
:101F800011F4CFEFDFEFE6EAF3E022EB33E0DF011D
:101F900032961C968D919C911D974D915C91842356
:101FA0009523938782872E173F0789F766E070E0B5
:101FB00082EB93E00E94EF047C01892B09F08FC033
:101FC0008CE0E6EAF3E0A2EBB3E001900D928A9593
:101FD000E1F766E070E082EB93E00E94EF047C01A1
:101FE000009709F4DDC0419708F479C010E000E0E3
:101FF000CF3FDC0751F1C136D1050CF070C09E0116
:102000002F70332781E090E002C0880F991F2A9536
:10201000E2F7FE0144E0F595E7954A95E1F7EE0F0A
:10202000FF1FEE54FC4F208131818C0102231323CA
:1020300080959095822393239183808301151105C8
:1020400009F44FC070E1E71AF1080E948B0FD82EF7
:102050000E948B0F9D2DB70124E0769567952A95F8
:10206000E1F70E94BE2934E0880F991F3A95E1F705
:10207000E2EBF3E070E060E0219131912115310550
:1020800059F1A9015695479545755575D901A41B78
:10209000B50BAD0143735373B695A795B695A79548
:1020A000A373B3734A0F5B1FDA01A07FB07F4F7039
:1020B0005F7042955295507F5427407F54274A0FB6
:1020C0005B1FDA01BB27452F55274A0F5B1F84177B
:1020D000950780F0841B950B605F7F4FCDCF10E09C
:1020E00000E0CFEFDFEFB1CFA90141505109242328
:1020F000352340970097C1F744275527421B530BC0
:1021000042235323CA018575957521E030E0892B60
:1021100011F030E020E0CA0183739373892B09F436
:1021200047C090E080E0820F931F9A012F703F70AC
:10213000232B09F440C030E020E0820F931F30E0F1
:1021400020E0411102C028E030E0820F931F860F8B
:10215000971FFC0144E0F695E7954A95E1F7EE0FED
:10216000FF1FEE54FC4FAC014F70552721E030E0CB
:10217000B90102C0660F771F4A95E2F7AB012081D3
:1021800031812627352731832083CF3FDC07B1F407
:1021900097FD06C0803491050CF4885F8093D303CB
:1021A000DF91CF911F910F91FF90EF90DF900895F5
:1021B00082E090E0B8CF24E030E0BFCF24E0D595B6
:1021C000C7952A95E1F7CC0FDD1FCE54DC4F28814F
:1021D0003981022B132B19830883DACF8091960360
:1021E00090919703A0919803B0919903892B8A2B22
:1021F0008B2B09F04BC08091C4039091C5031092C2
:10220000D4038E7C977A9093C5038093C403109275
:1022100053041092DA030E947F058FEF8093D3035B
:102220008091BE039091BF030E94A80F0E94F10508
:1022300060937E0370937F03809380039093810368
:102240008091C4039091C50393FF06C064ED70E0D4
:102250008AEA91E00E94A8051092D803E0914D040B
:10226000EF3F91F0EF70F0E0E851FD4FE491E09323
:10227000D70384609093C5038093C4038CE993E2F1
:102280000E949D0681E00895E3E1F1CF80E008958A
:10229000CF92DF92EF92FF92CF93C82F0E948B0FC5
:1022A000F82E0E948B0F9F2D6C01853224EF920730
:1022B00020F024E2C21A24EFD20AF12CE12CCC2324
:1022C00069F06C2F0E94B229292F30E0A4E2B4EF0C
:1022D0000E94342AC60ED71EE81EF91EC701B60199
:1022E000CF91FF90EF90DF90CF900895CF92DF9243
:1022F000EF92FF926B017C01842F442331F00E9406
:102300004811C60ED71EE81EF91E8091D4038823FB
:10231000A9F080918E0390918F03A0919003B091CA
:102320009103A7019601281B390B4A0B5B0BDA01BD
:10233000C901181619061A061B068CF4C0928E03E2
:10234000D0928F03E0929003F09291038091C403A6
:102350009091C50391609093C5038093C403FF904F
:10236000EF90DF90CF900895AF92BF92CF92DF921F
:10237000EF920F931F93CF93DF93DC011A141B048A
:10238000A4F590E1EBEEF2E0EF01892F19928A9526
:10239000E9F7F1E0F093FA02F093EB02E092F00239
:1023A0004093F1025093F2026093F3027093F402AF
:1023B0000093F5021093F6022093F7023093F8028F
:1023C000FD01ABE3B3E001900D929A95E1F7A50111
:1023D000B60184E0DF91CF911F910F91EF90DF90D4
:1023E000CF90BF90AF900C949A0EDF91CF911F9138
:1023F0000F91EF90DF90CF90BF90AF9008951F9313
:10240000CF93DF93CDB7DEB72F970FB6F894DEBF2B
:102410000FBECDBF80E00E94370D0E94A1058091C4
:102420006C0390916D03A0916E03B0916F03892BA3
:102430008A2B8B2B09F047C08BE994E06AE673E0A6
:102440000E9476040E9415068FE0EBE5F3E0DE01C2
:10245000119601900D928A95E1F7EBE5F3E08EE39A
:1024600091E0DF019C011D9221503040E1F78FE0A7
:10247000FE013196ABE5B3E001900D928A95E1F74C
:102480000E948B0F182F0E948B0F912F9093C703E0
:102490008093C6031092C5031092C4031092D9030F
:1024A00080E880934B040E947F0581E0809348047C
:1024B0002F960FB6F894DEBF0FBECDBFDF91CF9140
:1024C0001F910C94710E89E994E0B8CFCF93DF93FC
:1024D000EC01409728F460E38DE994E00E94180332
:1024E000BE0190E080E040E1DF91CF910C94400884
:1024F0002F923F924F925F926F927F928F929F9214
:10250000AF92BF92CF92DF92EF92FF920F931F9301
:10251000CF93DF93CDB7DEB76C970FB6F894DEBFDD
:102520000FBECDBF998F888F3B0110921404452BAD
:1025300009F510921504F12CE12CE614F704F4F0DF
:10254000C7016C960FB6F894DEBF0FBECDBFDF910A
:10255000CF911F910F91FF90EF90DF90CF90BF90A0
:10256000AF909F908F907F906F905F904F903F9033
:102570002F90089581E080931504DDCFC88CD98C0D
:10258000CE0CDF1CF6012081223050F1422F425048
:10259000550BFA014231510518F5E557FD4FE4910D
:1025A0008E2F90E09D8B8C8B892B51F2C3018E195D
:1025B0009F09EC89FD898E179F070CF4C1CF22502B
:1025C000283080F4E22FF0E0E851FD4E0C94272AE9
:1025D000F312FB12BE1447141B14F212B014CF14E2
:1025E000E0E0DECF3701EC89FD89EE0DFF1D7301C0
:1025F00037017F01A2CFD60107E01B8A1A8A2A89F8
:102600003B892B5F3F4F49019C014A895B89241B11
:10261000350B253031050CF493C011962C91119790
:1026200012964D915C91139714963C9114973077C4
:10263000E22FE295EF70303558F0303509F078C070
:102640004115510509F47AC04427452B09F076C09D
:10265000E63030F4F0E0E750FD4FE491EF3F09F44D
:102660000D7F2F70283038F4E22FF0E0E653FD4F55
:10267000E491E03809F40B7F15962C91233009F48E
:1026800054C08CE0E6EAF3E0DE01119601900D9271
:102690008A95E1F78091BE039091BF039B8F8A8F4B
:1026A000412C10E0073009F077C09F8A8E8A16010E
:1026B00081E0412C10E0EE89FF8935970CF469C068
:1026C000F101A280B38011814480F42DF077F98B61
:1026D000F035D9F5512C852DA0FE34C00E94D205CD
:1026E0005394B694A79428E05212F5CF2091BE03DC
:1026F0003091BF034E895F89455051095F8B4E8BE6
:1027000055E0250E311C81E02115310509F480E0EA
:10271000A1014C195D09481559056CF2232BD9F11B
:10272000A12EA2948FE0A8223DC09B8A8A8A67CFFF
:10273000303609F489CF303709F482CF0E7F88CF45
:1027400000E09FCF0E94AB05CBCF8989803578F41C
:10275000805F8C8F5988FC8D5F1640F6852DA0FE1A
:1027600015C00E948D045394B694A794F4CF512CB5
:102770009989852D903639F40E948D045394E0E6B2
:102780005E12F6CFE8CF0E94BD04F8CF0E94BD04D0
:10279000EACF811101C006E0A12EA2947FE0A7221A
:1027A000073041F48091BE039091BF0307E0079783
:1027B00080F405E08CE0FE013196A6EAB3E00190DA
:1027C0000D928A95E1F72A8D3B8D3093BF032093BC
:1027D000BE03BB24B394D12CC12CC4018C199D0918
:1027E00005976CF0602F83E00E946905B82E35E0F4
:1027F000C30ED11CC814D90414F48111EECF0730D4
:1028000099F4842D8F709091D60389138093D60309
:102810001F7060E8183028F4E12FF0E0E653FD4F18
:1028200064918A2D0E9421054A895B89E40EF51E78
:10283000BB2001F1D8CE2091CC03022E000C330B2B
:10284000C901029697FD039695958795959587956D
:10285000182F1F734F970CF01FE110934A04D0906C
:1028600069030091140486E00E944A05811104C0A6
:1028700000931404F701BCCE8D2D0E944A058823D5
:10288000B9F3812F0E944A05882391F3ACCEC7018A
:102890000196E88DF98D8E0F9F1FFC012081122F6C
:1028A0001F7030E044E0359527954A95E1F7022FF7
:1028B00007700E949305272F382F492F5527A4E62C
:1028C000B0E00E944A2A4B015C01F0E88F1AF1EA5D
:1028D0009F0AF3E0AF0AFCE1BF0A21E082162AE575
:1028E000920622E6A20622E0B20618F060E070E04E
:1028F000CB0130EC30935004163050F4E12FF0E06F
:10290000E750FD4FE491EF3F19F042EC4093500443
:10291000611571058105910529F020915004216010
:1029200020935004043028F4209150042460209314
:10293000500420915004273C61F410934F0460939D
:10294000A2037093A3038093A4039093A503009321
:102950004E04622F677085E00E946905B82E68CF2B
:10296000F60181818F7009F481E080934804F2E0E0
:10297000F093520488E00E944A05F0CFF60181816D
:102980008F708093D4030E94F10560938E0370933F
:102990008F03809390039093910384E0ECCFF60132
:1029A00081818F7380934D0489E0E5CF8A3110F4E3
:1029B0008F5B089596EE980F9A3110F4895B089515
:1029C0009CEC980F9A3010F4845008958E3331F0B7
:1029D0008F3331F081E090E00E94082E8BE2089561
:1029E0008FE208952F923F924F925F926F927F9263
:1029F0008F929F92AF92BF92CF92DF92EF92FF920F
:102A00000F931F93CF93DF93CDB7DEB7C850D3405A
:102A10000FB6F894DEBF0FBECDBF7C010E94F1055A
:102A20004B015C014AE0B7FE0DC06DE28DE994E018
:102A30000E94180366277727CB01681979098A094C
:102A40009B094AE00E94400889EE91E00E94230819
:102A5000F7013197E431F10508F0EAC4EE5CFA4E73
:102A60000C94272A46154B154E155115541557151C
:102A7000181AF515F815FB15501653165616591653
:102A80005C16181A5F16121AD115151A8AE492E00C
:102A90000E94340886C08AE392E0FACF89E292E08D
:102AA000F7CF87E192E0F4CF8CE092E0F1CF82E0C3
:102AB00092E00E9434088090920390909303A0903B
:102AC0009403B0909503C0909603D0909703E09044
:102AD0009803F090990380E1E5E3F4E0DE011196BC
:102AE00001900D928A95E1F780E1E5E2F4E0DE01E4
:102AF000AF5FBD4F01900D928A95E1F784EE91E0B2
:102B00000E9423084AE0C501B4010E9440080E94C7
:102B100030088CEE91E00E94230840E1C701B60125
:102B20000E9440080E94300886EF91E00E9423082E
:102B30008E010F5F1F4FF12CE12CF80181918F0165
:102B400090E00E946612FFEFEF1AFF0A20E1E21602
:102B5000F10409F040C086E791E00E9423080E943A
:102B6000300882E092E00E9423088E010F5F1D4F23
:102B7000F12CE12CF80181918F0190E00E94661206
:102B8000FFEFEF1AFF0A20E1E216F10449F50E9477
:102B900030081092470480E89FEF9093C903809318
:102BA000C803C85FDC4F0FB6F894DEBF0FBECDBFC1
:102BB000DF91CF911F910F91FF90EF90DF90CF9019
:102BC000BF90AF909F908F907F906F905F904F904D
:102BD0003F902F90089580E092E00E942308ADCFAF
:102BE00080E092E00E942308C5CF83EF91E050CFB0
:102BF00082EE91E04DCF82EB91E00E94340880910B
:102C0000540487FF04C085EA91E00E943408809153
:102C100056048823B1F18BE991E00E94650360912D
:102C2000560470E090E080E04AE00E94400887E8A7
:102C300091E00E9465038BE591E00E94650310E03E
:102C400000E08091560480171106A9F0A4F0E091ED
:102C50005504C801855A9C4FE80FF92FF11DE45027
:102C6000FF4F608170E090E080E040E10E9440080A
:102C70000F5F1F4FE6CF85E791E00E9423080E9477
:102C800030080E94F105AB01BC0148595647664F18
:102C90007F4F22E130E285E293E00E94DC0681CFA3
:102CA0008DE491E0F5CE84E491E0F2CE86E391E00C
:102CB000EFCE89E291E0ECCE8BE191E0E9CE80E1CC
:102CC00091E00E94340870905604772009F469CF8F
:102CD000A090C203B090C3038A2D877006E0E02E57
:102CE000E80E950183E0369527958A95E1F72370E4
:102CF000C50135E0969587953A95E1F78370309058
:102D0000D703C0909E03D0909F0331E0C31AD1082F
:102D1000B5E0FB2E882351F0A6E0FA2E813031F089
:102D200017E0F12E823011F0F8E0FF2E222349F057
:102D3000EAEF9E2E213039F064EF962E882483949A
:102D400003C07DE7972E812CA0908A0360908B03AF
:102D500050908C0340908D030E94F1051F92BF920A
:102D6000DF92CF921F92FF928F929F921F923F927B
:102D70001F92EF921F927F924F925F926F92AF924B
:102D80009F938F937F936F938CE092E09F938F93A9
:102D90000E94742BF090D6030E94F1051F92FF92BF
:102DA0009F938F937F936F9389E592E09F938F9387
:102DB0000E94742B0FB6F894DEBF0FBECDBF8AE021
:102DC00091E00E9465036091DF0370E090E080E095
:102DD0004AE00E94400886EC90E00E946503F12CD6
:102DE000E12C8091DF038E151F04B1F0ACF0E0916F
:102DF0005504C701855A9C4FE80FF92FF11DEB5779
:102E0000FF4F608170E090E080E040E10E94400868
:102E10005FEFE51AF50AE5CF0E94300880EC90E0FC
:102E20000E9465036091560470E090E080E04AE003
:102E30000E94400888EA90E00E946503F12CE12C92
:102E4000809156048E151F04B1F0ACF0E09155044A
:102E5000C701855A9C4FE80FF92FF11DE450FF4F31
:102E6000608170E090E080E040E10E9440086FEFF8
:102E7000E61AF60AE5CF0E9430082091560487E54D
:102E800094E0CD5FDC4F99838883C350D34090E0BA
:102E900080E0CF5FDC4F19821882C150D340E22F0F
:102EA000F0E0C95FDC4FF983E883C750D340C95FC6
:102EB000DC4F28813981C750D340CF5FDC4F488138
:102EC0005981C150D340421753070CF05BC1CD5F0D
:102ED000DC4FE881F981C350D3402191CD5FDC4FB5
:102EE000F983E883C350D340022E000C330B6C01EE
:102EF0001CE0D594C7941A95E1F7892E992487FC94
:102F00009A948C249D24340162267326F1E06F226A
:102F100077247C014DE0F594E7944A95E1F72C0184
:102F2000452C550C550845944E245F24F901F59520
:102F3000E795E425F525EE0FFF1FE270FF27E62950
:102F4000F729DC01BB0FAA0BBB0FBA2FAA1F1C016C
:102F5000232C330C3308259425942A263B26A901DB
:102F6000559547955595479542255325440F551F2F
:102F7000440F551F447055274E0F5F1F092F001F28
:102F80000027001F10E03C01EBE075946794EA9580
:102F9000E1F7530161E0A622BB24A026B12623FB62
:102FA000772770F9CB5FDC4F7883C550D340CA5F79
:102FB000DC4F1882C650D340CB5FDC4FE881F981EB
:102FC000C550D340AE26BF26F3E0AA0CBB1CFA9531
:102FD000E1F74A0D5B1DB901E4E075956795EA9547
:102FE000E1F76C257D25F4E0660F771FFA95E1F790
:102FF00060717727460F571FF90165E0F595E79552
:103000006A95E1F7B4016E257F256E277F27E5E0FD
:10301000660F771FEA95E1F760727727640F751FD7
:10302000A901F6E055954795FA95E1F7F201EA27EF
:10303000FB274E275F27E6E0440F551FEA95E1F78F
:1030400040745527640F751F5101F1E0AF22BB2476
:10305000A026B1262227330F221F33272A253B25FE
:103060003695322F222737952795260F371FB30124
:10307000682779276170772760277127762F662761
:10308000620F731F9C0135952795C226D326DC2C31
:10309000CC24DD0CCC2422E0D2226C0D7D1DAC01B1
:1030A00055954795559547954E255F25542F4427AF
:1030B000550F550F44275470640F751FFC0143E0F2
:1030C000F595E7954A95E1F7EA27FB27FE2FEE27CE
:1030D000FF0FFF0FFF0FEE27F8706E0F7F1F9C0191
:1030E000E4E035952795EA95E1F78226932631E0CD
:1030F0008322992480269126982C88249294F0EF9C
:103100009F22680D791D9C01A5E035952795AA950C
:10311000E1F724253525322F22273295330F307ED3
:1031200022273072620F731FAC0126E05595479538
:103130002A95E1F74225532550E4459F502D442719
:10314000112444275074640F751F880F892F881F1E
:10315000990B8625972580279127992786959795FE
:103160008827860F971FCF5FDC4F48815981C15058
:10317000D3404F5F5F4FCF5FDC4F59834883C150CF
:10318000D34095CE9F938F939F938F9382E792E046
:103190009F938F930E94742B0091560410E00F9020
:1031A0000F900F900F900F900F900115110509F5DA
:1031B0001982C801837099278230910509F40AC1E8
:1031C000039709F41DC18E010F5F1D4FBE016F5F94
:1031D0007F4FC8010E946D2B1F930F9383EA92E0EB
:1031E0009F938F930E94742B0F900F900F900F90CE
:1031F000D8CCC80163E070E00E94D2294B01A2E064
:10320000CA2ED12C8130910539F0D12CC12C0297D6
:1032100019F4B3E0CB2ED12C7401EE0CFF1CEE0C94
:10322000FF1C87010C0D1D1D053551E015075CF6CF
:1032300068E574E0CF5FDC4F79836883C150D34089
:10324000CE0101965C01312C212C8214930409F4E7
:1032500055C0CF5FDC4FE881F981C150D340408039
:10326000512C542C4424052C000C660877088181CD
:10327000482AD301C20162E1B695A7959795879533
:103280006A95D1F78F730E94D614F5018083D3011C
:10329000C2017CE0B695A795979587957A95D1F769
:1032A0008F730E94D614F5018183D301C201E6E039
:1032B000B695A79597958795EA95D1F78F730E9454
:1032C000D614F5018283842D8F730E94D614F501E4
:1032D0008383FFEF2F1A3F0ACF5FDC4F28813981AC
:1032E000C150D3402D5F3F4FCF5FDC4F39832883E0
:1032F000C150D34034E0A30EB11CA7CFC114D104F8
:1033000041F4E1E0F0E0EC0FFD1FE00FF11F10824F
:1033100050CF42E0C416D10489F4E1E0F0E0EC0FB4
:10332000FD1FEE0DFF1D81E48083FE01EE0DFF1DEC
:103330008283FE01EE0DFF1D13823BCF53E0C516C5
:10334000D10409F036CFF401EE0FFF1FE80DF91D8F
:10335000E85AFB4F8080912C982C8824092C000C73
:10336000AA08BB08D501C40122E1B695A795979597
:1033700087952A95D1F78F730E94D614E1E0F0E08B
:10338000EC0FFD1FEE0DFF1D8083D501C4013CE055
:10339000B695A795979587953A95D1F78F730E9423
:1033A000D614FE01EE0DFF1D8283D501C40146E057
:1033B000B695A795979587954A95D1F78F730E94F3
:1033C000D614FE01EE0DFF1D8383FE01EE0DFF1DE1
:1033D0001482EFCE033561E016070CF0F4CEE1E085
:1033E000F0E0EC0FFD1FE00FF11F8DE38083FE0185
:1033F000E00FF11F8283FE01E00FF11F1382E3CE85
:10340000043571E0170709F4DECEE1E0F0E0EC0FDF
:10341000FD1FE00FF11F8DE38083FE01E00FF11F20
:103420001282D1CE8AE990E033CB88E790E030CBAE
:1034300088E690E00E946503B70190E080E04AE0F2
:103440000E9440080E943008ACCBCF92DF92EF92EE
:10345000FF92CF93DF93EC01C12CD12C7601C39462
:103460000C2E04C0CC0CDD1CEE1CFF1C0A94D2F701
:10347000E3FC03C0CE010E94F214D701C6018827E5
:103480009472AA27BB27892B8A2B8B2B01F1E09101
:103490005F03F09160033097D1F020915604409182
:1034A0005504211102C0442391F08091540450E04E
:1034B00060E084FF04C0DA01AA5ABB4F6C9130E08F
:1034C000495A5B4F80916103909162030995CC2426
:1034D00084E0D822E822FF24CD28CE28CF2819F175
:1034E000E0916303F09164033097E9F01092640374
:1034F00010926303C231D10541F18091540483FDE0
:1035000024C09091DE0361E0992339F0082E000C6D
:10351000990B692F661F6627661F70E0809165030F
:10352000909166030995E0915B03F0915C033097FD
:1035300071F0BE0180915D0390915E03DF91CF91A8
:10354000FF90EF90DF90CF90099460E0E6CFDF919D
:10355000CF91FF90EF90DF90CF9008952F923F9200
:103560004F925F926F927F928F929F92AF92BF9293
:10357000CF92DF92EF92FF920F931F93CF93DF933F
:103580008091CA038111F8C481E08093CA038BEE55
:10359000282E82E0382E90E1692E2FEC422E2AE070
:1035A000522E3AEE832E3AE0932E8091C4039091EE
:1035B000C5039C01217C3327232B81F44091960382
:1035C000509197036091980370919903452B462B76
:1035D000472BF1F482FD28C00E94EE108091CA03AF
:1035E00081508093CA038111E0CFDF91CF911F9169
:1035F0000F91FF90EF90DF90CF90BF90AF909F9092
:103600008F907F906F905F904F903F902F90089594
:1036100096FF0AC09F7B9093C5038093C4038CEFF1
:103620009FE10E949D06DACF0E94F1056B017C01AB
:10363000C091C403D091C503CE018C739927892B07
:1036400009F48FC4D3FF5EC18091BE039091BF0384
:10365000009711F00E94A80FC0927E03D0927F03C2
:10366000E0928003F09281038091C4039091C5039E
:10367000977F9093C5038093C403B701A6018091FF
:10368000D403811106C08091C4039091C50390FFBB
:1036900012C080918E0390918F03A0919003B091FE
:1036A00091038A019B01081B190B2A0B3B0B37FF67
:1036B00002C0AC01BD0121E7C20E22E0D21EE11C16
:1036C000F11CDB01CA018C199D09AE09BF09B7FFC6
:1036D00034C47090D803C472DD27CD2B09F422C105
:1036E0008091C403C091DA0385FD19C1109257047B
:1036F00048E050E06AED72E088E594E00E94A92974
:1037000048E050E062ED72E080E694E00E94A92972
:103710009091C6038091C7039093680480936904D5
:103720000E94690E43E150E067E574E08AE00E9480
:103730009A0E60936D0470936C0480936B04909365
:103740006A0487E1809356048091C6039091C70371
:1037500001969093C7038093C60390927103809261
:103760007003E72DF0E0E750FD4FE4918091D9031D
:1037700040E2849FC0011124EF798E2B9093C30304
:103780008093C2037092CF038091C4039091C503CC
:103790008F76967F806898609093C5038093C4036A
:1037A000A091D303A03670F5B0E020E43DE043E003
:1037B00050E00E944A2A8B019C01005A1A4C274F64
:1037C000334E0036EFE91E07E0E22E07ECE13E073C
:1037D00008F08EC2605A764A8340934E60938A0303
:1037E00070938B0380938C0390938D03E0914D0431
:1037F000EF3F09F4FBC2EF70F0E0E851FD4FE491B8
:10380000E093D0039091D7038091D00398170CF4E4
:10381000892F8093D10381E190E00E94251A1092B4
:103820007E0310927F03109280031092810381E047
:103830000E94680B877059F080E00E94370D0E944B
:10384000F105625C7F4F8F4F9F4F0E943407C090FD
:103850008603D0908703E0908803F09089031C14BE
:103860001D041E041F040CF0C3C281E00E94410D20
:1038700080918A0390918B03A0918C03B0918D036A
:10388000C3E6DFEF81349D4DAA44BF4110F4CCE57F
:10389000DFEFE0913903F0913A038781C80FD11D22
:1038A00087FDDA950E94F105615E7F4F8F4F9F4F34
:1038B0000E9434070E94F10510E0C60ED71EE81ED4
:1038C000F91E8BE10E94680B181708F4182F0E944C
:1038D000F1056C197D098E099F0997FDF2CF80E0F3
:1038E0000E94370D8091D203082E000C990BC10F56
:1038F000D11DC817D9070CF47BC280917003909139
:1039000071038FCE40917E0350917F0360918003BD
:1039100070918103B4CE872D0E94F60A782EC15093
:10392000D0F7E4CE80919A0390919B03A0919C03E1
:10393000B0919D0380389F4FAF4FBF4F18F08DE679
:1039400090E26FCE8091530481110DC080919E034F
:1039500090919F03A091A003B091A1038F3F9F4F2F
:10396000AF4FBF4F61F3E090C403F090C50388E10F
:10397000E822FF2490E1E916F10409F451C1A09076
:10398000DF038091DD03882309F44CC18091150485
:10399000882309F447C1C0901404CC2009F442C123
:1039A0000C2D10E0A80166E174E08FE594E00E9420
:1039B000642B085F1F4F109214041092150420917D
:1039C0005004222331F026FF30C180E428272093C1
:1039D000500420915104222331F026FF36C180E4A7
:1039E00028272093510480915204823009F03DC170
:1039F00081E080935204093111050CF058C1809187
:103A00004704882361F08091C8039091C90397FF10
:103A100004C090E080E00E943E0510924704CA2D49
:103A2000D0E02596F0E1EF16F10411F4C4E0D0E007
:103A3000C00FD11FC134D1050CF022C191E020E1AB
:103A4000E216F10409F490E0E091D803E63008F0C2
:103A50001AC1F0E0EE51FD4FE491EC171D0608F499
:103A600026C180E4809357048091450440914B0423
:103A7000482B2091C8033091C90337FD06C121525C
:103A80003109203B324008F400C120E488EF800F68
:103A9000842B822B80935C04409196033091970392
:103AA00020919803809199034093580430935904CE
:103AB00020935A0480935B0480915304811118C0B1
:103AC0002091DB03211114C040919E0350919F036C
:103AD0006091A0037091A1034F5F5F4F6F4F7F4FC5
:103AE00040939E0350939F036093A0037093A103A0
:103AF00020919E0330919F032150310920935D0452
:103B000030935E04109245049923D9F19091DE031D
:103B1000992309F4BCC090E890935704811103C025
:103B200081E080935304F801E95AFB4F8091DD0353
:103B30008083C801885A9B4F6C01B12CA50160EEAF
:103B400073E00E94642B00919E0310919F032091CB
:103B5000A0033091A10301501109210931094091BD
:103B60009603509197036091980370919903809107
:103B7000DD03811199C085E294E0F12CE12C0E94D3
:103B8000B4118E010450110980919E0390919F03FE
:103B9000A091A003B091A1030197A109B10950918F
:103BA0009603409197033091980320919903F10176
:103BB000662D11926A95E9F7E9E4E093EB02109221
:103BC000F0020093FA025093F1024093F202309314
:103BD000F3022093F4028093F5029093F602A093EF
:103BE000F702B093F802E5E2F4E0ABE3B3E0862D30
:103BF00001900D928A95E1F7A80167E574E082E0F3
:103C00000E949A0EF801E95AFB4F63837283818305
:103C10009083C09356045092710340927003A1CDDB
:103C2000A12CB4CE08E010E0C6CEC801855A9C4F46
:103C3000FC01E450FF4F35E0308383509F4F2770E5
:103C4000FC0120830E5F1F4FC4CEC801855A9C4FD4
:103C5000FC01E450FF4F3AE0308383509F4F2370C4
:103C6000FC0120830E5F1F4FBECE882309F4C3CE14
:103C7000F801E95AFB4F88E080830F5F1F4FBBCEEE
:103C8000E8012496E0CEE0E0E8CE20E0FFCE80918F
:103C9000D603882309F447CF8091DB03811143CFFA
:103CA00081E08093DB033FCF85E394E066CF88E03B
:103CB000809354048091DE03811104C080915304E9
:103CC000882319F028E4209354048091C403909130
:103CD000C50387769E7F9093C5038093C40310929B
:103CE0005604109255048AE090E00E94251A76CC82
:103CF0000036F9E01F07F9E32F07FCE13F0728F43E
:103D0000605A70418C41934E69CD003643E71407E9
:103D100041E524074CE1340728F4605A7A4784438C
:103D2000934E5CCD0036EDED1E07E9E62E07ECE183
:103D30003E0728F4605A744E8C44934E4FCD0036A3
:103D4000F7E41F07F2E82F07FCE13F0728F4605A69
:103D50007E448546934E42CD003641EB14074AE936
:103D600024074CE1340728F4605A784B8D47934E72
:103D700035CD0036EBE11E07E3EB2E07ECE13E0705
:103D800028F4605A72428649934E28CD0036F5E8F1
:103D90001F07FBEC2F07FCE13F0728F4605A7C4823
:103DA0008E4A934E1BCD00364FEE140743EE240788
:103DB0004CE1340728F4605A764F864C934E0ECD72
:103DC0000036E9E51E07ECEF2E07ECE13E0728F48C
:103DD000605A70468F4D934E01CD00938A03109325
:103DE0008B0320938C0330938D0300CDE3E108CD4A
:103DF0008091C203877009F06AC00E94130D81E0B0
:103E00000E94370D80E00E948D0B60E085E20E94E9
:103E10007A0B65E086E20E947A0B0E94210C0E94D8
:103E2000BA0B69E28AE00E947A0B64E380E40E94A4
:103E30007A0B609156046F5F82E30E947A0B609167
:103E4000560480E00E947A0B4091560450E020E036
:103E500067E574E080E80E94FF0A81E00E94D607CF
:103E600060917E0370917F03809180039091810324
:103E7000611571058105910531F10E9434076115C5
:103E8000710581059105F9F000917803109179038E
:103E900020917A0330917B03DC01CB01800F911FCD
:103EA000A21FB31F8093780390937903A0937A03A2
:103EB000B0937B0380917C0390917D030196909356
:103EC0007D0380937C0383E00E94370D87CB0E94A3
:103ED000250D81E00E94680B87FD06C061E273E05A
:103EE00087E791E00E94A80581E00E94370D0E94BB
:103EF000710C0E94210C68E08AE00E947A0B0E94FB
:103F0000BA0B64E389E30E947A0B6CE780E40E94B9
:103F10007A0B6FEF82E10E947A0B67EF81E10E94DA
:103F20007A0B60E08EE00E947A0B60E08DE00E94E8
:103F30007A0B6091560482E285CF8091C40381FFA1
:103F400005C0411551056105710589F04157524081
:103F50006109710920E130E28AE693E00E94DC0603
:103F60003DCB40E050E0BA01C1FDF0CF37CB41E09E
:103F700050E060E070E0EACF82E08093CA0335CB86
:103F80008091C4039091C50383FF35C01092DF0375
:103F900082FF2CC0877E9093C5038093C40382E187
:103FA00090E00E94251A8091C4039091C50385700A
:103FB0009927892B01F50E94A10580916C039091AE
:103FC0006D03A0916E03B0916F03892B8A2B8B2B0D
:103FD00079F48BE994E06AE673E00E9476040E942B
:103FE000150680E00E94370D0C94AE1A8776D3CF69
:103FF00089E994E0F0CF0895E4ECF3E080819181C9
:104000008E7D9F7B918380831092960310929703FD
:1040100010929803109299030E94C01F0C94EE1006
:104020000C94AE1A8091C4039091C50387FF04C01D
:104030008AE592E00C9434088C799927892BE1F475
:104040003091D8034091BE035091BF03832F90E07D
:104050004730510588F0863078F4FC01EE51FD4F71
:10406000E491EE2349F0EA3190F5FC01E650FD4F72
:10407000E4910196EF3F61F78091C4039091C503ED
:104080009C012C793327232BF9F42DE0E0E0F1E0BB
:10409000A0EEB3E001900D922A95E1F71092DE03B5
:1040A00021E02093DD032DE02093DF039C012860B5
:1040B0003093C5032093C40382FD04C010925304BF
:1040C0001092DB030E94AE1A83E792E0B3CF381759
:1040D00099F260E80E942105CFCF0E94C01F0E9484
:1040E000FF118CE090E00E94251A0C94EE10CF9303
:1040F0008091C4039091C50387779093C503809303
:10410000C4031092DB031092530420911404222361
:1041100051F030911504332309F466C08061909307
:10412000C5038093C4030E94F1056E5E75488F4FEE
:104130009F4F40E00E94761180915404877079F07F
:104140008091C4039091C50394FF09C09F7E909312
:10415000C5038093C4038FE090E00E94251A8AE093
:1041600090E00E94251A0E94AE1A8091C803909197
:10417000C9038197B4F18091D8030E94F60AC82F31
:104180002091BE033091BF038091D80327303105C1
:1041900008F4C82F8C1332C08091C8039091C903D2
:1041A000813F92404CF08091C4039091C50390648C
:1041B0009093C5038093C40363E18C2F0E94210573
:1041C0008091C4039091C5039C0130613093C50375
:1041D0002093C4032817390721F08EE090E00E9455
:1041E000251A81E0CF9108951092DE031092DD032D
:1041F0002093DF0310921404886091CFCC23E1F266
:1042000090E080E00E943E05D7CF80915304882340
:10421000B1F1883020F58F5F8093530480FF07C091
:104220008091D8030E94F60A60E80E9421056091FF
:10423000820370918303809184039091850343E00E
:104240000E9476118091C4039091C5038F7790935B
:10425000C5038093C4030E94AE1A81E0089580E6EE
:10426000809354048091C8039091C90301960E94E1
:104270003E0510925604109255040C9477208091BC
:10428000DB03882379F09091D603891758F48F5F68
:104290008093DB030E94F1056E5E75488F4F9F4F40
:1042A00040E0CECF80E2DCCF2F923F924F925F92E0
:1042B0006F927F928F929F92AF92BF92CF92DF9236
:1042C000EF92FF920F931F93CF93DF9300D000D014
:1042D00000D0CDB7DEB78091C40387FFE5C1F09071
:1042E0005604F1101AC026960FB6F894DEBF0FBE22
:1042F000CDBFDF91CF911F910F91FF90EF90DF9095
:10430000CF90BF90AF909F908F907F906F905F9075
:104310004F903F902F900C9405212F2D30E03E833D
:104320002D832C30310544F41092560480915404AE
:1043300080FFD9CF80E0B9C180915704982F937046
:1043400099F7807E8983803611F0803A69F788E595
:1043500094E00E9493050091960310919703209199
:104360009803309199036017710782079307E1F66C
:1043700030915C043B833F70E32EC32ED12C160199
:10438000A8E02A0E311C2D813E81245031093E8344
:104390002D832215330544F288248A94982C221602
:1043A00033064CF4F101E95AFB4F2081822E912C07
:1043B000D60119961D0140909A0350909B0360907E
:1043C0009C0370909D0300915D0410915E0404199C
:1043D00015090F3F100709F078C021E0421A510873
:1043E0006108710820E1EBEEF2E0DF01322F1D924F
:1043F0003A95E9F739E43093EB0231E03093F0027B
:10440000ACEFAF0DAC83A093FA026093F10270930E
:10441000F2028093F3029093F4024092F5025092DC
:10442000F6026092F7027092F802E5E2F4E0ABE384
:10443000B3E001900D922A95E1F74D815E8167E529
:1044400074E082E00E949A0E9B01AC01ED81FE8136
:10445000E95AFB4F60817181828193810E942D2AEC
:10446000261737074807590709F05ECF80919A034E
:1044700090919B03A0919C03B0919D03481659060F
:104480006A067B0638F584159505A605B7050CF474
:104490004BCF0197A109B109481659066A067B0658
:1044A00009F042CF80914604882309F43DCFB981B9
:1044B000B03A09F039CF80E2809345048114910429
:1044C00009F40CC101E010E033C0400E511E611C24
:1044D000711C88CF0130104408F026CFD301C201EF
:1044E0000196A11DB11D80939A0390939B03A09305
:1044F0009C03B0939D03398180E2303A09F080E05B
:10450000809346048093450410E000E081149104F8
:1045100041F4EE2031F08D819E81281639060CF48D
:1045200003CF80914504811103C09B8194FF09C092
:104530008091C4039091C50380619093C5038093DB
:10454000C4031092DA031092470480EC9FEF0E949C
:104550003E051092500410925204E091C203F09173
:10456000C3038E2F877033E0F695E7953A95E1F710
:10457000E370F0E0A3E08A9FE00DF11D1124EB54FD
:10458000FD4FE4918091CB03082E000C990B8054D1
:104590009109ED58FF0B8E1B9F0B97FD80E08093D8
:1045A0004904A401B6018FE594E00E947812012B22
:1045B00009F0BACEBFEF8B169B0699F12D813E8193
:1045C000221933093E832D831216130654F5C101B7
:1045D000895A9B4F9A838983409196035091970300
:1045E000609198037091990385E294E0811491049D
:1045F00011F085E394E0AD80BE80C980DA80EE24BE
:10460000E394F12C930182010E94B411811491046E
:1046100041F450E040E06D817E8189819A810E9461
:10462000781290915304992349F0AB8120E8A5FFBB
:1046300020E480915404822B80935404809154048C
:10464000181419043CF1806280935404209255049C
:1046500010925604992321F08091540486FD43CE94
:1046600026960FB6F894DEBF0FBECDBFDF91CF9177
:104670001F910F91FF90EF90DF90CF90BF90AF9080
:104680009F908F907F906F905F904F903F902F9072
:104690000C94772080618093540420925504FC8010
:1046A000F218F0925604D6CF81E026960FB6F89411
:1046B000DEBF0FBECDBFDF91CF911F910F91FF9055
:1046C000EF90DF90CF90BF90AF909F908F907F90B2
:1046D0006F905F904F903F902F900895EE2009F4D7
:1046E000F1CE01E010E017CF8091560481110EC089
:1046F000A0914804B0E0119624E234EF0E94432ACE
:1047000020914F044FEC55E20C94260A0E9454214C
:10471000882371F308958091560481110BC0109283
:1047200054040E94F105655E78448F4F9F4F42E02C
:104730000E9476110C9454218091DC03882341F06F
:104740000E94710E85E090E00E94251A0C94AE1A2A
:1047500081E08093DC03F6CFCF92DF92EF92FF925D
:10476000CF93DF938091C4039091C50382FD22C053
:1047700085FD0DC08F779093C5038093C40381E0BE
:10478000DF91CF91FF90EF90DF90CF9008958F75DC
:104790009093C5038093C4038091DA038A3018F4A0
:1047A0008F5F8093DA0389E090E00E94251A0E94CF
:1047B000AE1AE5CF8F779093C5038093C40384E14D
:1047C00090E00E94251A8091D5038093D3038091B5
:1047D000BE039091BF030E94A80F809153048F5F86
:1047E00080935304C82FC7701092D8038091C403DC
:1047F0009091C503977F9093C5038093C4030E9453
:10480000F1056B017C012091D80380E190E002C0AA
:10481000959587952A95E2F70E944811C60ED71EF6
:10482000E81EF91EC0927E03D0927F03E0928003BF
:10483000F0928103C12CD12C7601C394CC2399F042
:10484000C12CD12C7601C0E1D0E20E94F105AB0170
:10485000BC014C0D5D1D6E1D7F1D9E018AE693E01F
:104860000E94DC068CCFC0EAD5E2EFCF80915404E1
:1048700080FF0C94AC2380E00895CF92DF92EF92FA
:10488000FF920F931F93CF93DF938091540480FF87
:1048900005C080915604882309F42DC18091C4037A
:1048A0009091C50387FF11C184729927892B51F418
:1048B000DF91CF911F910F91FF90EF90DF90CF90FC
:1048C0000C9436241091560411110AC0DF91CF9137
:1048D0001F910F91FF90EF90DF90CF900C94AC233D
:1048E000113111F0113221F780915704837E80320B
:1048F000F9F6C12FD0E00E94690EAE014150510976
:1049000068E574E080E00E949A0E0E94690E249788
:10491000AE0167E574E08AE00E949A0E6B017C01AB
:10492000C95ADB4F688179818A819B810E942D2A37
:10493000C616D706E806F90609F0BACF8EE594E068
:104940000E94930560939603709397038093980356
:10495000909399038BE594E00E94930599276093C7
:104960009203709393038093940390939503113271
:10497000D1F4809173048130B1F494E6E92E94E08F
:10498000F92EC0E0D70111960C9111978C91102F40
:10499000082FD0E1DC0FDC139AC0B2E0EB0EF11C63
:1049A000CD2FD03679F78091C6039091C703019738
:1049B000EDE2F4E028E0DF011D922A95E9F721E01D
:1049C0002093250426E0E8E5F4E0A6E2B4E00190B7
:1049D0000D922A95E1F780932C0490932D0480E1A9
:1049E000E5E2F4E0A5E3B4E001900D928A95E1F7E9
:1049F00082E0809335040E94690E40E150E065E258
:104A000074E080E00E949A0E0E94690E40E150E03E
:104A100065E374E080E00E949A0E8091C40385FFF4
:104A200009C0C091DA038091D803C15008F05EC07C
:104A30008093D8038091C4039091C50389759D7FAD
:104A400098609093C5038093C4031092530410920E
:104A50009E0310929F031092A0031092A103109244
:104A60009A0310929B0310929C0310929D03109244
:104A7000DA031092470410924604109245041092F3
:104A8000D6031092DB03109250041092520410923D
:104A90004C040E947F0580EC9FEF0E943E058091B0
:104AA0006204982F9F7090934F0482958770809333
:104AB0004E04809163048823E1F08093480486E0EB
:104AC00090E00E94251A0E94AE1A81E015C0C036FF
:104AD00009F463CF8C2F00FF06C00E948D04CF5FC6
:104AE0001695079558CF0E94BD04F9CF0E94F60A8B
:104AF0009CCF81E0E2CF80E0DF91CF911F910F91B9
:104B0000FF90EF90DF90CF9008958091560481112F
:104B10000AC020914F0447ED55E268ED78EB85E03F
:104B200090E00C94260A0E943D24882391F3089576
:104B300080915604811102C0109254040C943D24BB
:104B400088E090E00E94251A0C94AE1A82E08093CF
:104B50005404E0914F04F0E0E750FD4FE491F0E0A1
:104B6000EF77E068F093C303E093C2038091A20360
:104B70009091A303A091A403B091A50380938A030D
:104B800090938B03A0938C03B0938D0310925604E3
:104B900083E190E00E94251A80E00C94EF0D8BE8F1
:104BA00093E290937103809370030C94A62588E997
:104BB00095E290937103809370030C94A62521E0F5
:104BC00020935404E2ECF3E02081318120683183AA
:104BD000208310925604909371038093700383E1B5
:104BE00090E00E94251A80E00C94EF0D84E793E298
:104BF0000C94DF2585E895E20C94DF251F920F9237
:104C00000FB60F9211242F933F934F935F936F939F
:104C10007F938F939F93AF93BF93EF93FF938DE910
:104C200094E00E94F602FF91EF91BF91AF919F91A6
:104C30008F917F916F915F914F913F912F910F9045
:104C40000FBE0F901F9018951F920F920FB60F92E4
:104C500011242F938F939F93EF93FF93E091AD04D3
:104C6000F091AE048081E091B304F091B40482FD30
:104C70001BC090818091B6048F5F8F732091B70421
:104C8000821741F0E091B604F0E0E356FB4F958FB8
:104C90008093B604FF91EF919F918F912F910F9088
:104CA0000FBE0F901F9018958081F4CF1F920F9226
:104CB0000FB60F9211242F933F938F939F93AF932F
:104CC000BF938091FC029091FD02A091FE02B091F1
:104CD000FF023091FB0223E0230F2D3758F5019698
:104CE000A11DB11D2093FB028093FC029093FD0255
:104CF000A093FE02B093FF02809100039091010304
:104D0000A0910203B09103030196A11DB11D8093F0
:104D1000000390930103A0930203B0930303BF9198
:104D2000AF919F918F913F912F910F900FBE0F9058
:104D30001F90189526E8230F0296A11DB11DD2CF12
:104D4000EDE9F4E01382128288EE93E0A0E0B0E097
:104D500084839583A683B78380E291E091838083E7
:104D600085EC90E09587848784EC90E09787868730
:104D700080EC90E0918B808B81EC90E0938B828B28
:104D800082EC90E0958B848B86EC90E0978B868B01
:104D9000118E128E138E148E82E391E090933B0558
:104DA00080933A050895789484B5826084BD84B573
:104DB000816084BD85B5826085BD85B5816085BD16
:104DC00080916E00816080936E00109281008091CE
:104DD0008100826080938100809181008160809356
:104DE0008100809180008160809380008091B1007B
:104DF00084608093B1008091B00081608093B000A6
:104E000080917A00846080937A0080917A00826039
:104E100080937A0080917A00816080937A008091FB
:104E20007A00806880937A001092C100E091AD040E
:104E3000F091AE0482E08083E091A904F091AA048D
:104E40001082E091AB04F091AC0480E18083109279
:104E5000B504E091B104F091B20486E08083E09162
:104E6000AF04F091B004808180618083E091AF0451
:104E7000F091B004808188608083E091AF04F0916C
:104E8000B004808180688083E091AF04F091B00429
:104E900080818F7D808383E593E00E943408E9E977
:104EA000F4E084E0DF011D928A95E9F78EE091E05D
:104EB00090933A03809339038AE395E09093240317
:104EC0008093230361E08AE00E94C90361E08AE0E5
:104ED0000E94F70360E089E00E94F70360E082E04F
:104EE0000E94F70360E086E00E94F70360E087E03D
:104EF0000E94F703CFB7F89480912203811127C055
:104F0000E9E4F3E08491E5E3F3E09491E82FF0E045
:104F1000EE0FFF1FEF5DFC4FA591B491EC91E923DB
:104F200021F461E08AE00E94C90361E08AE00E9406
:104F3000F7038CB580618CBD8CB580648CBD61E05D
:104F40008DE00E94F70361E08BE00E94F7038091FF
:104F500022038F5F80932203CFBFE4E1F3E08EE072
:104F6000DF011D928A95E9F789E995E090931D0389
:104F700080931C0382E080931703F0933F05E09336
:104F80003E0581E00E94AC07C0913903D0913A03FD
:104F90008A818F3F39F060E00E94C90361E08A8115
:104FA0000E94F7030E94F105625C7F4F8F4F9F4F75
:104FB0000E9434078A818F3F19F060E00E94F70356
:104FC0000E94F105685C7E4F8F4F9F4F0E9434070F
:104FD00080E00E94370D82E40E94680B823109F064
:104FE000B2C18091230390912403DC01ED91FC91E7
:104FF0000680F781E02D0995882341F08BE40E941B
:10500000680B682F60618BE40E947A0B82E00E943B
:10501000410D81E00E94680B87708530D1F7C4E0B4
:10502000D3E0F3E1AF2EF3E0BF2E08E010E08CE216
:105030000E94680B8170F82E8CE20E94680B8170D0
:10504000F816A9F38981880F8F29898301501109E6
:1050500071F72196AC16BD0641F780E180930403F9
:1050600080E00E94370D80E490E09093C503809328
:10507000C4038FEF809369030E94FF11D0E0C0E06A
:10508000C730D10509F078C087E00E94D20521968B
:10509000C830D105A9F710924B0485E293E00E9435
:1050A00012207FE0D72EE0E0EE2EE0E0FE2E0DE2B3
:1050B00013E0D0E0C0E0E0913903F0913A03EC0F47
:1050C000FD1F83818F3FC1F1F80180809180A28014
:1050D000B38081149104A104B10471F11082118292
:1050E0001282138281E00E94680B87FFCBC082E1AD
:1050F0000E94680B8093980483FF42C0B2E08B1A31
:105100009108A108B10880927E0390927F03A0923B
:105110008003B09281036FEF81E10E947A0B6FEF01
:1051200082E10E947A0B80E00E94370D809170032B
:10513000909171030E949D0621960C5F1F4FC33012
:10514000D10509F0B8CF0E94A105C0919B04D09170
:105150009C04209709F4C9C08881998190939C048C
:1051600080939B040E941506209709F4E0C0EE810D
:10517000FF81CE010995DBC08C2F0E94AB0587CF44
:1051800086FF7BC0E091C203F091C303CF0163E0CF
:10519000969587956A95E1F7837061F4E770F0E082
:1051A000EE0FFF1FE45AFC4F85919491881A990ADB
:1051B000A108B1088092820390928303A092840395
:1051C000B09285038DE10E94680B80FF45C082E2AA
:1051D0000E94680B8093560480E10E94680B682F40
:1051E0008DE00E947A0B4091560450E021E067E583
:1051F00074E080E00E94FF0A89E10E94680B8093BE
:10520000CC038AE10E94680B282F30E040918A038A
:1052100050918B0360918C0370918D0341345D4DEF
:105220006A447F41D8F02D5931099091CC0397FF02
:1052300018C0492F552741950CF45095CA019595F2
:10524000879595958795281B390B203431059CF45B
:10525000205C2093CB035FCF83E1BACF245A31097E
:10526000E4CF2D395FEF35079CF36D2D0E94B229F5
:10527000280F311DEACF2FE7ECCF87FF4CCF1092DC
:10528000560449CF8EE30E94680B8FE30E94680B9F
:1052900083FF0CC080927E0390927F03A0928003D4
:1052A000B092810381E00E94370D3DCF82FF1AC08A
:1052B0008092820390928303A0928403B09285032C
:1052C00082E30E94680B80935604482F50E021E04F
:1052D00067E574E080E00E94FF0A1092CC03109210
:1052E000CB03E0CF10925604DDCFE0919904F0910A
:1052F0009A043097D1F082809380A480B5800E9478
:10530000F105861A970AA80AB90A181419041A048A
:105310001B045CF0C0919904D0919A048881998112
:1053200090939A04809399041DCF0E941506E1146E
:10533000F10409F4BCCE0E94E202882309F4B7CE3E
:105340000E940000B4CE65E370E082EB92E00E9420
:10535000A805FB01DC0102C005900D9241505040B0
:10536000D8F70895991B79E004C0991F961708F0A3
:10537000961B881F7A95C9F780950895AA1BBB1BB9
:1053800051E107C0AA1FBB1FA617B70710F0A61B45
:10539000B70B881F991F5A95A9F780959095BC0166
:1053A000CD01089597FB072E16F4009407D077FDE2
:1053B00009D00E94BE2907FC05D03EF49095819546
:1053C0009F4F0895709561957F4F0895A1E21A2E21
:1053D000AA1BBB1BFD010DC0AA1FBB1FEE1FFF1F99
:1053E000A217B307E407F50720F0A21BB30BE40BE9
:1053F000F50B661F771F881F991F1A9469F7609530
:105400007095809590959B01AC01BD01CF010895E9
:10541000052E97FB1EF400940E941F2A57FD07D00B
:105420000E94E62907FC03D04EF40C941F2A5095E5
:105430004095309521953F4F4F4F5F4F0895909580
:105440008095709561957F4F8F4F9F4F0895EE0F18
:10545000FF1F0590F491E02D09946927962769278D
:105460007827872778270895A29FB001B39FC001AE
:10547000A39F700D811D1124911DB29F700D811D80
:105480001124911D08950E94342AB7FF0895821BAC
:10549000930B08950E94342AA59F900DB49F900D00
:1054A000A49F800D911D1124089597FB57FF0C9424
:1054B000652A9F938F930E94652A6E1B7F0BAF9185
:1054C000BF918A0B9B0B0895E894DF93CF93FC0167
:1054D000DB010E94342A7F936F93E9019A01AC01AA
:1054E000BF93AF933F932F93DF010E94342A26F49A
:1054F0006C1B7D0B820B930B9E01EB01FC010E9448
:105500005B2BAF91BF912F913F910E945B2BBE010E
:10551000CF01F9012F913F91CF91DF9108956894C8
:1055200001C0E8948F929F92CF93DF930E949D2AAF
:10553000DF91CF919F908F90089588249924F40152
:10554000E401B0E49F93AA279A158B049C04ED050F
:10555000FE05CF05D007A10798F4AD2FDC2FCF2F84
:10556000FE2FE92D982C892E982F872F762F652FC7
:10557000542F432F322F2227B85031F7BF9127C025
:105580001B2EBF91BB27220F331F441F551F661FC1
:10559000771F881F991F881C991CEE1FFF1FCC1FA7
:1055A000DD1FAA1FBB1F8A149B04EC05FD05CE0559
:1055B000DF05A007B10748F08A189B08EC09FD0930
:1055C000CE09DF09A00BB10B21601A94E1F62EF48D
:1055D0009401AF01BE01CD01000C08952F923F92BE
:1055E0004F925F926F927F928F929F92AF92BF92F3
:1055F000CF92DF92EF92FF920F931F93CF93DF939F
:10560000CDB7DEB7CA1BDB0B0FB6F894DEBF0FBEFB
:10561000CDBF09942A88398848885F846E847D8448
:105620008C849B84AA84B984C884DF80EE80FD804A
:105630000C811B81AA81B981CE0FD11D0FB6F894C0
:10564000DEBF0FBECDBFED010895002E083090F0F3
:10565000982F872F762F652F542F432F322F2227F5
:105660000850F4CF220F331F441F551F661F771FAA
:10567000881F991F0A95B2F7002D089597FD109481
:10568000002E083098F00850232F342F452F562F26
:10569000672F782F892F912DF4CF159497958795A3
:1056A0007795679557954795379527950A95AAF762
:1056B0001124002D08950E94342A460F571FC81F39
:1056C000D91F08F431960895FB01DC0102C0019056
:1056D0000D9241505040D8F70895FB01DC01019034
:1056E0000D920020E1F70895B0E0A0E0EAE7FBE2C8
:1056F0000C94FE2AAE014B5F5F4FFA0161917191EC
:10570000AF0180913E0590913F050E948A2BE2E017
:105710000C941A2BABE0B0E0E0E9FBE20C94EE2A2B
:105720007C013B018A01FC0117821682838181FF83
:10573000C8C1CE0101965C01F7019381F30193FD8D
:10574000859193FF81913F01882309F453C18532EC
:1057500039F493FD859193FF81913F01853229F4BE
:10576000B70190E00E947A2DE7CF912C212C312CAB
:10577000FFE1F31538F08B3211F190F4803209F12A
:10578000833229F137FC3CC020ED280F2A3050F538
:1057900036FE20C08AE0989E200D1124922E06C06D
:1057A0008D3291F0803371F7689430F8F30193FDF6
:1057B000859193FF81913F018111DACF21C06894D7
:1057C00031F8689432F8F2CF689433F8EFCF6894E8
:1057D00034F8ECCFEAE02E9E200D1124222E68949E
:1057E00035F8E4CF8E3229F436FC04C1689436F8DB
:1057F000DDCF8C3619F4689437F8D8CF8836B1F2FB
:10580000982F9F7D95549330E0F08336A1F1833734
:10581000C1F1833509F063C02801F2E04F0E511C3D
:10582000F801C080D180692D70E036FC02C06FEFB6
:105830007FEFC6010E94642D4C01689437F8820105
:105840000AC00C5F1F4FFFE3F98388248394912CD7
:105850006501E89437F833FE2DC0522C8114910471
:1058600071F5552009F468CFB70180E290E00E94FD
:105870007A2D5A94F6CFF801808189830E5F1F4FED
:10588000E4CF2801F2E04F0E511CF801C080D18016
:10589000692D70E036FC02C06FEF7FEFC6010E94F9
:1058A0006F2D4C018201D5CFB70180E290E00E94BC
:1058B0007A2D2A942814190409F0B0F7CECFF601F6
:1058C00037FC859137FE81916F01B70190E00E940E
:1058D0007A2D51105A94F1E08F1A9108BFCF843677
:1058E00019F0893609F077C0F80137FE6BC0608186
:1058F0007181828193810C5F1F4FF32DFF763F2EC4
:1059000097FF09C090958095709561957F4F8F4F57
:105910009F4F689437F82AE030E0A5010E94AA2D35
:10592000C82ECA188C2C432C36FE0CC0E89440F8C4
:10593000C91440F434FE05C032FC03C0F32DFE7ED2
:105940004F2E892C44FE95C0FE01EC0DF11D808187
:10595000803309F087C0242D297E422E842D887043
:10596000582E43FC95C040FE8FC09C2C821418F426
:105970002C0C922C981844FE91C0B70180E390E063
:105980000E947A2D42FE09C088E790E041FE02C0E5
:1059900088E590E0B7010E947A2DC91408F48AC006
:1059A000CA94D12C9FEFC91AD90ACA0CDB1CF60184
:1059B00082916F01B70190E00E947A2DAC14BD0472
:1059C000B1F74FCF60817181072E000C880B990BC6
:1059D0000E5F1F4F92CFD32CE894D4F82AE030E02A
:1059E000853739F1232D297FD22E8F3601F148F4E6
:1059F0008835A9F0F701868197812B96E2E10C9416
:105A00000A2B803749F08837A9F7D4FE02C0689482
:105A1000D2F820E130E00DC06894D4F8F6CF34FE1F
:105A200003C0822F8660D82E20E132E002C028E039
:105A300030E0F801D7FE0FC06081718182819381CF
:105A40000C5F1F4FA5010E94AA2DC82ECA183D2C1D
:105A5000E89437F867CF6081718190E080E00E5F55
:105A60001F4FF0CF42FC02C0839478CF839483947D
:105A700075CF842D867809F471CFF6CFB70180E217
:105A800090E00E947A2D83948214C0F3512C73CF3E
:105A9000522C5818821408F46ECFF8CF842D8678D3
:105AA00009F47BCF8BE241FE80E247FC8DE2B70137
:105AB00090E071CFB70180E390E00E947A2D9A9434
:105AC0006CCF8FEF9FEF99CFFC0105906150704034
:105AD0000110D8F7809590958E0F9F1F0895FC01B7
