:020000040000FA
:100000000C9442020C946A020C946A020C946A02E8
:100010000C946A020C946A020C946A020C946A02B0
:100020000C946A020C946A020C946A020C946A02A0
:100030000C946A020C946A020C946A020C946A0290
:100040000C94DC260C946A020C94AA260C94842648
:100050000C946A020C946A020C946A020C946A0270
:100060000C946A020C946A02556E6B6E6F776E2068
:100070006576656E743A200045565F4A4F494E5F7B
:100080005458434F4D504C4554453A206E6F204ACA
:100090006F696E4163636570740045565F545843E1
:1000A000414E43454C454400206279746573206F8E
:1000B0006620504859205061796C6F61643A200085
:1000C00041637475616C2053656E74200020627901
:1000D000746573206F66204672616D65205061798A
:1000E0006C6F61643A204261736536342D646563D8
:1000F0006F6465642068657861646563696D616CCF
:1001000020737472696E67207061796C6F61643AF4
:100110000053656E74200045565F54585354415245
:10012000540045565F4C494E4B5F414C4956450083
:1001300045565F4C494E4B5F444541440045565F30
:100140005258434F4D504C4554450045565F52451B
:100150005345540045565F4C4F53545F5453594ECA
:1001600043004261736536342D6465636F64656472
:100170002068657861646563696D616C2073747271
:10018000696E67207061796C6F61643A200020624B
:1001900079746573206F66207061796C6F61643A61
:1001A0002000526563656976656420005265636569
:1001B000697665642061636B0045565F5458434F10
:1001C0004D504C4554452028696E636C75646573C9
:1001D0002077616974696E6720666F7220525820BB
:1001E00077696E646F7773290045565F52454A4FB1
:1001F000494E5F4641494C45440045565F4A4F4988
:100200004E5F4641494C45440045565F4A4F494E72
:1002100045440045565F4A4F494E494E47004556B2
:100220005F424541434F4E5F545241434B4544006A
:1002300045565F424541434F4E5F4D4953534544F8
:100240000045565F424541434F4E5F464F554E4431
:100250000045565F5343414E5F54494D454F5554F9
:10026000004F505F5458525850454E442C206E6FEA
:10027000742073656E64696E67005061636B6574AA
:10028000207175657565640000000000230026007C
:100290002900030502050106020205000006000010
:1002A0000105040400040000000200000001000039
:1002B0008000000040000000200000002020200EF0
:1002C00011140C0F12090C0F06090C030609000388
:1002D0000613110F0D0B0907052A7C0C64EC4CEC7E
:1002E0008B2A7C0C64EC4CEC8B40404080EBEB08A0
:1002F0000A0C0D0E10121415181A1B1D1E2124FFB6
:10030000060504030201FFC04000000000002500B4
:1003100028002B0000000008000201000003040771
:100320000000000000000000000000002400270082
:100330002A00010204081020408001020408102055
:10034000010204081020040404040404040402024A
:10035000020202020303030303035374617274690C
:100360006E6700000000006700CC00B80154039DD8
:10037000071561354576A05E2B0DB920DA6FF3E3E2
:10038000E1637C777BF26B6FC53001672BFED7ABE7
:1003900076CA82C97DFA5947F0ADD4A2AF9CA47247
:1003A000C0B7FD9326363FF7CC34A5E5F171D831BF
:1003B0001504C723C31896059A071280E2EB27B2EB
:1003C0007509832C1A1B6E5AA0523BD6B329E32F12
:1003D0008453D100ED20FCB15B6ACBBE394A4C5846
:1003E000CFD0EFAAFB434D338545F9027F503C9FA8
:1003F000A851A3408F929D38F5BCB6DA2110FFF3C7
:10040000D2CD0C13EC5F974417C4A77E3D645D19F1
:100410007360814FDC222A908846EEB814DE5E0BB2
:10042000DBE0323A0A4906245CC2D3AC629195E41F
:1004300079E7C8376D8DD54EA96C56F4EA657AAE6A
:1004400008BA78252E1CA6B4C6E8DD741F4BBD8BF8
:100450008A703EB5664803F60E613557B986C11DF0
:100460009EE1F8981169D98E949B1E87E9CE552894
:10047000DF8CA1890DBFE6426841992D0FB054BBB6
:100480001600262711241FBECFEFD8E0DEBFCDBF58
:1004900025E0ACE5B3E001C01D92A83FB207E1F74B
:1004A00013E0A0E0B1E0E8EFFCE502C005900D929A
:1004B000AC35B107D9F712E0C2E4D2E004C021970D
:1004C000FE010E94992AC134D107C9F70E94592719
:1004D0000C947A2E0C940000FC0120E1215008F4C9
:1004E000089580E0211181819191990F87FD91609C
:1004F000DF0111979C93F2CFAF92BF92CF92DF9220
:10050000EF92FF920F931F93CF93DF936C017B01C8
:100510008B01040F151FEB015E01AE18BF08C01759
:10052000D10759F06991D601ED91FC910190F081CC
:10053000E02DC6010995892B79F7C501DF91CF918F
:100540001F910F91FF90EF90DF90CF90BF90AF90F1
:100550000895FC01538D448D252F30E0842F90E0C9
:10056000821B930B541710F0CF96089501970895AE
:10057000FC01918D828D981761F0A28DAE0FBF2F77
:10058000B11D5D968C91928D9F5F9F73928F90E0CD
:1005900008958FEF9FEF0895FC01918D828D98173C
:1005A00031F0828DE80FF11D858D90E008958FEF79
:1005B0009FEF0895FC01918D228D892F90E0805C42
:1005C0009F4F821B91098F739927089583E595E0CA
:1005D0000E94DA0221E0892B09F420E0822F08959D
:1005E00080E090E0892B29F00E94E60281110C94B2
:1005F00000000895FC01A48DA80FB92FB11DA35AC6
:10060000BF4F2C91848D90E001968F739927848F32
:10061000A689B7892C93A089B1898C918370806455
:100620008C93938D848D981306C00288F389E02DF6
:1006300080818F7D80830895EF92FF920F931F93A7
:10064000CF93DF93EC0181E0888F9B8D8C8D981385
:100650001AC0E889F989808185FF15C09FB7F89491
:10066000EE89FF896083E889F989808183708064DD
:1006700080839FBF81E090E0DF91CF911F910F9128
:10068000FF90EF900895F62E0B8D10E00F5F1F4F37
:100690000F731127E02E8C8D8E110CC00FB607FC46
:1006A000FACFE889F989808185FFF5CFCE010E94D4
:1006B000FA02F1CFEB8DEC0FFD2FF11DE35AFF4F46
:1006C000F0829FB7F8940B8FEA89FB898081806262
:1006D000CFCF0F931F93CF93DF938C01D0E0C0E077
:1006E000F801EC0FFD1F6491662341F083E595E06E
:1006F0000E941C03892B11F02196F2CFCE01DF91CD
:10070000CF911F910F910895CF93DF93EC01888DC6
:100710008823B9F0AA89BB89E889F9898C9185FD7C
:1007200003C0808186FD0DC00FB607FCF7CF8C910A
:1007300085FFF2CF808185FFEDCFCE010E94FA02C6
:10074000E9CFDF91CF910895833081F028F4813093
:1007500099F08230A9F008958730A9F08830C9F067
:100760008430B1F4809180008F7D03C0809180003F
:100770008F7780938000089584B58F7784BD089526
:1007800084B58F7DFBCF8091B0008F778093B000D0
:1007900008958091B0008F7DF9CF1F93CF93DF93A1
:1007A000282F30E0F901EC5EFC4F8491F901EE5CFA
:1007B000FC4FD491F901EA5BFC4FC491CC23A9F022
:1007C000162F81110E94A403EC2FF0E0EE0FFF1F03
:1007D000E65FFC4FA591B4918FB7F894EC9111119D
:1007E00008C0D095DE23DC938FBFDF91CF911F919E
:1007F0000895DE2BF8CFCF93DF9390E0FC01EE5C01
:10080000FC4F24918A5B9C4FFC0184918823D1F09A
:1008100090E0880F991FFC01E85DFC4FA591B49111
:10082000FC01E65FFC4FC591D49161110EC09FB7EA
:10083000F8948C91E22FE0958E238C932881E2230B
:10084000E8839FBFDF91CF9108958FB7F894EC9123
:10085000E22BEC938FBFF6CF3FB7F89480917603ED
:1008600090917703A0917803B091790326B5A89B66
:1008700005C02F3F19F00196A11DB11D3FBFBA2F32
:10088000A92F982F8827BC01CD01620F711D811DF2
:10089000911D42E0660F771F881F991F4A95D1F777
:1008A00008950F931F936115710581059105F9F066
:1008B0000091E8031091E9032091EA033091EB03E2
:1008C000DC01CB01800F911FA21FB31F8093E803AF
:1008D0009093E903A093EA03B093EB038091EC03B8
:1008E0009091ED0301969093ED038093EC031F919B
:1008F0000F910895FC01208131812115310519F4F2
:1009000090E080E008952617370749F4FB01208125
:100910003181FC013183208381E090E00895C90199
:10092000E9CF803660F5282F22952F7030E0220F16
:10093000331FF901E45EFB4F408151818F7061E00C
:1009400070E002C0660F771F8A95E2F7CA0186231E
:100950009723892B91F4809134049091350401966A
:10096000909335048093340481E0245E3B4F462B02
:10097000572BF90151834083089580E0F6CF80E042
:100980000895803670F5282F22952F7030E0220FC1
:10099000331FF901E45EFB4F608171818F7041E08C
:1009A00050E002C0440F551F8A95E2F7CA01862322
:1009B0009723892BA1F080913404909135040197FD
:1009C000909335048093340481E0245E3B4F40953E
:1009D000509546235723F90151834083089580E0C1
:1009E000F4CF80E00895FC0190E080E0611571058E
:1009F00009F4089521913191A901569547954575BE
:100A00005575241B350BA9014373537336952795F0
:100A10003695279523733373240F351FA901407F23
:100A2000507F2F703F70A4E0220F331FAA95E1F78B
:100A3000240F351FA9015527232F3327240F351FD6
:100A4000820F931F61507109D1CF982F6038C1F088
:100A500080914D046817A1F060934D0481E02091CE
:100A60004E04291761F090934E0480913A049091BE
:100A70003B04986090933B0480933A0481E008958E
:100A800080E0EDCF20913E0430913F0420383F4F6D
:100A900021F090933F0480933E040895982F809115
:100AA0008B04E0918A04882361F0EF30A0F481E0A8
:100AB0008E0F80938A04F0E0E457FB4F908381E02F
:100AC0000895E43348F481E08E0F80938A04F0E0C7
:100AD000EA5AFB4FF3CF80E00895CF93DF93C62F00
:100AE000D0918A040E944E05811106C0D0938A04D9
:100AF00080E0DF91CF9108958C2F0E944E058823CE
:100B0000A9F381E0F6CF1092C4041092C50480E2EC
:100B100094E4AEE1BEE18093180490931904A0938D
:100B20001A04B0931B048FEF8093C3040895FC0153
:100B300060817181828193810895682F83E595E0BA
:100B40000E941C0390E080E00895F8948091600377
:100B50008F5F8093600308950E94A505FFCFEF92F9
:100B6000FF921F93CF93DF938C3030F067EA70E0F1
:100B70008CE391E00E94AC05880F880F880F98E005
:100B8000980FC82FD0E010E0E92EF12CCE15DF052C
:100B90003CF0812FDF91CF911F91FF90EF9008954E
:100BA0008C2F0E94C104182B2196F0CFEF92FF9258
:100BB0001F93CF93DF93880F880F880F98E0980FCB
:100BC000C82FD0E010E0E92EF12CCE15DF053CF067
:100BD000812FDF91CF911F91FF90EF9008958C2F7F
:100BE0000E949104182B2196F0CF0F931F930E941F
:100BF0002C04AB01BC0120915C03DC01CA013CE187
:100C0000B695A795979587953A95D1F782278870DD
:100C1000820F80935C03E4E076956795579547953E
:100C2000EA95D1F79B01382BC901BA011F910F91A9
:100C30000895AF92BF92CF92DF92EF92FF920F93FF
:100C40001F93CF93DF938091600381508093600363
:100C5000811169C078940DE513E0D0E0C0E0BB24B9
:100C6000B394E091AF03F091B003EC0FFD1F23812B
:100C70002F3F09F451C0F801D080ED2CF12C30E069
:100C8000F901EC5EFC4F8491F901EE5CFC4FC490DD
:100C9000F901EA5BFC4FA490AA2009F44FC081112E
:100CA0000E94A403EA2DF0E0EE0FFF1FE857FD4F6E
:100CB000A591B491EC91CE2231E020E009F430E02E
:100CC000832F922FE816F90639F1DB24F801D08240
:100CD000DD2011F1CE01880F991F880F991F9C010B
:100CE0002D553C4F7901F90180819181A281B38119
:100CF000892B8A2B8B2B81F40E94F50561157105D8
:100D00008105910521F461E070E080E090E0F70159
:100D1000608371838283938321960F5F1F4FC3305B
:100D2000D10509F09ECFDF91CF911F910F91FF90D8
:100D3000EF90DF90CF90BF90AF90089590E080E06B
:100D4000C1CFCF93DF93EC010E94A5058091E20310
:100D50009091E303A091E403B091E503892B8A2BE2
:100D60008B2B31F581E595E060EE73E00E947A040B
:100D70001092E1031092E0031092E2031092E30359
:100D80001092E4031092E503D093E703C093E603C7
:100D9000E0915105F0915205A1E5B5E0309759F485
:100DA00080EE93E08D939C93DF91CF910C94190684
:100DB0008FE495E0D9CFDF010190F081E02DEECFF7
:100DC000CF92DF92EF92FF920F931F93CF93DF9317
:100DD000EC016A017B018901C114D104E104F10431
:100DE00021F4C12CD12C7601C3940E94A5058A81DF
:100DF0009B81AC81BD81892B8A2B8B2B89F581E569
:100E000095E0BE010E947A0419821882CA82DB82B0
:100E1000EC82FD821F830E83E0914F05F091500517
:100E20002FE435E0309779F082819381A481B581F8
:100E30008C199D09AE09BF09181619061A061B065A
:100E400094F4F983E883F901D183C083DF91CF91D2
:100E50001F910F91FF90EF90DF90CF900C941906A7
:100E60008FE495E0CECF9F010190F081E02DDACFA5
:100E70004F925F926F927F928F929F92AF92BF92AA
:100E8000CF92DF92EF92FF924B015C010E94F50539
:100E9000A5019401261B370B480B590BDA01C90138
:100EA000B7FF14C066277727CB01621B730B840B37
:100EB000950BFF90EF90DF90CF90BF90AF909F90F9
:100EC0008F907F906F905F904F900895833332E0C2
:100ED0009307A105B1057CF10E942C042B013C0174
:100EE00048E0C42ED12CE12CF12C0E942C04641972
:100EF000750986099709683E734081059105A8F335
:100F000041E0C41AD108E108F10858EE450E53E05B
:100F1000551E611C711CC114D104E104F10429F7B0
:100F20000E94F505A5019401261B370B480B590BB0
:100F3000DA01C901CBCF181619061A061B0664F48C
:100F400024E0880F991F2A95E1F7880F991F880FD1
:100F5000991F05970197F1F760E070E0CB01A9CFE9
:100F6000CF92DF92EF92FF92A0919903B0919A03F2
:100F7000682F6170ED91FC9111970190F081E02D47
:100F8000CD0109956B017C01C114D104E104F10488
:100F900061F00E94F5056C0D7D1D8E1D9F1DFF905B
:100FA000EF90DF90CF900C943807FF90EF90DF9098
:100FB000CF900895982FE091AF03F091B003818115
:100FC0008F3F39F061E02681291301C060E00C9465
:100FD000CD03089581E0089580E00895089560E0CC
:100FE00070E0CB010895E1ECF3E084819581948376
:100FF0009681958397819683878380859285908754
:101000008287818593859187838787859685978752
:10101000958596879485958784870895CF9321EC4D
:1010200033E0BC01605F7F4FDC01F90140E0CD910E
:1010300050815C2750834F5F34964430C1F72F5F57
:101040003F4F04968617970779F7CF910895FC01D3
:1010500001900020E9F73197AF01481B590BBC0103
:1010600083E595E00C947C0284E791E00C942708DA
:10107000CF93DF930E946903EC010E9434088C0F28
:101080009D1FDF91CF9108958F929F92AF92BF9253
:101090000F931F93CF93DF93CDB7DEB7A1970FB612
:1010A000F894DEBF0FBECDBF19A2423008F44AE06B
:1010B0008E010F5D1F4F842E912CB12CA12CA50108
:1010C00094010E94582AE62FB901CA01EA30F4F4CB
:1010D000E05DD801EE938D01232B242B252B79F78E
:1010E00090E080E0109719F0CD010E942708A196AA
:1010F0000FB6F894DEBF0FBECDBFDF91CF911F9129
:101100000F91BF90AF909F908F900895E95CE1CFD1
:101110000F931F93CF93DF9300D000D0CDB7DEB7EE
:10112000DB011C969C911C971E963C911E971F9666
:101130002C911F971D964C911D9749833A832B83C1
:101140009C83BE016B5F7F4F9E012F5F3F4FF90174
:1011500011919F01412F42954F70F0E14F9FA001E7
:101160001124E12FEF70E40FF52FF11DEF57FC4F25
:101170009491A90141505109FA019083261737072C
:1011800031F791E05BE1813039F0492F440F97FD51
:1011900045278150942FF7CF8981982799838D0116
:1011A00094E0FE013196A801DA018D91AD016191C3
:1011B0008627BD0161507109DB018C93BF0161502D
:1011C0007109DB018C93E217F30771F791500C5F03
:1011D0001F4F9111E6CF0F900F900F900F90DF915E
:1011E000CF911F910F9108953F924F925F926F920E
:1011F0007F928F929F92AF92BF92CF92DF92EF92A7
:10120000FF920F931F93CF93DF93CDB7DEB768970D
:101210000FB6F894DEBF0FBECDBF8C0121ECC22EFD
:1012200023E0D22EAC01405F5F4FC6017801FC0184
:10123000D70120E03D9130832F5F34962430D1F7E1
:1012400024E0E20EF11C01964E155F0581F7A1EB3B
:10125000B3E0FE01319681EC93E05E2E6F2E2D916E
:1012600021938A179B07D9F7852D962D0E940E088A
:101270004424439485ECA82E83E0B82E4E0139E136
:10128000830E911C9BE1392E81EC93E024E0DC017C
:10129000712CEC914E2F42954F7030E1439FA0018D
:1012A0001124EF70E40FF52FF11DEF57FC4FE4917F
:1012B000EC937394149654E07512EBCF2150019681
:1012C0002111E5CF0E94F307E1ECF3E0CE01459652
:1012D000BE016F5E7F4F9F01D9015C91DC015D9380
:1012E000CD01452F440F57FD83C0DB014C932C5F8C
:1012F0003F4F6F5F7F4F8816990671F78E89398946
:1013000038272F89688D9A8992279627432F492756
:1013100041934D895B899427952793839C898627E0
:1013200084278527892787832427292732273387FE
:10133000AE16BF0659F6652D762D842D0E948808BD
:10134000852D962D0E940E084394BAE04B129CCF37
:1013500081EC93E0DC0140E0EC912E2F22952F7080
:1013600050E1259F90011124EF70E20FF32FF11D42
:10137000EF57FC4FE491EC934F5F1496443061F7C4
:101380007A9401967110E6CF0E94F307652D762DB1
:101390008AE00E948808852D962D0E940E08D801AB
:1013A000F60180E090819D938F5F34968430D1F771
:1013B0008FEFC81AD80A0C5F1F4FE016F10679F7B5
:1013C00068960FB6F894DEBF0FBECDBFDF91CF9108
:1013D0001F910F91FF90EF90DF90CF90BF90AF9053
:1013E0009F908F907F906F905F904F903F90089567
:1013F00043257BCFE0914504A0914904A770B0E05C
:1014000020E43DE043E050E00E94BC2A60527F456A
:101410008C4C914E609300047093010480930204FD
:10142000909303048091C404E53090F4E81BE63007
:1014300008F0E5E0E0934504F0E0E050FD4FE49172
:10144000F0E0EF77E068F0933904E0933804089512
:10145000E5E0ECCF4F925F926F927F928F929F92D6
:10146000AF92BF92CF92DF92EF92FF920F93CF9302
:10147000DF9300D000D000D0CDB7DEB76B017C0188
:101480005E834D83277084E0289FF0011124EC5582
:10149000FD4F85919591A591B49189839A83AB83F2
:1014A000BC834090F4035090F5036090F603709075
:1014B000F7036091DD037091DE036115710531F072
:1014C000673091E0790710F066E071E090E080E02D
:1014D000A70196010E94C72A00E10E94B02B490192
:1014E0005A0129813A814B815C81220F331F441FAD
:1014F000551FC501B401660F771F881F991F620F22
:10150000731F841F951F64587F4F8F4F9F4F0E94FA
:101510007A2A2A5F3F4F43E85FEF6FEF7FEF48196A
:1015200059096A097B092115A4E03A07B8F18FEF40
:1015300093E09093440480934304C40ED51EE61EAA
:10154000F71E4C0C5D1C6E1C7F1C4092F8035092E1
:10155000F9036092FA037092FB03B301A2014157B1
:101560005240610971092D813E8180EE93E02696FB
:101570000FB6F894DEBF0FBECDBFDF91CF910F91B4
:10158000FF90EF90DF90CF90BF90AF909F908F90A3
:101590007F906F905F904F900C94E00630934404DE
:1015A00020934304CACFCF92DF92EF92FF92209113
:1015B000BE0430E0A4E2B4EF0E94A62A6B017C01D5
:1015C0000E94FA092091450440E757E1C701B6019E
:1015D000FF90EF90DF90CF900C942A0A0E94FA09B6
:1015E0002091450444E757E164EB74EC84E090E01B
:1015F0000C942A0AE82FF0E0E150FD4FE491EF3F10
:1016000009F0815008958F929F92AF92BF92DF921E
:10161000EF92FF920F931F93CF93DF93D82EEB019E
:101620008A01E22EE091AF03F091B003F080808454
:101630009184A284B38481149104A104B10439F487
:1016400020E4822E22E4922E2FE0A22EB12C40E044
:1016500052E16AE770E080E084169506A606B706B8
:1016600040F476956795579547958F5F8630A1F73B
:1016700087E0982F906A9695809581709CBD8DBD6E
:1016800060E08F2D0E94CD03DEBC00000DB407FE8C
:10169000FDCF8EB50C0F1D1FC017D10771F080E074
:1016A000E11001C088818EBD00000DB407FEFDCFA2
:1016B0008EB5E11088832196EFCF61E08F2DDF9109
:1016C000CF911F910F91FF90EF90DF90BF90AF905F
:1016D0009F908F900C94CD03CF93DF931F92CDB743
:1016E000DEB721E041E050E0BE016F5F7F4F0E9416
:1016F000030B89810F90DF91CF910895CF93DF93F2
:101700001F92CDB7DEB7698320E041E050E0BE0113
:101710006F5F7F4F80680E94030B0F90DF91CF9126
:101720000895CF93C82F62E082E00E947E0B60E8AC
:1017300083E00E947E0B61E084E00E947E0B69E9F9
:1017400085E00E947E0B62E187E20E947E0B60EDE5
:10175000C11168ED80E30E947E0B60E481E30E948A
:101760007E0B61EC88E20E947E0B64E989E20E94B4
:101770007E0B61EC8AE2CF910C947E0B0F931F934A
:10178000CF93DF93C0914704C4310CF040C0CE30FA
:10179000CCF1C2310CF0C1E161E0809199039091EC
:1017A0009A030091000410910104209102043091E9
:1017B0000304DC01ED91FC910084F185E02D4C2FB8
:1017C0000995813059F18230E1F1CF301CF5CC30F0
:1017D0001CF1C067D7E014E06C2F89E00E947E0BFB
:1017E0008DE40E946C0B887F682F612B8DE40E9432
:1017F0007E0B6D2F60628BE0DF91CF911F910F9177
:101800000C947E0BCC3F0CF4CCEF60E0C6CF62E0D2
:10181000C4E1C3CFCEE0DDCFCC5FDCCF8091380414
:10182000877011F4CB305CF0C2302CF4C2E0C250AF
:10183000C068DBE0D0CFC231D4F3C1E1F8CFCBE058
:10184000F6CFD0E117E0CFE8C7CFAF92BF92CF92EB
:10185000DF92EF92FF920F931F93CF93DF938091CC
:10186000000490910104A0910204B09103049C0132
:10187000AD0160E070E080E090E003E10E94972B12
:10188000A12CE8E4BE2EF8EECF2EDD24D394E12C7B
:10189000F12C00E010E00E94032BC22FB32E6A014E
:1018A0007B01182FD92F00E10E94B22B622F86E016
:1018B0000E947E0B2C2F3B2DA601B701812F9D2F5F
:1018C00008E00E94B22B622F87E00E947E0B6C2FF3
:1018D00088E0DF91CF911F910F91FF90EF90DF9003
:1018E000CF90BF90AF900C947E0B1F93CF93DF935C
:1018F0006091380470913904162F1770CB0133E0D2
:10190000969587953A95E1F7D82FD370D13059F055
:1019100008F466C0D23009F465C066EC71E087E770
:1019200091E00E94AC05C0E8CB0125E09695879533
:101930002A95E1F78370823009F458C0833009F4A6
:1019400057C0813009F450C0C260672F77276115F6
:10195000710521F0C16082E20E947E0B6C2F8DE147
:101960000E947E0B60914404637060598FEF810F79
:101970008295807F680F8091380487FF64608EE1D4
:101980000E947E0B8BEF810F823010F4DD2391F1EA
:10199000163011F4D13071F164E086E20E947E0BC2
:1019A000C0E063E0D23081F48091000490910104A2
:1019B000A0910204B0910304CFE781349D4DAA4465
:1019C000BF4108F0C4E662E086E30E947E0BCC23B0
:1019D00099F06C2F8AE3DF91CF911F910C947E0BCD
:1019E000C0E7A2CFC0E9A0CFC460AFCFC660ADCF83
:1019F000C860ABCF6CE0D1CFDF91CF911F9108953C
:101A0000CF93DF93D82FC82FC77019F081E00E94C1
:101A1000B0076D2F81E00E947E0BC11105C080E0F0
:101A2000DF91CF910C94B007DF91CF910895809111
:101A3000000490910104A0910204B0910304813448
:101A40009D4DAA44BF4118F488E00C94000D80E03D
:101A5000FCCF8091000490910104A0910204B09108
:101A6000030481349D4DAA44BF4118F488E80C94C6
:101A7000000D80E8FCCFCF93C82F81E00E946C0B53
:101A8000887F8C2BCF910C94000DCF92DF92EF9238
:101A9000FF92CF93DF93D82F0E94290D81E00E94FF
:101AA0006C0B87FD06C06BE973E087E791E00E944D
:101AB000AC0581E00E943B0DD23009F07CC06AE0A9
:101AC0008DE10E947E0B60E78EE10E947E0B63E257
:101AD0008CE00E947E0B60E483E20E947E0B80918A
:101AE0004D05882309F46CC083E30E946C0B682FBA
:101AF0006F7B83E30E947E0B8091380490913904C0
:101B000023E0969587952A95E1F7C82FC37081E366
:101B10000E946C0B8877682F6360C23008F056C053
:101B200081E30E947E0B60E48FE20E947E0B60E402
:101B300080E30E947E0B609143048FE10E947E0B44
:101B400064E389E30E947E0B6CE080E40E947E0BDC
:101B50006FEF82E10E947E0BED2FF0E0E95FFC4F1A
:101B60006491609581E10E947E0B80E00E94DA071B
:101B700060E08DE00E947E0B60E08FE00E947E0BB3
:101B8000D11128C06091F8037091F9038091FA0394
:101B90009091FB030E9438076B017C0186E00E9454
:101BA0003B0DC701B601DF91CF91FF90EF90DF9021
:101BB000CF900C9451040E94750C0E94250C87CF85
:101BC00083E30E946C0B682F606493CF682F636877
:101BD00081E3AFCF85E0DF91CF91FF90EF90DF9071
:101BE000CF900C943B0DCF92DF92EF92FF92CF9368
:101BF000C82F81E00E946C0B877069E274E0C1F429
:101C000080913804877009F060C0C13041F41092AF
:101C1000CC048091E6039091E7030E94A1060E9404
:101C2000170D81E00E946C0B87FF06C062E074E034
:101C300087E791E00E94AC0581E00E943B0D0E9485
:101C4000250C63E28CE00E947E0B6EE18DE00E9429
:101C50007E0B6BE082E10E947E0B62E183E10E94D9
:101C60007E0B6AEA8FE10E947E0B6FEF81E20E9499
:101C70007E0B81E00E94910B68E380E40E947E0B62
:101C800080E00E94DA07C11118C06091F8037091DA
:101C9000F9038091FA039091FB030E9438076B01CE
:101CA0007C0185E00E943B0DC701B601CF91FF90FA
:101CB000EF90DF90CF900C94510485E0CF91FF908E
:101CC000EF90DF90CF900C943B0D8C2FCF91FF9035
:101CD000EF90DF90CF900C94450D40E150E061E72C
:101CE00073E081EB93E00C942F2A8FEF9FEF90939A
:101CF0001D0480931C0490931F0480931E049093F2
:101D000021048093200490932304809322048FEF76
:101D100090E09093250480932404E8E2F4E08CE0C2
:101D2000DF011D928A95E9F780E690E090933504F3
:101D3000809334048FEF8093490408956F927F92CB
:101D40008F929F92AF92BF92CF92DF92EF92FF92CB
:101D50000F931F93CF93DF93CDB7DEB760970FB686
:101D6000F894DEBF0FBECDBF7B018A01282F30E083
:101D7000277F2230310549F02430310509F4CBC0EA
:101D8000232B09F09FC0D12C98C083FD32C081E67F
:101D900093E00E94F40890E1692EFE0131966F01F4
:101DA00021E7822E23E0922E37E8732E01151105CC
:101DB00009F060C0609161037091620380916303D8
:101DC000909164030E949F2A60960FB6F894DEBF3C
:101DD0000FBECDBFDF91CF911F910F91FF90EF907C
:101DE000DF90CF90BF90AF909F908F907F906F903B
:101DF0000895E1E6F3E080E1DF011D928A95E9F7BD
:101E0000CACF01151105E9F5E62FF0E0EF59FC4FB7
:101E100080818058808311E0D601E62D1D92EA95DD
:101E2000E9F7C6010E94F4080981C6010E946C020C
:101E300007FF03C088898725888B112349F0198102
:101E4000C6010E946C0217FF03C088898725888B12
:101E5000F601D5018D915D019191119789278C93A0
:101E60008A149B04B1F710E000E081E693E00E9441
:101E7000F4089CCF81E6A82E83E0B82ED701950107
:101E800060E0F90181919F019D91AF01415051099D
:101E90008927FA0180836F5F7D010150110960314C
:101EA00009F0AFCF0115110501F710E0B5CF8E0D88
:101EB0009F1D0E94F408B0E1DB0E8D2D90E080178D
:101EC0009107A8F360E070E0CB017ECF80E1E1E60E
:101ED000F3E0DE01119601900D928A95E1F7CE01B3
:101EE00001960E94F408FE0131969701205F3F4F52
:101EF0009191D7018C9189278D937D010150110912
:101F0000A217B30719F00115110591F7809170031D
:101F10008F5F8093700301151105C1F6D3CF9091A7
:101F20007A03911106C06CE874E087E791E00E94A3
:101F3000AC05903141F440E150E06AE773E080E0A5
:101F40000E949E0E90E0E92FF0E0E658FC4F808161
:101F50009F5F90937A030895DF92EF92FF920F9321
:101F60001F93CF93DF936FE270E0009729F08136E3
:101F7000910530F061E370E08AEA91E00E94AC05DF
:101F8000C0914904D0E0CF3F11F4CFEFDFEFECE197
:101F9000F4E028E234E0DF0132961C968D919C91AA
:101FA0001D974D915C9184239523938782872E17EB
:101FB0003F0789F766E070E088E294E00E94F3044E
:101FC0007C01892B09F08FC08CE0ECE1F4E0A8E201
:101FD000B4E001900D928A95E1F766E070E088E246
:101FE00094E00E94F3047C01009709F4DDC041975E
:101FF00008F479C010E000E0CF3FDC0751F1C136B2
:10200000D1050CF070C09E012F70332781E090E065
:1020100002C0880F991F2A95E2F7FE0144E0F5956A
:10202000E7954A95E1F7EE0FFF1FE85DFB4F208132
:1020300031818C0102231323809590958223932371
:10204000918380830115110509F44FC070E1E71AEF
:10205000F1080E948F0FD82E0E948F0F9D2DB7017F
:1020600024E0769567952A95E1F70E94442A34E0AA
:10207000880F991F3A95E1F7E8E2F4E070E060E03C
:10208000219131912115310559F1A90156954795B5
:1020900045755575D901A41BB50BAD014373537339
:1020A000B695A795B695A795A373B3734A0F5B1F13
:1020B000DA01A07FB07F4F705F7042955295507FDC
:1020C0005427407F54274A0F5B1FDA01BB27452F57
:1020D00055274A0F5B1F8417950780F0841B950BCB
:1020E000605F7F4FCDCF10E000E0CFEFDFEFB1CFEB
:1020F000A901415051092423352340970097C1F786
:1021000044275527421B530B42235323CA0185758D
:10211000957521E030E0892B11F030E020E0CA0114
:1021200083739373892B09F447C090E080E0820F9A
:10213000931F9A012F703F70232B09F440C030E0A9
:1021400020E0820F931F30E020E0411102C028E020
:1021500030E0820F931F860F971FFC0144E0F69535
:10216000E7954A95E1F7EE0FFF1FE85DFB4FAC01E5
:102170004F70552721E030E0B90102C0660F771F8C
:102180004A95E2F7AB01208131812627352731833B
:102190002083CF3FDC07B1F497FD06C08034910562
:1021A0000CF4885F80934904DF91CF911F910F91C8
:1021B000FF90EF90DF90089582E090E0B8CF24E0A8
:1021C00030E0BFCF24E0D595C7952A95E1F7CC0F35
:1021D000DD1FC85DDB4F28813981022B132B19834A
:1021E0000883DACF80910C0490910D04A0910E0425
:1021F000B0910F04892B8A2B8B2B09F04BC0809157
:102200003A0490913B0410924A048E7C977A909302
:102210003B0480933A041092C904109250040E9427
:1022200083058FEF809349048091340490913504A5
:102230000E94AC0F0E94F5056093F4037093F503C0
:102240008093F6039093F70380913A0490913B04B6
:1022500093FF06C064ED70E08AEA91E00E94AC054D
:1022600010924E04E091C304EF3F91F0EF70F0E064
:10227000E151FD4FE491E0934D04846090933B0461
:1022800080933A0489E79FE10E94A10681E00895C6
:10229000E3E1F1CF80E00895CF92DF92EF92FF92D9
:1022A000CF93C82F0E948F0FF82E0E948F0F9F2D63
:1022B0006C01853224EF920720F024E2C21A24EF49
:1022C000D20AF12CE12CCC2369F06C2F0E94382A21
:1022D000292F30E0A4E2B4EF0E94A62AC60ED71E32
:1022E000E81EF91EC701B601CF91FF90EF90DF9075
:1022F000CF900895CF92DF92EF92FF926B017C0115
:10230000842F442331F00E944C11C60ED71EE81EC4
:10231000F91E80914A048823A9F0809104049091C9
:102320000504A0910604B0910704A7019601281B9B
:10233000390B4A0B5B0BDA01C901181619061A068C
:102340001B068CF4C0920404D0920504E0920604AB
:10235000F092070480913A0490913B04916090932D
:102360003B0480933A04FF90EF90DF90CF90089564
:10237000AF92BF92CF92DF92EF920F931F93CF93C2
:10238000DF93DC011A141B04A4F590E1E1E6F3E00D
:10239000EF01892F19928A95E9F7F1E0F093700324
:1023A000F0936103E09266034093670350936803E0
:1023B0006093690370936A0300936B0310936C033B
:1023C00020936D0330936E03FD01A1EBB3E0019008
:1023D0000D929A95E1F7A501B60184E0DF91CF91C6
:1023E0001F910F91EF90DF90CF90BF90AF900C9422
:1023F0009E0EDF91CF911F910F91EF90DF90CF90C4
:10240000BF90AF9008951F93CF93DF93CDB7DEB702
:102410002F970FB6F894DEBF0FBECDBF80E00E94AD
:102420003B0D0E94A5058091E2039091E303A091EA
:10243000E403B091E503892B8A2B8B2B09F047C06D
:1024400081E595E060EE73E00E947A040E9419062F
:102450008FE0E1EDF3E0DE01119601900D928A9597
:10246000E1F7E1EDF3E08EE791E0DF019C011D92E1
:1024700021503040E1F78FE0FE013196A1EDB3E04D
:1024800001900D928A95E1F70E948F0F182F0E94FC
:102490008F0F912F90933D0480933C0410923B0446
:1024A00010923A0410924F0480E88093C1040E9475
:1024B000830581E08093BE042F960FB6F894DEBFAB
:1024C0000FBECDBFDF91CF911F910C94750E8FE49D
:1024D00095E0B8CFCF93DF93EC01409728F460E309
:1024E00083E595E00E941C03BE0190E080E040E19E
:1024F000DF91CF910C9444082F923F924F925F92BC
:102500006F927F928F929F92AF92BF92CF92DF9203
:10251000EF92FF920F931F93CF93DF93CDB7DEB768
:10252000A8970FB6F894DEBF0FBECDBF7C010E9406
:10253000F5054B015C014AE0B7FE0DC06DE283E595
:1025400095E00E941C0366277727CB01681979095B
:102550008A099B094AE00E9444088DEE92E00E949D
:102560002708F7013197E431F10508F0BCC3E554C1
:10257000FD4E0C94992ACF12EB12EE12F112F412C6
:10258000F712731691139413971307140A140D146A
:1025900010141314731616146D166E13701681E54D
:1025A00092E0A8960FB6F894DEBF0FBECDBFDF91C4
:1025B000CF911F910F91FF90EF90DF90CF90BF9040
:1025C000AF909F908F907F906F905F904F903F90D3
:1025D0002F900C94380881E492E0E3CF80E392E0FE
:1025E000E0CF8EE192E0DDCF83E192E0DACF89E0C7
:1025F00092E00E9438088090080490900904A0900E
:102600000A04B0900B04C0900C04D0900D04E0902C
:102610000E04F0900F0480E1EBEAF4E0DE01119685
:1026200001900D928A95E1F780E1EBE9F4E0DE019B
:10263000519601900D928A95E1F784EE91E00E9407
:1026400027084AE0C501B4010E9444080E943408EA
:102650008CEE91E00E94270840E1C701B6010E947C
:1026600044080E94340886EF91E00E9427088E01FA
:102670000F5F1F4FF12CE12CF80181918F0190E049
:102680000E946A12FFEFEF1AFF0A20E1E216F1043E
:10269000F1F58FEC92E00E9427080E94340882E056
:1026A00092E00E9427087E0131E1E30EF11C10E068
:1026B00000E0F70181917F0190E00E946A120F5FB4
:1026C0001F4F0031110541F50E9434081092BD04DE
:1026D00080E89FEF90933F0480933E04A8960FB646
:1026E000F894DEBF0FBECDBFDF91CF911F910F9148
:1026F000FF90EF90DF90CF90BF90AF909F908F9022
:102700007F906F905F904F903F902F90089580E062
:1027100092E00E942708B0CF80E092E00E94270854
:10272000C8CF8AEF91E03DCF89EE91E03ACF89EBB7
:1027300091E00E9438088091CA0487FF04C08CEAA7
:1027400091E00E9438088091CC048823D1F182EA7C
:1027500091E00E9469036091CC0470E090E080E019
:102760004AE00E9444088EE891E00E94690382E6F4
:1027700091E00E94690310E000E06CE0E62E62E068
:10278000F62E8091CC0480171106C9F0C4F0E091B8
:10279000CB04C8018F529C4FE80FF92FF11DE45074
:1027A000FF4F80811F928F93FF92EF920E94DF2B49
:1027B0000F5F1F4F0F900F900F900F90E2CF0E946E
:1027C00034080E94F505AB01BC0148595647664FD5
:1027D0007F4F23E831E28BE993E0A8960FB6F89497
:1027E000DEBF0FBECDBFDF91CF911F910F91FF9044
:1027F000EF90DF90CF90BF90AF909F908F907F90A1
:102800006F905F904F903F902F900C94E00684E57E
:1028100091E0C7CE8BE491E0C4CE8DE391E0C1CED0
:1028200080E391E0BECE82E291E0BBCE87E191E011
:102830000E9438087090CC04772009F44FCFA09004
:102840003804B09039048A2D877096E0E92EE80E9E
:10285000950143E0369527954A95E1F72370C50128
:1028600055E0969587955A95E1F7837030904D0421
:10287000C0901404D0901504F1E0CF1AD10805E0FF
:10288000F02E882351F016E0F12E813031F0B8E0BF
:10289000FB2E823011F487E0F82E222349F0AAEFB4
:1028A0009A2E213039F0E4EF9E2E8824839403C0C1
:1028B000FDE79F2E812CA0900004609001045090B1
:1028C0000204409003040E94F5051F92BF92DF921C
:1028D000CF921F92FF928F929F921F923F921F92D0
:1028E000EF921F927F924F925F926F92AF929F935F
:1028F0008F937F936F9381E192E09F938F930E94D8
:10290000DF2B80914C041F928F938EE592E09F9372
:102910008F930E94DF2B81E191E00E946903609117
:10292000550470E090E080E04AE00E9444088DEC9D
:1029300090E00E9469030FB6F894DEBF0FBECDBFD2
:10294000F12CE12C7CE0C72E72E0D72E809155044B
:102950008E151F04D1F0CCF0E091CB04C7018F524B
:102960009C4FE80FF92FF11DEB57FF4F80811F920D
:102970008F93DF92CF920E94DF2B3FEFE31AF30A8F
:102980000F900F900F900F90E1CF0E94340880ECD1
:1029900090E00E9469036091CC0470E090E080E0D8
:1029A0004AE00E94440888EA90E00E946903F12C02
:1029B000E12C6CE0C62E62E0D62E8091CC048E1500
:1029C0001F04D1F0CCF0E091CB04C7018F529C4F93
:1029D000E80FF92FF11DE450FF4F80811F928F9374
:1029E000DF92CF920E94DF2B4FEFE41AF40A0F9090
:1029F0000F900F900F90E1CF0E9434082091CC04EB
:102A00006DEC74E07CA36BA390E080E01AA219A2A5
:102A1000E22FF0E0F8A7EFA32FA138A549A15AA112
:102A2000421753070CF041C1EBA1FCA12191FCA37B
:102A3000EBA3022E000C330B6C014CE0D594C79431
:102A40004A95E1F7A92EBB24A7FCBA94AC24BD2477
:102A5000350162267326F1E06F2277247C016DE058
:102A6000F594E7946A95E1F72C01452C550C55082F
:102A700045944E245F244901959487948424952499
:102A8000880C991C42E08422992486289728DC012E
:102A9000BB0FAA0BBB0FBA2FAA1F1C01232C330C90
:102AA0003308259425942A263B26F901F595E795C8
:102AB000F595E795E225F325EE0FFF1FEE0FFF1FBB
:102AC000E470FF27E80DF91D092F001F0027001FE4
:102AD00010E03C016BE0759467946A95E1F7A301FF
:102AE000417055274027512723FB662760F96DA3C6
:102AF0001EA26DA17EA14627572773E0440F551FE4
:102B00007A95E1F74E0F5F1FB901E4E0759567957F
:102B1000EA95E1F76C257D25F4E0660F771FFA95BD
:102B2000E1F760717727460F571FF501EE25FF2566
:102B3000B901689414F8759567951694E1F76E27B6
:102B40007F27E5E0660F771FEA95E1F76072772748
:102B5000640F751FA2014A275B27F901689415F8D5
:102B6000F595E7951694E1F74E275F27E6E0440FC9
:102B7000551FEA95E1F740745527640F751F410111
:102B8000E1E08E229924802691262227330F221FEE
:102B90003327282539253695322F22273795279533
:102BA000260F371FB30168277927617077276027C1
:102BB0007127762F6627620F731F9C013595279525
:102BC000C226D326DC2CCC24DD0CCC24F2E0DF2280
:102BD0006C0D7D1DAC0155954795559547954E2536
:102BE0005F25542F4427550F550F44275470640F09
:102BF000751FFC0143E0F595E7954A95E1F7EA2753
:102C0000FB27FE2FEE27FF0FFF0FFF0FEE27F870B9
:102C10006E0F7F1F9C01E4E035952795EA95E1F75B
:102C2000A226B32621E0A222BB24A026B126BA2CDC
:102C3000AA24B294F0EFBF226A0D7B1D9C01A5E08F
:102C400035952795AA95E1F724253525322F22279A
:102C50003295330F307E22273072620F731FAC0122
:102C600026E0559547952A95E1F74225532550E4EE
:102C7000459F502D4427112444275074640F751F1D
:102C8000880F892F881F990B8625972580279127E4
:102C90009927869597958827860F971F49A15AA14E
:102CA0004F5F5F4F5AA349A3B7CE9F938F939F93D4
:102CB0008F9382E792E09F938F930E94DF2B1F9266
:102CC0001F9289EA92E09F938F930E94DF2B0FB6A9
:102CD000F894DEBF0FBECDBF01CD8AE990E061CC94
:102CE00088E790E05ECC88E690E00E946903B70137
:102CF00090E080E04AE00E944408A8960FB6F8945D
:102D0000DEBF0FBECDBFDF91CF911F910F91FF901E
:102D1000EF90DF90CF90BF90AF909F908F907F907B
:102D20006F905F904F903F902F900C943408CF920B
:102D3000DF92EF92FF92CF93DF93EC01C12CD12C65
:102D40007601C3940C2E04C0CC0CDD1CEE1CFF1CC1
:102D50000A94D2F7E3FC03C0CE010E947C12D70193
:102D6000C60188279472AA27BB27892B8A2B8B2B15
:102D700001F1E091D503F091D6033097D1F0209185
:102D8000CC044091CB04211102C0442391F08091E6
:102D9000CA0450E060E084FF04C0DA01A453BB4FD2
:102DA0006C9130E043535B4F8091D7039091D803EF
:102DB0000995CC2484E0D822E822FF24CD28CE280F
:102DC000CF2819F1E091D903F091DA033097E9F0B7
:102DD0001092DA031092D903C231D10541F18091EA
:102DE000CA0483FD24C09091540461E0992339F012
:102DF000082E000C990B692F661F6627661F70E06E
:102E00008091DB039091DC030995E091D103F0916F
:102E1000D203309771F0BE018091D3039091D40317
:102E2000DF91CF91FF90EF90DF90CF90099460E019
:102E3000E6CFDF91CF91FF90EF90DF90CF90089594
:102E400082E08093CA04E091C504F0E0E050FD4FB9
:102E5000E491F0E0EF77E068F0933904E093380410
:102E60008091180490911904A0911A04B0911B0448
:102E70008093000490930104A0930204B093030490
:102E80001092CC0483E190E00E94971680E00C94AD
:102E9000F30D83E796E29093E7038093E6030C94A7
:102EA000201785E791E29093E7038093E6030C9463
:102EB000201721E02093CA04E8E3F4E02081318167
:102EC0002068318320831092CC049093E703809391
:102ED000E60383E190E00E94971680E00C94F30DE6
:102EE0008CE596E20C94591782E691E20C945917FE
:102EF0002F923F924F925F926F927F928F929F920A
:102F0000AF92BF92CF92DF92EF92FF920F931F93F7
:102F1000CF93DF93CDB7DEB72A970FB6F894DEBF15
:102F20000FBECDBF809140048111A6C681E0809381
:102F3000400480913A0490913B049C01217C33270A
:102F4000232B81F440910C0450910D0460910E04E8
:102F500070910F04452B462B472B21F582FD2EC087
:102F60000E94F210809140048150809340048111AE
:102F7000E0CF2A960FB6F894DEBF0FBECDBFDF912B
:102F8000CF911F910F91FF90EF90DF90CF90BF9066
:102F9000AF909F908F907F906F905F904F903F90F9
:102FA0002F90089596FF0AC09F7B90933B048093D7
:102FB0003A0486E89EE10E94A106D4CF0E94F5055E
:102FC0006B017C0100913A0410913B04C8018C73A1
:102FD0009927892B09F445C613FF6DC180913404EC
:102FE00090913504009711F00E94AC0FC092F40349
:102FF000D092F503E092F603F092F70380913A0441
:1030000090913B04977F90933B0480933A04B701DF
:10301000A60180914A04811106C080913A049091E2
:103020003B0490FF12C08091040490910504A0918C
:103030000604B09107044A015B01881A990AAA0A9A
:10304000BB0AB7FE02C0AC01BD0121E7C20E22E0FF
:10305000D21EE11CF11CDB01CA018C199D09AE09CD
:10306000BF09B7FFEAC530914E04398704721127B2
:10307000012B09F42EC180913A0485FF09C0C0904C
:103080005004C9822981215029832F3F09F01CC196
:103090001092CD0448E050E061EE72E08EEC94E0D6
:1030A0000E942F2A48E050E069ED72E086ED94E03E
:1030B0000E942F2A90913C0480913D049093DE045D
:1030C0008093DF040E946D0E43E150E06DEC74E0EC
:1030D0008AE00E949E0E6093E3047093E204809362
:1030E000E1049093E00487E18093CC0480913C0458
:1030F00090913D04019690933D0480933C048EEEA4
:103100009AE09093E7038093E6039985E92FF0E036
:10311000E050FD4FE49180914F04F0E28F9FC00199
:103120001124EF798E2B9093390480933804C9844D
:10313000C092450480913A0490913B048F76967F2B
:103140008068986090933B0480933A04A09149046E
:10315000A03670F5B0E020E43DE043E050E00E948E
:10316000BC2A8B019C01005A1A4C274F334E003663
:103170004FE9140740E224074CE1340708F038C453
:10318000605A764A8340934E609300047093010422
:103190008093020490930304E091C304EF3F09F489
:1031A000A5C4EF70F0E0E151FD4FE491E0934604D7
:1031B00090914D048091460498170CF4892F8093C8
:1031C000470481E190E00E9497161092F403109258
:1031D000F5031092F6031092F70381E00E946C0B46
:1031E000877059F080E00E943B0D0E94F505625CFB
:1031F0007F4F8F4F9F4F0E943807C090FC03D090A5
:10320000FD03E090FE03F090FF031C141D041E0458
:103210001F040CF06DC481E00E94450D80910004F4
:1032200090910104A0910204B091030403E61FEF02
:1032300081349D4DAA44BF4110F40CE51FEFE0918D
:10324000AF03F091B0038781080F111D87FD1A9518
:103250000E94F505615E7F4F8F4F9F4F0E94380798
:103260000E94F5051982C60ED71EE81EF91E8BE1D5
:103270000E946C0B9981981708F489830E94F505C8
:103280006C197D098E099F0997FDF1CF80E00E949E
:103290003B0D80914804082E000C990BC980C00E8C
:1032A000D12ED11CC816D9060CF422C48091E60395
:1032B0009091E70380CE4091F4035091F503609123
:1032C000F6037091F703A5CE89850E94FA0A8987D3
:1032D000D9CE8091100490911104A0911204B09164
:1032E000130480389F4FAF4FBF4F18F08CE79EE11B
:1032F00062CE8091C90481110DC080911404909117
:103300001504A0911604B09117048F3F9F4FAF4F43
:10331000BF4F61F3E0903A04F0903B0458E1E5229E
:10332000FF2470E1E716F10409F494C1A09055045C
:1033300080915304882309F48FC180918B048823E2
:1033400009F48AC1C0908A04CC2009F485C10C2DEF
:1033500010E0A8016CE874E085ED94E00E94D62BA3
:10336000085F1F4F10928A0410928B042091C604AC
:10337000222331F026FF73C180E428272093C6045E
:103380002091C704222331F026FF79C180E4282749
:103390002093C7048091C804823009F080C181E085
:1033A0008093C804093111050CF001C38091BD045C
:1033B000882361F080913E0490913F0497FF04C000
:1033C00090E080E00E9442051092BD048A2C912C6E
:1033D00025E0820E911CF0E1EF16F10419F4E4E00F
:1033E0008E2E912C800E911E31E4831691040CF0E8
:1033F00061C121E040E1E416F10409F420E0E0912C
:103400004E04E63008F05BC1F0E0E751FD4FE49177
:10341000E815190408F4CBC280E48093CD048091B0
:10342000BB043091C104382B80913E0490913F043D
:1034300097FD47C18197803B924008F442C190E4D8
:1034400088EF800F832B892B8093D20440910C044A
:1034500030910D0490910E0480910F044093CE049E
:103460003093CF049093D0048093D1043091C90459
:10347000311117C080915104811113C0809114043F
:1034800090911504A0911604B09117040196A11D06
:10349000B11D8093140490931504A0931604B09367
:1034A0001704809114049091150401978093D3041C
:1034B0009093D4041092BB042223D9F18091540438
:1034C000882309F400C180E88093CD04311103C042
:1034D00081E08093C904F801E353FB4F80915304CA
:1034E0008083C80182539B4F6C01B12CA50166E516
:1034F00074E00E94D62B00911404109115042091C1
:103500001604309117040150110921093109409125
:103510000C0450910D0460910E0470910F04809181
:1035200053048111DDC08BE994E0F12CE12C0E9461
:10353000B81184010450110980911404909115046C
:10354000A0911604B09117040197A109B1096091E7
:103550000C0450910D0440910E0430910F0420E1B1
:10356000E1E6F3E0C22E1192CA94E9F779E4709390
:103570006103109266030093700360936703509396
:1035800068034093690330936A0380936B039093BD
:103590006C03A0936D03B0936E03EBE9F4E0A1EB31
:1035A000B3E001900D922A95E1F7A8016DEC74E06B
:1035B00082E00E949E0EF801E353FB4F6383728307
:1035C000818390838092CC049F928F9220ED32E091
:1035D0003F932F930E94DF2B0F900F900F900F902F
:1035E00010E000E08091CC048017110611F00CF07F
:1035F0007AC08AE090E00E94F52B2091CC044DEC3B
:1036000054E05C834B8390E080E01A821982E22FC1
:10361000F0E0F887EF83C980DA802F813885C21601
:10362000D3060CF47AC09F938F939F938F9340EFB0
:1036300052E05F934F930E94DF2B83ED9AE09093CB
:10364000E7038093E6030F900F900F900F900F9079
:103650000F905BCDA12C71CE08E010E083CEC801A5
:103660008F529C4FFC01E450FF4F35E03083835074
:103670009F4F2770FC0120830E5F1F4F81CEC80132
:103680008F529C4FFC01E450FF4F3AE0308383504F
:103690009F4F2370FC0120830E5F1F4F7BCE88233A
:1036A00009F480CEF801E353FB4F88E080830F5F7D
:1036B0001F4F78CE480154E0850E911C9FCEE0E06C
:1036C000A7CE90E0BDCE80914C04882309F403CFAF
:1036D000809151048111FFCE81E080935104FBCE93
:1036E0008BEA94E022CFE091CB04C8018F529C4F2B
:1036F000E80FF92FF11DE450FF4F80811F928F9347
:103700008CE092E09F938F930E94DF2B0F5F1F4FFF
:103710000F900F900F900F9065CFEB81FC81C190BF
:10372000FC83EB83CA867C012CE0F594E7942A9510
:10373000E1F7692F772767FD7A956E257F25EC2DB8
:103740000C2C000CFF0BE627F7279F012170332775
:103750008C0108E01002012D110B11244C01892C61
:10376000990C99088594802691264C2D4595042E18
:10377000000C550B48255925440F551F42705527FD
:10378000242B352BDC01BB0FAA0BBB0FBA2FAA1FB2
:103790005C01AB2CBB0CBB08A594A594AA26BB2648
:1037A0004C2D45954595042E000C550B4A255B255F
:1037B000440F551F440F551F44705527420F531F88
:1037C000492E441C4424441C512CFC01E0E2FE021E
:1037D000E12DFF0B1124C3FADD24D0F8DD821E8217
:1037E0009F012170332724253525CD80DE802C25AF
:1037F0003D25220F331F220F331F220F331F420F8D
:10380000531F2A852595259525952595022E000C73
:10381000330B2E253F2522953295307F3227207F8E
:10382000322720713327240F351FA8014627572739
:10383000CA84C594C594C594C594C5940C2C000C39
:10384000DD084C255D25689414F8440F551F169427
:10385000E1F740725527420F531F2A8526FB220F9E
:10386000220B20F9022E000C330B6D01C824D92441
:103870002C253D25689415F8220F331F1694E1F787
:1038800020743327240F351FA50141705527442587
:103890005525DA84DD1CDD24DD1C4D255695542F7D
:1038A000442757954795420F531F9F0128273927D3
:1038B0002170332724253525322F2227240F351F49
:1038C0006C01D594C794EC24FD24FE2CEE24FF0C4F
:1038D000EE2442E0F4222E0D3F1D3C0175946794C6
:1038E0007594679460267126762C6624770C770C85
:1038F000662454E07522260D371D1C0113E0359413
:1039000027941A95E1F72A263B26322C2224330CE1
:10391000330C330C222448E03422220D331DAC0139
:10392000A4E055954795AA95E1F76427752761703E
:10393000772764257525762F66277295707F260F69
:10394000371FAC0115E0559547951A95E1F74825C5
:103950005925542F44275295550F507E44275072B5
:10396000240F351F8C0146E0159507954A95E1F720
:103970000A251B2510E4019F102D00271124002784
:103980001074200F311F880F892F881F990B8E27E5
:103990009F27842595259927869597958827820FB7
:1039A000931FE981FA813196FA83E98334CE88E066
:1039B0008093CA0480915404811104C08091C90489
:1039C000882319F088E48093CA0480913A04909186
:1039D0003B0487769E7F90933B0480933A04109239
:1039E000CC041092CB048AE090E00E949716BACAE9
:1039F000003659E0150759E325075CE1350728F43F
:103A0000605A70418C41934EBFCB0036E3E71E07EE
:103A1000E1E52E07ECE13E0728F4605A7A4784433B
:103A2000934EB2CB0036FDED1F07F9E62F07FCE100
:103A30003F0728F4605A744E8C44934EA5CB003651
:103A400047E4140742E824074CE1340728F4605A9D
:103A50007E448546934E98CB003651EB15075AE9C4
:103A600025075CE1350728F4605A784B8D47934E63
:103A70008BCB0036EBE11E07E3EB2E07ECE13E07B4
:103A800028F4605A72428649934E7ECB0036F5E8A0
:103A90001F07FBEC2F07FCE13F0728F4605A7C4826
:103AA0008E4A934E71CB00364FEE140743EE240737
:103AB0004CE1340728F4605A764F864C934E64CB21
:103AC000003659E515075CEF25075CE1350728F45A
:103AD000605A70468F4D934E57CB0093000410935D
:103AE0000104209302043093030456CBE3E15ECB40
:103AF00080913804877009F06AC00E94170D81E038
:103B00000E943B0D80E00E94910B60E085E20E94E4
:103B10007E0B65E086E20E947E0B0E94250C0E94CF
:103B2000BE0B69E28AE00E947E0B64E380E40E949F
:103B30007E0B6091CC046F5F82E30E947E0B6091EC
:103B4000CC0480E00E947E0B4091CC0450E020E049
:103B50006DEC74E080E80E94030B81E00E94DA07BC
:103B60006091F4037091F5038091F6039091F7034F
:103B7000611571058105910531F10E9438076115C4
:103B8000710581059105F9F00091EE031091EF03A5
:103B90002091F0033091F103DC01CB01800F911FE4
:103BA000A21FB31F8093EE039093EF03A093F00343
:103BB000B093F1038091F2039091F30301969093F7
:103BC000F3038093F20383E00E943B0DCBC90E9474
:103BD000290D81E00E946C0B87FD06C061E273E055
:103BE00087E791E00E94AC0581E00E943B0D0E94B6
:103BF000750C0E94250C68E08AE00E947E0B0E94F2
:103C0000BE0B64E389E30E947E0B6CE780E40E94B4
:103C10007E0B6FEF82E10E947E0B67EF81E10E94D5
:103C20007E0B60E08EE00E947E0B60E08DE00E94E3
:103C30007E0B6091CC0482E285CF80913A0481FFB3
:103C400005C0411551056105710589F04157524084
:103C5000610971092AE93EE180EE93E00E94E006E5
:103C600081C940E050E0BA0101FDF0CF7BC941E0DD
:103C700050E060E070E0EACF82E08093400479C9D0
:103C800080913A0490913B0483FF35C01092550413
:103C900082FF2CC0877E90933B0480933A0482E19C
:103CA00090E00E94971680913A0490913B048570B1
:103CB0009927892B01F50E94A5058091E203909137
:103CC000E303A091E403B091E503892B8A2B8B2BAE
:103CD00079F481E595E060EE73E00E947A040E9439
:103CE000190680E00E943B0D0C9478178776D3CF9D
:103CF0008FE495E0F0CF08950E94401E0E940312C9
:103D00008CE090E00E9497160C94F210EAE3F4E045
:103D1000808191818E7D9F7B9183808310920C04A2
:103D200010920D0410920E0410920F040E94401E77
:103D30000C94F2100C947817CF9380913A049091E0
:103D40003B04877790933B0480933A04109251048C
:103D50001092C90420918A04222351F030918B04DF
:103D6000332309F466C0806190933B0480933A0446
:103D70000E94F5056E5E75488F4F9F4F40E00E9490
:103D80007A118091CA04877079F080913A049091F9
:103D90003B0494FF09C09F7E90933B0480933A04B8
:103DA0008FE090E00E9497168AE090E00E949716BC
:103DB0000E94781780913E0490913F048197B4F15E
:103DC00080914E040E94FA0AC82F20913404309149
:103DD000350480914E042730310508F4C82F8C1328
:103DE00032C080913E0490913F04813F92404CF05C
:103DF00080913A0490913B04906490933B048093AB
:103E00003A0463E18C2F0E94250580913A04909139
:103E10003B049C01306130933B0420933A04281703
:103E2000390721F08EE090E00E94971681E0CF9153
:103E30000895109254041092530420935504109244
:103E40008A04886091CFCC23E1F290E080E00E9468
:103E50004205D7CF8091C9048823B1F1883020F57D
:103E60008F5F8093C90480FF07C080914E040E9439
:103E7000FA0A60E80E9425056091F8037091F90341
:103E80008091FA039091FB0343E00E947A118091A4
:103E90003A0490913B048F7790933B0480933A04CB
:103EA0000E94781781E0089580E68093CA0480918B
:103EB0003E0490913F0401960E9442051092CC046A
:103EC0001092CB040C949C1E80915104882379F0AD
:103ED00090914C04891758F48F5F809351040E948D
:103EE000F5056E5E75488F4F9F4F40E0CECF80E264
:103EF000DCCF80915204882341F00E94750E85E04A
:103F000090E00E9497160C94781781E080935204F9
:103F1000F6CFCF92DF92EF92FF92CF93DF93809113
:103F20003A0490913B0482FD22C085FD0DC08F773D
:103F300090933B0480933A0481E0DF91CF91FF900E
:103F4000EF90DF90CF9008958F7590933B0480930E
:103F50003A04809150048A3018F48F5F80935004A3
:103F600089E090E00E9497160E947817E5CF8F773E
:103F700090933B0480933A0484E190E00E9497166A
:103F800080914B04809349048091340490913504CE
:103F90000E94AC0F8091C9048F5F8093C904C82F21
:103FA000C77010924E0480913A0490913B04977F21
:103FB00090933B0480933A040E94F5056B017C01C9
:103FC00020914E0480E190E002C0959587952A9556
:103FD000E2F70E944C11C60ED71EE81EF91EC092D1
:103FE000F403D092F503E092F603F092F703C12CAC
:103FF000D12C7601C394CC2399F0C12CD12C76011D
:10400000CAE9DEE10E94F505AB01BC014C0D5D1D66
:104010006E1D7F1D9E0180EE93E00E94E0068CCF16
:10402000CDE7D1E2EFCF8091CA0480FF0C94891FC5
:1040300080E00895CF92DF92EF92FF920F931F934B
:10404000CF93DF938091CA0480FF05C08091CC0498
:10405000882309F42DC180913A0490913B0487FF95
:1040600011C184729927892B51F4DF91CF911F914F
:104070000F91FF90EF90DF90CF900C941320109150
:10408000CC0411110AC0DF91CF911F910F91FF90C5
:10409000EF90DF90CF900C94891F113111F0113205
:1040A00021F78091CD04837E8032F9F6C12FD0E0D4
:1040B0000E946D0EAE01415051096EEC74E080E03B
:1040C0000E949E0E0E946D0E2497AE016DEC74E06E
:1040D0008AE00E949E0E6B017C01C353DB4F688116
:1040E00079818A819B810E949F2AC616D706E8069D
:1040F000F90609F0BACF84ED94E00E949705609329
:104100000C0470930D0480930E0490930F0481EDC2
:1041100094E00E949705992760930804709309041E
:1041200080930A0490930B041132D1F48091E90436
:104130008130B1F49AEDE92E94E0F92EC0E0D70178
:1041400011960C9111978C91102F082FD0E1DC0F54
:10415000DC139AC0B2E0EB0EF11CCD2FD03679F70C
:1041600080913C0490913D040197E3EAF4E028E05B
:10417000DF011D922A95E9F721E020939B0426E0B8
:10418000EEECF4E0ACE9B4E001900D922A95E1F791
:104190008093A2049093A30480E1EBE9F4E0ABEAFE
:1041A000B4E001900D928A95E1F782E08093AB0430
:1041B0000E946D0E40E150E06BE974E080E00E94E7
:1041C0009E0E0E946D0E40E150E06BEA74E080E0CC
:1041D0000E949E0E80913A0485FF09C0C091500450
:1041E00080914E04C15008F05EC080934E048091CF
:1041F0003A0490913B0489759D7F986090933B04AD
:1042000080933A041092C904109214041092150479
:1042100010921604109217041092100410921104B8
:104220001092120410921304109250041092BD04C4
:104230001092BC041092BB0410924C0410925104D2
:104240001092C6041092C8041092C2040E94830502
:1042500080EC9FEF0E9442058091D804982F9F70B8
:104260009093C504829587708093C4048091D9048B
:104270008823E1F08093BE0486E090E00E949716C8
:104280000E94781781E015C0C03609F463CF8C2FE7
:1042900000FF06C00E949104CF5F1695079558CF86
:1042A0000E94C104F9CF0E94FA0A9CCF81E0E2CFBC
:1042B00080E0DF91CF911F910F91FF90EF90DF9001
:1042C000CF9008958091CC0481110AC02091C5043B
:1042D00041E557E168ED78EB85E090E00C942A0A1F
:1042E0000E941A20882391F308958091CC048111B3
:1042F00002C01092CA040C941A2088E090E00E9438
:1043000097160C94781780913A0490913B0487FF9C
:1043100004C081E692E00C9438088C799927892BA7
:10432000E1F430914E044091340450913504832FD0
:1043300090E04730510588F0863078F4FC01E75171
:10434000FD4FE491EE2349F0EA3190F5FC01EF5F77
:10435000FC4FE4910196EF3F61F780913A04909110
:104360003B049C012C793327232BF9F42DE0E0E06A
:10437000F1E0A6E5B4E001900D922A95E1F71092E4
:10438000540421E0209353042DE0209355049C0114
:10439000286030933B0420933A0482FD04C01092BD
:1043A000C904109251040E9478178AE792E0B3CFB3
:1043B000381799F260E80E942505CFCF2F923F92DF
:1043C0004F925F926F927F928F929F92AF92BF9225
:1043D000CF92DF92EF92FF920F931F93CF93DF93D1
:1043E000CDB7DEB76C970FB6F894DEBF0FBECDBF6A
:1043F000998F888F3B0110928A04452B09F5109202
:104400008B04F12CE12CE614F704F4F0C7016C9650
:104410000FB6F894DEBF0FBECDBFDF91CF911F91D5
:104420000F91FF90EF90DF90CF90BF90AF909F9053
:104430008F907F906F905F904F903F902F90089556
:1044400081E080938B04DDCFC88CD98CCE0CDF1C2F
:10445000F6012081223050F1422F4250550BFA01D3
:104460004231510518F5EE56FD4FE4918E2F90E044
:104470009D8B8C8B892B51F2C3018E199F09EC897E
:10448000FD898E179F070CF4C1CF2250283080F48D
:10449000E22FF0E0E25BFD4D0C94992A5922612253
:1044A0002424AD238123582216243524E0E0DECFD6
:1044B0003701EC89FD89EE0DFF1D730137017F0186
:1044C000A2CFD60107E01B8A1A8A2A893B892B5F73
:1044D0003F4F49019C014A895B89241B350B2530DC
:1044E00031050CF493C011962C91119712964D91B1
:1044F0005C91139714963C9114973077E22FE295D4
:10450000EF70303558F0303509F078C0411551055D
:1045100009F47AC04427452B09F076C0E63030F420
:10452000F0E0E050FD4FE491EF3F09F40D7F2F7074
:10453000283038F4E22FF0E0EF52FD4FE491E038FC
:1045400009F40B7F15962C91233009F454C08CE0AC
:10455000ECE1F4E0DE01119601900D928A95E1F70D
:1045600080913404909135049B8F8A8F412C10E008
:10457000073009F077C09F8A8E8A160181E0412CAE
:1045800010E0EE89FF8935970CF469C0F101A28033
:10459000B38011814480F42DF077F98BF035D9F593
:1045A000512C852DA0FE34C00E94D6055394B6949C
:1045B000A79428E05212F5CF2091340430913504AD
:1045C0004E895F89455051095F8B4E8B55E0250E12
:1045D000311C81E02115310509F480E0A1014C195D
:1045E0005D09481559056CF2232BD9F1A12EA2942F
:1045F0008FE0A8223DC09B8A8A8A67CF303609F4B3
:1046000089CF303709F482CF0E7F88CF00E09FCF6B
:104610000E94AF05CBCF8989803578F4805F8C8F7D
:104620005988FC8D5F1640F6852DA0FE15C00E94AE
:1046300091045394B694A794F4CF512C9989852D65
:10464000903639F40E9491045394E0E65E12F6CF5E
:10465000E8CF0E94C104F8CF0E94C104EACF8111C3
:1046600001C006E0A12EA2947FE0A722073041F40A
:10467000809134049091350407E0079780F405E0B9
:104680008CE0FE013196ACE1B4E001900D928A9588
:10469000E1F72A8D3B8D3093350420933404BB24FD
:1046A000B394D12CC12CC4018C199D0905976CF0D1
:1046B000602F83E00E946D05B82E35E0C30ED11C3B
:1046C000C814D90414F48111EECF073099F4842D65
:1046D0008F7090914C04891380934C041F7060E894
:1046E000183028F4E12FF0E0EF52FD4F64918A2D4D
:1046F0000E9425054A895B89E40EF51EBB2001F165
:10470000D8CE20914204022E000C330BC901029630
:1047100097FD03969595879595958795182F1F7307
:104720004F970CF01FE11093C004D090DF0300916D
:104730008A0486E00E944E05811104C000938A0419
:10474000F701BCCE8D2D0E944E058823B9F3812F31
:104750000E944E05882391F3ACCEC7010196E88DE7
:10476000F98D8E0F9F1FFC012081122F1F7030E0EA
:1047700044E0359527954A95E1F7022F07700E948E
:104780009705272F382F492F5527A4E6B0E00E9420
:10479000BC2A4B015C01F0E88F1AF1EA9F0AF3E0B2
:1047A000AF0AFCE1BF0A21E082162AE5920622E662
:1047B000A20622E0B20618F060E070E0CB0130EC17
:1047C0003093C604163050F4E12FF0E0E050FD4F76
:1047D000E491EF3F19F042EC4093C6046115710576
:1047E0008105910529F02091C60421602093C6041B
:1047F000043028F42091C60424602093C60420913C
:10480000C604273C61F41093C504609318047093A8
:10481000190480931A0490931B040093C404622F1C
:10482000677085E00E946D05B82E68CFF601818122
:104830008F7009F481E08093BE04F2E0F093C80425
:1048400088E00E944E05F0CFF60181818F70809341
:104850004A040E94F5056093040470930504809354
:1048600006049093070484E0ECCFF60181818F73F6
:104870008093C30489E0E5CF2F923F924F925F92DD
:104880006F927F928F929F92AF92BF92CF92DF9260
:10489000EF92FF920F931F93CF93DF9300D000D03E
:1048A00000D0CDB7DEB780913A0487FFE5C1F09024
:1048B000CC04F1101AC026960FB6F894DEBF0FBED6
:1048C000CDBFDF91CF911F910F91FF90EF90DF90BF
:1048D000CF90BF90AF909F908F907F906F905F90A0
:1048E0004F903F902F900C942A1F2F2D30E03E8345
:1048F0002D832C30310544F41092CC048091CA04ED
:1049000080FFD9CF80E0B9C18091CD04982F9370FA
:1049100099F7807E8983803611F0803A69F78EECB2
:1049200094E00E94970500910C0410910D042091D1
:104930000E0430910F046017710782079307E1F6A8
:104940003091D2043B833F70E32EC32ED12C16014D
:10495000A8E02A0E311C2D813E81245031093E836E
:104960002D832215330544F288248A94982C22162C
:1049700033064CF4F101E353FB4F2081822E912C3E
:10498000D60119961D0140901004509011046090BA
:104990001204709013040091D3041091D4040419EC
:1049A00015090F3F100709F078C021E0421A51089D
:1049B0006108710820E1E1E6F3E0DF01322F1D928A
:1049C0003A95E9F739E43093610331E030936603B7
:1049D000ACEFAF0DAC83A09370036093670370934B
:1049E00068038093690390936A0340926B0350922B
:1049F0006C0360926D0370926E03EBE9F4E0A1EB3F
:104A0000B3E001900D922A95E1F74D815E816DEC46
:104A100074E082E00E949E0E9B01AC01ED81FE815C
:104A2000E353FB4F60817181828193810E949F2AB1
:104A3000261737074807590709F05ECF8091100401
:104A400090911104A0911204B091130448165906D4
:104A50006A067B0638F584159505A605B7050CF49E
:104A60004BCF0197A109B109481659066A067B0682
:104A700009F042CF8091BC04882309F43DCFB9816D
:104A8000B03A09F039CF80E28093BB0481149104DD
:104A900009F40CC101E010E033C0400E511E611C4E
:104AA000711C88CF0130104408F026CFD301C20119
:104AB0000196A11DB11D8093100490931104A09341
:104AC0001204B0931304398180E2303A09F080E097
:104AD0008093BC048093BB0410E000E08114910437
:104AE00041F4EE2031F08D819E81281639060CF4B8
:104AF00003CF8091BB04811103C09B8194FF09C047
:104B000080913A0490913B04806190933B048093A0
:104B10003A04109250041092BD0480EC9FEF0E9462
:104B200042051092C6041092C804E0913804F09136
:104B300039048E2F877033E0F695E7953A95E1F7C3
:104B4000E370F0E0A3E08A9FE00DF11D1124E4542E
:104B5000FD4FE49180914104082E000C990B805484
:104B60009109ED58FF0B8E1B9F0B97FD80E0809302
:104B7000BF04A401B60185ED94E00E94DE21012B63
:104B800009F0BACEBFEF8B169B0699F12D813E81BD
:104B9000221933093E832D831216130654F5C101E1
:104BA00083539B4F9A83898340910C0450910D0449
:104BB00060910E0470910F048BE994E081149104CC
:104BC00011F08BEA94E0AD80BE80C980DA80EE24DB
:104BD000E394F12C930182010E94B8118114910495
:104BE00041F450E040E06D817E8189819A810E948C
:104BF000DE219091C904992349F0AB8120E8A5FFFB
:104C000020E48091CA04822B8093CA048091CA0454
:104C1000181419043CF180628093CA042092CB04DA
:104C20001092CC04992321F08091CA0486FD43CED2
:104C300026960FB6F894DEBF0FBECDBFDF91CF91A1
:104C40001F910F91FF90EF90DF90CF90BF90AF90AA
:104C50009F908F907F906F905F904F903F902F909C
:104C60000C949C1E80618093CA042092CB04FC802B
:104C7000F218F092CC04D6CF81E026960FB6F894C5
:104C8000DEBF0FBECDBFDF91CF911F910F91FF907F
:104C9000EF90DF90CF90BF90AF909F908F907F90DC
:104CA0006F905F904F903F902F900895EE2009F401
:104CB000F1CE01E010E017CF8091CC0481110EC03D
:104CC000A091BE04B0E0119624E234EF0E94B52A10
:104CD0002091C50449E457E10C942A0A0E943C241F
:104CE000882371F308958091CC0481110BC0109238
:104CF000CA040E94F505655E78448F4F9F4F42E0DD
:104D00000E947A110C943C241F920F920FB60F92BE
:104D100011242F933F934F935F936F937F938F93C0
:104D20009F93AF93BF93EF93FF9383E595E00E942A
:104D3000FA02FF91EF91BF91AF919F918F917F9177
:104D40006F915F914F913F912F910F900FBE0F90F8
:104D50001F9018951F920F920FB60F9211242F9348
:104D60008F939F93EF93FF93E0916305F091640518
:104D70008081E0916905F0916A0582FD1BC09081F8
:104D800080916C058F5F8F7320916D05821741F0C4
:104D9000E0916C05F0E0ED5AFA4F958F80936C0529
:104DA000FF91EF919F918F912F910F900FBE0F90D8
:104DB0001F9018958081F4CF1F920F920FB60F921B
:104DC00011242F933F938F939F93AF93BF93809121
:104DD000720390917303A0917403B09175033091A5
:104DE000710323E0230F2D3758F50196A11DB11D46
:104DF000209371038093720390937303A0937403C1
:104E0000B09375038091760390917703A091780316
:104E1000B09179030196A11DB11D80937603909303
:104E20007703A0937803B0937903BF91AF919F91DB
:104E30008F913F912F910F900FBE0F901F9018955B
:104E400026E8230F0296A11DB11DD2CFE3E5F5E0C0
:104E50001382128288EE93E0A0E0B0E08483958311
:104E6000A683B78380E291E09183808385EC90E014
:104E70009587848784EC90E09787868780EC90E024
:104E8000918B808B81EC90E0938B828B82EC90E015
:104E9000958B848B86EC90E0978B868B118E128E8F
:104EA000138E148E82E391E09093F1058093F005C8
:104EB0000895789484B5826084BD84B5816084BD92
:104EC00085B5826085BD85B5816085BD80916E00A8
:104ED000816080936E0010928100809181008260D9
:104EE0008093810080918100816080938100809116
:104EF00080008160809380008091B1008460809305
:104F0000B1008091B00081608093B00080917A0000
:104F1000846080937A0080917A00826080937A0026
:104F200080917A00816080937A0080917A00806815
:104F300080937A001092C100E0916305F0916405BE
:104F400082E08083E0915F05F09160051082E0913E
:104F50006105F091620580E1808310926B05E0911C
:104F60006705F091680586E08083E0916505F09122
:104F70006605808180618083E0916505F09166051A
:104F8000808188608083E0916505F091660580816D
:104F900080688083E0916505F091660580818F7D52
:104FA00080838AE593E00E943808EFE4F5E084E02E
:104FB000DF011D928A95E9F78EE091E09093B003AE
:104FC0008093AF0380EF95E090939A0380939903C9
:104FD00061E08AE00E94CD0361E08AE00E94FB0369
:104FE00060E089E00E94FB0360E082E00E94FB0336
:104FF00060E086E00E94FB0360E087E00E94FB0324
:10500000CFB7F89480919803811127C0E0E5F3E0D1
:105010008491ECE3F3E09491E82FF0E0EE0FFF1FB2
:10502000E85DFC4FA591B491EC91E92321F461E096
:105030008AE00E94CD0361E08AE00E94FB038CB508
:1050400080618CBD8CB580648CBD61E08DE00E9478
:10505000FB0361E08BE00E94FB03809198038F5F6C
:1050600080939803CFBFEAE8F3E08EE0DF011D9262
:105070008A95E9F78DE995E09093930380939203E5
:1050800082E080938D03F093F505E093F40581E0D1
:105090000E94B007C091AF03D091B0038A818F3FC7
:1050A00039F060E00E94CD0361E08A810E94FB0339
:1050B0000E94F505625C7F4F8F4F9F4F0E9438071B
:1050C0008A818F3F19F060E00E94FB030E94F50582
:1050D000685C7E4F8F4F9F4F0E94380780E00E9490
:1050E0003B0D82E40E946C0B823109F0B2C18091C9
:1050F000990390919A03DC01ED91FC910680F78170
:10510000E02D0995882341F08BE40E946C0B682FF9
:1051100060618BE40E947E0B82E00E94450D81E07D
:105120000E946C0B87708530D1F7CAE7D3E0F9E8AD
:10513000AF2EF3E0BF2E08E010E08CE20E946C0B73
:105140008170F82E8CE20E946C0B8170F816A9F326
:105150008981880F8F2989830150110971F7219660
:10516000AC16BD0641F780E180937A0380E00E948F
:105170003B0D80E490E090933B0480933A048FEFE2
:105180008093DF030E940312D0E0C0E0C730D10556
:1051900009F078C087E00E94D6052196C830D10575
:1051A000A9F71092C1048BE993E00E9483217FE06C
:1051B000D72EE0E0EE2EE0E0FE2E03EA13E0D0E092
:1051C000C0E0E091AF03F091B003EC0FFD1F8381CD
:1051D0008F3FC1F1F80180809180A280B38081145B
:1051E0009104A104B10471F1108211821282138220
:1051F00081E00E946C0B87FFCBC082E10E946C0BA8
:1052000080934E0583FF42C0B2E08B1A9108A1083B
:10521000B1088092F4039092F503A092F603B09245
:10522000F7036FEF81E10E947E0B6FEF82E10E9436
:105230007E0B80E00E943B0D8091E6039091E70396
:105240000E94A10621960C5F1F4FC330D10509F0C3
:10525000B8CF0E94A505C0915105D0915205209765
:1052600009F4C9C0888199819093520580935105B2
:105270000E941906209709F4E0C0EE81FF81CE015B
:105280000995DBC08C2F0E94AF0587CF86FF7BC0BE
:10529000E0913804F0913904CF0163E09695879549
:1052A0006A95E1F7837061F4E770F0E0EE0FFF1F9D
:1052B000ED59FC4F85919491881A990AA108B1087B
:1052C0008092F8039092F903A092FA03B092FB0344
:1052D0008DE10E946C0B80FF45C082E20E946C0B46
:1052E0008093CC0480E10E946C0B682F8DE00E94BB
:1052F0007E0B4091CC0450E021E06DEC74E080E046
:105300000E94030B89E10E946C0B809342048AE1A6
:105310000E946C0B282F30E0409100045091010452
:10532000609102047091030441345D4D6A447F41F1
:10533000D8F02D5931099091420497FF18C0492F98
:10534000552741950CF45095CA01959587959595EB
:105350008795281B390B203431059CF4205C209361
:1053600041045FCF83E1BACF245A3109E4CF2D390C
:105370005FEF35079CF36D2D0E94382A280F311DF1
:10538000EACF2FE7ECCF87FF4CCF1092CC0449CF68
:105390008EE30E946C0B8FE30E946C0B83FF0CC0AA
:1053A0008092F4039092F503A092F603B092F70373
:1053B00081E00E943B0D3DCF82FF1AC08092F8032E
:1053C0009092F903A092FA03B092FB0382E30E9449
:1053D0006C0B8093CC04482F50E021E06DEC74E01E
:1053E00080E00E94030B1092420410924104E0CF2F
:1053F0001092CC04DDCFE0914F05F091500530972D
:10540000D1F082809380A480B5800E94F505861A31
:10541000970AA80AB90A181419041A041B045CF0A4
:10542000C0914F05D0915005888199819093500586
:1054300080934F051DCF0E941906E114F10409F471
:10544000BCCE0E94E602882309F4B7CE0E94000079
:10545000B4CE65E370E088E293E00E94AC05FB0106
:10546000DC0102C005900D9241505040D8F70895DC
:10547000991B79E004C0991F961708F0961B881FA6
:105480007A95C9F780950895AA1BBB1B51E107C007
:10549000AA1FBB1FA617B70710F0A61BB70B881FC4
:1054A000991F5A95A9F780959095BC01CD01089553
:1054B000A1E21A2EAA1BBB1BFD010DC0AA1FBB1F18
:1054C000EE1FFF1FA217B307E407F50720F0A21B8A
:1054D000B30BE40BF50B661F771F881F991F1A94F7
:1054E00069F760957095809590959B01AC01BD0121
:1054F000CF010895052E97FB1EF400940E94912A77
:1055000057FD07D00E94582A07FC03D04EF40C9494
:10551000912A50954095309521953F4F4F4F5F4FC1
:10552000089590958095709561957F4F8F4F9F4F0F
:105530000895EE0FFF1F0590F491E02D099469275F
:10554000962769277827872778270895A29FB00193
:10555000B39FC001A39F700D811D1124911DB29FA7
:10556000700D811D1124911D08950E94A62AB7FF78
:105570000895821B930B08950E94A62AA59F900D63
:10558000B49F900DA49F800D911D1124089597FB49
:1055900057FF0C94D72A9F938F930E94D72A6E1B94
:1055A0007F0BAF91BF918A0B9B0B0895E894DF931B
:1055B000CF93FC01DB010E94A62A7F936F93E90140
:1055C0009A01AC01BF93AF933F932F93DF010E94E9
:1055D000A62A26F46C1B7D0B820B930B9E01EB011C
:1055E000FC010E94CD2BAF91BF912F913F910E9462
:1055F000CD2BBE01CF01F9012F913F91CF91DF91CA
:105600000895689401C0E8948F929F92CF93DF939E
:105610000E940F2BDF91CF919F908F900895882447
:105620009924F401E401B0E49F93AA279A158B040E
:105630009C04ED05FE05CF05D007A10798F4AD2F1A
:10564000DC2FCF2FFE2FE92D982C892E982F872F16
:10565000762F652F542F432F322F2227B85031F742
:10566000BF9127C01B2EBF91BB27220F331F441FA2
:10567000551F661F771F881F991F881C991CEE1FD6
:10568000FF1FCC1FDD1FAA1FBB1F8A149B04EC0544
:10569000FD05CE05DF05A007B10748F08A189B0875
:1056A000EC09FD09CE09DF09A00BB10B21601A94AA
:1056B000E1F62EF49401AF01BE01CD01000C089576
:1056C0002F923F924F925F926F927F928F929F9212
:1056D000AF92BF92CF92DF92EF92FF920F931F9300
:1056E000CF93DF93CDB7DEB7CA1BDB0B0FB6F894B1
:1056F000DEBF0FBECDBF09942A88398848885F84F1
:105700006E847D848C849B84AA84B984C884DF8061
:10571000EE80FD800C811B81AA81B981CE0FD11D45
:105720000FB6F894DEBF0FBECDBFED010895002E79
:10573000083090F0982F872F762F652F542F432F06
:10574000322F22270850F4CF220F331F441F551F3A
:10575000661F771F881F991F0A95B2F7002D0895BD
:1057600097FD1094002E083098F00850232F342F06
:10577000452F562F672F782F892F912DF4CF159411
:105780009795879577956795579547953795279579
:105790000A95AAF71124002D08950E94A62A460F03
:1057A000571FC81FD91F08F431960895FB01DC016B
:1057B00002C001900D9241505040D8F70895B0E0DA
:1057C000A0E0E5EEFBE20C94702BAE014B5F5F4F67
:1057D000FA0161917191AF018091F4059091F50505
:1057E0000E94FC2BE2E00C948C2B6091F4057091EC
:1057F000F5050E94EC2D0895ABE0B0E0E2E0FCE29C
:105800000C94602B7C013B018A01FC0117821682FB
:10581000838181FFC8C1CE0101965C01F7019381AC
:10582000F30193FD859193FF81913F01882309F452
:1058300053C1853239F493FD859193FF81913F01E6
:10584000853229F4B70190E00E94EC2DE7CF912C2E
:10585000212C312CFFE1F31538F08B3211F190F44B
:10586000803209F1833229F137FC3CC020ED280F4A
:105870002A3050F536FE20C08AE0989E200D112473
:10588000922E06C08D3291F0803371F7689430F813
:10589000F30193FD859193FF81913F018111DACF4F
:1058A00021C0689431F8689432F8F2CF689433F8E4
:1058B000EFCF689434F8ECCFEAE02E9E200D11244F
:1058C000222E689435F8E4CF8E3229F436FC04C1D8
:1058D000689436F8DDCF8C3619F4689437F8D8CF51
:1058E0008836B1F2982F9F7D95549330E0F083363F
:1058F000A1F18337C1F1833509F063C02801F2E0DB
:105900004F0E511CF801C080D180692D70E036FC2B
:1059100002C06FEF7FEFC6010E94D62D4C01689444
:1059200037F882010AC00C5F1F4FFFE3F983882418
:105930008394912C6501E89437F833FE2DC0522CE6
:105940008114910471F5552009F468CFB70180E204
:1059500090E00E94EC2D5A94F6CFF8018081898363
:105960000E5F1F4FE4CF2801F2E04F0E511CF801EB
:10597000C080D180692D70E036FC02C06FEF7FEFF0
:10598000C6010E94E12D4C018201D5CFB70180E212
:1059900090E00E94EC2D2A942814190409F0B0F725
:1059A000CECFF60137FC859137FE81916F01B701AB
:1059B00090E00E94EC2D51105A94F1E08F1A91085A
:1059C000BFCF843619F0893609F077C0F80137FE69
:1059D0006BC060817181828193810C5F1F4FF32DB9
:1059E000FF763F2E97FF09C0909580957095619541
:1059F0007F4F8F4F9F4F689437F82AE030E0A50122
:105A00000E941C2EC82ECA188C2C432C36FE0CC0AB
:105A1000E89440F8C91440F434FE05C032FC03C0D9
:105A2000F32DFE7E4F2E892C44FE95C0FE01EC0D19
:105A3000F11D8081803309F087C0242D297E422EFC
:105A4000842D8870582E43FC95C040FE8FC09C2C3E
:105A5000821418F42C0C922C981844FE91C0B701B3
:105A600080E390E00E94EC2D42FE09C088E790E0C0
:105A700041FE02C088E590E0B7010E94EC2DC914F8
:105A800008F48AC0CA94D12C9FEFC91AD90ACA0C4B
:105A9000DB1CF60182916F01B70190E00E94EC2DB2
:105AA000AC14BD04B1F74FCF60817181072E000C9B
:105AB000880B990B0E5F1F4F92CFD32CE894D4F82C
:105AC0002AE030E0853739F1232D297FD22E8F3619
:105AD00001F148F48835A9F0F701868197812B966A
