:020000040000FA
:100000000C9427020C944F020C944F020C944F0254
:100010000C944F020C944F020C944F020C944F021C
:100020000C944F020C944F020C944F020C944F020C
:100030000C944F020C944F020C944F020C944F02FC
:100040000C94662B0C944F020C94342B0C940E2BB6
:100050000C944F020C944F020C944F020C944F02DC
:100060000C944F020C944F02556E6B6E6F776E209E
:100070006576656E743A200045565F4A4F494E5F7B
:100080005458434F4D504C4554453A206E6F204ACA
:100090006F696E4163636570740045565F545843E1
:1000A000414E43454C454400206279746573206F8E
:1000B00066205048595061796C6F61643A20004164
:1000C000637475616C2053656E74200020627974CE
:1000D0006573206F662046524D5061796C6F616484
:1000E0003A0041637475616C2053656E742000455D
:1000F000565F545853544152540045565F4C494E34
:100100004B5F414C4956450045565F4C494E4B5F4D
:10011000444541440045565F5258434F4D504C456D
:1001200054450045565F52455345540045565F4C73
:100130004F53545F5453594E430046524D506179CA
:100140006C6F61643A2000206279746573206F6679
:10015000207061796C6F61643A2000526563656953
:100160007665642000526563656976656420616325
:100170006B0045565F5458434F4D504C45544520F5
:1001800028696E636C756465732077616974696E44
:100190006720666F722052582077696E646F77739C
:1001A000290045565F52454A4F494E5F4641494CEA
:1001B00045440045565F4A4F494E5F4641494C45CC
:1001C000440045565F4A4F494E45440045565F4AF4
:1001D0004F494E494E470045565F424541434F4EB9
:1001E0005F545241434B45440045565F42454143AD
:1001F0004F4E5F4D49535345440045565F4245417C
:10020000434F4E5F464F554E440045565F53434162
:100210004E5F54494D454F5554004661696C6564C5
:1002200020746F20726561642066726F6D2044488F
:10023000542073656E736F7221004F505F54585293
:100240005850454E442C206E6F742073656E64695F
:100250006E670003050205010602020500000600A4
:100260000001050404000400000002000000010079
:10027000008000000040000000200000002020203E
:100280000E11140C0F12090C0F06090C03060900BD
:10029000030613110F0D0B0907052A7C0C64EC4CA7
:1002A000EC8B2A7C0C64EC4CEC8B40404080EBEBFC
:1002B000080A0C0D0E10121415181A1B1D1E2124ED
:1002C000FF060504030201FFC040000000000025F6
:1002D0000028002B000000000800020100000304B9
:1002E00007000000000000000000000000240027BC
:1002F000002A005374617274696E67000000000088
:100300006700CC00B80154039D071561354576A000
:100310005E2B0DB920DA6FF3E3E1637C777BF26B40
:100320006FC53001672BFED7AB76CA82C97DFA59FB
:1003300047F0ADD4A2AF9CA472C0B7FD9326363F60
:10034000F7CC34A5E5F171D8311504C723C318964D
:10035000059A071280E2EB27B27509832C1A1B6EEF
:100360005AA0523BD6B329E32F8453D100ED20FC91
:10037000B15B6ACBBE394A4C58CFD0EFAAFB434D94
:10038000338545F9027F503C9FA851A3408F929D31
:1003900038F5BCB6DA2110FFF3D2CD0C13EC5F9721
:1003A0004417C4A77E3D645D197360814FDC222A27
:1003B000908846EEB814DE5E0BDBE0323A0A49065E
:1003C000245CC2D3AC629195E479E7C8376D8DD5D2
:1003D0004EA96C56F4EA657AAE08BA78252E1CA6AA
:1003E000B4C6E8DD741F4BBD8B8A703EB56648030A
:1003F000F60E613557B986C11D9EE1F8981169D98D
:100400008E949B1E87E9CE5528DF8CA1890DBFE60F
:10041000426841992D0FB054BB1600000000230024
:100420002600290004040404040404040202020255
:1004300002020303030303030102040810204080A7
:10044000010204081020010204081020B02B11241E
:100450001FBECFEFD8E0DEBFCDBF26E0A6E2B4E0FE
:1004600001C01D92A53DB207E1F714E0A0E0B1E0A4
:10047000E2E4FBE602C005900D92A632B107D9F77F
:1004800012E0C7E2D2E004C02197FE010E94B7311A
:10049000C632D107C9F70E94032C0C949F350C94E7
:1004A0000000CF92DF92EF92FF92CF93DF93C82F9D
:1004B0008091C2068C3009F45EC038F48B30F1F0C4
:1004C00060E070E080EC9FE74FC085518230C0F75C
:1004D000D091BE066D2F70E0762F662766277F7756
:1004E0008091BF06682B90E080E00E942D302DECBB
:1004F0003CEC4CEC5DE30E94E43059C06091BE06D8
:1005000070E090E080E00E942D306B017C01D09182
:10051000BF06D7FF0AC0AC019B0160E070E080E835
:100520009FEB0E94132F6B017C01DF706D2F70E039
:1005300090E080E00E942F302DEC3CEC4CEC5DE331
:100540000E94E430A70196010E94142FCC2361F091
:1005500026E636E646EE5FE30E94E43020E030E037
:1005600040E052E40E94142FDF91CF91FF90EF9072
:10057000DF90CF900895D091BE066D2F70E090E08F
:1005800080E00E942D306B017C016091BF066F708E
:1005900070E090E080E00E942F302DEC3CEC4CECC1
:1005A0005DE30E94E430A70196010E94142FD7FF5B
:1005B000CDCF9058CBCFCF92DF92EF92FF92CF93D7
:1005C000DF93B091C306A0E08111AB2F8091C406E8
:1005D00090E0880F991FAC01465E5B4FC090C90642
:1005E000D090CA06E090CB06F090CC0630E020E038
:1005F000FA01C591D491E881B90190E080E0EB2344
:10060000EA130AC02F5F3F4F6C157D058E059F05CD
:1006100078F36FEF7FEFCB01DF91CF91FF90EF90F9
:10062000DF90CF900895FC0120E1215008F4089557
:1006300080E0211181819191990F87FD9160DF0107
:1006400011979C93F2CFAF92BF92CF92DF92EF922D
:10065000FF920F931F93CF93DF936C017B018B016C
:10066000040F151FEB015E01AE18BF08C017D107BC
:1006700059F06991D601ED91FC910190F081E02D46
:10068000C6010995892B79F7C501DF91CF911F919B
:100690000F91FF90EF90DF90CF90BF90AF900895B3
:1006A000FC01538D448D252F30E0842F90E0821B78
:1006B000930B541710F0CF96089501970895FC01FD
:1006C000918D828D981761F0A28DAE0FBF2FB11D55
:1006D0005D968C91928D9F5F9F73928F90E00895AD
:1006E0008FEF9FEF0895FC01918D828D981731F067
:1006F000828DE80FF11D858D90E008958FEF9FEFBB
:100700000895FC01918D228D892F90E0805C9F4F90
:10071000821B91098F73992708958DE196E00E94BD
:10072000810321E0892B09F420E0822F089580E0E5
:1007300090E0892B29F00E948D0381110C94000018
:100740000895FC01A48DA80FB92FB11DA35ABF4F66
:100750002C91848D90E001968F739927848FA689C0
:10076000B7892C93A089B1898C91837080648C9314
:10077000938D848D981306C00288F389E02D8081C3
:100780008F7D80830895EF92FF920F931F93CF93F5
:10079000DF93EC0181E0888F9B8D8C8D98131AC0BC
:1007A000E889F989808185FF15C09FB7F894EE89A3
:1007B000FF896083E889F989808183708064808300
:1007C0009FBF81E090E0DF91CF911F910F91FF904B
:1007D000EF900895F62E0B8D10E00F5F1F4F0F73F3
:1007E0001127E02E8C8D8E110CC00FB607FCFACFAE
:1007F000E889F989808185FFF5CFCE010E94A103A8
:10080000F1CFEB8DEC0FFD2FF11DE35AFF4FF0827E
:100810009FB7F8940B8FEA89FB8980818062CFCFE4
:100820000F931F93CF93DF938C01D0E0C0E0F801CA
:10083000EC0FFD1F6491662341F08DE196E00E946C
:10084000C303892B11F02196F2CFCE01DF91CF9116
:100850001F910F910895CF93DF93EC01888D88232A
:10086000B9F0AA89BB89E889F9898C9185FD03C013
:10087000808186FD0DC00FB607FCF7CF8C9185FFF8
:10088000F2CF808185FFEDCFCE010E94A103E9CF99
:10089000DF91CF910895833081F028F4813099F071
:1008A0008230A9F008958730A9F08830C9F08430EB
:1008B000B1F4809180008F7D03C0809180008F779C
:1008C00080938000089584B58F7784BD089584B5A2
:1008D0008F7DFBCF8091B0008F778093B00008951B
:1008E0008091B0008F7DF9CF1F93CF93DF93282F96
:1008F00030E0F901EB52FD4F8491F901E85CFB4FC8
:10090000D491F901EC5DFB4FC491CC23A9F0162FD3
:1009100081110E944B04EC2FF0E0EE0FFF1FE55316
:10092000FD4FA591B4918FB7F894EC91111108C0C7
:10093000D095DE23DC938FBFDF91CF911F91089577
:10094000DE2BF8CFCF93DF9390E0FC01E85CFB4F08
:1009500024918C5D9B4FFC0184918823C9F090E029
:10096000880F991FFC01E751FD4FA591B491FC013F
:10097000E553FD4FC591D49161110DC09FB7F89417
:100980008C91209582238C938881282328839FBF74
:10099000DF91CF910895623051F49FB7F8943C9164
:1009A000822F809583238C93E8812E2BEFCF8FB7F6
:1009B000F894EC912E2B2C938FBFEACF3FB7F8948D
:1009C00080913C0490913D04A0913E04B0913F047D
:1009D00026B5A89B05C02F3F19F00196A11DB11D9A
:1009E0003FBFBA2FA92F982F8827BC01CD01620FD6
:1009F000711D811D911D42E0660F771F881F991F91
:100A00004A95D1F708958F929F92AF92BF92CF925D
:100A1000DF92EF92FF924B015C010E94DE046B01BA
:100A20007C010E94DE046C197D098E099F09683ED5
:100A3000734081059105A8F321E0821A9108A1086D
:100A4000B10888EEC80E83E0D81EE11CF11C8114A9
:100A50009104A104B10429F7FF90EF90DF90CF90AB
:100A6000BF90AF909F908F900895CF92DF92EF92BA
:100A7000FF920F931F93CF93DF93CDB7DEB7C05490
:100A8000D1400FB6F894DEBF0FBECDBF2FB7F8949C
:100A90008091190690911A06A0911B06B0911C0630
:100AA0002FBF4091C5065091C6066091C706709150
:100AB000C8068C019D01041B150B260B370BB901D1
:100AC000A801403D57406105710590F48091CD0625
:100AD000C05CDE4F0FB6F894DEBF0FBECDBFDF9116
:100AE000CF911F910F91FF90EF90DF90CF900895DD
:100AF0008093C5069093C606A093C706B093C80618
:100B00001092C0061092BF061092BE061092BD064B
:100B10001092BC0662E08091C1060E94A20461E0CE
:100B200070E080E090E00E94030561E08091C106E2
:100B30000E94A20460E08091C1060E94740480912A
:100B4000C2068551823020F58BE291E10197F1F7E1
:100B500062E08091C1060E94A2048091CE0690E0DE
:100B60008230910538F0880F991F880F991F0597DB
:100B70000197F1F7F89480E00E94DB026F3F7F4F0E
:100B80008F4F9F4F61F41092CD06789480E0A0CFF4
:100B900064E170E080E090E00E940305D9CF81E03D
:100BA0000E94DB026F3F7F4F8F4F9F4F61F38E019B
:100BB0000F5F1F4F6E018FEBC81A8EEFD80A7801B6
:100BC00080E00E94DB02F70160837183828393835C
:100BD00081E00E94DB02F70164837583868397833B
:100BE000F8E0EF0EF11CEC14FD0451F7789430E0BE
:100BF00020E0F801C080D180E280F38044815581FB
:100C000066817781FFEFCF16DF06EF06FF0631F032
:100C10004F3F8FEF58076807780719F41092CD06F9
:100C2000B5CFF90183E0F595E7958A95E1F7E454AE
:100C3000F94F8081880FC416D506E606F70610F135
:100C400080832F5F3F4F085F1F4F2832310589F6A1
:100C50004091C0062091BC068091BD06280F332725
:100C6000331F8091BE06280F311D8091BF06820F71
:100C7000932F911D99274817190681F681E08093DB
:100C8000CD0626CF8160DCCF0F931F9361157105D0
:100C900081059105F9F00091AE041091AF04209107
:100CA000B0043091B104DC01CB01800F911FA21F71
:100CB000B31F8093AE049093AF04A093B004B0939D
:100CC000B1048091B2049091B30401969093B3045F
:100CD0008093B2041F910F910895FC01208131810E
:100CE0002115310519F490E080E0089526173707A3
:100CF00049F4FB0120813181FC013183208381E0B3
:100D000090E00895C901E9CF803660F5282F22953B
:100D10002F7030E0220F331FF901EE51FB4F40815D
:100D200051818F7061E070E002C0660F771F8A9575
:100D3000E2F7CA0186239723892B91F48091FA0464
:100D40009091FB0401969093FB048093FA0481E058
:100D50002E513B4F462B572BF90151834083089569
:100D600080E0F6CF80E00895803670F5282F229538
:100D70002F7030E0220F331FF901EE51FB4F6081DD
:100D800071818F7041E050E002C0440F551F8A9579
:100D9000E2F7CA0186239723892BA1F08091FA04F8
:100DA0009091FB0401979093FB048093FA0481E0F7
:100DB0002E513B4F4095509546235723F9015183BF
:100DC0004083089580E0F4CF80E00895FC0190E036
:100DD00080E06115710509F4089521913191A9010F
:100DE0005695479545755575241B350BA9014373D9
:100DF0005373369527953695279523733373240FB0
:100E0000351FA901407F507F2F703F70A4E0220F53
:100E1000331FAA95E1F7240F351FA9015527232F6A
:100E20003327240F351F820F931F61507109D1CFD3
:100E3000982F6038C1F0809113056817A1F0609376
:100E4000130581E020911405291761F09093140592
:100E50008091000590910105986090930105809321
:100E6000000581E0089580E0EDCF209104053091E8
:100E7000050520383F4F21F0909305058093040528
:100E80000895982F80915105E0915005882361F0D5
:100E9000EF30A0F481E08E0F80935005F0E0EE5A21
:100EA000FA4F908381E00895E43348F481E08E0F97
:100EB00080935005F0E0E45EFA4FF3CF80E00895B0
:100EC000CF93DF93C62FD09150050E944107811127
:100ED00006C0D093500580E0DF91CF9108958C2F0C
:100EE0000E9441078823A9F381E0F6CF10928A057A
:100EF00010928B0580E294E4AEE1BEE18093DE04C3
:100F00009093DF04A093E004B093E1048FEF80930B
:100F100089050895FC016081718182819381089522
:100F2000682F8DE196E00E94C30390E080E0089571
:100F3000F89480912A048F5F80932A0408950E9478
:100F40009807FFCFEF92FF921F93CF93DF938C30E0
:100F500030F067EA70E085E391E00E949F07880F18
:100F6000880F880F98E0980FC82FD0E010E0E92E86
:100F7000F12CCE15DF053CF0812FDF91CF911F9131
:100F8000FF90EF9008958C2F0E94B406182B2196A5
:100F9000F0CFEF92FF921F93CF93DF93880F880FCC
:100FA000880F98E0980FC82FD0E010E0E92EF12CC0
:100FB000CE15DF053CF0812FDF91CF911F91FF907F
:100FC000EF9008958C2F0E948406182B2196F0CF65
:100FD0000F931F930E94DE04AB01BC0120912604F5
:100FE000DC01CA013CE1B695A795979587953A959E
:100FF000D1F782278870820F80932604E4E07695EB
:10100000679557954795EA95D1F79B01382BC9010C
:10101000BA011F910F910895AF92BF92CF92DF92C4
:10102000EF92FF920F931F93CF93DF9380912A0447
:10103000815080932A04811169C0789407E214E0FA
:10104000D0E0C0E0BB24B394E0917504F091760445
:10105000EC0FFD1F23812F3F09F451C0F801D08010
:10106000ED2CF12C30E0F901EB52FD4F8491F901A8
:10107000E85CFB4FC490F901EC5DFB4FA490AA2003
:1010800009F44FC081110E944B04EA2DF0E0EE0FED
:10109000FF1FE65EFB4FA591B491EC91CE2231E0AB
:1010A00020E009F430E0832F922FE816F90639F199
:1010B000DB24F801D082DD2011F1CE01880F991FC9
:1010C000880F991F9C0127593B4F7901F9018081B5
:1010D0009181A281B381892B8A2B8B2B81F40E9471
:1010E000E807611571058105910521F461E070E063
:1010F00080E090E0F701608371838283938321967F
:101100000F5F1F4FC330D10509F09ECFDF91CF9104
:101110001F910F91FF90EF90DF90CF90BF90AF9015
:10112000089590E080E0C1CFCF93DF93EC010E945F
:1011300098078091A8049091A904A091AA04B09165
:10114000AB04892B8A2B8B2B31F587E196E066EA7D
:1011500074E00E946D061092A7041092A6041092EB
:10116000A8041092A9041092AA041092AB04D09380
:10117000AD04C093AC04E0911706F0911806A7E106
:10118000B6E0309759F486EA94E08D939C93DF9112
:10119000CF910C940C0885E196E0D9CFDF01019046
:1011A000F081E02DEECFCF92DF92EF92FF920F937E
:1011B0001F93CF93DF93EC016A017B018901C11476
:1011C000D104E104F10421F4C12CD12C7601C394A3
:1011D0000E9498078A819B81AC81BD81892B8A2BD3
:1011E0008B2B89F587E196E0BE010E946D0619827E
:1011F0001882CA82DB82EC82FD821F830E83E0911B
:101200001506F091160625E136E0309779F08281D7
:101210009381A481B5818C199D09AE09BF09181667
:1012200019061A061B0694F4F983E883F901D183A1
:10123000C083DF91CF911F910F91FF90EF90DF90CE
:10124000CF900C940C0885E196E0CECF9F010190E1
:10125000F081E02DDACFCF92DF92EF92FF926B0117
:101260007C010E94E807A7019601261B370B480B5B
:10127000590BDA01C901B7FF0CC066277727CB01EC
:10128000621B730B840B950BFF90EF90DF90CF9058
:101290000895833332E09307A105B1058CF068E02F
:1012A00070E080E090E00E9403050E94E807A7013B
:1012B0009601261B370B480B590BDA01C901E9CF00
:1012C000181619061A061B0664F424E0880F991FE5
:1012D0002A95E1F7880F991F880F991F05970197A5
:1012E000F1F760E070E0CB01CFCFCF92DF92EF92C9
:1012F000FF92A0915F04B0916004682F6170ED913E
:10130000FC9111970190F081E02DCD0109956B01C1
:101310007C01C114D104E104F10461F00E94E807EA
:101320006C0D7D1D8E1D9F1DFF90EF90DF90CF9067
:101330000C942B09FF90EF90DF90CF900895982F99
:10134000E0917504F091760481818F3F39F061E07E
:101350002681291301C060E00C947404089581E093
:10136000089580E00895089560E070E0CB0108954D
:10137000E7E8F4E084819581948396819583978151
:1013800096838783808592859087828781859385E0
:101390009187838787859685978795859687948596
:1013A000958784870895CF9327E834E0BC01605F78
:1013B0007F4FDC01F90140E0CD9150815C275083E3
:1013C0004F5F34964430C1F72F5F3F4F0496861726
:1013D000970779F7CF910895FC0101900020E9F774
:1013E0003197AF01481B590BBC018DE196E00C947D
:1013F00023038F929F92AF92BF920F931F93CF932D
:10140000DF93CDB7DEB7A1970FB6F894DEBF0FBE5E
:10141000CDBF19A2423008F44AE08E010F5D1F4F84
:10142000842E912CB12CA12CA50194010E9476311F
:10143000E62FB901CA01EA30F4F4E05DD801EE9379
:101440008D01232B242B252B79F790E080E010973A
:1014500019F0CD010E94EC09A1960FB6F894DEBFF9
:101460000FBECDBFDF91CF911F910F91BF90AF9075
:101470009F908F900895E95CE1CF85E791E00C940F
:10148000EC09CF93DF930E941004EC010E943D0A07
:101490008C0F9D1FDF91CF9108954F925F926F92B5
:1014A0007F928F929F92AF92BF92CF92DF92EF92F4
:1014B000FF920F931F93CF936B017C01742EAC01AD
:1014C0009B010E945131882399F088E791E0CF91E8
:1014D0001F910F91FF90EF90DF90CF90BF90AF9052
:1014E0009F908F907F906F905F904F900C94EC093D
:1014F00046015701E894B7F82FEF3FEF4FE75FE75A
:10150000C501B4010E94513181110DC02FEF3FEF91
:101510004FE75FE7C501B4010E94802F18161CF445
:101520008CE791E0D4CF2FEF3FEF4FE75FE4C701A7
:10153000B6010E94DF3018161CF480E891E0C7CF96
:101540002FEF3FEF4FE75FECC701B6010E94802FFE
:1015500087FDF3CF20E030E0A901C701B6010E946A
:10156000802F10E000E087FF0AC06DE28DE196E079
:101570000E94C3038C01F7FAF094F7F8F094C0E0EE
:1015800060E070E080E09FE37C1641F020E030E016
:1015900040E251E40E94852FCF5FF6CFA70196016C
:1015A0000E94142F2B013C010E94FE2F4B015C0175
:1015B0004AE00E94F9097C01E00EF11ECC23C1F142
:1015C000C501B4010E942D309B01AC01C301B201E1
:1015D0000E94132F4B015C016EE28DE196E00E94A8
:1015E000C303E80EF91EC15018F120E030E040E2DC
:1015F00051E4C501B4010E94E4302B013C010E947A
:10160000FE2F4B01B12CA12C4AE0C501B4010E9470
:10161000F909E80EF91EC501B4010E942D309B01A5
:10162000AC01C301B2010E94132F4B015C01DBCF5F
:10163000C701CF911F910F91FF90EF90DF90CF9056
:10164000BF90AF909F908F907F906F905F904F90E2
:101650000895CF93DF93EC01409728F460E38DE188
:1016600096E00E94C303BE0190E080E040E1DF917C
:10167000CF910C94F9090F931F93CF93DF9300D070
:1016800000D0CDB7DEB7DB011C969C911C971E964F
:101690003C911E971F962C911F971D964C911D975C
:1016A00049833A832B839C83BE016B5F7F4F9E01EE
:1016B0002F5F3F4FF90111919F01412F42954F70CC
:1016C000F0E14F9FA0011124E12FEF70E40FF52FFF
:1016D000F11DE65EFC4F9491A90141505109FA01B8
:1016E00090832617370731F791E05BE1813039F0BD
:1016F000492F440F97FD45278150942FF7CF8981BB
:10170000982799838D0194E0FE013196A801DA01B2
:101710008D91AD0161918627BD0161507109DB0199
:101720008C93BF0161507109DB018C93E217F307C1
:1017300071F791500C5F1F4F9111E6CF0F900F90F2
:101740000F900F90DF91CF911F910F9108953F92CD
:101750004F925F926F927F928F929F92AF92BF92C1
:10176000CF92DF92EF92FF920F931F93CF93DF936D
:10177000CDB7DEB768970FB6F894DEBF0FBECDBF0A
:101780008C0127E8C22E24E0D22EAC01405F5F4FCF
:10179000C6017801FC01D70120E03D9130832F5F25
:1017A00034962430D1F724E0E20EF11C01964E1558
:1017B0005F0581F7A7E7B4E0FE01319687E894E082
:1017C0005E2E6F2E2D9121938A179B07D9F7852DB9
:1017D000962D0E94D309442443948BE8A82E84E0DC
:1017E000B82E4E0139E1830E911C9BE1392E87E81A
:1017F00094E024E0DC01712CEC914E2F42954F7067
:1018000030E1439FA0011124EF70E40FF52FF11D8B
:10181000E65EFC4FE491EC937394149654E07512D9
:10182000EBCF215001962111E5CF0E94B809E7E8DE
:10183000F4E0CE014596BE016F5E7F4F9F01D90156
:101840005C91DC015D93CD01452F440F57FD83C0B2
:10185000DB014C932C5F3F4F6F5F7F4F88169906DB
:1018600071F78E89398938272F89688D9A8992274F
:101870009627432F492741934D895B8994279527C4
:1018800093839C8986278427852789278783242714
:10189000292732273387AE16BF0659F6652D762DD8
:1018A000842D0E943B0B852D962D0E94D3094394D5
:1018B000BAE04B129CCF87E894E0DC0140E0EC9169
:1018C0002E2F22952F7050E1259F90011124EF704B
:1018D000E20FF32FF11DE65EFC4FE491EC934F5FB6
:1018E0001496443061F77A9401967110E6CF0E9405
:1018F000B809652D762D8AE00E943B0B852D962D2B
:101900000E94D309D801F60180E090819D938F5FFA
:1019100034968430D1F78FEFC81AD80A0C5F1F4F66
:10192000E016F10679F768960FB6F894DEBF0FBEA1
:10193000CDBFDF91CF911F910F91FF90EF90DF907E
:10194000CF90BF90AF909F908F907F906F905F905F
:101950004F903F90089543257BCFE0910B05A091D8
:101960000F05A770B0E020E43DE043E050E00E94A6
:10197000DA3160527F458C4C914E6093C60470936F
:10198000C7048093C8049093C90480918A05E53008
:1019900090F4E81BE63008F0E5E0E0930B05F0E09A
:1019A000EF53FD4FE491F0E0EF77E068F093FF0430
:1019B000E093FE040895E5E0ECCF4F925F926F92C2
:1019C0007F928F929F92AF92BF92CF92DF92EF92CF
:1019D000FF920F93CF93DF9300D000D000D0CDB70C
:1019E000DEB76B017C015E834D83277084E0289F06
:1019F000F0011124EB59FD4F85919591A591B4917A
:101A000089839A83AB83BC834090BA045090BB0413
:101A10006090BC047090BD046091A3047091A40414
:101A20006115710531F0673091E0790710F066E0DB
:101A300071E090E080E0A70196010E94E53100E1AD
:101A40000E94CE3249015A0129813A814B815C8141
:101A5000220F331F441F551FC501B401660F771FA6
:101A6000881F991F620F731F841F951F64587F4F33
:101A70008F4F9F4F0E9498312A5F3F4F43E85FEF9F
:101A80006FEF7FEF481959096A097B092115A4E016
:101A90003A07B8F18FEF93E090930A058093090518
:101AA000C40ED51EE61EF71E4C0C5D1C6E1C7F1C62
:101AB0004092BE045092BF046092C0047092C10470
:101AC000B301A20141575240610971092D813E8144
:101AD00086EA94E026960FB6F894DEBF0FBECDBF1F
:101AE000DF91CF910F91FF90EF90DF90CF90BF905B
:101AF000AF909F908F907F906F905F904F900C94DD
:101B0000D30830930A0520930905CACFCF92DF92FC
:101B1000EF92FF922091840530E0A4E2B4EF0E949E
:101B2000C4316B017C010E94AD0C20910B0544E691
:101B30005AE1C701B601FF90EF90DF90CF900C946F
:101B4000DD0C0E94AD0C20910B0548E65AE164EBD8
:101B500074EC84E090E00C94DD0CE82FF0E0E054AD
:101B6000FD4FE491EF3F09F0815008958F929F92CD
:101B7000AF92BF92DF92EF92FF920F931F93CF939A
:101B8000DF93D82EEB018A01E22EE0917504F091EB
:101B90007604F08080849184A284B38481149104BB
:101BA000A104B10439F420E4822E22E4922E2FE025
:101BB000A22EB12C40E052E16AE770E080E084168A
:101BC0009506A606B70640F476956795579547950E
:101BD0008F5F8630A1F787E0982F906A9695809561
:101BE00081709CBD8DBD60E08F2D0E947404DEBCB1
:101BF00000000DB407FEFDCF8EB50C0F1D1FC017E2
:101C0000D10771F080E0E11001C088818EBD000035
:101C10000DB407FEFDCF8EB5E11088832196EFCF7E
:101C200061E08F2DDF91CF911F910F91FF90EF9089
:101C3000DF90BF90AF909F908F900C947404CF93DF
:101C4000DF931F92CDB7DEB721E041E050E0BE0147
:101C50006F5F7F4F0E94B60D89810F90DF91CF910A
:101C60000895CF93DF931F92CDB7DEB7698320E04D
:101C700041E050E0BE016F5F7F4F80680E94B60D6B
:101C80000F90DF91CF910895CF93C82F62E082E04B
:101C90000E94310E60E883E00E94310E61E084E032
:101CA0000E94310E69E985E00E94310E62E187E20F
:101CB0000E94310E60EDC11168ED80E30E94310E8B
:101CC00060E481E30E94310E61EC88E20E94310EF3
:101CD00064E989E20E94310E61EC8AE2CF910C94B2
:101CE000310E0F931F93CF93DF93C0910D05C43135
:101CF0000CF040C0CE30CCF1C2310CF0C1E161E05B
:101D000080915F04909160040091C6041091C70413
:101D10002091C8043091C904DC01ED91FC9100844C
:101D2000F185E02D4C2F0995813059F18230E1F198
:101D3000CF301CF5CC301CF1C067D7E014E06C2F1D
:101D400089E00E94310E8DE40E941F0E887F682F6B
:101D5000612B8DE40E94310E6D2F60628BE0DF916C
:101D6000CF911F910F910C94310ECC3F0CF4CCEF1E
:101D700060E0C6CF62E0C4E1C3CFCEE0DDCFCC5F90
:101D8000DCCF8091FE04877011F4CB305CF0C23060
:101D90002CF4C2E0C250C068DBE0D0CFC231D4F333
:101DA000C1E1F8CFCBE0F6CFD0E117E0CFE8C7CF65
:101DB000AF92BF92CF92DF92EF92FF920F931F9359
:101DC000CF93DF938091C6049091C704A091C8047B
:101DD000B091C9049C01AD0160E070E080E090E04A
:101DE00003E10E94B532A12CE8E4BE2EF8EECF2E1E
:101DF000DD24D394E12CF12C00E010E00E9421328C
:101E0000C22FB32E6A017B01182FD92F00E10E9447
:101E1000D032622F86E00E94310E2C2F3B2DA6017E
:101E2000B701812F9D2F08E00E94D032622F87E0FA
:101E30000E94310E6C2F88E0DF91CF911F910F919E
:101E4000FF90EF90DF90CF90BF90AF900C94310E49
:101E50001F93CF93DF936091FE047091FF04162FC0
:101E60001770CB0133E0969587953A95E1F7D82F17
:101E7000D370D13059F008F466C0D23009F465C08F
:101E800066EC71E084E891E00E949F07C0E8CB0116
:101E900025E0969587952A95E1F78370823009F4BD
:101EA00058C0833009F457C0813009F450C0C26073
:101EB000672F77276115710521F0C16082E20E94CA
:101EC000310E6C2F8DE10E94310E60910A05637016
:101ED00060598FEF810F8295807F680F8091FE049B
:101EE00087FF64608EE10E94310E8BEF810F82309C
:101EF00010F4DD2391F1163011F4D13071F164E06A
:101F000086E20E94310EC0E063E0D23081F480911D
:101F1000C6049091C704A091C804B091C904CFE74A
:101F200081349D4DAA44BF4108F0C4E662E086E3D7
:101F30000E94310ECC2399F06C2F8AE3DF91CF9170
:101F40001F910C94310EC0E7A2CFC0E9A0CFC460AE
:101F5000AFCFC660ADCFC860ABCF6CE0D1CFDF9163
:101F6000CF911F910895CF93DF93D82FC82FC770BB
:101F700019F081E00E9475096D2F81E00E94310EF9
:101F8000C11105C080E0DF91CF910C947509DF91FC
:101F9000CF9108958091C6049091C704A091C80480
:101FA000B091C90481349D4DAA44BF4118F488E022
:101FB0000C94B30F80E0FCCF8091C6049091C704CD
:101FC000A091C804B091C90481349D4DAA44BF4179
:101FD00018F488E80C94B30F80E8FCCFCF93C82F97
:101FE00081E00E941F0E887F8C2BCF910C94B30F41
:101FF000CF92DF92EF92FF92CF93DF93D82F0E9480
:10200000DC0F81E00E941F0E87FD06C06BE973E0C4
:1020100084E891E00E949F0781E00E94EE0FD23099
:1020200009F07CC06AE08DE10E94310E60E78EE12C
:102030000E94310E63E28CE00E94310E60E483E284
:102040000E94310E80911306882309F46CC083E34B
:102050000E941F0E682F6F7B83E30E94310E8091D8
:10206000FE049091FF0423E0969587952A95E1F769
:10207000C82FC37081E30E941F0E8877682F6360AA
:10208000C23008F056C081E30E94310E60E48FE256
:102090000E94310E60E480E30E94310E60910905D8
:1020A0008FE10E94310E64E389E30E94310E6CE0FF
:1020B00080E40E94310E6FEF82E10E94310EED2F1D
:1020C000F0E0E853FD4F6491609581E10E94310E8C
:1020D00080E00E949F0960E08DE00E94310E60E088
:1020E0008FE00E94310ED11128C06091BE04709122
:1020F000BF048091C0049091C1040E942B096B0120
:102100007C0186E00E94EE0FC701B601DF91CF91FE
:10211000FF90EF90DF90CF900C9444060E94280F20
:102120000E94D80E87CF83E30E941F0E682F606441
:1021300093CF682F636881E3AFCF85E0DF91CF91C4
:10214000FF90EF90DF90CF900C94EE0FCF92DF9244
:10215000EF92FF92CF93C82F81E00E941F0E8770ED
:1021600069E274E0C1F48091FE04877009F060C0F8
:10217000C13041F4109292058091AC049091AD046D
:102180000E9494080E94CA0F81E00E941F0E87FFE0
:1021900006C062E074E084E891E00E949F0781E05D
:1021A0000E94EE0F0E94D80E63E28CE00E94310E76
:1021B0006EE18DE00E94310E6BE082E10E94310EF3
:1021C00062E183E10E94310E6AEA8FE10E94310EE2
:1021D0006FEF81E20E94310E81E00E94440E68E3BD
:1021E00080E40E94310E80E00E949F09C11118C056
:1021F0006091BE047091BF048091C0049091C104AD
:102200000E942B096B017C0185E00E94EE0FC70143
:10221000B601CF91FF90EF90DF90CF900C944406E1
:1022200085E0CF91FF90EF90DF90CF900C94EE0F70
:102230008C2FCF91FF90EF90DF90CF900C94F80F00
:1022400040E150E06AE073E087E794E00C940A2FE5
:102250008FEF9FEF9093E3048093E2049093E50463
:102260008093E4049093E7048093E6049093E90458
:102270008093E8048FEF90E09093EB048093EA045E
:10228000EEEEF4E08CE0DF011D928A95E9F780E63E
:1022900090E09093FB048093FA048FEF80930F05F6
:1022A00008956F927F928F929F92AF92BF92CF923A
:1022B000DF92EF92FF920F931F93CF93DF93CDB7EF
:1022C000DEB760970FB6F894DEBF0FBECDBF7B01BF
:1022D0008A01282F30E0277F2230310549F0243051
:1022E000310509F4CBC0232B09F09FC0D12C98C035
:1022F00083FD32C08BE294E00E94A70B90E1692E2F
:10230000FE0131966F012BE3822E24E0922E37E8F6
:10231000732E0115110509F060C060912B047091B6
:102320002C0480912D0490912E040E94BD31609662
:102330000FB6F894DEBF0FBECDBFDF91CF911F91D6
:102340000F91FF90EF90DF90CF90BF90AF909F9054
:102350008F907F906F900895EBE2F4E080E1DF01D1
:102360001D928A95E9F7CACF01151105E9F5E62F07
:10237000F0E0E55DFB4F80818058808311E0D6015D
:10238000E62D1D92EA95E9F7C6010E94A70B098187
:10239000C6010E94130307FF03C088898725888B25
:1023A000112349F01981C6010E94130317FF03C0CE
:1023B00088898725888BF601D5018D915D019191E2
:1023C000119789278C938A149B04B1F710E000E0E1
:1023D0008BE294E00E94A70B9CCF8BE2A82E84E0B6
:1023E000B82ED701950160E0F90181919F019D917F
:1023F000AF01415051098927FA0180836F5F7D0148
:1024000001501109603109F0AFCF0115110501F735
:1024100010E0B5CF8E0D9F1D0E94A70BB0E1DB0E23
:102420008D2D90E080179107A8F360E070E0CB015C
:102430007ECF80E1EBE2F4E0DE01119601900D9297
:102440008A95E1F7CE0101960E94A70BFE01319615
:102450009701205F3F4F9191D7018C9189278D93F0
:102460007D0101501109A217B30719F001151105DB
:1024700091F780913A048F5F80933A04011511051A
:10248000C1F6D3CF90914004911106C06CE874E07E
:1024900084E891E00E949F07903141F440E150E0D0
:1024A00060E474E080E00E94511190E0E92FF0E0D8
:1024B000E05CFB4F80819F5F909340040895DF9222
:1024C000EF92FF920F931F93CF93DF936FE270E031
:1024D000009729F08136910530F061E370E08FEBD1
:1024E00091E00E949F07C0910F05D0E0CF3F11F40B
:1024F000CFEFDFEFE2EEF4E02EEE34E0DF013296D4
:102500001C968D919C911D974D915C9184239523F0
:10251000938782872E173F0789F766E070E08EEE7B
:1025200094E00E94E6067C01892B09F08FC08CE0C4
:10253000E2EEF4E0AEEEB4E001900D928A95E1F7A0
:1025400066E070E08EEE94E00E94E6067C01009763
:1025500009F4DDC0419708F479C010E000E0CF3FF6
:10256000DC0751F1C136D1050CF070C09E012F700F
:10257000332781E090E002C0880F991F2A95E2F787
:10258000FE0144E0F595E7954A95E1F7EE0FFF1F50
:10259000E251FB4F208131818C010223132380956E
:1025A000909582239323918380830115110509F46B
:1025B0004FC070E1E71AF1080E944212D82E0E9423
:1025C00042129D2DB70124E0769567952A95E1F793
:1025D0000E94623134E0880F991F3A95E1F7EEEEE0
:1025E000F4E070E060E0219131912115310559F15D
:1025F000A9015695479545755575D901A41BB50B8D
:10260000AD0143735373B695A795B695A795A3737C
:10261000B3734A0F5B1FDA01A07FB07F4F705F700A
:1026200042955295507F5427407F54274A0F5B1F95
:10263000DA01BB27452F55274A0F5B1F84179507E3
:1026400080F0841B950B605F7F4FCDCF10E000E0E2
:10265000CFEFDFEFB1CFA90141505109242335233A
:1026600040970097C1F744275527421B530B42233D
:102670005323CA018575957521E030E0892B11F04F
:1026800030E020E0CA0183739373892B09F447C0BB
:1026900090E080E0820F931F9A012F703F70232BF0
:1026A00009F440C030E020E0820F931F30E020E0CA
:1026B000411102C028E030E0820F931F860F971F60
:1026C000FC0144E0F695E7954A95E1F7EE0FFF1F10
:1026D000E251FB4FAC014F70552721E030E0B901CA
:1026E00002C0660F771F4A95E2F7AB012081318166
:1026F0002627352731832083CF3FDC07B1F497FDB0
:1027000006C0803491050CF4885F80930F05DF913B
:10271000CF911F910F91FF90EF90DF90089582E08D
:1027200090E0B8CF24E030E0BFCF24E0D595C79546
:102730002A95E1F7CC0FDD1FC251DB4F288139818B
:10274000022B132B19830883DACF8091D204909146
:10275000D304A091D404B091D504892B8A2B8B2B60
:1027600009F04BC080910005909101051092100571
:102770008E7C977A909301058093000510928F05C7
:10278000109216050E9476078FEF80930F058091B7
:10279000FA049091FB040E945F120E94E807609384
:1027A000BA047093BB048093BC049093BD048091E1
:1027B00000059091010593FF06C064ED70E08FEB7A
:1027C00091E00E949F0710921405E0918905EF3F68
:1027D00091F0EF70F0E0E055FD4FE491E0931305C8
:1027E0008460909301058093000583E293E20E9448
:1027F000940881E00895E3E1F1CF80E008951F930C
:10280000CF93DF93CDB7DEB72F970FB6F894DEBF27
:102810000FBECDBF80E00E94EE0F0E94980780910E
:10282000A8049091A904A091AA04B091AB04892BAB
:102830008A2B8B2B09F047C087E196E066EA74E0AB
:102840000E946D060E940C088FE0E7E9F4E0DE01CB
:10285000119601900D928A95E1F7E7E9F4E08EE791
:1028600091E0DF019C011D9221503040E1F78FE0A3
:10287000FE013196A7E9B4E001900D928A95E1F747
:102880000E944212182F0E944212912F909303052A
:102890008093020510920105109200051092150513
:1028A00080E8809387050E94760781E08093840505
:1028B0002F960FB6F894DEBF0FBECDBFDF91CF913C
:1028C0001F910C94281185E196E0B8CFCF92DF924A
:1028D000EF92FF92CF93C82F0E944212F82E0E94CF
:1028E00042129F2D6C01853224EF920720F024E2E2
:1028F000C21A24EFD20AF12CE12CCC2369F06C2F00
:102900000E945631292F30E0A4E2B4EF0E94C43176
:10291000C60ED71EE81EF91EC701B601CF91FF9063
:10292000EF90DF90CF900895CF92DF92EF92FF92D9
:102930006B017C01842F442331F00E946614C60E83
:10294000D71EE81EF91E809110058823A9F08091FA
:10295000CA049091CB04A091CC04B091CD04A701FE
:102960009601281B390B4A0B5B0BDA01C9011816BB
:1029700019061A061B068CF4C092CA04D092CB0426
:10298000E092CC04F092CD04809100059091010575
:1029900091609093010580930005FF90EF90DF9088
:1029A000CF900895AF92BF92CF92DF92EF920F93A4
:1029B0001F93CF93DF93DC011A141B04A4F590E15D
:1029C000EBE2F4E0EF01892F19928A95E9F7F1E043
:1029D000F0933A04F0932B04E092300440933104D6
:1029E000509332046093330470933404009335049D
:1029F000109336042093370430933804FD01A7E781
:102A0000B4E001900D929A95E1F7A501B60184E03A
:102A1000DF91CF911F910F91EF90DF90CF90BF90FA
:102A2000AF900C945111DF91CF911F910F91EF90C6
:102A3000DF90CF90BF90AF9008952F923F924F922A
:102A40005F926F927F928F929F92AF92BF92CF923E
:102A5000DF92EF92FF920F931F93CF93DF93CDB747
:102A6000DEB7A8970FB6F894DEBF0FBECDBF7C01CE
:102A70000E94E8074B015C014AE0B7FE0DC06DE221
:102A80008DE196E00E94C30366277727CB01681982
:102A900079098A099B094AE00E94F9098DE793E0C8
:102AA0000E94EC09F7013197E431F10508F028C4E0
:102AB000E45AFA4E0C94B73170158C158F15921597
:102AC000951598158019321635163816A816AB16B6
:102AD000AE16B116B4168019B7167A190F167D19ED
:102AE0008AE092E0A8960FB6F894DEBF0FBECDBF85
:102AF000DF91CF911F910F91FF90EF90DF90CF90DA
:102B0000BF90AF909F908F907F906F905F904F900D
:102B10003F902F900C94410A8AEF91E0E3CF89EE29
:102B200091E0E0CF87ED91E0DDCF8CEC91E0DACF62
:102B300082EC91E00E94410A8090CE049090CF04F4
:102B4000A090D004B090D104C090D204D090D3040F
:102B5000E090D404F090D50480E1E1E7F5E0DE01F7
:102B6000119601900D928A95E1F780E1E1E6F5E09A
:102B7000DE01519601900D928A95E1F781E092E095
:102B80000E94EC094AE0C501B4010E94F9090E94C3
:102B90003D0A89E092E00E94EC0940E1C701B601DC
:102BA0000E94F9090E943D0A83E192E00E94EC092B
:102BB0008E010F5F1F4FF12CE12CF80181918F01E5
:102BC00090E00E94290BFFEFEF1AFF0A20E1E216C6
:102BD000F104F1F587E791E00E94EC090E943D0ABB
:102BE0008FE192E00E94EC097E0131E1E30EF11CDD
:102BF00010E000E0F70181917F0190E00E94290B35
:102C00000F5F1F4F0031110541F50E943D0A1092E0
:102C1000830580E89FEF9093050580930405A896AF
:102C20000FB6F894DEBF0FBECDBFDF91CF911F91DD
:102C30000F91FF90EF90DF90CF90BF90AF909F905B
:102C40008F907F906F905F904F903F902F9008955E
:102C50008DE192E00E94EC09B0CF8DE192E00E94FC
:102C6000EC09C8CF83EB91E03DCF82EA91E03ACF07
:102C700082E791E00E94410A8091900587FF04C09D
:102C800085E691E00E94410A809192058823D1F166
:102C90008BE591E00E9410046091920570E090E055
:102CA00080E04AE00E94F90987E491E00E94100464
:102CB0008AE391E00E94100410E000E069E2E62E51
:102CC00062E0F62E8091920580171106C9F0C4F0DB
:102CD000E0919105C80189569B4FE80FF92FF11D2E
:102CE000E450FF4F80811F928F93FF92EF920E94DA
:102CF00004330F5F1F4F0F900F900F900F90E2CF94
:102D00000E943D0A0E94E807AB01BC01485C5346A3
:102D1000634E7F4F2DE235E281E694E0A8960FB630
:102D2000F894DEBF0FBECDBFDF91CF911F910F9101
:102D3000FF90EF90DF90CF90BF90AF909F908F90DB
:102D40007F906F905F904F903F902F900C94D3089E
:102D50008CE291E0C7CE83E291E0C4CE85E191E0C0
:102D6000C1CE88E091E0BECE8AEF90E0BBCE8FEE80
:102D700090E00E94410A1F92FF24F394FF928EE29A
:102D800092E09F938F930E9404331F9282E08F936F
:102D900089E592E09F938F930E9404331F92FF92E4
:102DA0008DE792E09F938F930E9404337090920579
:102DB0000FB6F894DEBF0FBECDBF772009F42FCF3A
:102DC000A090FE04B090FF048A2D877026E0E22ECA
:102DD000E80E950143E0369527954A95E1F7237073
:102DE000C50155E0969587955A95E1F78370309027
:102DF0001305C090DA04D090DB0431E0C31AD10887
:102E0000882359F006E0F02E813049F097E0F92E42
:102E1000823029F018E0F12E02C085E0F82E22233E
:102E200049F0BAEF9B2E213039F0F4EF9F2E882421
:102E3000839403C0ADE79A2E812CA090C6046090C5
:102E4000C7045090C8044090C9040E94E8071F922C
:102E5000BF92DF92CF921F92FF928F929F921F920A
:102E60003F921F92EF921F927F924F925F926F92CA
:102E7000AF929F938F937F936F938BEA92E09F9390
:102E80008F930E940433809112051F928F9388EFD5
:102E900092E09F938F930E94043382EE90E00E9411
:102EA000100460911B0570E090E080E04AE00E9411
:102EB000F9098CEC90E00E9410040FB6F894DEBF84
:102EC0000FBECDBFF12CE12CE9E2CE2EE2E0DE2EEA
:102ED00080911B058E151F04D1F0CCF0E091910577
:102EE000C70189569B4FE80FF92FF11DEB57FF4F94
:102EF00080811F928F93DF92CF920E9404335FEF05
:102F0000E51AF50A0F900F900F900F90E1CF0E94F5
:102F10003D0A8FEB90E00E9410046091920570E0F2
:102F200090E080E04AE00E94F90988EA90E00E947F
:102F30001004F12CE12C79E2C72E72E0D72E80919B
:102F400092058E151F04D1F0CCF0E0919105C701D8
:102F500089569B4FE80FF92FF11DE450FF4F8081F8
:102F60001F928F93DF92CF920E9404336FEFE61A85
:102F7000F60A0F900F900F900F90E1CF0E943D0A3C
:102F8000809192051F928F938CE093E09F938F9393
:102F90000E94043380919205E82FE450FF0B7F01DB
:102FA0000F900F900F900F9069E2C62E62E0D62E20
:102FB000809192058E151F04D1F0CCF0E09191051F
:102FC000C70189569B4FE80FF92FF11DE450FF4FC1
:102FD00080811F928F93DF92CF920E940433FFEF84
:102FE000EF1AFF0A0F900F900F900F90E1CF0E9401
:102FF0003D0A2091920543E955E05CA34BA390E084
:1030000080E01AA219A2622F70E078A76FA3EFA147
:10301000F8A529A13AA12E173F070CF041C1EBA159
:10302000FCA12191FCA3EBA3022E000C330B6C013D
:103030004CE0D594C7944A95E1F7A92EBB24A7FC90
:10304000BA94AC24BD24350162267326F1E06F22C8
:1030500077247C016DE0F594E7946A95E1F72C0103
:10306000452C550C550845944E245F2449019594F0
:10307000879484249524880C991C42E08422992406
:1030800086289728DC01BB0FAA0BBB0FBA2FAA1FFB
:103090001C01232C330C3308259425942A263B2627
:1030A000F901F595E795F595E795E225F325EE0FFE
:1030B000FF1FEE0FFF1FE470FF27E80DF91D092F1A
:1030C000001F0027001F10E03C016BE0759467941F
:1030D0006A95E1F7A301417055274027512723FB4B
:1030E000662760F96DA31EA26DA17EA14627572712
:1030F00073E0440F551F7A95E1F74E0F5F1FB9013A
:10310000E4E075956795EA95E1F76C257D25F4E097
:10311000660F771FFA95E1F760717727460F571F03
:10312000F501EE25FF25B901689414F875956795AA
:103130001694E1F76E277F27E5E0660F771FEA9583
:10314000E1F760727727640F751FA2014A275B279A
:10315000F901689415F8F595E7951694E1F74E276F
:103160005F27E6E0440F551FEA95E1F740745527C5
:10317000640F751F4101E1E08E229924802691267B
:103180002227330F221F3327282539253695322F42
:10319000222737952795260F371FB30168277927F0
:1031A0006170772760277127762F6627620F731F5C
:1031B0009C0135952795C226D326DC2CCC24DD0C2A
:1031C000CC24F2E0DF226C0D7D1DAC0155954795B6
:1031D000559547954E255F25542F4427550F550F7C
:1031E00044275470640F751FFC0143E0F595E79583
:1031F0004A95E1F7EA27FB27FE2FEE27FF0FFF0F87
:10320000FF0FEE27F8706E0F7F1F9C01E4E03595ED
:103210002795EA95E1F7A226B32621E0A222BB2456
:10322000A026B126BA2CAA24B294F0EFBF226A0DD0
:103230007B1D9C01A5E035952795AA95E1F72425EE
:103240003525322F22273295330F307E22273072D8
:10325000620F731FAC0126E0559547952A95E1F75B
:103260004225532550E4459F502D442711244427DF
:103270005074640F751F880F892F881F990B86253E
:103280009725802791279927869597958827860FD8
:10329000971F49A15AA14F5F5F4F5AA349A3B7CEC9
:1032A0009F938F939F938F9385E293E09F938F9348
:1032B0000E9404330F900F900F900F900F900F907B
:1032C000A8960FB6F894DEBF0FBECDBFDF91CF91A9
:1032D0001F910F91FF90EF90DF90CF90BF90AF9034
:1032E0009F908F907F906F905F904F903F902F9026
:1032F0000C943D0A8AE990E0F5CB88E790E0F2CBA8
:1033000088E690E00E941004B70190E080E04AE077
:103310000E94F909D5CFCF92DF92EF92FF92CF931F
:10332000DF93EC01C12CD12C7601C3940C2E04C088
:10333000CC0CDD1CEE1CFF1C0A94D2F7E3FC03C08E
:10334000CE010E941D15D701C60188279472AA27B5
:10335000BB27892B8A2B8B2B01F1E0919B04F091E9
:103360009C043097D1F02091920540919105211154
:1033700002C0442391F08091900550E060E084FF0A
:1033800004C0DA01AE56BA4F6C9130E04D565A4F38
:1033900080919D0490919E040995CC2484E0D822CC
:1033A000E822FF24CD28CE28CF2819F1E0919F04F0
:1033B000F091A0043097E9F01092A00410929F04BD
:1033C000C231D10541F18091900583FD24C09091D7
:1033D0001A0561E0992339F0082E000C990B692F2A
:1033E000661F6627661F70E08091A1049091A20479
:1033F0000995E0919704F0919804309771F0BE011F
:103400008091990490919A04DF91CF91FF90EF9071
:10341000DF90CF90099460E0E6CFDF91CF91FF90ED
:10342000EF90DF90CF90089582E080939005E09137
:103430008B05F0E0EF53FD4FE491F0E0EF77E068AB
:10344000F093FF04E093FE048091DE049091DF048A
:10345000A091E004B091E1048093C6049093C70466
:10346000A093C804B093C9041092920583E190E040
:103470000E948B1980E00C94A6108DEF9AE2909335
:10348000AD048093AC040C94141A8FE195E29093F0
:10349000AD048093AC040C94141A21E020939005A1
:1034A000EEEFF4E020813181206831832083109297
:1034B00092059093AD048093AC0483E190E00E9468
:1034C0008B1980E00C94A61086EE9AE20C944D1AAB
:1034D0008CE095E20C944D1A2F923F924F925F929E
:1034E0006F927F928F929F92AF92BF92CF92DF9214
:1034F000EF92FF920F931F93CF93DF93CDB7DEB779
:10350000CB58D1090FB6F894DEBF0FBECDBF809166
:10351000060581115BC781E0809306058091000557
:10352000909101059C01217C3327232B81F440914C
:10353000D2045091D3046091D4047091D504452BEA
:10354000462B472B29F582FD2FC00E94A5138091A1
:1035500006058150809306058111E0CFC557DF4FE6
:103560000FB6F894DEBF0FBECDBFDF91CF911F9194
:103570000F91FF90EF90DF90CF90BF90AF909F9012
:103580008F907F906F905F904F903F902F90089515
:1035900096FF0AC09F7B909301058093000580E30E
:1035A00092E20E949408D3CF0E94E8076B017C014D
:1035B0000091000510910105C8018C739927892B92
:1035C00009F4F9C613FF6AC18091FA049091FB04D3
:1035D000009711F00E945F12C092BA04D092BB040F
:1035E000E092BC04F092BD04809100059091010529
:1035F000977F9093010580930005B701A601809104
:103600001005811106C0809100059091010590FF81
:1036100012C08091CA049091CB04A091CC04B091C7
:10362000CD042A013B01481A590A6A0A7B0A77FE2F
:1036300002C0AC01BD0121E7C20E22E0D21EE11C96
:10364000F11CDB01CA018C199D09AE09BF09B7FF46
:103650009EC630911405CF57DF4F3883C158D040F4
:1036600004721127012B09F431C1809100051091DA
:10367000160585FD28C11092930548E050E062EAE6
:1036800072E084E995E00E940A2F48E050E06AE980
:1036900072E08CE995E00E940A2F909102058091DA
:1036A00003059093A4058093A5050E94201143E192
:1036B00050E063E975E08AE00E9451116093A9052A
:1036C0007093A8058093A7059093A60587E1809342
:1036D0009205809102059091030501969093030550
:1036E0008093020581EA9DE09093AD048093AC0441
:1036F000CF57DF4FC880C158D040EC2DF0E0EF53DA
:10370000FD4FE4918091150520E2829FC0011124B4
:10371000EF798E2B9093FF048093FE04C0920B05EB
:1037200080910005909101058F76967F8068986062
:103730009093010580930005A0910F05A03670F5C8
:10374000B0E020E43DE043E050E00E94DA318B013C
:103750009C01005A1A4C274F334E00364FE914078C
:1037600040E224074CE1340708F0E9C4605A764A85
:103770008340934E6093C6047093C7048093C8043B
:103780009093C904E0918905EF3F09F456C5EF70A5
:10379000F0E0E055FD4FE491E0930C0590911305A6
:1037A00080910C0598170CF4892F80930D0581E109
:1037B00090E00E948B191092BA041092BB041092F0
:1037C000BC041092BD0481E00E941F0E877059F066
:1037D00080E00E94EE0F0E94E807625C7F4F8F4FEF
:1037E0009F4F0E942B094090C2045090C3046090E8
:1037F000C4047090C50414141504160417040CF0C6
:1038000021C581E00E94F80F8091C6049091C70401
:10381000A091C804B091C90481349D4DAA44BF4110
:1038200008F40DC583E69FEFE0917504F0917604EE
:1038300027817C01E20EF11C27FDFA940E94E80723
:10384000615E7F4F8F4F9F4F0E942B090E94E807B8
:1038500010E0460E571E681E791E8BE10E941F0E57
:10386000181708F4182F0E94E807641975098609CB
:10387000970997FDF2CF80E00E94EE0F80910E0530
:10388000082E000C990BE10EF11CE816F9060CF459
:10389000D9C48091AC049091AD0483CE4091BA0418
:1038A0005091BB046091BC047091BD04A8CECF5769
:1038B000DF4F8881C158D0400E94AD0DCF57DF4FF8
:1038C0008883C158D040115090F7D5CE8091D6044E
:1038D0009091D704A091D804B091D90480389F4F1B
:1038E000AF4FBF4F18F086E292E25BCE80918F051A
:1038F00081110DC08091DA049091DB04A091DC0469
:10390000B091DD048F3F9F4FAF4FBF4F61F3E09009
:103910000005F090010578E1E722FF2480E1E81638
:10392000F10409F4EBC1A0901B05809119058823CF
:1039300009F4E6C180915105882309F4E1C10091A1
:103940005005002309F4DCC110E0A80162E575E030
:103950008BE995E00E94F432085F1F4F10925005EA
:103960001092510580918C05882331F086FFCBC1E0
:1039700090E4892780938C0580918D05882331F010
:1039800086FFD1C190E4892780938D0580918E05B3
:10399000823009F0D8C181E080938E05093111058C
:1039A0000CF0ACC380918305882361F080910405FD
:1039B0009091050597FF04C090E080E00E943507D4
:1039C000109283056A2C712C25E0620E711CF0E1C7
:1039D000EF16F10419F4A4E06A2E712C600E711E2A
:1039E00031E4631671040CF0B9C191E040E1E416D2
:1039F000F10409F490E0E0911405E63008F0B3C159
:103A0000F0E0E655FD4FE491E615170408F476C39F
:103A100080E4809393058091810540918705482B30
:103A2000209104053091050537FD9FC121523109D0
:103A3000203B324008F499C120E488EF800F842BAA
:103A4000822B809398054091D2043091D304209129
:103A5000D4048091D5044093940530939505209328
:103A600096058093970580918F05811118C020914C
:103A70001705211114C04091DA045091DB046091C4
:103A8000DC047091DD044F5F5F4F6F4F7F4F4093B9
:103A9000DA045093DB046093DC047093DD0420911E
:103AA000DA043091DB0421503109209399053093D9
:103AB0009A05109281059923D9F190911A059923BD
:103AC00009F455C190E890939305811103C081E0FA
:103AD00080938F05F801ED56FA4F80911905808388
:103AE000C8018C569A4F6C01B12CA5016CE175E0B0
:103AF0000E94F4320091DA041091DB042091DC047E
:103B00003091DD0401501109210931094091D2049D
:103B10005091D3046091D4047091D504809119051B
:103B2000811132C181E695E0F12CE12C0E94D21482
:103B30008301045011098091DA049091DB04A09173
:103B4000DC04B091DD040197A109B1096091D204B0
:103B50005091D3044091D4043091D50420E1EBE29C
:103B6000F4E0C22E1192CA94E9F779E470932B0421
:103B70001092300400933A0460933104509332045D
:103B80004093330430933404809335049093360487
:103B9000A0933704B0933804E1E6F5E0A7E7B4E07A
:103BA00001900D922A95E1F7A80163E975E082E0A2
:103BB0000E945111F801ED56FA4F6383728381839D
:103BC0009083609292057F926F922CE533E03F9351
:103BD0002F930E9404330F900F900F900F9010E0DE
:103BE00000E0809192058017110611F00CF0CFC013
:103BF0008AE090E00E941A33809192051F928F9381
:103C0000E0E8F3E0FF93EF930E9404330091920504
:103C10000450110B0F900F900F900F908091920510
:103C20008017110611F00CF0CCC08AE090E00E94E1
:103C30001A3380919205A3E9B5E0CC57DF4FB983E1
:103C4000A883C458D040CA57DF4FB983A883C65849
:103C5000D04010E000E0912C812CC82ED12CC6570A
:103C6000DF4FD982C882CA58D040C657DF4F48813B
:103C70005981CA58D040841695060CF4B8C01F93D9
:103C80000F931F930F938AE993E09F938F930E9462
:103C9000043319831A8211271C830B831091920518
:103CA000412F50E0FE0135960F900F900F900F902E
:103CB0000F900F90A3E9B5E090E080E0841795079E
:103CC0000CF404C2440F551F70E060E083E995E0F6
:103CD0000E94FD321E5F10939205FE01319630E086
:103CE00020E0812F90E0281739070CF4F5C1E6E8B1
:103CF000FDE0F093AD04E093AC04FACCA12C1ACE15
:103D000008E010E02BCE980129563B4FF901E45012
:103D1000FF4F95E0908323503F4F8770D9018C93DC
:103D20000E5F1F4F29CE980129563B4FF901E450F1
:103D3000FF4F9AE0908323503F4F8370F9018083B7
:103D40000E5F1F4F23CE882309F428CEF801ED56CD
:103D5000FA4F88E080830F5F1F4F20CE380154E078
:103D6000650E711C47CEE0E04FCE20E066CE80911C
:103D70001205882309F4AECE809117058111AACED1
:103D800081E080931705A6CE81E795E0CDCEE09146
:103D90009105C80189569B4FE80FF92FF11DE4509A
:103DA000FF4F80811F928F9389E292E09F938F93C0
:103DB0000E9404330F5F1F4F0F900F900F900F90D2
:103DC00010CFE0919105C80189569B4FE80FF92F5C
:103DD000F11DE450FF4F80811F928F9329E232E062
:103DE0003F932F930E9404330F5F1F4F13CFCA5787
:103DF000DF4FA881B981C658D040BD90CA57DF4F68
:103E0000B983A883C658D04078019CE0F594E79424
:103E10009A95E1F7212E332427FC3A942E243F244F
:103E20004B2D0B2C000C550B42255325CA018170DC
:103E30009927D801A8E0BA02A12DBB0B1124980143
:103E4000232F330F330B2595F901EA27FB27CE5794
:103E5000DF4FF983E883C258D0402B2D2595022EE1
:103E6000000C330B2E273F27220F331F22703327DE
:103E7000822B932BF801FF0FEE0BFF0FFE2FEE1F8F
:103E80002801452C550C5508459445944E265F262F
:103E90002B2D25952595022E000C330B2425352539
:103EA000220F331F220F331F24703327280F391F8F
:103EB000A8014427550F441F5527B80160E2760238
:103EC000612D770B1124CB018170992784279527C9
:103ED000B3FACC24C0F8C857DF4FC882C858D040C6
:103EE000C757DF4F1882C958D040C857DF4FC88026
:103EF000D980C858D0408C259D25880F991F880FE0
:103F0000991F880F991F280F391F8B2D859585952F
:103F100085958595082E000C990B8E259F258295F9
:103F20009295907F9827807F982780719927820F9C
:103F3000931F2B2D25952595259525952595022EA5
:103F4000000C330B6D01C224D3242C253D2568942D
:103F500014F8220F331F1694E1F720723327820FD3
:103F6000931FCE57DF4F28813981C258D0402E276A
:103F70003F27CB2CC6FACC0CCC08C0F80C2C000C7C
:103F8000DD082C253D25689415F8220F331F169463
:103F9000E1F720743327820F931F320121E0622260
:103FA000772464267526BB1CBB24BB1C6B2476942B
:103FB000762C662477946794680E791ECB0180274F
:103FC00091278170992784279527982F8827860D18
:103FD000971D980135952795E226F326FE2CEE24B1
:103FE000FF0CEE2432E0F3228E0D9F1D6801D59464
:103FF000C794D594C794CA26DB26DC2CCC24DD0CD0
:10400000DD0CCC24A4E0DA228C0D9D1D3801B3E038
:1040100075946794BA95E1F76E267F26762C662410
:10402000770C770C770C6624B8E07B22860D971D01
:104030009801E4E035952795EA95E1F722263326A5
:10404000E1E02E22332424263526322C22243294F9
:10405000F0EF3F22820D931D9801A5E0359527953D
:10406000AA95E1F7CE57DF4FC880D980C258D0401B
:104070002C253D25322F22273295330F307E2227E3
:104080003072820F931FD80126E0B595A7952A9527
:10409000E1F7A425B525B0E4AB9FB02DAA271124E4
:1040A000AA27B0748A0F9B1F000F012F001F110B4E
:1040B0000627172704271527112706951795002788
:1040C000080F191F2FEF821A920ACFCD2D9130E0E1
:1040D000219331930196F2CD40813296CC57DF4F38
:1040E000A881B981C458D0404D93CC57DF4FB983D4
:1040F000A883C458D0402F5F3F4FF5CD88E0809310
:10410000900580911A05811104C080918F05882344
:1041100019F088E480939005809100059091010545
:1041200087769E7F909301058093000510929205FB
:10413000109291058AE090E00E948B1908CA00361F
:1041400059E0150759E325075CE1350728F4605A63
:1041500070418C41934E0ECB0036A3E71A07A1E5C0
:104160002A07ACE13A0728F4605A7A478443934E11
:1041700001CB0036BDED1B07B9E62B07BCE13B07C1
:1041800028F4605A744E8C44934EF4CA0036E7E427
:104190001E07E2E82E07ECE13E0728F4605A7E4451
:1041A0008546934EE7CA0036F1EB1F07FAE92F0761
:1041B000FCE13F0728F4605A784B8D47934EDACAEA
:1041C00000364BE1140743EB24074CE1340728F495
:1041D000605A72428649934ECDCA003655E815079B
:1041E0005BEC25075CE1350728F4605A7C488E4A71
:1041F000934EC0CA0036AFEE1A07A3EE2A07ACE111
:104200003A0728F4605A764F864C934EB3CA00366C
:10421000B9E51B07BCEF2B07BCE13B0728F4605A4C
:1042200070468F4D934EA6CA0093C6041093C704E0
:104230002093C8043093C904A5CAE3E1ADCA8CE554
:104240009FEFF2CA8091FE04877009F06AC00E9455
:10425000CA0F81E00E94EE0F80E00E94440E60E0F1
:1042600085E20E94310E65E086E20E94310E0E94D6
:10427000D80E0E94710E69E28AE00E94310E64E35A
:1042800080E40E94310E609192056F5F82E30E948C
:10429000310E6091920580E00E94310E40919205AE
:1042A00050E020E063E975E080E80E94B60D81E00F
:1042B0000E949F096091BA047091BB048091BC0474
:1042C0009091BD04611571058105910531F10E9440
:1042D0002B096115710581059105F9F00091B40470
:1042E0001091B5042091B6043091B704DC01CB01E4
:1042F000800F911FA21FB31F8093B4049093B50445
:10430000A093B604B093B7048091B8049091B90417
:1043100001969093B9048093B80483E00E94EE0F55
:1043200016C90E94DC0F81E00E941F0E87FD06C0A7
:1043300061E273E084E891E00E949F0781E00E94BF
:10434000EE0F0E94280F0E94D80E68E08AE00E94BB
:10435000310E0E94710E64E389E30E94310E6CE716
:1043600080E40E94310E6FEF82E10E94310E67EF10
:1043700081E10E94310E60E08EE00E94310E60E02B
:104380008DE00E94310E6091920582E285CF80918E
:10439000000581FF05C0411551056105710589F0D2
:1043A000415752406109710924E432E286EA94E0FF
:1043B0000E94D308CCC840E050E0BA0101FDF0CF24
:1043C000C6C841E050E060E070E0EACF82E0809350
:1043D0000605C4C8809100059091010583FF35C092
:1043E00010921B0582FF2CC0877E9093010580935D
:1043F000000582E190E00E948B1980910005909168
:10440000010585709927892B01F50E9498078091F5
:10441000A8049091A904A091AA04B091AB04892B9F
:104420008A2B8B2B79F487E196E066EA74E00E9490
:104430006D060E940C0880E00E94EE0F0C946C1A2E
:104440008776D3CF85E196E0F0CF08950E94EA21E8
:104450000E94FF138CE090E00E948B190C94A5132E
:10446000E0E0F5E0808191818E7D9F7B9183808368
:104470001092D2041092D3041092D4041092D50456
:104480000E94EA210C94A5130C946C1ACF9380918E
:1044900000059091010587779093010580930005B1
:1044A0001092170510928F0520915005222351F08C
:1044B00030915105332309F466C080619093010562
:1044C000809300050E94E8076E5E75488F4F9F4FEE
:1044D00040E00E94941480919005877079F080915B
:1044E00000059091010594FF09C09F7E90930105FE
:1044F000809300058FE090E00E948B198AE090E0A5
:104500000E948B190E946C1A8091040590910505F8
:104510008197B4F1809114050E94AD0DC82F2091B0
:10452000FA043091FB04809114052730310508F41A
:10453000C82F8C1332C08091040590910505813FEE
:1045400092404CF080910005909101059064909309
:1045500001058093000563E18C2F0E94180780916C
:104560000005909101059C01306130930105209375
:1045700000052817390721F08EE090E00E948B1982
:1045800081E0CF91089510921A0510921905209399
:104590001B0510925005886091CFCC23E1F290E08A
:1045A00080E00E943507D7CF80918F058823B1F135
:1045B000883020F58F5F80938F0580FF07C0809142
:1045C00014050E94AD0D60E80E9418076091BE04BA
:1045D0007091BF048091C0049091C10443E00E9497
:1045E000941480910005909101058F7790930105B7
:1045F000809300050E946C1A81E0089580E6809304
:104600009005809104059091050501960E9435075B
:1046100010929205109291050C94462280911705F4
:10462000882379F090911205891758F48F5F809351
:1046300017050E94E8076E5E75488F4F9F4F40E058
:10464000CECF80E2DCCF80911805882341F00E9414
:10465000281185E090E00E948B190C946C1A81E07F
:1046600080931805F6CFCF92DF92EF92FF92CF930F
:10467000DF93809100059091010582FD22C085FDA8
:104680000DC08F77909301058093000581E0DF9145
:10469000CF91FF90EF90DF90CF9008958F7590931A
:1046A000010580930005809116058A3018F48F5F0C
:1046B0008093160589E090E00E948B190E946C1A85
:1046C000E5CF8F77909301058093000584E190E01A
:1046D0000E948B198091110580930F058091FA0437
:1046E0009091FB040E945F1280918F058F5F8093F1
:1046F0008F05C82FC7701092140580910005909106
:104700000105977F90930105809300050E94E807BB
:104710006B017C012091140580E190E002C0959529
:1047200087952A95E2F70E946614C60ED71EE81EEA
:10473000F91EC092BA04D092BB04E092BC04F0927D
:10474000BD04C12CD12C7601C394CC2399F0C12C8B
:10475000D12C7601C4E4D2E20E94E807AB01BC018F
:104760004C0D5D1D6E1D7F1D9E0186EA94E00E942A
:10477000D3088CCFC7E2D5E2EFCF8091900580FFC0
:104780000C94332380E00895CF92DF92EF92FF9252
:104790000F931F93CF93DF938091900580FF05C007
:1047A00080919205882309F42DC180910005909194
:1047B000010587FF11C184729927892B51F4DF917C
:1047C000CF911F910F91FF90EF90DF90CF900C94BD
:1047D000BD231091920511110AC0DF91CF911F9155
:1047E0000F91FF90EF90DF90CF900C943323113115
:1047F00011F0113221F780919305837E8032F9F612
:10480000C12FD0E00E942011AE014150510964E94E
:1048100075E080E00E9451110E9420112497AE01A2
:1048200063E975E08AE00E9451116B017C01CD566D
:10483000DA4F688179818A819B810E94BD31C616D9
:10484000D706E806F90609F0BACF8AE995E00E9492
:104850008A076093D2047093D3048093D404909316
:10486000D50487E995E00E948A0799276093CE04D2
:104870007093CF048093D0049093D1041132D1F47B
:104880008091AF058130B1F490EAE92E95E0F92EE0
:10489000C0E0D70111960C9111978C91102F082F21
:1048A000D0E1DC0FDC139AC0B2E0EB0EF11CCD2F8F
:1048B000D03679F780910205909103050197E9E6DA
:1048C000F5E028E0DF011D922A95E9F721E0209329
:1048D000610526E0E4E9F5E0A2E6B5E001900D927D
:1048E0002A95E1F7809368059093690580E1E1E6F8
:1048F000F5E0A1E7B5E001900D928A95E1F782E03D
:10490000809371050E94201140E150E061E675E05E
:1049100080E00E9451110E94201140E150E061E7C7
:1049200075E080E00E9451118091000585FF09C06B
:10493000C091160580911405C15008F05EC08093A7
:104940001405809100059091010589759D7F9860FF
:10495000909301058093000510928F051092DA0460
:104960001092DB041092DC041092DD041092D60445
:104970001092D7041092D8041092D9041092160500
:1049800010928305109282051092810510921205F3
:104990001092170510928C0510928E0510928805C2
:1049A0000E94760780EC9FEF0E94350780919E055C
:1049B000982F9F7090938B058295877080938A05BE
:1049C00080919F058823E1F08093840586E090E044
:1049D0000E948B190E946C1A81E015C0C03609F440
:1049E00063CF8C2F00FF06C00E948406CF5F169510
:1049F000079558CF0E94B406F9CF0E94AD0D9CCF09
:104A000081E0E2CF80E0DF91CF911F910F91FF9085
:104A1000EF90DF90CF9008958091920581110AC0A8
:104A200020918B0545E45AE168ED78EB85E090E054
:104A30000C94DD0C0E94C423882391F30895809187
:104A40009205811102C0109290050C94C42388E055
:104A500090E00E948B190C946C1A4F925F926F92A7
:104A60007F928F929F92AF92BF92CF92DF92EF92FE
:104A7000FF928091000587FF10C08AE392E0FF90CB
:104A8000EF90DF90CF90BF90AF909F908F907F90EE
:104A90006F905F904F900C94410A0E943505812CD5
:104AA000912C20ECA22E2FE7B22E882329F080E053
:104AB0000E9451024B015C0182ED93E00E94EC09DF
:104AC00042E0C501B4010E944D0A80EE93E00E94CD
:104AD000EC090E943D0A0E943505412C512C90ECB6
:104AE000692E9FE7792E882329F081E00E945102E8
:104AF0002B013C010E943505882351F08091C206AC
:104B00008B3030F08D3058F08551823008F44BC036
:104B1000C12CD12C80ECE82E8FE7F82E1EC06091BE
:104B2000BD0670E090E080E00E942F302DEC3CEC60
:104B30004CEC5DE30E94E4306B017C016091BC06AB
:104B400070E090E080E00E942F309B01AC01C70133
:104B5000B6010E94142F6B017C0184EE93E00E9449
:104B6000EC0942E0C701B6010E944D0A0E943D0ACD
:104B7000A5019401C501B4010E945131811110C0F9
:104B8000A3019201C301B2010E945131811108C0F9
:104B9000A7019601C701B6010E9451318823A9F0EF
:104BA0008AE192E06CCF6091BC067091BD067627D9
:104BB0006727762790E080E00E942D302DEC3CECBA
:104BC0004CEC5DE30E94E430C6CF20E030E040E2F0
:104BD00051E4C501B4010E94E4300E94F72F7093A4
:104BE000020160930301A7019601C701B6010E946B
:104BF000142F0E94FE2F6093060180910005909172
:104C000001058C799927892BE1F4309114054091A5
:104C1000FA045091FB04832F90E04730510588F04F
:104C2000863078F4FC01E655FD4FE491EE2349F01F
:104C3000E331D8F5FC01EE53FD4FE4910196EF3FCF
:104C400061F780910005909101059C012C79332733
:104C5000232B89F526E0E0E0F1E0ACE1B5E001903E
:104C60000D922A95E1F710921A0521E0209319057B
:104C700026E020931B059C012860309301052093BA
:104C8000000582FD04C010928F0510921705FF9059
:104C9000EF90DF90CF90BF90AF909F908F907F90DC
:104CA0006F905F904F900C946C1A381751F260E837
:104CB0000E941807C6CFFF90EF90DF90CF90BF9073
:104CC000AF909F908F907F906F905F904F900895DE
:104CD0002F923F924F925F926F927F928F929F920C
:104CE000AF92BF92CF92DF92EF92FF920F931F93FA
:104CF000CF93DF93CDB7DEB76C970FB6F894DEBFD6
:104D00000FBECDBF998F888F3B0110925005452B68
:104D100009F510925105F12CE12CE614F704F4F09A
:104D2000C7016C960FB6F894DEBF0FBECDBFDF9102
:104D3000CF911F910F91FF90EF90DF90CF90BF9098
:104D4000AF909F908F907F906F905F904F903F902B
:104D50002F90089581E080935105DDCFC88CD98CC8
:104D6000CE0CDF1CF6012081223050F1422F425040
:104D7000550BFA014231510518F5ED5AFD4FE491FA
:104D80008E2F90E09D8B8C8B892B51F2C3018E1955
:104D90009F09EC89FD898E179F070CF4C1CF225023
:104DA000283080F4E22FF0E0E852F94D0C94B7314E
:104DB000E326EB26AE2837280B28E226A028BF28BA
:104DC000E0E0DECF3701EC89FD89EE0DFF1D7301B8
:104DD00037017F01A2CFD60107E01B8A1A8A2A89F0
:104DE0003B892B5F3F4F49019C014A895B89241B0A
:104DF000350B253031050CF493C011962C91119789
:104E000012964D915C91139714963C9114973077BC
:104E1000E22FE295EF70303558F0303509F078C068
:104E20004115510509F47AC04427452B09F076C095
:104E3000E63030F4F0E0EF53FD4FE491EF3F09F43A
:104E40000D7F2F70283038F4E22FF0E0EE56FD4F42
:104E5000E491E03809F40B7F15962C91233009F486
:104E600054C08CE0E2EEF4E0DE01119601900D9268
:104E70008A95E1F78091FA049091FB049B8F8A8FC9
:104E8000412C10E0073009F077C09F8A8E8A160106
:104E900081E0412C10E0EE89FF8935970CF469C060
:104EA000F101A280B38011814480F42DF077F98B59
:104EB000F035D9F5512C852DA0FE34C00E94C907CC
:104EC0005394B694A79428E05212F5CF2091FA0497
:104ED0003091FB044E895F89455051095F8B4E8BA1
:104EE00055E0250E311C81E02115310509F480E0E3
:104EF000A1014C195D09481559056CF2232BD9F114
:104F0000A12EA2948FE0A8223DC09B8A8A8A67CFF7
:104F1000303609F489CF303709F482CF0E7F88CF3D
:104F200000E09FCF0E94A207CBCF8989803578F41B
:104F3000805F8C8F5988FC8D5F1640F6852DA0FE12
:104F400015C00E9484065394B694A794F4CF512CB4
:104F50009989852D903639F40E9484065394E0E6B1
:104F60005E12F6CFE8CF0E94B406F8CF0E94B406D6
:104F7000EACF811101C006E0A12EA2947FE0A72212
:104F8000073041F48091FA049091FB0407E0079701
:104F900080F405E08CE0FE013196A2EEB4E00190D1
:104FA0000D928A95E1F72A8D3B8D3093FB04209377
:104FB000FA04BB24B394D12CC12CC4018C199D09D3
:104FC00005976CF0602F83E00E946007B82E35E0F3
:104FD000C30ED11CC814D90414F48111EECF0730CC
:104FE00099F4842D8F709091120589138093120586
:104FF0001F7060E8183028F4E12FF0E0EE56FD4F06
:1050000064918A2D0E9418074A895B89E40EF51E77
:10501000BB2001F1D8CE20910805022E000C330BE5
:10502000C901029697FD0396959587959595879565
:10503000182F1F734F970CF01FE110938605D09027
:10504000A5040091500586E00E944107811104C02B
:1050500000935005F701BCCE8D2D0E944107882397
:10506000B9F3812F0E944107882391F3ACCEC70189
:105070000196E88DF98D8E0F9F1FFC012081122F64
:105080001F7030E044E0359527954A95E1F7022FEF
:1050900007700E948A07272F382F492F5527A4E62B
:1050A000B0E00E94DA314B015C01F0E88F1AF1EABE
:1050B0009F0AF3E0AF0AFCE1BF0A21E082162AE56D
:1050C000920622E6A20622E0B20618F060E070E046
:1050D000CB0130EC30938C05163050F4E12FF0E02A
:1050E000EF53FD4FE491EF3F19F042EC40938C05F4
:1050F000611571058105910529F020918C052160CC
:1051000020938C05043028F420918C052460209392
:105110008C0520918C05273C61F410938B056093DE
:10512000DE047093DF048093E0049093E104009325
:105130008A05622F677085E00E946007B82E68CFED
:10514000F60181818F7009F481E080938405F2E09B
:10515000F0938E0588E00E944107F0CFF60181812F
:105160008F70809310050E94E8076093CA047093C3
:10517000CB048093CC049093CD0484E0ECCFF60173
:1051800081818F738093890589E0E5CF2F923F92CB
:105190004F925F926F927F928F929F92AF92BF9247
:1051A000CF92DF92EF92FF920F931F93CF93DF93F3
:1051B00000D000D000D0CDB7DEB78091000587FFCA
:1051C000E5C1F0909205F1101AC026960FB6F8943A
:1051D000DEBF0FBECDBFDF91CF911F910F91FF902A
:1051E000EF90DF90CF90BF90AF909F908F907F9087
:1051F0006F905F904F903F902F900C94D4222F2D62
:1052000030E03E832D832C30310544F4109292051A
:105210008091900580FFD9CF80E0B9C1809193053E
:10522000982F937099F7807E8983803611F0803AA9
:1052300069F784E995E00E948A070091D2041091F1
:10524000D3042091D4043091D504601771078207EC
:105250009307E1F6309198053B833F70E32EC32E10
:10526000D12C1601A8E02A0E311C2D813E8124503C
:1052700031093E832D832215330544F288248A9414
:10528000982C221633064CF4F101ED56FA4F20818A
:10529000822E912CD60119961D014090D604509073
:1052A000D7046090D8047090D904009199051091AA
:1052B0009A05041915090F3F100709F078C021E07D
:1052C000421A51086108710820E1EBE2F4E0DF01C5
:1052D000322F1D923A95E9F739E430932B0431E0EF
:1052E00030933004ACEFAF0DAC83A0933A046093DD
:1052F00031047093320480933304909334044092C9
:105300003504509236046092370470923804E1E616
:10531000F5E0A7E7B4E001900D922A95E1F74D8101
:105320005E8163E975E082E00E9451119B01AC014E
:10533000ED81FE81ED56FA4F60817181828193810A
:105340000E94BD31261737074807590709F05ECF7D
:105350008091D6049091D704A091D804B091D9043B
:10536000481659066A067B0638F584159505A60584
:10537000B7050CF44BCF0197A109B109481659069E
:105380006A067B0609F042CF80918205882309F4E2
:105390003DCFB981B03A09F039CF80E280938105E1
:1053A0008114910409F40CC101E010E033C0400EF7
:1053B000511E611C711C88CF0130104408F026CFAB
:1053C000D301C2010196A11DB11D8093D604909313
:1053D000D704A093D804B093D904398180E2303A3D
:1053E00009F080E0809382058093810510E000E061
:1053F0008114910441F4EE2031F08D819E812816B4
:1054000039060CF403CF80918105811103C09B8183
:1054100094FF09C0809100059091010580619093EF
:10542000010580930005109216051092830580EC0B
:105430009FEF0E94350710928C0510928E05E09127
:10544000FE04F091FF048E2F877033E0F695E79508
:105450003A95E1F7E370F0E0A3E08A9FE00DF11DDB
:105460001124E358FD4FE49180910705082E000CAC
:10547000990B80549109ED58FF0B8E1B9F0B97FDE4
:1054800080E080938505A401B6018BE995E00E9438
:105490006826012B09F0BACEBFEF8B169B0699F157
:1054A0002D813E81221933093E832D831216130666
:1054B00054F5C1018D569A4F9A8389834091D20445
:1054C0005091D3046091D4047091D50481E695E0A5
:1054D0008114910411F081E795E0AD80BE80C98010
:1054E000DA80EE24E394F12C930182010E94D2141D
:1054F0008114910441F450E040E06D817E81898106
:105500009A810E94682690918F05992349F0AB817A
:1055100020E8A5FF20E480919005822B80939005E0
:1055200080919005181419043CF1806280939005D5
:105530002092910510929205992321F08091900577
:1055400086FD43CE26960FB6F894DEBF0FBECDBFC4
:10555000DF91CF911F910F91FF90EF90DF90CF904F
:10556000BF90AF909F908F907F906F905F904F9083
:105570003F902F900C94462280618093900520925A
:105580009105FC80F218F0929205D6CF81E0269624
:105590000FB6F894DEBF0FBECDBFDF91CF911F9144
:1055A0000F91FF90EF90DF90CF90BF90AF909F90C2
:1055B0008F907F906F905F904F903F902F900895C5
:1055C000EE2009F4F1CE01E010E017CF80919205B2
:1055D00081110EC0A0918405B0E0119624E234EF51
:1055E0000E94D33120918B054DE35AE10C94DD0CE0
:1055F0000E94C628882371F3089580919205811135
:105600000BC0109290050E94E807655E78448F4FAA
:105610009F4F42E00E9494140C94C6281F920F9250
:105620000FB60F9211242F933F934F935F936F9375
:105630007F938F939F93AF93BF93EF93FF938DE1EE
:1056400096E00E94A103FF91EF91BF91AF919F91CE
:105650008F917F916F915F914F913F912F910F901B
:105660000FBE0F901F9018951F920F920FB60F92BA
:1056700011242F938F939F93EF93FF93E0912D0627
:10568000F0912E068081E0913306F091340682FD80
:105690001BC09081809136068F5F8F7320913706F3
:1056A000821741F0E0913606F0E0E35EF94F958F06
:1056B00080933606FF91EF919F918F912F910F90DC
:1056C0000FBE0F901F9018958081F4CF1F920F92FC
:1056D0000FB60F9211242F933F938F939F93AF9305
:1056E000BF938091190690911A06A0911B06B09164
:1056F0001C0630913B0423E0230F2D3758F501960B
:10570000A11DB11D20933B048093190690931A06A6
:10571000A0931B06B0931C0680913C0490913D041D
:10572000A0913E04B0913F040196A11DB11D80934C
:105730003C0490933D04A0933E04B0933F04BF917A
:10574000AF919F918F913F912F910F900FBE0F902E
:105750001F90189526E8230F0296A11DB11DD2CFE8
:10576000EDE1F6E01382128288EE93E0A0E0B0E073
:1057700084839583A683B78389E191E091838083B5
:1057800085EC90E09587848784EC90E09787868706
:1057900080EC90E0918B808B81EC90E0938B828BFE
:1057A00082EC90E0958B848B86EC90E0978B868BD7
:1057B000118E128E138E148E8BE291E09093BB06A5
:1057C0008093BA06ACEBB6E08AE015968C931597F9
:1057D00086E116968C931697E2E4F4E0E49117962E
:1057E000EC931797EEE2F4E0E4911896EC93189797
:1057F00040E85EE360E070E01D964D935D936D932D
:105800007C9350970895789484B5826084BD84B564
:10581000816084BD85B5826085BD85B5816085BDAB
:1058200080916E00816080936E0010928100809163
:1058300081008260809381008091810081608093EB
:105840008100809180008160809380008091B10010
:1058500084608093B1008091B00081608093B0003B
:1058600080917A00846080937A0080917A008260CF
:1058700080937A0080917A00816080937A00809191
:105880007A00806880937A001092C10068E873E122
:1058900080E090E00E940305E0912D06F0912E0635
:1058A00082E08083E0912906F0912A061082E0913F
:1058B0002B06F0912C068FEC808310923506E09138
:1058C0003106F091320686E08083E0912F06F09158
:1058D0003006808180618083E0912F06F091300650
:1058E000808188608083E0912F06F091300680816E
:1058F00080688083E0912F06F091300680818F7D53
:10590000808383EF92E00E94410A62E08091C106A9
:105910000E94A2042FB7F8948091190690911A065C
:10592000A0911B06B0911C062FBF805D9740A10976
:10593000B1098093C5069093C606A093C706B0939D
:10594000C80687E38093CE06E5E1F6E084E0DF0158
:105950001D928A95E9F787E091E090937604809311
:1059600075048AEB96E09093600480935F0461E095
:105970008AE00E94740461E08AE00E94A20460E070
:1059800089E00E94A20460E082E00E94A20460E03C
:1059900086E00E94A20460E087E00E94A204CFB7E4
:1059A000F89480915E04811127C0EEE2F4E08491C6
:1059B000E2E4F4E09491E82FF0E0EE0FFF1FE751EE
:1059C000FD4FA591B491EC91E92321F461E08AE0C7
:1059D0000E94740461E08AE00E94A2048CB5806198
:1059E0008CBD8CB580648CBD61E08DE00E94A2040A
:1059F00061E08BE00E94A20480915E048F5F80933F
:105A00005E04CFBFE0E5F4E08EE0DF011D928A95F1
:105A1000E9F780E997E0909359048093580482E075
:105A200080935304F093D206E093D10681E00E9464
:105A30007509C0917504D09176048A818F3F39F041
:105A400060E00E94740461E08A810E94A2040E94C6
:105A5000E807625C7F4F8F4F9F4F0E942B098A811E
:105A60008F3F19F060E00E94A2040E94E807685C82
:105A70007E4F8F4F9F4F0E942B0980E00E94EE0FB8
:105A800082E40E941F0E823109F0BEC180915F0442
:105A900090916004DC01ED91FC910680F781E02D8E
:105AA0000995882341F08BE40E941F0E682F6061E6
:105AB0008BE40E94310E82E00E94F80F81E00E9488
:105AC0001F0E87708530D1F7C0E4D4E0FFE4AF2E1D
:105AD000F4E0BF2E08E010E08CE20E941F0E8170FF
