:020000040000FA
:100000000C942F020C9457020C9457020C94570234
:100010000C9457020C9457020C9457020C945702FC
:100020000C9457020C9457020C9457020C945702EC
:100030000C9457020C9457020C9457020C945702DC
:100040000C941F260C9457020C94ED250C94C72594
:100050000C9457020C9457020C9457020C945702BC
:100060000C9457020C945702556E6B6E6F776E208E
:100070006576656E743A200045565F4A4F494E5F7B
:100080005458434F4D504C4554453A206E6F204ACA
:100090006F696E4163636570740045565F545843E1
:1000A000414E43454C454400206279746573206F8E
:1000B00066204672616D65205061796C6F61643AAB
:1000C000204261736536342D6465636F6465642016
:1000D00068657861646563696D616C2073747269C9
:1000E0006E67207061796C6F61643A0053656E745D
:1000F000200045565F545853544152540045565FB2
:100100004C494E4B5F414C4956450045565F4C4962
:100110004E4B5F444541440045565F5258434F4D56
:10012000504C4554450045565F5245534554004593
:10013000565F4C4F53545F5453594E4300426173C2
:100140006536342D6465636F646564206865786125
:10015000646563696D616C20737472696E67207089
:1001600061796C6F61643A20002062797465732054
:100170006F66207061796C6F61643A20005265632C
:1001800065697665642000526563656976656420FB
:1001900061636B0045565F5458434F4D504C455476
:1001A000452028696E636C75646573207761697496
:1001B000696E6720666F722052582077696E646F8F
:1001C0007773290045565F52454A4F494E5F464175
:1001D000494C45440045565F4A4F494E5F464149A8
:1001E0004C45440045565F4A4F494E4544004556EC
:1001F0005F4A4F494E494E470045565F424541438D
:100200004F4E5F545241434B45440045565F424573
:1002100041434F4E5F4D49535345440045565F425D
:100220004541434F4E5F464F554E440045565F5340
:1002300043414E5F54494D454F5554004F505F5414
:1002400058525850454E442C206E6F742073656E82
:1002500064696E67005061636B65742071756575C4
:100260006564000000000023002600290003050249
:100270000501060202050000060000010504040055
:1002800004000000020000000100008000000040A7
:10029000000000200000002020200E11140C0F127E
:1002A000090C0F06090C03060900030613110F0DB4
:1002B0000B09070540404080EBEB080A0C0D0E10BF
:1002C000121415181A1B1D1E2124FF060504030213
:1002D00001FFC0400000000000250028002B0000A6
:1002E00000000800020100000304070000000000F5
:1002F00000000000000000240027002A0001020482
:100300000810204080010204081020010204081097
:10031000200404040404040404020202020202038E
:10032000030303030343579EA99CF9256204D47772
:100330008F63A61C0CE9B53B908577E0CF4A7DBE64
:10034000490D40B0455374617274696E67000000D6
:1003500000006700CC00B80154039D07637C777BE5
:10036000F26B6FC53001672BFED7AB76CA82C97DB1
:10037000FA5947F0ADD4A2AF9CA472C0B7FD932642
:10038000363FF7CC34A5E5F171D8311504C723C346
:100390001896059A071280E2EB27B27509832C1A8A
:1003A0001B6E5AA0523BD6B329E32F8453D100EDE4
:1003B00020FCB15B6ACBBE394A4C58CFD0EFAAFBC8
:1003C000434D338545F9027F503C9FA851A3408F90
:1003D000929D38F5BCB6DA2110FFF3D2CD0C13ECA8
:1003E0005F974417C4A77E3D645D197360814FDC3D
:1003F000222A908846EEB814DE5E0BDBE0323A0A21
:100400004906245CC2D3AC629195E479E7C8376DA4
:100410008DD54EA96C56F4EA657AAE08BA78252EC9
:100420001CA6B4C6E8DD741F4BBD8B8A703EB56652
:100430004803F60E613557B986C11D9EE1F8981143
:1004400069D98E949B1E87E9CE5528DF8CA1890D32
:10045000BFE6426841992D0FB054BB16692611249E
:100460001FBECFEFD8E0DEBFCDBF25E0A2E1B3E0F5
:1004700001C01D92AE36B207E1F713E0A0E0B1E093
:10048000E6ECFCE502C005900D92A231B107D9F768
:1004900012E0CFE2D2E004C02197FE010E94722A4E
:1004A000CE32D107C9F70E949C260C94612E0C9481
:1004B0000000FC0120E1215008F4089580E02111A2
:1004C00081819191990F87FD9160DF0111979C9334
:1004D000F2CFAF92BF92CF92DF92EF92FF920F9343
:1004E0001F93CF93DF936C017B018B01040F151FCA
:1004F000EB015E01AE18BF08C017D10759F0699132
:10050000D601ED91FC910190F081E02DC601099595
:10051000892B79F7C501DF91CF911F910F91FF9042
:10052000EF90DF90CF90BF90AF900895FC01538D76
:10053000448D252F30E0842F90E0821B930B5417BD
:1005400010F0CF96089501970895FC01918D828D4A
:10055000981761F0A28DAE0FBF2FB11D5D968C91E3
:10056000928D9F5F9F73928F90E008958FEF9FEF22
:100570000895FC01918D828D981731F0828DE80FDE
:10058000F11D858D90E008958FEF9FEF0895FC0198
:10059000918D228D892F90E0805C9F4F821B910965
:1005A0008F739927089589EC94E00E94C70221E097
:1005B000892B09F420E0822F089580E090E0892BB8
:1005C00029F00E94D30281110C9400000895FC01CF
:1005D000A48DA80FB92FB11DA35ABF4F2C91848DA4
:1005E00090E001968F739927848FA689B7892C9301
:1005F000A089B1898C91837080648C93938D848D54
:10060000981306C00288F389E02D80818F7D808356
:100610000895EF92FF920F931F93CF93DF93EC0116
:1006200081E0888F9B8D8C8D98131AC0E889F98999
:10063000808185FF15C09FB7F894EE89FF8960839C
:10064000E889F98980818370806480839FBF81E01D
:1006500090E0DF91CF911F910F91FF90EF9008955F
:10066000F62E0B8D10E00F5F1F4F0F731127E02E3A
:100670008C8D8E110CC00FB607FCFACFE889F98972
:10068000808185FFF5CFCE010E94E702F1CFEB8D8F
:10069000EC0FFD2FF11DE35AFF4FF0829FB7F89446
:1006A0000B8FEA89FB8980818062CFCF0F931F93E4
:1006B000CF93DF938C01D0E0C0E0F801EC0FFD1F79
:1006C0006491662341F089EC94E00E940903892B30
:1006D00011F02196F2CFCE01DF91CF911F910F91B2
:1006E0000895CF93DF93EC01888D8823B9F0AA8910
:1006F000BB89E889F9898C9185FD03C0808186FDDD
:100700000DC00FB607FCF7CF8C9185FFF2CF80812B
:1007100085FFEDCFCE010E94E702E9CFDF91CF91B7
:100720000895833081F028F4813099F08230A9F067
:1007300008958730A9F08830C9F08430B1F48091F1
:1007400080008F7D03C0809180008F778093800030
:10075000089584B58F7784BD089584B58F7DFBCFD0
:100760008091B0008F778093B00008958091B000A1
:100770008F7DF9CF1F93CF93DF93282F30E0F901BE
:10078000E152FD4F8491F901E350FD4FD491F901FD
:10079000EF5EFC4FC491CC23A9F0162F81110E946B
:1007A0009103EC2FF0E0EE0FFF1FEB52FD4FA591F0
:1007B000B4918FB7F894EC91111108C0D095DE2355
:1007C000DC938FBFDF91CF911F910895DE2BF8CF7F
:1007D000CF93DF9390E0FC01E350FD4F24918F5EB7
:1007E0009C4FFC0184918823D1F090E0880F991FE1
:1007F000FC01ED50FD4FA591B491FC01EB52FD4F72
:10080000C591D49161110EC09FB7F8948C91E22FDD
:10081000E0958E238C932881E223E8839FBFDF91AC
:10082000CF9108958FB7F894EC91E22BEC938FBFA2
:10083000F6CF3FB7F8948091280390912903A091B7
:100840002A03B0912B0326B5A89B05C02F3F19F0B2
:100850000196A11DB11D3FBFBA2FA92F982F882740
:10086000BC01CD01620F711D811D911D42E0660F1B
:10087000771F881F991F4A95D1F708958F929F92ED
:10088000AF92BF92CF92DF92EF92FF924B015C0149
:100890000E9419046B017C010E9419046C197D09E6
:1008A0008E099F09683E734081059105A8F321E0F8
:1008B000821A9108A108B10888EEC80E83E0D81EFC
:1008C000E11CF11C81149104A104B10429F7FF90EB
:1008D000EF90DF90CF90BF90AF909F908F90089552
:1008E0000F931F936115710581059105F9F0009132
:1008F0009E0310919F032091A0033091A103DC017E
:10090000CB01800F911FA21FB31F80939E03909372
:100910009F03A093A003B093A1038091A2039091A1
:10092000A30301969093A3038093A2031F910F91B9
:100930000895FC01208131812115310519F490E0E1
:1009400080E008952617370749F4FB0120813181A3
:10095000FC013183208381E090E00895C901E9CF53
:10096000803660F5282F22952F7030E0220F331F3C
:10097000F901EE52FC4F408151818F7061E070E0CF
:1009800002C0660F771F8A95E2F7CA018623972374
:10099000892B91F48091EA039091EB030196909357
:1009A000EB038093EA0381E02E523C4F462B572BFA
:1009B000F90151834083089580E0F6CF80E00895E7
:1009C000803670F5282F22952F7030E0220F331FCC
:1009D000F901EE52FC4F608171818F7041E050E06F
:1009E00002C0440F551F8A95E2F7CA018623972358
:1009F000892BA1F08091EA039091EB0301979093EA
:100A0000EB038093EA0381E02E523C4F40955095D2
:100A100046235723F90151834083089580E0F4CFA2
:100A200080E00895FC0190E080E06115710509F413
:100A3000089521913191A9015695479545755575B0
:100A4000241B350BA90143735373369527953695AF
:100A5000279523733373240F351FA901407F507FDF
:100A60002F703F70A4E0220F331FAA95E1F7240FE7
:100A7000351FA9015527232F3327240F351F820F38
:100A8000931F61507109D1CF982F6038C1F08091C8
:100A900003046817A1F06093030481E0209104042B
:100AA000291761F0909304048091F0039091F10371
:100AB00098609093F1038093F00381E0089580E0C3
:100AC000EDCF2091F4033091F50320383F4F21F012
:100AD0009093F5038093F4030895982F8091410437
:100AE000E0914004882361F0EF30A0F481E08E0FA4
:100AF00080934004F0E0EE5BFB4F908381E008952B
:100B0000E43348F481E08E0F80934004F0E0E45F2A
:100B1000FB4FF3CF80E00895CF93DF93C62FD091A2
:100B200040040E946D05811106C0D093400480E00E
:100B3000DF91CF9108958C2F0E946D058823A9F332
:100B400081E0F6CF10927A0410927B0480E294E464
:100B5000AEE1BEE18093CE039093CF03A093D00388
:100B6000B093D1038FEF8093790408951092CA0354
:100B70001092CB031092CC031092CD031092C603B7
:100B80001092C7031092C8031092C9031092060472
:100B90001092730410927204109271041092020465
:100BA0001092070410927C0410927E041092780434
:100BB0000C94A205FC01608171818281938108956A
:100BC000682F89EC94E00E94090390E080E008958A
:100BD000F894809116038F5F8093160308950E9406
:100BE000E805FFCFEF92FF921F93CF93DF938C30F6
:100BF00030F067EA70E081E491E00E94EF05880F31
:100C0000880F880F98E0980FC82FD0E010E0E92EE9
:100C1000F12CCE15DF053CF0812FDF91CF911F9194
:100C2000FF90EF9008958C2F0E94E004182B2196DE
:100C3000F0CFEF92FF921F93CF93DF93880F880F2F
:100C4000880F98E0980FC82FD0E010E0E92EF12C23
:100C5000CE15DF053CF0812FDF91CF911F91FF90E2
:100C6000EF9008958C2F0E94B004182B2196F0CF9E
:100C70000F931F930E941904AB01BC012091120332
:100C8000DC01CA013CE1B695A795979587953A9501
:100C9000D1F782278870820F80931203E4E0769563
:100CA000679557954795EA95D1F79B01382BC90170
:100CB000BA011F910F910895AF92BF92CF92DF9228
:100CC000EF92FF920F931F93CF93DF9380911603C0
:100CD000815080931603811169C0789403E113E079
:100CE000D0E0C0E0BB24B394E0916503F0916603CB
:100CF000EC0FFD1F23812F3F09F451C0F801D08074
:100D0000ED2CF12C30E0F901E152FD4F8491F90115
:100D1000E350FD4FC490F901EF5EFC4FA490AA2070
:100D200009F44FC081110E949103EA2DF0E0EE0F0B
:100D3000FF1FED59FD4FA591B491EC91CE2231E00A
:100D400020E009F430E0832F922FE816F90639F1FC
:100D5000DB24F801D082DD2011F1CE01880F991F2C
:100D6000880F991F9C01275A3C4F7901F901808116
:100D70009181A281B381892B8A2B8B2B81F40E94D4
:100D80003806611571058105910521F461E070E077
:100D900080E090E0F70160837183828393832196E2
:100DA0000F5F1F4FC330D10509F09ECFDF91CF9168
:100DB0001F910F91FF90EF90DF90CF90BF90AF9079
:100DC000089590E080E0C1CFCF93DF93EC010E94C3
:100DD000E8058091980390919903A0919A03B091AE
:100DE0009B03892B8A2B8B2B31F587EC94E066E9EA
:100DF00073E00E9499041092970310929603109248
:100E000098031092990310929A0310929B03D09327
:100E10009D03C0939C03E091C704F091C804A7EC24
:100E2000B4E0309759F486E993E08D939C93DF9179
:100E3000CF910C945C0685EC94E0D9CFDF01019052
:100E4000F081E02DEECFCF92DF92EF92FF920F93E1
:100E50001F93CF93DF93EC016A017B018901C114D9
:100E6000D104E104F10421F4C12CD12C7601C39406
:100E70000E94E8058A819B81AC81BD81892B8A2BE8
:100E80008B2B89F587EC94E0BE010E9499041982AE
:100E90001882CA82DB82EC82FD821F830E83E0917E
:100EA000C504F091C60425EC34E0309779F08281D6
:100EB0009381A481B5818C199D09AE09BF091816CB
:100EC00019061A061B0694F4F983E883F901D18305
:100ED000C083DF91CF911F910F91FF90EF90DF9032
:100EE000CF900C945C0685EC94E0CECF9F010190EE
:100EF000F081E02DDACFCF92DF92EF92FF926B017B
:100F00007C010E943806A7019601261B370B480B6F
:100F1000590BDA01C901B7FF0CC066277727CB014F
:100F2000621B730B840B950BFF90EF90DF90CF90BB
:100F30000895833332E09307A105B1058CF068E092
:100F400070E080E090E00E943E040E943806A70115
:100F50009601261B370B480B590BDA01C901E9CF63
:100F6000181619061A061B0664F424E0880F991F48
:100F70002A95E1F7880F991F880F991F0597019708
:100F8000F1F760E070E0CB01CFCFCF92DF92EF922C
:100F9000FF92A0914B03B0914C03682F6170ED91CB
:100FA000FC9111970190F081E02DCD0109956B0125
:100FB0007C01C114D104E104F10461F00E943806FF
:100FC0006C0D7D1D8E1D9F1DFF90EF90DF90CF90CB
:100FD0000C947B07FF90EF90DF90CF900895982FAF
:100FE000E0916503F091660381818F3F39F061E004
:100FF0002681291301C060E00C94BA03089581E0B2
:10100000089580E00895089560E070E0CB010895B0
:10101000E7E7F3E0848195819483968195839781B6
:101020009683878380859285908782878185938543
:1010300091878387878596859787958596879485F9
:10104000958784870895CF9327E733E0BC01605FDD
:101050007F4FDC01F90140E0CD9150815C27508346
:101060004F5F34964430C1F72F5F3F4F0496861789
:10107000970779F7CF910895FC0101900020E9F7D7
:101080003197AF01481B590BBC0189EC94E00C94DB
:101090006902CF93DF930E945603EC0189E791E048
:1010A0000E943C088C0F9D1FDF91CF9108958F9275
:1010B0009F92AF92BF920F931F93CF93DF93CDB7C1
:1010C000DEB7A1970FB6F894DEBF0FBECDBF19A251
:1010D000423008F44AE08E010F5D1F4F842E912CA0
:1010E000B12CA12CA50194010E94312AE62FB9014F
:1010F000CA01EA30F4F4E05DD801EE938D01232BB0
:10110000242B252B79F790E080E0109719F0CD0182
:101110000E943C08A1960FB6F894DEBF0FBECDBF6B
:10112000DF91CF911F910F91BF90AF909F908F90C3
:101130000895E95CE1CF0F931F93CF93DF9300D025
:1011400000D0CDB7DEB7DB011C969C911C971E9694
:101150003C911E971F962C911F971D964C911D97A1
:1011600049833A832B839C83BE016B5F7F4F9E0133
:101170002F5F3F4FF90111919F01412F42954F7011
:10118000F0E14F9FA0011124E12FEF70E40FF52F44
:10119000F11DE45AFC4F9491A90141505109FA0103
:1011A00090832617370731F791E05BE1813039F002
:1011B000492F440F97FD45278150942FF7CF898100
:1011C000982799838D0194E0FE013196A801DA01F8
:1011D0008D91AD0161918627BD0161507109DB01DF
:1011E0008C93BF0161507109DB018C93E217F30707
:1011F00071F791500C5F1F4F9111E6CF0F900F9038
:101200000F900F90DF91CF911F910F9108953F9212
:101210004F925F926F927F928F929F92AF92BF9206
:10122000CF92DF92EF92FF920F931F93CF93DF93B2
:10123000CDB7DEB768970FB6F894DEBF0FBECDBF4F
:101240008C0127E7C22E23E0D22EAC01405F5F4F16
:10125000C6017801FC01D70120E03D9130832F5F6A
:1012600034962430D1F724E0E20EF11C01964E159D
:101270005F0581F7A7E6B3E0FE01319687E793E0CB
:101280005E2E6F2E2D9121938A179B07D9F7852DFE
:10129000962D0E942308442443948BE7A82E83E0D4
:1012A000B82E4E0139E1830E911C9BE1392E87E760
:1012B00093E024E0DC01712CEC914E2F42954F70AD
:1012C00030E1439FA0011124EF70E40FF52FF11DD1
:1012D000E45AFC4FE491EC937394149654E0751225
:1012E000EBCF215001962111E5CF0E940808E7E7D6
:1012F000F3E0CE014596BE016F5E7F4F9F01D9019D
:101300005C91DC015D93CD01452F440F57FD83C0F7
:10131000DB014C932C5F3F4F6F5F7F4F8816990620
:1013200071F78E89398938272F89688D9A89922794
:101330009627432F492741934D895B899427952709
:1013400093839C8986278427852789278783242759
:10135000292732273387AE16BF0659F6652D762D1D
:10136000842D0E949B08852D962D0E94230843946E
:10137000BAE04B129CCF87E793E0DC0140E0EC91B0
:101380002E2F22952F7050E1259F90011124EF7090
:10139000E20FF32FF11DE45AFC4FE491EC934F5F01
:1013A0001496443061F77A9401967110E6CF0E944A
:1013B0000808652D762D8AE00E949B08852D962DC4
:1013C0000E942308D801F60180E090819D938F5FF1
:1013D00034968430D1F78FEFC81AD80A0C5F1F4FAC
:1013E000E016F10679F768960FB6F894DEBF0FBEE7
:1013F000CDBFDF91CF911F910F91FF90EF90DF90C4
:10140000CF90BF90AF909F908F907F906F905F90A4
:101410004F903F90089543257BCFE091FB03A0912F
:10142000FF03A770B0E020E43DE043E050E00E94FD
:10143000952A60527F458C4C914E6093B603709311
:10144000B7038093B8039093B90380917A04E53091
:1014500090F4E81BE63008F0E5E0E093FB03F0E0F1
:10146000E553FD4FE491F0E0EF77E068F093EF0390
:10147000E093EE030895E5E0ECCF4F925F926F9218
:101480007F928F929F92AF92BF92CF92DF92EF9214
:10149000FF920F93CF93DF9300D000D000D0CDB751
:1014A000DEB76B017C015E834D83277084E0289F4B
:1014B000F0011124E158FD4F85919591A591B491CA
:1014C00089839A83AB83BC834090AA035090AB037B
:1014D0006090AC037090AD0360919303709194039E
:1014E0006115710531F0673091E0790710F066E021
:1014F00071E090E080E0A70196010E94A02A00E13F
:101500000E94892B49015A0129813A814B815C81D2
:10151000220F331F441F551FC501B401660F771FEB
:10152000881F991F620F731F841F951F64587F4F78
:101530008F4F9F4F0E94532A2A5F3F4F43E85FEF30
:101540006FEF7FEF481959096A097B092115A4E05B
:101550003A07B8F18FEF93E09093FA038093F90381
:10156000C40ED51EE61EF71E4C0C5D1C6E1C7F1CA7
:101570004092AE035092AF036092B0037092B103F9
:10158000B301A20141575240610971092D813E8189
:1015900086E993E026960FB6F894DEBF0FBECDBF66
:1015A000DF91CF910F91FF90EF90DF90CF90BF90A0
:1015B000AF909F908F907F906F905F904F900C9422
:1015C00023073093FA032093F903CACFCF92DF9217
:1015D000EF92FF922091740430E0A4E2B4EF0E94F5
:1015E0007F2A6B017C010E940D0A2091FB034FEBC7
:1015F00055E2C701B601FF90EF90DF90CF900C94B9
:101600003D0A0E940D0A2091FB0343EC55E264EB76
:1016100074EC84E090E00C943D0AE82FF0E0E6538F
:10162000FD4FE491EF3F09F0815008958F929F9212
:10163000AF92BF92DF92EF92FF920F931F93CF93DF
:10164000DF93D82EEB018A01E22EE0916503F09141
:101650006603F08080849184A284B3848114910411
:10166000A104B10439F420E4822E22E4922E2FE06A
:10167000A22EB12C40E052E16AE770E080E08416CF
:101680009506A606B70640F4769567955795479553
:101690008F5F8630A1F787E0982F906A96958095A6
:1016A00081709CBD8DBD60E08F2D0E94BA03DEBCB1
:1016B00000000DB407FEFDCF8EB50C0F1D1FC01727
:1016C000D10771F080E0E11001C088818EBD00007B
:1016D0000DB407FEFDCF8EB5E11088832196EFCFC4
:1016E00061E08F2DDF91CF911F910F91FF90EF90CF
:1016F000DF90BF90AF909F908F900C94BA03CF93E0
:10170000DF931F92CDB7DEB721E041E050E0BE018C
:101710006F5F7F4F0E94160B89810F90DF91CF91F1
:101720000895CF93DF931F92CDB7DEB7698320E092
:1017300041E050E0BE016F5F7F4F80680E94160B52
:101740000F90DF91CF910895CF93C82F62E082E090
:101750000E94910B60E883E00E94910B61E084E0BD
:101760000E94910B69E985E00E94910B62E187E29A
:101770000E94910B60EDC11168ED80E30E94910B16
:1017800060E481E30E94910B61EC88E20E94910B7E
:1017900064E989E20E94910B61EC8AE2CF910C949A
:1017A000910B0F931F93CF93DF93C091FD03C4312F
:1017B0000CF040C0CE30CCF1C2310CF0C1E161E0A0
:1017C00080914B0390914C030091B6031091B703A5
:1017D0002091B8033091B903DC01ED91FC910084B4
:1017E000F185E02D4C2F0995813059F18230E1F1DE
:1017F000CF301CF5CC301CF1C067D7E014E06C2F63
:1018000089E00E94910B8DE40E947F0B887F682FF6
:10181000612B8DE40E94910B6D2F60628BE0DF9154
:10182000CF911F910F910C94910BCC3F0CF4CCEF06
:1018300060E0C6CF62E0C4E1C3CFCEE0DDCFCC5FD5
:10184000DCCF8091EE03877011F4CB305CF0C230B6
:101850002CF4C2E0C250C068DBE0D0CFC231D4F378
:10186000C1E1F8CFCBE0F6CFD0E117E0CFE8C7CFAA
:10187000AF92BF92CF92DF92EF92FF920F931F939E
:10188000CF93DF938091B6039091B703A091B803F3
:10189000B091B9039C01AD0160E070E080E090E0A0
:1018A00003E10E94702BA12CE8E4BE2EF8EECF2EAF
:1018B000DD24D394E12CF12C00E010E00E94DC2A1E
:1018C000C22FB32E6A017B01182FD92F00E10E948D
:1018D0008B2B622F86E00E94910B2C2F3B2DA601B3
:1018E000B701812F9D2F08E00E948B2B622F87E08C
:1018F0000E94910B6C2F88E0DF91CF911F910F9187
:10190000FF90EF90DF90CF90BF90AF900C94910B31
:101910001F93CF93DF936091EE037091EF03162F27
:101920001770CB0133E0969587953A95E1F7D82F5C
:10193000D370D13059F008F466C0D23009F465C0D4
:1019400066EC71E08CE791E00E94EF05C0E8CB0106
:1019500025E0969587952A95E1F78370823009F402
:1019600058C0833009F457C0813009F450C0C260B8
:10197000672F77276115710521F0C16082E20E940F
:10198000910B6C2F8DE10E94910B6091FA036370B3
:1019900060598FEF810F8295807F680F8091EE03F1
:1019A00087FF64608EE10E94910B8BEF810F823084
:1019B00010F4DD2391F1163011F4D13071F164E0AF
:1019C00086E20E94910BC0E063E0D23081F4809106
:1019D000B6039091B703A091B803B091B903CFE7D4
:1019E00081349D4DAA44BF4108F0C4E662E086E31D
:1019F0000E94910BCC2399F06C2F8AE3DF91CF9159
:101A00001F910C94910BC0E7A2CFC0E9A0CFC46096
:101A1000AFCFC660ADCFC860ABCF6CE0D1CFDF91A8
:101A2000CF911F910895CF93DF93D82FC82FC77000
:101A300019F081E00E94C5076D2F81E00E94910B93
:101A4000C11105C080E0DF91CF910C94C507DF91F3
:101A5000CF9108958091B6039091B703A091B803F8
:101A6000B091B90381349D4DAA44BF4118F488E078
:101A70000C94130D80E0FCCF8091B6039091B703D6
:101A8000A091B803B091B90381349D4DAA44BF41E0
:101A900018F488E80C94130D80E8FCCFCF93C82F7E
:101AA00081E00E947F0B887F8C2BCF910C94130DCB
:101AB000CF92DF92EF92FF92CF93DF93D82F0E94C5
:101AC0003C0D81E00E947F0B87FD06C06BE973E04F
:101AD0008CE791E00E94EF0581E00E944E0DD2302C
:101AE00009F07CC06AE08DE10E94910B60E78EE115
:101AF0000E94910B63E28CE00E94910B60E483E210
:101B00000E94910B8091C304882309F46CC083E385
:101B10000E947F0B682F6F7B83E30E94910B809163
:101B2000EE039091EF0323E0969587952A95E1F7D0
:101B3000C82FC37081E30E947F0B8877682F636092
:101B4000C23008F056C081E30E94910B60E48FE23E
:101B50000E94910B60E480E30E94910B6091F90375
:101B60008FE10E94910B64E389E30E94910B6CE08A
:101B700080E40E94910B6FEF82E10E94910BED2FA8
:101B8000F0E0EE52FD4F6491609581E10E94910B6F
:101B900080E00E94EF0760E08DE00E94910B60E022
:101BA0008FE00E94910BD11128C06091AE0370911B
:101BB000AF038091B0039091B1030E947B076B014A
:101BC0007C0186E00E944E0DC701B601DF91CF91E6
:101BD000FF90EF90DF90CF900C9470040E94880CDF
:101BE0000E94380C87CF83E30E947F0B682F6064CC
:101BF00093CF682F636881E3AFCF85E0DF91CF910A
:101C0000FF90EF90DF90CF900C944E0DCF92DF922B
:101C1000EF92FF92CF93C82F81E00E947F0B8770D5
:101C200069E274E0C1F48091EE03877009F060C04E
:101C3000C13041F41092820480919C0390919D03E5
:101C40000E94E4060E942A0D81E00E947F0B87FF1C
:101C500006C062E074E08CE791E00E94EF0581E04D
:101C60000E944E0D0E94380C63E28CE00E94910BA2
:101C70006EE18DE00E94910B6BE082E10E94910B7E
:101C800062E183E10E94910B6AEA8FE10E94910B6D
:101C90006FEF81E20E94910B81E00E94A40B68E348
:101CA00080E40E94910B80E00E94EF07C11118C0F0
:101CB0006091AE037091AF038091B0039091B10336
:101CC0000E947B076B017C0185E00E944E0DC701DD
:101CD000B601CF91FF90EF90DF90CF900C947004FD
:101CE00085E0CF91FF90EF90DF90CF900C944E0D58
:101CF0008C2FCF91FF90EF90DF90CF900C94580DE8
:101D00008FEF9FEF9093D3038093D2039093D503EB
:101D10008093D4039093D7038093D6039093D903F1
:101D20008093D8038FEF90E09093DB038093DA03E6
:101D3000EEEDF3E08CE0DF011D928A95E9F780E695
:101D400090E09093EB038093EA038FEF8093FF037F
:101D500008956F927F928F929F92AF92BF92CF928F
:101D6000DF92EF92FF920F931F93CF93DF93CDB744
:101D7000DEB760970FB6F894DEBF0FBECDBF7B0114
:101D80008A01282F30E0277F2230310549F02430A6
:101D9000310509F4CBC0232B09F09FC0D12C98C08A
:101DA00083FD32C087E193E00E94070990E1692E2C
:101DB000FE0131966F0127E2822E23E0922E37E852
:101DC000732E0115110509F060C060911703709121
:101DD00018038091190390911A030E94782A609643
:101DE0000FB6F894DEBF0FBECDBFDF91CF911F912C
:101DF0000F91FF90EF90DF90CF90BF90AF909F90AA
:101E00008F907F906F900895E7E1F3E080E1DF012C
:101E10001D928A95E9F7CACF01151105E9F5E62F5C
:101E2000F0E0E95EFC4F80818058808311E0D601AC
:101E3000E62D1D92EA95E9F7C6010E94070909817E
:101E4000C6010E94590207FF03C088898725888B35
:101E5000112349F01981C6010E94590217FF03C0DE
:101E600088898725888BF601D5018D915D01919137
:101E7000119789278C938A149B04B1F710E000E036
:101E800087E193E00E9407099CCF87E1A82E83E0B9
:101E9000B82ED701950160E0F90181919F019D91D4
:101EA000AF01415051098927FA0180836F5F7D019D
:101EB00001501109603109F0AFCF0115110501F78B
:101EC00010E0B5CF8E0D9F1D0E940709B0E1DB0E1B
:101ED0008D2D90E080179107A8F360E070E0CB01B2
:101EE0007ECF80E1E7E1F3E0DE01119601900D92F3
:101EF0008A95E1F7CE0101960E940709FE0131960D
:101F00009701205F3F4F9191D7018C9189278D9345
:101F10007D0101501109A217B30719F00115110530
:101F200091F7809126038F5F809326030115110599
:101F3000C1F6D3CF90912C03911106C06CE874E0E8
:101F40008CE791E00E94EF05903141F440E150E0D0
:101F50006CE273E080E00E94A90E90E0E92FF0E0CF
:101F6000E45DFC4F80819F5F90932C030895DF9286
:101F7000EF92FF920F931F93CF93DF936FE270E086
:101F8000009729F08136910530F061E370E08FEA27
:101F900091E00E94EF05C091FF03D0E0CF3F11F424
:101FA000CFEFDFEFE2EDF3E02EED33E0DF0132962D
:101FB0001C968D919C911D974D915C918423952346
:101FC000938782872E173F0789F766E070E08EEDD2
:101FD00093E00E9412057C01892B09F08FC08CE0F0
:101FE000E2EDF3E0AEEDB3E001900D928A95E1F7FA
:101FF00066E070E08EED93E00E9412057C01009790
:1020000009F4DDC0419708F479C010E000E0CF3F4B
:10201000DC0751F1C136D1050CF070C09E012F7064
:10202000332781E090E002C0880F991F2A95E2F7DC
:10203000FE0144E0F595E7954A95E1F7EE0FFF1FA5
:10204000E252FC4F208131818C01022313238095C1
:10205000909582239323918380830115110509F4C0
:102060004FC070E1E71AF1080E949A0FD82E0E9423
:102070009A0F9D2DB70124E0769567952A95E1F793
:102080000E94092A34E0880F991F3A95E1F7EEED96
:10209000F3E070E060E0219131912115310559F1B3
:1020A000A9015695479545755575D901A41BB50BE2
:1020B000AD0143735373B695A795B695A795A373D2
:1020C000B3734A0F5B1FDA01A07FB07F4F705F7060
:1020D00042955295507F5427407F54274A0F5B1FEB
:1020E000DA01BB27452F55274A0F5B1F8417950739
:1020F00080F0841B950B605F7F4FCDCF10E000E038
:10210000CFEFDFEFB1CFA90141505109242335238F
:1021100040970097C1F744275527421B530B422392
:102120005323CA018575957521E030E0892B11F0A4
:1021300030E020E0CA0183739373892B09F447C010
:1021400090E080E0820F931F9A012F703F70232B45
:1021500009F440C030E020E0820F931F30E020E01F
:10216000411102C028E030E0820F931F860F971FB5
:10217000FC0144E0F695E7954A95E1F7EE0FFF1F65
:10218000E252FC4FAC014F70552721E030E0B9011D
:1021900002C0660F771F4A95E2F7AB0120813181BB
:1021A0002627352731832083CF3FDC07B1F497FD05
:1021B00006C0803491050CF4885F8093FF03DF91A3
:1021C000CF911F910F91FF90EF90DF90089582E0E3
:1021D00090E0B8CF24E030E0BFCF24E0D595C7959C
:1021E0002A95E1F7CC0FDD1FC252DC4F28813981DF
:1021F000022B132B19830883DACF8091C2039091AD
:10220000C303A091C403B091C503892B8A2B8B2BE8
:1022100009F04BC08091F0039091F10310920004FB
:102220008E7C977A9093F1038093F00310927F0451
:10223000109206040E94A2058FEF8093FF03809105
:10224000EA039091EB030E94B70F0E943806609357
:10225000AA037093AB038093AC039093AD0380917A
:10226000F0039091F10393FF06C064ED70E08FEAF4
:1022700091E00E94EF0510920404E0917904EF3F91
:1022800091F0EF70F0E0E654FD4FE491E093030429
:1022900084609093F1038093F00380E993E20E94BD
:1022A000E40681E00895E3E1F1CF80E00895CF9264
:1022B000DF92EF92FF92CF93C82F0E949A0FF82ED1
:1022C0000E949A0F9F2D6C01853224EF920720F017
:1022D00024E2C21A24EFD20AF12CE12CCC2369F0BB
:1022E0006C2F0E94FD29292F30E0A4E2B4EF0E9458
:1022F0007F2AC60ED71EE81EF91EC701B601CF9170
:10230000FF90EF90DF90CF900895CF92DF92EF9201
:10231000FF926B017C01842F442331F00E945711FE
:10232000C60ED71EE81EF91E809100048823A9F06E
:102330008091BA039091BB03A091BC03B091BD03FF
:10234000A7019601281B390B4A0B5B0BDA01C90167
:10235000181619061A061B068CF4C092BA03D092FE
:10236000BB03E092BC03F092BD038091F003909117
:10237000F10391609093F1038093F003FF90EF904D
:10238000DF90CF900895AF92BF92CF92DF92EF92FD
:102390000F931F93CF93DF93DC011A141B04A4F552
:1023A00090E1E7E1F3E0EF01892F19928A95E9F7CF
:1023B000F1E0F0932603F0931703E0921C0340939F
:1023C0001D0350931E0360931F037093200300931B
:1023D0002103109322032093230330932403FD0150
:1023E000A7E6B3E001900D929A95E1F7A501B60139
:1023F00084E0DF91CF911F910F91EF90DF90CF900C
:10240000BF90AF900C94A90EDF91CF911F910F91C7
:10241000EF90DF90CF90BF90AF9008951F93CF9330
:10242000DF93CDB7DEB72F970FB6F894DEBF0FBEA0
:10243000CDBF80E00E944E0D0E94E8058091980378
:1024400090919903A0919A03B0919B03892B8A2BB9
:102450008B2B09F047C087EC94E066E973E00E949B
:1024600099040E945C068FE0E7E8F3E0DE01119634
:1024700001900D928A95E1F7E7E8F3E08EE391E0B1
:10248000DF019C011D9221503040E1F78FE0FE01F9
:102490003196A7E8B3E001900D928A95E1F70E948A
:1024A0009A0F182F0E949A0F912F9093F303809305
:1024B000F2031092F1031092F0031092050480E8E9
:1024C000809377040E94A20581E0809374042F9684
:1024D0000FB6F894DEBF0FBECDBFDF91CF911F9135
:1024E0000C94800E85EC94E0B8CF2F923F924F92DF
:1024F0005F926F927F928F929F92AF92BF92CF9294
:10250000DF92EF92FF920F931F93CF93DF93CDB79C
:10251000DEB76C970FB6F894DEBF0FBECDBF998FB4
:10252000888F3B0110924004452B09F5109241041D
:10253000F12CE12CE614F704F4F0C7016C960FB609
:10254000F894DEBF0FBECDBFDF91CF911F910F91E9
:10255000FF90EF90DF90CF90BF90AF909F908F90C3
:102560007F906F905F904F903F902F90089581E003
:1025700080934104DDCFC88CD98CCE0CDF1CF601D2
:102580002081223050F1422F4250550BFA01423146
:10259000510518F5E359FD4FE4918E2F90E09D8B86
:1025A0008C8B892B51F2C3018E199F09EC89FD890F
:1025B0008E179F070CF4C1CF2250283080F4E22FF1
:1025C000F0E0EB51FD4E0C94722AF012F812BB149D
:1025D00044141814EF12AD14CC14E0E0DECF370130
:1025E000EC89FD89EE0DFF1D730137017F01A2CF3C
:1025F000D60107E01B8A1A8A2A893B892B5F3F4F45
:1026000049019C014A895B89241B350B2530310522
:102610000CF493C011962C91119712964D915C91E8
:10262000139714963C9114973077E22FE295EF7050
:10263000303558F0303509F078C04115510509F4AE
:102640007AC04427452B09F076C0E63030F4F0E03C
:10265000E553FD4FE491EF3F09F40D7F2F702830D3
:1026600038F4E22FF0E0E455FD4FE491E03809F44E
:102670000B7F15962C91233009F454C08CE0E2EDC9
:10268000F3E0DE01119601900D928A95E1F78091B9
:10269000EA039091EB039B8F8A8F412C10E0073067
:1026A00009F077C09F8A8E8A160181E0412C10E0E4
:1026B000EE89FF8935970CF469C0F101A280B380DF
:1026C00011814480F42DF077F98BF035D9F5512C38
:1026D000852DA0FE34C00E9419065394B694A79489
:1026E00028E05212F5CF2091EA033091EB034E8996
:1026F0005F89455051095F8B4E8B55E0250E311C8B
:1027000081E02115310509F480E0A1014C195D0932
:10271000481559056CF2232BD9F1A12EA2948FE014
:10272000A8223DC09B8A8A8A67CF303609F489CFB8
:10273000303709F482CF0E7F88CF00E09FCF0E9410
:10274000F205CBCF8989803578F4805F8C8F5988EA
:10275000FC8D5F1640F6852DA0FE15C00E94B004CA
:102760005394B694A794F4CF512C9989852D903623
:1027700039F40E94B0045394E0E65E12F6CFE8CF3D
:102780000E94E004F8CF0E94E004EACF811101C06A
:1027900006E0A12EA2947FE0A722073041F48091A9
:1027A000EA039091EB0307E0079780F405E08CE0E3
:1027B000FE013196A2EDB3E001900D928A95E1F70A
:1027C0002A8D3B8D3093EB032093EA03BB24B39413
:1027D000D12CC12CC4018C199D0905976CF0602F78
:1027E00083E00E948C05B82E35E0C30ED11CC814BE
:1027F000D90414F48111EECF073099F4842D8F7031
:10280000909102048913809302041F7060E81830CD
:1028100028F4E12FF0E0E455FD4F64918A2D0E94E9
:1028200044054A895B89E40EF51EBB2001F1D8CE30
:102830002091F803022E000C330BC901029697FD7C
:1028400003969595879595958795182F1F734F97A4
:102850000CF01FE110937604D09095030091400492
:1028600086E00E946D05811104C000934004F701C9
:10287000BCCE8D2D0E946D058823B9F3812F0E9457
:102880006D05882391F3ACCEC7010196E88DF98DD3
:102890008E0F9F1FFC012081122F1F7030E044E03B
:1028A000359527954A95E1F7022F07700E94DA05C2
:1028B000272F382F492F5527A4E6B0E00E94952AEC
:1028C0004B015C01F0E88F1AF1EA9F0AF3E0AF0ACE
:1028D000FCE1BF0A21E082162AE5920622E6A20662
:1028E00022E0B20618F060E070E0CB0130EC3093EB
:1028F0007C04163050F4E12FF0E0E553FD4FE491F5
:10290000EF3F19F042EC40937C046115710581059D
:10291000910529F020917C04216020937C040430EF
:1029200028F420917C04246020937C0420917C0472
:10293000273C61F410937B046093CE037093CF0324
:102940008093D0039093D10300937A04622F677031
:1029500085E00E948C05B82E68CFF60181818F70CA
:1029600009F481E080937404F2E0F0937E0488E03F
:102970000E946D05F0CFF60181818F708093000475
:102980000E9438066093BA037093BB038093BC0324
:102990009093BD0384E0ECCFF60181818F73809327
:1029A000790489E0E5CF8A3110F48F5B089596EEC3
:1029B000980F9A3110F4895B08959CEC980F9A3027
:1029C00010F4845008958E3331F08F3331F081E06C
:1029D00090E00E94612E8BE208958FE208952F927D
:1029E0003F924F925F926F927F928F929F92AF929F
:1029F000BF92CF92DF92EF92FF920F931F93CF93EC
:102A0000DF93CDB7DEB7C250D2400FB6F894DEBF29
:102A10000FBECDBF8C010E9438066B017C014AE0DD
:102A2000F7FE0DC06DE289EC94E00E940903662771
:102A30007727CB016C197D098E099F094AE00E9416
:102A4000570882EA92E00E943C08F8013197E4318D
:102A5000F10508F0BBC2E15DFA4E0C94722A4315F1
:102A600048154B154E1551155415E61757155A159F
:102A70005D15CD15D015D315D615D915E617DC156E
:102A8000E017B315E3178CE292E00E9449086BC08F
:102A90008CE192E0FACF8BE092E0F7CF89EF91E002
:102AA000F4CF8EEE91E0F1CF84EE91E0EECF85EDA4
:102AB00091E0EBCF84EC91E0E8CF84E991E00E94D3
:102AC00049088091800487FF04C087E891E00E9454
:102AD0004908809182048823C1F18DE791E00E942A
:102AE00056036091820470E090E080E04AE00E942A
:102AF000570889E691E00E9456038DE391E00E9419
:102B0000560310E000E08091820480171106A9F0BE
:102B1000A4F0E0918104C80189579C4FE80FF92F78
:102B2000F11DE450FF4F608170E090E080E040E1F3
:102B30000E9457080F5F1F4FE6CF8AE791E00E947F
:102B40003C0889E791E00E943C080E943806AB01EE
:102B5000BC0148595647664F7F4F26E030E28DE46E
:102B600093E00E942307CE5FDD4F0FB6F894DEBFDF
:102B70000FBECDBFDF91CF911F910F91FF90EF90CE
:102B8000DF90CF90BF90AF909F908F907F906F908D
:102B90005F904F903F902F9008958FE291E075CF16
:102BA00086E291E072CF88E191E06FCF8BE091E017
:102BB0006CCF8DEF90E069CF82EF90E00E944908E2
:102BC00090908204992079F2C090EE03D090EF03A8
:102BD0000C2D07700A5F960143E0369527954A95BC
:102BE000E1F72370C60155E0969587955A95E1F770
:102BF000837070900304E090CA03F090CB0391E0DF
:102C0000E91AF10815E0882339F016E0813021F047
:102C100018E0823009F417E0222349F034EFB32E94
:102C2000AA24A394213031F49AEFB92E02C02DE7E3
:102C3000B22EA12CC090B6038090B7036090B80369
:102C40005090B9030E9438061F92DF92FF92EF92D4
:102C50001F921F93AF92BF921F927F921F920F936A
:102C60001F929F925F926F928F92CF929F938F93BA
:102C70007F936F9389EE91E09F938F930E94C62B71
:102C8000109102040E9438061F921F939F938F9306
:102C90007F936F9386E392E09F938F930E94C62B5E
:102CA0000FB6F894DEBF0FBECDBF8CEE90E00E9451
:102CB000560360910B0470E090E080E04AE00E94CF
:102CC000570888EA90E00E94560310E000E08FE485
:102CD000E82E82E0F82E80910B0480171106C9F0CF
:102CE000C4F0E0918104C80189579C4FE80FF92F87
:102CF000F11DEB57FF4F80811F928F93FF92EF9250
:102D00000E94C62B0F5F1F4F0F900F900F900F90D8
:102D1000E2CF89E791E00E943C080E9438061F92AA
:102D200022E02F939F938F937F936F9384E592E09C
:102D30009F938F930E94C62B0091820410E00FB6E0
:102D4000F894DEBF0FBECDBF0115110509F519823C
:102D5000C801837099278230910509F409C103974E
:102D600009F41CC18E010F5F1E4FBE016F5F7F4FC4
:102D7000C8010E94BF2B1F930F938FE792E09F9390
:102D80008F930E94C62B0F900F900F900F90EBCE59
:102D9000C80163E070E00E941D2A4B01B2E0CB2E17
:102DA000D12C8130910539F0A3E0CA2ED12C0297A5
:102DB00011F0D12CC12C7401EE0CFF1CEE0CFF1C89
:102DC00087010C0D1D1D053591E019075CF6E4E83F
:102DD000F4E0CF5FDD4FF983E883C150D240CE01EC
:102DE00001965C01312C212C8214930409F454C007
:102DF000CF5FDD4FE881F981C150D2404080512C36
:102E0000542C4424052C000C660877088181482A3C
:102E1000D301C20162E1B695A795979587956A950A
:102E2000D1F78F730E94D314F5018083D301C201BF
:102E30007CE0B695A795979587957A95D1F78F738E
:102E40000E94D314F5018183D301C201E6E0B69557
:102E5000A79597958795EA95D1F78F730E94D3141C
:102E6000F5018283842D8F730E94D314F50183832F
:102E7000FFEF2F1A3F0ACF5FDD4F88819981C15044
:102E8000D2400396CF5FDD4F99838883C150D240F3
:102E900094E0A90EB11CA8CFC114D10441F4E1E023
:102EA000F0E0EC0FFD1FE00FF11F108251CFE2E0C8
:102EB000CE16D10489F4E1E0F0E0EC0FFD1FEE0D39
:102EC000FF1D81E48083FE01EE0DFF1D8283FE0164
:102ED000EE0DFF1D13823CCFF3E0CF16D10409F0B5
:102EE00037CFF401EE0FFF1FE80DF91DEC57FB4F34
:102EF0008080912C982C8824092C000CAA08BB08EF
:102F0000D501C40122E1B695A795979587952A9595
:102F1000D1F78F730E94D314E1E0F0E0EC0FFD1FB6
:102F2000EE0DFF1D8083D501C4013CE0B695A79549
:102F3000979587953A95D1F78F730E94D314FE0128
:102F4000EE0DFF1D8283D501C40146E0B695A7951D
:102F5000979587954A95D1F78F730E94D314FE01F8
:102F6000EE0DFF1D8383FE01EE0DFF1D1482F0CEDA
:102F7000033581E018070CF0F5CEE1E0F0E0EC0F4E
:102F8000FD1FE00FF11F8DE38083FE01E00FF11FB5
:102F90008283FE01E00FF11F1382E4CE043591E03D
:102FA000190709F4DFCEE1E0F0E0EC0FFD1FE00FC0
:102FB000F11F8DE38083FE01E00FF11F1282D2CE5C
:102FC0008AE990E062CD88E790E05FCD88E690E006
:102FD0000E945603B80190E080E04AE00E94570842
:102FE00089E791E00E943C08BECDCF92DF92EF923C
:102FF000FF92CF93DF93EC01C12CD12C7601C394C7
:103000000C2E04C0CC0CDD1CEE1CFF1C0A94D2F765
:10301000E3FC03C0CE010E94EF14D701C60188274C
:103020009472AA27BB27892B8A2B8B2B01F1E09165
:103030008B03F0918C033097D1F020918204409162
:103040008104211102C0442391F08091800450E05A
:1030500060E084FF04C0DA01AE57BB4F6C9130E0F2
:103060004D575B4F80918D0390918E030995CC2431
:1030700084E0D822E822FF24CD28CE28CF2819F1D9
:10308000E0918F03F09190033097E9F01092900354
:1030900010928F03C231D10541F18091800483FDEC
:1030A00024C090910A0461E0992339F0082E000CA5
:1030B000990B692F661F6627661F70E08091910348
:1030C000909192030995E0918703F09188033097DE
:1030D00071F0BE018091890390918A03DF91CF91B5
:1030E000FF90EF90DF90CF90099460E0E6CFDF9102
:1030F000CF91FF90EF90DF90CF9008952F923F9265
:103100004F925F926F927F928F929F92AF92BF92F7
:10311000CF92DF92EF92FF920F931F93CF93DF93A3
:10312000CDB7DEB7CB58D1090FB6F894DEBF0FBECE
:10313000CDBF8091F603811113C781E08093F60320
:103140008091F0039091F1039C01217C3327232B84
:1031500081F44091C2035091C3036091C403709104
:10316000C503452B462B472B29F582FD2FC00E9416
:10317000FD108091F60381508093F6038111E0CF1A
:10318000C557DF4F0FB6F894DEBF0FBECDBFDF913E
:10319000CF911F910F91FF90EF90DF90CF90BF9054
:1031A000AF909F908F907F906F905F904F903F90E7
:1031B0002F90089596FF0AC09F7B9093F103809310
:1031C000F00380EF9FE10E94E406D3CF0E9438060F
:1031D0006B017C010091F0031091F103C8018C7325
:1031E0009927892B09F4B1C613FF58C18091EA03CE
:1031F0009091EB03009711F00E94B70FC092AA03C1
:10320000D092AB03E092AC03F092AD038091F00357
:103210009091F103977F9093F1038093F003B701AE
:10322000A60180910004811106C08091F003909165
:10323000F10390FF12C08091BA039091BB03A0915B
:10324000BC03B091BD032A013B01481A590A6A0A1E
:103250007B0A77FE02C0AC01BD0121E7C20E22E06D
:10326000D21EE11CF11CDB01CA018C199D09AE09BB
:10327000BF09B7FF56C630910404CF57DF4F3883DC
:10328000C158D04004721127012B09F41FC180914D
:10329000F0031091060485FD16C1109283049091ED
:1032A000F2038091F303909394048093950443E197
:1032B00050E063E874E08AE00E94A90E60939904EC
:1032C00070939804809397049093960487E1809379
:1032D00082048091F2039091F30301969093F3039B
:1032E0008093F20381E09BE090939D0380939C0385
:1032F000CF57DF4FC880C158D040EC2DF0E0E553E8
:10330000FD4FE4918091050420E2829FC0011124C9
:10331000EF798E2B9093EF038093EE03C092FB0323
:103320008091F0039091F1038F76967F806898608A
:103330009093F1038093F003A091FF03A03670F502
:10334000B0E020E43DE043E050E00E94952A8B018C
:103350009C01005A1A4C274F334E00364FE9140790
:1033600040E224074CE1340708F0B3C4605A764ABF
:103370008340934E6093B6037093B7038093B80372
:103380009093B903E0917904EF3F09F420C5EF7001
:10339000F0E0E654FD4FE491E093FC0390910304C8
:1033A0008091FC0398170CF4892F8093FD0381E131
:1033B00090E00E94F5171092AA031092AB031092AE
:1033C000AC031092AD0381E00E947F0B877059F02F
:1033D00080E00E944E0D0E943806625C7F4F8F4F46
:1033E0009F4F0E947B074090B2035090B3036090C0
:1033F000B4037090B50314141504160417040CF0EC
:10340000EBC481E00E94580D8091B6039091B70300
:10341000A091B803B091B90381349D4DAA44BF4136
:1034200008F4D7C483E69FEFE0916503F09166034B
:1034300027817C01E20EF11C27FDFA940E943806D8
:10344000615E7F4F8F4F9F4F0E947B070E9438061F
:1034500010E0460E571E681E791E8BE10E947F0BFE
:10346000181708F4182F0E94380664197509860980
:10347000970997FDF2CF80E00E944E0D8091FE03E8
:10348000082E000C990BE10EF11CE816F9060CF45D
:10349000A3C480919C0390919D0395CE4091AA0373
:1034A0005091AB036091AC037091AD03BACECF578E
:1034B000DF4F8881C158D0400E940D0BCF57DF4F9E
:1034C0008883C158D040115090F7E7CE8091C60351
:1034D0009091C703A091C803B091C90380389F4F52
:1034E000AF4FBF4F18F081E690E26DCE80917F0420
:1034F00081110DC08091CA039091CB03A091CC03A0
:10350000B091CD038F3F9F4FAF4FBF4F61F3E0901E
:10351000F003F090F10378E1E722FF2480E1E81660
:10352000F10409F4CAC1A0900B0480910904882316
:1035300009F4C5C180914104882309F4C0C10091F8
:103540004004002309F4BBC110E0A80162E474E068
:103550008BE894E00E94AF2B085F1F4F109240044D
:103560001092410480917C04882331F086FFAAC127
:1035700090E4892780937C0480917D04882331F036
:1035800086FFB0C190E4892780937D0480917E04FA
:10359000823009F0B7C181E080937E0409311105C2
:1035A0000CF076C380917304882361F08091F4035A
:1035B0009091F50397FF04C090E080E00E946105C0
:1035C000109273046A2C712C25E0620E711CF0E1DC
:1035D000EF16F10419F4A4E06A2E712C600E711E2E
:1035E00031E4631671040CF098C191E040E1E416F7
:1035F000F10409F490E0E0910404E63008F092C18F
:10360000F0E0EC54FD4FE491E615170408F440C3D4
:1036100080E4809383048091710440917704482B67
:103620002091F4033091F50337FD7EC12152310919
:10363000203B324008F478C120E488EF800F842BCF
:10364000822B809388044091C2033091C303209160
:10365000C4038091C5034093840430938504209370
:1036600086048093870480917F04811118C0209183
:103670000704211114C04091CA035091CB036091FB
:10368000CC037091CD034F5F5F4F6F4F7F4F4093DF
:10369000CA035093CB036093CC037093CD03209166
:1036A000CA033091CB032150310920938904309310
:1036B0008A04109271049923D9F190910A049923F4
:1036C00009F434C190E890938304811103C081E030
:1036D00080937F04F801ED57FB4F809109048083AC
:1036E000C8018C579B4F6C01B12CA5016CE074E0B4
:1036F0000E94AF2B0091CA031091CB032091CC0301
:103700003091CD0301501109210931094091C203C3
:103710005091C3036091C4037091C5038091090463
:10372000811111C181E594E0F12CE12C0E94C311BB
:103730008301045011098091CA039091CB03A09199
:10374000CC03B091CD030197A109B1096091C203E7
:103750005091C3034091C4033091C50320E1E7E1D8
:10376000F3E0C22E1192CA94E9F779E4709317033B
:1037700010921C030093260360931D0350931E03B5
:1037800040931F03309320038093210390932203DF
:10379000A0932303B0932403E1E5F4E0A7E6B3E0AC
:1037A00001900D922A95E1F7A80163E874E082E0A8
:1037B0000E94A90EF801ED57FB4F6383728381834A
:1037C0009083609282042EE832E03F932F930E9410
:1037D000C62B0F900F9010E000E0809182048017BC
:1037E000110611F00CF0B2C08AE090E00E94DC2BD0
:1037F00080918204E3E8F4E0CC57DF4FF983E8835B
:10380000C458D040CA57DF4FF983E883C658D04028
:1038100010E000E0912C812C482F50E0C657DF4F7C
:1038200059834883CA58D040C657DF4F48815981D1
:10383000CA58D040841695060CF4A2C01F930F936B
:103840001F930F9385EA92E09F938F930E94C62B5C
:1038500019831A8211271C830B8310918204412F34
:1038600050E0FE0135960F900F900F900F900F9043
:103870000F90A3E8B4E090E080E0841795070CF483
:10388000EFC1440F551F70E060E083E894E00E94B0
:10389000B82B1E5F10938204FE01319630E020E0C9
:1038A000812F90E0281739070CF4E0C1E6EEFAE02A
:1038B000F0939D03E0939C031BCDA12C3BCE08E02D
:1038C00010E04CCE980129573C4FF901E450FF4FCE
:1038D00095E0908323503F4F8770D9018C930E5F02
:1038E0001F4F4ACE980129573C4FF901E450FF4F32
:1038F0009AE0908323503F4F8370F90180830E5FDD
:103900001F4F44CE882309F449CEF801ED57FB4FF1
:1039100088E080830F5F1F4F41CE380154E0650E71
:10392000711C68CEE0E070CE20E087CE809102046A
:10393000882309F4CFCE809107048111CBCE81E09A
:1039400080930704C7CE81E694E0EECEE091810437
:10395000C80189579C4FE80FF92FF11DE450FF4F24
:1039600080811F928F938FE492E09F938F930E94A8
:10397000C62B0F5F1F4F0F900F900F900F902DCF02
:10398000CA57DF4FA881B981C658D040BD90CA57E9
:10399000DF4FB983A883C658D04078019CE0F594E6
:1039A000E7949A95E1F7412E552447FC5A944E240A
:1039B0005F244B2D0B2C000C550B44255525CA01BB
:1039C00081709927D801A8E0BA02A12DBB0B112460
:1039D0009801232F330F330B2595F901EA27FB2795
:1039E000CE57DF4FF983E883C258D0402B2D259561
:1039F000022E000C330B2E273F27220F331F22707D
:103A00003327822B932BF801FF0FEE0BFF0FFE2FB6
:103A1000EE1F1801232C330C3308259425942E26F1
:103A20003F262B2D25952595022E000C330B2225A4
:103A30003325220F331F220F331F24703327280F03
:103A4000391FA8014427550F441F5527B80160E2CC
:103A50007602612D770B1124B3FACC24C0F8C85735
:103A6000DF4FC882C858D040C757DF4F1882C958A7
:103A7000D040CB018170992784279527C857DF4F05
:103A8000C880D980C858D0408C259D25880F991FA3
:103A9000880F991F880F991F280F391F8B2D859527
:103AA000859585958595082E000C990B8E259F256B
:103AB00082959295907F9827807F9827807199278B
:103AC000820F931F9D0124253525CB2CC594C594C9
:103AD000C594C594C5940C2C000CDD082C253D25FF
:103AE000689414F8220F331F1694E1F720723327DD
:103AF000280F391F8B2D86FB880F880B80F9082E25
:103B0000000C990BCE57DF4FC880D980C258D040E7
:103B1000CE26DF268C259D25689415F8880F991FE1
:103B20001694E1F780749927820F931F310121E0E9
:103B30006222772464267526BB1CBB24BB1C930120
:103B40002B253695322F222737952795280F391F99
:103B5000CB01802791278170992784279527982F5B
:103B60008827820F931F6801D594C794EC24FD2405
:103B7000FE2CEE24FF0CEE2432E0F3228E0D9F1D6E
:103B80005801B594A794B594A794AA26BB26BA2C3D
:103B9000AA24BB0CBB0CAA24A4E0BA228A0D9B1D4C
:103BA0003801A3E075946794AA95E1F76E267F2605
:103BB000762C6624770C770C770C6624B8E07B2291
:103BC000860D971D9801E4E035952795EA95E1F774
:103BD00042265326E1E04E22552444265526542CF5
:103BE00044245294F0EF5F22840D951D9801A5E0C6
:103BF00035952795AA95E1F7CE57DF4FC880D98034
:103C0000C258D0402C253D25322F22273295330F24
:103C1000307E22273072820F931FD80126E0B5959F
:103C2000A7952A95E1F7A225B325B0E4AB9FB02D67
:103C3000AA271124AA27B0748A0F9B1F000F012FF7
:103C4000001F110B06271727042715271127069594
:103C500017950027080F191F2FEF821A920AE4CD3B
:103C60002D9130E021933193019607CE4081329619
:103C7000CC57DF4FA881B981C458D0404D93CC5761
:103C8000DF4FB983A883C458D0402F5F3F4F0ACE7F
:103C900088E08093800480910A04811104C080919F
:103CA0007F04882319F088E4809380048091F003D6
:103CB0009091F10387769E7F9093F1038093F003B8
:103CC00010928204109281048AE090E00E94F5171D
:103CD00050CA003659E0150759E325075CE135075E
:103CE00028F4605A70418C41934E44CB0036A3E7D0
:103CF0001A07A1E52A07ACE13A0728F4605A7A4787
:103D00008443934E37CB0036BDED1B07B9E62B0736
:103D1000BCE13B0728F4605A744E8C44934E2ACB86
:103D20000036E7E41E07E2E82E07ECE13E0728F440
:103D3000605A7E448546934E1DCB0036F1EB1F073B
:103D4000FAE92F07FCE13F0728F4605A784B8D47CA
:103D5000934E10CB00364BE1140743EB24074CE1A4
:103D6000340728F4605A72428649934E03CB0036DA
:103D700055E815075BEC25075CE1350728F4605A28
:103D80007C488E4A934EF6CA0036AFEE1A07A3EE71
:103D90002A07ACE13A0728F4605A764F864C934ED6
:103DA000E9CA0036B9E51B07BCEF2B07BCE13B07AE
:103DB00028F4605A70468F4D934EDCCA0093B603C8
:103DC0001093B7032093B8033093B903DBCAE3E140
:103DD000E3CA8CE59FEF28CB8091EE03877009F052
:103DE0006AC00E942A0D81E00E944E0D80E00E9470
:103DF000A40B60E085E20E94910B65E086E20E94E0
:103E0000910B0E94380C0E94D10B69E28AE00E945B
:103E1000910B64E380E40E94910B609182046F5FD8
:103E200082E30E94910B6091820480E00E94910BDA
:103E30004091820450E020E063E874E080E80E9452
:103E4000160B81E00E94EF076091AA037091AB030B
:103E50008091AC039091AD036115710581059105C9
:103E600031F10E947B076115710581059105F9F01B
:103E70000091A4031091A5032091A6033091A703FC
:103E8000DC01CB01800F911FA21FB31F8093A403FD
:103E90009093A503A093A603B093A7038091A803D2
:103EA0009091A90301969093A9038093A80383E0BE
:103EB0000E944E0D5EC90E943C0D81E00E947F0B66
:103EC00087FD06C061E273E08CE791E00E94EF0598
:103ED00081E00E944E0D0E94880C0E94380C68E020
:103EE0008AE00E94910B0E94D10B64E389E30E9457
:103EF000910B6CE780E40E94910B6FEF82E10E94CE
:103F0000910B67EF81E10E94910B60E08EE00E94CF
:103F1000910B60E08DE00E94910B6091820482E23F
:103F200085CF8091F00381FF05C0411551056105E2
:103F3000710589F0415752406109710924E030E26E
:103F400086E993E00E94230714C940E050E0BA01DB
:103F500001FDF0CF0EC941E050E060E070E0EACF33
:103F600082E08093F6030CC98091F0039091F103F5
:103F700083FF35C010920B0482FF2CC0877E909384
:103F8000F1038093F00382E190E00E94F5178091A5
:103F9000F0039091F10385709927892B01F50E9418
:103FA000E8058091980390919903A0919A03B091AC
:103FB0009B03892B8A2B8B2B79F487EC94E066E9A1
:103FC00073E00E9499040E945C0680E00E944E0DFE
:103FD0000C947E188776D3CF85EC94E0F0CF0895CB
:103FE000E0EFF3E0808191818E7D9F7B91838083E0
:103FF0001092C2031092C3031092C4031092C5031F
:104000000E94B41F0C94FD100C947E188091F00354
:104010009091F10387FF04C08CE392E00C9449086F
:104020008C799927892BE1F4309104044091EA03BB
:104030005091EB03832F90E04730510588F0863094
:1040400078F4FC01EC54FD4FE491EE2349F0EF319C
:1040500090F5FC01E453FD4FE4910196EF3F61F7C9
:104060008091F0039091F1039C012C793327232B4D
:10407000F9F422E1E0E0F1E0ACE0B4E001900D926F
:104080002A95E1F710920A0421E02093090422E125
:1040900020930B049C0128603093F1032093F003DC
:1040A00082FD04C010927F04109207040E947E18C3
:1040B00085E592E0B3CF381799F260E80E94440595
:1040C000CFCF0E94B41F0E940E128CE090E00E949D
:1040D000F5170C94FD10CF938091F0039091F103AC
:1040E00087779093F1038093F00310920704109266
:1040F0007F0420914004222351F030914104332366
:1041000009F466C080619093F1038093F0030E94EC
:1041100038066E5E75488F4F9F4F40E00E948511B4
:1041200080918004877079F08091F0039091F10381
:1041300094FF09C09F7E9093F1038093F0038FE07A
:1041400090E00E94F5178AE090E00E94F5170E9427
:104150007E188091F4039091F5038197B4F18091DA
:1041600004040E940D0BC82F2091EA033091EB0349
:10417000809104042730310508F4C82F8C1332C015
:104180008091F4039091F503813F92404CF080912F
:10419000F0039091F10390649093F1038093F00306
:1041A00063E18C2F0E9444058091F0039091F1030C
:1041B0009C0130613093F1032093F00328173907F5
:1041C00021F08EE090E00E94F51781E0CF910895F4
:1041D00010920A041092090420930B0410924004D8
:1041E000886091CFCC23E1F290E080E00E946105ED
:1041F000D7CF80917F048823B1F1883020F58F5F7D
:1042000080937F0480FF07C0809104040E940D0BFF
:1042100060E80E9444056091AE037091AF03809105
:10422000B0039091B10343E00E9485118091F003A7
:104230009091F1038F779093F1038093F0030E94A4
:104240007E1881E0089580E6809380048091F403D5
:104250009091F50301960E946105109282041092DC
:1042600081040C946B2080910704882379F090914D
:104270000204891758F48F5F809307040E94380660
:104280006E5E75488F4F9F4F40E0CECF80E2DCCF0F
:104290002F923F924F925F926F927F928F929F9256
:1042A000AF92BF92CF92DF92EF92FF920F931F9344
:1042B000CF93DF9300D000D000D0CDB7DEB7809190
:1042C000F00387FFE5C1F0908204F1101AC0269632
:1042D0000FB6F894DEBF0FBECDBFDF91CF911F9117
:1042E0000F91FF90EF90DF90CF90BF90AF909F9095
:1042F0008F907F906F905F904F903F902F900C9495
:10430000F9202F2D30E03E832D832C30310544F4ED
:10431000109282048091800480FFD9CF80E0B9C1DF
:1043200080918304982F937099F7807E89838036DB
:1043300011F0803A69F784E894E00E94DA05009170
:10434000C2031091C3032091C4033091C5036017C9
:10435000710782079307E1F6309188043B833F7031
:10436000E32EC32ED12C1601A8E02A0E311C2D817C
:104370003E81245031093E832D832215330544F2BA
:1043800088248A94982C221633064CF4F101ED57B8
:10439000FB4F2081822E912CD60119961D01409051
:1043A000C6035090C7036090C8037090C903009182
:1043B000890410918A04041915090F3F100709F0A8
:1043C00078C021E0421A51086108710820E1E7E154
:1043D000F3E0DF01322F1D923A95E9F739E430938B
:1043E000170331E030931C03ACEFAF0DAC83A09307
:1043F000260360931D0370931E0380931F03909305
:104400002003409221035092220360922303709272
:104410002403E1E5F4E0A7E6B3E001900D922A95CC
:10442000E1F74D815E8163E874E082E00E94A90EAD
:104430009B01AC01ED81FE81ED57FB4F60817181E5
:10444000828193810E94782A2617370748075907E7
:1044500009F05ECF8091C6039091C703A091C80375
:10446000B091C903481659066A067B0638F58415CB
:104470009505A605B7050CF44BCF0197A109B10925
:10448000481659066A067B0609F042CF80917204ED
:10449000882309F43DCFB981B03A09F039CF80E2E1
:1044A000809371048114910409F40CC101E010E0BF
:1044B00033C0400E511E611C711C88CF0130104466
:1044C00008F026CFD301C2010196A11DB11D809332
:1044D000C6039093C703A093C803B093C90339815F
:1044E00080E2303A09F080E0809372048093710496
:1044F00010E000E08114910441F4EE2031F08D8150
:104500009E81281639060CF403CF80917104811125
:1045100003C09B8194FF09C08091F0039091F10347
:1045200080619093F1038093F0031092060410923F
:10453000730480EC9FEF0E94610510927C0410923E
:104540007E04E091EE03F091EF038E2F877033E04D
:10455000F695E7953A95E1F7E370F0E0A3E08A9FDE
:10456000E00DF11D1124E956FD4FE4918091F70310
:10457000082E000C990B80549109ED58FF0B8E1BEF
:104580009F0B97FD80E080937504A401B6018BE832
:1045900094E00E947512012B09F0BACEBFEF8B1682
:1045A0009B0699F12D813E81221933093E832D838B
:1045B0001216130654F5C1018D579B4F9A838983B8
:1045C0004091C2035091C3036091C4037091C5032D
:1045D00081E594E08114910411F081E694E0AD80CE
:1045E000BE80C980DA80EE24E394F12C930182012D
:1045F0000E94C3118114910441F450E040E06D81A8
:104600007E8189819A810E94751290917F049923FD
:1046100049F0AB8120E8A5FF20E480918004822B43
:104620008093800480918004181419043CF1806206
:10463000809380042092810410928204992321F0B7
:104640008091800486FD43CE26960FB6F894DEBF97
:104650000FBECDBFDF91CF911F910F91FF90EF90D3
:10466000DF90CF90BF90AF909F908F907F906F9092
:104670005F904F903F902F900C946B2080618093BF
:10468000800420928104FC80F218F0928204D6CF3C
:1046900081E026960FB6F894DEBF0FBECDBFDF9146
:1046A000CF911F910F91FF90EF90DF90CF90BF902F
:1046B000AF909F908F907F906F905F904F903F90C2
:1046C0002F900895EE2009F4F1CE01E010E017CF0D
:1046D0008091820481110EC0A0917404B0E0119603
:1046E00024E234EF0E948E2A20917B0448E955E2AF
:1046F0000C943D0A0E944821882371F3089580910B
:10470000820481110BC0109280040E943806655EFD
:1047100078448F4F9F4F42E00E9485110C944821AE
:1047200080910804882341F00E94800E85E090E08B
:104730000E94F5170C947E1881E080930804F6CF50
:10474000CF92DF92EF92FF92CF93DF938091F003AD
:104750009091F10382FD22C085FD0DC08F7790936B
:10476000F1038093F00381E0DF91CF91FF90EF9010
:10477000DF90CF9008958F759093F1038093F003AD
:10478000809106048A3018F48F5F8093060489E0D4
:1047900090E00E94F5170E947E18E5CF8F779093E6
:1047A000F1038093F00384E190E00E94F51780917B
:1047B00001048093FF038091EA039091EB030E9430
:1047C000B70F80917F048F5F80937F04C82FC770DD
:1047D000109204048091F0039091F103977F9093DD
:1047E000F1038093F0030E9438066B017C01209155
:1047F000040480E190E002C0959587952A95E2F740
:104800000E945711C60ED71EE81EF91EC092AA03B9
:10481000D092AB03E092AC03F092AD03C12CD12C4B
:104820007601C394CC2399F0C12CD12C7601C4E03D
:10483000D0E20E943806AB01BC014C0D5D1D6E1D1F
:104840007F1D9E0186E993E00E9423078CCFC9E675
:10485000D5E2EFCF8091800480FF0C94A02380E00C
:104860000895CF92DF92EF92FF920F931F93CF9311
:10487000DF938091800480FF05C0809182048823AB
:1048800009F402C18091F0039091F10387FFE6C023
:1048900084729927892B51F4DF91CF911F910F9149
:1048A000FF90EF90DF90CF900C942A241091820417
:1048B00011110AC0DF91CF911F910F91FF90EF90DE
:1048C000DF90CF900C94A023113111F0113221F719
:1048D00080918304837E8032F9F6C12FD0E0AE014F
:1048E0004150510964E874E080E00E94A90E2497C9
:1048F000AE0163E874E08AE00E94A90E6B017C01BE
:10490000CD57DB4F688179818A819B810E94782A0B
:10491000C616D706E806F90609F0BECF8AE894E085
:104920000E94DA056093C2037093C3038093C403AB
:104930009093C50387E894E00E94DA059927609375
:10494000BE037093BF038093C0039093C1031132E1
:10495000D1F480919F048130B1F490E9E92E94E084
:10496000F92EC0E0D70111960C9111978C91102F60
:10497000082FD0E1DC0FDC1373C0B2E0EB0EF11CAA
:10498000CD2FD03679F78091F2039091F303019700
:10499000E9E5F4E028E0DF011D922A95E9F721E03E
:1049A0002093510426E0E4E8F4E0A2E5B4E00190AD
:1049B0000D922A95E1F7809358049093590480E171
:1049C000E1E5F4E0A1E6B4E001900D928A95E1F70B
:1049D00082E08093610440E150E061E574E080E0B2
:1049E0000E94A90E40E150E061E674E080E00E9480
:1049F000A90E8091F00385FF08C0C0910604809144
:104A00000404C150E0F5809304048091F003909178
:104A1000F10389759D7F98609093F1038093F00373
:104A200010927F040E94B60580EC9FEF0E94610502
:104A300080918E04982F9F7090937B04829587704D
:104A400080937A0480918F048823E1F0809374042A
:104A500086E090E00E94F5170E947E1881E015C064
:104A6000C03609F48ACF8C2F00FF06C00E94B00424
:104A7000CF5F169507957FCF0E94E004F9CF0E9483
:104A80000D0BBFCF81E0E2CF80E0DF91CF911F918E
:104A90000F91FF90EF90DF90CF9008958091820466
:104AA00081110AC020917B0440EA55E268ED78EB61
:104AB00085E090E00C943D0A0E943124882391F314
:104AC000089580918204811102C0109280040C9498
:104AD000312488E090E00E94F5170C947E1882E063
:104AE00080938004E0917B04F0E0E553FD4FE49176
:104AF000F0E0EF77E068F093EF03E093EE0380914E
:104B0000CE039091CF03A091D003B091D1038093B5
:104B1000B6039093B703A093B803B093B903109270
:104B2000820483E190E00E94F51780E00C94060E69
:104B30008FE793E290939D0380939C030C946F25E1
:104B400081E695E290939D0380939C030C946F25DE
:104B500021E020938004EEEEF3E020813181206893
:104B6000318320831092820490939D0380939C0351
:104B700083E190E00E94F51780E00C94060E88E631
:104B800093E20C94A8258EE495E20C94A8251F923C
:104B90000F920FB60F9211242F933F934F935F9371
:104BA0006F937F938F939F93AF93BF93EF93FF93F5
:104BB00089EC94E00E94E702FF91EF91BF91AF91E1
:104BC0009F918F917F916F915F914F913F912F9125
:104BD0000F900FBE0F901F9018951F920F920FB657
:104BE0000F9211242F938F939F93EF93FF93E09154
:104BF000D904F091DA048081E091DF04F091E004BF
:104C000082FD1BC090818091E2048F5F8F732091A1
:104C1000E304821741F0E091E204F0E0E753FB4F38
:104C2000958F8093E204FF91EF919F918F912F9147
:104C30000F900FBE0F901F9018958081F4CF1F9298
:104C40000F920FB60F9211242F933F938F939F9340
:104C5000AF93BF938091550390915603A091570352
:104C6000B09158033091270323E0230F2D3758F5D7
:104C70000196A11DB11D20932703809355039093A6
:104C80005603A0935703B093580380912803909143
:104C90002903A0912A03B0912B030196A11DB11DF8
:104CA0008093280390932903A0932A03B0932B03A6
:104CB000BF91AF919F918F913F912F910F900FBE18
:104CC0000F901F90189526E8230F0296A11DB11D85
:104CD000D2CFE9ECF4E01382128288EE93E0A0E0F8
:104CE000B0E084839583A683B78385E291E09183C6
:104CF000808385EC90E09587848784EC90E09787AB
:104D0000868780EC90E0918B808B81EC90E0938B98
:104D1000828B82EC90E0958B848B86EC90E0978B75
:104D2000868B118E128E138E148E87E391E09093F2
:104D30006705809366050895CF93DF93CDB7DEB7FF
:104D4000A0970FB6F894DEBF0FBECDBF789484B5A0
:104D5000826084BD84B5816084BD85B5826085BD77
:104D600085B5816085BD80916E00816080936E0005
:104D700010928100809181008260809381008091F7
:104D800081008160809381008091800081608093A8
:104D900080008091B10084608093B1008091B00068
:104DA00081608093B00080917A00846080937A0063
:104DB00080917A00826080937A0080917A0081608D
:104DC00080937A0080917A00806880937A001092B4
:104DD000C100E091D904F091DA0482E08083E0918F
:104DE000D504F091D6041082E091D704F091D80454
:104DF00080E180831092E104E091DD04F091DE0413
:104E000086E08083E091DB04F091DC0480818061A6
:104E10008083E091DB04F091DC04808188608083F2
:104E2000E091DB04F091DC04808180688083E09174
:104E3000DB04F091DC0480818F7D808364E670E088
:104E400080E090E00E943E0485E493E00E944908DF
:104E5000E5ECF4E084E0DF011D928A95E9F783E157
:104E600091E0909366038093650386E695E09093C6
:104E70004C0380934B0361E08AE00E94BA0361E037
:104E80008AE00E94E80360E089E00E94E80360E0B5
:104E900082E00E94E80360E086E00E94E80360E0B0
:104EA00087E00E94E8031FB7F89480914A038111BC
:104EB00027C0EBE1F3E08491E7E0F3E09491E82F81
:104EC000F0E0EE0FFF1FED50FD4FA591B491EC9176
:104ED000E92321F461E08AE00E94BA0361E08AE0FC
:104EE0000E94E8038CB580618CBD8CB580648CBD5C
:104EF00061E08DE00E94E80361E08BE00E94E8033E
:104F000080914A038F5F80934A031FBFECE3F3E075
:104F10008EE0DF011D928A95E9F780EE95E090938F
:104F200045038093440382E080933F03F0936B0535
:104F3000E0936A0581E00E94C50700916503109126
:104F40006603F80182818F3F49F060E00E94BA0356
:104F500061E0D80112968C910E94E8030E94380605
:104F6000625C7F4F8F4F9F4F0E947B07F8018281C9
:104F70008F3F19F060E00E94E8030E943806685CE9
:104F80007E4F8F4F9F4F0E947B0780E00E944E0D07
:104F900082E40E947F0B823109F020C280914B0392
:104FA00090914C03DC01ED91FC910680F781E02D9E
:104FB0000995882341F08BE40E947F0B682F606184
:104FC0008BE40E94910B82E00E94580D81E00E94C8
:104FD0007F0B87708530D1F70CE213E0BBE3CB2E5B
:104FE000B3E0DB2EA8E0EA2EF12C8CE20E947F0BCE
:104FF0008170B82E8CE20E947F0B8170B816A9F3E5
:10500000F8018181880F8B298183F1E0EF1AF10883
:1050100061F70F5F1F4FC016D10621F710E1109303
:105020002C0380E00E944E0D80E490E09093F10309
:105030008093F0038FEF809395030E940E1240E15E
:1050400050E065E373E0CE0141960E94F42940E10F
:1050500050E065E273E0CE0101960E94F42983E1FD
:1050600090E0A0E0B0E08093BE039093BF03A093D4
:10507000C003B093C10385E19AEEAEEDB0E080933A
:10508000C2039093C303A093C403B093C503FE016E
:105090003196A1E5B4E0812F01900D928A95E1F758
:1050A000FE017196A1E6B4E001900D921A95E1F728
:1050B0008091F0039091F10389759D7B98609093A6
:1050C000F1038093F0030E94B60590E080E00E9417
:1050D000610510E0812F0E94F2051F5F1830D1F7A3
:1050E0001092730480E89FEF9093F5038093F4038C
:1050F00010927B041092770465E082E00E944405E0
:105100008DE493E00E940620EFE0BE2EF0E0CF2E6B
:10511000F0E0DF2E2FB7F89480915503909156035D
:10512000A0915703B09158032FBF61E091FF60E059
:105130008DE00E94BA0379E5E72E73E0F72E10E0C8
:1051400000E0E0916503F0916603E00FF11F8381B9
:105150008F3FC9F1D7014D905D906D907C904114C7
:1051600051046104710479F1F701108211821282F5
:10517000138281E00E947F0B87FFCEC082E10E94F4
:105180007F0B8093C40483FF45C0F2E04F1A51089F
:10519000610871084092AA035092AB036092AC037D
:1051A0007092AD036FEF81E10E94910B6FEF82E18E
:1051B0000E94910B80E00E944E0D80919C03909183
:1051C0009D030E94E4060F5F1F4FE4E0EE0EF11C0A
:1051D0000330110509F0B5CF0E94E8050091C7041E
:1051E0001091C8040115110509F4C9C0D8018D91A9
:1051F0009C919093C8048093C7040E945C0601159B
:10520000110509F4DFC0D8011696ED91FC91C80193
:105210000995D8C086FF7BC0E091EE03F091EF03C3
:10522000CF0163E0969587956A95E1F7837061F405
:10523000E770F0E0EE0FFF1FE25BFC4F8591949169
:10524000481A590A610871084092AE035092AF03A0
:105250006092B0037092B1038DE10E947F0B80FFDA
:1052600045C082E20E947F0B8093820480E10E940D
:105270007F0B682F8DE00E94910B4091820450E0DB
:1052800021E063E874E080E00E94160B89E10E944F
:105290007F0B8093F8038AE10E947F0B282F30E078
:1052A0004091B6035091B7036091B8037091B90370
:1052B00041345D4D6A447F41D8F02D5931099091B8
:1052C000F80397FF18C0A92FBB27A1950CF4B09540
:1052D000CD019595879595958795281B390B203499
:1052E00031059CF4205C2093F7035CCF83E1BACFB7
:1052F000245A3109E4CF2D39BFEF3B079CF36B2DC6
:105300000E94FD29280F311DEACF2FE7ECCF87FF40
:1053100049CF1092820446CF8EE30E947F0B8FE329
:105320000E947F0B83FF0CC04092AA035092AB03F4
:105330006092AC037092AD0381E00E944E0D3ACFB3
:1053400082FF1AC04092AE035092AF036092B00346
:105350007092B10382E30E947F0B80938204482FF6
:1053600050E021E063E874E080E00E94160B1092A8
:10537000F8031092F703E0CF10928204DDCFE091A2
:10538000C504F091C6043097D9F042805380648000
:1053900075800E943806461A570A680A790A14145A
:1053A00015041604170464F00091C5041091C60496
:1053B000F801808191819093C6048093C5041DCF2C
:1053C0000E945C06C114D10409F4A4CE0E94D30249
:1053D000882309F49FCE0E9400009CCE65E370E014
:1053E0008DED92E00E94EF05FB01DC0102C005900B
:1053F0000D9241505040D8F70895991B79E004C0B0
:10540000991F961708F0961B881F7A95C9F7809503
:105410000895AA1BBB1B51E107C0AA1FBB1FA617FB
:10542000B70710F0A61BB70B881F991F5A95A9F74D
:1054300080959095BC01CD01089597FB072E16F439
:10544000009407D077FD09D00E94092A07FC05D0F7
:105450003EF4909581959F4F0895709561957F4F8B
:105460000895A1E21A2EAA1BBB1BFD010DC0AA1FA5
:10547000BB1FEE1FFF1FA217B307E407F50720F0BD
:10548000A21BB30BE40BF50B661F771F881F991F38
:105490001A9469F760957095809590959B01AC0181
:1054A000BD01CF010895052E97FB1EF400940E94C4
:1054B0006A2A57FD07D00E94312A07FC03D04EF418
:1054C0000C946A2A50954095309521953F4F4F4F47
:1054D0005F4F089590958095709561957F4F8F4FA0
:1054E0009F4F0895EE0FFF1F0590F491E02D099452
:1054F0006927962769277827872778270895A29F05
:10550000B001B39FC001A39F700D811D1124911D97
:10551000B29F700D811D1124911D08950E947F2A54
:10552000B7FF0895821B930B08950E947F2AA59FC1
:10553000900DB49F900DA49F800D911D112408958E
:1055400097FB57FF0C94B02A9F938F930E94B02A29
:105550006E1B7F0BAF91BF918A0B9B0B0895E89454
:10556000DF93CF93FC01DB010E947F2A7F936F932F
:10557000E9019A01AC01BF93AF933F932F93DF01F1
:105580000E947F2A26F46C1B7D0B820B930B9E01DD
:10559000EB01FC010E94A62BAF91BF912F913F918F
:1055A0000E94A62BBE01CF01F9012F913F91CF910F
:1055B000DF910895689401C0E8948F929F92CF93F1
:1055C000DF930E94E82ADF91CF919F908F900895FA
:1055D00088249924F401E401B0E49F93AA279A1542
:1055E0008B049C04ED05FE05CF05D007A10798F4B8
:1055F000AD2FDC2FCF2FFE2FE92D982C892E982F41
:10560000872F762F652F542F432F322F2227B85004
:1056100031F7BF9127C01B2EBF91BB27220F331F2D
:10562000441F551F661F771F881F991F881C991CD0
:10563000EE1FFF1FCC1FDD1FAA1FBB1F8A149B0478
:10564000EC05FD05CE05DF05A007B10748F08A1877
:105650009B08EC09FD09CE09DF09A00BB10B216005
:105660001A94E1F62EF49401AF01BE01CD01000CB5
:1056700008952F923F924F925F926F927F928F92F6
:105680009F92AF92BF92CF92DF92EF92FF920F93D1
:105690001F93CF93DF93CDB7DEB7CA1BDB0B0FB6DB
:1056A000F894DEBF0FBECDBF09942A883988488898
:1056B0005F846E847D848C849B84AA84B984C8842E
:1056C000DF80EE80FD800C811B81AA81B981CE0F25
:1056D000D11D0FB6F894DEBF0FBECDBFED0108950A
:1056E000002E083090F0982F872F762F652F542F9B
:1056F000432F322F22270850F4CF220F331F441F8D
:10570000551F661F771F881F991F0A95B2F7002D36
:10571000089597FD1094002E083098F00850232F1C
:10572000342F452F562F672F782F892F912DF4CFA7
:1057300015949795879577956795579547953795DC
:1057400027950A95AAF71124002D08950E947F2A13
:10575000460F571FC81FD91F08F431960895FB0143
:10576000DC0102C001900D9241505040D8F70895DD
:10577000DC0101C06D9341505040E0F70895FB01FA
:10578000DC0101900D920020E1F70895B0E0A0E067
:10579000ECECFBE20C94492BAE014B5F5F4FFA013E
:1057A00061917191AF0180916A0590916B050E94A2
:1057B000E32BE2E00C94652B60916A0570916B0518
:1057C0000E94D32D0895ABE0B0E0E9EEFBE20C942B
:1057D000392B7C013B018A01FC01178216828381EF
:1057E00081FFC8C1CE0101965C01F7019381F301ED
:1057F00093FD859193FF81913F01882309F453C163
:10580000853239F493FD859193FF81913F01853273
:1058100029F4B70190E00E94D32DE7CF912C212CE1
:10582000312CFFE1F31538F08B3211F190F4803216
:1058300009F1833229F137FC3CC020ED280F2A30D2
:1058400050F536FE20C08AE0989E200D1124922E3D
:1058500006C08D3291F0803371F7689430F8F3010F
:1058600093FD859193FF81913F018111DACF21C092
:10587000689431F8689432F8F2CF689433F8EFCF37
:10588000689434F8ECCFEAE02E9E200D1124222EED
:10589000689435F8E4CF8E3229F436FC04C168945C
:1058A00036F8DDCF8C3619F4689437F8D8CF8836BF
:1058B000B1F2982F9F7D95549330E0F08336A1F19B
:1058C0008337C1F1833509F063C02801F2E04F0E40
:1058D000511CF801C080D180692D70E036FC02C0F7
:1058E0006FEF7FEFC6010E94BD2D4C01689437F821
:1058F00082010AC00C5F1F4FFFE3F9838824839461
:10590000912C6501E89437F833FE2DC0522C811498
:10591000910471F5552009F468CFB70180E290E059
:105920000E94D32D5A94F6CFF801808189830E5FAF
:105930001F4FE4CF2801F2E04F0E511CF801C08048
:10594000D180692D70E036FC02C06FEF7FEFC60199
:105950000E94C82D4C018201D5CFB70180E290E0B2
:105960000E94D32D2A942814190409F0B0F7CECF41
:10597000F60137FC859137FE81916F01B70190E008
:105980000E94D32D51105A94F1E08F1A9108BFCF85
:10599000843619F0893609F077C0F80137FE6BC0FC
:1059A00060817181828193810C5F1F4FF32DFF769F
:1059B0003F2E97FF09C090958095709561957F4F18
:1059C0008F4F9F4F689437F82AE030E0A5010E947E
:1059D000032EC82ECA188C2C432C36FE0CC0E8941B
:1059E00040F8C91440F434FE05C032FC03C0F32D66
:1059F000FE7E4F2E892C44FE95C0FE01EC0DF11D5C
:105A00008081803309F087C0242D297E422E842D89
:105A10008870582E43FC95C040FE8FC09C2C821489
:105A200018F42C0C922C981844FE91C0B70180E316
:105A300090E00E94D32D42FE09C088E790E041FE2D
:105A400002C088E590E0B7010E94D32DC91408F484
:105A50008AC0CA94D12C9FEFC91AD90ACA0CDB1C80
:105A6000F60182916F01B70190E00E94D32DAC1432
:105A7000BD04B1F74FCF60817181072E000C880BF8
:105A8000990B0E5F1F4F92CFD32CE894D4F82AE0E5
:105A900030E0853739F1232D297FD22E8F3601F161
:105AA00048F48835A9F0F701868197812B96E2E1C9
:105AB0000C94552B803749F08837A9F7D4FE02C0E3
:105AC0006894D2F820E130E00DC06894D4F8F6CFA5
:105AD00034FE03C0822F8660D82E20E132E002C05F
