:020000040000FA
:100000000C9445020C946D020C946D020C946D02DC
:100010000C946D020C946D020C946D020C946D02A4
:100020000C946D020C946D020C946D020C946D0294
:100030000C946D020C946D020C946D020C946D0284
:100040000C94A02A0C946D020C946E2A0C94482AED
:100050000C946D020C946D020C946D020C946D0264
:100060000C946D020C946D02556E6B6E6F776E2062
:100070006576656E743A200045565F4A4F494E5F7B
:100080005458434F4D504C4554453A206E6F204ACA
:100090006F696E4163636570740045565F545843E1
:1000A000414E43454C454400206279746573206F8E
:1000B00066205048595061796C6F61643A20004164
:1000C000637475616C2053656E74200020627974CE
:1000D0006573206F662046524D5061796C6F616484
:1000E0003A0041637475616C2053656E742000455D
:1000F000565F545853544152540045565F4C494E34
:100100004B5F414C4956450045565F4C494E4B5F4D
:10011000444541440045565F5258434F4D504C456D
:1001200054450045565F52455345540045565F4C73
:100130004F53545F5453594E430046524D506179CA
:100140006C6F61643A2000206279746573206F6679
:10015000207061796C6F61643A2000526563656953
:100160007665642000526563656976656420616325
:100170006B0045565F5458434F4D504C45544520F5
:1001800028696E636C756465732077616974696E44
:100190006720666F722052582077696E646F77739C
:1001A000290045565F52454A4F494E5F4641494CEA
:1001B00045440045565F4A4F494E5F4641494C45CC
:1001C000440045565F4A4F494E45440045565F4AF4
:1001D0004F494E494E470045565F424541434F4EB9
:1001E0005F545241434B45440045565F42454143AD
:1001F0004F4E5F4D49535345440045565F4245417C
:10020000434F4E5F464F554E440045565F53434162
:100210004E5F54494D454F5554004F505F5458520E
:100220005850454E442C206E6F742073656E64697F
:100230006E6700C2B043200025202054656D7065B4
:100240007261747572653A200048756D69646974ED
:10025000793A20004661696C656420746F2072658C
:1002600061642066726F6D204448542073656E731C
:100270006F7221005061636B6574207175657565DF
:1002800064000305020501060202050000060000E5
:100290000105040400040000000200000001000049
:1002A0008000000040000000200000002020200E00
:1002B00011140C0F12090C0F06090C030609000398
:1002C0000613110F0D0B09070540404080EBEB08AA
:1002D0000A0C0D0E10121415181A1B1D1E2124FFD6
:1002E000060504030201FFC04000000000002500D5
:1002F00028002B0000000008000201000003040792
:1003000000000000000000000000000024002700A2
:100310002A0043579EA99CF9256204D4778F63A6CF
:100320001C0CE9B53B908577E0CF4A7DBE490D4076
:10033000B045444854787820746573742100537430
:10034000617274696E6700000000006700CC00B83D
:100350000154039D07637C777BF26B6FC5300167A7
:100360002BFED7AB76CA82C97DFA5947F0ADD4A22D
:10037000AF9CA472C0B7FD9326363FF7CC34A5E5F9
:10038000F171D8311504C723C31896059A07128056
:10039000E2EB27B27509832C1A1B6E5AA0523BD68A
:1003A000B329E32F8453D100ED20FCB15B6ACBBEAF
:1003B000394A4C58CFD0EFAAFB434D338545F9025B
:1003C0007F503C9FA851A3408F929D38F5BCB6DA70
:1003D0002110FFF3D2CD0C13EC5F974417C4A77E16
:1003E0003D645D197360814FDC222A908846EEB827
:1003F00014DE5E0BDBE0323A0A4906245CC2D3AC61
:10040000629195E479E7C8376D8DD54EA96C56F4A5
:10041000EA657AAE08BA78252E1CA6B4C6E8DD7463
:100420001F4BBD8B8A703EB5664803F60E6135578B
:10043000B986C11D9EE1F8981169D98E949B1E87DB
:10044000E9CE5528DF8CA1890DBFE6426841992D80
:100450000FB054BB16000000002300260029000442
:10046000040404040404040202020202020303035B
:100470000303030102040810204080010204081055
:100480002001020408102000EA2A11241FBECFEF29
:10049000D8E0DEBFCDBF26E0AAEDB3E001C01D92DB
:1004A000A938B207E1F713E0A0E0B1E0E0E9FAE62D
:1004B00002C005900D92AA3DB107D9F712E0C5E43C
:1004C000D2E004C02197FE010E945E31C434D107FE
:1004D000C9F70E943D2B0C9446350C940000CF9236
:1004E000DF92EF92FF92CF93DF93C82F8091760631
:1004F0008C3009F45EC038F48B30F1F060E070E0CD
:1005000080EC9FE74FC085518230C0F7D0917206D2
:100510006D2F70E0762F662766277F7780917306B0
:10052000682B90E080E00E94D42F2DEC3CEC4CEC4A
:100530005DE30E948B3059C06091720670E090E0DC
:1005400080E00E94D42F6B017C01D0917306D7FF0D
:100550000AC0AC019B0160E070E080E89FEB0E9464
:10056000C12E6B017C01DF706D2F70E090E080E0A8
:100570000E94D62F2DEC3CEC4CEC5DE30E948B30BE
:10058000A70196010E94C22ECC2361F026E636E632
:1005900046EE5FE30E948B3020E030E040E052E422
:1005A0000E94C22EDF91CF91FF90EF90DF90CF900D
:1005B0000895D09172066D2F70E090E080E00E9467
:1005C000D42F6B017C01609173066F7070E090E036
:1005D00080E00E94D62F2DEC3CEC4CEC5DE30E94B9
:1005E0008B30A70196010E94C22ED7FFCDCF905825
:1005F000CBCFCF92DF92EF92FF92CF93DF93B09168
:100600007706A0E08111AB2F8091780690E0880FEB
:10061000991FAC014B5A5B4FC0907D06D0907E066F
:10062000E0907F06F090800630E020E0FA01C5916E
:10063000D491E881B90190E080E0EB23EA130AC08D
:100640002F5F3F4F6C157D058E059F0578F36FEF8B
:100650007FEFCB01DF91CF91FF90EF90DF90CF90B4
:100660000895FC0120E1215008F4089580E0211153
:1006700081819191990F87FD9160DF0111979C9382
:10068000F2CFAF92BF92CF92DF92EF92FF920F9391
:100690001F93CF93DF936C017B018B01040F151F18
:1006A000EB015E01AE18BF08C017D10759F0699180
:1006B000D601ED91FC910190F081E02DC6010995E4
:1006C000892B79F7C501DF91CF911F910F91FF9091
:1006D000EF90DF90CF90BF90AF900895FC01538DC5
:1006E000448D252F30E0842F90E0821B930B54170C
:1006F00010F0CF96089501970895FC01918D828D99
:10070000981761F0A28DAE0FBF2FB11D5D968C9131
:10071000928D9F5F9F73928F90E008958FEF9FEF70
:100720000895FC01918D828D981731F0828DE80F2C
:10073000F11D858D90E008958FEF9FEF0895FC01E6
:10074000918D228D892F90E0805C9F4F821B9109B3
:100750008F739927089581ED95E00E949F0321E012
:10076000892B09F420E0822F089580E090E0892B06
:1007700029F00E94AB0381110C9400000895FC0144
:10078000A48DA80FB92FB11DA35ABF4F2C91848DF2
:1007900090E001968F739927848FA689B7892C934F
:1007A000A089B1898C91837080648C93938D848DA2
:1007B000981306C00288F389E02D80818F7D8083A5
:1007C0000895EF92FF920F931F93CF93DF93EC0165
:1007D00081E0888F9B8D8C8D98131AC0E889F989E8
:1007E000808185FF15C09FB7F894EE89FF896083EB
:1007F000E889F98980818370806480839FBF81E06C
:1008000090E0DF91CF911F910F91FF90EF900895AD
:10081000F62E0B8D10E00F5F1F4F0F731127E02E88
:100820008C8D8E110CC00FB607FCFACFE889F989C0
:10083000808185FFF5CFCE010E94BF03F1CFEB8D04
:10084000EC0FFD2FF11DE35AFF4FF0829FB7F89494
:100850000B8FEA89FB8980818062CFCF0F931F9332
:10086000CF93DF938C01D0E0C0E0F801EC0FFD1FC7
:100870006491662341F081ED95E00E94E103892BAC
:1008800011F02196F2CFCE01DF91CF911F910F9100
:100890000895CF93DF93EC01888D8823B9F0AA895E
:1008A000BB89E889F9898C9185FD03C0808186FD2B
:1008B0000DC00FB607FCF7CF8C9185FFF2CF80817A
:1008C00085FFEDCFCE010E94BF03E9CFDF91CF912D
:1008D0000895833081F028F4813099F08230A9F0B6
:1008E00008958730A9F08830C9F08430B1F4809140
:1008F00080008F7D03C0809180008F77809380007F
:10090000089584B58F7784BD089584B58F7DFBCF1E
:100910008091B0008F778093B00008958091B000EF
:100920008F7DF9CF1F93CF93DF93282F30E0F9010C
:10093000EC50FD4F8491F901ED58FB4FD491F90132
:10094000E15AFB4FC491CC23A9F0162F81110E94CC
:100950006904EC2FF0E0EE0FFF1FE651FD4FA5916B
:10096000B4918FB7F894EC91111108C0D095DE23A3
:10097000DC938FBFDF91CF911F910895DE2BF8CFCD
:10098000CF93DF9390E0FC01ED58FB4F2491815A07
:100990009B4FFC0184918823C9F090E0880F991F38
:1009A000FC01E85FFC4FA591B491FC01E651FD4FBD
:1009B000C591D49161110DC09FB7F8948C91209589
:1009C00082238C938881282328839FBFDF91CF9136
:1009D0000895623051F49FB7F8943C91822F80952E
:1009E00083238C93E8812E2BEFCF8FB7F894EC9173
:1009F0002E2B2C938FBFEACF3FB7F8948091F00352
:100A00009091F103A091F203B091F30326B5A89B56
:100A100005C02F3F19F00196A11DB11D3FBFBA2F90
:100A2000A92F982F8827BC01CD01620F711D811D50
:100A3000911D42E0660F771F881F991F4A95D1F7D5
:100A400008958F929F92AF92BF92CF92DF92EF92D2
:100A5000FF924B015C010E94FC046B017C010E942F
:100A6000FC046C197D098E099F09683E734081055D
:100A70009105A8F321E0821A9108A108B10888EE37
:100A8000C80E83E0D81EE11CF11C81149104A1045E
:100A9000B10429F7FF90EF90DF90CF90BF90AF9017
:100AA0009F908F900895CF92DF92EF92FF920F93D5
:100AB0001F93CF93DF93CDB7DEB7C054D1400FB6AD
:100AC000F894DEBF0FBECDBF2FB7F8948091CD054F
:100AD0009091CE05A091CF05B091D0052FBF409148
:100AE000790650917A0660917B0670917C068C01A4
:100AF0009D01041B150B260B370BB901A801403DC6
:100B000057406105710590F480918106C05CDE4F0D
:100B10000FB6F894DEBF0FBECDBFDF91CF911F910E
:100B20000F91FF90EF90DF90CF900895809379061A
:100B300090937A06A0937B06B0937C06109274067D
:100B4000109273061092720610927106109270063F
:100B500062E0809175060E94C00461E070E080E070
:100B600090E00E94210561E0809175060E94C0041A
:100B700060E0809175060E9492048091760685510E
:100B8000823020F58BE291E10197F1F762E08091EC
:100B900075060E94C0048091820690E08230910523
:100BA00038F0880F991F880F991F05970197F1F763
:100BB000F89480E00E94F9026F3F7F4F8F4F9F4F64
:100BC00061F410928106789480E0A0CF64E170E037
:100BD00080E090E00E942105D9CF81E00E94F902D7
:100BE0006F3F7F4F8F4F9F4F61F38E010F5F1F4FFE
:100BF0006E018FEBC81A8EEFD80A780180E00E9450
:100C0000F902F701608371838283938381E00E94FC
:100C1000F902F7016483758386839783F8E0EF0E0A
:100C2000F11CEC14FD0451F7789430E020E0F80159
:100C3000C080D180E280F3804481558166817781D4
:100C4000FFEFCF16DF06EF06FF0631F04F3F8FEFC5
:100C500058076807780719F410928106B5CFF90193
:100C600083E0F595E7958A95E1F7E059F94F8081A2
:100C7000880FC416D506E606F70610F180832F5FAD
:100C80003F4F085F1F4F2832310589F640917406A7
:100C90002091700680917106280F3327331F8091B1
:100CA0007206280F311D80917306820F932F911DBC
:100CB00099274817190681F681E08093810626CF8F
:100CC0008160DCCF0F931F9361157105810591053C
:100CD000F9F0009162041091630420916404309152
:100CE0006504DC01CB01800F911FA21FB31F80930D
:100CF000620490936304A0936404B09365048091AC
:100D0000660490916704019690936704809366044B
:100D10001F910F910895FC0120813181211531052A
:100D200019F490E080E008952617370749F4FB0195
:100D300020813181FC013183208381E090E008959E
:100D4000C901E9CF803660F5282F22952F7030E059
:100D5000220F331FF901EA56FB4F408151818F70FA
:100D600061E070E002C0660F771F8A95E2F7CA0162
:100D700086239723892B91F48091AE049091AF0440
:100D800001969093AF048093AE0481E02A563B4FC6
:100D9000462B572BF90151834083089580E0F6CF0D
:100DA00080E00895803670F5282F22952F7030E06E
:100DB000220F331FF901EA56FB4F608171818F705A
:100DC00041E050E002C0440F551F8A95E2F7CA0186
:100DD00086239723892BA1F08091AE049091AF04D4
:100DE00001979093AF048093AE0481E02A563B4F65
:100DF0004095509546235723F90151834083089528
:100E000080E0F4CF80E00895FC0190E080E061157F
:100E1000710509F4089521913191A90156954795DD
:100E200045755575241B350BA901437353733695CE
:100E300027953695279523733373240F351FA90102
:100E4000407F507F2F703F70A4E0220F331FAA9580
:100E5000E1F7240F351FA9015527232F3327240F2E
:100E6000351F820F931F61507109D1CF982F6038C1
:100E7000C1F08091C7046817A1F06093C70481E0B6
:100E80002091C804291761F09093C8048091B4049C
:100E90009091B50498609093B5048093B40481E078
:100EA000089580E0EDCF2091B8043091B904203846
:100EB0003F4F21F09093B9048093B8040895982F80
:100EC00080910505E0910405882361F0EF30A0F4DE
:100ED00081E08E0F80930405F0E0EA5FFA4F908383
:100EE00081E00895E43348F481E08E0F8093040597
:100EF000F0E0E053FB4FF3CF80E00895CF93DF9312
:100F0000C62FD09104050E945F07811106C0D093BF
:100F1000040580E0DF91CF9108958C2F0E945F0738
:100F20008823A9F381E0F6CF10923E0510923F0589
:100F300080E294E4AEE1BEE1809392049093930446
:100F4000A0939404B09395048FEF80933D0508958A
:100F500010928E0410928F041092900410929104BB
:100F600010928A0410928B0410928C0410928D04BB
:100F70001092CA041092370510923605109235056A
:100F80001092C6041092CB041092400510924205B4
:100F900010923C050C949407FC0160817181828160
:100FA00093810895682F81ED95E00E94E10390E020
:100FB00080E00895F8948091DE038F5F8093DE03D4
:100FC00008950E94DA07FFCFEF92FF921F93CF930D
:100FD000DF938C3030F067EA70E086E591E00E94A4
:100FE000E107880F880F880F98E0980FC82FD0E08E
:100FF00010E0E92EF12CCE15DF053CF0812FDF91BA
:10100000CF911F91FF90EF9008958C2F0E94D206F0
:10101000182B2196F0CFEF92FF921F93CF93DF937F
:10102000880F880F880F98E0980FC82FD0E010E045
:10103000E92EF12CCE15DF053CF0812FDF91CF9109
:101040001F91FF90EF9008958C2F0E94A206182BFD
:101050002196F0CF0F931F930E94FC04AB01BC01BB
:101060002091DA03DC01CA013CE1B695A79597957A
:1010700087953A95D1F782278870820F8093DA039B
:10108000E4E07695679557954795EA95D1F79B01EA
:10109000382BC901BA011F910F910895AF92BF92E9
:1010A000CF92DF92EF92FF920F931F93CF93DF9334
:1010B0008091DE0381508093DE03811169C07894B2
:1010C0000BED13E0D0E0C0E0BB24B394E091290421
:1010D000F0912A04EC0FFD1F23812F3F09F451C02A
:1010E000F801D080ED2CF12C30E0F901EC50FD4FEF
:1010F0008491F901ED58FB4FC490F901E15AFB4F7F
:10110000A490AA2009F44FC081110E946904EA2D1D
:10111000F0E0EE0FFF1FEB5AFB4FA591B491EC915D
:10112000CE2231E020E009F430E0832F922FE81640
:10113000F90639F1DB24F801D082DD2011F1CE016E
:10114000880F991F880F991F9C01235E3B4F7901DF
:10115000F90180819181A281B381892B8A2B8B2B0C
:1011600081F40E942A08611571058105910521F419
:1011700061E070E080E090E0F7016083718382833A
:10118000938321960F5F1F4FC330D10509F09ECF87
:10119000DF91CF911F910F91FF90EF90DF90CF9053
:1011A000BF90AF90089590E080E0C1CFCF93DF93E0
:1011B000EC010E94DA0780915C0490915D04A0919B
:1011C0005E04B0915F04892B8A2B8B2B31F58BEC5D
:1011D00095E06AE574E00E948B0610925B04109221
:1011E0005A0410925C0410925D0410925E041092F6
:1011F0005F04D0936104C0936004E091CB05F0914B
:10120000CC05ABECB5E0309759F48AE594E08D93CA
:101210009C93DF91CF910C944E0889EC95E0D9CF47
:10122000DF010190F081E02DEECFCF92DF92EF92BF
:10123000FF920F931F93CF93DF93EC016A017B0121
:101240008901C114D104E104F10421F4C12CD12C91
:101250007601C3940E94DA078A819B81AC81BD81AB
:10126000892B8A2B8B2B89F58BEC95E0BE010E9494
:101270008B0619821882CA82DB82EC82FD821F8370
:101280000E83E091C905F091CA0529EC35E030974D
:1012900079F082819381A481B5818C199D09AE0971
:1012A000BF09181619061A061B0694F4F983E88379
:1012B000F901D183C083DF91CF911F910F91FF90EE
:1012C000EF90DF90CF900C944E0889EC95E0CECF54
:1012D0009F010190F081E02DDACFCF92DF92EF9263
:1012E000FF926B017C010E942A08A7019601261B30
:1012F000370B480B590BDA01C901B7FF0CC0662741
:101300007727CB01621B730B840B950BFF90EF903B
:10131000DF90CF900895833332E09307A105B105A4
:101320008CF068E070E080E090E00E9421050E946F
:101330002A08A7019601261B370B480B590BDA0127
:10134000C901E9CF181619061A061B0664F424E031
:10135000880F991F2A95E1F7880F991F880F991F09
:1013600005970197F1F760E070E0CB01CFCFCF9206
:10137000DF92EF92FF92A0911304B0911404682FB2
:101380006170ED91FC9111970190F081E02DCD01FC
:1013900009956B017C01C114D104E104F10461F0F1
:1013A0000E942A086C0D7D1D8E1D9F1DFF90EF90E1
:1013B000DF90CF900C946D09FF90EF90DF90CF906D
:1013C0000895982FE0912904F0912A0481818F3F9C
:1013D00039F061E02681291301C060E00C94920489
:1013E000089581E0089580E00895089560E070E038
:1013F000CB010895EBE3F4E0848195819483968199
:10140000958397819683878380859285908782874D
:10141000818593859187838787859685978795852D
:1014200096879485958784870895CF932BE334E03E
:10143000BC01605F7F4FDC01F90140E0CD9150813C
:101440005C2750834F5F34964430C1F72F5F3F4F86
:1014500004968617970779F7CF910895FC010190BC
:101460000020E9F73197AF01481B590BBC0181ED12
:1014700095E00C94410386E991E00C942E0ACF93F9
:10148000DF930E942E04EC010E943B0A8C0F9D1FEB
:10149000DF91CF9108958F929F92AF92BF920F9359
:1014A0001F93CF93DF93CDB7DEB7A1970FB6F89414
:1014B000DEBF0FBECDBF19A2423008F44AE08E0154
:1014C0000F5D1F4F842E912CB12CA12CA5019401EE
:1014D0000E941D31E62FB901CA01EA30F4F4E05D43
:1014E000D801EE938D01232B242B252B79F790E047
:1014F00080E0109719F0CD010E942E0AA1960FB638
:10150000F894DEBF0FBECDBFDF91CF911F910F9139
:10151000BF90AF909F908F900895E95CE1CF4F927C
:101520005F926F927F928F929F92AF92BF92CF9273
:10153000DF92EF92FF920F931F93CF936B017C0189
:10154000742EAC019B010E94F830882399F089E940
:1015500091E0CF911F910F91FF90EF90DF90CF908E
:10156000BF90AF909F908F907F906F905F904F90C3
:101570000C942E0A46015701E894B7F82FEF3FEF7D
:101580004FE75FE7C501B4010E94F83081110DC03B
:101590002FEF3FEF4FE75FE7C501B4010E942E2F09
:1015A00018161CF48DE991E0D4CF2FEF3FEF4FE7F1
:1015B0005FE4C701B6010E94863018161CF481EA68
:1015C00091E0C7CF2FEF3FEF4FE75FECC701B601C8
:1015D0000E942E2F87FDF3CF20E030E0A901C70144
:1015E000B6010E942E2F10E000E087FF0AC06DE2D6
:1015F00081ED95E00E94E1038C01F7FAF094F7F891
:10160000F094C0E060E070E080E09FE37C1641F081
:1016100020E030E040E251E40E94332FCF5FF6CF6C
:10162000A70196010E94C22E2B013C010E94A52F0A
:101630004B015C014AE00E944B0A7C01E00EF11E66
:10164000CC23C1F1C501B4010E94D42F9B01AC0190
:10165000C301B2010E94C12E4B015C016EE281ED1B
:1016600095E00E94E103E80EF91EC15018F120E058
:1016700030E040E251E4C501B4010E948B302B01FF
:101680003C010E94A52F4B01B12CA12C4AE0C501C1
:10169000B4010E944B0AE80EF91EC501B4010E9474
:1016A000D42F9B01AC01C301B2010E94C12E4B019A
:1016B0005C01DBCFC701CF911F910F91FF90EF909D
:1016C000DF90CF90BF90AF909F908F907F906F9062
:1016D0005F904F9008950F931F93CF93DF9300D0A7
:1016E00000D0CDB7DEB7DB011C969C911C971E96EF
:1016F0003C911E971F962C911F971D964C911D97FC
:1017000049833A832B839C83BE016B5F7F4F9E018D
:101710002F5F3F4FF90111919F01412F42954F706B
:10172000F0E14F9FA0011124E12FEF70E40FF52F9E
:10173000F11DEB5AFC4F9491A90141505109FA0156
:1017400090832617370731F791E05BE1813039F05C
:10175000492F440F97FD45278150942FF7CF89815A
:10176000982799838D0194E0FE013196A801DA0152
:101770008D91AD0161918627BD0161507109DB0139
:101780008C93BF0161507109DB018C93E217F30761
:1017900071F791500C5F1F4F9111E6CF0F900F9092
:1017A0000F900F90DF91CF911F910F9108953F926D
:1017B0004F925F926F927F928F929F92AF92BF9261
:1017C000CF92DF92EF92FF920F931F93CF93DF930D
:1017D000CDB7DEB768970FB6F894DEBF0FBECDBFAA
:1017E0008C012BE3C22E24E0D22EAC01405F5F4F70
:1017F000C6017801FC01D70120E03D9130832F5FC5
:1018000034962430D1F724E0E20EF11C01964E15F7
:101810005F0581F7ABE2B4E0FE0131968BE394E023
:101820005E2E6F2E2D9121938A179B07D9F7852D58
:10183000962D0E94150A442443948FE3A82E84E039
:10184000B82E4E0139E1830E911C9BE1392E8BE3BA
:1018500094E024E0DC01712CEC914E2F42954F7006
:1018600030E1439FA0011124EF70E40FF52FF11D2B
:10187000EB5AFC4FE491EC937394149654E0751278
:10188000EBCF215001962111E5CF0E94FA09EBE33D
:10189000F4E0CE014596BE016F5E7F4F9F01D901F6
:1018A0005C91DC015D93CD01452F440F57FD83C052
:1018B000DB014C932C5F3F4F6F5F7F4F881699067B
:1018C00071F78E89398938272F89688D9A899227EF
:1018D0009627432F492741934D895B899427952764
:1018E00093839C89862784278527892787832427B4
:1018F000292732273387AE16BF0659F6652D762D78
:10190000842D0E946B0B852D962D0E94150A439401
:10191000BAE04B129CCF8BE394E0DC0140E0EC9109
:101920002E2F22952F7050E1259F90011124EF70EA
:10193000E20FF32FF11DEB5AFC4FE491EC934F5F54
:101940001496443061F77A9401967110E6CF0E94A4
:10195000FA09652D762D8AE00E946B0B852D962D58
:101960000E94150AD801F60180E090819D938F5F57
:1019700034968430D1F78FEFC81AD80A0C5F1F4F06
:10198000E016F10679F768960FB6F894DEBF0FBE41
:10199000CDBFDF91CF911F910F91FF90EF90DF901E
:1019A000CF90BF90AF909F908F907F906F905F90FF
:1019B0004F903F90089543257BCFE091BF04A091C5
:1019C000C304A770B0E020E43DE043E050E00E9493
:1019D000813160527F458C4C914E60937A047093B4
:1019E0007B0480937C0490937D0480913E05E530D8
:1019F00090F4E81BE63008F0E5E0E093BF04F0E087
:101A0000E052FD4FE491F0E0EF77E068F093B3042B
:101A1000E093B2040895E5E0ECCF4F925F926F92AD
:101A20007F928F929F92AF92BF92CF92DF92EF926E
:101A3000FF920F93CF93DF9300D000D000D0CDB7AB
:101A4000DEB76B017C015E834D83277084E0289FA5
:101A5000F0011124EC56FD4F85919591A591B4911B
:101A600089839A83AB83BC8340906E0450906F044B
:101A700060907004709071046091570470915804E4
:101A80006115710531F0673091E0790710F066E07B
:101A900071E090E080E0A70196010E948C3100E1A6
:101AA0000E94753249015A0129813A814B815C813A
:101AB000220F331F441F551FC501B401660F771F46
:101AC000881F991F620F731F841F951F64587F4FD3
:101AD0008F4F9F4F0E943F312A5F3F4F43E85FEF98
:101AE0006FEF7FEF481959096A097B092115A4E0B6
:101AF0003A07B8F18FEF93E09093BE048093BD0452
:101B0000C40ED51EE61EF71E4C0C5D1C6E1C7F1C01
:101B1000409272045092730460927404709275043F
:101B2000B301A20141575240610971092D813E81E3
:101B30008AE594E026960FB6F894DEBF0FBECDBFBF
:101B4000DF91CF910F91FF90EF90DF90CF90BF90FA
:101B5000AF909F908F907F906F905F904F900C947C
:101B600015093093BE042093BD04CACFCF92DF92F3
:101B7000EF92FF922091380530E0A4E2B4EF0E948A
:101B80006B316B017C010E94DD0C2091BF0442E0AF
:101B90005AE1C701B601FF90EF90DF90CF900C940F
:101BA0000D0D0E94DD0C2091BF0446E05AE164EB6C
:101BB00074EC84E090E00C940D0DE82FF0E0E1521D
:101BC000FD4FE491EF3F09F0815008958F929F926D
:101BD000AF92BF92DF92EF92FF920F931F93CF933A
:101BE000DF93D82EEB018A01E22EE0912904F091D7
:101BF0002A04F08080849184A284B38481149104A7
:101C0000A104B10439F420E4822E22E4922E2FE0C4
:101C1000A22EB12C40E052E16AE770E080E0841629
:101C20009506A606B70640F47695679557954795AD
:101C30008F5F8630A1F787E0982F906A9695809500
:101C400081709CBD8DBD60E08F2D0E949204DEBC32
:101C500000000DB407FEFDCF8EB50C0F1D1FC01781
:101C6000D10771F080E0E11001C088818EBD0000D5
:101C70000DB407FEFDCF8EB5E11088832196EFCF1E
:101C800061E08F2DDF91CF911F910F91FF90EF9029
:101C9000DF90BF90AF909F908F900C949204CF9361
:101CA000DF931F92CDB7DEB721E041E050E0BE01E7
:101CB0006F5F7F4F0E94E60D89810F90DF91CF917A
:101CC0000895CF93DF931F92CDB7DEB7698320E0ED
:101CD00041E050E0BE016F5F7F4F80680E94E60DDB
:101CE0000F90DF91CF910895CF93C82F62E082E0EB
:101CF0000E94610E60E883E00E94610E61E084E072
:101D00000E94610E69E985E00E94610E62E187E24E
:101D10000E94610E60EDC11168ED80E30E94610ECA
:101D200060E481E30E94610E61EC88E20E94610E32
:101D300064E989E20E94610E61EC8AE2CF910C9421
:101D4000610E0F931F93CF93DF93C091C104C431F1
:101D50000CF040C0CE30CCF1C2310CF0C1E161E0FA
:101D6000809113049091140400917A0410917B04E3
:101D700020917C0430917D04DC01ED91FC91008484
:101D8000F185E02D4C2F0995813059F18230E1F138
:101D9000CF301CF5CC301CF1C067D7E014E06C2FBD
:101DA00089E00E94610E8DE40E944F0E887F682FAB
:101DB000612B8DE40E94610E6D2F60628BE0DF91DC
:101DC000CF911F910F910C94610ECC3F0CF4CCEF8E
:101DD00060E0C6CF62E0C4E1C3CFCEE0DDCFCC5F30
:101DE000DCCF8091B204877011F4CB305CF0C2304C
:101DF0002CF4C2E0C250C068DBE0D0CFC231D4F3D3
:101E0000C1E1F8CFCBE0F6CFD0E117E0CFE8C7CF04
:101E1000AF92BF92CF92DF92EF92FF920F931F93F8
:101E2000CF93DF9380917A0490917B04A0917C04FE
:101E3000B0917D049C01AD0160E070E080E090E035
:101E400003E10E945C32A12CE8E4BE2EF8EECF2E16
:101E5000DD24D394E12CF12C00E010E00E94C83185
:101E6000C22FB32E6A017B01182FD92F00E10E94E7
:101E70007732622F86E00E94610E2C2F3B2DA60147
:101E8000B701812F9D2F08E00E947732622F87E0F3
:101E90000E94610E6C2F88E0DF91CF911F910F910E
:101EA000FF90EF90DF90CF90BF90AF900C94610EB9
:101EB0001F93CF93DF936091B2047091B304162FF8
:101EC0001770CB0133E0969587953A95E1F7D82FB7
:101ED000D370D13059F008F466C0D23009F465C02F
:101EE00066EC71E085EA91E00E94E107C0E8CB0171
:101EF00025E0969587952A95E1F78370823009F45D
:101F000058C0833009F457C0813009F450C0C26012
:101F1000672F77276115710521F0C16082E20E9469
:101F2000610E6C2F8DE10E94610E6091BE046370A2
:101F300060598FEF810F8295807F680F8091B20486
:101F400087FF64608EE10E94610E8BEF810F82300B
:101F500010F4DD2391F1163011F4D13071F164E009
:101F600086E20E94610EC0E063E0D23081F480918D
:101F70007A0490917B04A0917C04B0917D04CFE71A
:101F800081349D4DAA44BF4108F0C4E662E086E377
:101F90000E94610ECC2399F06C2F8AE3DF91CF91E0
:101FA0001F910C94610EC0E7A2CFC0E9A0CFC4601E
:101FB000AFCFC660ADCFC860ABCF6CE0D1CFDF9103
:101FC000CF911F910895CF93DF93D82FC82FC7705B
:101FD00019F081E00E94B7096D2F81E00E94610E27
:101FE000C11105C080E0DF91CF910C94B709DF915A
:101FF000CF91089580917A0490917B04A0917C0404
:10200000B0917D0481349D4DAA44BF4118F488E00D
:102010000C94E30F80E0FCCF80917A0490917B04D4
:10202000A0917C04B0917D0481349D4DAA44BF41B0
:1020300018F488E80C94E30F80E8FCCFCF93C82F06
:1020400081E00E944F0E887F8C2BCF910C94E30F80
:10205000CF92DF92EF92FF92CF93DF93D82F0E941F
:102060000C1081E00E944F0E87FD06C06BE973E003
:1020700085EA91E00E94E10781E00E941E10D230C3
:1020800009F07CC06AE08DE10E94610E60E78EE19C
:102090000E94610E63E28CE00E94610E60E483E2C4
:1020A0000E94610E8091C705882309F46CC083E308
:1020B0000E944F0E682F6F7B83E30E94610E809118
:1020C000B2049091B30423E0969587952A95E1F7A1
:1020D000C82FC37081E30E944F0E8877682F63601A
:1020E000C23008F056C081E30E94610E60E48FE2C6
:1020F0000E94610E60E480E30E94610E6091BD0465
:102100008FE10E94610E64E389E30E94610E6CE03E
:1021100080E40E94610E6FEF82E10E94610EED2F5C
:10212000F0E0E951FD4F6491609581E10E94610EFC
:1021300080E00E94E10960E08DE00E94610E60E0B5
:102140008FE00E94610ED11128C0609172047091DD
:10215000730480917404909175040E946D096B0161
:102160007C0186E00E941E10C701B601DF91CF916D
:10217000FF90EF90DF90CF900C9462060E94580F72
:102180000E94080F87CF83E30E944F0E682F606480
:1021900093CF682F636881E3AFCF85E0DF91CF9164
:1021A000FF90EF90DF90CF900C941E10CF92DF92B3
:1021B000EF92FF92CF93C82F81E00E944F0E87705D
:1021C00069E274E0C1F48091B204877009F060C0E4
:1021D000C13041F4109246058091600490916104F1
:1021E0000E94D6080E94FA0F81E00E944F0E87FFDE
:1021F00006C062E074E085EA91E00E94E10781E0B8
:102200000E941E100E94080F63E28CE00E94610E83
:102210006EE18DE00E94610E6BE082E10E94610E32
:1022200062E183E10E94610E6AEA8FE10E94610E21
:102230006FEF81E20E94610E81E00E94740E68E3FC
:1022400080E40E94610E80E00E94E109C11118C083
:10225000609172047091730480917404909175047C
:102260000E946D096B017C0185E00E941E10C70170
:10227000B601CF91FF90EF90DF90CF900C94620663
:1022800085E0CF91FF90EF90DF90CF900C941E10DF
:102290008C2FCF91FF90EF90DF90CF900C9428106F
:1022A0008FEF9FEF909397048093960490939904F7
:1022B0008093980490939B0480939A0490939D0438
:1022C00080939C048FEF90E090939F0480939E04F2
:1022D000E2EAF4E08CE0DF011D928A95E9F780E6FE
:1022E00090E09093AF048093AE048FEF8093C3048B
:1022F00008956F927F928F929F92AF92BF92CF92EA
:10230000DF92EF92FF920F931F93CF93DF93CDB79E
:10231000DEB760970FB6F894DEBF0FBECDBF7B016E
:102320008A01282F30E0277F2230310549F0243000
:10233000310509F4CBC0232B09F09FC0D12C98C0E4
:1023400083FD32C08FED93E00E94D70B90E1692EA0
:10235000FE0131966F012FEE822E23E0922E37E898
:10236000732E0115110509F060C06091DF037091B3
:10237000E0038091E1039091E2030E946431609652
:102380000FB6F894DEBF0FBECDBFDF91CF911F9186
:102390000F91FF90EF90DF90CF90BF90AF909F9004
:1023A0008F907F906F900895EFEDF3E080E1DF0173
:1023B0001D928A95E9F7CACF01151105E9F5E62FB7
:1023C000F0E0E152FC4F80818058808311E0D6011B
:1023D000E62D1D92EA95E9F7C6010E94D70B098107
:1023E000C6010E94310307FF03C088898725888BB7
:1023F000112349F01981C6010E94310317FF03C060
:1024000088898725888BF601D5018D915D01919191
:10241000119789278C938A149B04B1F710E000E090
:102420008FED93E00E94D70B9CCF8FEDA82E83E019
:10243000B82ED701950160E0F90181919F019D912E
:10244000AF01415051098927FA0180836F5F7D01F7
:1024500001501109603109F0AFCF0115110501F7E5
:1024600010E0B5CF8E0D9F1D0E94D70BB0E1DB0EA3
:102470008D2D90E080179107A8F360E070E0CB010C
:102480007ECF80E1EFEDF3E0DE01119601900D9239
:102490008A95E1F7CE0101960E94D70BFE01319695
:1024A0009701205F3F4F9191D7018C9189278D93A0
:1024B0007D0101501109A217B30719F0011511058B
:1024C00091F78091EE038F5F8093EE030115110564
:1024D000C1F6D3CF9091F403911106C06CE874E07B
:1024E00085EA91E00E94E107903141F440E150E03B
:1024F00064EF73E080E00E94791190E0E92FF0E052
:10250000EC50FC4F80819F5F9093F4030895DF921D
:10251000EF92FF920F931F93CF93DF936FE270E0E0
:10252000009729F08136910530F061E370E080EE8C
:1025300091E00E94E107C091C304D0E0CF3F11F4C5
:10254000CFEFDFEFE6E9F4E022EA34E0DF01329694
:102550001C968D919C911D974D915C9184239523A0
:10256000938782872E173F0789F766E070E082EA3B
:1025700094E00E9404077C01892B09F08FC08CE055
:10258000E6E9F4E0A2EAB4E001900D928A95E1F761
:1025900066E070E082EA94E00E9404077C01009704
:1025A00009F4DDC0419708F479C010E000E0CF3FA6
:1025B000DC0751F1C136D1050CF070C09E012F70BF
:1025C000332781E090E002C0880F991F2A95E2F737
:1025D000FE0144E0F595E7954A95E1F7EE0FFF1F00
:1025E000EE55FB4F208131818C010223132380950E
:1025F000909582239323918380830115110509F41B
:102600004FC070E1E71AF1080E946A12D82E0E94AA
:102610006A129D2DB70124E0769567952A95E1F71A
:102620000E94093134E0880F991F3A95E1F7E2EAF8
:10263000F4E070E060E0219131912115310559F10C
:10264000A9015695479545755575D901A41BB50B3C
:10265000AD0143735373B695A795B695A795A3732C
:10266000B3734A0F5B1FDA01A07FB07F4F705F70BA
:1026700042955295507F5427407F54274A0F5B1F45
:10268000DA01BB27452F55274A0F5B1F8417950793
:1026900080F0841B950B605F7F4FCDCF10E000E092
:1026A000CFEFDFEFB1CFA9014150510924233523EA
:1026B00040970097C1F744275527421B530B4223ED
:1026C0005323CA018575957521E030E0892B11F0FF
:1026D00030E020E0CA0183739373892B09F447C06B
:1026E00090E080E0820F931F9A012F703F70232BA0
:1026F00009F440C030E020E0820F931F30E020E07A
:10270000411102C028E030E0820F931F860F971F0F
:10271000FC0144E0F695E7954A95E1F7EE0FFF1FBF
:10272000EE55FB4FAC014F70552721E030E0B90169
:1027300002C0660F771F4A95E2F7AB012081318115
:102740002627352731832083CF3FDC07B1F497FD5F
:1027500006C0803491050CF4885F8093C304DF9138
:10276000CF911F910F91FF90EF90DF90089582E03D
:1027700090E0B8CF24E030E0BFCF24E0D595C795F6
:102780002A95E1F7CC0FDD1FCE55DB4F288139812B
:10279000022B132B19830883DACF80918604909142
:1027A0008704A0918804B0918904892B8A2B8B2BF4
:1027B00009F04BC08091B4049091B5041092C40408
:1027C0008E7C977A9093B5048093B404109243055D
:1027D0001092CA040E9494078FEF8093C3048091E3
:1027E000AE049091AF040E9487120E942A08609361
:1027F0006E0470936F0480937004909371048091C1
:10280000B4049091B50493FF06C064ED70E080EECF
:1028100091E00E94E1071092C804E0913D05EF3F6E
:1028200091F0EF70F0E0E153FD4FE491E093C704C5
:1028300084609093B5048093B4048FEA92E20E947E
:10284000D60881E00895E3E1F1CF80E008951F9379
:10285000CF93DF93CDB7DEB72F970FB6F894DEBFD7
:102860000FBECDBF80E00E941E100E94DA0780914B
:102870005C0490915D04A0915E04B0915F04892B8B
:102880008A2B8B2B09F047C08BEC95E06AE574E04E
:102890000E948B060E944E088FE0EBE4F4E0DE011C
:1028A000119601900D928A95E1F7EBE4F4E08EE742
:1028B00091E0DF019C011D9221503040E1F78FE053
:1028C000FE013196ABE4B4E001900D928A95E1F7F8
:1028D0000E946A12182F0E946A12912F9093B704D7
:1028E0008093B6041092B5041092B4041092C904F7
:1028F00080E880933B050E94940781E0809338052F
:102900002F960FB6F894DEBF0FBECDBFDF91CF91EB
:102910001F910C94501189EC95E0B8CFCF92DF92C3
:10292000EF92FF92CF93C82F0E946A12F82E0E9456
:102930006A129F2D6C01853224EF920720F024E269
:10294000C21A24EFD20AF12CE12CCC2369F06C2FAF
:102950000E94FD30292F30E0A4E2B4EF0E946B31D9
:10296000C60ED71EE81EF91EC701B601CF91FF9013
:10297000EF90DF90CF900895CF92DF92EF92FF9289
:102980006B017C01842F442331F00E948E14C60E0B
:10299000D71EE81EF91E8091C4048823A9F08091F7
:1029A0007E0490917F04A0918004B0918104A701DE
:1029B0009601281B390B4A0B5B0BDA01C90118166B
:1029C00019061A061B068CF4C0927E04D0927F046E
:1029D000E0928004F09281048091B4049091B50457
:1029E00091609093B5048093B404FF90EF90DF90D2
:1029F000CF900895AF92BF92CF92DF92EF920F9354
:102A00001F93CF93DF93DC011A141B04A4F590E10C
:102A1000EFEDF3E0EF01892F19928A95E9F7F1E0E4
:102A2000F093EE03F093DF03E092E4034093E503B9
:102A30005093E6036093E7037093E8030093E90380
:102A40001093EA032093EB033093EC03FD01ABE218
:102A5000B4E001900D929A95E1F7A501B60184E0EA
:102A6000DF91CF911F910F91EF90DF90CF90BF90AA
:102A7000AF900C947911DF91CF911F910F91EF904E
:102A8000DF90CF90BF90AF9008952F923F924F92DA
:102A90005F926F927F928F929F92AF92BF92CF92EE
:102AA000DF92EF92FF920F931F93CF93DF93CDB7F7
:102AB000DEB72A970FB6F894DEBF0FBECDBF8C01EC
:102AC0000E942A086B017C014AE0F7FE0DC06DE20E
:102AD00081ED95E00E94E10366277727CB016C1911
:102AE0007D098E099F094AE00E944B0A88E493E021
:102AF0000E942E0AF8013197E431F10508F085C3F0
:102B0000EC57FA4E0C945E319815B415B715BA15FA
:102B1000BD15C0150519C315C615C9153D164016B6
:102B200043164616491605194C16FF1810190219B6
:102B30008AE092E02A960FB6F894DEBF0FBECDBFB2
:102B4000DF91CF911F910F91FF90EF90DF90CF9089
:102B5000BF90AF909F908F907F906F905F904F90BD
:102B60003F902F900C943F0A8AEF91E0E3CF89EEDB
:102B700091E0E0CF87ED91E0DDCF8CEC91E0DACF12
:102B800082EC91E0D7CF83EB91E0D4CF82EA91E061
:102B9000D1CF82E791E00E943F0A8091440587FFF0
:102BA00004C085E691E00E943F0A80914605882393
:102BB000F1F18BE591E00E942E046091460570E0F2
:102BC00090E080E04AE00E944B0A87E491E00E9496
:102BD0002E048AE391E00E942E041A82198202E2F6
:102BE00012E08091460529813A8182171306E9F0A7
:102BF000E4F0E0914505C901855B9B4FE80FF92F93
:102C0000F11DE450FF4F80811F928F931F930F930C
:102C10000E94AB3249815A814F5F5F4F5A8349838B
:102C20000F900F900F900F90DCCF0E943B0A0E94F4
:102C30002A08AB01BC0148595647664F7F4F2EE822
:102C400034E285E194E02A960FB6F894DEBF0FBE19
:102C5000CDBFDF91CF911F910F91FF90EF90DF904B
:102C6000CF90BF90AF909F908F907F906F905F902C
:102C70004F903F902F900C9415098CE291E05ACF21
:102C800083E291E057CF85E191E054CF88E091E075
:102C900051CF8AEF90E04ECF8FEE90E00E943F0A36
:102CA0001F9281E08F9387E292E09F938F930E941F
:102CB000AB321F9282E08F9382E592E09F938F93D5
:102CC0000E94AB32A09046050FB6F894DEBF0FBE4F
:102CD000CDBFAA2009F4A4C2C090B204D090B3041E
:102CE0000C2D07700A5F960143E0369527954A95AB
:102CF000E1F72370C60155E0969587955A95E1F75F
:102D000083708090C704E0908E04F0908F0471E08F
:102D1000E71AF10815E0882339F016E0813021F038
:102D200017E0823009F018E0222349F03AEFB32E81
:102D3000213039F094EFB92E9924939403C02DE7F4
:102D4000B22E912CC0907A0470907B0460907C0429
:102D500050907D040E942A081F92DF92FF92EF920A
:102D60001F921F939F92BF921F928F921F920F9359
:102D70001F92AF925F926F927F92CF929F938F93A9
:102D80007F936F9386E792E09F938F930E94AB327D
:102D90008091C6041F928F9383EC92E09F938F9350
:102DA0000E94AB3282EE90E00E942E046091CF042C
:102DB00070E090E080E04AE00E944B0A8CEC90E0EA
:102DC0000E942E040FB6F894DEBF0FBECDBFF12CCB
:102DD000E12C02E212E08091CF048E151F04D1F0A5
:102DE000CCF0E0914505C701855B9B4FE80FF92FBB
:102DF000F11DEB57FF4F80811F928F931F930F930D
:102E00000E94AB329FEFE91AF90A0F900F900F90D2
:102E10000F90E1CF0E943B0A8FEB90E00E942E04BE
:102E20006091460570E090E080E04AE00E944B0A25
:102E300088EA90E00E942E04F12CE12C02E212E0DC
:102E4000809146058E151F04D1F0CCF0E091450528
:102E5000C701855B9B4FE80FF92FF11DE450FF4F31
:102E600080811F928F931F930F930E94AB32EFEFDD
:102E7000EE1AFE0A0F900F900F900F90E1CF0E9474
:102E80003B0A809146051F928F9387ED92E09F93B6
:102E90008F930E94AB32009146050450110B0F90A6
:102EA0000F900F900F9082E2E82E82E0F82E809132
:102EB000460580171106C9F0C4F0E0914505C80128
:102EC000855B9B4FE80FF92FF11DE450FF4F808188
:102ED0001F928F93FF92EF920E94AB320F5F1F4FB2
:102EE0000F900F900F900F90E2CF0E943B0A20911D
:102EF000460547E455E05C834B8390E080E01A820E
:102F00001982622F70E078876F83EF81F8852981BD
:102F10003A812E173F070CF048C1EB81FC812191CB
:102F2000FC83EB83022E000C330B6C014CE0D59438
:102F3000C7944A95E1F7A92FBB27A7FDBA95AC2501
:102F4000BD253D0162267326F1E06F2277247C01C6
:102F50006DE0F594E7946A95E1F75C01AB2CBB0C4E
:102F6000BB08A594AE24BF244901959487948A2474
:102F70009B24880C991C42E0842299248628972857
:102F80008C01110F000B110F102F001F2C01452C6D
:102F9000550C55084594459440265126F901F59560
:102FA000E795F595E795E425F525EE0FFF1FEE0F64
:102FB000FF1FE470FF27E80DF91D592F551F5527F6
:102FC000551F59871A861C014BE0359427944A9562
:102FD000E1F723FB662760F96D831E82A101417032
:102FE000552769857A85462757276D817E81462733
:102FF000572763E0440F551F6A95E1F74E0F5F1F97
:10300000B901E4E075956795EA95E1F76C257D25B2
:10301000F4E0660F771FFA95E1F760717727460FA6
:10302000571FF90165E0F595E7956A95E1F7BD0150
:103030006E257F256E277F27E5E0660F771FEA95CF
:10304000E1F760727727640F751FA50140275127AC
:10305000F901689415F8F595E7951694E1F74E2770
:103060005F27E6E0440F551FEA95E1F740745527C6
:10307000640F751F4201E1E08E22992449855A852B
:10308000842695262227330F221F3327282539250A
:103090003695322F222737952795260F371FB101F6
:1030A000682779276170772764277527762F662729
:1030B000620F731F3C0175946794C624D724DC2CDF
:1030C000CC24DD0CCC2452E0D5226C0D7D1DAC014E
:1030D00055954795559547954E255F25542F44277F
:1030E000550F550F44275470640F751FFC0123E0E2
:1030F000F595E7952A95E1F7E027F127FE2FEE27D2
:10310000FF0FFF0FFF0FEE27F8706E0F7F1F9C0160
:1031100044E0359527954A95E1F7A227B327A1709A
:10312000BB27E985FA85AE27BF27BA2FAA27B29514
:10313000B07F6A0F7B1F9C01E5E035952795EA95E6
:10314000E1F72A253B25322F22273295330F307E97
:1031500022273072620F731F9C01A6E035952795D8
:10316000AA95E1F742265326B0E44B9E502C442406
:1031700011244424F0E45F22640D751D880F892F0B
:10318000881F990B8225932529853A8582279327C5
:103190009927869597958827860F971F49815A8189
:1031A0004F5F5F4F5A834983B0CE9F938F939F9316
:1031B0008F9380EF92E09F938F930E94AB320F909A
:1031C0000F900F900F900F900F902A960FB6F894D3
:1031D000DEBF0FBECDBFDF91CF911F910F91FF904A
:1031E000EF90DF90CF90BF90AF909F908F907F90A7
:1031F0006F905F904F903F902F900C943B0A8AE91C
:1032000090E098CC88E790E095CC88E690E00E942A
:103210002E04B80190E080E04AE00E944B0AD5CF2E
:103220002A960FB6F894DEBF0FBECDBFDF91CF91C7
:103230001F910F91FF90EF90DF90CF90BF90AF90D4
:103240009F908F907F906F905F904F903F902F90C6
:103250000895CF92DF92EF92FF92CF93DF93EC012C
:10326000C12CD12C7601C3940C2E04C0CC0CDD1CD7
:10327000EE1CFF1C0A94D2F7E3FC03C0CE010E94AF
:103280004515D701C60188279472AA27BB27892B29
:103290008A2B8B2B01F1E0914F04F0915004309771
:1032A000D1F02091460540914505211102C04423EB
:1032B00091F08091440550E060E084FF04C0DA01A1
:1032C000AA5BBA4F6C9130E0495B5A4F8091510430
:1032D000909152040995CC2484E0D822E822FF245E
:1032E000CD28CE28CF2819F1E0915304F091540451
:1032F0003097E9F01092540410925304C231D10572
:1033000041F18091440583FD24C09091CE0461E099
:10331000992339F0082E000C990B692F661F662738
:10332000661F70E080915504909156040995E091D4
:103330004B04F0914C04309771F0BE0180914D0424
:1033400090914E04DF91CF91FF90EF90DF90CF905E
:10335000099460E0E6CFDF91CF91FF90EF90DF908E
:10336000CF90089582E080934405E0913F05F0E01E
:10337000E052FD4FE491F0E0EF77E068F093B304A2
:10338000E093B2048091920490919304A0919404EC
:10339000B091950480937A0490937B04A0937C046D
:1033A000B0937D041092460583E190E00E942919B4
:1033B00080E00C94D61087E39AE2909361048093A6
:1033C00060040C94B21980E894E2909361048093B5
:1033D00060040C94B21921E020934405E2EBF4E080
:1033E000208131812068318320831092460590939B
:1033F00061048093600483E190E00E94291980E0D9
:103400000C94D61080E29AE20C94EB198DE694E2CB
:103410000C94EB192F923F924F925F926F927F9292
:103420008F929F92AF92BF92CF92DF92EF92FF92D4
:103430000F931F93CF93DF93CDB7DEB7CB58D1094E
:103440000FB6F894DEBF0FBECDBF8091BA048111D4
:1034500049C781E08093BA048091B4049091B50487
:103460009C01217C3327232B81F4409186045091C9
:1034700087046091880470918904452B462B472B63
:1034800029F582FD2FC00E94CD138091BA0481508E
:103490008093BA048111E0CFC557DF4F0FB6F8947F
:1034A000DEBF0FBECDBFDF91CF911F910F91FF9077
:1034B000EF90DF90CF90BF90AF909F908F907F90D4
:1034C0006F905F904F903F902F90089596FF0AC0A5
:1034D0009F7B9093B5048093B4048CEB91E20E949F
:1034E000D608D3CF0E942A086B017C010091B40456
:1034F0001091B504C8018C739927892B09F4E7C68C
:1035000013FF58C18091AE049091AF04009711F061
:103510000E948712C0926E04D0926F04E0927004F1
:10352000F09271048091B4049091B504977F9093C8
:10353000B5048093B404B701A6018091C40481113D
:1035400006C08091B4049091B50490FF12C08091A0
:103550007E0490917F04A0918004B09181042A019F
:103560003B01481A590A6A0A7B0A77FE02C0AC017D
:10357000BD0121E7C20E22E0D21EE11CF11CDB01DD
:10358000CA018C199D09AE09BF09B7FF8CC63091DD
:10359000C804CF57DF4F3883C158D0400472112779
:1035A000012B09F41FC18091B4041091CA0485FD58
:1035B00016C1109247059091B6048091B70490937C
:1035C00058058093590543E150E067E475E08AE0CF
:1035D0000E94791160935D0570935C0580935B0593
:1035E00090935A0587E1809346058091B6049091A7
:1035F000B70401969093B7048093B60481ED9DE0E3
:103600009093610480936004CF57DF4FC880C15806
:10361000D040EC2DF0E0E052FD4FE4918091C904E0
:1036200020E2829FC0011124EF798E2B9093B30486
:103630008093B204C092BF048091B4049091B50409
:103640008F76967F806898609093B5048093B404D9
:10365000A091C304A03670F5B0E020E43DE043E063
:1036600050E00E9481318B019C01005A1A4C274F77
:10367000334E00364FE9140740E224074CE134078B
:1036800008F0E9C4605A764A8340934E60937A0406
:1036900070937B0480937C0490937D04E0913D05BE
:1036A000EF3F09F456C5EF70F0E0E153FD4FE491B0
:1036B000E093C0049091C7048091C00498170CF463
:1036C000892F8093C10481E190E00E942919109212
:1036D0006E0410926F04109270041092710481E0D5
:1036E0000E944F0E877059F080E00E941E100E94C9
:1036F0002A08625C7F4F8F4F9F4F0E946D09409058
:1037000076045090770460907804709079041414D3
:103710001504160417040CF021C581E00E9428103E
:1037200080917A0490917B04A0917C04B0917D04F7
:1037300081349D4DAA44BF4108F40DC583E69FEF37
:10374000E0912904F0912A0427817C01E20EF11C0A
:1037500027FDFA940E942A08615E7F4F8F4F9F4F8A
:103760000E946D090E942A0810E0460E571E681E2E
:10377000791E8BE10E944F0E181708F4182F0E9433
:103780002A08641975098609970997FDF2CF80E028
:103790000E941E108091C204082E000C990BE10EAD
:1037A000F11CE816F9060CF4D9C4809160049091DC
:1037B000610495CE40916E0450916F046091700445
:1037C00070917104BACECF57DF4F8881C158D04075
:1037D0000E94DD0DCF57DF4F8883C158D040115074
:1037E00090F7E7CE80918A0490918B04A0918C048D
:1037F000B0918D0480389F4FAF4FBF4F18F082EBD0
:1038000091E26DCE8091430581110DC080918E04AF
:1038100090918F04A0919004B09191048F3F9F4F9D
:10382000AF4FBF4F61F3E090B404F090B50478E17E
:10383000E722FF2480E1E816F10409F4EBC1A0902F
:10384000CF048091CD04882309F4E6C18091050559
:10385000882309F4E1C100910405002309F4DCC1C7
:1038600010E0A80166E075E08FE495E00E949B32CD
:10387000085F1F4F109204051092050580914005C6
:10388000882331F086FFCBC190E4892780934005DF
:1038900080914105882331F086FFD1C190E48927CA
:1038A0008093410580914205823009F0D8C181E0C2
:1038B00080934205093111050CF0ACC380913705A6
:1038C000882361F08091B8049091B90497FF04C0F7
:1038D00090E080E00E945307109237056A2C712C0B
:1038E00025E0620E711CF0E1EF16F10419F4A4E07A
:1038F0006A2E712C600E711E31E4631671040CF097
:10390000B9C191E040E1E416F10409F490E0E091DE
:10391000C804E63008F0B3C1F0E0E753FD4FE4918E
:10392000E615170408F476C380E480934705809178
:10393000350540913B05482B2091B8043091B904DE
:1039400037FD9FC121523109203B324008F499C113
:1039500020E488EF800F842B822B80934C054091CC
:1039600086043091870420918804809189044093D3
:1039700048053093490520934A0580934B05809173
:103980004305811118C02091CB04211114C040912E
:103990008E0450918F0460919004709191044F5F58
:1039A0005F4F6F4F7F4F40938E0450938F0460930F
:1039B00090047093910420918E0430918F042150D3
:1039C000310920934D0530934E051092350599230A
:1039D000D9F19091CE04992309F455C190E89093C0
:1039E0004705811103C081E080934305F801E95B3D
:1039F000FA4F8091CD048083C801885B9A4F6C0197
:103A0000B12CA50160ED74E00E949B3200918E0400
:103A100010918F042091900430919104015011096C
:103A200021093109409186045091870460918804EE
:103A3000709189048091CD04811132C185E195E0B6
:103A4000F12CE12C0E94FA14830104501109809199
:103A50008E0490918F04A0919004B09191040197ED
:103A6000A109B109609186045091870440918804AE
:103A70003091890420E1EFEDF3E0C22E1192CA9457
:103A8000E9F779E47093DF031092E4030093EE0307
:103A90006093E5035093E6034093E7033093E80314
:103AA0008093E9039093EA03A093EB03B093EC03B4
:103AB000E5E1F5E0ABE2B4E001900D922A95E1F783
:103AC000A80167E475E082E00E947911F801E95BE2
:103AD000FA4F6383728381839083609246057F925D
:103AE0006F9227E233E03F932F930E94AB320F9007
:103AF0000F900F900F9010E000E080914605801726
:103B0000110611F00CF0CFC08AE090E00E94C132A3
:103B1000809146051F928F93EBE4F3E0FF93EF93C0
:103B20000E94AB32009146050450110B0F900F908C
:103B30000F900F90809146058017110611F00CF040
:103B4000CCC08AE090E00E94C13280914605A7E493
:103B5000B5E0CC57DF4FB983A883C458D040CA57CB
:103B6000DF4FB983A883C658D04010E000E0912C05
:103B7000812CC82ED12CC657DF4FD982C882CA5893
:103B8000D040C657DF4F48815981CA58D04084166B
:103B900095060CF4B8C01F930F931F930F9385E6FF
:103BA00093E09F938F930E94AB3219831A8211275F
:103BB0001C830B8310914605412F50E0FE01359682
:103BC0000F900F900F900F900F900F90A7E4B5E01B
:103BD00090E080E0841795070CF404C2440F551F51
:103BE00070E060E087E495E00E94A4321E5F1093CD
:103BF0004605FE01319630E020E0812F90E0281745
:103C000039070CF4F5C1E6EBFDE0F0936104E093B5
:103C10006004FACCA12C1ACE08E010E02BCE98015B
:103C2000255B3B4FF901E450FF4F95E09083235013
:103C30003F4F8770D9018C930E5F1F4F29CE98019B
:103C4000255B3B4FF901E450FF4F9AE090832350EE
:103C50003F4F8370F90180830E5F1F4F23CE88236F
:103C600009F428CEF801E95BFA4F88E080830F5F02
:103C70001F4F20CE380154E0650E711C47CEE0E0A6
:103C80004FCE20E066CE8091C604882309F4AECEE4
:103C90008091CB048111AACE81E08093CB04A6CE83
:103CA00085E295E0CDCEE0914505C801855B9B4F4F
:103CB000E80FF92FF11DE450FF4F80811F928F9381
:103CC00082E292E09F938F930E94AB320F5F1F4F6F
:103CD0000F900F900F900F9010CFE0914505C80105
:103CE000855B9B4FE80FF92FF11DE450FF4F80815A
:103CF0001F928F9322E232E03F932F930E94AB32C8
:103D00000F5F1F4F13CFCA57DF4FA881B981C65825
:103D1000D040BD90CA57DF4FB983A883C658D04062
:103D200078019CE0F594E7949A95E1F7212E3324ED
:103D300027FC3A942E243F244B2D0B2C000C550BC2
:103D400042255325CA0181709927D801A8E0BA02FB
:103D5000A12DBB0B11249801232F330F330B259575
:103D6000F901EA27FB27CE57DF4FF983E883C258D2
:103D7000D0402B2D2595022E000C330B2E273F27EC
:103D8000220F331F22703327822B932BF801FF0F52
:103D9000EE0BFF0FFE2FEE1F2801452C550C55088A
:103DA000459445944E265F262B2D25952595022E6C
:103DB000000C330B24253525220F331F220F331F10
:103DC00024703327280F391FA8014427550F441F9B
:103DD0005527B80160E27602612D770B1124CB01E3
:103DE0008170992784279527B3FACC24C0F8C85747
:103DF000DF4FC882C858D040C757DF4F1882C95814
:103E0000D040C857DF4FC880D980C858D0408C25D3
:103E10009D25880F991F880F991F880F991F280FBC
:103E2000391F8B2D8595859585958595082E000CD8
:103E3000990B8E259F2582959295907F9827807F5C
:103E4000982780719927820F931F2B2D25952595F3
:103E5000259525952595022E000C330B6D01C22466
:103E6000D3242C253D25689414F8220F331F169473
:103E7000E1F720723327820F931FCE57DF4F28813F
:103E80003981C258D0402E273F27CB2CC6FACC0C04
:103E9000CC08C0F80C2C000CDD082C253D256894BE
:103EA00015F8220F331F1694E1F720743327820F81
:103EB000931F320121E06222772464267526BB1C01
:103EC000BB24BB1C6B247694762C66247794679471
:103ED000680E791ECB01802791278170992784274E
:103EE0009527982F8827860D971D9801359527953A
:103EF000E226F326FE2CEE24FF0CEE2432E0F32221
:103F00008E0D9F1D6801D594C794D594C794CA2679
:103F1000DB26DC2CCC24DD0CDD0CCC24A4E0DA2266
:103F20008C0D9D1D3801B3E075946794BA95E1F747
:103F30006E267F26762C6624770C770C770C662409
:103F4000B8E07B22860D971D9801E4E03595279512
:103F5000EA95E1F722263326E1E02E2233242426B7
:103F60003526322C22243294F0EF3F22820D931D0D
:103F70009801A5E035952795AA95E1F7CE57DF4F33
:103F8000C880D980C258D0402C253D25322F222709
:103F90003295330F307E22273072820F931FD80163
:103FA00026E0B595A7952A95E1F7A425B525B0E4B7
:103FB000AB9FB02DAA271124AA27B0748A0F9B1F8C
:103FC000000F012F001F110B0627172704271527A5
:103FD0001127069517950027080F191F2FEF821A32
:103FE000920ACFCD2D9130E0219331930196F2CDFD
:103FF00040813296CC57DF4FA881B981C458D04058
:104000004D93CC57DF4FB983A883C458D0402F5F5E
:104010003F4FF5CD88E0809344058091CE04811117
:1040200004C080914305882319F088E480934405F7
:104030008091B4049091B50487769E7F9093B504E7
:104040008093B40410924605109245058AE090E0F2
:104050000E9429191ACA003659E0150759E32507A5
:104060005CE1350728F4605A70418C41934E0ECBC9
:104070000036A3E71A07A1E52A07ACE13A0728F4BE
:10408000605A7A478443934E01CB0036BDED1B073F
:10409000B9E62B07BCE13B0728F4605A744E8C4408
:1040A000934EF4CA0036E7E41E07E2E82E07ECE17F
:1040B0003E0728F4605A7E448546934EE7CA003690
:1040C000F1EB1F07FAE92F07FCE13F0728F4605ADC
:1040D000784B8D47934EDACA00364BE1140743EB19
:1040E00024074CE1340728F4605A72428649934E03
:1040F000CDCA003655E815075BEC25075CE13507AE
:1041000028F4605A7C488E4A934EC0CA0036AFEEFF
:104110001A07A3EE2A07ACE13A0728F4605A764F53
:10412000864C934EB3CA0036B9E51B07BCEF2B078C
:10413000BCE13B0728F4605A70468F4D934EA6CAE7
:1041400000937A0410937B0420937C0430937D04C5
:10415000A5CAE3E1ADCA8CE59FEFF2CA8091B20433
:10416000877009F06AC00E94FA0F81E00E941E1059
:1041700080E00E94740E60E085E20E94610E65E0BE
:1041800086E20E94610E0E94080F0E94A10E69E261
:104190008AE00E94610E64E380E40E94610E6091F7
:1041A00046056F5F82E30E94610E6091460580E0E4
:1041B0000E94610E4091460550E020E067E475E002
:1041C00080E80E94E60D81E00E94E10960916E04A2
:1041D00070916F0480917004909171046115710564
:1041E0008105910531F10E946D0961157105810507
:1041F0009105F9F0009168041091690420916A0416
:1042000030916B04DC01CB01800F911FA21FB31F03
:104210008093680490936904A0936A04B0936B043C
:1042200080916C0490916D04019690936D0480933D
:104230006C0483E00E941E1028C90E940C1081E0CB
:104240000E944F0E87FD06C061E273E085EA91E0AF
:104250000E94E10781E00E941E100E94580F0E94F8
:10426000080F68E08AE00E94610E0E94A10E64E3DC
:1042700089E30E94610E6CE780E40E94610E6FEF9B
:1042800082E10E94610E67EF81E10E94610E60E0B1
:104290008EE00E94610E60E08DE00E94610E6091F0
:1042A000460582E285CF8091B40481FF05C04115A7
:1042B00051056105710589F0415752406109710945
:1042C00020ED31E28AE594E00E941509DEC840E065
:1042D00050E0BA0101FDF0CFD8C841E050E060E005
:1042E00070E0EACF82E08093BA04D6C88091B4042B
:1042F0009091B50483FF35C01092CF0482FF2CC08B
:10430000877E9093B5048093B40482E190E00E948C
:1043100029198091B4049091B50485709927892B4F
:1043200001F50E94DA0780915C0490915D04A091F0
:104330005E04B0915F04892B8A2B8B2B79F48BEC74
:1043400095E06AE574E00E948B060E944E0880E0CA
:104350000E941E100C940A1A8776D3CF89EC95E040
:10436000F0CF08950E9476210E9427148CE090E0FF
:104370000E9429190C94CD13E4EBF4E08081918123
:104380008E7D9F7B91838083109286041092870498
:1043900010928804109289040E9476210C94CD1307
:1043A0000C940A1ACF938091B4049091B504877746
:1043B0009093B5048093B4041092CB0410924305FB
:1043C00020910405222351F030910505332309F48F
:1043D00066C080619093B5048093B4040E942A085B
:1043E0006E5E75488F4F9F4F40E00E94BC148091D5
:1043F0004405877079F08091B4049091B50494FFDE
:1044000009C09F7E9093B5048093B4048FE090E040
:104410000E9429198AE090E00E9429190E940A1A34
:104420008091B8049091B9048197B4F18091C80447
:104430000E94DD0DC82F2091AE043091AF04809111
:10444000C8042730310508F4C82F8C1332C080917E
:10445000B8049091B904813F92404CF08091B4042B
:104460009091B50490649093B5048093B40463E193
:104470008C2F0E9436078091B4049091B5049C0162
:1044800030613093B5042093B4042817390721F024
:104490008EE090E00E94291981E0CF91089510925A
:1044A000CE041092CD042093CF04109204058860AE
:1044B00091CFCC23E1F290E080E00E945307D7CF68
:1044C000809143058823B1F1883020F58F5F809378
:1044D000430580FF07C08091C8040E94DD0D60E89D
:1044E0000E94360760917204709173048091740485
:1044F0009091750443E00E94BC148091B4049091A3
:10450000B5048F779093B5048093B4040E940A1A7F
:1045100081E0089580E6809344058091B8049091ED
:10452000B90401960E945307109246051092450562
:104530000C94D2218091CB04882379F09091C60409
:10454000891758F48F5F8093CB040E942A086E5E0F
:1045500075488F4F9F4F40E0CECF80E2DCCF8091F7
:10456000CC04882341F00E94501185E090E00E9425
:1045700029190C940A1A81E08093CC04F6CFCF92CB
:10458000DF92EF92FF92CF93DF938091B4049091EA
:10459000B50482FD22C085FD0DC08F779093B504D0
:1045A0008093B40481E0DF91CF91FF90EF90DF9092
:1045B000CF9008958F759093B5048093B404809143
:1045C000CA048A3018F48F5F8093CA0489E090E0AF
:1045D0000E9429190E940A1AE5CF8F779093B5049B
:1045E0008093B40484E190E00E9429198091C5046D
:1045F0008093C3048091AE049091AF040E9487120F
:10460000809143058F5F80934305C82FC770109238
:10461000C8048091B4049091B504977F9093B50439
:104620008093B4040E942A086B017C012091C80485
:1046300080E190E002C0959587952A95E2F70E9467
:104640008E14C60ED71EE81EF91EC0926E04D092BC
:104650006F04E0927004F0927104C12CD12C7601A9
:10466000C394CC2399F0C12CD12C7601C0EDD1E2BA
:104670000E942A08AB01BC014C0D5D1D6E1D7F1D03
:104680009E018AE594E00E9415098CCFC8E8D4E227
:10469000EFCF8091440580FF0C94BF2280E0089505
:1046A000CF92DF92EF92FF920F931F93CF93DF93FE
:1046B0008091440580FF05C080914605882309F458
:1046C00002C18091B4049091B50487FFE6C0847262
:1046D0009927892B51F4DF91CF911F910F91FF9072
:1046E000EF90DF90CF900C94492310914605111163
:1046F0000AC0DF91CF911F910F91FF90EF90DF9053
:10470000CF900C94BF22113111F0113221F780911A
:104710004705837E8032F9F6C12FD0E0AE014150CB
:10472000510968E475E080E00E9479112497AE0198
:1047300067E475E08AE00E9479116B017C01C95B36
:10474000DA4F688179818A819B810E946431C61623
:10475000D706E806F90609F0BECF8EE495E00E9480
:10476000CC076093860470938704809388049093A9
:1047700089048BE495E00E94CC079927609382041A
:104780007093830480938404909385041132D1F450
:10479000809163058130B1F494E5E92E95E0F92E1E
:1047A000C0E0D70111960C9111978C91102F082F12
:1047B000D0E1DC0FDC1373C0B2E0EB0EF11CCD2FA7
:1047C000D03679F78091B6049091B7040197EDE166
:1047D000F5E028E0DF011D922A95E9F721E020931A
:1047E000150526E0E8E4F5E0A6E1B5E001900D92BC
:1047F0002A95E1F780931C0590931D0580E1E5E182
:10480000F5E0A5E2B5E001900D928A95E1F782E02E
:104810008093250540E150E065E175E080E00E946D
:10482000791140E150E065E275E080E00E94791185
:104830008091B40485FF08C0C091CA048091C80467
:10484000C150E0F58093C8048091B4049091B50400
:1048500089759D7F98609093B5048093B4041092FD
:1048600043050E94A80780EC9FEF0E9453078091A8
:104870005205982F9F7090933F0582958770809383
:104880003E05809153058823E1F08093380586E04A
:1048900090E00E9429190E940A1A81E015C0C036D2
:1048A00009F48ACF8C2F00FF06C00E94A206CF5FBA
:1048B000169507957FCF0E94D206F9CF0E94DD0D95
:1048C000BFCF81E0E2CF80E0DF91CF911F910F91C8
:1048D000FF90EF90DF90CF90089580914605811171
:1048E0000AC020913F0543EE59E168ED78EB85E081
:1048F00090E00C940D0D0E945023882391F30895AD
:1049000080914605811102C0109244050C945023F9
:1049100088E090E00E9429190C940A1A4F925F9245
:104920006F927F928F929F92AF92BF92CF92DF92BF
:10493000EF92FF928091B40487FF10C08AE192E069
:10494000FF90EF90DF90CF90BF90AF909F908F90AF
:104950007F906F905F904F900C943F0A6AE070E0F8
:1049600080E090E00E9421050E945305882351F0C9
:10497000809176068B3030F08D3058F08551823042
:1049800008F4ABC0C12CD12C20ECE22E2FE7F22E84
:104990001EC06091710670E090E080E00E94D62F0A
:1049A0002DEC3CEC4CEC5DE30E948B306B017C0108
:1049B0006091700670E090E080E00E94D62F9B012D
:1049C000AC01C701B6010E94C22E6B017C010E949E
:1049D0005305812C912C90ECA92E9FE7B92E8823AA
:1049E00029F080E00E946F024B015C010E94530598
:1049F000882309F484C081E00E946F022B013C01EE
:104A0000A7019601C701B6010E94F830811111C0BB
:104A1000A5019401C501B4010E94F830811109C0BB
:104A2000A3019201C301B2010E94F830882309F466
:104A30006DC084E592E00E943F0A8091B404909199
:104A4000B5048C799927892BE9F43091C8044091F9
:104A5000AE045091AF04832F90E04730510590F0A1
:104A6000863080F4FC01E753FD4FE491EE2351F0D2
:104A7000E43308F060C0FC01EF51FD4FE491019672
:104A8000EF3F59F78091B4049091B5049C012C79C3
:104A90003327232BF9F427E2E0E0F1E0A0EDB4E0C6
:104AA00001900D922A95E1F71092CE0421E0209317
:104AB000CD0427E22093CF049C0128603093B504F5
:104AC0002093B40482FD04C0109243051092CB04DD
:104AD0000E940A1A84E792E033CF609170067091C9
:104AE000710676276727762790E080E00E94D42F12
:104AF0002DEC3CEC4CEC5DE30E948B3066CF412CFE
:104B0000512C80EC682E8FE7782E7ACF89E492E0E2
:104B10000E942E0442E0C701B6010E948F0A88E37A
:104B200092E00E942E0442E0C501B4010E948F0A67
:104B300083E392E080CF381709F4A4CF60E80E94A5
:104B40003607A0CF2F923F924F925F926F927F9243
:104B50008F929F92AF92BF92CF92DF92EF92FF928D
:104B60000F931F93CF93DF93CDB7DEB76C970FB63C
:104B7000F894DEBF0FBECDBF998F888F3B01109296
:104B80000405452B09F510920505F12CE12CE614DE
:104B9000F704F4F0C7016C960FB6F894DEBF0FBEB1
:104BA000CDBFDF91CF911F910F91FF90EF90DF90DC
:104BB000CF90BF90AF909F908F907F906F905F90BD
:104BC0004F903F902F90089581E080930505DDCFB1
:104BD000C88CD98CCE0CDF1CF6012081223050F11C
:104BE000422F4250550BFA014231510518F5EE574C
:104BF000FD4FE4918E2F90E09D8B8C8B892B51F291
:104C0000C3018E199F09EC89FD898E179F070CF44B
:104C1000C1CF2250283080F4E22FF0E0EE5EF94D53
:104C20000C945E311D262526E827712745271C2672
:104C3000DA27F927E0E0DECF3701EC89FD89EE0DB8
:104C4000FF1D730137017F01A2CFD60107E01B8A48
:104C50001A8A2A893B892B5F3F4F49019C014A8967
:104C60005B89241B350B253031050CF493C011965C
:104C70002C91119712964D915C91139714963C913B
:104C800014973077E22FE295EF70303558F03035D9
:104C900009F078C04115510509F47AC04427452B25
:104CA00009F076C0E63030F4F0E0E052FD4FE491D8
:104CB000EF3F09F40D7F2F70283038F4E22FF0E039
:104CC000EF53FD4FE491E03809F40B7F15962C91DA
:104CD000233009F454C08CE0E6E9F4E0DE011196DB
:104CE00001900D928A95E1F78091AE049091AF0406
:104CF0009B8F8A8F412C10E0073009F077C09F8A84
:104D00008E8A160181E0412C10E0EE89FF893597EB
:104D10000CF469C0F101A280B38011814480F42DAC
:104D2000F077F98BF035D9F5512C852DA0FE34C0E4
:104D30000E940B085394B694A79428E05212F5CF22
:104D40002091AE043091AF044E895F8945505109DE
:104D50005F8B4E8B55E0250E311C81E0211531050E
:104D600009F480E0A1014C195D09481559056CF260
:104D7000232BD9F1A12EA2948FE0A8223DC09B8ABB
:104D80008A8A67CF303609F489CF303709F482CF69
:104D90000E7F88CF00E09FCF0E94E407CBCF8989A8
:104DA000803578F4805F8C8F5988FC8D5F1640F6D3
:104DB000852DA0FE15C00E94A2065394B694A79418
:104DC000F4CF512C9989852D903639F40E94A20692
:104DD0005394E0E65E12F6CFE8CF0E94D206F8CFF9
:104DE0000E94D206EACF811101C006E0A12EA29452
:104DF0007FE0A722073041F48091AE049091AF0488
:104E000007E0079780F405E08CE0FE013196A6E903
:104E1000B4E001900D928A95E1F72A8D3B8D309395
:104E2000AF042093AE04BB24B394D12CC12CC40195
:104E30008C199D0905976CF0602F83E00E947E0716
:104E4000B82E35E0C30ED11CC814D90414F4811156
:104E5000EECF073099F4842D8F709091C60489139A
:104E60008093C6041F7060E8183028F4E12FF0E04A
:104E7000EF53FD4F64918A2D0E9436074A895B8962
:104E8000E40EF51EBB2001F1D8CE2091BC04022E09
:104E9000000C330BC901029697FD039695958795F3
:104EA00095958795182F1F734F970CF01FE110935E
:104EB0003A05D09059040091040586E00E945F07EE
:104EC000811104C000930405F701BCCE8D2D0E9412
:104ED0005F078823B9F3812F0E945F07882391F32E
:104EE000ACCEC7010196E88DF98D8E0F9F1FFC0196
:104EF0002081122F1F7030E044E0359527954A95A8
:104F0000E1F7022F07700E94CC07272F382F492F77
:104F10005527A4E6B0E00E9481314B015C01F0E826
:104F20008F1AF1EA9F0AF3E0AF0AFCE1BF0A21E021
:104F300082162AE5920622E6A20622E0B20618F0C0
:104F400060E070E0CB0130EC30934005163050F457
:104F5000E12FF0E0E052FD4FE491EF3F19F042EC19
:104F600040934005611571058105910529F0209157
:104F70004005216020934005043028F4209140052D
:104F800024602093400520914005273C61F4109354
:104F90003F056093920470939304809394049093DC
:104FA000950400933E05622F677085E00E947E079E
:104FB000B82E68CFF60181818F7009F481E080936B
:104FC0003805F2E0F093420588E00E945F07F0CFD9
:104FD000F60181818F708093C4040E942A08609337
:104FE0007E0470937F04809380049093810484E016
:104FF000ECCFF60181818F7380933D0589E0E5CF89
:105000002F923F924F925F926F927F928F929F92D8
:10501000AF92BF92CF92DF92EF92FF920F931F93C6
:10502000CF93DF9300D000D000D0CDB7DEB7809112
:10503000B40487FFE5C1F0904605F1101AC026962A
:105040000FB6F894DEBF0FBECDBFDF91CF911F9199
:105050000F91FF90EF90DF90CF90BF90AF909F9017
:105060008F907F906F905F904F903F902F900C9417
:1050700060222F2D30E03E832D832C30310544F407
:10508000109246058091440580FFD9CF80E0B9C1D8
:1050900080914705982F937099F7807E8983803699
:1050A00011F0803A69F788E495E00E94CC070091FE
:1050B0008604109187042091880430918904601738
:1050C000710782079307E1F630914C053B833F70EF
:1050D000E32EC32ED12C1601A8E02A0E311C2D81FF
:1050E0003E81245031093E832D832215330544F23D
:1050F00088248A94982C221633064CF4F101E95B3B
:10510000FA4F2081822E912CD60119961D014090D4
:105110008A0450908B0460908C0470908D040091F0
:105120004D0510914E05041915090F3F100709F0A0
:1051300078C021E0421A51086108710820E1EFEDC2
:10514000F3E0DF01322F1D923A95E9F739E430930D
:10515000DF0331E03093E403ACEFAF0DAC83A093F9
:10516000EE036093E5037093E6038093E703909367
:10517000E8034092E9035092EA036092EB037092D5
:10518000EC03E5E1F5E0ABE2B4E001900D922A9585
:10519000E1F74D815E8167E475E082E00E9479115C
:1051A0009B01AC01ED81FE81E95BFA4F6081718169
:1051B000828193810E946431261737074807590777
:1051C00009F05ECF80918A0490918B04A0918C04A9
:1051D000B0918D04481659066A067B0638F5841589
:1051E0009505A605B7050CF44BCF0197A109B109A8
:1051F000481659066A067B0609F042CF80913605AB
:10520000882309F43DCFB981B03A09F039CF80E263
:10521000809335058114910409F40CC101E010E07C
:1052200033C0400E511E611C711C88CF01301044E8
:1052300008F026CFD301C2010196A11DB11D8093B4
:105240008A0490938B04A0938C04B0938D043981CD
:1052500080E2303A09F080E080933605809335058E
:1052600010E000E08114910441F4EE2031F08D81D2
:105270009E81281639060CF403CF809135058111E3
:1052800003C09B8194FF09C08091B4049091B50440
:1052900080619093B5048093B4041092CA04109274
:1052A000370580EC9FEF0E94530710924005109243
:1052B0004205E091B204F091B3048E2F877033E081
:1052C000F695E7953A95E1F7E370F0E0A3E08A9F61
:1052D000E00DF11D1124E455FD4FE4918091BB04D4
:1052E000082E000C990B80549109ED58FF0B8E1B72
:1052F0009F0B97FD80E080933905A401B6018FE4F0
:1053000095E00E94A225012B09F0BACEBFEF8B16C3
:105310009B0699F12D813E81221933093E832D830D
:105320001216130654F5C101895B9A4F9A8389833B
:10533000409186045091870460918804709189049B
:1053400085E195E08114910411F085E295E0AD804E
:10535000BE80C980DA80EE24E394F12C93018201AF
:105360000E94FA148114910441F450E040E06D81F0
:105370007E8189819A810E94A2259091430599237B
:1053800049F0AB8120E8A5FF20E480914405822B01
:105390008093440580914405181419043CF18062FF
:1053A000809344052092450510924605992321F0EB
:1053B0008091440586FD43CE26960FB6F894DEBF55
:1053C0000FBECDBFDF91CF911F910F91FF90EF9056
:1053D000DF90CF90BF90AF909F908F907F906F9015
:1053E0005F904F903F902F900C94D22180618093DA
:1053F000440520924505FC80F218F0924605D6CF70
:1054000081E026960FB6F894DEBF0FBECDBFDF91C8
:10541000CF911F910F91FF90EF90DF90CF90BF90B1
:10542000AF909F908F907F906F905F904F903F9044
:105430002F900895EE2009F4F1CE01E010E017CF8F
:105440008091460581110EC0A0913805B0E01196FB
:1054500024E234EF0E947A3120913F054BED59E16F
:105460000C940D0D0E940028882371F308958091FB
:10547000460581110BC0109244050E942A08655E02
:1054800078448F4F9F4F42E00E94BC140C94002838
:105490001F920F920FB60F9211242F933F934F93A9
:1054A0005F936F937F938F939F93AF93BF93EF938C
:1054B000FF9381ED95E00E94BF03FF91EF91BF91B3
:1054C000AF919F918F917F916F915F914F913F919C
:1054D0002F910F900FBE0F901F9018951F920F9253
:1054E0000FB60F9211242F938F939F93EF93FF93F7
:1054F000E091E105F091E2058081E091E705F0910E
:10550000E80582FD1BC090818091EA058F5F8F7353
:105510002091EB05821741F0E091EA05F0E0EF52AF
:10552000FA4F958F8093EA05FF91EF919F918F91AC
:105530002F910F900FBE0F901F9018958081F4CF80
:105540001F920F920FB60F9211242F933F938F93B8
:105550009F93AF93BF938091CD059091CE05A0917D
:10556000CF05B091D0053091EF0323E0230F2D3705
:1055700058F50196A11DB11D2093EF038093CD0531
:105580009093CE05A093CF05B093D0058091F00302
:105590009091F103A091F203B091F3030196A11D44
:1055A000B11D8093F0039093F103A093F203B093A5
:1055B000F303BF91AF919F918F913F912F910F90E6
:1055C0000FBE0F901F90189526E8230F0296A11D7D
:1055D000B11DD2CFE1EDF5E01382128288EE93E0A7
:1055E000A0E0B0E084839583A683B7838AE391E04B
:1055F0009183808385EC90E09587848784EC90E0AC
:105600009787868780EC90E0918B808B81EC90E08F
:10561000938B828B82EC90E0958B848B86EC90E070
:10562000978B868B118E128E138E148E8CE491E0E4
:1056300090936F0680936E06A0E7B6E08FE0159614
:105640008C93159786E116968C931697E2E8F4E012
:10565000E4911796EC931797EEE6F4E0E491189630
:10566000EC93189740E85EE360E070E01D964D9380
:105670005D936D937C9350970895CF93DF93CDB74F
:10568000DEB7A0970FB6F894DEBF0FBECDBF7894FB
:1056900084B5826084BD84B5816084BD85B5826037
:1056A00085BD85B5816085BD80916E0081608093E8
:1056B0006E00109281008091810082608093810051
:1056C0008091810081608093810080918000816061
:1056D000809380008091B10084608093B1008091BC
:1056E000B00081608093B00080917A0084608093E4
:1056F0007A0080917A00826080937A0080917A00AB
:10570000816080937A0080917A00806880937A002B
:105710001092C100E091E105F091E20582E0808302
:10572000E091DD05F091DE051082E091DF05F0915A
:10573000E00580E180831092E905E091E505F091B4
:10574000E60586E08083E091E305F091E405808141
:1057500080618083E091E305F091E40580818860B9
:105760008083E091E305F091E40580818068808387
:10577000E091E305F091E40580818F7D808364E60C
:1057800070E080E090E00E9421058EE393E00E94AB
:105790003F0A82E393E00E943F0A62E0809175062F
:1057A0000E94C0042FB7F8948091CD059091CE054A
:1057B000A091CF05B091D0052FBF805D9740A10982
:1057C000B1098093790690937A06A0937B06B093F3
:1057D0007C0687E380938206E9ECF5E084E0DF0154
:1057E0001D928A95E9F788E291E090932A048093CC
:1057F00029048EE696E0909314048093130461E0EC
:105800008AE00E94920461E08AE00E94C00460E0A5
:1058100089E00E94C00460E082E00E94C00460E071
:1058200086E00E94C00460E087E00E94C0041FB7C9
:10583000F89480911204811127C0E9E6F4E0849184
:10584000EDE7F4E09491E82FF0E0EE0FFF1FE85F42
:10585000FC4FA591B491EC91E92321F461E08AE039
:105860000E94920461E08AE00E94C0048CB58061CD
:105870008CBD8CB580648CBD61E08DE00E94C0045D
:1058800061E08BE00E94C004809112048F5F8093DE
:1058900012041FBFE4E0F4E08EE0DF011D928A9560
:1058A000E9F782ED97E090930D0480930C0482E079
:1058B00080930704F0938606E093850681E00E94BA
:1058C000B7090091290410912A04F80182818F3FC1
:1058D00049F060E00E94920461E0D80112968C9138
:1058E0000E94C0040E942A08625C7F4F8F4F9F4F26
:1058F0000E946D09F80182818F3F19F060E00E94DB
:10590000C0040E942A08685C7E4F8F4F9F4F0E9400
:105910006D0980E00E941E1082E40E944F0E8231C9
:1059200009F020C28091130490911404DC01ED91E0
:10593000FC910680F781E02D0995882341F08BE4E6
:105940000E944F0E682F60618BE40E94610E82E01E
:105950000E94281081E00E944F0E87708530D1F799
:1059600004EF13E0B3E0CB2EB4E0DB2EA8E0EA2E88
:10597000F12C8CE20E944F0E8170B82E8CE20E94B6
:105980004F0E8170B816A9F3F8018181880F8B2919
:105990008183F1E0EF1AF10861F70F5F1F4FC01626
:1059A000D10621F710E11093F40380E00E941E104D
:1059B00080E490E09093B5048093B4048FEF8093DB
:1059C00059040E94271440E150E062E273E0CE01E6
:1059D00041960E94B82E40E150E062E173E0CE01B2
:1059E00001960E94B82E83E190E0A0E0B0E08093A1
:1059F000820490938304A0938404B093850485E18A
:105A00009AEEAEEDB0E08093860490938704A09365
:105A10008804B0938904FE013196A5E1B5E0812F99
:105A200001900D928A95E1F7FE017196A5E2B5E02D
:105A300001900D921A95E1F78091B4049091B5040C
:105A400089759D7B98609093B5048093B4040E94FF
:105A5000A80790E080E00E94530710E0812F0E9489
:105A6000E4071F5F1830D1F71092370580E89FEFE9
:105A70009093B9048093B80410923F0510923B05AF
:105A80006DE082E00E94360785E194E00E948E245A
:105A9000EFE0BE2EF0E0CF2EF0E0DF2E2FB7F8942F
:105AA0008091CD059091CE05A091CF05B091D00504
:105AB0002FBF61E091FF60E08DE00E9492047DE1E4
:105AC000E72E74E0F72E10E000E0E0912904F09159
:105AD0002A04E00FF11F83818F3FC9F1D7014D9058
