:100000000C9443020C946B020C946B020C946B02E4
:100010000C946B020C946B020C946B020C946B02AC
:100020000C946B020C946B020C946B020C946B029C
:100030000C946B020C946B020C946B020C946B028C
:100040000C94A9260C946B020C9477260C945126E0
:100050000C946B020C946B020C946B020C946B026C
:100060000C946B020C946B02556E6B6E6F776E2066
:100070006576656E743A200045565F4A4F494E5F7B
:100080005458434F4D504C4554453A206E6F204ACA
:100090006F696E4163636570740045565F545843E1
:1000A000414E43454C454400206279746573206F8E
:1000B0006620504859205061796C6F61643A200085
:1000C0004F726967696E616C2053656E7420002001
:1000D0006279746573206F66204672616D65205089
:1000E00061796C6F61643A204261736536342D64C6
:1000F00065636F6465642068657861646563696DD4
:10010000616C20737472696E67207061796C6F61C5
:10011000643A0053656E74200045565F545853543A
:100120004152540045565F4C494E4B5F414C495635
:10013000450045565F4C494E4B5F444541440045A0
:10014000565F5258434F4D504C4554450045565FFD
:1001500052455345540045565F4C4F53545F5453DA
:10016000594E43004261736536342D6465636F6494
:1001700065642068657861646563696D616C20738E
:100180007472696E67207061796C6F61643A2000E7
:10019000206279746573206F66207061796C6F617D
:1001A000643A200052656365697665642000526593
:1001B0006365697665642061636B0045565F5458DA
:1001C000434F4D504C4554452028696E636C75640F
:1001D00065732077616974696E6720666F7220525B
:1001E000582077696E646F7773290045565F5245D2
:1001F0004A4F494E5F4641494C45440045565F4A87
:100200004F494E5F4641494C45440045565F4A4F71
:10021000494E45440045565F4A4F494E494E4700B6
:1002200045565F424541434F4E5F545241434B4513
:10023000440045565F424541434F4E5F4D4953533D
:1002400045440045565F424541434F4E5F464F553A
:100250004E440045565F5343414E5F54494D454F10
:100260005554004F505F5458525850454E442C201E
:100270006E6F742073656E64696E67005061636BA6
:1002800065742071756575656400000000002300C9
:1002900026002900030502050106020205000006EA
:1002A0000000010504040004000000020000000139
:1002B000000080000000400000002000000020201E
:1002C000200E11140C0F12090C0F06090C0306095D
:1002D00000030613110F0D0B09070540404080EB8A
:1002E000EB080A0C0D0E10121415181A1B1D1E21F6
:1002F00024FF060504030201FFC0400000000000C7
:10030000250028002B000000000800020100000367
:1003100004070000000000000000000000002400AE
:1003200027002A000102040810204080010204086E
:10033000102001020408102004040404040404042E
:1003400002020202020203030303030343579EA9AE
:100350009CF9256204D4778F63A61C0CE9B53B9009
:100360008577E0CF4A7DBE490D40B0455374617238
:1003700074696E6700000000006700CC00B801548B
:10038000039D07637C777BF26B6FC53001672BFEA3
:10039000D7AB76CA82C97DFA5947F0ADD4A2AF9CDB
:1003A000A472C0B7FD9326363FF7CC34A5E5F171B2
:1003B000D8311504C723C31896059A071280E2EBBB
:1003C00027B27509832C1A1B6E5AA0523BD6B3294B
:1003D000E32F8453D100ED20FCB15B6ACBBE394AD8
:1003E0004C58CFD0EFAAFB434D338545F9027F50DF
:1003F0003C9FA851A3408F929D38F5BCB6DA2110DE
:10040000FFF3D2CD0C13EC5F974417C4A77E3D6475
:100410005D197360814FDC222A908846EEB814DEA5
:100420005E0BDBE0323A0A4906245CC2D3AC62912F
:1004300095E479E7C8376D8DD54EA96C56F4EA6519
:100440007AAE08BA78252E1CA6B4C6E8DD741F4B18
:10045000BD8B8A703EB5664803F60E613557B98686
:10046000C11D9EE1F8981169D98E949B1E87E9CE33
:100470005528DF8CA1890DBFE6426841992D0FB048
:1004800054BB1600F32611241FBECFEFD8E0DEBF09
:10049000CDBF25E0ACE0B3E001C01D92A83AB207A1
:1004A000E1F713E0A0E0B1E0E6E9FDE502C0059068
:1004B0000D92AC30B107D9F712E0C3E4D2E004C02A
:1004C0002197FE010E94E82AC234D107C9F70E9491
:1004D00026270C94C92E0C940000FC0120E1215029
:1004E00008F4089580E0211181819191990F87FD91
:1004F0009160DF0111979C93F2CFAF92BF92CF92A0
:10050000DF92EF92FF920F931F93CF93DF936C01D3
:100510007B018B01040F151FEB015E01AE18BF08B4
:10052000C017D10759F06991D601ED91FC91019066
:10053000F081E02DC6010995892B79F7C501DF917E
:10054000CF911F910F91FF90EF90DF90CF90BF90D0
:10055000AF900895FC01538D448D252F30E0842FFA
:1005600090E0821B930B541710F0CF9608950197DB
:100570000895FC01918D828D981761F0A28DAE0FC8
:10058000BF2FB11D5D968C91928D9F5F9F73928F4F
:1005900090E008958FEF9FEF0895FC01918D828D7B
:1005A000981731F0828DE80FF11D858D90E0089548
:1005B0008FEF9FEF0895FC01918D228D892F90E0A0
:1005C000805C9F4F821B91098F739927089583E068
:1005D00095E00E94DB0221E0892B09F420E0822FC4
:1005E000089580E090E0892B29F00E94E7028111B4
:1005F0000C9400000895FC01A48DA80FB92FB11D23
:10060000A35ABF4F2C91848D90E001968F73992748
:10061000848FA689B7892C93A089B1898C91837026
:1006200080648C93938D848D981306C00288F3891F
:10063000E02D80818F7D80830895EF92FF920F934C
:100640001F93CF93DF93EC0181E0888F9B8D8C8D7E
:1006500098131AC0E889F989808185FF15C09FB772
:10066000F894EE89FF896083E889F9898081837035
:10067000806480839FBF81E090E0DF91CF911F91E4
:100680000F91FF90EF900895F62E0B8D10E00F5F05
:100690001F4F0F731127E02E8C8D8E110CC00FB6DB
:1006A00007FCFACFE889F989808185FFF5CFCE0173
:1006B0000E94FB02F1CFEB8DEC0FFD2FF11DE35AF1
:1006C000FF4FF0829FB7F8940B8FEA89FB898081F6
:1006D0008062CFCF0F931F93CF93DF938C01D0E035
:1006E000C0E0F801EC0FFD1F6491662341F083E048
:1006F00095E00E941D03892B11F02196F2CFCE01C7
:10070000DF91CF911F910F910895CF93DF93EC016B
:10071000888D8823B9F0AA89BB89E889F9898C91E9
:1007200085FD03C0808186FD0DC00FB607FCF7CFA5
:100730008C9185FFF2CF808185FFEDCFCE010E94A5
:10074000FB02E9CFDF91CF910895833081F028F447
:10075000813099F08230A9F008958730A9F088306F
:10076000C9F08430B1F4809180008F7D03C0809106
:1007700080008F7780938000089584B58F7784BD43
:10078000089584B58F7DFBCF8091B0008F778093E3
:10079000B00008958091B0008F7DF9CF1F93CF9363
:1007A000DF93282F30E0F901EA5FFC4F8491F901D3
:1007B000EC5DFC4FD491F901E85CFC4FC491CC2373
:1007C000A9F0162F81110E94A503EC2FF0E0EE0F87
:1007D000FF1FE450FD4FA591B4918FB7F894EC91B1
:1007E000111108C0D095DE23DC938FBFDF91CF912C
:1007F0001F910895DE2BF8CFCF93DF9390E0FC019B
:10080000EC5DFC4F2491885C9C4FFC018491882313
:10081000D1F090E0880F991FFC01E65EFC4FA59196
:10082000B491FC01E450FD4FC591D49161110EC00B
:100830009FB7F8948C91E22FE0958E238C932881BA
:10084000E223E8839FBFDF91CF9108958FB7F8949B
:10085000EC91E22BEC938FBFF6CF3FB7F8948091E9
:10086000220390912303A0912403B091250326B580
:10087000A89B05C02F3F19F00196A11DB11D3FBFD8
:10088000BA2FA92F982F8827BC01CD01620F711DA7
:10089000811D911D42E0660F771F881F991F4A95A1
:1008A000D1F708958F929F92AF92BF92CF92DF922D
:1008B000EF92FF924B015C010E942D046B017C01C1
:1008C0000E942D046C197D098E099F09683E7340B2
:1008D00081059105A8F321E0821A9108A108B108C9
:1008E00088EEC80E83E0D81EE11CF11C811491042F
:1008F000A104B10429F7FF90EF90DF90CF90BF9053
:10090000AF909F908F9008950F931F93611571057D
:1009100081059105F9F000919803109199032091B8
:100920009A0330919B03DC01CB01800F911FA21F22
:10093000B31F8093980390939903A0939A03B09365
:100940009B0380919C0390919D03019690939D033E
:1009500080939C031F910F910895FC0120813181A8
:100960002115310519F490E080E008952617370726
:1009700049F4FB0120813181FC013183208381E036
:1009800090E00895C901E9CF803660F5282F2295BF
:100990002F7030E0220F331FF901E453FC4F4081E8
:1009A00051818F7061E070E002C0660F771F8A95F9
:1009B000E2F7CA0186239723892B91F48091E403FF
:1009C0009091E50301969093E5038093E40381E021
:1009D00024533C4F462B572BF901518340830895F4
:1009E00080E0F6CF80E00895803670F5282F2295BC
:1009F0002F7030E0220F331FF901E453FC4F608168
:100A000071818F7041E050E002C0440F551F8A95FC
:100A1000E2F7CA0186239723892BA1F08091E40392
:100A20009091E50301979093E5038093E40381E0BF
:100A300024533C4F4095509546235723F901518349
:100A40004083089580E0F4CF80E00895FC0190E0B9
:100A500080E06115710509F4089521913191A90192
:100A60005695479545755575241B350BA90143735C
:100A70005373369527953695279523733373240F33
:100A8000351FA901407F507F2F703F70A4E0220FD7
:100A9000331FAA95E1F7240F351FA9015527232FEE
:100AA0003327240F351F820F931F61507109D1CF57
:100AB000982F6038C1F08091FD036817A1F0609312
:100AC000FD0381E02091FE03291761F09093FE035E
:100AD0008091EA039091EB0398609093EB038093ED
:100AE000EA0381E0089580E0EDCF2091EE0330919C
:100AF000EF0320383F4F21F09093EF038093EE03F4
:100B00000895982F80913B04E0913A04882361F086
:100B1000EF30A0F481E08E0F80933A04F0E0E45CC3
:100B2000FB4F908381E00895E43348F481E08E0F19
:100B300080933A04F0E0EA5FFB4FF3CF80E0089542
:100B4000CF93DF93C62FD0913A040E948105811183
:100B500006C0D0933A0480E0DF91CF9108958C2FA6
:100B60000E9481058823A9F381E0F6CF10927404D6
:100B70001092750480E294E4AEE1BEE18093C80374
:100B80009093C903A093CA03B093CB038FEF8093D4
:100B9000730408951092C4031092C5031092C60303
:100BA0001092C7031092C0031092C1031092C203A7
:100BB0001092C3031092000410926D0410926C0402
:100BC00010926B041092FC031092010410927604B0
:100BD00010927804109272040C94B605FC016081A6
:100BE0007181828193810895682F83E095E00E944E
:100BF0001D0390E080E00895F894809110038F5FCA
:100C00008093100308950E94FC05FFCFEF92FF929E
:100C10001F93CF93DF938C3030F067EA70E08FE55D
:100C200091E00E940306880F880F880F98E0980FC4
:100C3000C82FD0E010E0E92EF12CCE15DF053CF0F6
:100C4000812FDF91CF911F91FF90EF9008958C2F0E
:100C50000E94F404182B2196F0CFEF92FF921F937D
:100C6000CF93DF93880F880F880F98E0980FC82FD5
:100C7000D0E010E0E92EF12CCE15DF053CF0812FFD
:100C8000DF91CF911F91FF90EF9008958C2F0E94DC
:100C9000C404182B2196F0CF0F931F930E942D04AC
:100CA000AB01BC0120910C03DC01CA013CE1B6950B
:100CB000A795979587953A95D1F782278870820FE7
:100CC00080930C03E4E07695679557954795EA95F0
:100CD000D1F79B01382BC901BA011F910F910895DB
:100CE000AF92BF92CF92DF92EF92FF920F931F933A
:100CF000CF93DF9380911003815080931003811173
:100D000069C078940DE013E0D0E0C0E0BB24B39458
:100D1000E0915F03F0916003EC0FFD1F23812F3FF3
:100D200009F451C0F801D080ED2CF12C30E0F9012C
:100D3000EA5FFC4F8491F901EC5DFC4FC490F9012E
:100D4000E85CFC4FA490AA2009F44FC081110E94D6
:100D5000A503EA2DF0E0EE0FFF1FE657FD4FA5912A
:100D6000B491EC91CE2231E020E009F430E0832F01
:100D7000922FE816F90639F1DB24F801D082DD2044
:100D800011F1CE01880F991F880F991F9C012D5AD0
:100D90003C4F7901F90180819181A281B381892B36
:100DA0008A2B8B2B81F40E944C06611571058105FD
:100DB000910521F461E070E080E090E0F70160834C
:100DC00071838283938321960F5F1F4FC330D105B8
:100DD00009F09ECFDF91CF911F910F91FF90EF907F
:100DE000DF90CF90BF90AF90089590E080E0C1CFAA
:100DF000CF93DF93EC010E94FC05809192039091C8
:100E00009303A0919403B0919503892B8A2B8B2B8C
:100E100031F581E095E060E973E00E94AD04109245
:100E200091031092900310929203109293031092E8
:100E3000940310929503D0939703C0939603E09187
:100E40000105F0910205A1E0B5E0309759F480E981
:100E500093E08D939C93DF91CF910C9470068FEF6C
:100E600094E0D9CFDF010190F081E02DEECFCF9259
:100E7000DF92EF92FF920F931F93CF93DF93EC01DA
:100E80006A017B018901C114D104E104F10421F458
:100E9000C12CD12C7601C3940E94FC058A819B81D0
:100EA000AC81BD81892B8A2B8B2B89F581E095E064
:100EB000BE010E94AD0419821882CA82DB82EC82D4
:100EC000FD821F830E83E091FF04F09100052FEF58
:100ED00034E0309779F082819381A481B5818C19B7
:100EE0009D09AE09BF09181619061A061B0694F4C7
:100EF000F983E883F901D183C083DF91CF911F91FA
:100F00000F91FF90EF90DF90CF900C9470068FEFD1
:100F100094E0CECF9F010190F081E02DDACFCF9207
:100F2000DF92EF92FF926B017C010E944C06A701B9
:100F30009601261B370B480B590BDA01C901B7FF85
:100F40000CC066277727CB01621B730B840B950BB4
:100F5000FF90EF90DF90CF900895833332E09307B6
:100F6000A105B1058CF068E070E080E090E00E949F
:100F700052040E944C06A7019601261B370B480B12
:100F8000590BDA01C901E9CF181619061A061B0612
:100F900064F424E0880F991F2A95E1F7880F991FC0
:100FA000880F991F05970197F1F760E070E0CB017A
:100FB000CFCFCF92DF92EF92FF92A0914503B091F5
:100FC0004603682F6170ED91FC9111970190F081BB
:100FD000E02DCD0109956B017C01C114D104E10420
:100FE000F10461F00E944C066C0D7D1D8E1D9F1D4D
:100FF000FF90EF90DF90CF900C948F07FF90EF90D1
:10100000DF90CF900895982FE0915F03F0916003F7
:1010100081818F3F39F061E02681291301C060E0B2
:101020000C94CE03089581E0089580E0089508951A
:1010300060E070E0CB010895E1E7F3E08481958101
:101040009483968195839781968387838085928503
:101050009087828781859385918783878785968509
:101060009787958596879485958784870895CF93EC
:1010700021E733E0BC01605F7F4FDC01F90140E014
:10108000CD9150815C2750834F5F34964430C1F737
:101090002F5F3F4F04968617970779F7CF910895F2
:1010A000FC0101900020E9F73197AF01481B590B73
:1010B000BC0183E095E00C947D02CF93DF930E9406
:1010C0006A03EC0187E991E00E9450088C0F9D1F94
:1010D000DF91CF9108958F929F92AF92BF920F931D
:1010E0001F93CF93DF93CDB7DEB7A1970FB6F894D8
:1010F000DEBF0FBECDBF19A2423008F44AE08E0118
:101100000F5D1F4F842E912CB12CA12CA5019401B1
:101110000E94A72AE62FB901CA01EA30F4F4E05D83
:10112000D801EE938D01232B242B252B79F790E00A
:1011300080E0109719F0CD010E945008A1960FB6DB
:10114000F894DEBF0FBECDBFDF91CF911F910F91FD
:10115000BF90AF909F908F900895E95CE1CFCF92C0
:10116000DF92EF92FF92CF93DF936B017C016DE2F0
:1011700083E095E00E941D03EC0166277727CB01F1
:101180006C197D098E099F094AE00E946B088C0F3B
:101190009D1FDF91CF91FF90EF90DF90CF9008954A
:1011A0000F931F93CF93DF9300D000D0CDB7DEB75E
:1011B000DB011C969C911C971E963C911E971F96D6
:1011C0002C911F971D964C911D9749833A832B8331
:1011D0009C83BE016B5F7F4F9E012F5F3F4FF901E4
:1011E00011919F01412F42954F70F0E14F9FA00157
:1011F0001124E12FEF70E40FF52FF11DED57FC4F97
:101200009491A90141505109FA019083261737079B
:1012100031F791E05BE1813039F0492F440F97FDC0
:1012200045278150942FF7CF8981982799838D0185
:1012300094E0FE013196A801DA018D91AD01619132
:101240008627BD0161507109DB018C93BF0161509C
:101250007109DB018C93E217F30771F791500C5F72
:101260001F4F9111E6CF0F900F900F900F90DF91CD
:10127000CF911F910F9108953F924F925F926F927D
:101280007F928F929F92AF92BF92CF92DF92EF9216
:10129000FF920F931F93CF93DF93CDB7DEB768977D
:1012A0000FB6F894DEBF0FBECDBF8C0121E7C22E72
:1012B00023E0D22EAC01405F5F4FC6017801FC01F4
:1012C000D70120E03D9130832F5F34962430D1F751
:1012D00024E0E20EF11C01964E155F0581F7A1E6B0
:1012E000B3E0FE01319681E793E05E2E6F2E2D91E3
:1012F00021938A179B07D9F7852D962D0E943708D1
:101300004424439485E7A82E83E0B82E4E0139E1AA
:10131000830E911C9BE1392E81E793E024E0DC01F0
:10132000712CEC914E2F42954F7030E1439FA001FC
:101330001124EF70E40FF52FF11DED57FC4FE491F0
:10134000EC937394149654E07512EBCF21500196F0
:101350002111E5CF0E941C08E1E7F3E0CE0145969C
:10136000BE016F5E7F4F9F01D9015C91DC015D93EF
:10137000CD01452F440F57FD83C0DB014C932C5FFB
:101380003F4F6F5F7F4F8816990671F78E893989B5
:1013900038272F89688D9A8992279627432F4927C6
:1013A00041934D895B899427952793839C89862750
:1013B000842785278927878324272927322733876E
:1013C000AE16BF0659F6652D762D842D0E94D008E5
:1013D000852D962D0E9437084394BAE04B129CCF7E
:1013E00081E793E0DC0140E0EC912E2F22952F70F5
:1013F00050E1259F90011124EF70E20FF32FF11DB2
:10140000ED57FC4FE491EC934F5F1496443061F735
:101410007A9401967110E6CF0E941C08652D762DF6
:101420008AE00E94D008852D962D0E943708D801A9
:10143000F60180E090819D938F5F34968430D1F7E0
:101440008FEFC81AD80A0C5F1F4FE016F10679F724
:1014500068960FB6F894DEBF0FBECDBFDF91CF9177
:101460001F910F91FF90EF90DF90CF90BF90AF90C2
:101470009F908F907F906F905F904F903F900895D6
:1014800043257BCFE091F503A091F903A770B0E06D
:1014900020E43DE043E050E00E940B2B60527F458A
:1014A0008C4C914E6093B0037093B1038093B20360
:1014B0009093B30380917404E53090F4E81BE63018
:1014C00008F0E5E0E093F503F0E0EE50FD4FE49125
:1014D000F0E0EF77E068F093E903E093E803089524
:1014E000E5E0ECCF4F925F926F927F928F929F9246
:1014F000AF92BF92CF92DF92EF92FF920F93CF9372
:10150000DF9300D000D000D0CDB7DEB76B017C01F7
:101510005E834D83277084E0289FF0011124EA55F3
:10152000FD4F85919591A591B49189839A83AB8361
:10153000BC834090A4035090A5036090A6037090D4
:10154000A70360918D0370918E036115710531F0D1
:10155000673091E0790710F066E071E090E080E09C
:10156000A70196010E94162B00E10E94FF2B490162
:101570005A0129813A814B815C81220F331F441F1C
:10158000551FC501B401660F771F881F991F620F91
:10159000731F841F951F64587F4F8F4F9F4F0E946A
:1015A000C92A2A5F3F4F43E85FEF6FEF7FEF48198B
:1015B00059096A097B092115A4E03A07B8F18FEFB0
:1015C00093E09093F4038093F303C40ED51EE61EBC
:1015D000F71E4C0C5D1C6E1C7F1C4092A8035092A1
:1015E000A9036092AA037092AB03B301A201415711
:1015F0005240610971092D813E8180E993E0269670
:101600000FB6F894DEBF0FBECDBFDF91CF910F9123
:10161000FF90EF90DF90CF90BF90AF909F908F9012
:101620007F906F905F904F900C9437073093F40346
:101630002093F303CACFCF92DF92EF92FF922091D3
:101640006E0430E0A4E2B4EF0E94F52A6B017C0145
:101650000E94420A2091F50349E456E2C701B6010F
:10166000FF90EF90DF90CF900C94720A0E94420A94
:101670002091F5034DE456E264EB74EC84E090E0D5
:101680000C94720AE82FF0E0EF50FD4FE491EF3F29
:1016900009F0815008958F929F92AF92BF92DF928E
:1016A000EF92FF920F931F93CF93DF93D82EEB010E
:1016B0008A01E22EE0915F03F0916003F080808464
:1016C0009184A284B38481149104A104B10439F4F7
:1016D00020E4822E22E4922E2FE0A22EB12C40E0B4
:1016E00052E16AE770E080E084169506A606B70628
:1016F00040F476956795579547958F5F8630A1F7AB
:1017000087E0982F906A9695809581709CBD8DBDDD
:1017100060E08F2D0E94CE03DEBC00000DB407FEFA
:10172000FDCF8EB50C0F1D1FC017D10771F080E0E3
:10173000E11001C088818EBD00000DB407FEFDCF11
:101740008EB5E11088832196EFCF61E08F2DDF9178
:10175000CF911F910F91FF90EF90DF90BF90AF90CE
:101760009F908F900C94CE03CF93DF931F92CDB7B1
:10177000DEB721E041E050E0BE016F5F7F4F0E9485
:101780004B0B89810F90DF91CF910895CF93DF9319
:101790001F92CDB7DEB7698320E041E050E0BE0183
:1017A0006F5F7F4F80680E944B0B0F90DF91CF914E
:1017B0000895CF93C82F62E082E00E94C60B60E8D4
:1017C00083E00E94C60B61E084E00E94C60B69E9D9
:1017D00085E00E94C60B62E187E20E94C60B60EDC5
:1017E000C11168ED80E30E94C60B60E481E30E94B2
:1017F000C60B61EC88E20E94C60B64E989E20E9494
:10180000C60B61EC8AE2CF910C94C60B0F931F9329
:10181000CF93DF93C091F703C4310CF040C0CE30BA
:10182000CCF1C2310CF0C1E161E0809145039091AF
:1018300046030091B0031091B1032091B20330919F
:10184000B303DC01ED91FC910084F185E02D4C2F78
:101850000995813059F18230E1F1CF301CF5CC305F
:101860001CF1C067D7E014E06C2F89E00E94C60B22
:101870008DE40E94B40B887F682F612B8DE40E9459
:10188000C60B6D2F60628BE0DF91CF911F910F919E
:101890000C94C60BCC3F0CF4CCEF60E0C6CF62E0FA
:1018A000C4E1C3CFCEE0DDCFCC5FDCCF8091E803D5
:1018B000877011F4CB305CF0C2302CF4C2E0C2501F
:1018C000C068DBE0D0CFC231D4F3C1E1F8CFCBE0C8
:1018D000F6CFD0E117E0CFE8C7CFAF92BF92CF925B
:1018E000DF92EF92FF920F931F93CF93DF9380913C
:1018F000B0039091B103A091B203B091B3039C01E6
:10190000AD0160E070E080E090E003E10E94E62B32
:10191000A12CE8E4BE2EF8EECF2EDD24D394E12CEA
:10192000F12C00E010E00E94522BC22FB32E6A016E
:101930007B01182FD92F00E10E94012C622F86E035
:101940000E94C60B2C2F3B2DA601B701812F9D2F86
:1019500008E00E94012C622F87E00E94C60B6C2FCA
:1019600088E0DF91CF911F910F91FF90EF90DF9072
:10197000CF90BF90AF900C94C60B1F93CF93DF9383
:101980006091E8037091E903162F1770CB0133E0E3
:10199000969587953A95E1F7D82FD370D13059F0C5
:1019A00008F466C0D23009F465C066EC71E08AE9DB
:1019B00091E00E940306C0E8CB0125E0969587954B
:1019C0002A95E1F78370823009F458C0833009F416
:1019D00057C0813009F450C0C260672F7727611566
:1019E000710521F0C16082E20E94C60B6C2F8DE16F
:1019F0000E94C60B6091F403637060598FEF810FF2
:101A00008295807F680F8091E80387FF64608EE194
:101A10000E94C60B8BEF810F823010F4DD2391F111
:101A2000163011F4D13071F164E086E20E94C60BE9
:101A3000C0E063E0D23081F48091B0039091B103B3
:101A4000A091B203B091B303CFE781349D4DAA4476
:101A5000BF4108F0C4E662E086E30E94C60BCC23D7
:101A600099F06C2F8AE3DF91CF911F910C94C60BF4
:101A7000C0E7A2CFC0E9A0CFC460AFCFC660ADCFF2
:101A8000C860ABCF6CE0D1CFDF91CF911F910895AB
:101A9000CF93DF93D82FC82FC77019F081E00E9431
:101AA000D9076D2F81E00E94C60BC11105C080E0EF
:101AB000DF91CF910C94D907DF91CF910895809158
:101AC000B0039091B103A091B203B091B3038134FC
:101AD0009D4DAA44BF4118F488E00C94480D80E065
:101AE000FCCF8091B0039091B103A091B203B0916B
:101AF000B30381349D4DAA44BF4118F488E80C9487
:101B0000480D80E8FCCFCF93C82F81E00E94B40B32
:101B1000887F8C2BCF910C94480DCF92DF92EF925F
:101B2000FF92CF93DF93D82F0E94710D81E00E9426
:101B3000B40B87FD06C06BE973E08AE991E00E946F
:101B4000030681E00E94830DD23009F07CC06AE078
:101B50008DE10E94C60B60E78EE10E94C60B63E236
:101B60008CE00E94C60B60E483E20E94C60B809169
:101B7000FD04882309F46CC083E30E94B40B682F32
:101B80006F7B83E30E94C60B8091E8039091E90389
:101B900023E0969587952A95E1F7C82FC37081E3D6
:101BA0000E94B40B8877682F6360C23008F056C07B
:101BB00081E30E94C60B60E48FE20E94C60B60E4E2
:101BC00080E30E94C60B6091F3038FE10E94C60B75
:101BD00064E389E30E94C60B6CE080E40E94C60BBC
:101BE0006FEF82E10E94C60BED2FF0E0E750FD4F52
:101BF0006491609581E10E94C60B80E00E94030819
:101C000060E08DE00E94C60B60E08FE00E94C60B92
:101C1000D11128C06091A8037091A9038091AA03F3
:101C20009091AB030E948F076B017C0186E00E94BC
:101C3000830DC701B601DF91CF91FF90EF90DF9048
:101C4000CF900C9484040E94BD0C0E946D0C87CF31
:101C500083E30E94B40B682F606493CF682F63689E
:101C600081E3AFCF85E0DF91CF91FF90EF90DF90E0
:101C7000CF900C94830DCF92DF92EF92FF92CF938F
:101C8000C82F81E00E94B40B877069E274E0C1F450
:101C90008091E803877009F060C0C13041F4109270
:101CA0007C0480919603909197030E94F8060E940D
:101CB0005F0D81E00E94B40B87FF06C062E074E014
:101CC0008AE991E00E94030681E00E94830D0E9450
:101CD0006D0C63E28CE00E94C60B6EE18DE00E9409
:101CE000C60B6BE082E10E94C60B62E183E10E94B9
:101CF000C60B6AEA8FE10E94C60B6FEF81E20E9479
:101D0000C60B81E00E94D90B68E380E40E94C60BF9
:101D100080E00E940308C11118C06091A80370916F
:101D2000A9038091AA039091AB030E948F076B01D6
:101D30007C0185E00E94830DC701B601CF91FF9021
:101D4000EF90DF90CF900C94840485E0CF91FF90CA
:101D5000EF90DF90CF900C94830D8C2FCF91FF905C
:101D6000EF90DF90CF900C948D0D8FEF9FEF9093BD
:101D7000CD038093CC039093CF038093CE039093B5
:101D8000D1038093D0039093D3038093D2038FEF3A
:101D900090E09093D5038093D403E8EDF3E08CE0DA
:101DA000DF011D928A95E9F780E690E09093E503C4
:101DB0008093E4038FEF8093F90308956F927F92ED
:101DC0008F929F92AF92BF92CF92DF92EF92FF924B
:101DD0000F931F93CF93DF93CDB7DEB760970FB606
:101DE000F894DEBF0FBECDBF7B018A01282F30E003
:101DF000277F2230310549F02430310509F4CBC06A
:101E0000232B09F09FC0D12C98C083FD32C081E103
:101E100093E00E943C0990E1692EFE0131966F012A
:101E200021E2822E23E0922E37E8732E0115110550
:101E300009F060C060911103709112038091130347
:101E4000909114030E94EE2A60960FB6F894DEBFBC
:101E50000FBECDBFDF91CF911F910F91FF90EF90FB
:101E6000DF90CF90BF90AF909F908F907F906F90BA
:101E70000895E1E1F3E080E1DF011D928A95E9F741
:101E8000CACF01151105E9F5E62FF0E0EF5EFC4F32
:101E900080818058808311E0D601E62D1D92EA955D
:101EA000E9F7C6010E943C090981C6010E946D0242
:101EB00007FF03C088898725888B112349F0198182
:101EC000C6010E946D0217FF03C088898725888B91
:101ED000F601D5018D915D019191119789278C9320
:101EE0008A149B04B1F710E000E081E193E00E94C6
:101EF0003C099CCF81E1A82E83E0B82ED701950143
:101F000060E0F90181919F019D91AF01415051091C
:101F10008927FA0180836F5F7D01015011096031CB
:101F200009F0AFCF0115110501F710E0B5CF8E0D07
:101F30009F1D0E943C09B0E1DB0E8D2D90E08017C3
:101F40009107A8F360E070E0CB017ECF80E1E1E192
:101F5000F3E0DE01119601900D928A95E1F7CE0132
:101F600001960E943C09FE0131969701205F3F4F88
:101F70009191D7018C9189278D937D010150110991
:101F8000A217B30719F00115110591F780912003ED
:101F90008F5F8093200301151105C1F6D3CF909177
:101FA0002603911106C06CE874E08AE991E00E9472
:101FB0000306903141F440E150E066E273E080E0D6
:101FC0000E94DE0E90E0E92FF0E0EA5DFC4F808198
:101FD0009F5F909326030895DF92EF92FF920F93F5
:101FE0001F93CF93DF936FE270E0009729F0813663
:101FF000910530F061E370E08DEC91E00E94030602
:10200000C091F903D0E0CF3F11F4CFEFDFEFECEC5C
:10201000F3E028ED33E0DF0132961C968D919C9120
:102020001D974D915C9184239523938782872E176A
:102030003F0789F766E070E088ED93E00E9426058F
:102040007C01892B09F08FC08CE0ECECF3E0A8ED6B
:10205000B3E001900D928A95E1F766E070E088EDBB
:1020600093E00E9426057C01009709F4DDC04197AA
:1020700008F479C010E000E0CF3FDC0751F1C13631
:10208000D1050CF070C09E012F70332781E090E0E5
:1020900002C0880F991F2A95E2F7FE0144E0F595EA
:1020A000E7954A95E1F7EE0FFF1FE852FC4F2081BC
:1020B00031818C01022313238095909582239323F1
:1020C000918380830115110509F44FC070E1E71A6F
:1020D000F1080E94CF0FD82E0E94CF0F9D2DB7017F
:1020E00024E0769567952A95E1F70E94932A34E0DB
:1020F000880F991F3A95E1F7E8EDF3E070E060E0B2
:10210000219131912115310559F1A9015695479534
:1021100045755575D901A41BB50BAD0143735373B8
:10212000B695A795B695A795A373B3734A0F5B1F92
:10213000DA01A07FB07F4F705F7042955295507F5B
:102140005427407F54274A0F5B1FDA01BB27452FD6
:1021500055274A0F5B1F8417950780F0841B950B4A
:10216000605F7F4FCDCF10E000E0CFEFDFEFB1CF6A
:10217000A901415051092423352340970097C1F705
:1021800044275527421B530B42235323CA0185750D
:10219000957521E030E0892B11F030E020E0CA0194
:1021A00083739373892B09F447C090E080E0820F1A
:1021B000931F9A012F703F70232B09F440C030E029
:1021C00020E0820F931F30E020E0411102C028E0A0
:1021D00030E0820F931F860F971FFC0144E0F695B5
:1021E000E7954A95E1F7EE0FFF1FE852FC4FAC016F
:1021F0004F70552721E030E0B90102C0660F771F0C
:102200004A95E2F7AB0120813181262735273183BA
:102210002083CF3FDC07B1F497FD06C080349105E1
:102220000CF4885F8093F903DF91CF911F910F9198
:10223000FF90EF90DF90089582E090E0B8CF24E027
:1022400030E0BFCF24E0D595C7952A95E1F7CC0FB4
:10225000DD1FC852DC4F28813981022B132B1983D3
:102260000883DACF8091BC039091BD03A091BE0397
:10227000B091BF03892B8A2B8B2B09F04BC0809127
:10228000EA039091EB031092FA038E7C977A909375
:10229000EB038093EA0310927904109200040E94E9
:1022A000B6058FEF8093F9038091E4039091E503E5
:1022B0000E94EC0F0E944C066093A4037093A50348
:1022C0008093A6039093A7038091EA039091EB0378
:1022D00093FF06C064ED70E08DEC91E00E94030670
:1022E0001092FE03E0917304EF3F91F0EF70F0E085
:1022F000EF51FD4FE491E093FD0384609093EB0375
:102300008093EA038AE194E20E94F80681E008954E
:10231000E3E1F1CF80E00895CF92DF92EF92FF9258
:10232000CF93C82F0E94CF0FF82E0E94CF0F9F2D62
:102330006C01853224EF920720F024E2C21A24EFC8
:10234000D20AF12CE12CCC2369F06C2F0E94872A51
:10235000292F30E0A4E2B4EF0E94F52AC60ED71E62
:10236000E81EF91EC701B601CF91FF90EF90DF90F4
:10237000CF900895CF92DF92EF92FF926B017C0194
:10238000842F442331F00E948C11C60ED71EE81E04
:10239000F91E8091FA038823A9F08091B4039091EB
:1023A000B503A091B603B091B703A7019601281B0E
:1023B000390B4A0B5B0BDA01C901181619061A060C
:1023C0001B068CF4C092B403D092B503E092B6031E
:1023D000F092B7038091EA039091EB0391609093A0
:1023E000EB038093EA03FF90EF90DF90CF90089586
:1023F000AF92BF92CF92DF92EF920F931F93CF9342
:10240000DF93DC011A141B04A4F590E1E1E1F3E091
:10241000EF01892F19928A95E9F7F1E0F0932003F3
:10242000F0931103E092160340931703509318039F
:102430006093190370931A0300931B0310931C03FA
:1024400020931D0330931E03FD01A1E6B3E001902C
:102450000D929A95E1F7A501B60184E0DF91CF9145
:102460001F910F91EF90DF90CF90BF90AF900C94A1
:10247000DE0EDF91CF911F910F91EF90DF90CF9003
:10248000BF90AF9008951F93CF93DF93CDB7DEB782
:102490002F970FB6F894DEBF0FBECDBF80E00E942D
:1024A000830D0E94FC058091920390919303A0916B
:1024B0009403B0919503892B8A2B8B2B09F047C08D
:1024C00081E095E060E973E00E94AD040E9470062F
:1024D0008FE0E1E8F3E0DE01119601900D928A951C
:1024E000E1F7E1E8F3E08EE791E0DF019C011D9266
:1024F00021503040E1F78FE0FE013196A1E8B3E0D2
:1025000001900D928A95E1F70E94CF0F182F0E943B
:10251000CF0F912F9093ED038093EC031092EB0378
:102520001092EA031092FF0380E8809371040E94E6
:10253000B60581E080936E042F960FB6F894DEBF47
:102540000FBECDBFDF91CF911F910C94B50E8FEFD1
:1025500094E0B8CF2F923F924F925F926F927F920A
:102560008F929F92AF92BF92CF92DF92EF92FF92A3
:102570000F931F93CF93DF93CDB7DEB76C970FB652
:10258000F894DEBF0FBECDBF998F888F3B011092AC
:102590003A04452B09F510923B04F12CE12CE6148A
:1025A000F704F4F0C7016C960FB6F894DEBF0FBEC7
:1025B000CDBFDF91CF911F910F91FF90EF90DF90F2
:1025C000CF90BF90AF909F908F907F906F905F90D3
:1025D0004F903F902F90089581E080933B04DDCF92
:1025E000C88CD98CCE0CDF1CF6012081223050F132
:1025F000422F4250550BFA014231510518F5EC5665
:10260000FD4FE4918E2F90E09D8B8C8B892B51F2A6
:10261000C3018E199F09EC89FD898E179F070CF461
:10262000C1CF2250283080F4E22FF0E0E65EFC4E6D
:102630000C94E82A25132D13F01479144D14241347
:10264000E2140115E0E0DECF3701EC89FD89EE0DE3
:10265000FF1D730137017F01A2CFD60107E01B8A5E
:102660001A8A2A893B892B5F3F4F49019C014A897D
:102670005B89241B350B253031050CF493C0119672
:102680002C91119712964D915C91139714963C9151
:1026900014973077E22FE295EF70303558F03035EF
:1026A00009F078C04115510509F47AC04427452B3B
:1026B00009F076C0E63030F4F0E0EE50FD4FE491E2
:1026C000EF3F09F40D7F2F70283038F4E22FF0E04F
:1026D000ED52FD4FE491E03809F40B7F15962C91F3
:1026E000233009F454C08CE0ECECF3E0DE011196E9
:1026F00001900D928A95E1F78091E4039091E503B2
:102700009B8F8A8F412C10E0073009F077C09F8A99
:102710008E8A160181E0412C10E0EE89FF89359701
:102720000CF469C0F101A280B38011814480F42DC2
:10273000F077F98BF035D9F5512C852DA0FE34C0FA
:102740000E942D065394B694A79428E05212F5CF18
:102750002091E4033091E5034E895F89455051098A
:102760005F8B4E8B55E0250E311C81E02115310524
:1027700009F480E0A1014C195D09481559056CF276
:10278000232BD9F1A12EA2948FE0A8223DC09B8AD1
:102790008A8A67CF303609F489CF303709F482CF7F
:1027A0000E7F88CF00E09FCF0E940606CBCF89899D
:1027B000803578F4805F8C8F5988FC8D5F1640F6E9
:1027C000852DA0FE15C00E94C4045394B694A7940E
:1027D000F4CF512C9989852D903639F40E94C40488
:1027E0005394E0E65E12F6CFE8CF0E94F404F8CFEF
:1027F0000E94F404EACF811101C006E0A12EA29448
:102800007FE0A722073041F48091E4039091E50333
:1028100007E0079780F405E08CE0FE013196ACEC10
:10282000B3E001900D928A95E1F72A8D3B8D3093AC
:10283000E5032093E403BB24B394D12CC12CC40141
:102840008C199D0905976CF0602F83E00E94A0050C
:10285000B82E35E0C30ED11CC814D90414F481116C
:10286000EECF073099F4842D8F709091FC0389137B
:102870008093FC031F7060E8183028F4E12FF0E02B
:10288000ED52FD4F64918A2D0E9458054A895B895B
:10289000E40EF51EBB2001F1D8CE2091F203022EEA
:1028A000000C330BC901029697FD03969595879509
:1028B00095958795182F1F734F970CF01FE1109374
:1028C0007004D0908F0300913A0486E00E94810545
:1028D000811104C000933A04F701BCCE8D2D0E94F3
:1028E00081058823B9F3812F0E948105882391F304
:1028F000ACCEC7010196E88DF98D8E0F9F1FFC01AC
:102900002081122F1F7030E044E0359527954A95BD
:10291000E1F7022F07700E94EE05272F382F492F6D
:102920005527A4E6B0E00E940B2B4B015C01F0E8B8
:102930008F1AF1EA9F0AF3E0AF0AFCE1BF0A21E037
:1029400082162AE5920622E6A20622E0B20618F0D6
:1029500060E070E0CB0130EC30937604163050F438
:10296000E12FF0E0EE50FD4FE491EF3F19F042EC23
:1029700040937604611571058105910529F0209138
:102980007604216020937604043028F420917604A4
:1029900024602093760420917604273C61F4109300
:1029A00075046093C8037093C9038093CA0390931E
:1029B000CB0300937404622F677085E00E94A0052A
:1029C000B82E68CFF60181818F7009F481E0809381
:1029D0006E04F2E0F093780488E00E948105F0CF65
:1029E000F60181818F708093FA030E944C066093F8
:1029F000B4037093B5038093B6039093B70384E058
:102A0000ECCFF60181818F738093730489E0E5CF69
:102A10002F923F924F925F926F927F928F929F92EE
:102A2000AF92BF92CF92DF92EF92FF920F931F93DC
:102A3000CF93DF93CDB7DEB728970FB6F894DEBFFC
:102A40000FBECDBF8C010E944C0697FF24C00E9490
:102A5000AF0887E092E00E945008F8013197E43116
:102A6000F10508F05EC3E95CFA4E0C94E82A4F15B4
:102A70006B156E1571157415771591187A157D15EE
:102A80008015F415F715FA15FD15001691180316A3
:102A90008B1872188E184AE00E946B08DACF83E513
:102AA00092E028960FB6F894DEBF0FBECDBFDF913F
:102AB000CF911F910F91FF90EF90DF90CF90BF903B
:102AC000AF909F908F907F906F905F904F903F90CE
:102AD0002F900C945D0883E492E0E3CF82E392E0D0
:102AE000E0CF80E292E0DDCF85E192E0DACF8BE0CB
:102AF00092E0D7CF8CEF91E0D4CF8BEE91E0D1CFA5
:102B00008BEB91E00E945D0880917A0487FF04C0FE
:102B10008EEA91E00E945D0880917C048823F1F1A7
:102B200084EA91E00E946A0360917C0470E090E086
:102B300080E04AE00E946B0880E991E00E946A030D
:102B400084E691E00E946A031A82198280917C04D3
:102B500029813A8182171306C9F0C4F0E0917B0401
:102B6000C9018F579C4FE80FF92FF11DE450FF4F1B
:102B7000608170E090E080E040E10E946B08498154
:102B80005A814F5F5F4F5A834983E0CF88E991E0D4
:102B90000E94500887E991E00E9450080E944C066C
:102BA000AB01BC0148595647664F7F4F20E930E2E0
:102BB00087E493E028960FB6F894DEBF0FBECDBF32
:102BC000DF91CF911F910F91FF90EF90DF90CF9009
:102BD000BF90AF909F908F907F906F905F904F903D
:102BE0003F902F900C94370786E591E05ACF8DE403
:102BF00091E057CF8FE391E054CF82E391E051CF42
:102C000084E291E04ECF89E191E00E945D08A090BE
:102C10007C04AA2009F466C2C090E803D090E903BE
:102C20000C2D07700A5F9601E3E036952795EA952B
:102C3000E1F72370C601F5E096958795FA95E1F7DF
:102C400083708090FD03E090C403F090C50351E0D1
:102C5000E51AF10815E0882339F016E0813021F0FB
:102C600017E0823009F018E0222349F07AEFB72EFE
:102C7000213039F054EFB52E9924939403C06DE7B9
:102C8000B62E912CC090B0037090B1036090B20347
:102C90005090B3030E944C061F92DF92FF92EF9276
:102CA0001F921F939F92BF921F928F921F920F931A
:102CB0001F92AF925F926F927F92CF929F938F936A
:102CC0007F936F938AE092E09F938F930E94352CBD
:102CD0001091FC030E944C061F921F939F938F93A9
:102CE0007F936F9387E592E09F938F930E94352C9B
:102CF0000FB6F894DEBF0FBECDBF83E191E00E9416
:102D00006A036091050470E090E080E04AE00E9470
:102D10006B088FEC90E00E946A03F12CE12C00E735
:102D200012E0809105048E151F04D1F0CCF0E091E3
:102D30007B04C7018F579C4FE80FF92FF11DEB570C
:102D4000FF4F80811F928F931F930F930E94352C0A
:102D50007FEFE71AF70A0F900F900F900F90E1CFD7
:102D600087E991E00E9450080E944C061F9222E0E1
:102D70002F939F938F937F936F9385E792E09F9319
:102D80008F930E94352C80EC90E00E946A03209182
:102D90007C042250330B0FB6F894DEBF0FBECDBFBC
:102DA000B901032E000C880B990B37FF2AC00E9433
:102DB000AF0888EA90E00E946A0342E0E42EF12C1A
:102DC00000E712E080917C048E151F04F1F0ECF016
:102DD000E0917B04C7018F579C4FE80FF92FF11D3D
:102DE000E450FF4F80811F928F931F930F930E9497
:102DF000352C9FEFE91AF90A0F900F900F900F9062
:102E0000E1CF4AE00E946B08D4CF87E991E00E94AD
:102E1000500820917C042250EDEBF4E0FA83E98322
:102E200090E080E0312C212C422F50E05E834D83D6
:102E30006D817E81261637060CF044C1E981FA8146
:102E40002191FA83E983022E000C330B6C014CE0D4
:102E5000D594C7944A95E1F7A92FBB27A7FDBA954A
:102E6000AC25BD253D0162267326F1E06F22772453
:102E70007C016DE0F594E7946A95E1F75C01AB2C79
:102E8000BB0CBB08A594AE24BF244901959487943C
:102E90008A249B24880C991C42E084229924862849
:102EA00097288C01110F000B110F102F001F2C0100
:102EB000452C550C55084594459440265126F9015A
:102EC000F595E795F595E795E425F525EE0FFF1FB8
:102ED000EE0FFF1FE470FF27E80DF91D592F551F56
:102EE0005527551F5F8318863C014BE07594679406
:102EF0004A95E1F7A301417055276F8178854627F0
:102F0000572723FB772770F97B831C826B817C8199
:102F10004627572763E0440F551F6A95E1F74E0F88
:102F20005F1FB901E4E075956795EA95E1F76C25B7
:102F30007D25F4E0660F771FFA95E1F7607177273A
:102F4000460F571FFD01EE25FF25B901689414F8BF
:102F5000759567951694E1F76E277F27E5E0660F74
:102F6000771FEA95E1F760727727640F751FA90153
:102F7000F6E055954795FA95E1F7F501E027F12739
:102F80004E275F27E6E0440F551FEA95E1F74074AE
:102F90005527640F751F2227330F221F3327A201E5
:102FA00041705527EF81F8854E275F272427352765
:102FB0003695322F222737952795260F371FB301D5
:102FC00068277927617077276E277F27762F6627F6
:102FD000620F731F4C0195948794C824D924DC2C6C
:102FE000CC24DD0CCC24F2E0DF226C0D7D1DFC0135
:102FF000F595E795F595E795EE25FF25FE2FEE274C
:10300000FF0FFF0FEE27F4706E0F7F1F9C0143E050
:10301000359527954A95E1F720273127322F22272A
:10302000330F330F330F22273870620F731FAC0139
:10303000E4E055954795EA95E1F7A427B527A170F7
:10304000BB272F813885A227B327BA2FAA27B2958D
:10305000B07F6A0F7B1F9C01A5E035952795AA9547
:10306000E1F72A253B25322F22273295330F307E78
:1030700022273072620F731F9C0116E03595279549
:103080001A95E1F74226532600E4409E502C442432
:103090001124442430E45322640D751D880F892FB8
:1030A000881F990B862597254F815885842795275A
:1030B0009927869597958827860F971F5FEF251A82
:1030C000350AB6CE9F938F939F938F9380EA92E0B9
:1030D0009F938F930E94352C0F900F900F900F901D
:1030E0000F900F9028960FB6F894DEBF0FBECDBF9D
:1030F000DF91CF911F910F91FF90EF90DF90CF90D4
:10310000BF90AF909F908F907F906F905F904F9007
:103110003F902F9008958AE990E0C3CC88E790E033
:10312000C0CC88E690E00E946A03B80190E080E09D
:103130004AE00E946B0887E991E028960FB6F89460
:10314000DEBF0FBECDBFDF91CF911F910F91FF90DA
:10315000EF90DF90CF90BF90AF909F908F907F9037
:103160006F905F904F903F902F900C945008CF92AB
:10317000DF92EF92FF92CF93DF93EC01C12CD12C21
:103180007601C3940C2E04C0CC0CDD1CEE1CFF1C7D
:103190000A94D2F7E3FC03C0CE010E940815D701C0
:1031A000C60188279472AA27BB27892B8A2B8B2BD1
:1031B00001F1E0918503F09186033097D1F02091E1
:1031C0007C0440917B04211102C0442391F0809142
:1031D0007A0450E060E084FF04C0DA01A458BB4FD9
:1031E0006C9130E043585B4F809187039091880346
:1031F0000995CC2484E0D822E822FF24CD28CE28CB
:10320000CF2819F1E0918903F0918A033097E9F012
:1032100010928A0310928903C231D10541F1809145
:103220007A0483FD24C09091040461E0992339F06D
:10323000082E000C990B692F661F6627661F70E029
:1032400080918B0390918C030995E0918103F0911B
:103250008203309771F0BE018091830390918403C3
:10326000DF91CF91FF90EF90DF90CF90099460E0D5
:10327000E6CFDF91CF91FF90EF90DF90CF90089550
:103280002F923F924F925F926F927F928F929F9276
:10329000AF92BF92CF92DF92EF92FF920F931F9364
:1032A000CF93DF93CDB7DEB7CB58D1090FB6F894E3
:1032B000DEBF0FBECDBF8091F0038111DBC681E080
:1032C0008093F0038091EA039091EB039C01217CB1
:1032D0003327232B81F44091BC035091BD036091AF
:1032E000BE037091BF03452B462B472B29F582FD6A
:1032F0002FC00E9432118091F00381508093F0031F
:103300008111E0CFC557DF4F0FB6F894DEBF0FBE77
:10331000CDBFDF91CF911F910F91FF90EF90DF9084
:10332000CF90BF90AF909F908F907F906F905F9065
:103330004F903F902F90089596FF0AC09F7B9093E7
:10334000EB038093EA038AE790E20E94F806D3CF6A
:103350000E944C066B017C010091EA031091EB0383
:10336000C8018C739927892B09F479C613FF58C1BA
:103370008091E4039091E503009711F00E94EC0F17
:10338000C092A403D092A503E092A603F092A703F3
:103390008091EA039091EB03977F9093EB038093E6
:1033A000EA03B701A6018091FA03811106C080915A
:1033B000EA039091EB0390FF12C08091B4039091C7
:1033C000B503A091B603B091B7034A015B01881A17
:1033D000990AAA0ABB0AB7FE02C0AC01BD0121E7E7
:1033E000C20E22E0D21EE11CF11CDB01CA018C19C5
:1033F0009D09AE09BF09B7FF1EC63091FE03CD5728
:10340000DF4F3883C358D04004721127012B09F4D1
:103410001FC18091EA031091000485FD16C110922E
:103420007D049091EC038091ED0390938E04809342
:103430008F0443E150E06DE774E08AE00E94DE0E05
:1034400060939304709392048093910490939004FA
:1034500087E180937C048091EC039091ED030196C9
:103460009093ED038093EC0346E35BE05093970366
:1034700040939603CD57DF4FE880C358D040EE2DE0
:10348000F0E0EE50FD4FE4918091FF0320E2829F37
:10349000C0011124EF798E2B9093E9038093E80308
:1034A000E092F5038091EA039091EB038F76967F8B
:1034B000806898609093EB038093EA03A091F903EE
:1034C000A03670F5B0E020E43DE043E050E00E941B
:1034D0000B2B8B019C01005A1A4C274F334E0036A0
:1034E0004FE9140740E224074CE1340708F07BC49D
:1034F000605A764A8340934E6093B0037093B10351
:103500008093B2039093B303E0917304EF3F09F407
:10351000E8C4EF70F0E0EF51FD4FE491E093F60363
:103520009091FD038091F60398170CF4892F8093F6
:10353000F70381E190E00E94B7181092A403109263
:10354000A5031092A6031092A70381E00E94B40B7A
:10355000877059F080E00E94830D0E944C06625CE7
:103560007F4F8F4F9F4F0E948F078090AC039090AA
:10357000AD03A090AE03B090AF03181419041A0461
:103580001B040CF0B3C481E00E948D0D8091B00348
:103590009091B103A091B203B091B30381349D4DDA
:1035A000AA44BF4108F49FC483E69FEFE0915F0304
:1035B000F091600327817C01E20EF11C27FDFA9453
:1035C0000E944C06615E7F4F8F4F9F4F0E948F0776
:1035D0000E944C0610E0860E971EA81EB91E8BE1B5
:1035E0000E94B40B181708F4182F0E944C06681993
:1035F00079098A099B0997FDF2CF80E00E94830D2B
:103600008091F803082E000C990BE10EF11CE816CE
:10361000F9060CF46BC4809196039091970395CEB4
:103620004091A4035091A5036091A6037091A70354
:10363000BACECD57DF4F8881C358D0400E94420B8D
:10364000CD57DF4F8883C358D040115090F7E7CE55
:103650008091C0039091C103A091C203B091C303B4
:1036600080389F4FAF4FBF4F18F08BEE90E26DCE7A
:103670008091790481110DC08091C4039091C5039C
:10368000A091C603B091C7038F3F9F4FAF4FBF4F6D
:1036900061F3E090EA03F090EB0378E1E722FF2486
:1036A00080E1E816F10409F4A1C1A090050480911D
:1036B0000304882309F49CC180913B04882309F406
:1036C00097C100913A04002309F492C110E0A801C7
:1036D0006CE374E085E894E00E94252C085F1F4F9E
:1036E00010923A0410923B0480917604882331F0C2
:1036F00086FF81C190E489278093760480917704C6
:10370000882331F086FF87C190E48927809377046E
:1037100080917804823009F08EC181E08093780432
:10372000093111050CF03EC380916D04882361F0CE
:103730008091EE039091EF0397FF04C090E080E04A
:103740000E94750510926D048A2C912C25E0820E42
:10375000911CF0E1EF16F10419F474E0872E912C1E
:10376000800E911E31E4831691040CF06FC191E03C
:1037700040E1E416F10409F490E0E091FE03E63044
:1037800008F069C1F0E0E552FD4FE491E815190435
:1037900008F408C380E480937D0480916B04409119
:1037A0007104482B2091EE033091EF0337FD55C192
:1037B00021523109203B324008F44FC120E488EF08
:1037C000800F842B822B809382044091BC03309124
:1037D000BD032091BE038091BF0340937E043093CC
:1037E0007F04209380048093810480917904811167
:1037F00018C020910104211114C04091C4035091BC
:10380000C5036091C6037091C7034F5F5F4F6F4F51
:103810007F4F4093C4035093C5036093C6037093D6
:10382000C7032091C4033091C5032150310920936F
:1038300083043093840410926B049923D9F19091FE
:103840000404992309F40BC190E890937D0481113D
:1038500003C081E080937904F801E358FB4F809125
:1038600003048083C80182589B4F6C01B12CA501D1
:1038700066E074E00E94252C0091C4031091C503FA
:103880002091C6033091C703015011092109310964
:103890004091BC035091BD036091BE037091BF0382
:1038A000809103048111E8C08BE494E0F12CE12CB9
:1038B0000E94F8118091C4039091C503A091C603A2
:1038C000B091C7030197A109B1095091BC03409180
:1038D000BD033091BE032091BF03E1E1F3E060E15D
:1038E000E62E1192EA94E9F769E4609311031092CD
:1038F0001603840104501109009320035093170309
:10390000409318033093190320931A0380931B03E9
:1039100090931C03A0931D03B0931E03EBE4F4E00B
:10392000A1E6B3E080E101900D928A95E1F7A8014C
:103930006DE774E082E00E94DE0EF801E358FB4F71
:103940006383728381839083C82C80927C042DE7EB
:1039500034E0CA57DF4F39832883C658D040F90175
:1039600090E080E0881599050CF489C04DE754E09B
:10397000C857DF4F59834883C858D04090E080E053
:10398000712C612C681479040CF47DC099831A821F
:1039900099279C838B83FE013596ADE7B4E090E0D8
:1039A00080E02D9130E0219331930196881599059F
:1039B000C4F3A401440F551F70E060E08DE794E06C
:1039C0000E942E2CC394C394C0927C04FE013196B5
:1039D00090E080E0D12C8C159D050CF4D2C1EBE178
:1039E000FBE0F0939703E093960344CDA12C64CEC3
:1039F00008E010E075CE98012F573C4FF901E450D4
:103A0000FF4F95E0908323503F4F8770D9018C93EF
:103A10000E5F1F4F73CE98012F573C4FF901E450B2
:103A2000FF4F9AE0908323503F4F8370F9018083CA
:103A30000E5F1F4F6DCE882309F472CEF801E35854
:103A4000FB4F88E080830F5F1F4F6ACE480154E030
:103A5000850E911C91CEE0E099CE20E0B0CE809111
:103A6000FC03882309F4F8CE809101048111F4CE7F
:103A700081E080930104F0CE8BE594E017CF219193
:103A800027AF01966FCFC857DF4FA881B981C858BB
:103A9000D040DD90C857DF4FB983A883C858D040C5
:103AA0008C0100E11002012D110B1124292F332765
:103AB00027FD3A95F901E027F127CC57DF4FF9832D
:103AC000E883C458D0406D2D0D2C000C770B6E2769
:103AD0007F279B0121703327DC01A8E0BA02A12DCA
:103AE000BB0B1124AC01452F550F550B45957A01A1
:103AF000EA26FB26CF57DF4FF982E882C158D04033
:103B00004D2D4595042E000C550B4E255F25440F79
:103B1000551F42705527242B352BFC01FF0FEE0B50
:103B2000FF0FFE2FEE1F1C01232C330C33082594AE
:103B300025942E263F264D2D45954595042E000CA7
:103B4000550B42255325440F551F440F551F4470F4
:103B50005527420F531FBC016627770F661F772733
:103B60002C013BE0559447943A95E1F7D3FAFF24B2
:103B7000F0F8C657DF4FF882CA58D040C557DF4F1C
:103B80001882CB58D040920121703327262737273F
:103B9000C657DF4FE880F980CA58D0402E253F2510
:103BA000220F331F220F331F220F331F420F531FC9
:103BB0002D2D2595259525952595022E000C330B49
:103BC0002027312722953295307F3227207F3227D8
:103BD00020713327240F351F4D2D4595459545956B
:103BE00045954595042E000C550BCC57DF4FE880CA
:103BF000F980C458D040EA26FB264E255F256894FC
:103C000014F8440F551F1694E1F740725527240FFE
:103C1000351FCF57DF4F48815981C158D0404E27BB
:103C20005F27ED2CE6FAEE0CEE08E0F80E2C000C07
:103C3000FF084E255F25689415F8440F551F16940C
:103C4000E1F740745527240F351F510141E0A422AC
:103C5000BB24A626B726DD1CDD24DD1CAD24B694CE
:103C6000BA2CAA24B794A794A20EB31E92012827B7
:103C700039272170332726273727322F22272A0D6D
:103C80003B1DAC015595479504271527102F00279C
:103C9000110F00271270200F311F7C01F594E7945B
:103CA000F594E794EA26FB26FE2CEE24FF0CFF0C8D
:103CB000EE2454E0F5222E0D3F1D5C01B3E0B594D7
:103CC000A794BA95E1F7AE26BF26BA2CAA24BB0C5E
:103CD000BB0CBB0CAA24A8E0BA222A0D3B1DAC01E8
:103CE00004E0559547950A95E1F7CC57DF4FE881F9
:103CF000F981C458D0404E275F2741705527462789
:103D00005727542F44275295507F240F351FAC015D
:103D1000F5E055954795FA95E1F7CF57DF4FE880E5
:103D2000F980C158D0404E255F25542F4427529525
:103D3000550F507E44275072240F351FDC0116E0CA
:103D4000B595A7951A95E1F7A225B325B0E4AB9FE9
:103D5000B02DAA271124AA27B0742A0F3B1F880F61
:103D6000892F881F990B84259525862797279927C2
:103D7000869597958827820F931F2FEF621A720AF4
:103D800001CE20813296CA57DF4FA881B981C6582B
:103D9000D0402D93CA57DF4FB983A883C658D0406F
:103DA000019619CE88E080937A04809104048111F1
:103DB00004C080917904882319F0F8E4F0937A0420
:103DC0008091EA039091EB0387769E7F9093EB03BB
:103DD0008093EA0310927C0410927B048AE090E0C6
:103DE0000E94B71888CA003659E0150759E325071D
:103DF0005CE1350728F4605A70418C41934E7CCBCE
:103E00000036A3E71A07A1E52A07ACE13A0728F430
:103E1000605A7A478443934E6FCB0036BDED1B0743
:103E2000B9E62B07BCE13B0728F4605A744E8C447A
:103E3000934E62CB0036E7E41E07E2E82E07ECE182
:103E40003E0728F4605A7E448546934E55CB003693
:103E5000F1EB1F07FAE92F07FCE13F0728F4605A4E
:103E6000784B8D47934E48CB00364BE1140743EB1C
:103E700024074CE1340728F4605A72428649934E75
:103E80003BCB003655E815075BEC25075CE13507B1
:103E900028F4605A7C488E4A934E2ECB0036AFEE03
:103EA0001A07A3EE2A07ACE13A0728F4605A764FC6
:103EB000864C934E21CB0036B9E51B07BCEF2B0790
:103EC000BCE13B0728F4605A70468F4D934E14CBEB
:103ED0000093B0031093B1032093B2033093B30364
:103EE00013CBE3E11BCB8CE59FEF60CB8091E80324
:103EF000877009F06AC00E945F0D81E00E94830D07
:103F000080E00E94D90B60E085E20E94C60B65E06C
:103F100086E20E94C60B0E946D0C0E94060C69E2AC
:103F20008AE00E94C60B64E380E40E94C60B6091A5
:103F30007C046F5F82E30E94C60B60917C0480E08A
:103F40000E94C60B40917C0450E020E06DE774E0D5
:103F500080E80E944B0B81E00E9403086091A4035B
:103F60007091A5038091A6039091A7036115710537
:103F70008105910531F10E948F0761157105810559
:103F80009105F9F000919E0310919F032091A003E9
:103F90003091A103DC01CB01800F911FA21FB31F41
:103FA00080939E0390939F03A093A003B093A103DB
:103FB0008091A2039091A30301969093A303809311
:103FC000A20383E00E94830D96C90E94710D81E0D7
:103FD0000E94B40B87FD06C061E273E08AE991E0BC
:103FE0000E94030681E00E94830D0E94BD0C0E9486
:103FF0006D0C68E08AE00E94C60B0E94060C64E328
:1040000089E30E94C60B6CE780E40E94C60B6FEF49
:1040100082E10E94C60B67EF81E10E94C60B60E05F
:104020008EE00E94C60B60E08DE00E94C60B60919E
:104030007C0482E285CF8091EA0381FF05C04115AF
:1040400051056105710589F04157524061097109B7
:104050002EE830E280E993E00E9437074CC940E047
:1040600050E0BA0101FDF0CF46C941E050E060E008
:1040700070E0EACF82E08093F00344C98091EA03C4
:104080009091EB0383FF35C01092050482FF2CC092
:10409000877E9093EB038093EA0382E190E00E9495
:1040A000B7188091EA039091EB0385709927892BCB
:1040B00001F50E94FC058091920390919303A091D9
:1040C0009403B0919503892B8A2B8B2B79F481E093
:1040D00095E060E973E00E94AD040E94700680E004
:1040E0000E94830D0C9440198776D3CF8FEF94E014
:1040F000F0CF0895EAEEF3E0808191818E7D9F7B81
:10410000918380831092BC031092BD031092BE0372
:104110001092BF030E943E200C9432110C9440195F
:104120008091EA039091EB0387FF04C083E692E05D
:104130000C945D088C799927892BE1F43091FE036A
:104140004091E4035091E503832F90E047305105FF
:1041500088F0863078F4FC01E552FD4FE491EE23BF
:1041600049F0ED3390F5FC01ED50FD4FE4910196DF
:10417000EF3F61F78091EA039091EB039C012C796A
:104180003327232BF9F420E3E0E0F1E0A6E0B4E0EC
:1041900001900D922A95E1F71092040421E02093FA
:1041A000030420E3209305049C0128603093EB0373
:1041B0002093EA0382FD04C0109279041092010456
:1041C0000E9440198CE792E0B3CF381799F260E86B
:1041D0000E945805CFCF0E943E200E9443128CE0DF
:1041E00090E00E94B7180C943211CF938091EA03AB
:1041F0009091EB0387779093EB038093EA031092FF
:1042000001041092790420913A04222351F0309154
:104210003B04332309F466C080619093EB038093E1
:10422000EA030E944C066E5E75488F4F9F4F40E038
:104230000E94BA1180917A04877079F08091EA0324
:104240009091EB0394FF09C09F7E9093EB038093C2
:10425000EA038FE090E00E94B7188AE090E00E94A5
:10426000B7180E9440198091EE039091EF03819757
:10427000B4F18091FE030E94420BC82F2091E40309
:104280003091E5038091FE032730310508F4C82FF3
:104290008C1332C08091EE039091EF03813F9240E6
:1042A0004CF08091EA039091EB0390649093EB03C0
:1042B0008093EA0363E18C2F0E9458058091EA0302
:1042C0009091EB039C0130613093EB032093EA0360
:1042D0002817390721F08EE090E00E94B71881E09E
:1042E000CF910895109204041092030420930504C2
:1042F00010923A04886091CFCC23E1F290E080E004
:104300000E947505D7CF809179048823B1F1883058
:1043100020F58F5F8093790480FF07C08091FE03B2
:104320000E94420B60E80E9458056091A8037091BA
:10433000A9038091AA039091AB0343E00E94BA11B4
:104340008091EA039091EB038F779093EB03809336
:10435000EA030E94401981E0089580E680937A0480
:104360008091EE039091EF0301960E9475051092E3
:104370007C0410927B040C94F52080910104882326
:1043800079F09091FC03891758F48F5F80930104B2
:104390000E944C066E5E75488F4F9F4F40E0CECF17
:1043A00080E2DCCF2F923F924F925F926F927F928A
:1043B0008F929F92AF92BF92CF92DF92EF92FF9235
:1043C0000F931F93CF93DF9300D000D000D0CDB7D1
:1043D000DEB78091EA0387FFE5C1F0907C04F1101D
:1043E0001AC026960FB6F894DEBF0FBECDBFDF9180
:1043F000CF911F910F91FF90EF90DF90CF90BF90E2
:10440000AF909F908F907F906F905F904F903F9074
:104410002F900C9483212F2D30E03E832D832C3060
:10442000310544F410927C0480917A0480FFD9CF46
:1044300080E0B9C180917D04982F937099F7807EB8
:104440008983803611F0803A69F78EE794E00E9404
:10445000EE050091BC031091BD032091BE03309185
:10446000BF036017710782079307E1F6309182045A
:104470003B833F70E32EC32ED12C1601A8E02A0EF9
:10448000311C2D813E81245031093E832D8322151C
:10449000330544F288248A94982C221633064CF46F
:1044A000F101E358FB4F2081822E912CD601199601
:1044B0001D014090C0035090C1036090C2037090F2
:1044C000C3030091830410918404041915090F3F5C
:1044D000100709F078C021E0421A510861087108FC
:1044E00020E1E1E1F3E0DF01322F1D923A95E9F797
:1044F00039E43093110331E030931603ACEFAF0D84
:10450000AC83A093200360931703709318038093E8
:10451000190390931A0340921B0350921C0360925C
:104520001D0370921E03EBE4F4E0A1E6B3E00190FA
:104530000D922A95E1F74D815E816DE774E082E08E
:104540000E94DE0E9B01AC01ED81FE81E358FB4F22
:1045500060817181828193810E94EE2A261737073C
:104560004807590709F05ECF8091C0039091C103BD
:10457000A091C203B091C303481659066A067B0690
:1045800038F584159505A605B7050CF44BCF0197B2
:10459000A109B109481659066A067B0609F042CFFF
:1045A00080916C04882309F43DCFB981B03A09F0B9
:1045B00039CF80E280936B048114910409F40CC11B
:1045C00001E010E033C0400E511E611C711C88CF09
:1045D0000130104408F026CFD301C2010196A11D7D
:1045E000B11D8093C0039093C103A093C203B09305
:1045F000C303398180E2303A09F080E080936C0493
:1046000080936B0410E000E08114910441F4EE20EB
:1046100031F08D819E81281639060CF403CF8091EC
:104620006B04811103C09B8194FF09C08091EA0350
:104630009091EB0380619093EB038093EA031092D7
:10464000000410926D0480EC9FEF0E94750510929B
:10465000760410927804E091E803F091E9038E2F3C
:10466000877033E0F695E7953A95E1F7E370F0E06F
:10467000A3E08A9FE00DF11D1124E254FD4FE49167
:104680008091F103082E000C990B80549109ED588C
:10469000FF0B8E1B9F0B97FD80E080936F04A4019E
:1046A000B60185E894E00E94AA12012B09F0BACE67
:1046B000BFEF8B169B0699F12D813E81221933099C
:1046C0003E832D831216130654F5C10183589B4F68
:1046D0009A8389834091BC035091BD036091BE03CE
:1046E0007091BF038BE494E08114910411F08BE589
:1046F00094E0AD80BE80C980DA80EE24E394F12C92
:10470000930182010E94F8118114910441F450E058
:1047100040E06D817E8189819A810E94AA129091E8
:104720007904992349F0AB8120E8A5FF20E480912A
:104730007A04822B80937A0480917A0418141904E5
:104740003CF1806280937A0420927B0410927C0476
:10475000992321F080917A0486FD43CE26960FB6E8
:10476000F894DEBF0FBECDBFDF91CF911F910F91A7
:10477000FF90EF90DF90CF90BF90AF909F908F9081
:104780007F906F905F904F903F902F900C94F5200A
:10479000806180937A0420927B04FC80F218F0926E
:1047A0007C04D6CF81E026960FB6F894DEBF0FBE0C
:1047B000CDBFDF91CF911F910F91FF90EF90DF90D0
:1047C000CF90BF90AF909F908F907F906F905F90B1
:1047D0004F903F902F900895EE2009F4F1CE01E024
:1047E00010E017CF80917C0481110EC0A0916E045F
:1047F000B0E0119624E234EF0E94042B209175045E
:1048000042E256E20C94720A0E94D221882371F38C
:10481000089580917C0481110BC010927A040E944B
:104820004C06655E78448F4F9F4F42E00E94BA115C
:104830000C94D22180910204882341F00E94B50E8D
:1048400085E090E00E94B7180C94401981E08093B5
:104850000204F6CFCF92DF92EF92FF92CF93DF93D5
:104860008091EA039091EB0382FD22C085FD0DC08B
:104870008F779093EB038093EA0381E0DF91CF91F0
:10488000FF90EF90DF90CF9008958F759093EB039A
:104890008093EA03809100048A3018F48F5F80933C
:1048A000000489E090E00E94B7180E944019E5CF0B
:1048B0008F779093EB038093EA0384E190E00E946A
:1048C000B7188091FB038093F9038091E4039091E2
:1048D000E5030E94EC0F809179048F5F8093790447
:1048E000C82FC7701092FE038091EA039091EB03EA
:1048F000977F9093EB038093EA030E944C066B0131
:104900007C012091FE0380E190E002C0959587959F
:104910002A95E2F70E948C11C60ED71EE81EF91EDA
:10492000C092A403D092A503E092A603F092A7033D
:10493000C12CD12C7601C394CC2399F0C12CD12C5D
:104940007601CEE8D0E20E944C06AB01BC014C0DD2
:104950005D1D6E1D7F1D9E0180E993E00E9437075B
:104960008CCFC3EFD5E2EFCF80917A0480FF0C9417
:104970002A2480E00895CF92DF92EF92FF920F9366
:104980001F93CF93DF9380917A0480FF05C08091BD
:104990007C04882309F402C18091EA039091EB031F
:1049A00087FFE6C084729927892B51F4DF91CF915C
:1049B0001F910F91FF90EF90DF90CF900C94B42453
:1049C00010917C0411110AC0DF91CF911F910F91BA
:1049D000FF90EF90DF90CF900C942A24113111F0CA
:1049E000113221F780917D04837E8032F9F6C12F48
:1049F000D0E0AE01415051096EE774E080E00E94C2
:104A0000DE0E2497AE016DE774E08AE00E94DE0EB0
:104A10006B017C01C358DB4F688179818A819B815E
:104A20000E94EE2AC616D706E806F90609F0BECFA0
:104A300084E894E00E94EE056093BC037093BD038C
:104A40008093BE039093BF0381E894E00E94EE053B
:104A500099276093B8037093B9038093BA03909336
:104A6000BB031132D1F4809199048130B1F49AE8FA
:104A7000E92E94E0F92EC0E0D70111960C91119720
:104A80008C91102F082FD0E1DC0FDC1373C0B2E043
:104A9000EB0EF11CCD2FD03679F78091EC0390917D
:104AA000ED030197E3E5F4E028E0DF011D922A958C
:104AB000E9F721E020934B0426E0EEE7F4E0ACE4D4
:104AC000B4E001900D922A95E1F7809352049093FF
:104AD000530480E1EBE4F4E0ABE5B4E001900D9227
:104AE0008A95E1F782E080935B0440E150E06BE45B
:104AF00074E080E00E94DE0E40E150E06BE574E07F
:104B000080E00E94DE0E8091EA0385FF08C0C0911C
:104B100000048091FE03C150E0F58093FE03809174
:104B2000EA039091EB0389759D7F98609093EB0366
:104B30008093EA03109279040E94CA0580EC9FEFEB
:104B40000E94750580918804982F9F70909375043A
:104B50008295877080937404809189048823E1F0A2
:104B600080936E0486E090E00E94B7180E9440197E
:104B700081E015C0C03609F48ACF8C2F00FF06C033
:104B80000E94C404CF5F169507957FCF0E94F4045E
:104B9000F9CF0E94420BBFCF81E0E2CF80E0DF91EE
:104BA000CF911F910F91FF90EF90DF90CF900895DC
:104BB00080917C0481110AC0209175044AE256E27A
:104BC00068ED78EB85E090E00C94720A0E94BB24BB
:104BD000882391F3089580917C04811102C0109282
:104BE0007A040C94BB2488E090E00E94B7180C94DF
:104BF000401982E080937A04E0917504F0E0EE5071
:104C0000FD4FE491F0E0EF77E068F093E903E09383
:104C1000E8038091C8039091C903A091CA03B091A1
:104C2000CB038093B0039093B103A093B203B093EE
:104C3000B30310927C0483E190E00E94B71880E0F7
:104C40000C943B0E89E094E2909397038093960333
:104C50000C94F9258BEE95E290939703809396033D
:104C60000C94F92521E020937A04E8EEF3E020810A
:104C7000318120683183208310927C0490939703C4
:104C80008093960383E190E00E94B71880E00C9433
:104C90003B0E82EF93E20C94322688ED95E20C9461
:104CA00032261F920F920FB60F9211242F933F932B
:104CB0004F935F936F937F938F939F93AF93BF9324
:104CC000EF93FF9383E095E00E94FB02FF91EF9149
:104CD000BF91AF919F918F917F916F915F914F9114
:104CE0003F912F910F900FBE0F901F9018951F921C
:104CF0000F920FB60F9211242F938F939F93EF93E0
:104D0000FF93E0911305F09114058081E09119055E
:104D1000F0911A0582FD1BC0908180911C058F5F68
:104D20008F7320911D05821741F0E0911C05F0E082
:104D3000ED5FFA4F958F80931C05FF91EF919F9146
:104D40008F912F910F900FBE0F901F90189580811B
:104D5000F4CF1F920F920FB60F9211242F933F930F
:104D60008F939F93AF93BF9380914F039091500384
:104D7000A0915103B09152033091210323E0230FFE
:104D80002D3758F50196A11DB11D20932103809365
:104D90004F0390935003A0935103B093520380911B
:104DA000220390912303A0912403B091250301963F
:104DB000A11DB11D8093220390932303A09324038C
:104DC000B0932503BF91AF919F918F913F912F9108
:104DD0000F900FBE0F901F90189526E8230F029694
:104DE000A11DB11DD2CFE3E0F5E01382128288EE5F
:104DF00093E0A0E0B0E084839583A683B78383E447
:104E000091E09183808385EC90E09587848784ECA2
:104E100090E09787868780EC90E0918B808B81EC87
:104E200090E0938B828B82EC90E0958B848B86EC68
:104E300090E0978B868B118E128E138E148E85E5E3
:104E400091E09093A1058093A0050895CF93DF93FF
:104E5000CDB7DEB7A0970FB6F894DEBF0FBECDBFBB
:104E6000789484B5826084BD84B5816084BD85B545
:104E7000826085BD85B5816085BD80916E00816051
:104E800080936E00109281008091810082608093F7
:104E900081008091810081608093810080918000F9
:104EA0008160809380008091B10084608093B10024
:104EB0008091B00081608093B00080917A0084601E
:104EC00080937A0080917A00826080937A0080914A
:104ED0007A00816080937A0080917A008068809364
:104EE0007A001092C100E0911305F091140582E060
:104EF0008083E0910F05F09110051082E09111057B
:104F0000F091120580E1808310921B05E091170556
:104F1000F091180586E08083E0911505F091160563
:104F2000808180618083E0911505F0911605808174
:104F300088608083E0911505F09116058081806876
:104F40008083E0911505F091160580818F7D808327
:104F500064E670E080E090E00E9452048CE693E00A
:104F60000E945D08EFEFF4E084E0DF011D928A9576
:104F7000E9F781E391E09093600380935F0380EA17
:104F800095E0909346038093450361E08AE00E9498
:104F9000CE0361E08AE00E94FC0360E089E00E94A9
:104FA000FC0360E082E00E94FC0360E086E00E9477
:104FB000FC0360E087E00E94FC031FB7F894809137
:104FC0004403811127C0E2E4F3E08491EEE2F3E0D0
:104FD0009491E82FF0E0EE0FFF1FE65EFC4FA591E5
:104FE000B491EC91E92321F461E08AE00E94CE03C0
:104FF00061E08AE00E94FC038CB580618CBD8CB5B9
:1050000080648CBD61E08DE00E94FC0361E08BE078
:105010000E94FC03809144038F5F809344031FBF71
:10502000E6E3F3E08EE0DF011D928A95E9F784EF75
:1050300095E090933F0380933E0382E08093390391
:10504000F093A505E093A40581E00E94D9070091A3
:105050005F0310916003F80182818F3F49F060E0A7
:105060000E94CE0361E0D80112968C910E94FC034D
:105070000E944C06625C7F4F8F4F9F4F0E948F07AC
:10508000F80182818F3F19F060E00E94FC030E94CA
:105090004C06685C7E4F8F4F9F4F0E948F0780E0C9
:1050A0000E94830D82E40E94B40B823109F020C279
:1050B0008091450390914603DC01ED91FC910680BF
:1050C000F781E02D0995882341F08BE40E94B40B11
:1050D000682F60618BE40E94C60B82E00E948D0DF8
:1050E00081E00E94B40B87708530D1F706E213E0AF
:1050F000B5E3CB2EB3E0DB2EA8E0EA2EF12C8CE258
:105100000E94B40B8170B82E8CE20E94B40B8170A7
:10511000B816A9F3F8018181880F8B298183F1E00A
:10512000EF1AF10861F70F5F1F4FC016D10621F784
:1051300010E11093260380E00E94830D80E490E04C
:105140009093EB038093EA038FEF80938F030E9489
:10515000431240E150E06CE573E0CE0141960E94BD
:105160007E2A40E150E06CE473E0CE0101960E949B
:105170007E2A83E190E0A0E0B0E08093B8039093B2
:10518000B903A093BA03B093BB0385E19AEEAEEDE9
:10519000B0E08093BC039093BD03A093BE03B09393
:1051A000BF03FE013196ABE4B4E0812F01900D9274
:1051B0008A95E1F7FE017196ABE5B4E001900D929E
:1051C0001A95E1F78091EA039091EB0389759D7B35
:1051D00098609093EB038093EA030E94CA0590E0E5
:1051E00080E00E94750510E0812F0E9406061F5F77
:1051F0001830D1F710926D0480E89FEF9093EF0381
:105200008093EE03109275041092710465E082E0C1
:105210000E94580587E493E00E949020EFE0BE2EA4
:10522000F0E0CF2EF0E0DF2E2FB7F89480914F03FF
:1052300090915003A0915103B09152032FBF61E0B0
:1052400091FF60E08DE00E94CE0373E5E72E73E0EE
:10525000F72E10E000E0E0915F03F0916003E00FB3
:10526000F11F83818F3FC9F1D7014D905D906D9003
:105270007C90411451046104710479F1F7011082AA
:1052800011821282138281E00E94B40B87FFCEC08C
:1052900082E10E94B40B8093FE0483FF45C0F2E0DC
:1052A0004F1A5108610871084092A4035092A50357
:1052B0006092A6037092A7036FEF81E10E94C60B74
:1052C0006FEF82E10E94C60B80E00E94830D809107
:1052D0009603909197030E94F8060F5F1F4FE4E03A
:1052E000EE0EF11C0330110509F0B5CF0E94FC054C
:1052F00000910105109102050115110509F4C9C0BD
:10530000D8018D919C9190930205809301050E9494
:1053100070060115110509F4DFC0D8011696ED914C
:10532000FC91C8010995D8C086FF7BC0E091E803D5
:10533000F091E903CF0163E0969587956A95E1F7CF
:10534000837061F4E770F0E0EE0FFF1FEB58FC4F45
:1053500085919491481A590A610871084092A803EE
:105360005092A9036092AA037092AB038DE10E9450
:10537000B40B80FF45C082E20E94B40B80937C0492
:1053800080E10E94B40B682F8DE00E94C60B409113
:105390007C0450E021E06DE774E080E00E944B0B5C
:1053A00089E10E94B40B8093F2038AE10E94B40B5E
:1053B000282F30E04091B0035091B1036091B203C7
:1053C0007091B30341345D4D6A447F41D8F02D594B
:1053D00031099091F20397FF18C0A92FBB27A1951F
:1053E0000CF4B095CD019595879595958795281BDB
:1053F000390B203431059CF4205C2093F1035CCF01
:1054000083E1BACF245A3109E4CF2D39BFEF3B07EE
:105410009CF36B2D0E94872A280F311DEACF2FE7BE
:10542000ECCF87FF49CF10927C0446CF8EE30E94D9
:10543000B40B8FE30E94B40B83FF0CC04092A40313
:105440005092A5036092A6037092A70381E00E9488
:10545000830D3ACF82FF1AC04092A8035092A9034D
:105460006092AA037092AB0382E30E94B40B809314
:105470007C04482F50E021E06DE774E080E00E945A
:105480004B0B1092F2031092F103E0CF10927C04C8
:10549000DDCFE091FF04F09100053097D9F0428014
:1054A0005380648075800E944C06461A570A680A29
:1054B000790A141415041604170464F00091FF040B
:1054C00010910005F80180819181909300058093EF
:1054D000FF041DCF0E947006C114D10409F4A4CEAC
:1054E0000E94E702882309F49FCE0E9400009CCE10
:1054F00065E370E088ED92E00E940306FB01DC01A9
:1055000002C005900D9241505040D8F70895991B64
:1055100079E004C0991F961708F0961B881F7A95AA
:10552000C9F780950895AA1BBB1B51E107C0AA1FAC
:10553000BB1FA617B70710F0A61BB70B881F991F34
:105540005A95A9F780959095BC01CD010895A1E2E7
:105550001A2EAA1BBB1BFD010DC0AA1FBB1FEE1FED
:10556000FF1FA217B307E407F50720F0A21BB30B38
:10557000E40BF50B661F771F881F991F1A9469F7B4
:1055800060957095809590959B01AC01BD01CF0110
:105590000895052E97FB1EF400940E94E02A57FD03
:1055A00007D00E94A72A07FC03D04EF40C94E02AEF
:1055B00050954095309521953F4F4F4F5F4F08953F
:1055C00090958095709561957F4F8F4F9F4F08956F
:1055D000EE0FFF1F0590F491E02D0994692796279F
:1055E00069277827872778270895A29FB001B39F5E
:1055F000C001A39F700D811D1124911DB29F700DDC
:10560000811D1124911D08950E94F52AB7FF089568
:10561000821B930B08950E94F52AA59F900DB49FBD
:10562000900DA49F800D911D1124089597FB57FFA5
:105630000C94262B9F938F930E94262B6E1B7F0B1F
:10564000AF91BF918A0B9B0B0895E894DF93CF93A2
:10565000FC01DB010E94F52A7F936F93E9019A0117
:10566000AC01BF93AF933F932F93DF010E94F52AC4
:1056700026F46C1B7D0B820B930B9E01EB01FC014E
:105680000E941C2CAF91BF912F913F910E941C2C26
:10569000BE01CF01F9012F913F91CF91DF91089584
:1056A000689401C0E8948F929F92CF93DF930E94F9
:1056B0005E2BDF91CF919F908F900895882499243D
:1056C000F401E401B0E49F93AA279A158B049C048B
:1056D000ED05FE05CF05D007A10798F4AD2FDC2F0F
:1056E000CF2FFE2FE92D982C892E982F872F762FDC
:1056F000652F542F432F322F2227B85031F7BF91F7
:1057000027C01B2EBF91BB27220F331F441F551FDD
:10571000661F771F881F991F881C991CEE1FFF1F8B
:10572000CC1FDD1FAA1FBB1F8A149B04EC05FD05BF
:10573000CE05DF05A007B10748F08A189B08EC09E1
:10574000FD09CE09DF09A00BB10B21601A94E1F627
:105750002EF49401AF01BE01CD01000C08952F92EB
:105760003F924F925F926F927F928F929F92AF92F1
:10577000BF92CF92DF92EF92FF920F931F93CF933E
:10578000DF93CDB7DEB7CA1BDB0B0FB6F894DEBFD5
:105790000FBECDBF09942A88398848885F846E84FB
:1057A0007D848C849B84AA84B984C884DF80EE8045
:1057B000FD800C811B81AA81B981CE0FD11D0FB64E
:1057C000F894DEBF0FBECDBFED010895002E083066
:1057D00090F0982F872F762F652F542F432F322F3D
:1057E00022270850F4CF220F331F441F551F661F76
:1057F000771F881F991F0A95B2F7002D089597FD0E
:105800001094002E083098F00850232F342F452F85
:10581000562F672F782F892F912DF4CF15949795B8
:1058200087957795679557954795379527950A9565
:10583000AAF71124002D08950E94F52A460F571F3C
:10584000C81FD91F08F431960895FB01DC0102C07E
:1058500001900D9241505040D8F70895DC0101C0ED
:105860006D9341505040E0F70895B0E0A0E0EBE3C5
:10587000FCE20C94BF2BAE014B5F5F4FFA016191CC
:105880007191AF018091A4059091A5050E944B2CC8
:10589000E2E00C94DB2BABE0B0E0E1E5FCE20C9441
:1058A000AF2B7C013B018A01FC01178216828381A8
:1058B00081FFC8C1CE0101965C01F7019381F3011C
:1058C00093FD859193FF81913F01882309F453C192
:1058D000853239F493FD859193FF81913F018532A3
:1058E00029F4B70190E00E943B2EE7CF912C212CA8
:1058F000312CFFE1F31538F08B3211F190F4803246
:1059000009F1833229F137FC3CC020ED280F2A3001
:1059100050F536FE20C08AE0989E200D1124922E6C
:1059200006C08D3291F0803371F7689430F8F3013E
:1059300093FD859193FF81913F018111DACF21C0C1
:10594000689431F8689432F8F2CF689433F8EFCF66
:10595000689434F8ECCFEAE02E9E200D1124222E1C
:10596000689435F8E4CF8E3229F436FC04C168948B
:1059700036F8DDCF8C3619F4689437F8D8CF8836EE
:10598000B1F2982F9F7D95549330E0F08336A1F1CA
:105990008337C1F1833509F063C02801F2E04F0E6F
:1059A000511CF801C080D180692D70E036FC02C026
:1059B0006FEF7FEFC6010E94252E4C01689437F8E7
:1059C00082010AC00C5F1F4FFFE3F9838824839490
:1059D000912C6501E89437F833FE2DC0522C8114C8
:1059E000910471F5552009F468CFB70180E290E089
:1059F0000E943B2E5A94F6CFF801808189830E5F76
:105A00001F4FE4CF2801F2E04F0E511CF801C08077
:105A1000D180692D70E036FC02C06FEF7FEFC601C8
:105A20000E94302E4C018201D5CFB70180E290E078
:105A30000E943B2E2A942814190409F0B0F7CECF07
:105A4000F60137FC859137FE81916F01B70190E037
:105A50000E943B2E51105A94F1E08F1A9108BFCF4B
:105A6000843619F0893609F077C0F80137FE6BC02B
:105A700060817181828193810C5F1F4FF32DFF76CE
:105A80003F2E97FF09C090958095709561957F4F47
:105A90008F4F9F4F689437F82AE030E0A5010E94AD
:105AA0006B2EC82ECA188C2C432C36FE0CC0E894E2
:105AB00040F8C91440F434FE05C032FC03C0F32D95
:105AC000FE7E4F2E892C44FE95C0FE01EC0DF11D8B
:105AD0008081803309F087C0242D297E422E842DB9
