:100000000C941E020C9446020C9446020C94460278
:100010000C9446020C9446020C9446020C94460240
:100020000C9446020C9446020C9446020C94460230
:100030000C9446020C9446020C9446020C94460220
:100040000C9408270C9446020C94D6260C94B026E7
:100050000C9446020C9446020C9446020C94460200
:100060000C9446020C944602556E6B6E6F776E20B0
:100070006576656E743A200045565F4A4F494E5F7B
:100080005458434F4D504C4554453A206E6F204ACA
:100090006F696E4163636570740045565F545843E1
:1000A000414E43454C454400206279746573206F8E
:1000B00066205048595061796C6F61643A20004164
:1000C000637475616C2053656E74200020627974CE
:1000D0006573206F662046524D5061796C6F616484
:1000E0003A0041637475616C2053656E742000455D
:1000F000565F545853544152540045565F4C494E34
:100100004B5F414C4956450045565F4C494E4B5F4D
:10011000444541440045565F5258434F4D504C456D
:1001200054450045565F52455345540045565F4C73
:100130004F53545F5453594E430046524D506179CA
:100140006C6F61643A2000206279746573206F6679
:10015000207061796C6F61643A2000526563656953
:100160007665642000526563656976656420616325
:100170006B0045565F5458434F4D504C45544520F5
:1001800028696E636C756465732077616974696E44
:100190006720666F722052582077696E646F77739C
:1001A000290045565F52454A4F494E5F4641494CEA
:1001B00045440045565F4A4F494E5F4641494C45CC
:1001C000440045565F4A4F494E45440045565F4AF4
:1001D0004F494E494E470045565F424541434F4EB9
:1001E0005F545241434B45440045565F42454143AD
:1001F0004F4E5F4D49535345440045565F4245417C
:10020000434F4E5F464F554E440045565F53434162
:100210004E5F54494D454F5554004F505F5458520E
:100220005850454E442C206E6F742073656E64697F
:100230006E67005061636B657420717565756564E8
:10024000000000000023002600290003050205012C
:100250000602020500000600000105040400040077
:1002600000000200000001000080000000400000CB
:1002700000200000002020200E11140C0F12090C89
:100280000F06090C03060900030613110F0D0B09D5
:10029000070540404080EBEB080A0C0D0E101214CD
:1002A00015181A1B1D1E2124FF060504030201FF59
:1002B000C0400000000000250028002B00000000C6
:1002C0000800020100000304070000000000000015
:1002D0000000000000240027002A0001020408108A
:1002E00020408001020408102001020408102004AC
:1002F00004040404040404020202020202030303CD
:1003000003030343579EA99CF9256204D4778F63A6
:10031000A61C0CE9B53B908577E0CF4A7DBE490D20
:1003200040B0455374617274696E6700000000004C
:100330006700CC00B80154039D07637C777BF26BA8
:100340006FC53001672BFED7AB76CA82C97DFA59DB
:1003500047F0ADD4A2AF9CA472C0B7FD9326363F40
:10036000F7CC34A5E5F171D8311504C723C318962D
:10037000059A071280E2EB27B27509832C1A1B6ECF
:100380005AA0523BD6B329E32F8453D100ED20FC71
:10039000B15B6ACBBE394A4C58CFD0EFAAFB434D74
:1003A000338545F9027F503C9FA851A3408F929D11
:1003B00038F5BCB6DA2110FFF3D2CD0C13EC5F9701
:1003C0004417C4A77E3D645D197360814FDC222A07
:1003D000908846EEB814DE5E0BDBE0323A0A49063E
:1003E000245CC2D3AC629195E479E7C8376D8DD5B2
:1003F0004EA96C56F4EA657AAE08BA78252E1CA68A
:10040000B4C6E8DD741F4BBD8B8A703EB5664803E9
:10041000F60E613557B986C11D9EE1F8981169D96C
:100420008E949B1E87E9CE5528DF8CA1890DBFE6EF
:10043000426841992D0FB054BB16522711241FBE9C
:10044000CFEFD8E0DEBFCDBF26E0A0EAB3E001C029
:100450001D92AC33B207E1F713E0A0E0B1E0E2E6B1
:10046000FEE502C005900D92A03AB107D9F712E05F
:10047000CEE1D2E004C02197FE010E94472BCD318E
:10048000D107C9F70E9485270C942F2F0C940000E8
:10049000FC0120E1215008F4089580E021118181C0
:1004A0009191990F87FD9160DF0111979C93F2CF95
:1004B000AF92BF92CF92DF92EF92FF920F931F9372
:1004C000CF93DF936C017B018B01040F151FEB01B0
:1004D0005E01AE18BF08C017D10759F06991D60167
:1004E000ED91FC910190F081E02DC6010995892BD9
:1004F00079F7C501DF91CF911F910F91FF90EF9098
:10050000DF90CF90BF90AF900895FC01538D448D44
:10051000252F30E0842F90E0821B930B541710F0AE
:10052000CF96089501970895FC01918D828D9817BB
:1005300061F0A28DAE0FBF2FB11D5D968C91928D93
:100540009F5F9F73928F90E008958FEF9FEF0895C4
:10055000FC01918D828D981731F0828DE80FF11D8D
:10056000858D90E008958FEF9FEF0895FC01918DA8
:10057000228D892F90E0805C9F4F821B91098F73A1
:100580009927089587E995E00E94B60221E0892B1A
:1005900009F420E0822F089580E090E0892B29F073
:1005A0000E94C20281110C9400000895FC01A48DE8
:1005B000A80FB92FB11DA35ABF4F2C91848D90E085
:1005C00001968F739927848FA689B7892C93A08968
:1005D000B1898C91837080648C93938D848D9813F2
:1005E00006C00288F389E02D80818F7D8083089585
:1005F000EF92FF920F931F93CF93DF93EC0181E073
:10060000888F9B8D8C8D98131AC0E889F989808119
:1006100085FF15C09FB7F894EE89FF896083E8894C
:10062000F98980818370806480839FBF81E090E03E
:10063000DF91CF911F910F91FF90EF900895F62ECB
:100640000B8D10E00F5F1F4F0F731127E02E8C8D65
:100650008E110CC00FB607FCFACFE889F9898081AA
:1006600085FFF5CFCE010E94D602F1CFEB8DEC0FC6
:10067000FD2FF11DE35AFF4FF0829FB7F8940B8FC7
:10068000EA89FB8980818062CFCF0F931F93CF933C
:10069000DF938C01D0E0C0E0F801EC0FFD1F649106
:1006A000662341F087E995E00E94F802892B11F05A
:1006B0002196F2CFCE01DF91CF911F910F91089536
:1006C000CF93DF93EC01888D8823B9F0AA89BB8989
:1006D000E889F9898C9185FD03C0808186FD0DC074
:1006E0000FB607FCF7CF8C9185FFF2CF808185FF95
:1006F000EDCFCE010E94D602E9CFDF91CF910895D0
:10070000833081F028F4813099F08230A9F0089587
:100710008730A9F08830C9F08430B1F4809180002E
:100720008F7D03C0809180008F7780938000089533
:1007300084B58F7784BD089584B58F7DFBCF80917C
:10074000B0008F778093B00008958091B0008F7DC6
:10075000F9CF1F93CF93DF93282F30E0F901E354B3
:10076000FD4F8491F901E552FD4FD491F901E1511A
:10077000FD4FC491CC23A9F0162F81110E94800354
:10078000EC2FF0E0EE0FFF1FED54FD4FA591B4915B
:100790008FB7F894EC91111108C0D095DE23DC934B
:1007A0008FBFDF91CF911F910895DE2BF8CFCF93AC
:1007B000DF9390E0FC01E552FD4F249181519D4F64
:1007C000FC0184918823D1F090E0880F991FFC01EF
:1007D000EF52FD4FA591B491FC01ED54FD4FC59131
:1007E000D49161110EC09FB7F8948C91E22FE095DF
:1007F0008E238C932881E223E8839FBFDF91CF91E2
:1008000008958FB7F894EC91E22BEC938FBFF6CF5D
:100810003FB7F8948091B6039091B703A091B803C5
:10082000B091B90326B5A89B05C02F3F19F00196DA
:10083000A11DB11D3FBFBA2FA92F982F8827BC013A
:10084000CD01620F711D811D911D42E0660F771F62
:10085000881F991F4A95D1F708958F929F92AF9262
:10086000BF92CF92DF92EF92FF924B015C010E9408
:1008700008046B017C010E9408046C197D098E0933
:100880009F09683E734081059105A8F321E0821A13
:100890009108A108B10888EEC80E83E0D81EE11CBB
:1008A000F11C81149104A104B10429F7FF90EF9089
:1008B000DF90CF90BF90AF909F908F9008950F934F
:1008C0001F936115710581059105F9F000912C04C4
:1008D00010912D0420912E0430912F04DC01CB01C6
:1008E000800F911FA21FB31F80932C0490932D049F
:1008F000A0932E04B0932F04809130049091310482
:10090000019690933104809330041F910F910895C4
:10091000FC01208131812115310519F490E080E03E
:1009200008952617370749F4FB0120813181FC0126
:100930003183208381E090E00895C901E9CF8036BA
:1009400060F5282F22952F7030E0220F331FF90118
:10095000E05AFB4F408151818F7061E070E002C02E
:10096000660F771F8A95E2F7CA0186239723892BA2
:1009700091F4809178049091790401969093790490
:100980008093780481E0205A3B4F462B572BF90186
:1009900051834083089580E0F6CF80E0089580364B
:1009A00070F5282F22952F7030E0220F331FF901A8
:1009B000E05AFB4F608171818F7041E050E002C0CE
:1009C000440F551F8A95E2F7CA0186239723892B86
:1009D000A1F0809178049091790401979093790423
:1009E0008093780481E0205A3B4F409550954623F0
:1009F0005723F90151834083089580E0F4CF80E0CC
:100A00000895FC0190E080E06115710509F40895F6
:100A100021913191A9015695479545755575241B2E
:100A2000350BA90143735373369527953695279552
:100A300023733373240F351FA901407F507F2F701C
:100A40003F70A4E0220F331FAA95E1F7240F351F52
:100A5000A9015527232F3327240F351F820F931FFA
:100A600061507109D1CF982F6038C1F08091910405
:100A70006817A1F06093910481E0209192042917F6
:100A800061F09093920480917E0490917F0498602D
:100A900090937F0480937E0481E0089580E0EDCF01
:100AA000209182043091830420383F4F21F09093AD
:100AB0008304809382040895982F8091CF04E0915D
:100AC000CE04882361F0EF30A0F481E08E0F809394
:100AD000CE04F0E0E053FB4F908381E00895E433CF
:100AE00048F481E08E0F8093CE04F0E0E656FB4F91
:100AF000F3CF80E00895CF93DF93C62FD091CE043B
:100B00000E945C05811106C0D093CE0480E0DF9185
:100B1000CF9108958C2F0E945C058823A9F381E072
:100B2000F6CF109208051092090580E294E4AEE138
:100B3000BEE180935C0490935D04A0935E04B09347
:100B40005F048FEF80930705089510925804109268
:100B5000590410925A0410925B041092540410929B
:100B60005504109256041092570410929404109257
:100B70000105109200051092FF041092900410924B
:100B8000950410920A0510920C05109206050C941B
:100B90009105FC0160817181828193810895682FA4
:100BA00087E995E00E94F80290E080E00895F894CB
:100BB0008091A4038F5F8093A40308950E94D705BA
:100BC000FFCFEF92FF921F93CF93DF938C3030F0E3
:100BD00067EA70E08BE491E00E94DE05880F880FE1
:100BE000880F98E0980FC82FD0E010E0E92EF12C84
:100BF000CE15DF053CF0812FDF91CF911F91FF9043
:100C0000EF9008958C2F0E94CF04182B2196F0CFDF
:100C1000EF92FF921F93CF93DF93880F880F880F77
:100C200098E0980FC82FD0E010E0E92EF12CCE15F7
:100C3000DF053CF0812FDF91CF911F91FF90EF9066
:100C400008958C2F0E949F04182B2196F0CF0F93AC
:100C50001F930E940804AB01BC012091A003DC019A
:100C6000CA013CE1B695A795979587953A95D1F736
:100C700082278870820F8093A003E4E076956795C1
:100C800057954795EA95D1F79B01382BC901BA01D1
:100C90001F910F910895AF92BF92CF92DF92EF9282
:100CA000FF920F931F93CF93DF938091A403815002
:100CB0008093A403811169C0789401EA13E0D0E025
:100CC000C0E0BB24B394E091F303F091F403EC0F84
:100CD000FD1F23812F3F09F451C0F801D080ED2C76
:100CE000F12C30E0F901E354FD4F8491F901E55214
:100CF000FD4FC490F901E151FD4FA490AA2009F4E1
:100D00004FC081110E948003EA2DF0E0EE0FFF1F1B
:100D1000EF5BFD4FA591B491EC91CE2231E020E044
:100D200009F430E0832F922FE816F90639F1DB241D
:100D3000F801D082DD2011F1CE01880F991F880FB4
:100D4000991F9C0129513C4F7901F90180819181C2
:100D5000A281B381892B8A2B8B2B81F40E942706D9
:100D6000611571058105910521F461E070E080E075
:100D700090E0F701608371838283938321960F5FF4
:100D80001F4FC330D10509F09ECFDF91CF911F9146
:100D90000F91FF90EF90DF90CF90BF90AF900895AC
:100DA00090E080E0C1CFCF93DF93EC010E94D705A4
:100DB0008091260490912704A0912804B0912904E1
:100DC000892B8A2B8B2B31F585E995E064E274E061
:100DD0000E94880410922504109224041092260484
:100DE000109227041092280410922904D0932B0407
:100DF000C0932A04E0919505F0919605A5E9B5E028
:100E0000309759F484E294E08D939C93DF91CF91D5
:100E10000C944B0683E995E0D9CFDF010190F08176
:100E2000E02DEECFCF92DF92EF92FF920F931F93C0
:100E3000CF93DF93EC016A017B018901C114D104D6
:100E4000E104F10421F4C12CD12C7601C3940E9459
:100E5000D7058A819B81AC81BD81892B8A2B8B2B05
:100E600089F585E995E0BE010E94880419821882FF
:100E7000CA82DB82EC82FD821F830E83E0919305A0
:100E8000F091940523E935E0309779F082819381E0
:100E9000A481B5818C199D09AE09BF0918161906E0
:100EA0001A061B0694F4F983E883F901D183C08301
:100EB000DF91CF911F910F91FF90EF90DF90CF9036
:100EC0000C944B0683E995E0CECF9F010190F08111
:100ED000E02DDACFCF92DF92EF92FF926B017C018F
:100EE0000E942706A7019601261B370B480B590BBA
:100EF000DA01C901B7FF0CC066277727CB01621B57
:100F0000730B840B950BFF90EF90DF90CF900895BB
:100F1000833332E09307A105B1058CF068E070E0FF
:100F200080E090E00E942D040E942706A701960110
:100F3000261B370B480B590BDA01C901E9CF1816EC
:100F400019061A061B0664F424E0880F991F2A95D7
:100F5000E1F7880F991F880F991F05970197F1F7FF
:100F600060E070E0CB01CFCFCF92DF92EF92FF92A3
:100F7000A091D903B091DA03682F6170ED91FC91D3
:100F800011970190F081E02DCD0109956B017C0155
:100F9000C114D104E104F10461F00E9427066C0D34
:100FA0007D1D8E1D9F1DFF90EF90DF90CF900C94C4
:100FB0006A07FF90EF90DF90CF900895982FE0910F
:100FC000F303F091F40381818F3F39F061E02681D2
:100FD000291301C060E00C94A903089581E00895ED
:100FE00080E00895089560E070E0CB010895E5E0A9
:100FF000F4E084819581948396819583978196838B
:101000008783808592859087828781859385918764
:101010008387878596859787958596879485958715
:1010200084870895CF9325E034E0BC01605F7F4F53
:10103000DC01F90140E0CD9150815C2750834F5F86
:1010400034964430C1F72F5F3F4F049686179707B9
:1010500079F7CF910895FC0101900020E9F73197CD
:10106000AF01481B590BBC0187E995E00C9458026D
:1010700083E891E00C942B08CF93DF930E94450303
:10108000EC010E9438088C0F9D1FDF91CF910895CD
:101090008F929F92AF92BF920F931F93CF93DF9344
:1010A000CDB7DEB7A1970FB6F894DEBF0FBECDBFA8
:1010B00019A2423008F44AE08E010F5D1F4F842EC2
:1010C000912CB12CA12CA50194010E94062BE62F96
:1010D000B901CA01EA30F4F4E05DD801EE938D0164
:1010E000232B242B252B79F790E080E0109719F023
:1010F000CD010E942B08A1960FB6F894DEBF0FBE5B
:10110000CDBFDF91CF911F910F91BF90AF909F9076
:101110008F900895E95CE1CF0F931F93CF93DF93F6
:1011200000D000D0CDB7DEB7DB011C969C911C9798
:101130001E963C911E971F962C911F971D964C91C1
:101140001D9749833A832B839C83BE016B5F7F4F3E
:101150009E012F5F3F4FF90111919F01412F429551
:101160004F70F0E14F9FA0011124E12FEF70E40FC9
:10117000F52FF11DE65CFC4F9491A90141505109F6
:10118000FA0190832617370731F791E05BE1813050
:1011900039F0492F440F97FD45278150942FF7CF01
:1011A0008981982799838D0194E0FE013196A801E9
:1011B000DA018D91AD0161918627BD016150710900
:1011C000DB018C93BF0161507109DB018C93E21745
:1011D000F30771F791500C5F1F4F9111E6CF0F90FD
:1011E0000F900F900F90DF91CF911F910F91089565
:1011F0003F924F925F926F927F928F929F92AF92A7
:10120000BF92CF92DF92EF92FF920F931F93CF93F3
:10121000DF93CDB7DEB768970FB6F894DEBF0FBE89
:10122000CDBF8C0125E0C22E24E0D22EAC01405F60
:101230005F4FC6017801FC01D70120E03D9130836A
:101240002F5F34962430D1F724E0E20EF11C019692
:101250004E155F0581F7A5EFB3E0FE01319685E0FD
:1012600094E05E2E6F2E2D9121938A179B07D9F75C
:10127000852D962D0E9412084424439489E0A82EBF
:1012800084E0B82E4E0139E1830E911C9BE1392E8A
:1012900085E094E024E0DC01712CEC914E2F429526
:1012A0004F7030E1439FA0011124EF70E40FF52F40
:1012B000F11DE65CFC4FE491EC937394149654E0BA
:1012C0007512EBCF215001962111E5CF0E94F7074F
:1012D000E5E0F4E0CE014596BE016F5E7F4F9F01D1
:1012E000D9015C91DC015D93CD01452F440F57FD81
:1012F00083C0DB014C932C5F3F4F6F5F7F4F88169D
:10130000990671F78E89398938272F89688D9A89CE
:1013100092279627432F492741934D895B8994272C
:10132000952793839C898627842785278927878308
:101330002427292732273387AE16BF0659F6652D95
:10134000762D842D0E948C08852D962D0E941208E2
:101350004394BAE04B129CCF85E094E0DC0140E07E
:10136000EC912E2F22952F7050E1259F9001112492
:10137000EF70E20FF32FF11DE65CFC4FE491EC936C
:101380004F5F1496443061F77A9401967110E6CF5E
:101390000E94F707652D762D8AE00E948C08852D26
:1013A000962D0E941208D801F60180E090819D934D
:1013B0008F5F34968430D1F78FEFC81AD80A0C5F4C
:1013C0001F4FE016F10679F768960FB6F894DEBF66
:1013D0000FBECDBFDF91CF911F910F91FF90EF9086
:1013E000DF90CF90BF90AF909F908F907F906F9045
:1013F0005F904F903F90089543257BCFE091890403
:10140000A0918D04A770B0E020E43DE043E050E0FF
:101410000E946A2B60527F458C4C914E609344042D
:101420007093450480934604909347048091080587
:10143000E53090F4E81BE63008F0E5E0E09389043D
:10144000F0E0E755FD4FE491F0E0EF77E068F093CE
:101450007D04E0937C040895E5E0ECCF4F925F9229
:101460006F927F928F929F92AF92BF92CF92DF92B4
:10147000EF92FF920F93CF93DF9300D000D000D074
:10148000CDB7DEB76B017C015E834D83277084E0AE
:10149000289FF0011124E35AFD4F85919591A59164
:1014A000B49189839A83AB83BC8340903804509075
:1014B000390460903A0470903B046091210470916B
:1014C00022046115710531F0673091E0790710F061
:1014D00066E071E090E080E0A70196010E94752B24
:1014E00000E10E945E2C49015A0129813A814B8119
:1014F0005C81220F331F441F551FC501B401660FC5
:10150000771F881F991F620F731F841F951F6458D0
:101510007F4F8F4F9F4F0E94282B2A5F3F4F43E8FA
:101520005FEF6FEF7FEF481959096A097B092115B1
:10153000A4E03A07B8F18FEF93E09093880480938A
:101540008704C40ED51EE61EF71E4C0C5D1C6E1CD7
:101550007F1C40923C0450923D0460923E04709285
:101560003F04B301A20141575240610971092D8125
:101570003E8184E294E026960FB6F894DEBF0FBE5B
:10158000CDBFDF91CF910F91FF90EF90DF90CF9083
:10159000BF90AF909F908F907F906F905F904F9093
:1015A0000C9412073093880420938704CACFCF92FB
:1015B000DF92EF92FF922091020530E0A4E2B4EFB7
:1015C0000E94542B6B017C010E94FE09209189042A
:1015D00043E257E1C701B601FF90EF90DF90CF9053
:1015E0000C942E0A0E94FE092091890447E257E1DB
:1015F00064EB74EC84E090E00C942E0AE82FF0E0A9
:10160000E855FD4FE491EF3F09F0815008958F9226
:101610009F92AF92BF92DF92EF92FF920F931F9330
:10162000CF93DF93D82EEB018A01E22EE091F303F2
:10163000F091F403F08080849184A284B3848114B7
:101640009104A104B10439F420E4822E22E4922E04
:101650002FE0A22EB12C40E052E16AE770E080E07A
:1016600084169506A606B70640F4769567955795B5
:1016700047958F5F8630A1F787E0982F906A9695FF
:10168000809581709CBD8DBD60E08F2D0E94A90367
:10169000DEBC00000DB407FEFDCF8EB50C0F1D1F84
:1016A000C017D10771F080E0E11001C088818EBDC4
:1016B00000000DB407FEFDCF8EB5E11088832196A2
:1016C000EFCF61E08F2DDF91CF911F910F91FF90B0
:1016D000EF90DF90BF90AF909F908F900C94A903F4
:1016E000CF93DF931F92CDB7DEB721E041E050E00A
:1016F000BE016F5F7F4F0E94070B89810F90DF91C2
:10170000CF910895CF93DF931F92CDB7DEB7698352
:1017100020E041E050E0BE016F5F7F4F80680E9493
:10172000070B0F90DF91CF910895CF93C82F62E000
:1017300082E00E94820B60E883E00E94820B61E0FD
:1017400084E00E94820B69E985E00E94820B62E1DD
:1017500087E20E94820B60EDC11168ED80E30E9478
:10176000820B60E481E30E94820B61EC88E20E94BC
:10177000820B64E989E20E94820B61EC8AE2CF91DC
:101780000C94820B0F931F93CF93DF93C0918B0424
:10179000C4310CF040C0CE30CCF1C2310CF0C1E10C
:1017A00061E08091D9039091DA0300914404109193
:1017B00045042091460430914704DC01ED91FC91F1
:1017C0000084F185E02D4C2F0995813059F182304C
:1017D000E1F1CF301CF5CC301CF1C067D7E014E04C
:1017E0006C2F89E00E94820B8DE40E94700B887F31
:1017F000682F612B8DE40E94820B6D2F60628BE05D
:10180000DF91CF911F910F910C94820BCC3F0CF480
:10181000CCEF60E0C6CF62E0C4E1C3CFCEE0DDCF65
:10182000CC5FDCCF80917C04877011F4CB305CF00E
:10183000C2302CF4C2E0C250C068DBE0D0CFC2316D
:10184000D4F3C1E1F8CFCBE0F6CFD0E117E0CFE899
:10185000C7CFAF92BF92CF92DF92EF92FF920F93DA
:101860001F93CF93DF938091440490914504A091FE
:101870004604B09147049C01AD0160E070E080E057
:1018800090E003E10E94452CA12CE8E4BE2EF8EE86
:10189000CF2EDD24D394E12CF12C00E010E00E9447
:1018A000B12BC22FB32E6A017B01182FD92F00E173
:1018B0000E94602C622F86E00E94820B2C2F3B2D11
:1018C000A601B701812F9D2F08E00E94602C622F96
:1018D00087E00E94820B6C2F88E0DF91CF911F91EF
:1018E0000F91FF90EF90DF90CF90BF90AF900C944E
:1018F000820B1F93CF93DF9360917C0470917D04E2
:10190000162F1770CB0133E0969587953A95E1F73E
:10191000D82FD370D13059F008F466C0D23009F412
:1019200065C066EC71E086E891E00E94DE05C0E8E3
:10193000CB0125E0969587952A95E1F78370823053
:1019400009F458C0833009F457C0813009F450C0FD
:10195000C260672F77276115710521F0C16082E2AF
:101960000E94820B6C2F8DE10E94820B6091880493
:10197000637060598FEF810F8295807F680F80912F
:101980007C0487FF64608EE10E94820B8BEF810FE5
:10199000823010F4DD2391F1163011F4D13071F161
:1019A00064E086E20E94820BC0E063E0D23081F402
:1019B0008091440490914504A0914604B09147045D
:1019C000CFE781349D4DAA44BF4108F0C4E662E0F0
:1019D00086E30E94820BCC2399F06C2F8AE3DF917F
:1019E000CF911F910C94820BC0E7A2CFC0E9A0CF8A
:1019F000C460AFCFC660ADCFC860ABCF6CE0D1CF15
:101A0000DF91CF911F910895CF93DF93D82FC82FE7
:101A1000C77019F081E00E94B4076D2F81E00E9429
:101A2000820BC11105C080E0DF91CF910C94B40707
:101A3000DF91CF9108958091440490914504A09145
:101A40004604B091470481349D4DAA44BF4118F427
:101A500088E00C94040D80E0FCCF809144049091C8
:101A60004504A0914604B091470481349D4DAA4499
:101A7000BF4118F488E80C94040D80E8FCCFCF93A4
:101A8000C82F81E00E94700B887F8C2BCF910C9423
:101A9000040DCF92DF92EF92FF92CF93DF93D82F76
:101AA0000E942D0D81E00E94700B87FD06C06BE93E
:101AB00073E086E891E00E94DE0581E00E943F0D20
:101AC000D23009F07CC06AE08DE10E94820B60E7B1
:101AD0008EE10E94820B63E28CE00E94820B60E444
:101AE00083E20E94820B80919105882309F46CC0E7
:101AF00083E30E94700B682F6F7B83E30E94820B4D
:101B000080917C0490917D0423E0969587952A9599
:101B1000E1F7C82FC37081E30E94700B8877682FAC
:101B20006360C23008F056C081E30E94820B60E41B
:101B30008FE20E94820B60E480E30E94820B60913E
:101B400087048FE10E94820B64E389E30E94820B89
:101B50006CE080E40E94820B6FEF82E10E94820BB6
:101B6000ED2FF0E0E055FD4F6491609581E10E941A
:101B7000820B80E00E94DE0760E08DE00E94820B15
:101B800060E08FE00E94820BD11128C060913C047C
:101B900070913D0480913E0490913F040E946A0739
:101BA0006B017C0186E00E943F0DC701B601DF9109
:101BB000CF91FF90EF90DF90CF900C945F040E9444
:101BC000790C0E94290C87CF83E30E94700B682F49
:101BD000606493CF682F636881E3AFCF85E0DF91C6
:101BE000CF91FF90EF90DF90CF900C943F0DCF926C
:101BF000DF92EF92FF92CF93C82F81E00E94700B8B
:101C0000877069E274E0C1F480917C04877009F008
:101C100060C0C13041F41092100580912A04909167
:101C20002B040E94D3060E941B0D81E00E94700BC2
:101C300087FF06C062E074E086E891E00E94DE055E
:101C400081E00E943F0D0E94290C63E28CE00E941B
:101C5000820B6EE18DE00E94820B6BE082E10E94BC
:101C6000820B62E183E10E94820B6AEA8FE10E94AB
:101C7000820B6FEF81E20E94820B81E00E94950B44
:101C800068E380E40E94820B80E00E94DE07C111BD
:101C900018C060913C0470913D0480913E04909185
:101CA0003F040E946A076B017C0185E00E943F0DA2
:101CB000C701B601CF91FF90EF90DF90CF900C94C9
:101CC0005F0485E0CF91FF90EF90DF90CF900C9470
:101CD0003F0D8C2FCF91FF90EF90DF90CF900C9421
:101CE000490D8FEF9FEF9093610480936004909370
:101CF00063048093620490936504809364049093DA
:101D00006704809366048FEF90E09093690480935A
:101D10006804ECE6F4E08CE0DF011D928A95E9F7B7
:101D200080E690E090937904809378048FEF80931D
:101D30008D0408956F927F928F929F92AF92BF927F
:101D4000CF92DF92EF92FF920F931F93CF93DF9387
:101D5000CDB7DEB760970FB6F894DEBF0FBECDBF2C
:101D60007B018A01282F30E0277F2230310549F09E
:101D70002430310509F4CBC0232B09F09FC0D12CAE
:101D800098C083FD32C085EA93E00E94F80890E194
:101D9000692EFE0131966F0125EB822E23E0922EF3
:101DA00037E8732E0115110509F060C06091A50395
:101DB0007091A6038091A7039091A8030E944D2BD8
:101DC00060960FB6F894DEBF0FBECDBFDF91CF9106
:101DD0001F910F91FF90EF90DF90CF90BF90AF9049
:101DE0009F908F907F906F900895E5EAF3E080E1F7
:101DF000DF011D928A95E9F7CACF01151105E9F5B2
:101E0000E62FF0E0EB55FC4F80818058808311E095
:101E1000D601E62D1D92EA95E9F7C6010E94F80861
:101E20000981C6010E94480207FF03C088898725EF
:101E3000888B112349F01981C6010E94480217FFBF
:101E400003C088898725888BF601D5018D915D01B6
:101E50009191119789278C938A149B04B1F710E014
:101E600000E085EA93E00E94F8089CCF85EAA82E5E
:101E700083E0B82ED701950160E0F90181919F01BF
:101E80009D91AF01415051098927FA0180836F5F0D
:101E90007D0101501109603109F0AFCF0115110525
:101EA00001F710E0B5CF8E0D9F1D0E94F808B0E13C
:101EB000DB0E8D2D90E080179107A8F360E070E0B5
:101EC000CB017ECF80E1E5EAF3E0DE0111960190DF
:101ED0000D928A95E1F7CE0101960E94F808FE0165
:101EE00031969701205F3F4F9191D7018C918927BF
:101EF0008D937D0101501109A217B30719F0011547
:101F0000110591F78091B4038F5F8093B40301159D
:101F10001105C1F6D3CF9091BA03911106C06CE8B8
:101F200074E086E891E00E94DE05903141F440E1E2
:101F300050E06AEB73E080E00E949A0E90E0E92F97
:101F4000F0E0E654FC4F80819F5F9093BA030895C0
:101F5000DF92EF92FF920F931F93CF93DF936FE285
:101F600070E0009729F08136910530F061E370E070
:101F700089EB91E00E94DE05C0918D04D0E0CF3F57
:101F800011F4CFEFDFEFE0E6F4E02CE634E0DF0120
:101F900032961C968D919C911D974D915C91842356
:101FA0009523938782872E173F0789F766E070E0B5
:101FB0008CE694E00E9401057C01892B09F08FC01A
:101FC0008CE0E0E6F4E0ACE6B4E001900D928A9596
:101FD000E1F766E070E08CE694E00E9401057C0188
:101FE000009709F4DDC0419708F479C010E000E0E3
:101FF000CF3FDC0751F1C136D1050CF070C09E0116
:102000002F70332781E090E002C0880F991F2A9536
:10201000E2F7FE0144E0F595E7954A95E1F7EE0F0A
:10202000FF1FE459FB4F208131818C0102231323D0
:1020300080959095822393239183808301151105C8
:1020400009F44FC070E1E71AF1080E948B0FD82EF7
:102050000E948B0F9D2DB70124E0769567952A95F8
:10206000E1F70E94F22A34E0880F991F3A95E1F7D0
:10207000ECE6F4E070E060E021913191211531054A
:1020800059F1A9015695479545755575D901A41B78
:10209000B50BAD0143735373B695A795B695A79548
:1020A000A373B3734A0F5B1FDA01A07FB07F4F7039
:1020B0005F7042955295507F5427407F54274A0FB6
:1020C0005B1FDA01BB27452F55274A0F5B1F84177B
:1020D000950780F0841B950B605F7F4FCDCF10E09C
:1020E00000E0CFEFDFEFB1CFA90141505109242328
:1020F000352340970097C1F744275527421B530BC0
:1021000042235323CA018575957521E030E0892B60
:1021100011F030E020E0CA0183739373892B09F436
:1021200047C090E080E0820F931F9A012F703F70AC
:10213000232B09F440C030E020E0820F931F30E0F1
:1021400020E0411102C028E030E0820F931F860F8B
:10215000971FFC0144E0F695E7954A95E1F7EE0FED
:10216000FF1FE459FB4FAC014F70552721E030E0D1
:10217000B90102C0660F771F4A95E2F7AB012081D3
:1021800031812627352731832083CF3FDC07B1F407
:1021900097FD06C0803491050CF4885F80938D0410
:1021A000DF91CF911F910F91FF90EF90DF900895F5
:1021B00082E090E0B8CF24E030E0BFCF24E0D595B6
:1021C000C7952A95E1F7CC0FDD1FC459DB4F288155
:1021D0003981022B132B19830883DACF80915004A5
:1021E00090915104A0915204B0915304892B8A2BF1
:1021F0008B2B09F04BC080917E0490917F0410924C
:102200008E048E7C977A90937F0480937E04109244
:102210000D05109294040E9491058FEF80938D0418
:1022200080917804909179040E94A80F0E9427065B
:10223000609338047093390480933A0490933B047C
:1022400080917E0490917F0493FF06C064ED70E05E
:1022500089EB91E00E94DE0510929204E09107055F
:10226000EF3F91F0EF70F0E0E856FD4FE491E0931E
:102270009104846090937F0480937E0480ED9FE1BD
:102280000E94D30681E00895E3E1F1CF80E0089554
:10229000CF92DF92EF92FF92CF93C82F0E948B0FC5
:1022A000F82E0E948B0F9F2D6C01853224EF920730
:1022B00020F024E2C21A24EFD20AF12CE12CCC2324
:1022C00069F06C2F0E94E62A292F30E0A4E2B4EFD7
:1022D0000E94542BC60ED71EE81EF91EC701B60178
:1022E000CF91FF90EF90DF90CF900895CF92DF9243
:1022F000EF92FF926B017C01842F442331F00E9406
:102300004811C60ED71EE81EF91E80918E04882340
:10231000A9F08091480490914904A0914A04B09199
:102320004B04A7019601281B390B4A0B5B0BDA0102
:10233000C901181619061A061B068CF4C092480427
:10234000D0924904E0924A04F0924B0480917E04BA
:1023500090917F04916090937F0480937E04FF901E
:10236000EF90DF90CF900895AF92BF92CF92DF921F
:10237000EF920F931F93CF93DF93DC011A141B048A
:10238000A4F590E1E5EAF3E0EF01892F19928A952F
:10239000E9F7F1E0F093B403F093A503E092AA0308
:1023A0004093AB035093AC036093AD037093AE03C3
:1023B0000093AF031093B0032093B1033093B203A3
:1023C000FD01A5EFB3E001900D929A95E1F7A5010B
:1023D000B60184E0DF91CF911F910F91EF90DF90D4
:1023E000CF90BF90AF900C949A0EDF91CF911F9138
:1023F0000F91EF90DF90CF90BF90AF9008951F9313
:10240000CF93DF93CDB7DEB72F970FB6F894DEBF2B
:102410000FBECDBF80E00E943F0D0E94D705809186
:10242000260490912704A0912804B0912904892BB7
:102430008A2B8B2B09F047C085E995E064E274E0B4
:102440000E9488040E944B068FE0E5E1F4E0DE0183
:10245000119601900D928A95E1F7E5E1F4E08EE79F
:1024600091E0DF019C011D9221503040E1F78FE0A7
:10247000FE013196A5E1B4E001900D928A95E1F755
:102480000E948B0F182F0E948B0F912F9093810425
:102490008093800410927F0410927E041092930423
:1024A00080E8809305050E94910581E080930205F4
:1024B0002F960FB6F894DEBF0FBECDBFDF91CF9140
:1024C0001F910C94710E83E995E0B8CF2F923F9243
:1024D0004F925F926F927F928F929F92AF92BF9234
:1024E000CF92DF92EF92FF920F931F93CF93DF93E0
:1024F000CDB7DEB72A970FB6F894DEBF0FBECDBFBB
:102500008C010E9427066B017C014AE0F7FE0DC09A
:102510006DE287E995E00E94F80266277727CB01F4
:102520006C197D098E099F094AE00E94480886E1DE
:1025300093E00E942B08F8013197E431F10508F08F
:1025400085C3EB55FD4E0C94472BB912D512D8120A
:10255000DB12DE12E1122616E412E712EA125E1313
:102560006113641367136A1326166D132016311650
:1025700023168AE092E02A960FB6F894DEBF0FBECB
:10258000CDBFDF91CF911F910F91FF90EF90DF9022
:10259000CF90BF90AF909F908F907F906F905F9003
:1025A0004F903F902F900C943C088AEF91E0E3CF3E
:1025B00089EE91E0E0CF87ED91E0DDCF8CEC91E00A
:1025C000DACF82EC91E0D7CF83EB91E0D4CF82EAEF
:1025D00091E0D1CF82E791E00E943C0880910E0506
:1025E00087FF04C085E691E00E943C0880911005B9
:1025F0008823F1F18BE591E00E944503609110057D
:1026000070E090E080E04AE00E94480887E491E0B2
:102610000E9445038AE391E00E9445031A821982D1
:1026200003EF11E08091100529813A81821713068A
:10263000E9F0E4F0E0910F05C9018B5E9B4FE80FD4
:10264000F92FF11DE450FF4F80811F928F931F934C
:102650000F930E94942C49815A814F5F5F4F5A8398
:1026600049830F900F900F900F90DCCF0E94380895
:102670000E942706AB01BC0148595647664F7F4F61
:102680002FEA31E28BED93E02A960FB6F894DEBF85
:102690000FBECDBFDF91CF911F910F91FF90EF90B3
:1026A000DF90CF90BF90AF909F908F907F906F9072
:1026B0005F904F903F902F900C9412078CE291E026
:1026C0005ACF83E291E057CF85E191E054CF88E083
:1026D00091E051CF8AEF90E04ECF8FEE90E00E94D4
:1026E0003C081F9281E08F9388EF91E09F938F9336
:1026F0000E94942C1F9282E08F9381E292E09F933C
:102700008F930E94942CA09010050FB6F894DEBF12
:102710000FBECDBFAA2009F4A4C2C0907C04D09003
:102720007D040C2D07700A5F960143E036952795CE
:102730004A95E1F72370C60155E0969587955A951D
:10274000E1F7837080909104E0905804F090590470
:1027500071E0E71AF10815E0882339F016E08130BE
:1027600021F017E0823009F018E0222349F03AEF17
:10277000B32E213039F094EFB92E9924939403C0ED
:102780002DE7B22E912CC0904404709045046090C7
:102790004604509047040E9427061F92DF92FF9242
:1027A000EF921F921F939F92BF921F928F921F9240
:1027B0000F931F92AF925F926F927F92CF929F93EF
:1027C0008F937F936F9385E492E09F938F930E9402
:1027D000942C809190041F928F9382E992E09F93B2
:1027E0008F930E94942C82EE90E00E9445036091AA
:1027F000990470E090E080E04AE00E9448088CEC88
:1028000090E00E9445030FB6F894DEBF0FBECDBF27
:10281000F12CE12C03EF11E0809199048E151F0437
:10282000D1F0CCF0E0910F05C7018B5E9B4FE80F14
:10283000F92FF11DEB57FF4F80811F928F931F934C
:102840000F930E94942C9FEFE91AF90A0F900F90B2
:102850000F900F90E1CF0E9438088FEB90E00E941C
:1028600045036091100570E090E080E04AE00E942E
:10287000480888EA90E00E944503F12CE12C03EF20
:1028800011E0809110058E151F04D1F0CCF0E0917D
:102890000F05C7018B5E9B4FE80FF92FF11DE45028
:1028A000FF4F80811F928F931F930F930E94942C50
:1028B000EFEFEE1AFE0A0F900F900F900F90E1CFFE
:1028C0000E943808809110051F928F9386EA92E04B
:1028D0009F938F930E94942C009110050450110B2C
:1028E0000F900F900F900F9083EFE82E81E0F82E5D
:1028F0008091100580171106C9F0C4F0E0910F0512
:10290000C8018B5E9B4FE80FF92FF11DE450FF4F7C
:1029100080811F928F93FF92EF920E94942C0F5F01
:102920001F4F0F900F900F900F90E2CF0E9438082A
:102930002091100541E155E05C834B8390E080E0FD
:102940001A821982622F70E078876F83EF81F88591
:1029500029813A812E173F070CF048C1EB81FC8199
:102960002191FC83EB83022E000C330B6C014CE0B5
:10297000D594C7944A95E1F7A92FBB27A7FDBA952F
:10298000AC25BD253D0162267326F1E06F22772438
:102990007C016DE0F594E7946A95E1F75C01AB2C5E
:1029A000BB0CBB08A594AE24BF2449019594879421
:1029B0008A249B24880C991C42E08422992486282E
:1029C00097288C01110F000B110F102F001F2C01E5
:1029D000452C550C55084594459440265126F9013F
:1029E000F595E795F595E795E425F525EE0FFF1F9D
:1029F000EE0FFF1FE470FF27E80DF91D592F551F3B
:102A00005527551F59871A861C014BE0359427948A
:102A10004A95E1F723FB662760F96D831E82A101C9
:102A20004170552769857A85462757276D817E81B4
:102A30004627572763E0440F551F6A95E1F74E0F6D
:102A40005F1FB901E4E075956795EA95E1F76C259C
:102A50007D25F4E0660F771FFA95E1F7607177271F
:102A6000460F571FF90165E0F595E7956A95E1F77F
:102A7000BD016E257F256E277F27E5E0660F771F56
:102A8000EA95E1F760727727640F751FA50140276B
:102A90005127F901689415F8F595E7951694E1F733
:102AA0004E275F27E6E0440F551FEA95E1F7407493
:102AB0005527640F751F4201E1E08E229924498554
:102AC0005A85842695262227330F221F332728254F
:102AD00039253695322F222737952795260F371F10
:102AE000B101682779276170772764277527762FCA
:102AF0006627620F731F3C0175946794C624D72420
:102B0000DC2CCC24DD0CCC2452E0D5226C0D7D1DB8
:102B1000AC0155954795559547954E255F25542F02
:102B20004427550F550F44275470640F751FFC013F
:102B300023E0F595E7952A95E1F7E027F127FE2FA9
:102B4000EE27FF0FFF0FFF0FEE27F8706E0F7F1FAE
:102B50009C0144E0359527954A95E1F7A227B327D4
:102B6000A170BB27E985FA85AE27BF27BA2FAA2710
:102B7000B295B07F6A0F7B1F9C01E5E035952795E4
:102B8000EA95E1F72A253B25322F22273295330F8C
:102B9000307E22273072620F731F9C01A6E03595AC
:102BA0002795AA95E1F742265326B0E44B9E502C78
:102BB000442411244424F0E45F22640D751D880F21
:102BC000892F881F990B8225932529853A8582278D
:102BD00093279927869597958827860F971F498170
:102BE0005A814F5F5F4F5A834983B0CE9F938F9333
:102BF0009F938F938FEB92E09F938F930E94942CDF
:102C00000F900F900F900F900F900F902A960FB685
:102C1000F894DEBF0FBECDBFDF91CF911F910F9112
:102C2000FF90EF90DF90CF90BF90AF909F908F90EC
:102C30007F906F905F904F903F902F900C9438084A
:102C40008AE990E098CC88E790E095CC88E690E01F
:102C50000E944503B80190E080E04AE00E944808E5
:102C6000D5CF2A960FB6F894DEBF0FBECDBFDF9149
:102C7000CF911F910F91FF90EF90DF90CF90BF9079
:102C8000AF909F908F907F906F905F904F903F900C
:102C90002F900895CF92DF92EF92FF92CF93DF9320
:102CA000EC01C12CD12C7601C3940C2E04C0CC0CA9
:102CB000DD1CEE1CFF1C0A94D2F7E3FC03C0CE011E
:102CC0000E946612D701C60188279472AA27BB27E3
:102CD000892B8A2B8B2B01F1E0911904F0911A04B6
:102CE0003097D1F02091100540910F05211102C0BD
:102CF000442391F080910E0550E060E084FF04C011
:102D0000DA01A05FBA4F6C9130E04F5E5A4F80916C
:102D10001B0490911C040995CC2484E0D822E8225D
:102D2000FF24CD28CE28CF2819F1E0911D04F09181
:102D30001E043097E9F010921E0410921D04C23157
:102D4000D10541F180910E0583FD24C09091980436
:102D500061E0992339F0082E000C990B692F661F4A
:102D60006627661F70E080911F04909120040995EA
:102D7000E0911504F0911604309771F0BE01809136
:102D8000170490911804DF91CF91FF90EF90DF909E
:102D9000CF90099460E0E6CFDF91CF91FF90EF9064
:102DA000DF90CF90089582E080930E05E0910905B1
:102DB000F0E0E755FD4FE491F0E0EF77E068F09345
:102DC0007D04E0937C0480915C0490915D04A0916B
:102DD0005E04B0915F048093440490934504A093F3
:102DE0004604B09347041092100583E190E00E94DE
:102DF0004A1680E00C94F70D8FE996E290932B042D
:102E000080932A040C94D31681EA91E290932B04C8
:102E100080932A040C94D31621E020930E05ECE74E
:102E2000F4E02081318120683183208310921005E5
:102E300090932B0480932A0483E190E00E944A1629
:102E400080E00C94F70D88E896E20C940C178EE85D
:102E500091E20C940C172F923F924F925F926F92D7
:102E60007F928F929F92AF92BF92CF92DF92EF921A
:102E7000FF920F931F93CF93DF93CDB7DEB7CB585D
:102E8000D1090FB6F894DEBF0FBECDBF8091840488
:102E9000811149C781E08093840480917E049091E0
:102EA0007F049C01217C3327232B81F44091500423
:102EB000509151046091520470915304452B462B5C
:102EC000472B29F582FD2FC00E94EE1080918404CB
:102ED0008150809384048111E0CFC557DF4F0FB636
:102EE000F894DEBF0FBECDBFDF91CF911F910F9140
:102EF000FF90EF90DF90CF90BF90AF909F908F901A
:102F00007F906F905F904F903F902F90089596FF25
:102F10000AC09F7B90937F0480937E048DED9EE199
:102F20000E94D306D3CF0E9427066B017C0100913B
:102F30007E0410917F04C8018C739927892B09F4B2
:102F4000E7C613FF58C180917804909179040097E7
:102F500011F00E94A80FC0923804D0923904E09278
:102F60003A04F0923B0480917E0490917F04977F15
:102F700090937F0480937E04B701A60180918E0414
:102F8000811106C080917E0490917F0490FF12C051
:102F90008091480490914904A0914A04B0914B0457
:102FA0002A013B01481A590A6A0A7B0A77FE02C0C5
:102FB000AC01BD0121E7C20E22E0D21EE11CF11CD2
:102FC000DB01CA018C199D09AE09BF09B7FF8CC688
:102FD00030919204CF57DF4F3883C158D0400472EC
:102FE0001127012B09F41FC180917E0410919404D4
:102FF00085FD16C110921105909180048091810485
:10300000909322058093230543E150E061E175E050
:103010008AE00E949A0E609327057093260580939C
:1030200025059093240587E1809310058091800405
:10303000909181040196909381048093800482EFA3
:103040009AE090932B0480932A04CF57DF4FC880D7
:10305000C158D040EC2DF0E0E755FD4FE491809150
:10306000930420E2829FC0011124EF798E2B90936C
:103070007D0480937C04C092890480917E049091A9
:103080007F048F76967F8068986090937F0480930A
:103090007E04A0918D04A03670F5B0E020E43DE000
:1030A00043E050E00E946A2B8B019C01005A1A4CAD
:1030B000274F334E00364FE9140740E224074CE116
:1030C000340708F0E9C4605A764A8340934E60930F
:1030D0004404709345048093460490934704E09120
:1030E0000705EF3F09F456C5EF70F0E0E856FD4FD5
:1030F000E491E0938A049091910480918A04981756
:103100000CF4892F80938B0481E190E00E944A1691
:10311000109238041092390410923A0410923B0431
:1031200081E00E94700B877059F080E00E943F0D93
:103130000E942706625C7F4F8F4F9F4F0E946A0755
:1031400040904004509041046090420470904304C9
:1031500014141504160417040CF021C581E00E9414
:10316000490D8091440490914504A0914604B0918A
:10317000470481349D4DAA44BF4108F40DC583E640
:103180009FEFE091F303F091F40327817C01E20EBD
:10319000F11C27FDFA940E942706615E7F4F8F4F36
:1031A0009F4F0E946A070E94270610E0460E571E96
:1031B000681E791E8BE10E94700B181708F4182FF7
:1031C0000E942706641975098609970997FDF2CFB1
:1031D00080E00E943F0D80918C04082E000C990B1A
:1031E000E10EF11CE816F9060CF4D9C480912A040A
:1031F00090912B0495CE4091380450913904609100
:103200003A0470913B04BACECF57DF4F8881C15842
:10321000D0400E94FE0ACF57DF4F8883C158D0406C
:10322000115090F7E7CE8091540490915504A091ED
:103230005604B091570480389F4FAF4FBF4F18F0DE
:1032400083ED9EE16DCE80910D0581110DC08091C1
:10325000580490915904A0915A04B0915B048F3F97
:103260009F4FAF4FBF4F61F3E0907E04F0907F041B
:1032700078E1E722FF2480E1E816F10409F4EBC1CC
:10328000A090990480919704882309F4E6C1809165
:10329000CF04882309F4E1C10091CE04002309F48E
:1032A000DCC110E0A80160ED74E089E195E00E94C6
:1032B000842C085F1F4F1092CE041092CF0480918F
:1032C0000A05882331F086FFCBC190E489278093DB
:1032D0000A0580910B05882331F086FFD1C190E467
:1032E000892780930B0580910C05823009F0D8C1A5
:1032F00081E080930C05093111050CF0ACC380917D
:103300000105882361F0809182049091830497FFE6
:1033100004C090E080E00E945005109201056A2CE4
:10332000712C25E0620E711CF0E1EF16F10419F426
:10333000A4E06A2E712C600E711E31E463167104D4
:103340000CF0B9C191E040E1E416F10409F490E019
:10335000E0919204E63008F0B3C1F0E0EE56FD4F84
:10336000E491E615170408F476C380E48093110510
:103370008091FF0440910505482B209182043091F3
:10338000830437FD9FC121523109203B324008F4AC
:1033900099C120E488EF800F842B822B809316053F
:1033A0004091500430915104209152048091530473
:1033B000409312053093130520931405809315054F
:1033C00080910D05811118C020919504211114C020
:1033D000409158045091590460915A0470915B04D3
:1033E0004F5F5F4F6F4F7F4F409358045093590486
:1033F00060935A0470935B042091580430915904EF
:103400002150310920931705309318051092FF04BD
:103410009923D9F190919804992309F455C190E822
:1034200090931105811103C081E080930D05F8018F
:10343000EF5EFA4F809197048083C8018E5E9A4FA9
:103440006C01B12CA5016AE974E00E94842C009102
:1034500058041091590420915A0430915B04015092
:103460001109210931094091500450915104609192
:1034700052047091530480919704811132C18FEDF1
:1034800094E0F12CE12C0E94B41183010450110945
:103490008091580490915904A0915A04B0915B0412
:1034A0000197A109B10960915004509151044091D4
:1034B00052043091530420E1E5EAF3E0C22E119268
:1034C000CA94E9F779E47093A5031092AA030093D4
:1034D000B4036093AB035093AC034093AD033093BC
:1034E000AE038093AF039093B003A093B103B09366
:1034F000B203EFEDF4E0A5EFB3E001900D922A9551
:10350000E1F7A80161E175E082E00E949A0EF801FE
:10351000EF5EFA4F6383728381839083609210051C
:103520007F926F9226EF32E03F932F930E94942C6C
:103530000F900F900F900F9010E000E08091100519
:103540008017110611F00CF0CFC08AE090E00E94C5
:10355000AA2C809110051F928F93E9E1F3E0FF936D
:10356000EF930E94942C009110050450110B0F90C2
:103570000F900F900F90809110058017110611F099
:103580000CF0CCC08AE090E00E94AA2C809110053B
:10359000A1E1B5E0CC57DF4FB983A883C458D04030
:1035A000CA57DF4FB983A883C658D04010E000E067
:1035B000912C812CC82ED12CC657DF4FD982C882BE
:1035C000CA58D040C657DF4F48815981CA58D040A9
:1035D000841695060CF4B8C01F930F931F930F9396
:1035E00083E393E09F938F930E94942C19831A8214
:1035F00011271C830B8310911005412F50E0FE0111
:1036000035960F900F900F900F900F900F90A1E1B3
:10361000B5E090E080E0841795070CF404C2440FF5
:10362000551F70E060E081E195E00E948D2C1E5FE7
:1036300010931005FE01319630E020E0812F90E0DC
:10364000281739070CF4F5C1E7EDFAE0F0932B04E5
:10365000E0932A04FACCA12C1ACE08E010E02BCE7D
:1036600098012B5E3B4FF901E450FF4F95E09083AA
:1036700023503F4F8770D9018C930E5F1F4F29CE87
:1036800098012B5E3B4FF901E450FF4F9AE0908385
:1036900023503F4F8370F90180830E5F1F4F23CE6D
:1036A000882309F428CEF801EF5EFA4F88E0808382
:1036B0000F5F1F4F20CE380154E0650E711C47CEBE
:1036C000E0E04FCE20E066CE80919004882309F49C
:1036D000AECE809195048111AACE81E080939504AD
:1036E000A6CE8FEE94E0CDCEE0910F05C8018B5EA3
:1036F0009B4FE80FF92FF11DE450FF4F80811F927F
:103700008F9383EF91E09F938F930E94942C0F5F90
:103710001F4F0F900F900F900F9010CFE0910F055B
:10372000C8018B5E9B4FE80FF92FF11DE450FF4F4E
:1037300080811F928F9323EF31E03F932F930E945C
:10374000942C0F5F1F4F13CFCA57DF4FA881B98149
:10375000C658D040BD90CA57DF4FB983A883C6581A
:10376000D04078019CE0F594E7949A95E1F7212EFA
:10377000332427FC3A942E243F244B2D0B2C000C91
:10378000550B42255325CA0181709927D801A8E01D
:10379000BA02A12DBB0B11249801232F330F330B39
:1037A0002595F901EA27FB27CE57DF4FF983E883F8
:1037B000C258D0402B2D2595022E000C330B2E27FE
:1037C0003F27220F331F22703327822B932BF801C0
:1037D000FF0FEE0BFF0FFE2FEE1F2801452C550C9F
:1037E0005508459445944E265F262B2D2595259505
:1037F000022E000C330B24253525220F331F220FF8
:10380000331F24703327280F391FA8014427550F71
:10381000441F5527B80160E27602612D770B112411
:10382000CB018170992784279527B3FACC24C0F85F
:10383000C857DF4FC882C858D040C757DF4F1882DB
:10384000C958D040C857DF4FC880D980C858D04029
:103850008C259D25880F991F880F991F880F991F08
:10386000280F391F8B2D8595859585958595082E73
:10387000000C990B8E259F2582959295907F982715
:10388000807F982780719927820F931F2B2D259574
:103890002595259525952595022E000C330B6D0158
:1038A000C224D3242C253D25689414F8220F331FFD
:1038B0001694E1F720723327820F931FCE57DF4F04
:1038C00028813981C258D0402E273F27CB2CC6FAF9
:1038D000CC0CCC08C0F80C2C000CDD082C253D25A8
:1038E000689415F8220F331F1694E1F720743327DC
:1038F000820F931F320121E062227724642675260D
:10390000BB1CBB24BB1C6B247694762C662477945A
:103910006794680E791ECB018027912781709927C3
:1039200084279527982F8827860D971D9801359510
:103930002795E226F326FE2CEE24FF0CEE2432E03F
:10394000F3228E0D9F1D6801D594C794D594C7941A
:10395000CA26DB26DC2CCC24DD0CDD0CCC24A4E038
:10396000DA228C0D9D1D3801B3E075946794BA95E9
:10397000E1F76E267F26762C6624770C770C770C81
:103980006624B8E07B22860D971D9801E4E035950A
:103990002795EA95E1F722263326E1E02E2233240B
:1039A00024263526322C22243294F0EF3F22820D39
:1039B000931D9801A5E035952795AA95E1F7CE5777
:1039C000DF4FC880D980C258D0402C253D25322FEA
:1039D00022273295330F307E22273072820F931FB9
:1039E000D80126E0B595A7952A95E1F7A425B52538
:1039F000B0E4AB9FB02DAA271124AA27B0748A0F78
:103A00009B1F000F012F001F110B062717270427EC
:103A100015271127069517950027080F191F2FEF57
:103A2000821A920ACFCD2D9130E0219331930196E5
:103A3000F2CD40813296CC57DF4FA881B981C4586E
:103A4000D0404D93CC57DF4FB983A883C458D040A2
:103A50002F5F3F4FF5CD88E080930E05809198044D
:103A6000811104C080910D05882319F088E48093AA
:103A70000E0580917E0490917F0487769E7F9093BF
:103A80007F0480937E041092100510920F058AE047
:103A900090E00E944A161ACA003659E0150759E309
:103AA00025075CE1350728F4605A70418C41934E3C
:103AB0000ECB0036A3E71A07A1E52A07ACE13A07C7
:103AC00028F4605A7A478443934E01CB0036BDED0B
:103AD0001B07B9E62B07BCE13B0728F4605A744E7C
:103AE0008C44934EF4CA0036E7E41E07E2E82E0742
:103AF000ECE13E0728F4605A7E448546934EE7CABF
:103B00000036F1EB1F07FAE92F07FCE13F0728F425
:103B1000605A784B8D47934EDACA00364BE1140752
:103B200043EB24074CE1340728F4605A724286497B
:103B3000934ECDCA003655E815075BEC25075CE1CE
:103B4000350728F4605A7C488E4A934EC0CA003626
:103B5000AFEE1A07A3EE2A07ACE13A0728F4605A41
:103B6000764F864C934EB3CA0036B9E51B07BCEFBF
:103B70002B07BCE13B0728F4605A70468F4D934EEB
:103B8000A6CA00934404109345042093460430933E
:103B90004704A5CAE3E1ADCA8CE59FEFF2CA809164
:103BA0007C04877009F06AC00E941B0D81E00E94AE
:103BB0003F0D80E00E94950B60E085E20E94820B41
:103BC00065E086E20E94820B0E94290C0E94C20BD3
:103BD00069E28AE00E94820B64E380E40E94820B27
:103BE000609110056F5F82E30E94820B6091100567
:103BF00080E00E94820B4091100550E020E061E1DE
:103C000075E080E80E94070B81E00E94DE0760916A
:103C100038047091390480913A0490913B04611505
:103C200071058105910531F10E946A0761157105E1
:103C300081059105F9F0009132041091330420912F
:103C4000340430913504DC01CB01800F911FA21F99
:103C5000B31F8093320490933304A0933404B09341
:103C6000350480913604909137040196909337047F
:103C70008093360483E00E943F0D28C90E942D0DD9
:103C800081E00E94700B87FD06C061E273E086E868
:103C900091E00E94DE0581E00E943F0D0E94790CB8
:103CA0000E94290C68E08AE00E94820B0E94C20BED
:103CB00064E389E30E94820B6CE780E40E94820B3C
:103CC0006FEF82E10E94820B67EF81E10E94820B1D
:103CD00060E08EE00E94820B60E08DE00E94820B2B
:103CE0006091100582E285CF80917E0481FF05C03E
:103CF000411551056105710589F04157524061092F
:103D0000710921EF3EE184E294E00E941207DEC8CF
:103D100040E050E0BA0101FDF0CFD8C841E050E0EA
:103D200060E070E0EACF82E080938404D6C880919E
:103D30007E0490917F0483FF35C01092990482FF26
:103D40002CC0877E90937F0480937E0482E190E074
:103D50000E944A1680917E0490917F048570992775
:103D6000892B01F50E94D7058091260490912704A4
:103D7000A0912804B0912904892B8A2B8B2B79F4EC
:103D800085E995E064E274E00E9488040E944B0695
:103D900080E00E943F0D0C942B178776D3CF83E9E8
:103DA00095E0F0CF08950E94971E0E94FF118CE0CD
:103DB00090E00E944A160C94EE10EEE7F4E0808149
:103DC00091818E7D9F7B918380831092500410920D
:103DD000510410925204109253040E94971E0C94A6
:103DE000EE100C942B17CF9380917E0490917F045A
:103DF000877790937F0480937E04109295041092AD
:103E00000D052091CE04222351F03091CF043323AD
:103E100009F466C0806190937F0480937E040E94C1
:103E200027066E5E75488F4F9F4F40E00E947611C7
:103E300080910E05877079F080917E0490917F04C7
:103E400094FF09C09F7E90937F0480937E048FE04F
:103E500090E00E944A168AE090E00E944A160E9472
:103E60002B1780918204909183048197B4F1809103
:103E700092040E94FE0AC82F2091780430917904A0
:103E8000809192042730310508F4C82F8C1332C07A
:103E90008091820490918304813F92404CF0809104
:103EA0007E0490917F04906490937F0480937E04BD
:103EB00063E18C2F0E94330580917E0490917F04F2
:103EC0009C01306130937F0420937E0428173907CA
:103ED00021F08EE090E00E944A1681E0CF91089593
:103EE0001092980410929704209399041092CE0493
:103EF000886091CFCC23E1F290E080E00E945005F1
:103F0000D7CF80910D058823B1F1883020F58F5FE0
:103F100080930D0580FF07C0809192040E94FE0AE5
:103F200060E80E94330560913C0470913D048091EB
:103F30003E0490913F0443E00E94761180917E04FC
:103F400090917F048F7790937F0480937E040E94EA
:103F50002B1781E0089580E680930E0580918204FE
:103F60009091830401960E945005109210051092C2
:103F70000F050C94F31E80919504882379F090919D
:103F80009004891758F48F5F809395040E94270648
:103F90006E5E75488F4F9F4F40E0CECF80E2DCCF02
:103FA00080919604882341F00E94710E85E090E094
:103FB0000E944A160C942B1781E080939604F6CF4A
:103FC000CF92DF92EF92FF92CF93DF9380917E04A6
:103FD00090917F0482FD22C085FD0DC08F77909364
:103FE0007F0480937E0481E0DF91CF91FF90EF907A
:103FF000DF90CF9008958F7590937F0480937E0417
:10400000809194048A3018F48F5F8093940489E03F
:1040100090E00E944A160E942B17E5CF8F7790936D
:104020007F0480937E0484E190E00E944A16809190
:104030008F0480938D0480917804909179040E947C
:10404000A80F80910D058F5F80930D05C82FC77055
:104050001092920480917E0490917F04977F9093B8
:104060007F0480937E040E9427066B017C012091CF
:10407000920480E190E002C0959587952A95E2F739
:104080000E944811C60ED71EE81EF91EC0923804C1
:10409000D0923904E0923A04F0923B04C12CD12C26
:1040A0007601C394CC2399F0C12CD12C7601C1EFB9
:1040B000DEE10E942706AB01BC014C0D5D1D6E1DAB
:1040C0007F1D9E0184E294E00E9412078CCFC9EA12
:1040D000D1E2EFCF80910E0580FF0C94E01F80E0CD
:1040E0000895CF92DF92EF92FF920F931F93CF9399
:1040F000DF9380910E0580FF05C080911005882315
:1041000009F402C180917E0490917F0487FFE6C08C
:1041100084729927892B51F4DF91CF911F910F91D0
:10412000FF90EF90DF90CF900C946A2010911005D3
:1041300011110AC0DF91CF911F910F91FF90EF9065
:10414000DF90CF900C94E01F113111F0113221F764
:1041500080911105837E8032F9F6C12FD0E0AE0147
:104160004150510962E175E080E00E949A0E249767
:10417000AE0161E175E08AE00E949A0E6B017C015C
:10418000CF5EDA4F688179818A819B810E944D2BB5
:10419000C616D706E806F90609F0BECF88E195E015
:1041A0000E94C90560935004709351048093520497
:1041B0009093530485E195E00E94C9059927609387
:1041C0004C0470934D0480934E0490934F0411322D
:1041D000D1F480912D058130B1F49EE1E92E95E076
:1041E000F92EC0E0D70111960C9111978C91102FE8
:1041F000082FD0E1DC0FDC1373C0B2E0EB0EF11C32
:10420000CD2FD03679F78091800490918104019769
:10421000E7EEF4E028E0DF011D922A95E9F721E0BE
:104220002093DF0426E0E2E1F5E0A0EEB4E00190A7
:104230000D922A95E1F78093E6049093E70480E1DC
:10424000EFEDF4E0AFEEB4E001900D928A95E1F766
:1042500082E08093EF0440E150E06FED74E080E095
:104260000E949A0E40E150E06FEE74E080E00E9400
:104270009A0E80917E0485FF08C0C09194048091BD
:104280009204C150E0F58093920480917E04909155
:104290007F0489759D7F986090937F0480937E044E
:1042A00010920D050E94A50580EC9FEF0E9450051D
:1042B00080911C05982F9F709093090582958770B7
:1042C0008093080580911D058823E1F08093020505
:1042D00086E090E00E944A160E942B1781E015C0EC
:1042E000C03609F48ACF8C2F00FF06C00E949F04BD
:1042F000CF5F169507957FCF0E94CF04F9CF0E941C
:10430000FE0ABFCF81E0E2CF80E0DF91CF911F9125
:104310000F91FF90EF90DF90CF900895809110055E
:1043200081110AC02091090544E057E168ED78EB5E
:1043300085E090E00C942E0A0E947120882391F36E
:10434000089580911005811102C010920E050C9401
:10435000712088E090E00E944A160C942B178091FF
:104360007E0490917F0487FF04C08AE192E00C9460
:104370003C088C799927892BE1F430919204409183
:10438000780450917904832F90E04730510588F0EC
:10439000863078F4FC01EE56FD4FE491EE2349F0AF
:1043A000E93290F5FC01E655FD4FE4910196EF3FAF
:1043B00061F780917E0490917F049C012C793327D2
:1043C000232BF9F42CE1E0E0F1E0AAE9B4E001905C
:1043D0000D922A95E1F71092980421E0209397041A
:1043E0002CE1209399049C01286030937F04209352
:1043F0007E0482FD04C010920D05109295040E9467
:104400002B1783E392E0B3CF381799F260E80E944C
:104410003305CFCF2F923F924F925F926F927F9250
:104420008F929F92AF92BF92CF92DF92EF92FF92C4
:104430000F931F93CF93DF93CDB7DEB76C970FB673
:10444000F894DEBF0FBECDBF998F888F3B011092CD
:10445000CE04452B09F51092CF04F12CE12CE61483
:10446000F704F4F0C7016C960FB6F894DEBF0FBEE8
:10447000CDBFDF91CF911F910F91FF90EF90DF9013
:10448000CF90BF90AF909F908F907F906F905F90F4
:104490004F903F902F90089581E08093CF04DDCF1F
:1044A000C88CD98CCE0CDF1CF6012081223050F153
:1044B000422F4250550BFA014231510518F5E55B88
:1044C000FD4FE4918E2F90E09D8B8C8B892B51F2C8
:1044D000C3018E199F09EC89FD898E179F070CF483
:1044E000C1CF2250283080F4E22FF0E0E658FD4D95
:1044F0000C94472B85228D225024D923AD2384226E
:1045000042246124E0E0DECF3701EC89FD89EE0D25
:10451000FF1D730137017F01A2CFD60107E01B8A7F
:104520001A8A2A893B892B5F3F4F49019C014A899E
:104530005B89241B350B253031050CF493C0119693
:104540002C91119712964D915C91139714963C9172
:1045500014973077E22FE295EF70303558F0303510
:1045600009F078C04115510509F47AC04427452B5C
:1045700009F076C0E63030F4F0E0E755FD4FE49105
:10458000EF3F09F40D7F2F70283038F4E22FF0E070
:10459000E657FD4FE491E03809F40B7F15962C9116
:1045A000233009F454C08CE0E0E6F4E0DE0111961B
:1045B00001900D928A95E1F78091780490917904A9
:1045C0009B8F8A8F412C10E0073009F077C09F8ABB
:1045D0008E8A160181E0412C10E0EE89FF89359723
:1045E0000CF469C0F101A280B38011814480F42DE4
:1045F000F077F98BF035D9F5512C852DA0FE34C01C
:104600000E9408065394B694A79428E05212F5CF5E
:1046100020917804309179044E895F894550510981
:104620005F8B4E8B55E0250E311C81E02115310545
:1046300009F480E0A1014C195D09481559056CF297
:10464000232BD9F1A12EA2948FE0A8223DC09B8AF2
:104650008A8A67CF303609F489CF303709F482CFA0
:104660000E7F88CF00E09FCF0E94E105CBCF8989E4
:10467000803578F4805F8C8F5988FC8D5F1640F60A
:10468000852DA0FE15C00E949F045394B694A79454
:10469000F4CF512C9989852D903639F40E949F04CE
:1046A0005394E0E65E12F6CFE8CF0E94CF04F8CF35
:1046B0000E94CF04EACF811101C006E0A12EA2948E
:1046C0007FE0A722073041F480917804909179042B
:1046D00007E0079780F405E08CE0FE013196A0E644
:1046E000B4E001900D928A95E1F72A8D3B8D3093CD
:1046F000790420937804BB24B394D12CC12CC40139
:104700008C199D0905976CF0602F83E00E947B0552
:10471000B82E35E0C30ED11CC814D90414F481118D
:10472000EECF073099F4842D8F7090919004891307
:10473000809390041F7060E8183028F4E12FF0E0B7
:10474000E657FD4F64918A2D0E9433054A895B89A3
:10475000E40EF51EBB2001F1D8CE20918604022E76
:10476000000C330BC901029697FD0396959587952A
:1047700095958795182F1F734F970CF01FE1109395
:104780000405D09023040091CE0486E00E945C05CD
:10479000811104C00093CE04F701BCCE8D2D0E9480
:1047A0005C058823B9F3812F0E945C05882391F36F
:1047B000ACCEC7010196E88DF98D8E0F9F1FFC01CD
:1047C0002081122F1F7030E044E0359527954A95DF
:1047D000E1F7022F07700E94C905272F382F492FB4
:1047E0005527A4E6B0E00E946A2B4B015C01F0E87B
:1047F0008F1AF1EA9F0AF3E0AF0AFCE1BF0A21E059
:1048000082162AE5920622E6A20622E0B20618F0F7
:1048100060E070E0CB0130EC30930A05163050F4C4
:10482000E12FF0E0E755FD4FE491EF3F19F042EC46
:1048300040930A05611571058105910529F02091C4
:104840000A05216020930A05043028F420910A0506
:10485000246020930A0520910A05273C61F41093F7
:10486000090560935C0470935D0480935E049093EB
:104870005F0400930805622F677085E00E947B0546
:10488000B82E68CFF60181818F7009F481E08093A2
:104890000205F2E0F0930C0588E00E945C05F0CF81
:1048A000F60181818F7080938E040E9427066093A9
:1048B00048047093490480934A0490934B0484E025
:1048C000ECCFF60181818F738093070589E0E5CFF6
:1048D0002F923F924F925F926F927F928F929F9210
:1048E000AF92BF92CF92DF92EF92FF920F931F93FE
:1048F000CF93DF9300D000D000D0CDB7DEB780914A
:104900007E0487FFE5C1F0901005F1101AC02696CD
:104910000FB6F894DEBF0FBECDBFDF91CF911F91D0
:104920000F91FF90EF90DF90CF90BF90AF909F904E
:104930008F907F906F905F904F903F902F900C944E
:10494000811F2F2D30E03E832D832C30310544F420
:104950001092100580910E0580FFD9CF80E0B9C17B
:1049600080911105982F937099F7807E8983803606
:1049700011F0803A69F782E195E00E94C905009143
:104980005004109151042091520430915304601747
:10499000710782079307E1F6309116053B833F705C
:1049A000E32EC32ED12C1601A8E02A0E311C2D8136
:1049B0003E81245031093E832D832215330544F274
:1049C00088248A94982C221633064CF4F101EF5E69
:1049D000FA4F2081822E912CD60119961D0140900C
:1049E0005404509055046090560470905704009100
:1049F000170510911805041915090F3F100709F044
:104A000078C021E0421A51086108710820E1E5EA06
:104A1000F3E0DF01322F1D923A95E9F739E4309344
:104A2000A50331E03093AA03ACEFAF0DAC83A093A4
:104A3000B4036093AB037093AC038093AD03909386
:104A4000AE034092AF035092B0036092B1037092F4
:104A5000B203EFEDF4E0A5EFB3E001900D922A95DB
:104A6000E1F74D815E8161E175E082E00E949A0E7E
:104A70009B01AC01ED81FE81EF5EFA4F6081718197
:104A8000828193810E944D2B2617370748075907CB
:104A900009F05ECF8091540490915504A091560482
:104AA000B0915704481659066A067B0638F58415F6
:104AB0009505A605B7050CF44BCF0197A109B109DF
:104AC000481659066A067B0609F042CF8091000518
:104AD000882309F43DCFB981B03A09F039CF80E29B
:104AE0008093FF048114910409F40CC101E010E0EB
:104AF00033C0400E511E611C711C88CF0130104420
:104B000008F026CFD301C2010196A11DB11D8093EB
:104B1000540490935504A0935604B09357043981DC
:104B200080E2303A09F080E0809300058093FF0432
:104B300010E000E08114910441F4EE2031F08D8109
:104B40009E81281639060CF403CF8091FF04811151
:104B500003C09B8194FF09C080917E0490917F04E3
:104B6000806190937F0480937E041092940410924D
:104B7000010580EC9FEF0E94500510920A051092EB
:104B80000C05E0917C04F0917D048E2F877033E05A
:104B9000F695E7953A95E1F7E370F0E0A3E08A9F98
:104BA000E00DF11D1124EB58FD4FE4918091850437
:104BB000082E000C990B80549109ED58FF0B8E1BA9
:104BC0009F0B97FD80E080930305A401B60189E166
:104BD00095E00E940A22012B09F0BACEBFEF8B1696
:104BE0009B0699F12D813E81221933093E832D8345
:104BF0001216130654F5C1018F5E9A4F9A8389836A
:104C000040915004509151046091520470915304AA
:104C10008FED94E08114910411F08FEE94E0AD805B
:104C2000BE80C980DA80EE24E394F12C93018201E6
:104C30000E94B4118114910441F450E040E06D8170
:104C40007E8189819A810E940A2290910D05992383
:104C500049F0AB8120E8A5FF20E480910E05822B6E
:104C600080930E0580910E05181419043CF18062A2
:104C700080930E0520920F0510921005992321F0C4
:104C800080910E0586FD43CE26960FB6F894DEBFC2
:104C90000FBECDBFDF91CF911F910F91FF90EF908D
:104CA000DF90CF90BF90AF909F908F907F906F904C
:104CB0005F904F903F902F900C94F31E80618093F3
:104CC0000E0520920F05FC80F218F0921005D6CF49
:104CD00081E026960FB6F894DEBF0FBECDBFDF9100
:104CE000CF911F910F91FF90EF90DF90CF90BF90E9
:104CF000AF909F908F907F906F905F904F903F907C
:104D00002F900895EE2009F4F1CE01E010E017CFC6
:104D10008091100581110EC0A0910205B0E011969E
:104D200024E234EF0E94632B209109054CEF56E1F9
:104D30000C942E0A0E946824882371F308958091B0
:104D4000100581110BC010920E050E942706655EAA
:104D500078448F4F9F4F42E00E9476110C94682454
:104D60001F920F920FB60F9211242F933F934F93E0
:104D70005F936F937F938F939F93AF93BF93EF93C3
:104D8000FF9387E995E00E94D602FF91EF91BF91D2
:104D9000AF919F918F917F916F915F914F913F91D3
:104DA0002F910F900FBE0F901F9018951F920F928A
:104DB0000FB60F9211242F938F939F93EF93FF932E
:104DC000E091A705F091A8058081E091AD05F091F3
:104DD000AE0582FD1BC090818091B0058F5F8F73FF
:104DE0002091B105821741F0E091B005F0E0E9565D
:104DF000FA4F958F8093B005FF91EF919F918F911E
:104E00002F910F900FBE0F901F9018958081F4CFB7
:104E10001F920F920FB60F9211242F933F938F93EF
:104E20009F93AF93BF938091E3039091E403A0918C
:104E3000E503B091E6033091B50323E0230F2D374E
:104E400058F50196A11DB11D2093B5038093E3038E
:104E50009093E403A093E503B093E6038091B60337
:104E60009091B703A091B803B091B9030196A11D29
:104E7000B11D8093B6039093B703A093B803B0938A
:104E8000B903BF91AF919F918F913F912F910F9057
:104E90000FBE0F901F90189526E8230F0296A11DB4
:104EA000B11DD2CFE7E9F5E01382128288EE93E0DC
:104EB000A0E0B0E084839583A683B7838FE291E07E
:104EC0009183808385EC90E09587848784EC90E0E3
:104ED0009787868780EC90E0918B808B81EC90E0C7
:104EE000938B828B82EC90E0958B848B86EC90E0A8
:104EF000978B868B118E128E138E148E81E491E027
:104F000090933506809334060895CF93DF93CDB701
:104F1000DEB7A0970FB6F894DEBF0FBECDBF789472
:104F200084B5826084BD84B5816084BD85B58260AE
:104F300085BD85B5816085BD80916E00816080935F
:104F40006E001092810080918100826080938100C8
:104F500080918100816080938100809180008160D8
:104F6000809380008091B10084608093B100809133
:104F7000B00081608093B00080917A00846080935B
:104F80007A0080917A00826080937A0080917A0022
:104F9000816080937A0080917A00806880937A00A3
:104FA0001092C100E091A705F091A80582E08083EE
:104FB000E091A305F091A4051082E091A505F09180
:104FC000A60580E180831092AF05E091AB05F091DA
:104FD000AC0586E08083E091A905F091AA05808167
:104FE00080618083E091A905F091AA0580818860A5
:104FF0008083E091A905F091AA0580818068808373
:10500000E091A905F091AA0580818F7D808364E6F7
:1050100070E080E090E00E942D0483E293E00E9423
:105020003C08E3E9F5E084E0DF011D928A95E9F7A9
:105030008DE191E09093F4038093F30384E396E091
:105040009093DA038093D90361E08AE00E94A90378
:1050500061E08AE00E94D70360E089E00E94D70304
:1050600060E082E00E94D70360E086E00E94D70300
:1050700060E087E00E94D7031FB7F8948091D803BF
:10508000811127C0E9EFF2E08491E5EEF2E094911E
:10509000E82FF0E0EE0FFF1FEF52FD4FA591B49106
:1050A000EC91E92321F461E08AE00E94A90361E028
:1050B0008AE00E94D7038CB580618CBD8CB580647A
:1050C0008CBD61E08DE00E94D70361E08BE00E941F
:1050D000D7038091D8038F5F8093D8031FBFEAEC7A
:1050E000F3E08EE0DF011D928A95E9F78FEC95E001
:1050F0009093D3038093D20382E08093CD03F09307
:105100003906E093380681E00E94B4070091F3036A
:105110001091F403F80182818F3F49F060E00E9412
:10512000A90361E0D80112968C910E94D7030E94D6
:105130002706625C7F4F8F4F9F4F0E946A07F801DE
:1051400082818F3F19F060E00E94D7030E942706FA
:10515000685C7E4F8F4F9F4F0E946A0780E00E94DD
:105160003F0D82E40E94700B823109F020C28091D1
:10517000D9039091DA03DC01ED91FC910680F7816F
:10518000E02D0995882341F08BE40E94700B682F75
:1051900060618BE40E94820B82E00E94490D81E0F5
:1051A0000E94700B87708530D1F70AEB13E0B9ECE1
:1051B000CB2EB3E0DB2EA8E0EA2EF12C8CE20E948D
:1051C000700B8170B82E8CE20E94700B8170B81643
:1051D000A9F3F8018181880F8B298183F1E0EF1A0F
:1051E000F10861F70F5F1F4FC016D10621F710E1DC
:1051F0001093BA0380E00E943F0D80E490E090930A
:105200007F0480937E048FEF809323040E94FF111C
:1052100040E150E063E173E0CE0141960E94DD2A57
:1052200040E150E063E073E0CE0101960E94DD2A88
:1052300083E190E0A0E0B0E080934C0490934D04B3
:10524000A0934E04B0934F0485E19AEEAEEDB0E02A
:105250008093500490935104A0935204B09353044C
:10526000FE013196AFEDB4E0812F01900D928A9549
:10527000E1F7FE017196AFEEB4E001900D921A9540
:10528000E1F780917E0490917F0489759D7B986001
:1052900090937F0480937E040E94A50590E080E0B7
:1052A0000E94500510E0812F0E94E1051F5F183019
:1052B000D1F71092010580E89FEF909383048093CB
:1052C000820410920905109205056FE082E00E94A9
:1052D00033058BED93E00E94AF21EFE0BE2EF0E0AE
:1052E000CF2EF0E0DF2E2FB7F8948091E30390915A
:1052F000E403A091E503B091E6032FBF61E091FFC5
:1053000060E08DE00E94A90377EEE72E73E0F72EB0
:1053100010E000E0E091F303F091F403E00FF11FDF
:1053200083818F3FC9F1D7014D905D906D907C9046
:10533000411451046104710479F1F7011082118262
:105340001282138281E00E94700B87FFCEC082E13F
:105350000E94700B8093920583FF45C0F2E04F1AC4
:1053600051086108710840923804509239046092E3
:105370003A0470923B046FEF81E10E94820B6FEF61
:1053800082E10E94820B80E00E943F0D80912A04FE
:1053900090912B040E94D3060F5F1F4FE4E0EE0EA6
:1053A000F11C0330110509F0B5CF0E94D70500911B
:1053B0009505109196050115110509F4C9C0D8018C
:1053C0008D919C9190939605809395050E944B0634
:1053D0000115110509F4DFC0D8011696ED91FC9175
:1053E000C8010995D8C086FF7BC0E0917C04F0918C
:1053F0007D04CF0163E0969587956A95E1F7837008
:1054000061F4E770F0E0EE0FFF1FE45DFC4F859163
:105410009491481A590A6108710840923C045092CC
:105420003D0460923E0470923F048DE10E94700B37
:1054300080FF45C082E20E94700B8093100580E1DE
:105440000E94700B682F8DE00E94820B4091100526
:1054500050E021E061E175E080E00E94070B89E106
:105460000E94700B809386048AE10E94700B282FA3
:1054700030E040914404509145046091460470919D
:10548000470441345D4D6A447F41D8F02D593109BC
:105490009091860497FF18C0A92FBB27A1950CF403
:1054A000B095CD019595879595958795281B390BD6
:1054B000203431059CF4205C209385045CCF83E18B
:1054C000BACF245A3109E4CF2D39BFEF3B079CF303
:1054D0006B2D0E94E62A280F311DEACF2FE7ECCF73
:1054E00087FF49CF1092100546CF8EE30E94700BC4
:1054F0008FE30E94700B83FF0CC0409238045092DF
:10550000390460923A0470923B0481E00E943F0D9E
:105510003ACF82FF1AC040923C0450923D04609200
:105520003E0470923F0482E30E94700B809310054A
:10553000482F50E021E061E175E080E00E94070B18
:105540001092860410928504E0CF10921005DDCFF2
:10555000E0919305F09194053097D9F04280538003
:10556000648075800E942706461A570A680A790ADD
:10557000141415041604170464F000919305109197
:105580009405F8018081918190939405809393050F
:105590001DCF0E944B06C114D10409F4A4CE0E9471
:1055A000C202882309F49FCE0E9400009CCE65E3CE
:1055B00070E08BE693E00E94DE05FB01DC0102C097
:1055C00005900D9241505040D8F70895991B79E00D
:1055D00004C0991F961708F0961B881F7A95C9F783
:1055E00080950895AA1BBB1B51E107C0AA1FBB1FD2
:1055F000A617B70710F0A61BB70B881F991F5A955F
:10560000A9F780959095BC01CD010895A1E21A2ECD
:10561000AA1BBB1BFD010DC0AA1FBB1FEE1FFF1F56
:10562000A217B307E407F50720F0A21BB30BE40BA6
:10563000F50B661F771F881F991F1A9469F76095ED
:105640007095809590959B01AC01BD01CF010895A7
:10565000052E97FB1EF400940E943F2B57FD07D0A8
:105660000E94062B07FC03D04EF40C943F2B509560
:105670004095309521953F4F4F4F5F4F089590953E
:105680008095709561957F4F8F4F9F4F0895EE0FD6
:10569000FF1F0590F491E02D09946927962769274B
:1056A0007827872778270895A29FB001B39FC0016C
:1056B000A39F700D811D1124911DB29F700D811D3E
:1056C0001124911D08950E94542BB7FF0895821B49
:1056D000930B08950E94542BA59F900DB49F900D9D
:1056E000A49F800D911D1124089597FB57FF0C94E2
:1056F000852B9F938F930E94852B6E1B7F0BAF9101
:10570000BF918A0B9B0B0895E894DF93CF93FC0124
:10571000DB010E94542B7F936F93E9019A01AC0146
:10572000BF93AF933F932F93DF010E94542B26F436
:105730006C1B7D0B820B930B9E01EB01FC010E9405
:105740007B2CAF91BF912F913F910E947B2CBE018A
:10575000CF01F9012F913F91CF91DF910895689486
:1057600001C0E8948F929F92CF93DF930E94BD2B4C
:10577000DF91CF919F908F90089588249924F40110
:10578000E401B0E49F93AA279A158B049C04ED05CD
:10579000FE05CF05D007A10798F4AD2FDC2FCF2F42
:1057A000FE2FE92D982C892E982F872F762F652F85
:1057B000542F432F322F2227B85031F7BF9127C0E3
:1057C0001B2EBF91BB27220F331F441F551F661F7F
:1057D000771F881F991F881C991CEE1FFF1FCC1F65
:1057E000DD1FAA1FBB1F8A149B04EC05FD05CE0517
:1057F000DF05A007B10748F08A189B08EC09FD09EE
:10580000CE09DF09A00BB10B21601A94E1F62EF44A
:105810009401AF01BE01CD01000C08952F923F927B
:105820004F925F926F927F928F929F92AF92BF92B0
:10583000CF92DF92EF92FF920F931F93CF93DF935C
:10584000CDB7DEB7CA1BDB0B0FB6F894DEBF0FBEB9
:10585000CDBF09942A88398848885F846E847D8406
:105860008C849B84AA84B984C884DF80EE80FD8008
:105870000C811B81AA81B981CE0FD11D0FB6F8947E
:10588000DEBF0FBECDBFED010895002E083090F0B1
:10589000982F872F762F652F542F432F322F2227B3
:1058A0000850F4CF220F331F441F551F661F771F68
:1058B000881F991F0A95B2F7002D089597FD10943F
:1058C000002E083098F00850232F342F452F562FE4
:1058D000672F782F892F912DF4CF15949795879561
:1058E0007795679557954795379527950A95AAF720
:1058F0001124002D08950E94542B460F571FC81FD6
:10590000D91F08F431960895FB01DC0102C0019013
:105910000D9241505040D8F70895DC0101C06D93BD
:1059200041505040E0F70895B0E0A0E0EAE9FCE221
:105930000C941E2CAE014B5F5F4FFA016191719187
:10594000AF0180913806909139060E94B12CE2E0B7
:105950000C943A2C60913806709139060E94A12E61
:105960000895ABE0B0E0E7EBFCE20C940E2C7C0178
:105970003B018A01FC0117821682838181FFC8C125
:10598000CE0101965C01F7019381F30193FD8591AE
:1059900093FF81913F01882309F453C1853239F483
:1059A00093FD859193FF81913F01853229F4B701E1
:1059B00090E00E94A12EE7CF912C212C312CFFE109
:1059C000F31538F08B3211F190F4803209F1833203
:1059D00029F137FC3CC020ED280F2A3050F536FE67
:1059E00020C08AE0989E200D1124922E06C08D3290
:1059F00091F0803371F7689430F8F30193FD85914D
:105A000093FF81913F018111DACF21C0689431F871
:105A1000689432F8F2CF689433F8EFCF689434F892
:105A2000ECCFEAE02E9E200D1124222E689435F84A
:105A3000E4CF8E3229F436FC04C1689436F8DDCF09
:105A40008C3619F4689437F8D8CF8836B1F2982F8D
:105A50009F7D95549330E0F08336A1F18337C1F1F7
:105A6000833509F063C02801F2E04F0E511CF801A4
:105A7000C080D180692D70E036FC02C06FEF7FEFEF
:105A8000C6010E948B2E4C01689437F882010AC02F
:105A90000C5F1F4FFFE3F98388248394912C6501E9
:105AA000E89437F833FE2DC0522C8114910471F51F
:105AB000552009F468CFB70180E290E00E94A12E42
:105AC0005A94F6CFF801808189830E5F1F4FE4CF8F
:105AD0002801F2E04F0E511CF801C080D180692DE1
