:020000040000FA
:100000000C9432020C945A020C945A020C945A0228
:100010000C945A020C945A020C945A020C945A02F0
:100020000C945A020C945A020C945A020C945A02E0
:100030000C945A020C945A020C945A020C945A02D0
:100040000C941C270C945A020C94EA260C94C42697
:100050000C945A020C945A020C945A020C945A02B0
:100060000C945A020C945A02556E6B6E6F776E2088
:100070006576656E743A200045565F4A4F494E5F7B
:100080005458434F4D504C4554453A206E6F204ACA
:100090006F696E4163636570740045565F545843E1
:1000A000414E43454C454400206279746573206F8E
:1000B0006620504859205061796C6F61643A200085
:1000C00041637475616C2053656E74200020627901
:1000D000746573206F66204672616D65205061798A
:1000E0006C6F61643A204261736536342D646563D8
:1000F0006F6465642068657861646563696D616CCF
:1001000020737472696E67207061796C6F61643AF4
:100110000053656E74200045565F54585354415245
:10012000540045565F4C494E4B5F414C4956450083
:1001300045565F4C494E4B5F444541440045565F30
:100140005258434F4D504C4554450045565F52451B
:100150005345540045565F4C4F53545F5453594ECA
:10016000430046524D5061796C6F61643A20002023
:100170006279746573206F66207061796C6F616459
:100180003A200052656365697665642000526563B4
:1001900065697665642061636B0045565F5458431A
:1001A0004F4D504C4554452028696E636C7564650D
:1001B000732077616974696E6720666F7220525888
:1001C0002077696E646F7773290045565F52454A00
:1001D0004F494E5F4641494C45440045565F4A4FA2
:1001E000494E5F4641494C45440045565F4A4F4998
:1001F0004E45440045565F4A4F494E494E470045DB
:10020000565F424541434F4E5F545241434B454434
:100210000045565F424541434F4E5F4D495353455C
:10022000440045565F424541434F4E5F464F554E51
:10023000440045565F5343414E5F54494D454F5529
:1002400054004F505F5458525850454E442C206E25
:100250006F742073656E64696E67005061636B65CF
:100260007420717565756564000000000023002628
:100270000029000305020501060202050000060030
:100280000001050404000400000002000000010059
:10029000008000000040000000200000002020201E
:1002A0000E11140C0F12090C0F06090C030609009D
:1002B000030613110F0D0B09070540404080EBEBBF
:1002C000080A0C0D0E10121415181A1B1D1E2124DD
:1002D000FF060504030201FFC040000000000025E6
:1002E0000028002B000000000800020100000304A9
:1002F00007000000000000000000000000240027AC
:10030000002A0001020408102040800102040810A5
:10031000200102040810200404040404040404025C
:10032000020202020203030303030343579EA99C34
:10033000F9256204D4778F63A61C0CE9B53B908540
:1003400077E0CF4A7DBE490D40B045537461727469
:10035000696E6700000000006700CC00B80154031C
:100360009D07637C777BF26B6FC53001672BFED7EF
:10037000AB76CA82C97DFA5947F0ADD4A2AF9CA42E
:1003800072C0B7FD9326363FF7CC34A5E5F171D89E
:10039000311504C723C31896059A071280E2EB278C
:1003A000B27509832C1A1B6E5AA0523BD6B329E3AF
:1003B0002F8453D100ED20FCB15B6ACBBE394A4C8F
:1003C00058CFD0EFAAFB434D338545F9027F503C0F
:1003D0009FA851A3408F929D38F5BCB6DA2110FF3B
:1003E000F3D2CD0C13EC5F974417C4A77E3D645D38
:1003F000197360814FDC222A908846EEB814DE5EC5
:100400000BDBE0323A0A4906245CC2D3AC62919518
:10041000E479E7C8376D8DD54EA96C56F4EA657A54
:10042000AE08BA78252E1CA6B4C6E8DD741F4BBDF5
:100430008B8A703EB5664803F60E613557B986C1A2
:100440001D9EE1F8981169D98E949B1E87E9CE55BF
:1004500028DF8CA1890DBFE6426841992D0FB05469
:10046000BB16662711241FBECFEFD8E0DEBFCDBF7D
:1004700026E0ACE9B3E001C01D92A833B207E1F772
:1004800013E0A0E0B1E0EAE8FEE502C005900D92BD
:10049000AC39B107D9F712E0C2E3D2E004C021972A
:1004A000FE010E945B2BC133D107C9F70E94992737
:1004B0000C94432F0C940000FC0120E1215008F41F
:1004C000089580E0211181819191990F87FD9160BC
:1004D000DF0111979C93F2CFAF92BF92CF92DF9240
:1004E000EF92FF920F931F93CF93DF936C017B01E9
:1004F0008B01040F151FEB015E01AE18BF08C0177A
:10050000D10759F06991D601ED91FC910190F081EC
:10051000E02DC6010995892B79F7C501DF91CF91AF
:100520001F910F91FF90EF90DF90CF90BF90AF9011
:100530000895FC01538D448D252F30E0842F90E0E9
:10054000821B930B541710F0CF96089501970895CE
:10055000FC01918D828D981761F0A28DAE0FBF2F97
:10056000B11D5D968C91928D9F5F9F73928F90E0ED
:1005700008958FEF9FEF0895FC01918D828D98175C
:1005800031F0828DE80FF11D858D90E008958FEF99
:100590009FEF0895FC01918D228D892F90E0805C62
:1005A0009F4F821B91098F739927089583E995E0E6
:1005B0000E94CA0221E0892B09F420E0822F0895CD
:1005C00080E090E0892B29F00E94D60281110C94E2
:1005D00000000895FC01A48DA80FB92FB11DA35AE6
:1005E000BF4F2C91848D90E001968F739927848F53
:1005F000A689B7892C93A089B1898C918370806476
:100600008C93938D848D981306C00288F389E02D16
:1006100080818F7D80830895EF92FF920F931F93C7
:10062000CF93DF93EC0181E0888F9B8D8C8D9813A5
:100630001AC0E889F989808185FF15C09FB7F894B1
:10064000EE89FF896083E889F989808183708064FD
:1006500080839FBF81E090E0DF91CF911F910F9148
:10066000FF90EF900895F62E0B8D10E00F5F1F4F57
:100670000F731127E02E8C8D8E110CC00FB607FC66
:10068000FACFE889F989808185FFF5CFCE010E94F4
:10069000EA02F1CFEB8DEC0FFD2FF11DE35AFF4F76
:1006A000F0829FB7F8940B8FEA89FB898081806282
:1006B000CFCF0F931F93CF93DF938C01D0E0C0E097
:1006C000F801EC0FFD1F6491662341F083E995E08A
:1006D0000E940C03892B11F02196F2CFCE01DF91FD
:1006E000CF911F910F910895CF93DF93EC01888DE7
:1006F0008823B9F0AA89BB89E889F9898C9185FD9D
:1007000003C0808186FD0DC00FB607FCF7CF8C912A
:1007100085FFF2CF808185FFEDCFCE010E94EA02F6
:10072000E9CFDF91CF910895833081F028F48130B3
:1007300099F08230A9F008958730A9F08830C9F087
:100740008430B1F4809180008F7D03C0809180005F
:100750008F7780938000089584B58F7784BD089546
:1007600084B58F7DFBCF8091B0008F778093B000F0
:1007700008958091B0008F7DF9CF1F93CF93DF93C1
:10078000282F30E0F901EB51FD4F8491F901ED5F25
:10079000FC4FD491F901E95EFC4FC491CC23A9F040
:1007A000162F81110E949403EC2FF0E0EE0FFF1F33
:1007B000E552FD4FA591B4918FB7F894EC911111CA
:1007C00008C0D095DE23DC938FBFDF91CF911F91BE
:1007D0000895DE2BF8CFCF93DF9390E0FC01ED5F1F
:1007E000FC4F2491895E9C4FFC0184918823D1F0B9
:1007F00090E0880F991FFC01E750FD4FA591B4913F
:10080000FC01E552FD4FC591D49161110EC09FB717
:10081000F8948C91E22FE0958E238C932881E2232B
:10082000E8839FBFDF91CF9108958FB7F894EC9143
:10083000E22BEC938FBFF6CF3FB7F8948091B203D1
:100840009091B303A091B403B091B50326B5A89BD2
:1008500005C02F3F19F00196A11DB11D3FBFBA2F52
:10086000A92F982F8827BC01CD01620F711D811D12
:10087000911D42E0660F771F881F991F4A95D1F797
:1008800008958F929F92AF92BF92CF92DF92EF9294
:10089000FF924B015C010E941C046B017C010E94D1
:1008A0001C046C197D098E099F09683E73408105FF
:1008B0009105A8F321E0821A9108A108B10888EEF9
:1008C000C80E83E0D81EE11CF11C81149104A10420
:1008D000B10429F7FF90EF90DF90CF90BF90AF90D9
:1008E0009F908F9008950F931F9361157105810557
:1008F0009105F9F0009128041091290420912A040F
:1009000030912B04DC01CB01800F911FA21FB31F7C
:100910008093280490932904A0932A04B0932B0475
:1009200080912C0490912D04019690932D04809336
:100930002C041F910F910895FC0120813181211514
:10094000310519F490E080E008952617370749F43F
:10095000FB0120813181FC013183208381E090E023
:100960000895C901E9CF803660F5282F22952F70B0
:1009700030E0220F331FF901E45AFB4F40815181CF
:100980008F7061E070E002C0660F771F8A95E2F712
:10099000CA0186239723892B91F480917404909146
:1009A00075040196909375048093740481E0245A31
:1009B0003B4F462B572BF90151834083089580E02C
:1009C000F6CF80E00895803670F5282F22952F709D
:1009D00030E0220F331FF901E45AFB4F608171812F
:1009E0008F7041E050E002C0440F551F8A95E2F736
:1009F000CA0186239723892BA1F0809174049091DA
:100A000075040197909375048093740481E0245ACF
:100A10003B4F4095509546235723F901518340831E
:100A2000089580E0F4CF80E00895FC0190E080E03C
:100A30006115710509F4089521913191A901569527
:100A4000479545755575241B350BA90143735373A1
:100A5000369527953695279523733373240F351FC5
:100A6000A901407F507F2F703F70A4E0220F331FF9
:100A7000AA95E1F7240F351FA9015527232F332706
:100A8000240F351F820F931F61507109D1CF982F0A
:100A90006038C1F080918D046817A1F060938D04D7
:100AA00081E020918E04291761F090938E0480914B
:100AB0007A0490917B04986090937B0480937A04ED
:100AC00081E0089580E0EDCF20917E0430917F0495
:100AD00020383F4F21F090937F0480937E04089547
:100AE000982F8091CB04E091CA04882361F0EF3005
:100AF000A0F481E08E0F8093CA04F0E0E453FB4F32
:100B0000908381E00895E43348F481E08E0F809370
:100B1000CA04F0E0EA56FB4FF3CF80E00895CF938C
:100B2000DF93C62FD091CA040E947005811106C0C0
:100B3000D093CA0480E0DF91CF9108958C2F0E945A
:100B400070058823A9F381E0F6CF10920405109276
:100B5000050580E294E4AEE1BEE1809358049093F1
:100B60005904A0935A04B0935B048FEF809303055C
:100B70000895109254041092550410925604109245
:100B80005704109250041092510410925204109283
:100B90005304109290041092FD041092FC041092E1
:100BA000FB0410928C04109291041092060510928E
:100BB0000805109202050C94A505FC016081718165
:100BC000828193810895682F83E995E00E940C0348
:100BD00090E080E00895F8948091A0038F5F809367
:100BE000A00308950E94EB05FFCFEF92FF921F93A1
:100BF000CF93DF938C3030F067EA70E08BE491E0C4
:100C00000E94F205880F880F880F98E0980FC82F70
:100C1000D0E010E0E92EF12CCE15DF053CF0812F5D
:100C2000DF91CF911F91FF90EF9008958C2F0E943C
:100C3000E304182B2196F0CFEF92FF921F93CF93EE
:100C4000DF93880F880F880F98E0980FC82FD0E0A7
:100C500010E0E92EF12CCE15DF053CF0812FDF915D
:100C6000CF911F91FF90EF9008958C2F0E94B304B5
:100C7000182B2196F0CF0F931F930E941C04AB01F9
:100C8000BC0120919C03DC01CA013CE1B695A7950B
:100C9000979587953A95D1F782278870820F809330
:100CA0009C03E4E07695679557954795EA95D1F7CB
:100CB0009B01382BC901BA011F910F910895AF9282
:100CC000BF92CF92DF92EF92FF920F931F93CF9339
:100CD000DF938091A00381508093A003811169C0AC
:100CE00078940DE913E0D0E0C0E0BB24B394E09128
:100CF000EF03F091F003EC0FFD1F23812F3F09F468
:100D000051C0F801D080ED2CF12C30E0F901EB510D
:100D1000FD4F8491F901ED5FFC4FC490F901E95E4C
:100D2000FC4FA490AA2009F44FC081110E949403A3
:100D3000EA2DF0E0EE0FFF1FE759FD4FA591B491AA
:100D4000EC91CE2231E020E009F430E0832F922FA5
:100D5000E816F90639F1DB24F801D082DD2011F123
:100D6000CE01880F991F880F991F9C012D513C4F70
:100D70007901F90180819181A281B381892B8A2B2C
:100D80008B2B81F40E943B0661157105810591054D
:100D900021F461E070E080E090E0F701608371830E
:100DA0008283938321960F5F1F4FC330D10509F0D3
:100DB0009ECFDF91CF911F910F91FF90EF90DF9029
:100DC000CF90BF90AF90089590E080E0C1CFCF93D7
:100DD000DF93EC010E94EB058091220490912304A3
:100DE000A0912404B0912504892B8A2B8B2B31F5FB
:100DF00081E995E060E274E00E949C041092210475
:100E000010922004109222041092230410922404C1
:100E100010922504D0932704C0932604E0919105F5
:100E2000F0919205A1E9B5E0309759F480E294E0A1
:100E30008D939C93DF91CF910C945F068FE895E0A2
:100E4000D9CFDF010190F081E02DEECFCF92DF927C
:100E5000EF92FF920F931F93CF93DF93EC016A0100
:100E60007B018901C114D104E104F10421F4C12CF6
:100E7000D12C7601C3940E94EB058A819B81AC81C1
:100E8000BD81892B8A2B8B2B89F581E995E0BE01E9
:100E90000E949C0419821882CA82DB82EC82FD8245
:100EA0001F830E83E0918F05F09190052FE835E0C8
:100EB000309779F082819381A481B5818C199D0945
:100EC000AE09BF09181619061A061B0694F4F98311
:100ED000E883F901D183C083DF91CF911F910F91F6
:100EE000FF90EF90DF90CF900C945F068FE895E035
:100EF000CECF9F010190F081E02DDACFCF92DF922B
:100F0000EF92FF926B017C010E943B06A7019601C4
:100F1000261B370B480B590BDA01C901B7FF0CC070
:100F200066277727CB01621B730B840B950BFF9011
:100F3000EF90DF90CF900895833332E09307A105BF
:100F4000B1058CF068E070E080E090E00E94410420
:100F50000E943B06A7019601261B370B480B590B35
:100F6000DA01C901E9CF181619061A061B0664F43E
:100F700024E0880F991F2A95E1F7880F991F880FA1
:100F8000991F05970197F1F760E070E0CB01CFCF93
:100F9000CF92DF92EF92FF92A091D503B091D6034A
:100FA000682F6170ED91FC9111970190F081E02D17
:100FB000CD0109956B017C01C114D104E104F10458
:100FC00061F00E943B066C0D7D1D8E1D9F1DFF90E4
:100FD000EF90DF90CF900C947E07FF90EF90DF9022
:100FE000CF900895982FE091EF03F091F003818165
:100FF0008F3F39F061E02681291301C060E00C9435
:10100000BD03089581E0089580E00895089560E0AB
:1010100070E0CB010895E1E0F4E084819581948350
:101020009681958397819683878380859285908723
:101030008287818593859187838787859685978722
:10104000958596879485958784870895CF9321E029
:1010500034E0BC01605F7F4FDC01F90140E0CD91DD
:1010600050815C2750834F5F34964430C1F72F5F27
:101070003F4F04968617970779F7CF910895FC01A3
:1010800001900020E9F73197AF01481B590BBC01D3
:1010900083E995E00C946C0283E891E00C943F089E
:1010A000CF93DF930E945903EC010E944C088C0FF0
:1010B0009D1FDF91CF9108958F929F92AF92BF9223
:1010C0000F931F93CF93DF93CDB7DEB7A1970FB6E2
:1010D000F894DEBF0FBECDBF19A2423008F44AE03B
:1010E0008E010F5D1F4F842E912CB12CA12CA501D8
:1010F00094010E941A2BE62FB901CA01EA30F4F4D8
:10110000E05DD801EE938D01232B242B252B79F75D
:1011100090E080E0109719F0CD010E943F08A19661
:101120000FB6F894DEBF0FBECDBFDF91CF911F91F8
:101130000F91BF90AF909F908F900895E95CE1CFA1
:101140000F931F93CF93DF9300D000D0CDB7DEB7BE
:10115000DB011C969C911C971E963C911E971F9636
:101160002C911F971D964C911D9749833A832B8391
:101170009C83BE016B5F7F4F9E012F5F3F4FF90144
:1011800011919F01412F42954F70F0E14F9FA001B7
:101190001124E12FEF70E40FF52FF11DEE59FC4FF4
:1011A0009491A90141505109FA01908326173707FC
:1011B00031F791E05BE1813039F0492F440F97FD21
:1011C00045278150942FF7CF8981982799838D01E6
:1011D00094E0FE013196A801DA018D91AD01619193
:1011E0008627BD0161507109DB018C93BF016150FD
:1011F0007109DB018C93E217F30771F791500C5FD3
:101200001F4F9111E6CF0F900F900F900F90DF912D
:10121000CF911F910F9108953F924F925F926F92DD
:101220007F928F929F92AF92BF92CF92DF92EF9276
:10123000FF920F931F93CF93DF93CDB7DEB76897DD
:101240000FB6F894DEBF0FBECDBF8C0121E0C22ED9
:1012500024E0D22EAC01405F5F4FC6017801FC0153
:10126000D70120E03D9130832F5F34962430D1F7B1
:1012700024E0E20EF11C01964E155F0581F7A1EF07
:10128000B3E0FE01319681E094E05E2E6F2E2D9149
:1012900021938A179B07D9F7852D962D0E94260842
:1012A0004424439485E0A82E84E0B82E4E0139E111
:1012B000830E911C9BE1392E81E094E024E0DC0157
:1012C000712CEC914E2F42954F7030E1439FA0015D
:1012D0001124EF70E40FF52FF11DEE59FC4FE4914E
:1012E000EC937394149654E07512EBCF2150019651
:1012F0002111E5CF0E940B08E1E0F4E0CE01459614
:10130000BE016F5E7F4F9F01D9015C91DC015D934F
:10131000CD01452F440F57FD83C0DB014C932C5F5B
:101320003F4F6F5F7F4F8816990671F78E89398915
:1013300038272F89688D9A8992279627432F492726
:1013400041934D895B899427952793839C898627B0
:1013500084278527892787832427292732273387CE
:10136000AE16BF0659F6652D762D842D0E94A00875
:10137000852D962D0E9426084394BAE04B129CCFEF
:1013800081E094E0DC0140E0EC912E2F22952F705B
:1013900050E1259F90011124EF70E20FF32FF11D12
:1013A000EE59FC4FE491EC934F5F1496443061F793
:1013B0007A9401967110E6CF0E940B08652D762D68
:1013C0008AE00E94A008852D962D0E942608D8014B
:1013D000F60180E090819D938F5F34968430D1F741
:1013E0008FEFC81AD80A0C5F1F4FE016F10679F785
:1013F00068960FB6F894DEBF0FBECDBFDF91CF91D8
:101400001F910F91FF90EF90DF90CF90BF90AF9022
:101410009F908F907F906F905F904F903F90089536
:1014200043257BCFE0918504A0918904A770B0E0AB
:1014300020E43DE043E050E00E947E2B60527F4577
:101440008C4C914E6093400470934104809342040D
:101450009093430480910405E53090F4E81BE63056
:1014600008F0E5E0E0938504F0E0EF52FD4FE491F1
:10147000F0E0EF77E068F0937904E0937804089562
:10148000E5E0ECCF4F925F926F927F928F929F92A6
:10149000AF92BF92CF92DF92EF92FF920F93CF93D2
:1014A000DF9300D000D000D0CDB7DEB76B017C0158
:1014B0005E834D83277084E0289FF0011124EB5751
:1014C000FD4F85919591A591B49189839A83AB83C2
:1014D000BC83409034045090350460903604709082
:1014E000370460911D0470911E046115710531F07F
:1014F000673091E0790710F066E071E090E080E0FD
:10150000A70196010E94892B00E10E94722C4901DB
:101510005A0129813A814B815C81220F331F441F7C
:10152000551FC501B401660F771F881F991F620FF1
:10153000731F841F951F64587F4F8F4F9F4F0E94CA
:101540003C2B2A5F3F4F43E85FEF6FEF7FEF481977
:1015500059096A097B092115A4E03A07B8F18FEF10
:1015600093E09093840480938304C40ED51EE61EFA
:10157000F71E4C0C5D1C6E1C7F1C40923804509270
:10158000390460923A0470923B04B301A2014157BE
:101590005240610971092D813E8180E294E02696D6
:1015A0000FB6F894DEBF0FBECDBFDF91CF910F9184
:1015B000FF90EF90DF90CF90BF90AF909F908F9073
:1015C0007F906F905F904F900C9426073093840427
:1015D00020938304CACFCF92DF92EF92FF922091A3
:1015E000FE0430E0A4E2B4EF0E94682B6B017C01A2
:1015F0000E94120A2091850447E357E1C701B60112
:10160000FF90EF90DF90CF900C94420A0E94120A54
:10161000209185044BE357E164EB74EC84E090E0A7
:101620000C94420AE82FF0E0E053FD4FE491EF3FC5
:1016300009F0815008958F929F92AF92BF92DF92EE
:10164000EF92FF920F931F93CF93DF93D82EEB016E
:101650008A01E22EE091EF03F091F003F0808084A4
:101660009184A284B38481149104A104B10439F457
:1016700020E4822E22E4922E2FE0A22EB12C40E014
:1016800052E16AE770E080E084169506A606B70688
:1016900040F476956795579547958F5F8630A1F70B
:1016A00087E0982F906A9695809581709CBD8DBD3E
:1016B00060E08F2D0E94BD03DEBC00000DB407FE6C
:1016C000FDCF8EB50C0F1D1FC017D10771F080E044
:1016D000E11001C088818EBD00000DB407FEFDCF72
:1016E0008EB5E11088832196EFCF61E08F2DDF91D9
:1016F000CF911F910F91FF90EF90DF90BF90AF902F
:101700009F908F900C94BD03CF93DF931F92CDB722
:10171000DEB721E041E050E0BE016F5F7F4F0E94E5
:101720001B0B89810F90DF91CF910895CF93DF93A9
:101730001F92CDB7DEB7698320E041E050E0BE01E3
:101740006F5F7F4F80680E941B0B0F90DF91CF91DE
:101750000895CF93C82F62E082E00E94960B60E864
:1017600083E00E94960B61E084E00E94960B69E999
:1017700085E00E94960B62E187E20E94960B60ED85
:10178000C11168ED80E30E94960B60E481E30E9442
:10179000960B61EC88E20E94960B64E989E20E9454
:1017A000960B61EC8AE2CF910C94960B0F931F93EA
:1017B000CF93DF93C0918704C4310CF040C0CE308A
:1017C000CCF1C2310CF0C1E161E08091D503909180
:1017D000D6030091400410914104209142043091BD
:1017E0004304DC01ED91FC910084F185E02D4C2F48
:1017F0000995813059F18230E1F1CF301CF5CC30C0
:101800001CF1C067D7E014E06C2F89E00E94960BB2
:101810008DE40E94840B887F682F612B8DE40E94E9
:10182000960B6D2F60628BE0DF91CF911F910F912E
:101830000C94960BCC3F0CF4CCEF60E0C6CF62E08A
:10184000C4E1C3CFCEE0DDCFCC5FDCCF80917804A4
:10185000877011F4CB305CF0C2302CF4C2E0C2507F
:10186000C068DBE0D0CFC231D4F3C1E1F8CFCBE028
:10187000F6CFD0E117E0CFE8C7CFAF92BF92CF92BB
:10188000DF92EF92FF920F931F93CF93DF9380919C
:10189000400490914104A0914204B09143049C0102
:1018A000AD0160E070E080E090E003E10E94592C1F
:1018B000A12CE8E4BE2EF8EECF2EDD24D394E12C4B
:1018C000F12C00E010E00E94C52BC22FB32E6A015C
:1018D0007B01182FD92F00E10E94742C622F86E023
:1018E0000E94960B2C2F3B2DA601B701812F9D2F17
:1018F00008E00E94742C622F87E00E94960B6C2FE8
:1019000088E0DF91CF911F910F91FF90EF90DF90D2
:10191000CF90BF90AF900C94960B1F93CF93DF9313
:101920006091780470917904162F1770CB0133E021
:10193000969587953A95E1F7D82FD370D13059F025
:1019400008F466C0D23009F465C066EC71E086E840
:1019500091E00E94F205C0E8CB0125E096958795BD
:101960002A95E1F78370823009F458C0833009F476
:1019700057C0813009F450C0C260672F77276115C6
:10198000710521F0C16082E20E94960B6C2F8DE1FF
:101990000E94960B60918404637060598FEF810FF1
:1019A0008295807F680F8091780487FF64608EE164
:1019B0000E94960B8BEF810F823010F4DD2391F1A2
:1019C000163011F4D13071F164E086E20E94960B7A
:1019D000C0E063E0D23081F48091400490914104F2
:1019E000A0914204B0914304CFE781349D4DAA44B5
:1019F000BF4108F0C4E662E086E30E94960BCC2368
:101A000099F06C2F8AE3DF91CF911F910C94960B84
:101A1000C0E7A2CFC0E9A0CFC460AFCFC660ADCF52
:101A2000C860ABCF6CE0D1CFDF91CF911F9108950B
:101A3000CF93DF93D82FC82FC77019F081E00E9491
:101A4000C8076D2F81E00E94960BC11105C080E090
:101A5000DF91CF910C94C807DF91CF9108958091C9
:101A6000400490914104A0914204B0914304813418
:101A70009D4DAA44BF4118F488E00C94180D80E0F5
:101A8000FCCF8091400490914104A0914204B09118
:101A9000430481349D4DAA44BF4118F488E80C9456
:101AA000180D80E8FCCFCF93C82F81E00E94840BF3
:101AB000887F8C2BCF910C94180DCF92DF92EF92F0
:101AC000FF92CF93DF93D82F0E94410D81E00E94B7
:101AD000840B87FD06C06BE973E086E891E00E9405
:101AE000F20581E00E94530DD23009F07CC06AE01B
:101AF0008DE10E94960B60E78EE10E94960B63E2F7
:101B00008CE00E94960B60E483E20E94960B809129
:101B10008D05882309F46CC083E30E94840B682F31
:101B20006F7B83E30E94960B8091780490917904F7
:101B300023E0969587952A95E1F7C82FC37081E336
:101B40000E94840B8877682F6360C23008F056C00B
:101B500081E30E94960B60E48FE20E94960B60E4A2
:101B600080E30E94960B609183048FE10E94960BA4
:101B700064E389E30E94960B6CE080E40E94960B7C
:101B80006FEF82E10E94960BED2FF0E0E852FD4FDF
:101B90006491609581E10E94960B80E00E94F207BB
:101BA00060E08DE00E94960B60E08FE00E94960B53
:101BB000D11128C0609138047091390480913A04A1
:101BC00090913B040E947E076B017C0186E00E949D
:101BD000530DC701B601DF91CF91FF90EF90DF90D9
:101BE000CF900C9473040E948D0C0E943D0C87CF03
:101BF00083E30E94840B682F606493CF682F63682F
:101C000081E3AFCF85E0DF91CF91FF90EF90DF9040
:101C1000CF900C94530DCF92DF92EF92FF92CF931F
:101C2000C82F81E00E94840B877069E274E0C1F4E0
:101C300080917804877009F060C0C13041F410923F
:101C40000C0580912604909127040E94E7060E94CB
:101C50002F0D81E00E94840B87FF06C062E074E0D4
:101C600086E891E00E94F20581E00E94530D0E94F7
:101C70003D0C63E28CE00E94960B6EE18DE00E94C9
:101C8000960B6BE082E10E94960B62E183E10E9479
:101C9000960B6AEA8FE10E94960B6FEF81E20E9439
:101CA000960B81E00E94A90B68E380E40E94960BEA
:101CB00080E00E94F207C11118C060913804709151
:101CC000390480913A0490913B040E947E076B0195
:101CD0007C0185E00E94530DC701B601CF91FF90B2
:101CE000EF90DF90CF900C94730485E0CF91FF903C
:101CF000EF90DF90CF900C94530D8C2FCF91FF90ED
:101D0000EF90DF90CF900C945D0D8FEF9FEF90934D
:101D10005D0480935C0490935F0480935E049093D1
:101D200061048093600490936304809362048FEF56
:101D300090E09093650480936404E8E6F4E08CE01E
:101D4000DF011D928A95E9F780E690E09093750493
:101D5000809374048FEF8093890408956F927F922B
:101D60008F929F92AF92BF92CF92DF92EF92FF92AB
:101D70000F931F93CF93DF93CDB7DEB760970FB666
:101D8000F894DEBF0FBECDBF7B018A01282F30E063
:101D9000277F2230310549F02430310509F4CBC0CA
:101DA000232B09F09FC0D12C98C083FD32C081EA5B
:101DB00093E00E940C0990E1692EFE0131966F01BB
:101DC00021EB822E23E0922E37E8732E01151105A8
:101DD00009F060C06091A1037091A2038091A303F8
:101DE0009091A4030E94612B60960FB6F894DEBF19
:101DF0000FBECDBFDF91CF911F910F91FF90EF905C
:101E0000DF90CF90BF90AF909F908F907F906F901A
:101E10000895E1EAF3E080E1DF011D928A95E9F798
:101E2000CACF01151105E9F5E62FF0E0EF55FC4F9B
:101E300080818058808311E0D601E62D1D92EA95BD
:101E4000E9F7C6010E940C090981C6010E945C02E3
:101E500007FF03C088898725888B112349F01981E2
:101E6000C6010E945C0217FF03C088898725888B02
:101E7000F601D5018D915D019191119789278C9380
:101E80008A149B04B1F710E000E081EA93E00E941D
:101E90000C099CCF81EAA82E83E0B82ED7019501CA
:101EA00060E0F90181919F019D91AF01415051097D
:101EB0008927FA0180836F5F7D010150110960312C
:101EC00009F0AFCF0115110501F710E0B5CF8E0D68
:101ED0009F1D0E940C09B0E1DB0E8D2D90E0801754
:101EE0009107A8F360E070E0CB017ECF80E1E1EAEA
:101EF000F3E0DE01119601900D928A95E1F7CE0193
:101F000001960E940C09FE0131969701205F3F4F18
:101F10009191D7018C9189278D937D0101501109F1
:101F2000A217B30719F00115110591F78091B003BD
:101F30008F5F8093B00301151105C1F6D3CF909147
:101F4000B603911106C06CE874E086E891E00E9447
:101F5000F205903141F440E150E066EB73E080E03F
:101F60000E94AE0E90E0E92FF0E0EA54FC4F808131
:101F70009F5F9093B6030895DF92EF92FF920F93C5
:101F80001F93CF93DF936FE270E0009729F08136C3
:101F9000910530F061E370E089EB91E00E94F20579
:101FA000C0918904D0E0CF3F11F4CFEFDFEFECE533
:101FB000F4E028E634E0DF0132961C968D919C9186
:101FC0001D974D915C9184239523938782872E17CB
:101FD0003F0789F766E070E088E694E00E94150507
:101FE0007C01892B09F08FC08CE0ECE5F4E0A8E6D9
:101FF000B4E001900D928A95E1F766E070E088E622
:1020000094E00E9415057C01009709F4DDC041971A
:1020100008F479C010E000E0CF3FDC0751F1C13691
:10202000D1050CF070C09E012F70332781E090E045
:1020300002C0880F991F2A95E2F7FE0144E0F5954A
:10204000E7954A95E1F7EE0FFF1FE859FB4F208116
:1020500031818C0102231323809590958223932351
:10206000918380830115110509F44FC070E1E71ACF
:10207000F1080E949F0FD82E0E949F0F9D2DB7013F
:1020800024E0769567952A95E1F70E94062B34E0C7
:10209000880F991F3A95E1F7E8E6F4E070E060E018
:1020A000219131912115310559F1A9015695479595
:1020B00045755575D901A41BB50BAD014373537319
:1020C000B695A795B695A795A373B3734A0F5B1FF3
:1020D000DA01A07FB07F4F705F7042955295507FBC
:1020E0005427407F54274A0F5B1FDA01BB27452F37
:1020F00055274A0F5B1F8417950780F0841B950BAB
:10210000605F7F4FCDCF10E000E0CFEFDFEFB1CFCA
:10211000A901415051092423352340970097C1F765
:1021200044275527421B530B42235323CA0185756D
:10213000957521E030E0892B11F030E020E0CA01F4
:1021400083739373892B09F447C090E080E0820F7A
:10215000931F9A012F703F70232B09F440C030E089
:1021600020E0820F931F30E020E0411102C028E000
:1021700030E0820F931F860F971FFC0144E0F69515
:10218000E7954A95E1F7EE0FFF1FE859FB4FAC01C9
:102190004F70552721E030E0B90102C0660F771F6C
:1021A0004A95E2F7AB01208131812627352731831B
:1021B0002083CF3FDC07B1F497FD06C08034910542
:1021C0000CF4885F80938904DF91CF911F910F9168
:1021D000FF90EF90DF90089582E090E0B8CF24E088
:1021E00030E0BFCF24E0D595C7952A95E1F7CC0F15
:1021F000DD1FC859DB4F28813981022B132B19832E
:102200000883DACF80914C0490914D04A0914E0444
:10221000B0914F04892B8A2B8B2B09F04BC08091F6
:102220007A0490917B0410928A048E7C977A909322
:102230007B0480937A0410920905109290040E9406
:10224000A5058FEF809389048091740490917504A3
:102250000E94BC0F0E943B066093340470933504C7
:10226000809336049093370480917A0490917B0494
:1022700093FF06C064ED70E089EB91E00E94F205E7
:1022800010928E04E0910305EF3F91F0EF70F0E0C3
:10229000E054FD4FE491E0938D04846090937B04BF
:1022A00080937A0484EE9FE10E94E70681E008951E
:1022B000E3E1F1CF80E00895CF92DF92EF92FF92B9
:1022C000CF93C82F0E949F0FF82E0E949F0F9F2D23
:1022D0006C01853224EF920720F024E2C21A24EF29
:1022E000D20AF12CE12CCC2369F06C2F0E94FA2A3F
:1022F000292F30E0A4E2B4EF0E94682BC60ED71E4F
:10230000E81EF91EC701B601CF91FF90EF90DF9054
:10231000CF900895CF92DF92EF92FF926B017C01F4
:10232000842F442331F00E945C11C60ED71EE81E94
:10233000F91E80918A048823A9F080914404909129
:102340004504A0914604B0914704A7019601281BBB
:10235000390B4A0B5B0BDA01C901181619061A066C
:102360001B068CF4C0924404D0924504E0924604CB
:10237000F092470480917A0490917B04916090934D
:102380007B0480937A04FF90EF90DF90CF900895C4
:10239000AF92BF92CF92DF92EF920F931F93CF93A2
:1023A000DF93DC011A141B04A4F590E1E1EAF3E0E9
:1023B000EF01892F19928A95E9F7F1E0F093B003C4
:1023C000F093A103E092A6034093A7035093A803C0
:1023D0006093A9037093AA030093AB031093AC031B
:1023E0002093AD033093AE03FD01A1EFB3E0019064
:1023F0000D929A95E1F7A501B60184E0DF91CF91A6
:102400001F910F91EF90DF90CF90BF90AF900C9401
:10241000AE0EDF91CF911F910F91EF90DF90CF9093
:10242000BF90AF9008951F93CF93DF93CDB7DEB7E2
:102430002F970FB6F894DEBF0FBECDBF80E00E948D
:10244000530D0E94EB058091220490912304A091EA
:102450002404B0912504892B8A2B8B2B09F047C0CB
:1024600081E995E060E274E00E949C040E945F06AE
:102470008FE0E1E1F4E0DE01119601900D928A9582
:10248000E1F7E1E1F4E08EE791E0DF019C011D92CC
:1024900021503040E1F78FE0FE013196A1E1B4E038
:1024A00001900D928A95E1F70E949F0F182F0E94CC
:1024B0009F0F912F90937D0480937C0410927B0456
:1024C00010927A0410928F0480E8809301050E9494
:1024D000A50581E08093FE042F960FB6F894DEBF29
:1024E0000FBECDBFDF91CF911F910C94850E8FE869
:1024F00095E0B8CF2F923F924F925F926F927F926A
:102500008F929F92AF92BF92CF92DF92EF92FF9203
:102510000F931F93CF93DF93CDB7DEB72A970FB6F4
:10252000F894DEBF0FBECDBF8C010E943B066B014D
:102530007C014AE0F7FE0DC06DE283E995E00E9460
:102540000C0366277727CB016C197D098E099F093B
:102550004AE00E945C0883E193E00E943F08F80192
:102560003197E431F10508F085C3E754FD4E0C9432
:102570005B2BCD12E912EC12EF12F212F5123A16A1
:10258000F812FB12FE127213751378137B137E136D
:102590003A16811334164516371682E392E02A96CE
:1025A0000FB6F894DEBF0FBECDBFDF91CF911F9164
:1025B0000F91FF90EF90DF90CF90BF90AF909F90E2
:1025C0008F907F906F905F904F903F902F900C94E2
:1025D000500882E292E0E3CF81E192E0E0CF8FEF1A
:1025E00091E0DDCF84EF91E0DACF8AEE91E0D7CFB2
:1025F0008BED91E0D4CF8AEC91E0D1CF8AE991E0E4
:102600000E94500880910A0587FF04C08DE891E080
:102610000E94500880910C058823F1F183E891E035
:102620000E94590360910C0570E090E080E04AE060
:102630000E945C088FE691E00E94590382E691E0D7
:102640000E9459031A82198203EF11E080910C0550
:1026500029813A8182171306E9F0E4F0E0910B0535
:10266000C9018F5E9B4FE80FF92FF11DE450FF4F1A
:1026700080811F928F931F930F930E94A82C4981F2
:102680005A814F5F5F4F5A8349830F900F900F908D
:102690000F90DCCF0E944C080E943B06AB01BC01AE
:1026A00048595647664F7F4F23EC31E287ED93E060
:1026B0002A960FB6F894DEBF0FBECDBFDF91CF9143
:1026C0001F910F91FF90EF90DF90CF90BF90AF9050
:1026D0009F908F907F906F905F904F903F902F9042
:1026E0000C94260784E591E05ACF8BE491E057CF14
:1026F0008DE391E054CF80E391E051CF82E291E00D
:102700004ECF87E191E00E9450081F9281E08F93A5
:1027100088EF91E09F938F930E94A82C1F9282E0F4
:102720008F9381E292E09F938F930E94A82CA090B8
:102730000C050FB6F894DEBF0FBECDBFAA2009F47A
:10274000A4C2C0907804D09079040C2D07700A5F61
:10275000960143E0369527954A95E1F72370C60127
:1027600055E0969587955A95E1F7837080908D0492
:10277000E0905404F090550471E0E71AF10815E078
:10278000882339F016E0813021F017E0823009F01B
:1027900018E0222349F03AEFB32E213039F094EFBC
:1027A000B92E9924939403C02DE7B22E912CC0909A
:1027B00040047090410460904204509043040E9491
:1027C0003B061F92DF92FF92EF921F921F939F9200
:1027D000BF921F928F921F920F931F92AF925F92A0
:1027E0006F927F92CF929F938F937F936F9385E4A5
:1027F00092E09F938F930E94A82C80918C041F924B
:102800008F9382E992E09F938F930E94A82C81E19D
:1028100091E00E9459036091950470E090E080E09F
:102820004AE00E945C088DEC90E00E9459030FB6CC
:10283000F894DEBF0FBECDBFF12CE12C03EF11E009
:10284000809195048E151F04D1F0CCF0E0910B051A
:10285000C7018F5E9B4FE80FF92FF11DEB57FF4F1C
:1028600080811F928F931F930F930E94A82C9FEF3C
:10287000E91AF90A0F900F900F900F90E1CF0E9484
:102880004C0880EC90E00E94590360910C0570E0C8
:1028900090E080E04AE00E945C0888EA90E00E94B4
:1028A0005903F12CE12C03EF11E080910C058E15FA
:1028B0001F04D1F0CCF0E0910B05C7018F5E9B4F58
:1028C000E80FF92FF11DE450FF4F80811F928F9385
:1028D0001F930F930E94A82CEFEFEE1AFE0A0F90A1
:1028E0000F900F900F90E1CF0E944C0880910C0543
:1028F0001F928F9386EA92E09F938F930E94A82C59
:1029000000910C050450110B0F900F900F900F9039
:1029100083EFE82E81E0F82E80910C0580171106D8
:10292000C9F0C4F0E0910B05C8018F5E9B4FE80F22
:10293000F92FF11DE450FF4F80811F928F93FF927A
:10294000EF920E94A82C0F5F1F4F0F900F900F90D7
:102950000F90E2CF0E944C0820910C054DE055E00D
:102960005C834B8390E080E01A821982622F70E0D2
:1029700078876F83EF81F88529813A812E173F0789
:102980000CF048C1EB81FC812191FC83EB83022E8A
:10299000000C330B6C014CE0D594C7944A95E1F7D9
:1029A000A92FBB27A7FDBA95AC25BD253D01622601
:1029B0007326F1E06F2277247C016DE0F594E794B3
:1029C0006A95E1F75C01AB2CBB0CBB08A594AE2467
:1029D000BF244901959487948A249B24880C991CD0
:1029E00042E084229924862897288C01110F000B3D
:1029F000110F102F001F2C01452C550C5508459424
:102A0000459440265126F901F595E795F595E7950A
:102A1000E425F525EE0FFF1FEE0FFF1FE470FF27E3
:102A2000E80DF91D592F551F5527551F59871A862F
:102A30001C014BE0359427944A95E1F723FB662768
:102A400060F96D831E82A1014170552769857A85E1
:102A5000462757276D817E814627572763E0440F1D
:102A6000551F6A95E1F74E0F5F1FB901E4E07595B8
:102A70006795EA95E1F76C257D25F4E0660F771FF1
:102A8000FA95E1F760717727460F571FF90165E066
:102A9000F595E7956A95E1F7BD016E257F256E27CF
:102AA0007F27E5E0660F771FEA95E1F760727727E9
:102AB000640F751FA50140275127F901689415F887
:102AC000F595E7951694E1F74E275F27E6E0440F6A
:102AD000551FEA95E1F740745527640F751F4201B1
:102AE000E1E08E22992449855A858426952622275D
:102AF000330F221F3327282539253695322F2227D9
:102B000037952795260F371FB10168277927617000
:102B1000772764277527762F6627620F731F3C017E
:102B200075946794C624D724DC2CCC24DD0CCC24EB
:102B300052E0D5226C0D7D1DAC01559547955595FC
:102B400047954E255F25542F4427550F550F442791
:102B50005470640F751FFC0123E0F595E7952A95E5
:102B6000E1F7E027F127FE2FEE27FF0FFF0FFF0F02
:102B7000EE27F8706E0F7F1F9C0144E03595279576
:102B80004A95E1F7A227B327A170BB27E985FA850B
:102B9000AE27BF27BA2FAA27B295B07F6A0F7B1F37
:102BA0009C01E5E035952795EA95E1F72A253B2537
:102BB000322F22273295330F307E22273072620F58
:102BC000731F9C01A6E035952795AA95E1F742264B
:102BD0005326B0E44B9E502C442411244424F0E4AA
:102BE0005F22640D751D880F892F881F990B822520
:102BF000932529853A858227932799278695979546
:102C00008827860F971F49815A814F5F5F4F5A83EC
:102C10004983B0CE9F938F939F938F938FEB92E0D6
:102C20009F938F930E94A82C0F900F900F900F905E
:102C30000F900F902A960FB6F894DEBF0FBECDBF4F
:102C4000DF91CF911F910F91FF90EF90DF90CF9088
:102C5000BF90AF909F908F907F906F905F904F90BC
:102C60003F902F900C944C088AE990E098CC88E72C
:102C700090E095CC88E690E00E945903B80190E07E
:102C800080E04AE00E945C08D5CF2A960FB6F894FF
:102C9000DEBF0FBECDBFDF91CF911F910F91FF908F
:102CA000EF90DF90CF90BF90AF909F908F907F90EC
:102CB0006F905F904F903F902F900895CF92DF924A
:102CC000EF92FF92CF93DF93EC01C12CD12C7601D0
:102CD000C3940C2E04C0CC0CDD1CEE1CFF1C0A940B
:102CE000D2F7E3FC03C0CE010E947A12D701C601DD
:102CF00088279472AA27BB27892B8A2B8B2B01F15B
:102D0000E0911504F09116043097D1F020910C0554
:102D100040910B05211102C0442391F080910A05D6
:102D200050E060E084FF04C0DA01A45FBA4F6C9108
:102D300030E0435F5A4F8091170490911804099531
:102D4000CC2484E0D822E822FF24CD28CE28CF2826
:102D500019F1E0911904F0911A043097E9F01092FA
:102D60001A0410921904C231D10541F180910A056B
:102D700083FD24C09091940461E0992339F0082EDA
:102D8000000C990B692F661F6627661F70E0809103
:102D90001B0490911C040995E0911104F091120418
:102DA000309771F0BE018091130490911404DF916B
:102DB000CF91FF90EF90DF90CF90099460E0E6CF45
:102DC000DF91CF91FF90EF90DF90CF90089582E058
:102DD00080930A05E0910505F0E0EF52FD4FE49184
:102DE000F0E0EF77E068F0937904E0937804809165
:102DF000580490915904A0915A04B0915B048093B7
:102E0000400490934104A0934204B0934304109271
:102E10000C0583E190E00E945E1680E00C940B0E9E
:102E200083EB96E290932704809326040C94E71694
:102E300085EB91E290932704809326040C94E71687
:102E400021E020930A05E8E7F4E020813181206841
:102E50003183208310920C059093270480932604DD
:102E600083E190E00E945E1680E00C940B0E8CE9EA
:102E700096E20C94201782EA91E20C9420172F928C
:102E80003F924F925F926F927F928F929F92AF92FA
:102E9000BF92CF92DF92EF92FF920F931F93CF9347
:102EA000DF93CDB7DEB7CB58D1090FB6F894DEBFAC
:102EB0000FBECDBF80918004811149C781E080930E
:102EC000800480917A0490917B049C01217C3327BB
:102ED000232B81F440914C0450914D0460914E0499
:102EE00070914F04452B462B472B29F582FD2FC0AF
:102EF0000E9402118091800481508093800481118E
:102F0000E0CFC557DF4F0FB6F894DEBF0FBECDBF81
:102F1000DF91CF911F910F91FF90EF90DF90CF90B5
:102F2000BF90AF909F908F907F906F905F904F90E9
:102F30003F902F90089596FF0AC09F7B90937B044B
:102F400080937A0481EF9EE10E94E706D3CF0E942E
:102F50003B066B017C0100917A0410917B04C8014F
:102F60008C739927892B09F4E7C613FF58C1809108
:102F7000740490917504009711F00E94BC0FC092E8
:102F80003404D0923504E0923604F09237048091F4
:102F90007A0490917B04977F90937B0480937A04CA
:102FA000B701A60180918A04811106C080917A043C
:102FB00090917B0490FF12C080914404909145044D
:102FC000A0914604B09147042A013B01481A590ACE
:102FD0006A0A7B0A77FE02C0AC01BD0121E7C20E7E
:102FE00022E0D21EE11CF11CDB01CA018C199D09F3
:102FF000AE09BF09B7FF8CC630918E04CF57DF4FA3
:103000003883C158D04004721127012B09F41FC125
:1030100080917A041091900485FD16C110920D05DF
:1030200090917C0480917D0490931E0580931F05F0
:1030300043E150E06DE075E08AE00E94AE0E6093DF
:10304000230570932205809321059093200587E145
:1030500080930C0580917C0490917D04019690935F
:103060007D0480937C0486E09BE09093270480930A
:103070002604CF57DF4FC880C158D040EC2DF0E078
:10308000EF52FD4FE49180918F0420E2829FC001B6
:103090001124EF798E2B9093790480937804C09259
:1030A000850480917A0490917B048F76967F806866
:1030B000986090937B0480937A04A0918904A03651
:1030C00070F5B0E020E43DE043E050E00E947E2B4C
:1030D0008B019C01005A1A4C274F334E00364FE9A2
:1030E000140740E224074CE1340708F0E9C4605AB1
:1030F000764A8340934E60934004709341048093DA
:10310000420490934304E0910305EF3F09F456C550
:10311000EF70F0E0E054FD4FE491E093860490916D
:103120008D048091860498170CF4892F809387046E
:1031300081E190E00E945E161092340410923504F2
:10314000109236041092370481E00E94840B87703D
:1031500059F080E00E94530D0E943B06625C7F4F55
:103160008F4F9F4F0E947E0740903C0450903D043B
:1031700060903E0470903F04141415041604170464
:103180000CF021C581E00E945D0D8091400490917A
:103190004104A0914204B091430481349D4DAA445E
:1031A000BF4108F40DC583E69FEFE091EF03F09176
:1031B000F00327817C01E20EF11C27FDFA940E94A6
:1031C0003B06615E7F4F8F4F9F4F0E947E070E949C
:1031D0003B0610E0460E571E681E791E8BE10E94CA
:1031E000840B181708F4182F0E943B066419750900
:1031F0008609970997FDF2CF80E00E94530D8091D8
:103200008804082E000C990BE10EF11CE816F90653
:103210000CF4D9C4809126049091270495CE409156
:103220003404509135046091360470913704BACE5D
:10323000CF57DF4F8881C158D0400E94120BCF5723
:10324000DF4F8883C158D040115090F7E7CE80916E
:10325000500490915104A0915204B09153048038CD
:103260009F4FAF4FBF4F18F087EE9EE16DCE80911C
:10327000090581110DC08091540490915504A091CD
:103280005604B09157048F3F9F4FAF4FBF4F61F32C
:10329000E0907A04F0907B0478E1E722FF2480E15B
:1032A000E816F10409F4EBC1A09095048091930411
:1032B000882309F4E6C18091CB04882309F4E1C195
:1032C0000091CA04002309F4DCC110E0A8016CECF1
:1032D00074E085E195E00E94982C085F1F4F1092E2
:1032E000CA041092CB0480910605882331F086FF32
:1032F000CBC190E489278093060580910705882338
:1033000031F086FFD1C190E4892780930705809131
:103310000805823009F0D8C181E0809308050931A1
:1033200011050CF0ACC38091FD04882361F08091FD
:103330007E0490917F0497FF04C090E080E00E949B
:1033400064051092FD046A2C712C25E0620E711C3C
:10335000F0E1EF16F10419F4A4E06A2E712C600E6E
:10336000711E31E4631671040CF0B9C191E040E1C3
:10337000E416F10409F490E0E0918E04E63008F0E0
:10338000B3C1F0E0E654FD4FE491E615170408F4EC
:1033900076C380E480930D058091FB044091010584
:1033A000482B20917E0430917F0437FD9FC121522C
:1033B0003109203B324008F499C120E488EF800FA6
:1033C000842B822B8093120540914C0430914D0444
:1033D00020914E0480914F0440930E0530930F05C9
:1033E000209310058093110580910905811118C063
:1033F00020919104211114C040915404509155041E
:1034000060915604709157044F5F5F4F6F4F7F4F2D
:10341000409354045093550460935604709357049A
:103420002091540430915504215031092093130503
:10343000309314051092FB049923D9F190919404D0
:10344000992309F455C190E890930D05811103C0AB
:1034500081E080930905F801E35FFA4F80919304BE
:103460008083C801825F9A4F6C01B12CA50166E987
:1034700074E00E94982C00915404109155042091FE
:103480005604309157040150110921093109409126
:103490004C0450914D0460914E0470914F04809102
:1034A0009304811132C18BED94E0F12CE12C0E9448
:1034B000C81183010450110980915404909155045E
:1034C000A0915604B09157040197A109B1096091E8
:1034D0004C0450914D0440914E0430914F0420E132
:1034E000E1EAF3E0C22E1192CA94E9F779E470930D
:1034F000A1031092A6030093B0036093A703509317
:10350000A8034093A9033093AA038093AB0390933D
:10351000AC03A093AD03B093AE03EBEDF4E0A1EFE9
:10352000B3E001900D922A95E1F7A8016DE075E0F6
:1035300082E00E94AE0EF801E35FFA4F638372836C
:103540008183908360920C057F926F9226EF32E028
:103550003F932F930E94A82C0F900F900F900F90E5
:1035600010E000E080910C058017110611F00CF0BE
:10357000CFC08AE090E00E94BE2C80910C051F9283
:103580008F93E6E1F3E0FF93EF930E94A82C009164
:103590000C050450110B0F900F900F900F9080911D
:1035A0000C058017110611F00CF0CCC08AE090E0F9
:1035B0000E94BE2C80910C05ADE0B5E0CC57DF4FEA
:1035C000B983A883C458D040CA57DF4FB983A883B2
:1035D000C658D04010E000E0912C812CC82ED12C90
:1035E000C657DF4FD982C882CA58D040C657DF4F6E
:1035F00048815981CA58D040841695060CF4B8C049
:103600001F930F931F930F9380E393E09F938F93E8
:103610000E94A82C19831A8211271C830B831091F6
:103620000C05412F50E0FE0135960F900F900F9042
:103630000F900F900F90ADE0B5E090E080E0841720
:1036400095070CF404C2440F551F70E060E08DE054
:1036500095E00E94A12C1E5F10930C05FE0131968F
:1036600030E020E0812F90E0281739070CF4F5C1F5
:10367000EBEEFAE0F0932704E0932604FACCA12CB9
:103680001ACE08E010E02BCE98012F5E3B4FF901D7
:10369000E450FF4F95E0908323503F4F8770D9014E
:1036A0008C930E5F1F4F29CE98012F5E3B4FF9017F
:1036B000E450FF4F9AE0908323503F4F8370F9010D
:1036C00080830E5F1F4F23CE882309F428CEF80194
:1036D000E35FFA4F88E080830F5F1F4F20CE3801F1
:1036E00054E0650E711C47CEE0E04FCE20E066CE80
:1036F00080918C04882309F4AECE809191048111CD
:10370000AACE81E080939104A6CE8BEE94E0CDCE3C
:10371000E0910B05C8018F5E9B4FE80FF92FF11D5B
:10372000E450FF4F80811F928F9383EF91E09F932E
:103730008F930E94A82C0F5F1F4F0F900F900F9038
:103740000F9010CFE0910B05C8018F5E9B4FE80FE3
:10375000F92FF11DE450FF4F80811F928F9323EFCB
:1037600031E03F932F930E94A82C0F5F1F4F13CF80
:10377000CA57DF4FA881B981C658D040BD90CA57FB
:10378000DF4FB983A883C658D04078019CE0F594F8
:10379000E7949A95E1F7212E332427FC3A942E24BE
:1037A0003F244B2D0B2C000C550B42255325CA01F1
:1037B00081709927D801A8E0BA02A12DBB0B112472
:1037C0009801232F330F330B2595F901EA27FB27A7
:1037D000CE57DF4FF983E883C258D0402B2D259573
:1037E000022E000C330B2E273F27220F331F22708F
:1037F0003327822B932BF801FF0FEE0BFF0FFE2FC9
:10380000EE1F2801452C550C5508459445944E262D
:103810005F262B2D25952595022E000C330B242594
:103820003525220F331F220F331F24703327280F13
:10383000391FA8014427550F441F5527B80160E2DE
:103840007602612D770B1124CB0181709927842793
:103850009527B3FACC24C0F8C857DF4FC882C858A0
:10386000D040C757DF4F1882C958D040C857DF4FE4
:10387000C880D980C858D0408C259D25880F991FB5
:10388000880F991F880F991F280F391F8B2D859539
:10389000859585958595082E000C990B8E259F257D
:1038A00082959295907F9827807F9827807199279D
:1038B000820F931F2B2D25952595259525952595CB
:1038C000022E000C330B6D01C224D3242C253D2580
:1038D000689414F8220F331F1694E1F720723327EF
:1038E000820F931FCE57DF4F28813981C258D040B5
:1038F0002E273F27CB2CC6FACC0CCC08C0F80C2CBA
:10390000000CDD082C253D25689415F8220F331F87
:103910001694E1F720743327820F931F320121E0C0
:103920006222772464267526BB1CBB24BB1C6B2437
:103930007694762C662477946794680E791ECB0172
:10394000802791278170992784279527982F88278A
:10395000860D971D980135952795E226F326FE2CB6
:10396000EE24FF0CEE2432E0F3228E0D9F1D680141
:10397000D594C794D594C794CA26DB26DC2CCC24D6
:10398000DD0CDD0CCC24A4E0DA228C0D9D1D380169
:10399000B3E075946794BA95E1F76E267F26762C8E
:1039A0006624770C770C770C6624B8E07B22860DB2
:1039B000971D9801E4E035952795EA95E1F72226D1
:1039C0003326E1E02E22332424263526322C2224ED
:1039D0003294F0EF3F22820D931D9801A5E03595BA
:1039E0002795AA95E1F7CE57DF4FC880D980C258F6
:1039F000D0402C253D25322F22273295330F307EA3
:103A000022273072820F931FD80126E0B595A79523
:103A10002A95E1F7A425B525B0E4AB9FB02DAA27E0
:103A20001124AA27B0748A0F9B1F000F012F001FBB
:103A3000110B062717270427152711270695179519
:103A40000027080F191F2FEF821A920ACFCD2D9150
:103A500030E0219331930196F2CD40813296CC57DC
:103A6000DF4FA881B981C458D0404D93CC57DF4F68
:103A7000B983A883C458D0402F5F3F4FF5CD88E06D
:103A800080930A0580919404811104C080910905F6
:103A9000882319F088E480930A0580917A04909134
:103AA0007B0487769E7F90937B0480937A041092A8
:103AB0000C0510920B058AE090E00E945E161ACA6F
:103AC000003659E0150759E325075CE1350728F46E
:103AD000605A70418C41934E0ECB0036A3E71A0713
:103AE000A1E52A07ACE13A0728F4605A7A478443F3
:103AF000934E01CB0036BDED1B07B9E62B07BCE1A9
:103B00003B0728F4605A744E8C44934EF4CA003636
:103B1000E7E41E07E2E82E07ECE13E0728F4605ACE
:103B20007E448546934EE7CA0036F1EB1F07FAE95B
:103B30002F07FCE13F0728F4605A784B8D47934EDE
:103B4000DACA00364BE1140743EB24074CE1340793
:103B500028F4605A72428649934ECDCA003655E821
:103B600015075BEC25075CE1350728F4605A7C48B3
:103B70008E4A934EC0CA0036AFEE1A07A3EE2A074C
:103B8000ACE13A0728F4605A764F864C934EB3CA9C
:103B90000036B9E51B07BCEF2B07BCE13B0728F457
:103BA000605A70468F4D934EA6CA009340041093FE
:103BB00041042093420430934304A5CAE3E1ADCA13
:103BC0008CE59FEFF2CA80917804877009F06AC093
:103BD0000E942F0D81E00E94530D80E00E94A90BEE
:103BE00060E085E20E94960B65E086E20E94960BFB
:103BF0000E943D0C0E94D60B69E28AE00E94960B5F
:103C000064E380E40E94960B60910C056F5F82E391
:103C10000E94960B60910C0580E00E94960B4091EB
:103C20000C0550E020E06DE075E080E80E941B0B81
:103C300081E00E94F2076091340470913504809114
:103C4000360490913704611571058105910531F1B4
:103C50000E947E076115710581059105F9F00091BB
:103C60002E0410912F042091300430913104DC0196
:103C7000CB01800F911FA21FB31F80932E0490933E
:103C80002F04A0933004B0933104809132049091BA
:103C900033040196909333048093320483E00E94AE
:103CA000530D28C90E94410D81E00E94840B87FDBD
:103CB00006C061E273E086E891E00E94F20581E0CF
:103CC0000E94530D0E948D0C0E943D0C68E08AE01A
:103CD0000E94960B0E94D60B64E389E30E94960B28
:103CE0006CE780E40E94960B6FEF82E10E94960BD6
:103CF00067EF81E10E94960B60E08EE00E94960BD8
:103D000060E08DE00E94960B60910C0582E285CF09
:103D100080917A0481FF05C0411551056105710547
:103D200089F0415752406109710925E03FE180E285
:103D300094E00E942607DEC840E050E0BA0101FD91
:103D4000F0CFD8C841E050E060E070E0EACF82E018
:103D500080938004D6C880917A0490917B0483FF7D
:103D600035C01092950482FF2CC0877E90937B040F
:103D700080937A0482E190E00E945E1680917A043A
:103D800090917B0485709927892B01F50E94EB05A2
:103D90008091220490912304A0912404B0912504E1
:103DA000892B8A2B8B2B79F481E995E060E274E012
:103DB0000E949C040E945F0680E00E94530D0C94B8
:103DC0003F178776D3CF8FE895E0F0CF08950E9414
:103DD000AB1E0E9413128CE090E00E945E160C94C1
:103DE0000211EAE7F4E0808191818E7D9F7B9183CF
:103DF000808310924C0410924D0410924E04109245
:103E00004F040E94AB1E0C9402110C943F17CF93E9
:103E100080917A0490917B04877790937B048093C0
:103E20007A0410929104109209052091CA04222369
:103E300051F03091CB04332309F466C08061909334
:103E40007B0480937A040E943B066E5E75488F4F18
:103E50009F4F40E00E948A1180910A05877079F097
:103E600080917A0490917B0494FF09C09F7E909387
:103E70007B0480937A048FE090E00E945E168AE0D3
:103E800090E00E945E160E943F1780917E04909100
:103E90007F048197B4F180918E040E94120BC82F89
:103EA000209174043091750480918E04273031057F
:103EB00008F4C82F8C1332C080917E0490917F0447
:103EC000813F92404CF080917A0490917B04906401
:103ED00090937B0480937A0463E18C2F0E944705C2
:103EE00080917A0490917B049C01306130937B0433
:103EF00020937A042817390721F08EE090E00E9481
:103F00005E1681E0CF91089510929404109293046C
:103F1000209395041092CA04886091CFCC23E1F2DB
:103F200090E080E00E946405D7CF80910905882346
:103F3000B1F1883020F58F5F8093090580FF07C0BD
:103F400080918E040E94120B60E80E9447056091E8
:103F500038047091390480913A0490913B0443E015
:103F60000E948A1180917A0490917B048F779093BC
:103F70007B0480937A040E943F1781E0089580E6D5
:103F800080930A0580917E0490917F0401960E949F
:103F9000640510920C0510920B050C94071F80917C
:103FA0009104882379F090918C04891758F48F5FDD
:103FB000809391040E943B066E5E75488F4F9F4F21
:103FC00040E0CECF80E2DCCF80919204882341F0A4
:103FD0000E94850E85E090E00E945E160C943F17CB
:103FE00081E080939204F6CFCF92DF92EF92FF921E
:103FF000CF93DF9380917A0490917B0482FD22C05D
:1040000085FD0DC08F7790937B0480937A0481E0C7
:10401000DF91CF91FF90EF90DF90CF9008958F7553
:1040200090937B0480937A04809190048A3018F4F2
:104030008F5F8093900489E090E00E945E160E945A
:104040003F17E5CF8F7790937B0480937A0484E1C8
:1040500090E00E945E1680918B0480938904809189
:104060007404909175040E94BC0F809109058F5FC4
:1040700080930905C82FC77010928E0480917A042E
:1040800090917B04977F90937B0480937A040E94A5
:104090003B066B017C0120918E0480E190E002C020
:1040A000959587952A95E2F70E945C11C60ED71E5A
:1040B000E81EF91EC0923404D0923504E092360412
:1040C000F0923704C12CD12C7601C394CC2399F003
:1040D000C12CD12C7601C5E0DFE10E943B06AB018B
:1040E000BC014C0D5D1D6E1D7F1D9E0180E294E0A4
:1040F0000E9426078CCFCDEBD1E2EFCF80910A054D
:1041000080FF0C94F41F80E00895CF92DF92EF922D
:10411000FF920F931F93CF93DF9380910A0580FF47
:1041200005C080910C05882309F402C180917A04AE
:1041300090917B0487FFE6C084729927892B51F404
:10414000DF91CF911F910F91FF90EF90DF90CF9073
:104150000C947E2010910C0511110AC0DF91CF91B3
:104160001F910F91FF90EF90DF90CF900C94F41F70
:10417000113111F0113221F780910D05837E8032CB
:10418000F9F6C12FD0E0AE01415051096EE075E063
:1041900080E00E94AE0E2497AE016DE075E08AE0EB
:1041A0000E94AE0E6B017C01C35FDA4F688179819A
:1041B0008A819B810E94612BC616D706E806F90604
:1041C00009F0BECF84E195E00E94DD0560934C04C8
:1041D00070934D0480934E0490934F0481E195E0D9
:1041E0000E94DD05992760934804709349048093E9
:1041F0004A0490934B041132D1F480912905813007
:10420000B1F49AE1E92E95E0F92EC0E0D7011196BC
:104210000C9111978C91102F082FD0E1DC0FDC133B
:1042200073C0B2E0EB0EF11CCD2FD03679F7809140
:104230007C0490917D040197E3EEF4E028E0DF0137
:104240001D922A95E9F721E02093DB0426E0EEE0B9
:10425000F5E0ACEDB4E001900D922A95E1F7809382
:10426000E2049093E30480E1EBEDF4E0ABEEB4E024
:1042700001900D928A95E1F782E08093EB0440E192
:1042800050E06BED74E080E00E94AE0E40E150E043
:104290006BEE74E080E00E94AE0E80917A0485FFA0
:1042A00008C0C091900480918E04C150E0F58093C5
:1042B0008E0480917A0490917B0489759D7F98602B
:1042C00090937B0480937A04109209050E94B905AB
:1042D00080EC9FEF0E94640580911805982F9F70D5
:1042E0009093050582958770809304058091190548
:1042F0008823E1F08093FE0486E090E00E945E1641
:104300000E943F1781E015C0C03609F48ACF8C2F78
:1043100000FF06C00E94B304CF5F169507957FCFBC
:104320000E94E304F9CF0E94120BBFCF81E0E2CFDD
:1043300080E0DF91CF911F910F91FF90EF90DF9080
:10434000CF90089580910C0581110AC02091050538
:1043500048E157E168ED78EB85E090E00C94420A83
:104360000E948520882391F3089580910C05811186
:1043700002C010920A050C94852088E090E00E940B
:104380005E160C943F1780917A0490917B0487FF0E
:1043900004C082E492E00C9450088C799927892B10
:1043A000E1F430918E044091740450917504832F90
:1043B00090E04730510588F0863078F4FC01E654EF
:1043C000FD4FE491EE2349F0E93290F5FC01EE5205
:1043D000FD4FE4910196EF3F61F780917A0490914F
:1043E0007B049C012C793327232BF9F42CE1E0E0AA
:1043F000F1E0A6E9B4E001900D922A95E1F7109260
:10440000940421E0209393042CE1209395049C01D3
:10441000286030937B0420937A0482FD04C01092BC
:104420000905109291040E943F178BE592E0B3CFEB
:10443000381799F260E80E944705CFCF2F923F923C
:104440004F925F926F927F928F929F92AF92BF92A4
:10445000CF92DF92EF92FF920F931F93CF93DF9350
:10446000CDB7DEB76C970FB6F894DEBF0FBECDBFE9
:10447000998F888F3B011092CA04452B09F5109241
:10448000CB04F12CE12CE614F704F4F0C7016C9690
:104490000FB6F894DEBF0FBECDBFDF91CF911F9155
:1044A0000F91FF90EF90DF90CF90BF90AF909F90D3
:1044B0008F907F906F905F904F903F902F900895D6
:1044C00081E08093CB04DDCFC88CD98CCE0CDF1C6F
:1044D000F6012081223050F1422F4250550BFA0153
:1044E0004231510518F5ED58FD4FE4918E2F90E0C3
:1044F0009D8B8C8B892B51F2C3018E199F09EC89FE
:10450000FD898E179F070CF4C1CF2250283080F40C
:10451000E22FF0E0E257FD4D0C945B2B9922A12293
:104520006424ED23C123982256247524E0E0DECFD5
:104530003701EC89FD89EE0DFF1D730137017F0105
:10454000A2CFD60107E01B8A1A8A2A893B892B5FF2
:104550003F4F49019C014A895B89241B350B25305B
:1045600031050CF493C011962C91119712964D9130
:104570005C91139714963C9114973077E22FE29553
:10458000EF70303558F0303509F078C041155105DD
:1045900009F47AC04427452B09F076C0E63030F4A0
:1045A000F0E0EF52FD4FE491EF3F09F40D7F2F70E3
:1045B000283038F4E22FF0E0EE54FD4FE491E0387B
:1045C00009F40B7F15962C91233009F454C08CE02C
:1045D000ECE5F4E0DE01119601900D928A95E1F789
:1045E00080917404909175049B8F8A8F412C10E008
:1045F000073009F077C09F8A8E8A160181E0412C2E
:1046000010E0EE89FF8935970CF469C0F101A280B2
:10461000B38011814480F42DF077F98BF035D9F512
:10462000512C852DA0FE34C00E941C065394B694D4
:10463000A79428E05212F5CF2091740430917504AC
:104640004E895F89455051095F8B4E8B55E0250E91
:10465000311C81E02115310509F480E0A1014C19DC
:104660005D09481559056CF2232BD9F1A12EA294AE
:104670008FE0A8223DC09B8A8A8A67CF303609F432
:1046800089CF303709F482CF0E7F88CF00E09FCFEB
:104690000E94F505CBCF8989803578F4805F8C8FB7
:1046A0005988FC8D5F1640F6852DA0FE15C00E942E
:1046B000B3045394B694A794F4CF512C9989852DC3
:1046C000903639F40E94B3045394E0E65E12F6CFBC
:1046D000E8CF0E94E304F8CF0E94E304EACF8111FF
:1046E00001C006E0A12EA2947FE0A722073041F48A
:1046F000809174049091750407E0079780F405E0B9
:104700008CE0FE013196ACE5B4E001900D928A9503
:10471000E1F72A8D3B8D3093750420937404BB24FC
:10472000B394D12CC12CC4018C199D0905976CF050
:10473000602F83E00E948F05B82E35E0C30ED11C98
:10474000C814D90414F48111EECF073099F4842DE4
:104750008F7090918C04891380938C041F7060E893
:10476000183028F4E12FF0E0EE54FD4F64918A2DCB
:104770000E9447054A895B89E40EF51EBB2001F1C2
:10478000D8CE20918204022E000C330BC901029670
:1047900097FD03969595879595958795182F1F7387
:1047A0004F970CF01FE110930005D0901F0400916B
:1047B000CA0486E00E947005811104C00093CA04F7
:1047C000F701BCCE8D2D0E9470058823B9F3812F8F
:1047D0000E947005882391F3ACCEC7010196E88D45
:1047E000F98D8E0F9F1FFC012081122F1F7030E06A
:1047F00044E0359527954A95E1F7022F07700E940E
:10480000DD05272F382F492F5527A4E6B0E00E9459
:104810007E2B4B015C01F0E88F1AF1EA9F0AF3E06E
:10482000AF0AFCE1BF0A21E082162AE5920622E6E1
:10483000A20622E0B20618F060E070E0CB0130EC96
:1048400030930605163050F4E12FF0E0EF52FD4FA3
:10485000E491EF3F19F042EC4093060561157105B4
:104860008105910529F02091060521602093060518
:10487000043028F420910605246020930605209139
:104880000605273C61F41093050560935804709366
:10489000590480935A0490935B0400930405622F9B
:1048A000677085E00E948F05B82E68CFF601818180
:1048B0008F7009F481E08093FE04F2E0F093080524
:1048C00088E00E947005F0CFF60181818F7080939F
:1048D0008A040E943B0660934404709345048093CD
:1048E00046049093470484E0ECCFF60181818F73F6
:1048F0008093030589E0E5CF2F923F924F925F921C
:104900006F927F928F929F92AF92BF92CF92DF92DF
:10491000EF92FF920F931F93CF93DF9300D000D0BD
:1049200000D0CDB7DEB780917A0487FFE5C1F09063
:104930000C05F1101AC026960FB6F894DEBF0FBE14
:10494000CDBFDF91CF911F910F91FF90EF90DF903E
:10495000CF90BF90AF909F908F907F906F905F901F
:104960004F903F902F900C94951F2F2D30E03E8359
:104970002D832C30310544F410920C0580910A05EA
:1049800080FFD9CF80E0B9C180910D05982F937039
:1049900099F7807E8983803611F0803A69F78EE03E
:1049A00095E00E94DD0500914C0410914D0420918A
:1049B0004E0430914F046017710782079307E1F6A8
:1049C000309112053B833F70E32EC32ED12C16018C
:1049D000A8E02A0E311C2D813E81245031093E83EE
:1049E0002D832215330544F288248A94982C2216AC
:1049F00033064CF4F101E35FFA4F2081822E912CB3
:104A0000D60119961D0140905004509051046090B9
:104A10005204709053040091130510911405041969
:104A200015090F3F100709F078C021E0421A51081C
:104A30006108710820E1E1EAF3E0DF01322F1D9205
:104A40003A95E9F739E43093A10331E03093A603B6
:104A5000ACEFAF0DAC83A093B0036093A70370934A
:104A6000A8038093A9039093AA034092AB035092AA
:104A7000AC036092AD037092AE03EBEDF4E0A1EFF6
:104A8000B3E001900D922A95E1F74D815E816DE0D2
:104A900075E082E00E94AE0E9B01AC01ED81FE81CB
:104AA000E35FFA4F60817181828193810E94612B63
:104AB000261737074807590709F05ECF8091500441
:104AC00090915104A0915204B09153044816590694
:104AD0006A067B0638F584159505A605B7050CF41E
:104AE0004BCF0197A109B109481659066A067B0602
:104AF00009F042CF8091FC04882309F43DCFB981AD
:104B0000B03A09F039CF80E28093FB04811491041C
:104B100009F40CC101E010E033C0400E511E611CCD
:104B2000711C88CF0130104408F026CFD301C20198
:104B30000196A11DB11D8093500490935104A09340
:104B40005204B0935304398180E2303A09F080E096
:104B50008093FC048093FB0410E000E08114910436
:104B600041F4EE2031F08D819E81281639060CF437
:104B700003CF8091FB04811103C09B8194FF09C086
:104B800080917A0490917B04806190937B04809360
:104B90007A04109290041092FD0480EC9FEF0E9422
:104BA00064051092060510920805E0917804F091D2
:104BB00079048E2F877033E0F695E7953A95E1F703
:104BC000E370F0E0A3E08A9FE00DF11D1124E356AD
:104BD000FD4FE49180918104082E000C990B8054C4
:104BE0009109ED58FF0B8E1B9F0B97FD80E0809382
:104BF000FF04A401B60185E195E00E941E22012B6D
:104C000009F0BACEBFEF8B169B0699F12D813E813C
:104C1000221933093E832D831216130654F5C10160
:104C2000835F9A4F9A83898340914C0450914D043D
:104C300060914E0470914F048BED94E081149104C7
:104C400011F08BEE94E0AD80BE80C980DA80EE2456
:104C5000E394F12C930182010E94C8118114910404
:104C600041F450E040E06D817E8189819A810E940B
:104C70001E2290910905992349F0AB8120E8A5FFF8
:104C800020E480910A05822B80930A0580910A0511
:104C9000181419043CF1806280930A0520920B05D8
:104CA00010920C05992321F080910A0586FD43CED0
:104CB00026960FB6F894DEBF0FBECDBFDF91CF9121
:104CC0001F910F91FF90EF90DF90CF90BF90AF902A
:104CD0009F908F907F906F905F904F903F902F901C
:104CE0000C94071F806180930A0520920B05FC80BD
:104CF000F218F0920C05D6CF81E026960FB6F89404
:104D0000DEBF0FBECDBFDF91CF911F910F91FF90FE
:104D1000EF90DF90CF90BF90AF909F908F907F905B
:104D20006F905F904F903F902F900895EE2009F480
:104D3000F1CE01E010E017CF80910C0581110EC07B
:104D4000A091FE04B0E0119624E234EF0E94772B8C
:104D50002091050540E157E10C94420A0E947C2411
:104D6000882371F3089580910C0581110BC0109276
:104D70000A050E943B06655E78448F4F9F4F42E0D4
:104D80000E948A110C947C241F920F920FB60F92EE
:104D900011242F933F934F935F936F937F938F9340
:104DA0009F93AF93BF93EF93FF9383E995E00E94A6
:104DB000EA02FF91EF91BF91AF919F918F917F9107
:104DC0006F915F914F913F912F910F900FBE0F9078
:104DD0001F9018951F920F920FB60F9211242F93C8
:104DE0008F939F93EF93FF93E091A305F091A40518
:104DF0008081E091A905F091AA0582FD1BC09081F8
:104E00008091AC058F5F8F732091AD05821741F0C3
:104E1000E091AC05F0E0ED56FA4F958F8093AC052C
:104E2000FF91EF919F918F912F910F900FBE0F9057
:104E30001F9018958081F4CF1F920F920FB60F929A
:104E400011242F933F938F939F93AF93BF938091A0
:104E5000DF039091E003A091E103B091E203309170
:104E6000B10323E0230F2D3758F50196A11DB11D85
:104E70002093B1038093DF039093E003A093E103B9
:104E8000B093E2038091B2039091B303A091B40375
:104E9000B091B5030196A11DB11D8093B20390930B
:104EA000B303A093B403B093B503BF91AF919F91A7
:104EB0008F913F912F910F900FBE0F901F901895DB
:104EC00026E8230F0296A11DB11DD2CFE3E9F5E03C
:104ED0001382128288EE93E0A0E0B0E08483958391
:104EE000A683B7838FE291E09183808385EC90E085
:104EF0009587848784EC90E09787868780EC90E0A4
:104F0000918B808B81EC90E0938B828B82EC90E094
:104F1000958B848B86EC90E0978B868B118E128E0E
:104F2000138E148E81E491E09093310680933006C5
:104F30000895CF93DF93CDB7DEB7A0970FB6F8945F
:104F4000DEBF0FBECDBF789484B5826084BD84B5CA
:104F5000816084BD85B5826085BD85B5816085BD74
:104F600080916E00816080936E001092810080912C
:104F700081008260809381008091810081608093B4
:104F80008100809180008160809380008091B100D9
:104F900084608093B1008091B00081608093B00004
:104FA00080917A00846080937A0080917A00826098
:104FB00080937A0080917A00816080937A0080915A
:104FC0007A00806880937A001092C100E091A30576
:104FD000F091A40582E08083E0919F05F091A00507
:104FE0001082E091A105F091A20580E180831092EA
:104FF000AB05E091A705F091A80586E08083E091DC
:10500000A505F091A605808180618083E091A505CA
:10501000F091A605808188608083E091A505F091DC
:10502000A605808180688083E091A505F091A605A2
:1050300080818F7D808364E670E080E090E00E9454
:1050400041048BE493E00E945008EFE8F5E084E02F
:10505000DF011D928A95E9F78DE191E09093F003CD
:105060008093EF0380E396E09093D6038093D5037B
:1050700061E08AE00E94BD0361E08AE00E94EB03E8
:1050800060E089E00E94EB0360E082E00E94EB03B5
:1050900060E086E00E94EB0360E087E00E94EB03A3
:1050A0001FB7F8948091D403811127C0E1E2F3E0A7
:1050B0008491EDE0F3E09491E82FF0E0EE0FFF1F14
:1050C000E750FD4FA591B491EC91E92321F461E003
:1050D0008AE00E94BD0361E08AE00E94EB038CB588
:1050E00080618CBD8CB580648CBD61E08DE00E94D8
:1050F000EB0361E08BE00E94EB038091D4038F5FB0
:105100008093D4031FBFE6ECF3E08EE0DF011D9235
:105110008A95E9F783EE95E09093CF038093CE03D1
:1051200082E08093C903F0933506E093340681E072
:105130000E94C8070091EF031091F003F8018281EB
:105140008F3F49F060E00E94BD0361E0D8011296F4
:105150008C910E94EB030E943B06625C7F4F8F4F55
:105160009F4F0E947E07F80182818F3F19F060E017
:105170000E94EB030E943B06685C7E4F8F4F9F4F5F
:105180000E947E0780E00E94530D82E40E94840BFF
:10519000823109F020C28091D5039091D603DC01C1
:1051A000ED91FC910680F781E02D0995882341F06F
:1051B0008BE40E94840B682F60618BE40E94960B45
:1051C00082E00E945D0D81E00E94840B8770853033
:1051D000D1F706EB13E0B5ECCB2EB3E0DB2EA8E065
:1051E000EA2EF12C8CE20E94840B8170B82E8CE2A6
:1051F0000E94840B8170B816A9F3F8018181880F91
:105200008B298183F1E0EF1AF10861F70F5F1F4FDF
:10521000C016D10621F710E11093B60380E00E947A
:10522000530D80E490E090937B0480937A048FEF99
:1052300080931F040E94131240E150E06BE373E07F
:10524000CE0141960E94F12A40E150E06BE273E00A
:10525000CE0101960E94F12A83E190E0A0E0B0E047
:105260008093480490934904A0934A04B0934B045C
:1052700085E19AEEAEEDB0E080934C0490934D043E
:10528000A0934E04B0934F04FE013196ABEDB4E011
:10529000812F01900D928A95E1F7FE017196ABEE98
:1052A000B4E001900D921A95E1F780917A04909103
:1052B0007B0489759D7B986090937B0480937A042E
:1052C0000E94B90590E080E00E94640510E0812F03
:1052D0000E94F5051F5F1830D1F71092FD0480E899
:1052E0009FEF90937F0480937E04109205051092A7
:1052F00001056FE082E00E94470587ED93E00E9480
:10530000C321EFE0BE2EF0E0CF2EF0E0DF2E2FB76E
:10531000F8948091DF039091E003A091E103B091B4
:10532000E2032FBF61E091FF60E08DE00E94BD03CA
:1053300073EEE72E73E0F72E10E000E0E091EF034C
:10534000F091F003E00FF11F83818F3FC9F1D70186
:105350004D905D906D907C904114510461047104F6
:1053600079F1F701108211821282138281E00E948A
:10537000840B87FFCEC082E10E94840B80938E0550
:1053800083FF45C0F2E04F1A51086108710840924E
:1053900034045092350460923604709237046FEFF3
:1053A00081E10E94960B6FEF82E10E94960B80E0F4
:1053B0000E94530D80912604909127040E94E706D5
:1053C0000F5F1F4FE4E0EE0EF11C0330110509F0F2
:1053D000B5CF0E94EB050091910510919205011542
:1053E000110509F4C9C0D8018D919C919093920543
:1053F000809391050E945F060115110509F4DFC035
:10540000D8011696ED91FC91C8010995D8C086FF88
:105410007BC0E0917804F0917904CF0163E0969528
:1054200087956A95E1F7837061F4E770F0E0EE0F1D
:10543000FF1FEC5AFC4F85919491481A590A610854
:105440007108409238045092390460923A04709284
:105450003B048DE10E94840B80FF45C082E20E94E4
:10546000840B80930C0580E10E94840B682F8DE0F3
:105470000E94960B40910C0550E021E06DE075E034
:1054800080E00E941B0B89E10E94840B80938204C0
:105490008AE10E94840B282F30E040914004509113
:1054A0004104609142047091430441345D4D6A446B
:1054B0007F41D8F02D5931099091820497FF18C08F
:1054C000A92FBB27A1950CF4B095CD019595879593
:1054D00095958795281B390B203431059CF4205C69
:1054E000209381045CCF83E1BACF245A3109E4CF01
:1054F0002D39BFEF3B079CF36B2D0E94FA2A280F32
:10550000311DEACF2FE7ECCF87FF49CF10920C0572
:1055100046CF8EE30E94840B8FE30E94840B83FFAF
:105520000CC040923404509235046092360470925C
:10553000370481E00E94530D3ACF82FF1AC0409297
:1055400038045092390460923A0470923B0482E32A
:105550000E94840B80930C05482F50E021E06DE001
:1055600075E080E00E941B0B10928204109281046F
:10557000E0CF10920C05DDCFE0918F05F091900502
:105580003097D9F042805380648075800E943B063A
:10559000461A570A680A790A1414150416041704DF
:1055A00064F000918F0510919005F8018081918140
:1055B0009093900580938F051DCF0E945F06C114C4
:1055C000D10409F4A4CE0E94D602882309F49FCE08
:1055D0000E9400009CCE65E370E088E693E00E94A4
:1055E000F205FB01DC0102C005900D9241505040D4
:1055F000D8F70895991B79E004C0991F961708F011
:10560000961B881F7A95C9F780950895AA1BBB1B26
:1056100051E107C0AA1FBB1FA617B70710F0A61BB2
:10562000B70B881F991F5A95A9F780959095BC01D3
:10563000CD010895A1E21A2EAA1BBB1BFD010DC0CE
:10564000AA1FBB1FEE1FFF1FA217B307E407F50732
:1056500020F0A21BB30BE40BF50B661F771F881F0E
:10566000991F1A9469F760957095809590959B01A4
:10567000AC01BD01CF010895052E97FB1EF40094E7
:105680000E94532B57FD07D00E941A2B07FC03D012
:105690004EF40C94532B50954095309521953F4FE7
:1056A0004F4F5F4F089590958095709561957F4F0E
:1056B0008F4F9F4F0895EE0FFF1F0590F491E02D3F
:1056C00009946927962769277827872778270895D7
:1056D000A29FB001B39FC001A39F700D811D112433
:1056E000911DB29F700D811D1124911D08950E947E
:1056F000682BB7FF0895821B930B08950E94682BB7
:10570000A59F900DB49F900DA49F800D911D112415
:10571000089597FB57FF0C94992B9F938F930E94AA
:10572000992B6E1B7F0BAF91BF918A0B9B0B08953A
:10573000E894DF93CF93FC01DB010E94682B7F93F9
:105740006F93E9019A01AC01BF93AF933F932F93FD
:10575000DF010E94682B26F46C1B7D0B820B930BE0
:105760009E01EB01FC010E948F2CAF91BF912F9104
:105770003F910E948F2CBE01CF01F9012F913F91E3
:10578000CF91DF910895689401C0E8948F929F9221
:10579000CF93DF930E94D12BDF91CF919F908F9079
:1057A000089588249924F401E401B0E49F93AA2782
:1057B0009A158B049C04ED05FE05CF05D007A107C3
:1057C00098F4AD2FDC2FCF2FFE2FE92D982C892EAA
:1057D000982F872F762F652F542F432F322F222774
:1057E000B85031F7BF9127C01B2EBF91BB27220FA6
:1057F000331F441F551F661F771F881F991F881C62
:10580000991CEE1FFF1FCC1FDD1FAA1FBB1F8A1490
:105810009B04EC05FD05CE05DF05A007B10748F0A8
:105820008A189B08EC09FD09CE09DF09A00BB10B12
:1058300021601A94E1F62EF49401AF01BE01CD016E
:10584000000C08952F923F924F925F926F927F9239
:105850008F929F92AF92BF92CF92DF92EF92FF9280
:105860000F931F93CF93DF93CDB7DEB7CA1BDB0B2C
:105870000FB6F894DEBF0FBECDBF09942A883988D1
:1058800048885F846E847D848C849B84AA84B984D8
:10589000C884DF80EE80FD800C811B81AA81B981E4
:1058A000CE0FD11D0FB6F894DEBF0FBECDBFED01F8
:1058B0000895002E083090F0982F872F762F652FAF
:1058C000542F432F322F22270850F4CF220F331F9B
:1058D000441F551F661F771F881F991F0A95B2F72F
:1058E000002D089597FD1094002E083098F0085070
:1058F000232F342F452F562F672F782F892F912D47
:10590000F4CF159497958795779567955795479513
:10591000379527950A95AAF71124002D08950E941E
:10592000682B460F571FC81FD91F08F431960895DA
:10593000FB01DC0102C001900D9241505040D8F7AC
:105940000895DC0101C06D9341505040E0F7089587
:10595000B0E0A0E0EEEAFCE20C94322CAE014B5F2A
:105960005F4FFA0161917191AF018091340690917E
:1059700035060E94C52CE2E00C944E2C6091340652
:10598000709135060E94B52E0895ABE0B0E0EBECC7
:10599000FCE20C94222C7C013B018A01FC01178261
:1059A0001682838181FFC8C1CE0101965C01F70197
:1059B0009381F30193FD859193FF81913F018823AA
:1059C00009F453C1853239F493FD859193FF819198
:1059D0003F01853229F4B70190E00E94B52EE7CF50
:1059E000912C212C312CFFE1F31538F08B3211F181
:1059F00090F4803209F1833229F137FC3CC020ED6C
:105A0000280F2A3050F536FE20C08AE0989E200DDF
:105A10001124922E06C08D3291F0803371F7689474
:105A200030F8F30193FD859193FF81913F0181113E
:105A3000DACF21C0689431F8689432F8F2CF6894D4
:105A400033F8EFCF689434F8ECCFEAE02E9E200DC7
:105A50001124222E689435F8E4CF8E3229F436FCD6
:105A600004C1689436F8DDCF8C3619F4689437F8A1
:105A7000D8CF8836B1F2982F9F7D95549330E0F0BF
:105A80008336A1F18337C1F1833509F063C0280162
:105A9000F2E04F0E511CF801C080D180692D70E0FA
:105AA00036FC02C06FEF7FEFC6010E949F2E4C01B3
:105AB000689437F882010AC00C5F1F4FFFE3F98337
:105AC00088248394912C6501E89437F833FE2DC027
:105AD000522C8114910471F5552009F468CFB70157
