:100000000C9442020C946A020C946A020C946A02E8
:100010000C946A020C946A020C946A020C946A02B0
:100020000C946A020C946A020C946A020C946A02A0
:100030000C946A020C946A020C946A020C946A0290
:100040000C94C4260C946A020C9492260C946C2690
:100050000C946A020C946A020C946A020C946A0270
:100060000C946A020C946A02556E6B6E6F776E2068
:100070006576656E743A200045565F4A4F494E5F7B
:100080005458434F4D504C4554453A206E6F204ACA
:100090006F696E4163636570740045565F545843E1
:1000A000414E43454C454400206279746573206F8E
:1000B0006620504859205061796C6F61643A200085
:1000C00041637475616C2053656E74200020627901
:1000D000746573206F66204672616D65205061798A
:1000E0006C6F61643A204261736536342D646563D8
:1000F0006F6465642068657861646563696D616CCF
:1001000020737472696E67207061796C6F61643AF4
:100110000053656E74200045565F54585354415245
:10012000540045565F4C494E4B5F414C4956450083
:1001300045565F4C494E4B5F444541440045565F30
:100140005258434F4D504C4554450045565F52451B
:100150005345540045565F4C4F53545F5453594ECA
:1001600043004261736536342D6465636F64656472
:100170002068657861646563696D616C2073747271
:10018000696E67207061796C6F61643A200020624B
:1001900079746573206F66207061796C6F61643A61
:1001A0002000526563656976656420005265636569
:1001B000697665642061636B0045565F5458434F10
:1001C0004D504C4554452028696E636C75646573C9
:1001D0002077616974696E6720666F7220525820BB
:1001E00077696E646F7773290045565F52454A4FB1
:1001F000494E5F4641494C45440045565F4A4F4988
:100200004E5F4641494C45440045565F4A4F494E72
:1002100045440045565F4A4F494E494E47004556B2
:100220005F424541434F4E5F545241434B4544006A
:1002300045565F424541434F4E5F4D4953534544F8
:100240000045565F424541434F4E5F464F554E4431
:100250000045565F5343414E5F54494D454F5554F9
:10026000004F505F5458525850454E442C206E6FEA
:10027000742073656E64696E67005061636B6574AA
:10028000207175657565640000000000230026007C
:100290002900030502050106020205000006000010
:1002A0000105040400040000000200000001000039
:1002B0008000000040000000200000002020200EF0
:1002C00011140C0F12090C0F06090C030609000388
:1002D0000613110F0D0B09070540404080EBEB089A
:1002E0000A0C0D0E10121415181A1B1D1E2124FFC6
:1002F000060504030201FFC04000000000002500C5
:1003000028002B0000000008000201000003040781
:100310000000000000000000000000002400270092
:100320002A00010204081020408001020408102065
:10033000010204081020040404040404040402025A
:100340000202020203030303030343579EA99CF91D
:10035000256204D4778F63A61C0CE9B53B908577A2
:10036000E0CF4A7DBE490D40B04553746172746957
:100370006E6700000000006700CC00B80154039DC8
:1003800007637C777BF26B6FC53001672BFED7ABC1
:1003900076CA82C97DFA5947F0ADD4A2AF9CA47247
:1003A000C0B7FD9326363FF7CC34A5E5F171D831BF
:1003B0001504C723C31896059A071280E2EB27B2EB
:1003C0007509832C1A1B6E5AA0523BD6B329E32F12
:1003D0008453D100ED20FCB15B6ACBBE394A4C5846
:1003E000CFD0EFAAFB434D338545F9027F503C9FA8
:1003F000A851A3408F929D38F5BCB6DA2110FFF3C7
:10040000D2CD0C13EC5F974417C4A77E3D645D19F1
:100410007360814FDC222A908846EEB814DE5E0BB2
:10042000DBE0323A0A4906245CC2D3AC629195E41F
:1004300079E7C8376D8DD54EA96C56F4EA657AAE6A
:1004400008BA78252E1CA6B4C6E8DD741F4BBD8BF8
:100450008A703EB5664803F60E613557B986C11DF0
:100460009EE1F8981169D98E949B1E87E9CE552894
:10047000DF8CA1890DBFE6426841992D0FB054BBB6
:1004800016000E2711241FBECFEFD8E0DEBFCDBF70
:1004900025E0ACE5B3E001C01D92A83FB207E1F74B
:1004A00013E0A0E0B1E0EAEDFDE502C005900D9299
:1004B000AC35B107D9F712E0C2E4D2E004C021970D
:1004C000FE010E94032BC134D107C9F70E944127C6
:1004D0000C94EB2E0C940000FC0120E1215008F458
:1004E000089580E0211181819191990F87FD91609C
:1004F000DF0111979C93F2CFAF92BF92CF92DF9220
:10050000EF92FF920F931F93CF93DF936C017B01C8
:100510008B01040F151FEB015E01AE18BF08C01759
:10052000D10759F06991D601ED91FC910190F081CC
:10053000E02DC6010995892B79F7C501DF91CF918F
:100540001F910F91FF90EF90DF90CF90BF90AF90F1
:100550000895FC01538D448D252F30E0842F90E0C9
:10056000821B930B541710F0CF96089501970895AE
:10057000FC01918D828D981761F0A28DAE0FBF2F77
:10058000B11D5D968C91928D9F5F9F73928F90E0CD
:1005900008958FEF9FEF0895FC01918D828D98173C
:1005A00031F0828DE80FF11D858D90E008958FEF79
:1005B0009FEF0895FC01918D228D892F90E0805C42
:1005C0009F4F821B91098F739927089583E595E0CA
:1005D0000E94DA0221E0892B09F420E0822F08959D
:1005E00080E090E0892B29F00E94E60281110C94B2
:1005F00000000895FC01A48DA80FB92FB11DA35AC6
:10060000BF4F2C91848D90E001968F739927848F32
:10061000A689B7892C93A089B1898C918370806455
:100620008C93938D848D981306C00288F389E02DF6
:1006300080818F7D80830895EF92FF920F931F93A7
:10064000CF93DF93EC0181E0888F9B8D8C8D981385
:100650001AC0E889F989808185FF15C09FB7F89491
:10066000EE89FF896083E889F989808183708064DD
:1006700080839FBF81E090E0DF91CF911F910F9128
:10068000FF90EF900895F62E0B8D10E00F5F1F4F37
:100690000F731127E02E8C8D8E110CC00FB607FC46
:1006A000FACFE889F989808185FFF5CFCE010E94D4
:1006B000FA02F1CFEB8DEC0FFD2FF11DE35AFF4F46
:1006C000F0829FB7F8940B8FEA89FB898081806262
:1006D000CFCF0F931F93CF93DF938C01D0E0C0E077
:1006E000F801EC0FFD1F6491662341F083E595E06E
:1006F0000E941C03892B11F02196F2CFCE01DF91CD
:10070000CF911F910F910895CF93DF93EC01888DC6
:100710008823B9F0AA89BB89E889F9898C9185FD7C
:1007200003C0808186FD0DC00FB607FCF7CF8C910A
:1007300085FFF2CF808185FFEDCFCE010E94FA02C6
:10074000E9CFDF91CF910895833081F028F4813093
:1007500099F08230A9F008958730A9F08830C9F067
:100760008430B1F4809180008F7D03C0809180003F
:100770008F7780938000089584B58F7784BD089526
:1007800084B58F7DFBCF8091B0008F778093B000D0
:1007900008958091B0008F7DF9CF1F93CF93DF93A1
:1007A000282F30E0F901EC5FFC4F8491F901EE5DF8
:1007B000FC4FD491F901EA5CFC4FC491CC23A9F021
:1007C000162F81110E94A403EC2FF0E0EE0FFF1F03
:1007D000E650FD4FA591B4918FB7F894EC911111AB
:1007E00008C0D095DE23DC938FBFDF91CF911F919E
:1007F0000895DE2BF8CFCF93DF9390E0FC01EE5D00
:10080000FC4F24918A5C9C4FFC0184918823D1F099
:1008100090E0880F991FFC01E85EFC4FA591B49110
:10082000FC01E650FD4FC591D49161110EC09FB7F8
:10083000F8948C91E22FE0958E238C932881E2230B
:10084000E8839FBFDF91CF9108958FB7F894EC9123
:10085000E22BEC938FBFF6CF3FB7F89480917203F1
:1008600090917303A0917403B091750326B5A89B72
:1008700005C02F3F19F00196A11DB11D3FBFBA2F32
:10088000A92F982F8827BC01CD01620F711D811DF2
:10089000911D42E0660F771F881F991F4A95D1F777
:1008A00008958F929F92AF92BF92CF92DF92EF9274
:1008B000FF924B015C010E942C046B017C010E94A1
:1008C0002C046C197D098E099F09683E73408105CF
:1008D0009105A8F321E0821A9108A108B10888EED9
:1008E000C80E83E0D81EE11CF11C81149104A10400
:1008F000B10429F7FF90EF90DF90CF90BF90AF90B9
:100900009F908F9008950F931F9361157105810536
:100910009105F9F00091E8031091E9032091EA03B1
:100920003091EB03DC01CB01800F911FA21FB31F9D
:100930008093E8039093E903A093EA03B093EB0359
:100940008091EC039091ED0301969093ED038093D9
:10095000EC031F910F910895FC0120813181211535
:10096000310519F490E080E008952617370749F41F
:10097000FB0120813181FC013183208381E090E003
:100980000895C901E9CF803660F5282F22952F7090
:1009900030E0220F331FF901E45EFB4F40815181AB
:1009A0008F7061E070E002C0660F771F8A95E2F7F2
:1009B000CA0186239723892B91F480913404909166
:1009C00035040196909335048093340481E0245ECD
:1009D0003B4F462B572BF90151834083089580E00C
:1009E000F6CF80E00895803670F5282F22952F707D
:1009F00030E0220F331FF901E45EFB4F608171810B
:100A00008F7041E050E002C0440F551F8A95E2F715
:100A1000CA0186239723892BA1F0809134049091F9
:100A200035040197909335048093340481E0245E6B
:100A30003B4F4095509546235723F90151834083FE
:100A4000089580E0F4CF80E00895FC0190E080E01C
:100A50006115710509F4089521913191A901569507
:100A6000479545755575241B350BA9014373537381
:100A7000369527953695279523733373240F351FA5
:100A8000A901407F507F2F703F70A4E0220F331FD9
:100A9000AA95E1F7240F351FA9015527232F3327E6
:100AA000240F351F820F931F61507109D1CF982FEA
:100AB0006038C1F080914D046817A1F060934D0437
:100AC00081E020914E04291761F090934E048091AB
:100AD0003A0490913B04986090933B0480933A04CD
:100AE00081E0089580E0EDCF20913E0430913F04F5
:100AF00020383F4F21F090933F0480933E040895A7
:100B0000982F80918B04E0918A04882361F0EF3064
:100B1000A0F481E08E0F80938A04F0E0E457FB4F4D
:100B2000908381E00895E43348F481E08E0F809350
:100B30008A04F0E0EA5AFB4FF3CF80E00895CF93A8
:100B4000DF93C62FD0918A040E948005811106C0D0
:100B5000D0938A0480E0DF91CF9108958C2F0E947A
:100B600080058823A9F381E0F6CF1092C404109287
:100B7000C50480E294E4AEE1BEE180931804909352
:100B80001904A0931A04B0931B048FEF8093C3043D
:100B900008951092140410921504109216041092E5
:100BA0001704109210041092110410921204109263
:100BB0001304109250041092BD041092BC041092C1
:100BC000BB0410924C04109251041092C60410926F
:100BD000C8041092C2040C94B505FC0160817181B7
:100BE000828193810895682F83E595E00E941C031C
:100BF00090E080E00895F894809160038F5F809387
:100C0000600308950E94FB05FFCFEF92FF921F93B0
:100C1000CF93DF938C3030F067EA70E08AE591E0A3
:100C20000E940206880F880F880F98E0980FC82F3F
:100C3000D0E010E0E92EF12CCE15DF053CF0812F3D
:100C4000DF91CF911F91FF90EF9008958C2F0E941C
:100C5000F304182B2196F0CFEF92FF921F93CF93BE
:100C6000DF93880F880F880F98E0980FC82FD0E087
:100C700010E0E92EF12CCE15DF053CF0812FDF913D
:100C8000CF911F91FF90EF9008958C2F0E94C30485
:100C9000182B2196F0CF0F931F930E942C04AB01C9
:100CA000BC0120915C03DC01CA013CE1B695A7952B
:100CB000979587953A95D1F782278870820F809310
:100CC0005C03E4E07695679557954795EA95D1F7EB
:100CD0009B01382BC901BA011F910F910895AF9262
:100CE000BF92CF92DF92EF92FF920F931F93CF9319
:100CF000DF9380916003815080936003811169C00C
:100D000078940DE513E0D0E0C0E0BB24B394E0910B
:100D1000AF03F091B003EC0FFD1F23812F3F09F4C7
:100D200051C0F801D080ED2CF12C30E0F901EC5FDE
:100D3000FC4F8491F901EE5DFC4FC490F901EA5C2F
:100D4000FC4FA490AA2009F44FC081110E94A40373
:100D5000EA2DF0E0EE0FFF1FE857FD4FA591B4918B
:100D6000EC91CE2231E020E009F430E0832F922F85
:100D7000E816F90639F1DB24F801D082DD2011F103
:100D8000CE01880F991F880F991F9C012D553C4F4C
:100D90007901F90180819181A281B381892B8A2B0C
:100DA0008B2B81F40E944B0661157105810591051D
:100DB00021F461E070E080E090E0F70160837183EE
:100DC0008283938321960F5F1F4FC330D10509F0B3
:100DD0009ECFDF91CF911F910F91FF90EF90DF9009
:100DE000CF90BF90AF90089590E080E0C1CFCF93B7
:100DF000DF93EC010E94FB058091E2039091E303F5
:100E0000A091E403B091E503892B8A2B8B2B31F55C
:100E100081E595E060EE73E00E94AC041092E1037E
:100E20001092E0031092E2031092E3031092E403A5
:100E30001092E503D093E703C093E603E0915105D8
:100E4000F0915205A1E5B5E0309759F480EE93E0BA
:100E50008D939C93DF91CF910C946F068FE495E076
:100E6000D9CFDF010190F081E02DEECFCF92DF925C
:100E7000EF92FF920F931F93CF93DF93EC016A01E0
:100E80007B018901C114D104E104F10421F4C12CD6
:100E9000D12C7601C3940E94FB058A819B81AC8191
:100EA000BD81892B8A2B8B2B89F581E595E0BE01CD
:100EB0000E94AC0419821882CA82DB82EC82FD8215
:100EC0001F830E83E0914F05F09150052FE435E02C
:100ED000309779F082819381A481B5818C199D0925
:100EE000AE09BF09181619061A061B0694F4F983F1
:100EF000E883F901D183C083DF91CF911F910F91D6
:100F0000FF90EF90DF90CF900C946F068FE495E008
:100F1000CECF9F010190F081E02DDACFCF92DF920A
:100F2000EF92FF926B017C010E944B06A701960194
:100F3000261B370B480B590BDA01C901B7FF0CC050
:100F400066277727CB01621B730B840B950BFF90F1
:100F5000EF90DF90CF900895833332E09307A1059F
:100F6000B1058CF068E070E080E090E00E945104F0
:100F70000E944B06A7019601261B370B480B590B05
:100F8000DA01C901E9CF181619061A061B0664F41E
:100F900024E0880F991F2A95E1F7880F991F880F81
:100FA000991F05970197F1F760E070E0CB01CFCF73
:100FB000CF92DF92EF92FF92A0919503B0919603AA
:100FC000682F6170ED91FC9111970190F081E02DF7
:100FD000CD0109956B017C01C114D104E104F10438
:100FE00061F00E944B066C0D7D1D8E1D9F1DFF90B4
:100FF000EF90DF90CF900C948E07FF90EF90DF90F2
:10100000CF900895982FE091AF03F091B0038181C4
:101010008F3F39F061E02681291301C060E00C9414
:10102000CD03089581E0089580E00895089560E07B
:1010300070E0CB010895E1ECF3E084819581948325
:101040009681958397819683878380859285908703
:101050008287818593859187838787859685978702
:10106000958596879485958784870895CF9321ECFD
:1010700033E0BC01605F7F4FDC01F90140E0CD91BE
:1010800050815C2750834F5F34964430C1F72F5F07
:101090003F4F04968617970779F7CF910895FC0183
:1010A00001900020E9F73197AF01481B590BBC01B3
:1010B00083E595E00C947C02CF93DF930E94690353
:1010C000EC0182E991E00E944F088C0F9D1FDF9197
:1010D000CF9108958F929F92AF92BF920F931F93DB
:1010E000CF93DF93CDB7DEB7A1970FB6F894DEBFED
:1010F0000FBECDBF19A2423008F44AE08E010F5D49
:101100001F4F842E912CB12CA12CA50194010E947B
:10111000C22AE62FB901CA01EA30F4F4E05DD80131
:10112000EE938D01232B242B252B79F790E080E083
:10113000109719F0CD010E944F08A1960FB6F894B0
:10114000DEBF0FBECDBFDF91CF911F910F91BF903A
:10115000AF909F908F900895E95CE1CF0F931F931C
:10116000CF93DF9300D000D0CDB7DEB7DB011C9664
:101170009C911C971E963C911E971F962C911F9731
:101180001D964C911D9749833A832B839C83BE0106
:101190006B5F7F4F9E012F5F3F4FF90111919F01C0
:1011A000412F42954F70F0E14F9FA0011124E12F94
:1011B000EF70E40FF52FF11DEF57FC4F9491A9014B
:1011C00041505109FA0190832617370731F791E012
:1011D0005BE1813039F0492F440F97FD452781505D
:1011E000942FF7CF8981982799838D0194E0FE0190
:1011F0003196A801DA018D91AD0161918627BD017B
:1012000061507109DB018C93BF0161507109DB01F1
:101210008C93E217F30771F791500C5F1F4F9111F8
:10122000E6CF0F900F900F900F90DF91CF911F910D
:101230000F9108953F924F925F926F927F928F929B
:101240009F92AF92BF92CF92DF92EF92FF920F9355
:101250001F93CF93DF93CDB7DEB768970FB6F8949F
:10126000DEBF0FBECDBF8C0121ECC22E23E0D22EFB
:10127000AC01405F5F4FC6017801FC01D70120E05F
:101280003D9130832F5F34962430D1F724E0E20E75
:10129000F11C01964E155F0581F7A1EBB3E0FE014D
:1012A000319681EC93E05E2E6F2E2D9121938A175B
:1012B0009B07D9F7852D962D0E9436084424439428
:1012C00085ECA82E83E0B82E4E0139E1830E911CE7
:1012D0009BE1392E81EC93E024E0DC01712CEC9150
:1012E0004E2F42954F7030E1439FA0011124EF70C3
:1012F000E40FF52FF11DEF57FC4FE491EC9373943D
:10130000149654E07512EBCF215001962111E5CFD0
:101310000E941B08E1ECF3E0CE014596BE016F5E32
:101320007F4F9F01D9015C91DC015D93CD01452F79
:10133000440F57FD83C0DB014C932C5F3F4F6F5F21
:101340007F4F8816990671F78E89398938272F893A
:10135000688D9A8992279627432F492741934D8973
:101360005B899427952793839C89862784278527E3
:10137000892787832427292732273387AE16BF067C
:1013800059F6652D762D842D0E94AE08852D962D5B
:101390000E9436084394BAE04B129CCF81EC93E054
:1013A000DC0140E0EC912E2F22952F7050E1259F1B
:1013B00090011124EF70E20FF32FF11DEF57FC4F56
:1013C000E491EC934F5F1496443061F77A94019660
:1013D0007110E6CF0E941B08652D762D8AE00E94D1
:1013E000AE08852D962D0E943608D801F60180E0C2
:1013F00090819D938F5F34968430D1F78FEFC81A18
:10140000D80A0C5F1F4FE016F10679F768960FB601
:10141000F894DEBF0FBECDBFDF91CF911F910F912A
:10142000FF90EF90DF90CF90BF90AF909F908F9004
:101430007F906F905F904F903F90089543257BCFB2
:10144000E0914504A0914904A770B0E020E43DE09C
:1014500043E050E00E94262B60527F458C4C914E19
:10146000609300047093010480930204909303043A
:101470008091C404E53090F4E81BE63008F0E5E024
:10148000E0934504F0E0E051FD4FE491F0E0EF77A8
:10149000E068F0933904E09338040895E5E0ECCF78
:1014A0004F925F926F927F928F929F92AF92BF9274
:1014B000CF92DF92EF92FF920F93CF93DF9300D002
:1014C00000D000D0CDB7DEB76B017C015E834D83C9
:1014D000277084E0289FF0011124EC55FD4F859181
:1014E0009591A591B49189839A83AB83BC834090F5
:1014F000F4035090F5036090F6037090F703609149
:10150000DD037091DE036115710531F0673091E004
:10151000790710F066E071E090E080E0A7019601A5
:101520000E94312B00E10E941A2C49015A012981A5
:101530003A814B815C81220F331F441F551FC50127
:10154000B401660F771F881F991F620F731F841FD6
:10155000951F64587F4F8F4F9F4F0E94E42A2A5F48
:101560003F4F43E85FEF6FEF7FEF481959096A0972
:101570007B092115A4E03A07B8F18FEF93E090932F
:10158000440480934304C40ED51EE61EF71E4C0C83
:101590005D1C6E1C7F1C4092F8035092F903609210
:1015A000FA037092FB03B301A20141575240610953
:1015B00071092D813E8180EE93E026960FB6F89456
:1015C000DEBF0FBECDBFDF91CF910F91FF90EF90A7
:1015D000DF90CF90BF90AF909F908F907F906F9053
:1015E0005F904F900C94360730934404209343044B
:1015F000CACFCF92DF92EF92FF922091BE0430E0EB
:10160000A4E2B4EF0E94102B6B017C010E94200A1F
:101610002091450442E157E1C701B601FF90EF90E8
:10162000DF90CF900C94500A0E94200A209145042C
:1016300046E157E164EB74EC84E090E00C94500ACE
:10164000E82FF0E0E151FD4FE491EF3F09F08150C8
:1016500008958F929F92AF92BF92DF92EF92FF9286
:101660000F931F93CF93DF93D82EEB018A01E22EC5
:10167000E091AF03F091B003F08080849184A28464
:10168000B38481149104A104B10439F420E4822EBE
:1016900022E4922E2FE0A22EB12C40E052E16AE724
:1016A00070E080E084169506A606B70640F47695AD
:1016B0006795579547958F5F8630A1F787E0982FFC
:1016C000906A9695809581709CBD8DBD60E08F2D50
:1016D0000E94CD03DEBC00000DB407FEFDCF8EB529
:1016E0000C0F1D1FC017D10771F080E0E11001C081
:1016F00088818EBD00000DB407FEFDCF8EB5E110D0
:1017000088832196EFCF61E08F2DDF91CF911F91DC
:101710000F91FF90EF90DF90BF90AF909F908F90D0
:101720000C94CD03CF93DF931F92CDB7DEB721E0AA
:1017300041E050E0BE016F5F7F4F0E94290B89811D
:101740000F90DF91CF910895CF93DF931F92CDB784
:10175000DEB7698320E041E050E0BE016F5F7F4F5C
:1017600080680E94290B0F90DF91CF910895CF934D
:10177000C82F62E082E00E94A40B60E883E00E9430
:10178000A40B61E084E00E94A40B69E985E00E945B
:10179000A40B62E187E20E94A40B60EDC11168ED29
:1017A00080E30E94A40B60E481E30E94A40B61EC3F
:1017B00088E20E94A40B64E989E20E94A40B61EC18
:1017C0008AE2CF910C94A40B0F931F93CF93DF93D6
:1017D000C0914704C4310CF040C0CE30CCF1C231CE
:1017E0000CF0C1E161E08091950390919603009126
:1017F0000004109101042091020430910304DC01E3
:10180000ED91FC910084F185E02D4C2F09958130FC
:1018100059F18230E1F1CF301CF5CC301CF1C067BA
:10182000D7E014E06C2F89E00E94A40B8DE40E94A5
:10183000920B887F682F612B8DE40E94A40B6D2F83
:1018400060628BE0DF91CF911F910F910C94A40BFC
:10185000CC3F0CF4CCEF60E0C6CF62E0C4E1C3CF74
:10186000CEE0DDCFCC5FDCCF80913804877011F4FF
:10187000CB305CF0C2302CF4C2E0C250C068DBE078
:10188000D0CFC231D4F3C1E1F8CFCBE0F6CFD0E175
:1018900017E0CFE8C7CFAF92BF92CF92DF92EF921F
:1018A000FF920F931F93CF93DF9380910004909149
:1018B0000104A0910204B09103049C01AD0160E019
:1018C00070E080E090E003E10E94012CA12CE8E4AC
:1018D000BE2EF8EECF2EDD24D394E12CF12C00E0C7
:1018E00010E00E946D2BC22FB32E6A017B01182FCE
:1018F000D92F00E10E941C2C622F86E00E94A40BCD
:101900002C2F3B2DA601B701812F9D2F08E00E94AF
:101910001C2C622F87E00E94A40B6C2F88E0DF91C3
:10192000CF911F910F91FF90EF90DF90CF90BF90DC
:10193000AF900C94A40B1F93CF93DF936091380466
:1019400070913904162F1770CB0133E09695879567
:101950003A95E1F7D82FD370D13059F008F466C02A
:10196000D23009F465C066EC71E085E991E00E942F
:101970000206C0E8CB0125E0969587952A95E1F708
:101980008370823009F458C0833009F457C0813025
:1019900009F450C0C260672F77276115710521F0E7
:1019A000C16082E20E94A40B6C2F8DE10E94A40B07
:1019B00060914404637060598FEF810F8295807F3E
:1019C000680F8091380487FF64608EE10E94A40B49
:1019D0008BEF810F823010F4DD2391F1163011F47A
:1019E000D13071F164E086E20E94A40BC0E063E0B4
:1019F000D23081F48091000490910104A0910204FE
:101A0000B0910304CFE781349D4DAA44BF4108F053
:101A1000C4E662E086E30E94A40BCC2399F06C2F0D
:101A20008AE3DF91CF911F910C94A40BC0E7A2CF62
:101A3000C0E9A0CFC460AFCFC660ADCFC860ABCFA8
:101A40006CE0D1CFDF91CF911F910895CF93DF93B9
:101A5000D82FC82FC77019F081E00E94D8076D2FCA
:101A600081E00E94A40BC11105C080E0DF91CF91FD
:101A70000C94D807DF91CF91089580910004909144
:101A80000104A0910204B091030481349D4DAA4445
:101A9000BF4118F488E00C94260D80E0FCCF8091C3
:101AA000000490910104A0910204B09103048134D8
:101AB0009D4DAA44BF4118F488E80C94260D80E897
:101AC000FCCFCF93C82F81E00E94920B887F8C2B94
:101AD000CF910C94260DCF92DF92EF92FF92CF938D
:101AE000DF93D82F0E944F0D81E00E94920B87FD5B
:101AF00006C06BE973E085E991E00E94020681E08F
:101B00000E94610DD23009F07CC06AE08DE10E9434
:101B1000A40B60E78EE10E94A40B63E28CE00E94BC
:101B2000A40B60E483E20E94A40B80914D058823FE
:101B300009F46CC083E30E94920B682F6F7B83E3F0
:101B40000E94A40B809138049091390423E096956B
:101B500087952A95E1F7C82FC37081E30E94920B05
:101B60008877682F6360C23008F056C081E30E9416
:101B7000A40B60E48FE20E94A40B60E480E30E9467
:101B8000A40B609143048FE10E94A40B64E389E3FA
:101B90000E94A40B6CE080E40E94A40B6FEF82E132
:101BA0000E94A40BED2FF0E0E950FD4F6491609589
:101BB00081E10E94A40B80E00E94020860E08DE0B9
:101BC0000E94A40B60E08FE00E94A40BD11128C0FA
:101BD0006091F8037091F9038091FA039091FB03EF
:101BE0000E948E076B017C0186E00E94610DC70197
:101BF000B601DF91CF91FF90EF90DF90CF900C94E2
:101C000083040E949B0C0E944B0C87CF83E30E94AD
:101C1000920B682F606493CF682F636881E3AFCF26
:101C200085E0DF91CF91FF90EF90DF90CF900C9403
:101C3000610DCF92DF92EF92FF92CF93C82F81E098
:101C40000E94920B877069E274E0C1F480913804BD
:101C5000877009F060C0C13041F41092CC048091CB
:101C6000E6039091E7030E94F7060E943D0D81E094
:101C70000E94920B87FF06C062E074E085E991E064
:101C80000E94020681E00E94610D0E944B0C63E2FB
:101C90008CE00E94A40B6EE18DE00E94A40B6BE02F
:101CA00082E10E94A40B62E183E10E94A40B6AEA34
:101CB0008FE10E94A40B6FEF81E20E94A40B81E0F0
:101CC0000E94B70B68E380E40E94A40B80E00E94AE
:101CD0000208C11118C06091F8037091F903809156
:101CE000FA039091FB030E948E076B017C0185E053
:101CF0000E94610DC701B601CF91FF90EF90DF9078
:101D0000CF900C94830485E0CF91FF90EF90DF900B
:101D1000CF900C94610D8C2FCF91FF90EF90DF90BE
:101D2000CF900C946B0D8FEF9FEF90931D048093D9
:101D30001C0490931F0480931E04909321048093AD
:101D4000200490932304809322048FEF90E09093DB
:101D5000250480932404E8E2F4E08CE0DF011D9286
:101D60008A95E9F780E690E09093350480933404F7
:101D70008FEF8093490408956F927F928F929F9284
:101D8000AF92BF92CF92DF92EF92FF920F931F9389
:101D9000CF93DF93CDB7DEB760970FB6F894DEBF71
:101DA0000FBECDBF7B018A01282F30E0277F223074
:101DB000310549F02430310509F4CBC0232B09F05B
:101DC0009FC0D12C98C083FD32C081E693E00E9471
:101DD0001A0990E1692EFE0131966F0121E7822EEA
:101DE00023E0922E37E8732E0115110509F060C02B
:101DF0006091610370916203809163039091640329
:101E00000E94092B60960FB6F894DEBF0FBECDBFBF
:101E1000DF91CF911F910F91FF90EF90DF90CF90C6
:101E2000BF90AF909F908F907F906F900895E1E664
:101E3000F3E080E1DF011D928A95E9F7CACF011531
:101E40001105E9F5E62FF0E0EF59FC4F808180584D
:101E5000808311E0D601E62D1D92EA95E9F7C601CF
:101E60000E941A090981C6010E946C0207FF03C083
:101E700088898725888B112349F01981C6010E9422
:101E80006C0217FF03C088898725888BF601D5016E
:101E90008D915D019191119789278C938A149B04F0
:101EA000B1F710E000E081E693E00E941A099CCFB0
:101EB00081E6A82E83E0B82ED701950160E0F901F4
:101EC00081919F019D91AF01415051098927FA01EC
:101ED00080836F5F7D0101501109603109F0AFCF40
:101EE0000115110501F710E0B5CF8E0D9F1D0E9461
:101EF0001A09B0E1DB0E8D2D90E080179107A8F351
:101F000060E070E0CB017ECF80E1E1E6F3E0DE014E
:101F1000119601900D928A95E1F7CE0101960E94EB
:101F20001A09FE0131969701205F3F4F9191D70129
:101F30008C9189278D937D0101501109A217B30758
:101F400019F00115110591F7809170038F5F80934F
:101F5000700301151105C1F6D3CF9091760391114D
:101F600006C06CE874E085E991E00E9402069031B9
:101F700041F440E150E066E773E080E00E94BC0E6F
:101F800090E0E92FF0E0EA58FC4F80819F5F90934A
:101F900076030895DF92EF92FF920F931F93CF93F2
:101FA000DF936FE270E0009729F08136910530F001
:101FB00061E370E088EC91E00E940206C091490460
:101FC000D0E0CF3F11F4CFEFDFEFECE1F4E028E217
:101FD00034E0DF0132961C968D919C911D974D91B6
:101FE0005C9184239523938782872E173F0789F777
:101FF00066E070E088E294E00E9425057C01892B70
:1020000009F08FC08CE0ECE1F4E0A8E2B4E00190CC
:102010000D928A95E1F766E070E088E294E00E9414
:1020200025057C01009709F4DDC0419708F479C0CB
:1020300010E000E0CF3FDC0751F1C136D1050CF0D4
:1020400070C09E012F70332781E090E002C0880F9E
:10205000991F2A95E2F7FE0144E0F595E7954A9528
:10206000E1F7EE0FFF1FE85DFB4F208131818C010E
:102070000223132380959095822393239183808359
:102080000115110509F44FC070E1E71AF1080E942B
:10209000AD0FD82E0E94AD0F9D2DB70124E076958F
:1020A00067952A95E1F70E94AE2A34E0880F991FC0
:1020B0003A95E1F7E8E2F4E070E060E021913191D7
:1020C0002115310559F1A901569547954575557565
:1020D000D901A41BB50BAD0143735373B695A795F6
:1020E000B695A795A373B3734A0F5B1FDA01A07F60
:1020F000B07F4F705F7042955295507F5427407F5C
:1021000054274A0F5B1FDA01BB27452F55274A0F7B
:102110005B1F8417950780F0841B950B605F7F4FD2
:10212000CDCF10E000E0CFEFDFEFB1CFA9014150FC
:1021300051092423352340970097C1F74427552799
:10214000421B530B42235323CA018575957521E029
:1021500030E0892B11F030E020E0CA0183739373E3
:10216000892B09F447C090E080E0820F931F9A0109
:102170002F703F70232B09F440C030E020E0820F25
:10218000931F30E020E0411102C028E030E0820FD0
:10219000931F860F971FFC0144E0F695E7954A953B
:1021A000E1F7EE0FFF1FE85DFB4FAC014F705527C5
:1021B00021E030E0B90102C0660F771F4A95E2F7CF
:1021C000AB01208131812627352731832083CF3F02
:1021D000DC07B1F497FD06C0803491050CF4885FEC
:1021E00080934904DF91CF911F910F91FF90EF9061
:1021F000DF90089582E090E0B8CF24E030E0BFCFD8
:1022000024E0D595C7952A95E1F7CC0FDD1FC85D71
:10221000DB4F28813981022B132B19830883DACFF6
:1022200080910C0490910D04A0910E04B0910F04C4
:10223000892B8A2B8B2B09F04BC080913A0490910B
:102240003B0410924A048E7C977A90933B048093CF
:102250003A041092C904109250040E94B5058FEF01
:102260008093490480913404909135040E94CA0FF0
:102270000E944B066093F4037093F5038093F6037A
:102280009093F70380913A0490913B0493FF06C02A
:1022900064ED70E088EC91E00E94020610924E041A
:1022A000E091C304EF3F91F0EF70F0E0E152FD4F99
:1022B000E491E0934D04846090933B0480933A044E
:1022C0008CE89FE10E94F70681E00895E3E1F1CFF9
:1022D00080E00895CF92DF92EF92FF92CF93C82FC4
:1022E0000E94AD0FF82E0E94AD0F9F2D6C0185321C
:1022F00024EF920720F024E2C21A24EFD20AF12C34
:10230000E12CCC2369F06C2F0E94A22A292F30E007
:10231000A4E2B4EF0E94102BC60ED71EE81EF91ED1
:10232000C701B601CF91FF90EF90DF90CF90089555
:10233000CF92DF92EF92FF926B017C01842F4423B6
:1023400031F00E946A11C60ED71EE81EF91E809158
:102350004A048823A9F08091040490910504A09177
:102360000604B0910704A7019601281B390B4A0BFC
:102370005B0BDA01C901181619061A061B068CF444
:10238000C0920404D0920504E0920604F09207047F
:1023900080913A0490913B04916090933B04809328
:1023A0003A04FF90EF90DF90CF900895AF92BF92E4
:1023B000CF92DF92EF920F931F93CF93DF93DC01C5
:1023C0001A141B04A4F590E1E1E6F3E0EF01892F74
:1023D00019928A95E9F7F1E0F0937003F0936103A5
:1023E000E092660340936703509368036093690328
:1023F00070936A0300936B0310936C0320936D0337
:1024000030936E03FD01A1EBB3E001900D929A951C
:10241000E1F7A501B60184E0DF91CF911F910F9103
:10242000EF90DF90CF90BF90AF900C94BC0EDF91F7
:10243000CF911F910F91EF90DF90CF90BF90AF9011
:1024400008951F93CF93DF93CDB7DEB72F970FB6C5
:10245000F894DEBF0FBECDBF80E00E94610D0E94E8
:10246000FB058091E2039091E303A091E403B09116
:10247000E503892B8A2B8B2B09F047C081E595E07A
:1024800060EE73E00E94AC040E946F068FE0E1ED05
:10249000F3E0DE01119601900D928A95E1F7E1EDEE
:1024A000F3E08EE791E0DF019C011D922150304066
:1024B000E1F78FE0FE013196A1EDB3E001900D92BE
:1024C0008A95E1F70E94AD0F182F0E94AD0F912F52
:1024D00090933D0480933C0410923B0410923A0484
:1024E00010924F0480E88093C1040E94B50581E0FA
:1024F0008093BE042F960FB6F894DEBF0FBECDBFFB
:10250000DF91CF911F910C94930E8FE495E0B8CF9B
:102510002F923F924F925F926F927F928F929F92F3
:10252000AF92BF92CF92DF92EF92FF920F931F93E1
:10253000CF93DF93CDB7DEB72A970FB6F894DEBFFF
:102540000FBECDBF8C010E944B066B017C014AE09F
:10255000F7FE0DC06DE283E595E00E941C0366273F
:102560007727CB016C197D098E099F094AE00E94EB
:102570006A088CEE92E00E944F08F8013197E4312E
:10258000F10508F050C3E953FD4E0C94032BDB1208
:10259000F712FA12FD120013031313160613091390
:1025A0000C1380138313861389138C1313168F1344
:1025B0000D16F415101681E592E02A960FB6F894E0
:1025C000DEBF0FBECDBFDF91CF911F910F91FF9066
:1025D000EF90DF90CF90BF90AF909F908F907F90C3
:1025E0006F905F904F903F902F900C945C0881E427
:1025F00092E0E3CF80E392E0E0CF8EE192E0DDCFA6
:1026000083E192E0DACF89E092E0D7CF8AEF91E0E0
:10261000D4CF89EE91E0D1CF89EB91E00E945C08A4
:102620008091CA0487FF04C08CEA91E00E945C0894
:102630008091CC048823F1F182EA91E00E94690341
:102640006091CC0470E090E080E04AE00E946A086B
:102650008EE891E00E94690382E691E00E9469039E
:102660001A8219828091CC0429813A81821713063B
:10267000C9F0C4F0E091CB04C9018F529C4FE80F20
:10268000F92FF11DE450FF4F608170E090E080E091
:1026900040E10E946A0849815A814F5F5F4F5A8327
:1026A0004983E0CF83E991E00E944F0882E991E0FD
:1026B0000E944F080E944B06AB01BC014859564787
:1026C000664F7F4F2BE631E287E993E02A960FB6FB
:1026D000F894DEBF0FBECDBFDF91CF911F910F9158
:1026E000FF90EF90DF90CF90BF90AF909F908F9032
:1026F0007F906F905F904F903F902F900C94360793
:1027000084E591E05ACF8BE491E057CF8DE391E0DF
:1027100054CF80E391E051CF82E291E04ECF87E148
:1027200091E00E945C08A090CC04AA2009F45CC24D
:10273000C0903804D09039040C2D07700A5F9601C0
:1027400043E0369527954A95E1F72370C60155E099
:10275000969587955A95E1F7837080904D04E090A7
:102760001404F090150451E0E51AF10815E08823EF
:1027700039F016E0813021F017E0823009F018E0DE
:10278000222309F477C084EFB82E99249394213042
:1027900019F42AEFB22E912CC0900004709001041D
:1027A00060900204509003040E944B061F92DF9237
:1027B000FF92EF921F921F939F92BF921F928F9250
:1027C0001F920F931F92AF925F926F927F92CF9260
:1027D0009F938F937F936F9382E092E09F938F9369
:1027E0000E94502C10914C040E944B061F921F9384
:1027F0009F938F937F936F938FE492E09F938F9338
:102800000E94502C0FB6F894DEBF0FBECDBF81E101
:1028100091E00E9469036091550470E090E080E0CF
:102820004AE00E946A088DEC90E00E946903F12C56
:10283000E12C08E612E0809155048E151F04E9F0A2
:10284000E4F0E091CB04C7018F529C4FE80FF92FC1
:10285000F11DEB57FF4F80811F928F931F930F93B2
:102860000E94502C7FEFE71AF70A0F900F900F90FD
:102870000F90E1CF9DE7B92E8ECF82E991E00E94C3
:102880004F0880EC90E00E9469036091CC0470E0F6
:1028900090E080E04AE00E946A0888EA90E00E94A6
:1028A0006903F12CE12C08E612E08091CC048E152E
:1028B0001F04D1F0CCF0E091CB04C7018F529C4FA4
:1028C000E80FF92FF11DE450FF4F80811F928F9385
:1028D0001F930F930E94502C8FEFE81AF80A0F9065
:1028E0000F900F900F90E1CF82E991E00E944F0886
:1028F0002091CC04EDECF4E0FC83EB8390E080E0ED
:102900001A821982422F50E058874F836F81788551
:10291000E981FA81E617F7070CF048C1EB81FC81E9
:102920002191FC83EB83022E000C330B6C014CE0F5
:10293000D594C7944A95E1F7A92FBB27A7FDBA956F
:10294000AC25BD253D0162267326F1E06F22772478
:102950007C016DE0F594E7946A95E1F75C01AB2C9E
:10296000BB0CBB08A594AE24BF2449019594879461
:102970008A249B24880C991C42E08422992486286E
:1029800097288C01110F000B110F102F001F2C0125
:10299000452C550C55084594459440265126F9017F
:1029A000F595E795F595E795E425F525EE0FFF1FDD
:1029B000EE0FFF1FE470FF27E80DF91D592F551F7B
:1029C0005527551F59871A861C014BE035942794CB
:1029D0004A95E1F723FB662760F96D831E82A1010A
:1029E0004170552769857A85462757276D817E81F5
:1029F0004627572763E0440F551F6A95E1F74E0FAE
:102A00005F1FB901E4E075956795EA95E1F76C25DC
:102A10007D25F4E0660F771FFA95E1F7607177275F
:102A2000460F571FF90165E0F595E7956A95E1F7BF
:102A3000BD016E257F256E277F27E5E0660F771F96
:102A4000EA95E1F760727727640F751FA5014027AB
:102A50005127F901689415F8F595E7951694E1F773
:102A60004E275F27E6E0440F551FEA95E1F74074D3
:102A70005527640F751F4201E1E08E229924498594
:102A80005A85842695262227330F221F332728258F
:102A900039253695322F222737952795260F371F50
:102AA000B101682779276170772764277527762F0A
:102AB0006627620F731F3C0175946794C624D72460
:102AC000DC2CCC24DD0CCC2452E0D5226C0D7D1DF9
:102AD000AC0155954795559547954E255F25542F43
:102AE0004427550F550F44275470640F751FFC0180
:102AF00023E0F595E7952A95E1F7E027F127FE2FEA
:102B0000EE27FF0FFF0FFF0FEE27F8706E0F7F1FEE
:102B10009C0144E0359527954A95E1F7A227B32714
:102B2000A170BB27E985FA85AE27BF27BA2FAA2750
:102B3000B295B07F6A0F7B1F9C01E5E03595279524
:102B4000EA95E1F72A253B25322F22273295330FCC
:102B5000307E22273072620F731F9C01A6E03595EC
:102B60002795AA95E1F742265326B0E44B9E502CB8
:102B7000442411244424F0E45F22640D751D880F61
:102B8000892F881F990B8225932529853A858227CD
:102B900093279927869597958827860F971F4981B0
:102BA0005A814F5F5F4F5A834983B0CE9F938F9373
:102BB0009F938F938DE692E09F938F930E94502C6A
:102BC0000E944B061F9222E02F939F938F937F9337
:102BD0006F9384EA92E09F938F930E94502C0FB6DC
:102BE000F894DEBF0FBECDBF2A960FB6F894DEBFB5
:102BF0000FBECDBFDF91CF911F910F91FF90EF904E
:102C0000DF90CF90BF90AF909F908F907F906F900C
:102C10005F904F903F902F9008958AE990E0CDCC3F
:102C200088E790E0CACC88E690E00E946903B8018A
:102C300090E080E04AE00E946A0882E991E02A96EA
:102C40000FB6F894DEBF0FBECDBFDF91CF911F91BD
:102C50000F91FF90EF90DF90CF90BF90AF909F903B
:102C60008F907F906F905F904F903F902F900C943B
:102C70004F08CF92DF92EF92FF92CF93DF93EC0158
:102C8000C12CD12C7601C3940C2E04C0CC0CDD1CBD
:102C9000EE1CFF1C0A94D2F7E3FC03C0CE010E9495
:102CA0008812D701C60188279472AA27BB27892BCF
:102CB0008A2B8B2B01F1E091D503F091D60330974D
:102CC000D1F02091CC044091CB04211102C04423C7
:102CD00091F08091CA0450E060E084FF04C0DA0102
:102CE000A453BB4F6C9130E043535B4F8091D703AB
:102CF0009091D8030995CC2484E0D822E822FF24BF
:102D0000CD28CE28CF2819F1E091D903F091DA032C
:102D10003097E9F01092DA031092D903C231D1054D
:102D200041F18091CA0483FD24C09091540461E074
:102D3000992339F0082E000C990B692F661F66271E
:102D4000661F70E08091DB039091DC030995E091B0
:102D5000D103F091D203309771F0BE018091D3037B
:102D60009091D403DF91CF91FF90EF90DF90CF90BF
:102D7000099460E0E6CFDF91CF91FF90EF90DF9074
:102D8000CF90089582E08093CA04E091C504F0E0FA
:102D9000E051FD4FE491F0E0EF77E068F093390403
:102DA000E09338048091180490911904A0911A04BA
:102DB000B0911B048093000490930104A09302043B
:102DC000B09303041092CC0483E190E00E94391682
:102DD00080E00C94190E8BE596E29093E7038093C4
:102DE000E6030C94C2168DE591E29093E70380937D
:102DF000E6030C94C21621E02093CA04E8E3F4E051
:102E0000208131812068318320831092CC049093FB
:102E1000E7038093E60383E190E00E94391680E0A7
:102E20000C94190E84E496E20C94FB168AE491E269
:102E30000C94FB162F923F924F925F926F927F926B
:102E40008F929F92AF92BF92CF92DF92EF92FF92BA
:102E50000F931F93CF93DF93CDB7DEB7CB58D10934
:102E60000FB6F894DEBF0FBECDBF80914004811134
:102E700016C781E08093400480913A0490913B040E
:102E80009C01217C3327232B81F440910C04509129
:102E90000D0460910E0470910F04452B462B472BB7
:102EA00029F582FD2FC00E941011809140048150AD
:102EB000809340048111E0CFC557DF4F0FB6F894DF
:102EC000DEBF0FBECDBFDF91CF911F910F91FF905D
:102ED000EF90DF90CF90BF90AF909F908F907F90BA
:102EE0006F905F904F903F902F90089596FF0AC08B
:102EF0009F7B90933B0480933A0489E99EE10E9472
:102F0000F706D3CF0E944B066B017C0100913A0477
:102F100010913B04C8018C739927892B09F4B4C61E
:102F200013FF58C18091340490913504009711F03B
:102F30000E94CA0FC092F403D092F503E092F60308
:102F4000F092F70380913A0490913B04977F90931D
:102F50003B0480933A04B701A60180914A04811191
:102F600006C080913A0490913B0490FF12C080917A
:102F7000040490910504A0910604B09107042A016D
:102F80003B01481A590A6A0A7B0A77FE02C0AC0163
:102F9000BD0121E7C20E22E0D21EE11CF11CDB01C3
:102FA000CA018C199D09AE09BF09B7FF59C63091F6
:102FB0004E04CF57DF4F3883C158D04004721127D9
:102FC000012B09F41FC180913A041091500485FD32
:102FD00016C11092CD0490913C0480913D049093D1
:102FE000DE048093DF0443E150E06DEC74E08AE09E
:102FF0000E94BC0E6093E3047093E2048093E104AA
:103000009093E00487E18093CC0480913C049091FC
:103010003D04019690933D0480933C0484E19BE041
:103020009093E7038093E603CF57DF4FC880C158E2
:10303000D040EC2DF0E0E051FD4FE49180914F0441
:1030400020E2829FC0011124EF798E2B90933904E6
:1030500080933804C092450480913A0490913B04D7
:103060008F76967F8068986090933B0480933A04B3
:10307000A0914904A03670F5B0E020E43DE043E0C3
:1030800050E00E94262B8B019C01005A1A4C274FBE
:10309000334E00364FE9140740E224074CE1340771
:1030A00008F0B6C4605A764A8340934E6093000499
:1030B000709301048093020490930304E091C3048D
:1030C000EF3F09F423C5EF70F0E0E152FD4FE491CA
:1030D000E093460490914D048091460498170CF4B7
:1030E000892F8093470481E190E00E943916109265
:1030F000F4031092F5031092F6031092F70381E0A7
:103100000E94920B877059F080E00E94610D0E942E
:103110004B06625C7F4F8F4F9F4F0E948E074090FF
:10312000FC035090FD036090FE037090FF031414A5
:103130001504160417040CF0EEC481E00E946B0D18
:103140008091000490910104A0910204B0910304C5
:1031500081349D4DAA44BF4108F4DAC483E69FEF51
:10316000E091AF03F091B00327817C01E20EF11CE6
:1031700027FDFA940E944B06615E7F4F8F4F9F4F51
:103180000E948E070E944B0610E0460E571E681ED6
:10319000791E8BE10E94920B181708F4182F0E94D9
:1031A0004B06641975098609970997FDF2CF80E0EF
:1031B0000E94610D80914804082E000C990BE10ECD
:1031C000F11CE816F9060CF4A6C48091E603909170
:1031D000E70395CE4091F4035091F5036091F60317
:1031E0007091F703BACECF57DF4F8881C158D040D6
:1031F0000E94200BCF57DF4F8883C158D040115019
:1032000090F7E7CE8091100490911104A0911204E0
:10321000B091130480389F4FAF4FBF4F18F08FE825
:103220009EE16DCE8091C90481110DC0809114047E
:1032300090911504A0911604B09117048F3F9F4FF1
:10324000AF4FBF4F61F3E0903A04F0903B0478E158
:10325000E722FF2480E1E816F10409F4CEC1A09032
:10326000550480915304882309F4C9C180918B04CB
:10327000882309F4C4C100918A04002309F4BFC162
:1032800010E0A8016CE874E085ED94E00E94402C09
:10329000085F1F4F10928A0410928B048091C6041D
:1032A000882331F086FFAEC190E489278093C6045D
:1032B0008091C704882331F086FFB4C190E4892748
:1032C0008093C7048091C804823009F0BBC181E0BB
:1032D0008093C804093111050CF079C38091BD04B5
:1032E000882361F080913E0490913F0497FF04C0D1
:1032F00090E080E00E9474051092BD046A2C712C4D
:1033000025E0620E711CF0E1EF16F10419F4A4E05F
:103310006A2E712C600E711E31E4631671040CF07C
:103320009CC191E040E1E416F10409F490E0E091E1
:103330004E04E63008F096C1F0E0E752FD4FE4910C
:10334000E615170408F443C380E48093CD0480910C
:10335000BB044091C104482B20913E0430913F04AE
:1033600037FD82C121523109203B324008F47CC133
:1033700020E488EF800F842B822B8093D20440912D
:103380000C0430910D0420910E0480910F044093A1
:10339000CE043093CF042093D0048093D104809145
:1033A000C904811118C020915104211114C0409109
:1033B00014045091150460911604709117044F5F26
:1033C0005F4F6F4F7F4F40931404509315046093E9
:1033D00016047093170420911404309115042150A1
:1033E00031092093D3043093D4041092BB04992361
:1033F000D9F190915404992309F438C190E890933D
:10340000CD04811103C081E08093C904F801E35326
:10341000FB4F809153048083C80182539B4F6C0102
:10342000B12CA50166E574E00E94402C00911404C3
:1034300010911504209116043091170401501109C0
:103440002109310940910C0450910D0460910E0442
:1034500070910F0480915304811115C18BE994E0A0
:10346000F12CE12C0E94D6118301045011098091A6
:10347000140490911504A0911604B09117040197BB
:10348000A109B10960910C0450910D0440910E0402
:1034900030910F0420E1E1E6F3E0C22E1192CA94CC
:1034A000E9F779E470936103109266030093700367
:1034B00060936703509368034093690330936A03F2
:1034C00080936B0390936C03A0936D03B0936E0392
:1034D000EBE9F4E0A1EBB3E001900D922A95E1F75E
:1034E000A8016DEC74E082E00E94BC0EF801E35389
:1034F000FB4F63837283818390836092CC047F92BD
:103500006F922FEC32E03F932F930E94502C0F903C
:103510000F900F900F9010E000E08091CC04801786
:10352000110611F00CF0B2C08AE090E00E94662C07
:103530008091CC04EDECF4E0CC57DF4FF983E883C5
:10354000C458D040CA57DF4FF983E883C658D040EB
:1035500010E000E0912C812C482F50E0C657DF4F3F
:1035600059834883CA58D040C657DF4F4881598194
:10357000CA58D040841695060CF4A2C01F930F932E
:103580001F930F938FEE92E09F938F930E94502C86
:1035900019831A8211271C830B831091CC04412FAD
:1035A00050E0FE0135960F900F900F900F900F9006
:1035B0000F90ADECB4E090E080E0841795070CF438
:1035C000EEC1440F551F70E060E08DEC94E00E9466
:1035D000492C1E5F1093CC04FE01319630E020E0B0
:1035E000812F90E0281739070CF4DFC1E9EFFAE0EA
:1035F000F093E703E093E60317CDA12C37CE08E064
:1036000010E048CE98012F523C4FF901E450FF4F93
:1036100095E0908323503F4F8770D9018C930E5FC4
:103620001F4F46CE98012F523C4FF901E450FF4FF7
:103630009AE0908323503F4F8370F90180830E5F9F
:103640001F4F40CE882309F445CEF801E353FB4FCA
:1036500088E080830F5F1F4F3DCE380154E0650E38
:10366000711C64CEE0E06CCE20E083CE80914C04EF
:10367000882309F4CBCE809151048111C7CE81E01B
:1036800080935104C3CE8BEA94E0EACEE091CB0460
:10369000C8018F529C4FE80FF92FF11DE450FF4FE6
:1036A00080811F928F9388E692E09F938F930E9470
:1036B000502C0F5F1F4F0F900F900F900F902DCF3A
:1036C000CA57DF4FA881B981C658D040BD90CA57AC
:1036D000DF4FB983A883C658D04078019CE0F594A9
:1036E000E7949A95E1F7412E552447FC5A944E24CD
:1036F0005F244B2D0B2C000C550B44255525CA017E
:1037000081709927D801A8E0BA02A12DBB0B112422
:103710009801232F330F330B2595F901EA27FB2757
:10372000CE57DF4FF983E883C258D0402B2D259523
:10373000022E000C330B2E273F27220F331F22703F
:103740003327822B932BF801FF0FEE0BFF0FFE2F79
:10375000EE1F1801232C330C3308259425942E26B4
:103760003F262B2D25952595022E000C330B222567
:103770003325220F331F220F331F24703327280FC6
:10378000391FA8014427550F441F5527B80160E28F
:103790007602612D770B1124CB0181709927842744
:1037A0009527B3FACC24C0F8C857DF4FC882C85851
:1037B000D040C757DF4F1882C958D040C857DF4F95
:1037C000C880D980C858D0408C259D25880F991F66
:1037D000880F991F880F991F280F391F8B2D8595EA
:1037E000859585958595082E000C990B8E259F252E
:1037F00082959295907F9827807F9827807199274E
:10380000820F931F2B2D259525952595259525957B
:10381000022E000C330B6D01C424D5242C253D252C
:10382000689414F8220F331F1694E1F7207233279F
:10383000820F931FCE57DF4F28813981C258D04065
:103840002E273F27CB2CC6FACC0CCC08C0F80C2C6A
:10385000000CDD082C253D25689415F8220F331F38
:103860001694E1F720743327820F931F310121E072
:103870006222772464267526BB1CBB24BB1C6B24E8
:103880007694762C662477946794680E791ECB0123
:10389000802791278170992784279527982F88273B
:1038A000860D971D980135952795E226F326FE2C67
:1038B000EE24FF0CEE2432E0F3228E0D9F1D6801F2
:1038C000D594C794D594C794CA26DB26DC2CCC2487
:1038D000DD0CDD0CCC24A4E0DA228C0D9D1D38011A
:1038E000B3E075946794BA95E1F76E267F26762C3F
:1038F0006624770C770C770C6624B8E07B22860D63
:10390000971D9801E4E035952795EA95E1F7422661
:103910005326E1E04E22552444265526542C4424B7
:103920005294F0EF5F22840D951D9801A5E0359526
:103930002795AA95E1F7CE57DF4FC880D980C258A6
:10394000D0402C253D25322F22273295330F307E53
:1039500022273072820F931FD80126E0B595A795D4
:103960002A95E1F7A225B325B0E4AB9FB02DAA2795
:103970001124AA27B0748A0F9B1F000F012F001F6C
:10398000110B0627172704271527112706951795CA
:103990000027080F191F2FEF821A920AE5CD2D91EB
:1039A00030E021933193019608CE40813296CC5776
:1039B000DF4FA881B981C458D0404D93CC57DF4F19
:1039C000B983A883C458D0402F5F3F4F0BCE88E007
:1039D0008093CA0480915404811104C08091C90469
:1039E000882319F088E48093CA0480913A04909166
:1039F0003B0487769E7F90933B0480933A04109219
:103A0000CC041092CB048AE090E00E9439164DCA93
:103A1000003659E0150759E325075CE1350728F41E
:103A2000605A70418C41934E41CB0036A3E71A0790
:103A3000A1E52A07ACE13A0728F4605A7A478443A3
:103A4000934E34CB0036BDED1B07B9E62B07BCE126
:103A50003B0728F4605A744E8C44934E27CB0036B3
:103A6000E7E41E07E2E82E07ECE13E0728F4605A7F
:103A70007E448546934E1ACB0036F1EB1F07FAE9D8
:103A80002F07FCE13F0728F4605A784B8D47934E8F
:103A90000DCB00364BE1140743EB24074CE1340710
:103AA00028F4605A72428649934E00CB003655E89E
:103AB00015075BEC25075CE1350728F4605A7C4864
:103AC0008E4A934EF3CA0036AFEE1A07A3EE2A07CA
:103AD000ACE13A0728F4605A764F864C934EE6CA1A
:103AE0000036B9E51B07BCEF2B07BCE13B0728F408
:103AF000605A70468F4D934ED9CA009300041093BC
:103B000001042093020430930304D8CAE3E1E0CA1D
:103B10008CE59FEF25CB80913804877009F06AC04F
:103B20000E943D0D81E00E94610D80E00E94B70B74
:103B300060E085E20E94A40B65E086E20E94A40B8F
:103B40000E944B0C0E94E40B69E28AE00E94A40BE5
:103B500064E380E40E94A40B6091CC046F5F82E375
:103B60000E94A40B6091CC0480E00E94A40B4091C1
:103B7000CC0450E020E06DEC74E080E80E94290B5A
:103B800081E00E9402086091F4037091F503809136
:103B9000F6039091F703611571058105910531F1E7
:103BA0000E948E076115710581059105F9F000915C
:103BB000EE031091EF032091F0033091F103DC014B
:103BC000CB01800F911FA21FB31F8093EE03909330
:103BD000EF03A093F003B093F1038091F20390916F
:103BE000F30301969093F3038093F20383E00E9422
:103BF000610D5BC90E944F0D81E00E94920B87FD11
:103C000006C061E273E085E991E00E94020681E06E
:103C10000E94610D0E949B0C0E944B0C68E08AE0A0
:103C20000E94A40B0E94E40B64E389E30E94A40BAE
:103C30006CE780E40E94A40B6FEF82E10E94A40B6A
:103C400067EF81E10E94A40B60E08EE00E94A40B6C
:103C500060E08DE00E94A40B6091CC0482E285CFED
:103C600080913A0481FF05C0411551056105710538
:103C700089F041575240610971092DEA3EE180EE19
:103C800093E00E94360711C940E050E0BA0101FDFF
:103C9000F0CF0BC941E050E060E070E0EACF82E095
:103CA0008093400409C980913A0490913B0483FFBA
:103CB00035C01092550482FF2CC0877E90933B0440
:103CC00080933A0482E190E00E94391680913A0490
:103CD00090913B0485709927892B01F50E94FB0583
:103CE0008091E2039091E303A091E403B091E50396
:103CF000892B8A2B8B2B79F481E595E060EE73E0BC
:103D00000E94AC040E946F0680E00E94610D0C943A
:103D10001A178776D3CF8FE495E0F0CF08950E94ED
:103D2000531E0E9421128CE090E00E9439160C94E0
:103D30001011EAE3F4E0808191818E7D9F7B918375
:103D4000808310920C0410920D0410920E041092B5
:103D50000F040E94531E0C9410110C941A17CF9349
:103D600080913A0490913B04877790933B04809331
:103D70003A04109251041092C90420918A0422231B
:103D800051F030918B04332309F466C08061909325
:103D90003B0480933A040E944B066E5E75488F4F39
:103DA0009F4F40E00E9498118091CA04877079F07B
:103DB00080913A0490913B0494FF09C09F7E9093B8
:103DC0003B0480933A048FE090E00E9439168AE029
:103DD00090E00E9439160E941A1780913E0490913B
:103DE0003F048197B4F180914E040E94200BC82FAC
:103DF000209134043091350480914E0427303105F0
:103E000008F4C82F8C1332C080913E0490913F0477
:103E1000813F92404CF080913A0490913B04906431
:103E200090933B0480933A0463E18C2F0E945705E2
:103E300080913A0490913B049C01306130933B04A3
:103E400020933A042817390721F08EE090E00E9471
:103E5000391681E0CF9108951092540410925304C2
:103E60002093550410928A04886091CFCC23E1F20C
:103E700090E080E00E947405D7CF8091C904882328
:103E8000B1F1883020F58F5F8093C90480FF07C0AF
:103E900080914E040E94200B60E80E9457056091BB
:103EA000F8037091F9038091FA039091FB0343E0CA
:103EB0000E94981180913A0490913B048F779093DF
:103EC0003B0480933A040E941A1781E0089580E62B
:103ED0008093CA0480913E0490913F0401960E9411
:103EE00074051092CC041092CB040C94AF1E8091F8
:103EF0005104882379F090914C04891758F48F5F0E
:103F0000809351040E944B066E5E75488F4F9F4F01
:103F100040E0CECF80E2DCCF80915204882341F094
:103F20000E94930E85E090E00E9439160C941A17B7
:103F300081E080935204F6CFCF92DF92EF92FF920E
:103F4000CF93DF9380913A0490913B0482FD22C08D
:103F500085FD0DC08F7790933B0480933A0481E0F8
:103F6000DF91CF91FF90EF90DF90CF9008958F7504
:103F700090933B0480933A04809150048A3018F463
:103F80008F5F8093500489E090E00E9439160E9470
:103F90001A17E5CF8F7790933B0480933A0484E11E
:103FA00090E00E94391680914B04809349048091DF
:103FB0003404909135040E94CA0F8091C9048F5F28
:103FC0008093C904C82FC77010924E0480913A04A0
:103FD00090913B04977F90933B0480933A040E9416
:103FE0004B066B017C0120914E0480E190E002C001
:103FF000959587952A95E2F70E946A11C60ED71EFD
:10400000E81EF91EC092F403D092F503E092F60385
:10401000F092F703C12CD12C7601C394CC2399F0F4
:10402000C12CD12C7601CDEADEE10E944B06AB011A
:10403000BC014C0D5D1D6E1D7F1D9E0180EE93E049
:104040000E9436078CCFC5E6D1E2EFCF8091CA043B
:1040500080FF0C949C1F80E00895CF92DF92EF9236
:10406000FF920F931F93CF93DF938091CA0480FF39
:1040700005C08091CC04882309F402C180913A04E0
:1040800090913B0487FFE6C084729927892B51F4F5
:10409000DF91CF911F910F91FF90EF90DF90CF9024
:1040A0000C9426201091CC0411110AC0DF91CF91FD
:1040B0001F910F91FF90EF90DF90CF900C949C1F79
:1040C000113111F0113221F78091CD04837E8032BD
:1040D000F9F6C12FD0E0AE01415051096EEC74E009
:1040E00080E00E94BC0E2497AE016DEC74E08AE083
:1040F0000E94BC0E6B017C01C353DB4F6881798148
:104100008A819B810E94092BC616D706E806F9060C
:1041100009F0BECF84ED94E00E94ED0560930C049D
:1041200070930D0480930E0490930F0481ED94E03E
:104130000E94ED0599276093080470930904809309
:104140000A0490930B041132D1F48091E904813078
:10415000B1F49AEDE92E94E0F92EC0E0D701119662
:104160000C9111978C91102F082FD0E1DC0FDC13EC
:1041700073C0B2E0EB0EF11CCD2FD03679F78091F1
:104180003C0490913D040197E3EAF4E028E0DF016C
:104190001D922A95E9F721E020939B0426E0EEEC9E
:1041A000F4E0ACE9B4E001900D922A95E1F7809338
:1041B000A2049093A30480E1EBE9F4E0ABEAB4E05D
:1041C00001900D928A95E1F782E08093AB0440E183
:1041D00050E06BE974E080E00E94BC0E40E150E0EA
:1041E0006BEA74E080E00E94BC0E80913A0485FF87
:1041F00008C0C091500480914E04C150E0F58093F6
:104200004E0480913A0490913B0489759D7F98609B
:1042100090933B0480933A041092C9040E94C9050C
:1042200080EC9FEF0E9474058091D804982F9F70B6
:104230009093C504829587708093C4048091D904BB
:104240008823E1F08093BE0486E090E00E94391656
:104250000E941A1781E015C0C03609F48ACF8C2F4E
:1042600000FF06C00E94C304CF5F169507957FCF5D
:104270000E94F304F9CF0E94200BBFCF81E0E2CF70
:1042800080E0DF91CF911F910F91FF90EF90DF9031
:10429000CF9008958091CC0481110AC02091C5046B
:1042A00043EF56E168ED78EB85E090E00C94500A1E
:1042B0000E942D20882391F308958091CC048111D0
:1042C00002C01092CA040C942D2088E090E00E9455
:1042D00039160C941A1780913A0490913B0487FF89
:1042E00004C081E692E00C945C088C799927892BB4
:1042F000E1F430914E044091340450913504832F01
:1043000090E04730510588F0863078F4FC01E752A0
:10431000FD4FE491EE2349F0E83390F5FC01EF50B6
:10432000FD4FE4910196EF3F61F780913A0490913F
:104330003B049C012C793327232BF9F42BE2E0E09A
:10434000F1E0A6E5B4E001900D922A95E1F7109214
:10435000540421E0209353042BE2209355049C0144
:10436000286030933B0420933A0482FD04C01092ED
:10437000C904109251040E941A178AE792E0B3CF41
:10438000381799F260E80E945705CFCF2F923F92DD
:104390004F925F926F927F928F929F92AF92BF9255
:1043A000CF92DF92EF92FF920F931F93CF93DF9301
:1043B000CDB7DEB76C970FB6F894DEBF0FBECDBF9A
:1043C000998F888F3B0110928A04452B09F5109232
:1043D0008B04F12CE12CE614F704F4F0C7016C9681
:1043E0000FB6F894DEBF0FBECDBFDF91CF911F9106
:1043F0000F91FF90EF90DF90CF90BF90AF909F9084
:104400008F907F906F905F904F903F902F90089586
:1044100081E080938B04DDCFC88CD98CCE0CDF1C5F
:10442000F6012081223050F1422F4250550BFA0103
:104430004231510518F5EE56FD4FE4918E2F90E074
:104440009D8B8C8B892B51F2C3018E199F09EC89AE
:10445000FD898E179F070CF4C1CF2250283080F4BD
:10446000E22FF0E0EA5CFD4D0C94032B412249223F
:104470000C24952369234022FE231D24E0E0DECF97
:104480003701EC89FD89EE0DFF1D730137017F01B6
:10449000A2CFD60107E01B8A1A8A2A893B892B5FA3
:1044A0003F4F49019C014A895B89241B350B25300C
:1044B00031050CF493C011962C91119712964D91E1
:1044C0005C91139714963C9114973077E22FE29504
:1044D000EF70303558F0303509F078C0411551058E
:1044E00009F47AC04427452B09F076C0E63030F451
:1044F000F0E0E051FD4FE491EF3F09F40D7F2F70A4
:10450000283038F4E22FF0E0EF52FD4FE491E0382C
:1045100009F40B7F15962C91233009F454C08CE0DC
:10452000ECE1F4E0DE01119601900D928A95E1F73D
:1045300080913404909135049B8F8A8F412C10E038
:10454000073009F077C09F8A8E8A160181E0412CDE
:1045500010E0EE89FF8935970CF469C0F101A28063
:10456000B38011814480F42DF077F98BF035D9F5C3
:10457000512C852DA0FE34C00E942C065394B69475
:10458000A79428E05212F5CF2091340430913504DD
:104590004E895F89455051095F8B4E8B55E0250E42
:1045A000311C81E02115310509F480E0A1014C198D
:1045B0005D09481559056CF2232BD9F1A12EA2945F
:1045C0008FE0A8223DC09B8A8A8A67CF303609F4E3
:1045D00089CF303709F482CF0E7F88CF00E09FCF9C
:1045E0000E940506CBCF8989803578F4805F8C8F57
:1045F0005988FC8D5F1640F6852DA0FE15C00E94DF
:10460000C3045394B694A794F4CF512C9989852D63
:10461000903639F40E94C3045394E0E65E12F6CF5C
:10462000E8CF0E94F304F8CF0E94F304EACF81118F
:1046300001C006E0A12EA2947FE0A722073041F43A
:10464000809134049091350407E0079780F405E0E9
:104650008CE0FE013196ACE1B4E001900D928A95B8
:10466000E1F72A8D3B8D3093350420933404BB242D
:10467000B394D12CC12CC4018C199D0905976CF001
:10468000602F83E00E949F05B82E35E0C30ED11C39
:10469000C814D90414F48111EECF073099F4842D95
:1046A0008F7090914C04891380934C041F7060E8C4
:1046B000183028F4E12FF0E0EF52FD4F64918A2D7D
:1046C0000E9457054A895B89E40EF51EBB2001F163
:1046D000D8CE20914204022E000C330BC901029661
:1046E00097FD03969595879595958795182F1F7338
:1046F0004F970CF01FE11093C004D090DF0300919E
:104700008A0486E00E948005811104C000938A0417
:10471000F701BCCE8D2D0E9480058823B9F3812F2F
:104720000E948005882391F3ACCEC7010196E88DE5
:10473000F98D8E0F9F1FFC012081122F1F7030E01A
:1047400044E0359527954A95E1F7022F07700E94BE
:10475000ED05272F382F492F5527A4E6B0E00E94FA
:10476000262B4B015C01F0E88F1AF1EA9F0AF3E077
:10477000AF0AFCE1BF0A21E082162AE5920622E692
:10478000A20622E0B20618F060E070E0CB0130EC47
:104790003093C604163050F4E12FF0E0E051FD4FA5
:1047A000E491EF3F19F042EC4093C60461157105A6
:1047B0008105910529F02091C60421602093C6044B
:1047C000043028F42091C60424602093C60420916C
:1047D000C604273C61F41093C504609318047093D9
:1047E000190480931A0490931B040093C404622F4D
:1047F000677085E00E949F05B82E68CFF601818121
:104800008F7009F481E08093BE04F2E0F093C80455
:1048100088E00E948005F0CFF60181818F7080933F
:104820004A040E944B06609304047093050480932D
:1048300006049093070484E0ECCFF60181818F7326
:104840008093C30489E0E5CF2F923F924F925F920D
:104850006F927F928F929F92AF92BF92CF92DF9290
:10486000EF92FF920F931F93CF93DF9300D000D06E
:1048700000D0CDB7DEB780913A0487FFE5C1F09054
:10488000CC04F1101AC026960FB6F894DEBF0FBE06
:10489000CDBFDF91CF911F910F91FF90EF90DF90EF
:1048A000CF90BF90AF909F908F907F906F905F90D0
:1048B0004F903F902F900C943D1F2F2D30E03E8362
:1048C0002D832C30310544F41092CC048091CA041D
:1048D00080FFD9CF80E0B9C18091CD04982F93702B
:1048E00099F7807E8983803611F0803A69F78EECE3
:1048F00094E00E94ED0500910C0410910D042091AC
:104900000E0430910F046017710782079307E1F6D8
:104910003091D2043B833F70E32EC32ED12C16017D
:10492000A8E02A0E311C2D813E81245031093E839E
:104930002D832215330544F288248A94982C22165C
:1049400033064CF4F101E353FB4F2081822E912C6E
:10495000D60119961D0140901004509011046090EA
:104960001204709013040091D3041091D40404191C
:1049700015090F3F100709F078C021E0421A5108CD
:104980006108710820E1E1E6F3E0DF01322F1D92BA
:104990003A95E9F739E43093610331E030936603E7
:1049A000ACEFAF0DAC83A09370036093670370937B
:1049B00068038093690390936A0340926B0350925B
:1049C0006C0360926D0370926E03EBE9F4E0A1EB6F
:1049D000B3E001900D922A95E1F74D815E816DEC77
:1049E00074E082E00E94BC0E9B01AC01ED81FE816F
:1049F000E353FB4F60817181828193810E94092B77
:104A0000261737074807590709F05ECF8091100431
:104A100090911104A0911204B09113044816590604
:104A20006A067B0638F584159505A605B7050CF4CE
:104A30004BCF0197A109B109481659066A067B06B2
:104A400009F042CF8091BC04882309F43DCFB9819D
:104A5000B03A09F039CF80E28093BB04811491040D
:104A600009F40CC101E010E033C0400E511E611C7E
:104A7000711C88CF0130104408F026CFD301C20149
:104A80000196A11DB11D8093100490931104A09371
:104A90001204B0931304398180E2303A09F080E0C7
:104AA0008093BC048093BB0410E000E08114910467
:104AB00041F4EE2031F08D819E81281639060CF4E8
:104AC00003CF8091BB04811103C09B8194FF09C077
:104AD00080913A0490913B04806190933B048093D1
:104AE0003A04109250041092BD0480EC9FEF0E9493
:104AF00074051092C6041092C804E0913804F09135
:104B000039048E2F877033E0F695E7953A95E1F7F3
:104B1000E370F0E0A3E08A9FE00DF11D1124E4545E
:104B2000FD4FE49180914104082E000C990B8054B4
:104B30009109ED58FF0B8E1B9F0B97FD80E0809332
:104B4000BF04A401B60185ED94E00E94C621012BAB
:104B500009F0BACEBFEF8B169B0699F12D813E81ED
:104B6000221933093E832D831216130654F5C10111
:104B700083539B4F9A83898340910C0450910D0479
:104B800060910E0470910F048BE994E081149104FC
:104B900011F08BEA94E0AD80BE80C980DA80EE240B
:104BA000E394F12C930182010E94D61181149104A7
:104BB00041F450E040E06D817E8189819A810E94BC
:104BC000C6219091C904992349F0AB8120E8A5FF43
:104BD00020E48091CA04822B8093CA048091CA0485
:104BE000181419043CF180628093CA042092CB040B
:104BF0001092CC04992321F08091CA0486FD43CE03
:104C000026960FB6F894DEBF0FBECDBFDF91CF91D1
:104C10001F910F91FF90EF90DF90CF90BF90AF90DA
:104C20009F908F907F906F905F904F903F902F90CC
:104C30000C94AF1E80618093CA042092CB04FC8048
:104C4000F218F092CC04D6CF81E026960FB6F894F5
:104C5000DEBF0FBECDBFDF91CF911F910F91FF90AF
:104C6000EF90DF90CF90BF90AF909F908F907F900C
:104C70006F905F904F903F902F900895EE2009F431
:104C8000F1CE01E010E017CF8091CC0481110EC06D
:104C9000A091BE04B0E0119624E234EF0E941F2BD5
:104CA0002091C5044BEE56E10C94500A0E94242436
:104CB000882371F308958091CC0481110BC0109268
:104CC000CA040E944B06655E78448F4F9F4F42E0B6
:104CD0000E9498110C9424241F920F920FB60F92E9
:104CE00011242F933F934F935F936F937F938F93F1
:104CF0009F93AF93BF93EF93FF9383E595E00E945B
:104D0000FA02FF91EF91BF91AF919F918F917F91A7
:104D10006F915F914F913F912F910F900FBE0F9028
:104D20001F9018951F920F920FB60F9211242F9378
:104D30008F939F93EF93FF93E0916305F091640548
:104D40008081E0916905F0916A0582FD1BC0908128
:104D500080916C058F5F8F7320916D05821741F0F4
:104D6000E0916C05F0E0ED5AFA4F958F80936C0559
:104D7000FF91EF919F918F912F910F900FBE0F9008
:104D80001F9018958081F4CF1F920F920FB60F924B
:104D900011242F933F938F939F93AF93BF93809151
:104DA0009F039091A003A091A103B091A203309121
:104DB000710323E0230F2D3758F50196A11DB11D76
:104DC0002093710380939F039093A003A093A1036A
:104DD000B093A2038091720390917303A091740326
:104DE000B09175030196A11DB11D8093720390933C
:104DF0007303A0937403B0937503BF91AF919F9118
:104E00008F913F912F910F900FBE0F901F9018958B
:104E100026E8230F0296A11DB11DD2CFE3E5F5E0F0
:104E20001382128288EE93E0A0E0B0E08483958341
:104E3000A683B7838EE391E09183808385EC90E035
:104E40009587848784EC90E09787868780EC90E054
:104E5000918B808B81EC90E0938B828B82EC90E045
:104E6000958B848B86EC90E0978B868B118E128EBF
:104E7000138E148E80E591E09093F1058093F005F8
:104E80000895CF93DF93CDB7DEB7A0970FB6F89410
:104E9000DEBF0FBECDBF789484B5826084BD84B57B
:104EA000816084BD85B5826085BD85B5816085BD25
:104EB00080916E00816080936E00109281008091DD
:104EC0008100826080938100809181008160809365
:104ED0008100809180008160809380008091B1008A
:104EE00084608093B1008091B00081608093B000B5
:104EF00080917A00846080937A0080917A00826049
:104F000080937A0080917A00816080937A0080910A
:104F10007A00806880937A001092C100E091630566
:104F2000F091640582E08083E0915F05F091600577
:104F30001082E0916105F091620580E1808310921A
:104F40006B05E0916705F091680586E08083E0914C
:104F50006505F0916605808180618083E09165053B
:104F6000F0916605808188608083E0916505F0910D
:104F70006605808180688083E0916505F091660513
:104F800080818F7D808364E670E080E090E00E9405
:104F900051048AE693E00E945C08EFE4F5E084E0C7
:104FA000DF011D928A95E9F78CE291E09093B003BE
:104FB0008093AF0380EF95E09093960380939503E1
:104FC00061E08AE00E94CD0361E08AE00E94FB0379
:104FD00060E089E00E94FB0360E082E00E94FB0346
:104FE00060E086E00E94FB0360E087E00E94FB0334
:104FF0001FB7F89480919403811127C0E0E4F3E097
:105000008491ECE2F3E09491E82FF0E0EE0FFF1FC3
:10501000E85EFC4FA591B491EC91E92321F461E0A5
:105020008AE00E94CD0361E08AE00E94FB038CB518
:1050300080618CBD8CB580648CBD61E08DE00E9488
:10504000FB0361E08BE00E94FB03809194038F5F80
:10505000809394031FBFE6E8F3E08EE0DF011D922A
:105060008A95E9F783EF95E090938F0380938E0301
:1050700082E080938903F093F505E093F40581E0E5
:105080000E94D8070091AF031091B003F80182810C
:105090008F3F49F060E00E94CD0361E0D801129695
:1050A0008C910E94FB030E944B06625C7F4F8F4FE6
:1050B0009F4F0E948E07F80182818F3F19F060E0B8
:1050C0000E94FB030E944B06685C7E4F8F4F9F4FF0
:1050D0000E948E0780E00E94610D82E40E94920B84
:1050E000823109F020C28091950390919603DC01F2
:1050F000ED91FC910680F781E02D0995882341F020
:105100008BE40E94920B682F60618BE40E94A40BD9
:1051100082E00E946B0D81E00E94920B87708530C7
:10512000D1F706E713E0B5E8CB2EB3E0DB2EA8E01D
:10513000EA2EF12C8CE20E94920B8170B82E8CE248
:105140000E94920B8170B816A9F3F8018181880F33
:105150008B298183F1E0EF1AF10861F70F5F1F4F90
:10516000C016D10621F710E11093760380E00E946B
:10517000610D80E490E090933B0480933A048FEFBC
:105180008093DF030E94211240E150E06AE573E062
:10519000CE0141960E94992A40E150E06AE473E012
:1051A000CE0101960E94992A83E190E0A0E0B0E050
:1051B0008093080490930904A0930A04B0930B040D
:1051C00085E19AEEAEEDB0E080930C0490930D046F
:1051D000A0930E04B0930F04FE013196ABE9B4E046
:1051E000812F01900D928A95E1F7FE017196ABEA4D
:1051F000B4E001900D921A95E1F780913A049091F4
:105200003B0489759D7B986090933B0480933A049E
:105210000E94C90590E080E00E94740510E0812F93
:105220000E9405061F5F1830D1F71092BD0480E878
:105230009FEF90933F0480933E041092C504109218
:10524000C1046BE080E00E94570587E993E00E946B
:105250006B21EFE0BE2EF0E0CF2EF0E0DF2E2FB777
:10526000F89480919F039091A003A091A103B09125
:10527000A2032FBF61E091FF60E08DE00E94CD03AB
:1052800073EAE72E73E0F72E10E000E0E091AF0341
:10529000F091B003E00FF11F83818F3FC9F1D70177
:1052A0004D905D906D907C904114510461047104A7
:1052B00079F1F701108211821282138281E00E943B
:1052C000920B87FFCEC082E10E94920B80934E0525
:1052D00083FF45C0F2E04F1A5108610871084092FF
:1052E000F4035092F5036092F6037092F7036FEFA8
:1052F00081E10E94A40B6FEF82E10E94A40B80E089
:105300000E94610D8091E6039091E7030E94F706E9
:105310000F5F1F4FE4E0EE0EF11C0330110509F0A2
:10532000B5CF0E94FB050091510510915205011562
:10533000110509F4C9C0D8018D919C919093520533
:10534000809351050E946F060115110509F4DFC015
:10535000D8011696ED91FC91C8010995D8C086FF39
:105360007BC0E0913804F0913904CF0163E0969559
:1053700087956A95E1F7837061F4E770F0E0EE0FCE
:10538000FF1FED58FC4F85919491481A590A610806
:1053900071084092F8035092F9036092FA037092F8
:1053A000FB038DE10E94920B80FF45C082E20E94C8
:1053B000920B8093CC0480E10E94920B682F8DE0C9
:1053C0000E94A40B4091CC0450E021E06DEC74E00D
:1053D00080E00E94290B89E10E94920B8093420495
:1053E0008AE10E94920B282F30E0409100045091F6
:1053F0000104609102047091030441345D4D6A44DC
:105400007F41D8F02D5931099091420497FF18C07F
:10541000A92FBB27A1950CF4B095CD019595879543
:1054200095958795281B390B203431059CF4205C19
:10543000209341045CCF83E1BACF245A3109E4CFF1
:105440002D39BFEF3B079CF36B2D0E94A22A280F3A
:10545000311DEACF2FE7ECCF87FF49CF1092CC0464
:1054600046CF8EE30E94920B8FE30E94920B83FF44
:105470000CC04092F4035092F5036092F6037092D0
:10548000F70381E00E94610D3ACF82FF1AC040927B
:10549000F8035092F9036092FA037092FB0382E3DF
:1054A0000E94920B8093CC04482F50E021E06DECD9
:1054B00074E080E00E94290B109242041092410493
:1054C000E0CF1092CC04DDCFE0914F05F091500574
:1054D0003097D9F042805380648075800E944B06DB
:1054E000461A570A680A790A141415041604170490
:1054F00064F000914F0510915005F8018081918171
:105500009093500580934F051DCF0E946F06C114E4
:10551000D10409F4A4CE0E94E602882309F49FCEA8
:105520000E9400009CCE65E370E087E293E00E9459
:105530000206FB01DC0102C005900D924150504073
:10554000D8F70895991B79E004C0991F961708F0C1
:10555000961B881F7A95C9F780950895AA1BBB1BD7
:1055600051E107C0AA1FBB1FA617B70710F0A61B63
:10557000B70B881F991F5A95A9F780959095BC0184
:10558000CD010895A1E21A2EAA1BBB1BFD010DC07F
:10559000AA1FBB1FEE1FFF1FA217B307E407F507E3
:1055A00020F0A21BB30BE40BF50B661F771F881FBF
:1055B000991F1A9469F760957095809590959B0155
:1055C000AC01BD01CF010895052E97FB1EF4009498
:1055D0000E94FB2A57FD07D00E94C22A07FC03D075
:1055E0004EF40C94FB2A50954095309521953F4FF1
:1055F0004F4F5F4F089590958095709561957F4FBF
:105600008F4F9F4F0895EE0FFF1F0590F491E02DEF
:105610000994692796276927782787277827089587
:10562000A29FB001B39FC001A39F700D811D1124E3
:10563000911DB29F700D811D1124911D08950E942E
:10564000102BB7FF0895821B930B08950E94102B17
:10565000A59F900DB49F900DA49F800D911D1124C6
:10566000089597FB57FF0C94412B9F938F930E94B3
:10567000412B6E1B7F0BAF91BF918A0B9B0B089543
:10568000E894DF93CF93FC01DB010E94102B7F9302
:105690006F93E9019A01AC01BF93AF933F932F93AE
:1056A000DF010E94102B26F46C1B7D0B820B930BE9
:1056B0009E01EB01FC010E94372CAF91BF912F910D
:1056C0003F910E94372CBE01CF01F9012F913F91EC
:1056D000CF91DF910895689401C0E8948F929F92D2
:1056E000CF93DF930E94792BDF91CF919F908F9082
:1056F000089588249924F401E401B0E49F93AA2733
:105700009A158B049C04ED05FE05CF05D007A10773
:1057100098F4AD2FDC2FCF2FFE2FE92D982C892E5A
:10572000982F872F762F652F542F432F322F222724
:10573000B85031F7BF9127C01B2EBF91BB27220F56
:10574000331F441F551F661F771F881F991F881C12
:10575000991CEE1FFF1FCC1FDD1FAA1FBB1F8A1441
:105760009B04EC05FD05CE05DF05A007B10748F059
:105770008A189B08EC09FD09CE09DF09A00BB10BC3
:1057800021601A94E1F62EF49401AF01BE01CD011F
:10579000000C08952F923F924F925F926F927F92EA
:1057A0008F929F92AF92BF92CF92DF92EF92FF9231
:1057B0000F931F93CF93DF93CDB7DEB7CA1BDB0BDD
:1057C0000FB6F894DEBF0FBECDBF09942A88398882
:1057D00048885F846E847D848C849B84AA84B98489
:1057E000C884DF80EE80FD800C811B81AA81B98195
:1057F000CE0FD11D0FB6F894DEBF0FBECDBFED01A9
:105800000895002E083090F0982F872F762F652F5F
:10581000542F432F322F22270850F4CF220F331F4B
:10582000441F551F661F771F881F991F0A95B2F7DF
:10583000002D089597FD1094002E083098F0085020
:10584000232F342F452F562F672F782F892F912DF7
:10585000F4CF1594979587957795679557954795C4
:10586000379527950A95AAF71124002D08950E94CF
:10587000102B460F571FC81FD91F08F431960895E3
:10588000FB01DC0102C001900D9241505040D8F75D
:105890000895DC0101C06D9341505040E0F7089538
:1058A000B0E0A0E0E6E5FCE20C94DA2BAE014B5F41
:1058B0005F4FFA0161917191AF018091F405909170
:1058C000F5050E946D2CE2E00C94F62B6091F40536
:1058D0007091F5050E945D2E0895ABE0B0E0E3E71E
:1058E000FCE20C94CA2B7C013B018A01FC0117826B
:1058F0001682838181FFC8C1CE0101965C01F70148
:105900009381F30193FD859193FF81913F0188235A
:1059100009F453C1853239F493FD859193FF819148
:105920003F01853229F4B70190E00E945D2EE7CF58
:10593000912C212C312CFFE1F31538F08B3211F131
:1059400090F4803209F1833229F137FC3CC020ED1C
:10595000280F2A3050F536FE20C08AE0989E200D90
:105960001124922E06C08D3291F0803371F7689425
:1059700030F8F30193FD859193FF81913F018111EF
:10598000DACF21C0689431F8689432F8F2CF689485
:1059900033F8EFCF689434F8ECCFEAE02E9E200D78
:1059A0001124222E689435F8E4CF8E3229F436FC87
:1059B00004C1689436F8DDCF8C3619F4689437F852
:1059C000D8CF8836B1F2982F9F7D95549330E0F070
:1059D0008336A1F18337C1F1833509F063C0280113
:1059E000F2E04F0E511CF801C080D180692D70E0AB
:1059F00036FC02C06FEF7FEFC6010E94472E4C01BC
:105A0000689437F882010AC00C5F1F4FFFE3F983E7
:105A100088248394912C6501E89437F833FE2DC0D7
:105A2000522C8114910471F5552009F468CFB70107
:105A300080E290E00E945D2E5A94F6CFF8018081BA
:105A400089830E5F1F4FE4CF2801F2E04F0E511CF7
:105A5000F801C080D180692D70E036FC02C06FEF84
:105A60007FEFC6010E94522E4C018201D5CFB701B3
:105A700080E290E00E945D2E2A942814190409F017
:105A8000B0F7CECFF60137FC859137FE81916F01DB
:105A9000B70190E00E945D2E51105A94F1E08F1AE8
:105AA0009108BFCF843619F0893609F077C0F80124
:105AB00037FE6BC060817181828193810C5F1F4FC3
:105AC000F32DFF763F2E97FF09C090958095709536
:105AD00061957F4F8F4F9F4F689437F82AE030E0F1
