:100000000C942F020C9457020C9457020C94570234
:100010000C9457020C9457020C9457020C945702FC
:100020000C9457020C9457020C9457020C945702EC
:100030000C9457020C9457020C9457020C945702DC
:100040000C94D8240C9457020C94A6240C9480246D
:100050000C9457020C9457020C9457020C945702BC
:100060000C9457020C945702556E6B6E6F776E208E
:100070006576656E743A200045565F4A4F494E5F7B
:100080005458434F4D504C4554453A206E6F204ACA
:100090006F696E4163636570740045565F545843E1
:1000A000414E43454C454400206279746573206F8E
:1000B00066204672616D65205061796C6F61643AAB
:1000C000204261736536342D6465636F6465642016
:1000D00068657861646563696D616C2073747269C9
:1000E0006E67207061796C6F61643A0053656E745D
:1000F000200045565F545853544152540045565FB2
:100100004C494E4B5F414C4956450045565F4C4962
:100110004E4B5F444541440045565F5258434F4D56
:10012000504C4554450045565F5245534554004593
:10013000565F4C4F53545F5453594E4300426173C2
:100140006536342D6465636F646564206865786125
:10015000646563696D616C20737472696E67207089
:1001600061796C6F61643A20002062797465732054
:100170006F66207061796C6F61643A20005265632C
:1001800065697665642000526563656976656420FB
:1001900061636B0045565F5458434F4D504C455476
:1001A000452028696E636C75646573207761697496
:1001B000696E6720666F722052582077696E646F8F
:1001C0007773290045565F52454A4F494E5F464175
:1001D000494C45440045565F4A4F494E5F464149A8
:1001E0004C45440045565F4A4F494E4544004556EC
:1001F0005F4A4F494E494E470045565F424541438D
:100200004F4E5F545241434B45440045565F424573
:1002100041434F4E5F4D49535345440045565F425D
:100220004541434F4E5F464F554E440045565F5340
:1002300043414E5F54494D454F5554004F505F5414
:1002400058525850454E442C206E6F742073656E82
:1002500064696E67005061636B65742071756575C4
:100260006564000000000023002600290003050249
:100270000501060202050000060000010504040055
:1002800004000000020000000100008000000040A7
:10029000000000200000002020200E11140C0F127E
:1002A000090C0F06090C03060900030613110F0DB4
:1002B0000B09070540404080EBEB080A0C0D0E10BF
:1002C000121415181A1B1D1E2124FF060504030213
:1002D00001FFC0400000000000250028002B0000A6
:1002E00000000800020100000304070000000000F5
:1002F00000000000000000240027002A0001020482
:100300000810204080010204081020010204081097
:10031000200404040404040404020202020202038E
:10032000030303030343579EA99CF9256204D47772
:100330008F63A61C0CE9B53B908577E0CF4A7DBE64
:10034000490D40B0455374617274696E67000000D6
:1003500000006700CC00B80154039D07637C777BE5
:10036000F26B6FC53001672BFED7AB76CA82C97DB1
:10037000FA5947F0ADD4A2AF9CA472C0B7FD932642
:10038000363FF7CC34A5E5F171D8311504C723C346
:100390001896059A071280E2EB27B27509832C1A8A
:1003A0001B6E5AA0523BD6B329E32F8453D100EDE4
:1003B00020FCB15B6ACBBE394A4C58CFD0EFAAFBC8
:1003C000434D338545F9027F503C9FA851A3408F90
:1003D000929D38F5BCB6DA2110FFF3D2CD0C13ECA8
:1003E0005F974417C4A77E3D645D197360814FDC3D
:1003F000222A908846EEB814DE5E0BDBE0323A0A21
:100400004906245CC2D3AC629195E479E7C8376DA4
:100410008DD54EA96C56F4EA657AAE08BA78252EC9
:100420001CA6B4C6E8DD741F4BBD8B8A703EB56652
:100430004803F60E613557B986C11D9EE1F8981143
:1004400069D98E949B1E87E9CE5528DF8CA1890D32
:10045000BFE6426841992D0FB054BB1622251124E6
:100460001FBECFEFD8E0DEBFCDBF25E0A4E2B3E0F2
:1004700001C01D92A03CB207E1F713E0A0E0B1E09B
:10048000E2E0FAE502C005900D92A432B107D9F777
:1004900012E0CFE2D2E004C02197FE010E941729AA
:1004A000CE32D107C9F70E9455250C94FF2C0C942D
:1004B0000000FC0120E1215008F4089580E02111A2
:1004C00081819191990F87FD9160DF0111979C9334
:1004D000F2CFAF92BF92CF92DF92EF92FF920F9343
:1004E0001F93CF93DF936C017B018B01040F151FCA
:1004F000EB015E01AE18BF08C017D10759F0699132
:10050000D601ED91FC910190F081E02DC601099595
:10051000892B79F7C501DF91CF911F910F91FF9042
:10052000EF90DF90CF90BF90AF900895FC01538D76
:10053000448D252F30E0842F90E0821B930B5417BD
:1005400010F0CF96089501970895FC01918D828D4A
:10055000981761F0A28DAE0FBF2FB11D5D968C91E3
:10056000928D9F5F9F73928F90E008958FEF9FEF22
:100570000895FC01918D828D981731F0828DE80FDE
:10058000F11D858D90E008958FEF9FEF0895FC0198
:10059000918D228D892F90E0805C9F4F821B910965
:1005A0008F73992708958BE195E00E94C70221E09F
:1005B000892B09F420E0822F089580E090E0892BB8
:1005C00029F00E94D30281110C9400000895FC01CF
:1005D000A48DA80FB92FB11DA35ABF4F2C91848DA4
:1005E00090E001968F739927848FA689B7892C9301
:1005F000A089B1898C91837080648C93938D848D54
:10060000981306C00288F389E02D80818F7D808356
:100610000895EF92FF920F931F93CF93DF93EC0116
:1006200081E0888F9B8D8C8D98131AC0E889F98999
:10063000808185FF15C09FB7F894EE89FF8960839C
:10064000E889F98980818370806480839FBF81E01D
:1006500090E0DF91CF911F910F91FF90EF9008955F
:10066000F62E0B8D10E00F5F1F4F0F731127E02E3A
:100670008C8D8E110CC00FB607FCFACFE889F98972
:10068000808185FFF5CFCE010E94E702F1CFEB8D8F
:10069000EC0FFD2FF11DE35AFF4FF0829FB7F89446
:1006A0000B8FEA89FB8980818062CFCF0F931F93E4
:1006B000CF93DF938C01D0E0C0E0F801EC0FFD1F79
:1006C0006491662341F08BE195E00E940903892B38
:1006D00011F02196F2CFCE01DF91CF911F910F91B2
:1006E0000895CF93DF93EC01888D8823B9F0AA8910
:1006F000BB89E889F9898C9185FD03C0808186FDDD
:100700000DC00FB607FCF7CF8C9185FFF2CF80812B
:1007100085FFEDCFCE010E94E702E9CFDF91CF91B7
:100720000895833081F028F4813099F08230A9F067
:1007300008958730A9F08830C9F08430B1F48091F1
:1007400080008F7D03C0809180008F778093800030
:10075000089584B58F7784BD089584B58F7DFBCFD0
:100760008091B0008F778093B00008958091B000A1
:100770008F7DF9CF1F93CF93DF93282F30E0F901BE
:10078000E152FD4F8491F901E350FD4FD491F901FD
:10079000EF5EFC4FC491CC23A9F0162F81110E946B
:1007A0009103EC2FF0E0EE0FFF1FEB52FD4FA591F0
:1007B000B4918FB7F894EC91111108C0D095DE2355
:1007C000DC938FBFDF91CF911F910895DE2BF8CF7F
:1007D000CF93DF9390E0FC01E350FD4F24918F5EB7
:1007E0009C4FFC0184918823D1F090E0880F991FE1
:1007F000FC01ED50FD4FA591B491FC01EB52FD4F72
:10080000C591D49161110EC09FB7F8948C91E22FDD
:10081000E0958E238C932881E223E8839FBFDF91AC
:10082000CF9108958FB7F894EC91E22BEC938FBFA2
:10083000F6CF3FB7F89480913A0390913B03A09193
:100840003C03B0913D0326B5A89B05C02F3F19F08E
:100850000196A11DB11D3FBFBA2FA92F982F882740
:10086000BC01CD01620F711D811D911D42E0660F1B
:10087000771F881F991F4A95D1F708958F929F92ED
:10088000AF92BF92CF92DF92EF92FF924B015C0149
:100890000E9419046B017C010E9419046C197D09E6
:1008A0008E099F09683E734081059105A8F321E0F8
:1008B000821A9108A108B10888EEC80E83E0D81EFC
:1008C000E11CF11C81149104A104B10429F7FF90EB
:1008D000EF90DF90CF90BF90AF909F908F90089552
:1008E0000F931F936115710581059105F9F0009132
:1008F000B0031091B1032091B2033091B303DC0136
:10090000CB01800F911FA21FB31F8093B003909360
:10091000B103A093B203B093B3038091B403909159
:10092000B50301969093B5038093B4031F910F9183
:100930000895FC01208131812115310519F490E0E1
:1009400080E008952617370749F4FB0120813181A3
:10095000FC013183208381E090E00895C901E9CF53
:10096000803660F5282F22952F7030E0220F331F3C
:10097000F901EC51FC4F408151818F7061E070E0D2
:1009800002C0660F771F8A95E2F7CA018623972374
:10099000892B91F48091FC039091FD030196909333
:1009A000FD038093FC0381E02C513C4F462B572BD9
:1009B000F90151834083089580E0F6CF80E00895E7
:1009C000803670F5282F22952F7030E0220F331FCC
:1009D000F901EC51FC4F608171818F7041E050E072
:1009E00002C0440F551F8A95E2F7CA018623972358
:1009F000892BA1F08091FC039091FD0301979093C6
:100A0000FD038093FC0381E02C513C4F40955095B1
:100A100046235723F90151834083089580E0F4CFA2
:100A200080E00895FC0190E080E06115710509F413
:100A3000089521913191A9015695479545755575B0
:100A4000241B350BA90143735373369527953695AF
:100A5000279523733373240F351FA901407F507FDF
:100A60002F703F70A4E0220F331FAA95E1F7240FE7
:100A7000351FA9015527232F3327240F351F820F38
:100A8000931F61507109D1CF982F6038C1F08091C8
:100A900015046817A1F06093150481E020911604F5
:100AA000291761F090931604809102049091030439
:100AB0009860909303048093020481E0089580E09D
:100AC000EDCF209106043091070420383F4F21F0EC
:100AD00090930704809306040895982F80915304FF
:100AE000E0915204882361F0EF30A0F481E08E0F92
:100AF00080935204F0E0EC5AFB4F908381E008951C
:100B0000E43348F481E08E0F80935204F0E0E25E1B
:100B1000FB4FF3CF80E00895CF93DF93C62FD091A2
:100B200052040E946D05811106C0D093520480E0EA
:100B3000DF91CF9108958C2F0E946D058823A9F332
:100B400081E0F6CF10928C0410928D0480E294E440
:100B5000AEE1BEE18093E0039093E103A093E20352
:100B6000B093E3038FEF80938B0408951092DC031E
:100B70001092DD031092DE031092DF031092D8036F
:100B80001092D9031092DA031092DB03109218042A
:100B9000109285041092840410928304109214041D
:100BA0001092190410928E041092900410928A04EC
:100BB0000C94A205FC01608171818281938108956A
:100BC000682F8BE195E00E94090390E080E0089592
:100BD000F894809128038F5F8093280308950E94E2
:100BE000E805FFCFEF92FF921F93CF93DF938C30F6
:100BF00030F067EA70E08AE591E00E94EF05880F27
:100C0000880F880F98E0980FC82FD0E010E0E92EE9
:100C1000F12CCE15DF053CF0812FDF91CF911F9194
:100C2000FF90EF9008958C2F0E94E004182B2196DE
:100C3000F0CFEF92FF921F93CF93DF93880F880F2F
:100C4000880F98E0980FC82FD0E010E0E92EF12C23
:100C5000CE15DF053CF0812FDF91CF911F91FF90E2
:100C6000EF9008958C2F0E94B004182B2196F0CF9E
:100C70000F931F930E941904AB01BC012091240320
:100C8000DC01CA013CE1B695A795979587953A9501
:100C9000D1F782278870820F80932403E4E0769551
:100CA000679557954795EA95D1F79B01382BC90170
:100CB000BA011F910F910895AF92BF92CF92DF9228
:100CC000EF92FF920F931F93CF93DF9380912803AE
:100CD000815080932803811169C0789405E213E064
:100CE000D0E0C0E0BB24B394E0917703F0917803A7
:100CF000EC0FFD1F23812F3F09F451C0F801D08074
:100D0000ED2CF12C30E0F901E152FD4F8491F90115
:100D1000E350FD4FC490F901EF5EFC4FA490AA2070
:100D200009F44FC081110E949103EA2DF0E0EE0F0B
:100D3000FF1FED59FD4FA591B491EC91CE2231E00A
:100D400020E009F430E0832F922FE816F90639F1FC
:100D5000DB24F801D082DD2011F1CE01880F991F2C
:100D6000880F991F9C0125593C4F7901F901808119
:100D70009181A281B381892B8A2B8B2B81F40E94D4
:100D80003806611571058105910521F461E070E077
:100D900080E090E0F70160837183828393832196E2
:100DA0000F5F1F4FC330D10509F09ECFDF91CF9168
:100DB0001F910F91FF90EF90DF90CF90BF90AF9079
:100DC000089590E080E0C1CFCF93DF93EC010E94C3
:100DD000E8058091AA039091AB03A091AC03B09178
:100DE000AD03892B8A2B8B2B31F589E195E068EADD
:100DF00073E00E9499041092A9031092A803109224
:100E0000AA031092AB031092AC031092AD03D093DF
:100E1000AF03C093AE03E0911905F0911A05A9E163
:100E2000B5E0309759F488EA93E08D939C93DF9175
:100E3000CF910C945C0687E195E0D9CFDF0101905A
:100E4000F081E02DEECFCF92DF92EF92FF920F93E1
:100E50001F93CF93DF93EC016A017B018901C114D9
:100E6000D104E104F10421F4C12CD12C7601C39406
:100E70000E94E8058A819B81AC81BD81892B8A2BE8
:100E80008B2B89F589E195E0BE010E9499041982B6
:100E90001882CA82DB82EC82FD821F830E83E0917E
:100EA0001705F091180527E135E0309779F0828138
:100EB0009381A481B5818C199D09AE09BF091816CB
:100EC00019061A061B0694F4F983E883F901D18305
:100ED000C083DF91CF911F910F91FF90EF90DF9032
:100EE000CF900C945C0687E195E0CECF9F010190F6
:100EF000F081E02DDACFCF92DF92EF92FF926B017B
:100F00007C010E943806A7019601261B370B480B6F
:100F1000590BDA01C901B7FF0CC066277727CB014F
:100F2000621B730B840B950BFF90EF90DF90CF90BB
:100F30000895833332E09307A105B1058CF068E092
:100F400070E080E090E00E943E040E943806A70115
:100F50009601261B370B480B590BDA01C901E9CF63
:100F6000181619061A061B0664F424E0880F991F48
:100F70002A95E1F7880F991F880F991F0597019708
:100F8000F1F760E070E0CB01CFCFCF92DF92EF922C
:100F9000FF92A0915D03B0915E03682F6170ED91A7
:100FA000FC9111970190F081E02DCD0109956B0125
:100FB0007C01C114D104E104F10461F00E943806FF
:100FC0006C0D7D1D8E1D9F1DFF90EF90DF90CF90CB
:100FD0000C947B07FF90EF90DF90CF900895982FAF
:100FE000E0917703F091780381818F3F39F061E0E0
:100FF0002681291301C060E00C94BA03089581E0B2
:10100000089580E00895089560E070E0CB010895B0
:10101000E9E8F3E0848195819483968195839781B3
:101020009683878380859285908782878185938543
:1010300091878387878596859787958596879485F9
:10104000958784870895CF9329E833E0BC01605FDA
:101050007F4FDC01F90140E0CD9150815C27508346
:101060004F5F34964430C1F72F5F3F4F0496861789
:10107000970779F7CF910895FC0101900020E9F7D7
:101080003197AF01481B590BBC018BE195E00C94E3
:101090006902CF93DF930E945603EC0182E991E04D
:1010A0000E943C088C0F9D1FDF91CF9108958F9275
:1010B0009F92AF92BF920F931F93CF93DF93CDB7C1
:1010C000DEB7A1970FB6F894DEBF0FBECDBF19A251
:1010D000423008F44AE08E010F5D1F4F842E912CA0
:1010E000B12CA12CA50194010E94D628E62FB901AC
:1010F000CA01EA30F4F4E05DD801EE938D01232BB0
:10110000242B252B79F790E080E0109719F0CD0182
:101110000E943C08A1960FB6F894DEBF0FBECDBF6B
:10112000DF91CF911F910F91BF90AF909F908F90C3
:101130000895E95CE1CF0F931F93CF93DF9300D025
:1011400000D0CDB7DEB7DB011C969C911C971E9694
:101150003C911E971F962C911F971D964C911D97A1
:1011600049833A832B839C83BE016B5F7F4F9E0133
:101170002F5F3F4FF90111919F01412F42954F7011
:10118000F0E14F9FA0011124E12FEF70E40FF52F44
:10119000F11DE45AFC4F9491A90141505109FA0103
:1011A00090832617370731F791E05BE1813039F002
:1011B000492F440F97FD45278150942FF7CF898100
:1011C000982799838D0194E0FE013196A801DA01F8
:1011D0008D91AD0161918627BD0161507109DB01DF
:1011E0008C93BF0161507109DB018C93E217F30707
:1011F00071F791500C5F1F4F9111E6CF0F900F9038
:101200000F900F90DF91CF911F910F9108953F9212
:101210004F925F926F927F928F929F92AF92BF9206
:10122000CF92DF92EF92FF920F931F93CF93DF93B2
:10123000CDB7DEB768970FB6F894DEBF0FBECDBF4F
:101240008C0129E8C22E23E0D22EAC01405F5F4F13
:10125000C6017801FC01D70120E03D9130832F5F6A
:1012600034962430D1F724E0E20EF11C01964E159D
:101270005F0581F7A9E7B3E0FE01319689E893E0C5
:101280005E2E6F2E2D9121938A179B07D9F7852DFE
:10129000962D0E942308442443948DE8A82E83E0D1
:1012A000B82E4E0139E1830E911C9BE1392E89E85D
:1012B00093E024E0DC01712CEC914E2F42954F70AD
:1012C00030E1439FA0011124EF70E40FF52FF11DD1
:1012D000E45AFC4FE491EC937394149654E0751225
:1012E000EBCF215001962111E5CF0E940808E9E8D3
:1012F000F3E0CE014596BE016F5E7F4F9F01D9019D
:101300005C91DC015D93CD01452F440F57FD83C0F7
:10131000DB014C932C5F3F4F6F5F7F4F8816990620
:1013200071F78E89398938272F89688D9A89922794
:101330009627432F492741934D895B899427952709
:1013400093839C8986278427852789278783242759
:10135000292732273387AE16BF0659F6652D762D1D
:10136000842D0E949B08852D962D0E94230843946E
:10137000BAE04B129CCF89E893E0DC0140E0EC91AD
:101380002E2F22952F7050E1259F90011124EF7090
:10139000E20FF32FF11DE45AFC4FE491EC934F5F01
:1013A0001496443061F77A9401967110E6CF0E944A
:1013B0000808652D762D8AE00E949B08852D962DC4
:1013C0000E942308D801F60180E090819D938F5FF1
:1013D00034968430D1F78FEFC81AD80A0C5F1F4FAC
:1013E000E016F10679F768960FB6F894DEBF0FBEE7
:1013F000CDBFDF91CF911F910F91FF90EF90DF90C4
:10140000CF90BF90AF909F908F907F906F905F90A4
:101410004F903F90089543257BCFE0910D04A0911C
:101420001104A770B0E020E43DE043E050E00E94EA
:101430003A2960527F458C4C914E6093C80370935B
:10144000C9038093CA039093CB0380918C04E53049
:1014500090F4E81BE63008F0E5E0E0930D04F0E0DE
:10146000E553FD4FE491F0E0EF77E068F09301047D
:10147000E09300040895E5E0ECCF4F925F926F9205
:101480007F928F929F92AF92BF92CF92DF92EF9214
:10149000FF920F93CF93DF9300D000D000D0CDB751
:1014A000DEB76B017C015E834D83277084E0289F4B
:1014B000F0011124E158FD4F85919591A591B491CA
:1014C00089839A83AB83BC834090BC035090BD0357
:1014D0006090BE037090BF036091A5037091A60356
:1014E0006115710531F0673091E0790710F066E021
:1014F00071E090E080E0A70196010E94452900E19B
:101500000E942E2A49015A0129813A814B815C812E
:10151000220F331F441F551FC501B401660F771FEB
:10152000881F991F620F731F841F951F64587F4F78
:101530008F4F9F4F0E94F8282A5F3F4F43E85FEF8D
:101540006FEF7FEF481959096A097B092115A4E05B
:101550003A07B8F18FEF93E090930C0480930B045B
:10156000C40ED51EE61EF71E4C0C5D1C6E1C7F1CA7
:101570004092C0035092C1036092C2037092C303B1
:10158000B301A20141575240610971092D813E8189
:1015900088EA93E026960FB6F894DEBF0FBECDBF63
:1015A000DF91CF910F91FF90EF90DF90CF90BF90A0
:1015B000AF909F908F907F906F905F904F900C9422
:1015C000230730930C0420930B04CACFCF92DF92F1
:1015D000EF92FF922091860430E0A4E2B4EF0E94E3
:1015E00024296B017C010E940D0A20910D0446E222
:1015F00055E1C701B601FF90EF90DF90CF900C94BA
:101600003D0A0E940D0A20910D044AE255E164EB67
:1016100074EC84E090E00C943D0AE82FF0E0E6538F
:10162000FD4FE491EF3F09F0815008958F929F9212
:10163000AF92BF92DF92EF92FF920F931F93CF93DF
:10164000DF93D82EEB018A01E22EE0917703F0912F
:101650007803F08080849184A284B38481149104FF
:10166000A104B10439F420E4822E22E4922E2FE06A
:10167000A22EB12C40E052E16AE770E080E08416CF
:101680009506A606B70640F4769567955795479553
:101690008F5F8630A1F787E0982F906A96958095A6
:1016A00081709CBD8DBD60E08F2D0E94BA03DEBCB1
:1016B00000000DB407FEFDCF8EB50C0F1D1FC01727
:1016C000D10771F080E0E11001C088818EBD00007B
:1016D0000DB407FEFDCF8EB5E11088832196EFCFC4
:1016E00061E08F2DDF91CF911F910F91FF90EF90CF
:1016F000DF90BF90AF909F908F900C94BA03CF93E0
:10170000DF931F92CDB7DEB721E041E050E0BE018C
:101710006F5F7F4F0E94160B89810F90DF91CF91F1
:101720000895CF93DF931F92CDB7DEB7698320E092
:1017300041E050E0BE016F5F7F4F80680E94160B52
:101740000F90DF91CF910895CF93C82F62E082E090
:101750000E94910B60E883E00E94910B61E084E0BD
:101760000E94910B69E985E00E94910B62E187E29A
:101770000E94910B60EDC11168ED80E30E94910B16
:1017800060E481E30E94910B61EC88E20E94910B7E
:1017900064E989E20E94910B61EC8AE2CF910C949A
:1017A000910B0F931F93CF93DF93C0910F04C4311C
:1017B0000CF040C0CE30CCF1C2310CF0C1E161E0A0
:1017C00080915D0390915E030091C8031091C9035D
:1017D0002091CA033091CB03DC01ED91FC91008490
:1017E000F185E02D4C2F0995813059F18230E1F1DE
:1017F000CF301CF5CC301CF1C067D7E014E06C2F63
:1018000089E00E94910B8DE40E947F0B887F682FF6
:10181000612B8DE40E94910B6D2F60628BE0DF9154
:10182000CF911F910F910C94910BCC3F0CF4CCEF06
:1018300060E0C6CF62E0C4E1C3CFCEE0DDCFCC5FD5
:10184000DCCF80910004877011F4CB305CF0C230A3
:101850002CF4C2E0C250C068DBE0D0CFC231D4F378
:10186000C1E1F8CFCBE0F6CFD0E117E0CFE8C7CFAA
:10187000AF92BF92CF92DF92EF92FF920F931F939E
:10188000CF93DF938091C8039091C903A091CA03BD
:10189000B091CB039C01AD0160E070E080E090E08E
:1018A00003E10E94152AA12CE8E4BE2EF8EECF2E0B
:1018B000DD24D394E12CF12C00E010E00E9481297A
:1018C000C22FB32E6A017B01182FD92F00E10E948D
:1018D000302A622F86E00E94910B2C2F3B2DA6010F
:1018E000B701812F9D2F08E00E94302A622F87E0E8
:1018F0000E94910B6C2F88E0DF91CF911F910F9187
:10190000FF90EF90DF90CF90BF90AF900C94910B31
:101910001F93CF93DF936091000470910104162F01
:101920001770CB0133E0969587953A95E1F7D82F5C
:10193000D370D13059F008F466C0D23009F465C0D4
:1019400066EC71E085E991E00E94EF05C0E8CB010B
:1019500025E0969587952A95E1F78370823009F402
:1019600058C0833009F457C0813009F450C0C260B8
:10197000672F77276115710521F0C16082E20E940F
:10198000910B6C2F8DE10E94910B60910C046370A0
:1019900060598FEF810F8295807F680F80910004DE
:1019A00087FF64608EE10E94910B8BEF810F823084
:1019B00010F4DD2391F1163011F4D13071F164E0AF
:1019C00086E20E94910BC0E063E0D23081F4809106
:1019D000C8039091C903A091CA03B091CB03CFE78C
:1019E00081349D4DAA44BF4108F0C4E662E086E31D
:1019F0000E94910BCC2399F06C2F8AE3DF91CF9159
:101A00001F910C94910BC0E7A2CFC0E9A0CFC46096
:101A1000AFCFC660ADCFC860ABCF6CE0D1CFDF91A8
:101A2000CF911F910895CF93DF93D82FC82FC77000
:101A300019F081E00E94C5076D2F81E00E94910B93
:101A4000C11105C080E0DF91CF910C94C507DF91F3
:101A5000CF9108958091C8039091C903A091CA03C2
:101A6000B091CB0381349D4DAA44BF4118F488E066
:101A70000C94130D80E0FCCF8091C8039091C903B2
:101A8000A091CA03B091CB0381349D4DAA44BF41BC
:101A900018F488E80C94130D80E8FCCFCF93C82F7E
:101AA00081E00E947F0B887F8C2BCF910C94130DCB
:101AB000CF92DF92EF92FF92CF93DF93D82F0E94C5
:101AC0003C0D81E00E947F0B87FD06C06BE973E04F
:101AD00085E991E00E94EF0581E00E944E0DD23031
:101AE00009F07CC06AE08DE10E94910B60E78EE115
:101AF0000E94910B63E28CE00E94910B60E483E210
:101B00000E94910B80911505882309F46CC083E332
:101B10000E947F0B682F6F7B83E30E94910B809163
:101B200000049091010423E0969587952A95E1F7AA
:101B3000C82FC37081E30E947F0B8877682F636092
:101B4000C23008F056C081E30E94910B60E48FE23E
:101B50000E94910B60E480E30E94910B60910B0462
:101B60008FE10E94910B64E389E30E94910B6CE08A
:101B700080E40E94910B6FEF82E10E94910BED2FA8
:101B8000F0E0EE52FD4F6491609581E10E94910B6F
:101B900080E00E94EF0760E08DE00E94910B60E022
:101BA0008FE00E94910BD11128C06091C003709109
:101BB000C1038091C2039091C3030E947B076B0114
:101BC0007C0186E00E944E0DC701B601DF91CF91E6
:101BD000FF90EF90DF90CF900C9470040E94880CDF
:101BE0000E94380C87CF83E30E947F0B682F6064CC
:101BF00093CF682F636881E3AFCF85E0DF91CF910A
:101C0000FF90EF90DF90CF900C944E0DCF92DF922B
:101C1000EF92FF92CF93C82F81E00E947F0B8770D5
:101C200069E274E0C1F480910004877009F060C03B
:101C3000C13041F4109294048091AE039091AF03AF
:101C40000E94E4060E942A0D81E00E947F0B87FF1C
:101C500006C062E074E085E991E00E94EF0581E052
:101C60000E944E0D0E94380C63E28CE00E94910BA2
:101C70006EE18DE00E94910B6BE082E10E94910B7E
:101C800062E183E10E94910B6AEA8FE10E94910B6D
:101C90006FEF81E20E94910B81E00E94A40B68E348
:101CA00080E40E94910B80E00E94EF07C11118C0F0
:101CB0006091C0037091C1038091C2039091C303EE
:101CC0000E947B076B017C0185E00E944E0DC701DD
:101CD000B601CF91FF90EF90DF90CF900C947004FD
:101CE00085E0CF91FF90EF90DF90CF900C944E0D58
:101CF0008C2FCF91FF90EF90DF90CF900C94580DE8
:101D00008FEF9FEF9093E5038093E4039093E703B5
:101D10008093E6039093E9038093E8039093EB03A9
:101D20008093EA038FEF90E09093ED038093EC03B0
:101D3000E0EFF3E08CE0DF011D928A95E9F780E6A1
:101D400090E09093FD038093FC038FEF8093110448
:101D500008956F927F928F929F92AF92BF92CF928F
:101D6000DF92EF92FF920F931F93CF93DF93CDB744
:101D7000DEB760970FB6F894DEBF0FBECDBF7B0114
:101D80008A01282F30E0277F2230310549F02430A6
:101D9000310509F4CBC0232B09F09FC0D12C98C08A
:101DA00083FD32C089E293E00E94070990E1692E29
:101DB000FE0131966F0129E3822E23E0922E37E84F
:101DC000732E0115110509F060C06091290370910F
:101DD0002A0380912B0390912C030E941D29609669
:101DE0000FB6F894DEBF0FBECDBFDF91CF911F912C
:101DF0000F91FF90EF90DF90CF90BF90AF909F90AA
:101E00008F907F906F900895E9E2F3E080E1DF0129
:101E10001D928A95E9F7CACF01151105E9F5E62F5C
:101E2000F0E0E75DFC4F80818058808311E0D601AF
:101E3000E62D1D92EA95E9F7C6010E94070909817E
:101E4000C6010E94590207FF03C088898725888B35
:101E5000112349F01981C6010E94590217FF03C0DE
:101E600088898725888BF601D5018D915D01919137
:101E7000119789278C938A149B04B1F710E000E036
:101E800089E293E00E9407099CCF89E2A82E83E0B3
:101E9000B82ED701950160E0F90181919F019D91D4
:101EA000AF01415051098927FA0180836F5F7D019D
:101EB00001501109603109F0AFCF0115110501F78B
:101EC00010E0B5CF8E0D9F1D0E940709B0E1DB0E1B
:101ED0008D2D90E080179107A8F360E070E0CB01B2
:101EE0007ECF80E1E9E2F3E0DE01119601900D92F0
:101EF0008A95E1F7CE0101960E940709FE0131960D
:101F00009701205F3F4F9191D7018C9189278D9345
:101F10007D0101501109A217B30719F00115110530
:101F200091F7809138038F5F809338030115110575
:101F3000C1F6D3CF90913E03911106C06CE874E0D6
:101F400085E991E00E94EF05903141F440E150E0D5
:101F50006EE373E080E00E94A90E90E0E92FF0E0CC
:101F6000E25CFC4F80819F5F90933E030895DF9277
:101F7000EF92FF920F931F93CF93DF936FE270E086
:101F8000009729F08136910530F061E370E088EC2C
:101F900091E00E94EF05C0911104D0E0CF3F11F411
:101FA000CFEFDFEFE4EEF3E020EF33E0DF01329636
:101FB0001C968D919C911D974D915C918423952346
:101FC000938782872E173F0789F766E070E080EFDE
:101FD00093E00E9412057C01892B09F08FC08CE0F0
:101FE000E4EEF3E0A0EFB3E001900D928A95E1F703
:101FF00066E070E080EF93E00E9412057C0100979C
:1020000009F4DDC0419708F479C010E000E0CF3F4B
:10201000DC0751F1C136D1050CF070C09E012F7064
:10202000332781E090E002C0880F991F2A95E2F7DC
:10203000FE0144E0F595E7954A95E1F7EE0FFF1FA5
:10204000E051FC4F208131818C01022313238095C4
:10205000909582239323918380830115110509F4C0
:102060004FC070E1E71AF1080E949A0FD82E0E9423
:102070009A0F9D2DB70124E0769567952A95E1F793
:102080000E94C22834E0880F991F3A95E1F7E0EFEB
:10209000F3E070E060E0219131912115310559F1B3
:1020A000A9015695479545755575D901A41BB50BE2
:1020B000AD0143735373B695A795B695A795A373D2
:1020C000B3734A0F5B1FDA01A07FB07F4F705F7060
:1020D00042955295507F5427407F54274A0F5B1FEB
:1020E000DA01BB27452F55274A0F5B1F8417950739
:1020F00080F0841B950B605F7F4FCDCF10E000E038
:10210000CFEFDFEFB1CFA90141505109242335238F
:1021100040970097C1F744275527421B530B422392
:102120005323CA018575957521E030E0892B11F0A4
:1021300030E020E0CA0183739373892B09F447C010
:1021400090E080E0820F931F9A012F703F70232B45
:1021500009F440C030E020E0820F931F30E020E01F
:10216000411102C028E030E0820F931F860F971FB5
:10217000FC0144E0F695E7954A95E1F7EE0FFF1F65
:10218000E051FC4FAC014F70552721E030E0B90120
:1021900002C0660F771F4A95E2F7AB0120813181BB
:1021A0002627352731832083CF3FDC07B1F497FD05
:1021B00006C0803491050CF4885F80931104DF9190
:1021C000CF911F910F91FF90EF90DF90089582E0E3
:1021D00090E0B8CF24E030E0BFCF24E0D595C7959C
:1021E0002A95E1F7CC0FDD1FC051DC4F28813981E2
:1021F000022B132B19830883DACF8091D40390919B
:10220000D503A091D603B091D703892B8A2B8B2BB2
:1022100009F04BC0809102049091030410921204C3
:102220008E7C977A90930304809302041092910419
:10223000109218040E94A2058FEF809311048091E0
:10224000FC039091FD030E94B70F0E943806609333
:10225000BC037093BD038093BE039093BF03809132
:1022600002049091030493FF06C064ED70E088ECD3
:1022700091E00E94EF0510921604E0918B04EF3F6D
:1022800091F0EF70F0E0E654FD4FE491E093150417
:102290008460909303048093020480EA9DE10E948D
:1022A000E40681E00895E3E1F1CF80E00895CF9264
:1022B000DF92EF92FF92CF93C82F0E949A0FF82ED1
:1022C0000E949A0F9F2D6C01853224EF920720F017
:1022D00024E2C21A24EFD20AF12CE12CCC2369F0BB
:1022E0006C2F0E94B628292F30E0A4E2B4EF0E94A0
:1022F0002429C60ED71EE81EF91EC701B601CF91CC
:10230000FF90EF90DF90CF900895CF92DF92EF9201
:10231000FF926B017C01842F442331F00E945711FE
:10232000C60ED71EE81EF91E809112048823A9F05C
:102330008091CC039091CD03A091CE03B091CF03B7
:10234000A7019601281B390B4A0B5B0BDA01C90167
:10235000181619061A061B068CF4C092CC03D092EC
:10236000CD03E092CE03F092CF03809102049091CE
:10237000030491609093030480930204FF90EF9014
:10238000DF90CF900895AF92BF92CF92DF92EF92FD
:102390000F931F93CF93DF93DC011A141B04A4F552
:1023A00090E1E9E2F3E0EF01892F19928A95E9F7CC
:1023B000F1E0F0933803F0932903E0922E03409369
:1023C0002F035093300360933103709332030093D3
:1023D0003303109334032093350330933603FD0108
:1023E000A9E7B3E001900D929A95E1F7A501B60136
:1023F00084E0DF91CF911F910F91EF90DF90CF900C
:10240000BF90AF900C94A90EDF91CF911F910F91C7
:10241000EF90DF90CF90BF90AF9008951F93CF9330
:10242000DF93CDB7DEB72F970FB6F894DEBF0FBEA0
:10243000CDBF80E00E944E0D0E94E8058091AA0366
:102440009091AB03A091AC03B091AD03892B8A2B83
:102450008B2B09F047C089E195E068EA73E00E94A0
:1024600099040E945C068FE0E9E9F3E0DE01119631
:1024700001900D928A95E1F7E9E9F3E08EE791E0AA
:10248000DF019C011D9221503040E1F78FE0FE01F9
:102490003196A9E9B3E001900D928A95E1F70E9487
:1024A0009A0F182F0E949A0F912F909305048093F2
:1024B000040410920304109202041092170480E89E
:1024C000809389040E94A20581E0809386042F9660
:1024D0000FB6F894DEBF0FBECDBFDF91CF911F9135
:1024E0000C94800E87E195E0B8CF7F928F929F92F7
:1024F000AF92BF92CF92DF92EF92FF920F931F9312
:10250000CF93DF93EC010E9438066B017C014AE017
:10251000F7FE0DC06DE28BE195E00E94090366278E
:102520007727CB016C197D098E099F094AE00E942B
:10253000570885EB92E00E943C08FE013197E43198
:10254000F10508F08FC1E955FD4E0C941729BB1217
:10255000CC12CF12D212D512D8123214DB12DE12E4
:10256000E1124313461349134C134F133214521301
:102570002C141E142F148CE292E0DF91CF911F9146
:102580000F91FF90EF90DF90CF90BF90AF909F9012
:102590008F907F900C9449088CE192E0EECF8BE015
:1025A00092E0EBCF89EF91E0E8CF8EEE91E0E5CFBE
:1025B00084EE91E0E2CF85ED91E0DFCF84EC91E015
:1025C000DCCF84E991E00E9449088091920487FF62
:1025D00004C087E891E00E94490880919404882310
:1025E000B9F18DE791E00E9456036091940470E088
:1025F00090E080E04AE00E94570889E691E00E945E
:1026000056038DE391E00E945603D0E0C0E0809134
:1026100094048C171D06A1F09CF0E0919304CE0168
:1026200087569C4FE80FF92FF11DE450FF4F608152
:1026300070E090E080E040E10E9457082196E7CFEB
:1026400083E991E00E943C0882E991E00E943C0805
:102650000E943806AB01BC0148595647664F7F4F70
:102660002FE73FE18FE593E0DF91CF911F910F912D
:10267000FF90EF90DF90CF90BF90AF909F908F90A2
:102680007F900C9423078FE291E077CF86E291E070
:1026900074CF88E191E071CF8BE091E06ECF8DEF48
:1026A00090E06BCF82EF90E00E944908B0909404D4
:1026B000BB2009F4C3C00091000410910104D02F85
:1026C000D770DA5F980143E0369527954A95E1F790
:1026D0002370C80155E0969587955A95E1F7837068
:1026E00070901504E090DC03F090DD0391E0E91AAE
:1026F000F108C5E0882339F0C6E0813021F0C8E058
:10270000823009F4C7E0222309F476C0213009F4AD
:1027100077C024EFD22ECC24C3940091C803A0909C
:10272000C9039090CA038090CB030E9438061F9281
:102730001F93FF92EF921F92CF93CF92DF921F923F
:102740007F921F92DF931F92BF928F929F92AF92C0
:102750000F939F938F937F936F9382E092E09F9369
:102760008F930E94642AC09114040E9438061F921D
:10277000CF939F938F937F936F938FE492E09F9378
:102780008F930E94642A8DB79EB780960FB6F894F7
:102790009EBF0FBE8DBF8CEE90E00E9456036091ED
:1027A0001D0470E090E080E04AE00E94570888EA4B
:1027B00090E00E945603D0E0C0E008E612E080916D
:1027C0001D048C171D06F9F0F4F0E0919304CE017E
:1027D00087569C4FE80FF92FF11DEB57FF4F808173
:1027E0001F928F931F930F930E94642A21960F903C
:1027F0000F900F900F90E3CF9DE7D92EC12C8DCF76
:102800008AEFD82EFBCF82E991E00E943C080E941B
:1028100038061F9222E02F939F938F937F936F939D
:102820008DE692E09F938F930E94642A8DB79EB7A6
:1028300008960FB6F8949EBF0FBE8DBFDF91CF9163
:102840001F910F91FF90EF90DF90CF90BF90AF90CE
:102850009F908F907F9008958AE990E08ECE88E7D0
:1028600090E08BCE88E690E00E945603BE0190E097
:1028700080E04AE00E94570882E991E0DF91CF9121
:102880001F910F91FF90EF90DF90CF90BF90AF908E
:102890009F908F907F900C943C08CF92DF92EF92A4
:1028A000FF92CF93DF93EC01C12CD12C7601C3941E
:1028B0000C2E04C0CC0CDD1CEE1CFF1C0A94D2F7BD
:1028C000E3FC03C0CE010E947512D701C601882720
:1028D0009472AA27BB27892B8A2B8B2B01F1E091BD
:1028E0009D03F0919E033097D1F020919404409184
:1028F0009304211102C0442391F08091920450E08E
:1029000060E084FF04C0DA01AC56BB4F6C9130E04C
:102910004B565B4F80919F039091A0030995CC2467
:1029200084E0D822E822FF24CD28CE28CF2819F130
:10293000E091A103F091A2033097E9F01092A20375
:102940001092A103C231D10541F18091920483FD1F
:1029500024C090911C0461E0992339F0082E000CEA
:10296000990B692F661F6627661F70E08091A3038D
:102970009091A4030995E0919903F0919A033097FF
:1029800071F0BE0180919B0390919C03DF91CF91E8
:10299000FF90EF90DF90CF90099460E0E6CFDF9159
:1029A000CF91FF90EF90DF90CF90089582E08093D9
:1029B0009204E0918D04F0E0E553FD4FE491F0E0E6
:1029C000EF77E068F0930104E09300048091E00366
:1029D0009091E103A091E203B091E3038093C803D7
:1029E0009093C903A093CA03B093CB0310929404AD
:1029F00083E190E00E944D1480E00C94060E8FE677
:102A000094E29093AF038093AE030C94D61481E7C5
:102A10009FE19093AF038093AE030C94D61421E012
:102A200020939204E0E0F4E020813181206831833A
:102A30002083109294049093AF038093AE0383E1BC
:102A400090E00E944D1480E00C94060E88E594E21C
:102A50000C940F158EE59FE10C940F152F923F9269
:102A60004F925F926F927F928F929F92AF92BF929E
:102A7000CF92DF92EF92FF920F931F93CF93DF934A
:102A8000CDB7DEB7CB58D1090FB6F894DEBF0FBE75
:102A9000CDBF80910804811116C781E0809308049E
:102AA00080910204909103049C01217C3327232B05
:102AB00081F44091D4035091D5036091D603709175
:102AC000D703452B462B472B29F582FD2FC00E94AB
:102AD000FD10809108048150809308048111E0CF9B
:102AE000C557DF4F0FB6F894DEBF0FBECDBFDF91E5
:102AF000CF911F910F91FF90EF90DF90CF90BF90FB
:102B0000AF909F908F907F906F905F904F903F908D
:102B10002F90089596FF0AC09F7B909303048093A3
:102B200002048DEA9CE10E94E406D3CF0E9438069D
:102B30006B017C010091020410910304C8018C73A5
:102B40009927892B09F4B4C613FF58C18091FC035F
:102B50009091FD03009711F00E94B70FC092BC0343
:102B6000D092BD03E092BE03F092BF0380910204B5
:102B700090910304977F9093030480930204B7011C
:102B8000A60180911204811106C0809102049091E7
:102B9000030490FF12C08091CC039091CD03A091CB
:102BA000CE03B091CF032A013B01481A590A6A0AA1
:102BB0007B0A77FE02C0AC01BD0121E7C20E22E014
:102BC000D21EE11CF11CDB01CA018C199D09AE0962
:102BD000BF09B7FF59C630911604CF57DF4F38836E
:102BE000C158D04004721127012B09F41FC18091F4
:102BF00002041091180485FD16C11092950490915D
:102C00000404809105049093A6048093A70443E1F3
:102C100050E065E974E08AE00E94A90E6093AB047D
:102C20007093AA048093A9049093A80487E18093E9
:102C300094048091040490910504019690930504F6
:102C40008093040481E09BE09093AF038093AE03F4
:102C5000CF57DF4FC880C158D040EC2DF0E0E5538E
:102C6000FD4FE4918091170420E2829FC00111245E
:102C7000EF798E2B9093010480930004C0920D0491
:102C800080910204909103048F76967F806898600B
:102C90009093030480930204A0911104A03670F570
:102CA000B0E020E43DE043E050E00E943A298B018F
:102CB0009C01005A1A4C274F334E00364FE9140737
:102CC00040E224074CE1340708F0B6C4605A764A63
:102CD0008340934E6093C8037093C9038093CA03E3
:102CE0009093CB03E0918B04EF3F09F423C5EF7081
:102CF000F0E0E654FD4FE491E0930E04909115044A
:102D000080910E0498170CF4892F80930F0481E1B1
:102D100090E00E944D141092BC031092BD031092DB
:102D2000BE031092BF0381E00E947F0B877059F0B1
:102D300080E00E944E0D0E943806625C7F4F8F4FEC
:102D40009F4F0E947B074090C4035090C503609042
:102D5000C6037090C70314141504160417040CF06E
:102D6000EEC481E00E94580D8091C8039091C90380
:102D7000A091CA03B091CB0381349D4DAA44BF41B9
:102D800008F4DAC483E69FEFE0917703F0917803CB
:102D900027817C01E20EF11C27FDFA940E9438067F
:102DA000615E7F4F8F4F9F4F0E947B070E943806C6
:102DB00010E0460E571E681E791E8BE10E947F0BA5
:102DC000181708F4182F0E94380664197509860927
:102DD000970997FDF2CF80E00E944E0D809110047C
:102DE000082E000C990BE10EF11CE816F9060CF404
:102DF000A6C48091AE039091AF0395CE4091BC03E1
:102E00005091BD036091BE037091BF03BACECF57FE
:102E1000DF4F8881C158D0400E940D0BCF57DF4F44
:102E20008883C158D040115090F7E7CE8091D803E5
:102E30009091D903A091DA03B091DB0380389F4FC2
:102E4000AF4FBF4F18F083EA9CE16DCE80919104A3
:102E500081110DC08091DC039091DD03A091DE0310
:102E6000B091DF038F3F9F4FAF4FBF4F61F3E090B3
:102E70000204F090030478E1E722FF2480E1E816E1
:102E8000F10409F4CEC1A0901D0480911B04882395
:102E900009F4C9C180915304882309F4C4C1009185
:102EA0005204002309F4BFC110E0A80164E574E0F6
:102EB0008DE994E00E94542A085F1F4F109252043B
:102EC0001092530480918E04882331F086FFAEC1A6
:102ED00090E4892780938E0480918F04882331F0B9
:102EE00086FFB4C190E4892780938F048091900479
:102EF000823009F0BBC181E0809390040931110553
:102F00000CF079C380918504882361F080910604D8
:102F10009091070497FF04C090E080E00E94610553
:102F2000109285046A2C712C25E0620E711CF0E170
:102F3000EF16F10419F4A4E06A2E712C600E711ED4
:102F400031E4631671040CF09CC191E040E1E41699
:102F5000F10409F490E0E0911604E63008F096C11F
:102F6000F0E0EC54FD4FE491E615170408F443C378
:102F700080E4809395048091830440918904482BD8
:102F8000209106043091070437FD82C12152310996
:102F9000203B324008F47CC120E488EF800F842B72
:102FA000822B80939A044091D4033091D5032091D1
:102FB000D6038091D70340939604309397042093CF
:102FC00098048093990480919104811118C02091F4
:102FD0001904211114C04091DC035091DD0360916C
:102FE000DE037091DF034F5F5F4F6F4F7F4F409362
:102FF000DC035093DD036093DE037093DF032091C5
:10300000DC033091DD032150310920939B04309380
:103010009C04109283049923D9F190911C04992364
:1030200009F438C190E890939504811103C081E0C0
:1030300080939104F801EB56FB4F80911B04808331
:10304000C8018A569B4F6C01B12CA5016EE174E05A
:103050000E94542A0091DC031091DD032091DE03CD
:103060003091DF0301501109210931094091D40346
:103070005091D5036091D6037091D70380911B04C2
:10308000811115C183E694E0F12CE12C0E94C3115B
:103090008301045011098091DC039091DD03A0911C
:1030A000DE03B091DF030197A109B1096091D40358
:1030B0005091D5034091D6033091D70320E1E9E246
:1030C000F3E0C22E1192CA94E9F779E470932903D0
:1030D00010922E030093380360932F035093300314
:1030E000409331033093320380933303909334033E
:1030F000A0933503B0933603E3E6F4E0A9E7B3E029
:1031000001900D922A95E1F7A80165E974E082E04B
:103110000E94A90EF801EB56FB4F638372838183F3
:103120009083609294047F926F9228E932E03F93FB
:103130002F930E94642A0F900F900F900F9010E031
:1031400000E0809194048017110611F00CF0B2C0D9
:103150008AE090E00E947A2A80919404E5E9F4E004
:10316000CC57DF4FF983E883C458D040CA57DF4FAC
:10317000F983E883C658D04010E000E0912C812C00
:10318000482F50E0C657DF4F59834883CA58D04074
:10319000C657DF4F48815981CA58D04084169506DA
:1031A0000CF4A2C01F930F931F930F9388EB92E030
:1031B0009F938F930E94642A19831A8211271C837C
:1031C0000B8310919404412F50E0FE0135960F902F
:1031D0000F900F900F900F900F90A5E9B4E090E042
:1031E00080E0841795070CF4EEC1440F551F70E082
:1031F00060E085E994E00E945D2A1E5F10939404CC
:10320000FE01319630E020E0812F90E02817390749
:103210000CF4DFC1E6EEFAE0F093AF03E093AE0307
:1032200017CDA12C37CE08E010E048CE98012756E4
:103230003C4FF901E450FF4F95E0908323503F4FFE
:103240008770D9018C930E5F1F4F46CE9801275689
:103250003C4FF901E450FF4F9AE0908323503F4FD9
:103260008370F90180830E5F1F4F40CE882309F4DD
:1032700045CEF801EB56FB4F88E080830F5F1F4F70
:103280003DCE380154E0650E711C64CEE0E06CCE9A
:1032900020E083CE80911404882309F4CBCE809162
:1032A00019048111C7CE81E080931904C3CE83E74E
:1032B00094E0EACEE0919304C80187569C4FE80F52
:1032C000F92FF11DE450FF4F80811F928F9388E604
:1032D00092E09F938F930E94642A0F5F1F4F0F907D
:1032E0000F900F900F902DCFCA57DF4FA881B98153
:1032F000C658D040BD90CA57DF4FB983A883C6587F
:10330000D04078019CE0F594E7949A95E1F7412E3E
:10331000552447FC5A944E245F244B2D0B2C000C53
:10332000550B44255525CA0181709927D801A8E07D
:10333000BA02A12DBB0B11249801232F330F330B9D
:103340002595F901EA27FB27CE57DF4FF983E8835C
:10335000C258D0402B2D2595022E000C330B2E2762
:103360003F27220F331F22703327822B932BF80124
:10337000FF0FEE0BFF0FFE2FEE1F1801232C330C57
:103380003308259425942E263F262B2D259525950B
:10339000022E000C330B22253325220F331F220F60
:1033A000331F24703327280F391FA8014427550FD6
:1033B000441F5527B80160E27602612D770B112476
:1033C000CB018170992784279527B3FACC24C0F8C4
:1033D000C857DF4FC882C858D040C757DF4F188240
:1033E000C958D040C857DF4FC880D980C858D0408E
:1033F0008C259D25880F991F880F991F880F991F6D
:10340000280F391F8B2D8595859585958595082ED7
:10341000000C990B8E259F2582959295907F982779
:10342000807F982780719927820F931F2B2D2595D8
:103430002595259525952595022E000C330B6D01BC
:10344000C424D5242C253D25689414F8220F331F5D
:103450001694E1F720723327820F931FCE57DF4F68
:1034600028813981C258D0402E273F27CB2CC6FA5D
:10347000CC0CCC08C0F80C2C000CDD082C253D250C
:10348000689415F8220F331F1694E1F72074332740
:10349000820F931F310121E0622277246426752672
:1034A000BB1CBB24BB1C6B247694762C66247794BF
:1034B0006794680E791ECB01802791278170992728
:1034C00084279527982F8827860D971D9801359575
:1034D0002795E226F326FE2CEE24FF0CEE2432E0A4
:1034E000F3228E0D9F1D6801D594C794D594C7947F
:1034F000CA26DB26DC2CCC24DD0CDD0CCC24A4E09D
:10350000DA228C0D9D1D3801B3E075946794BA954D
:10351000E1F76E267F26762C6624770C770C770CE5
:103520006624B8E07B22860D971D9801E4E035956E
:103530002795EA95E1F742265326E1E04E225524ED
:1035400044265526542C44245294F0EF5F22840DD7
:10355000951D9801A5E035952795AA95E1F7CE57D9
:10356000DF4FC880D980C258D0402C253D25322F4E
:1035700022273295330F307E22273072820F931F1D
:10358000D80126E0B595A7952A95E1F7A225B325A0
:10359000B0E4AB9FB02DAA271124AA27B0748A0FDC
:1035A0009B1F000F012F001F110B06271727042751
:1035B00015271127069517950027080F191F2FEFBC
:1035C000821A920AE5CD2D9130E021933193019634
:1035D00008CE40813296CC57DF4FA881B981C458BC
:1035E000D0404D93CC57DF4FB983A883C458D04007
:1035F0002F5F3F4F0BCE88E08093920480911C0494
:10360000811104C080919104882319F088E480938B
:103610009204809102049091030487769E7F909398
:1036200003048093020410929404109293048AE09D
:1036300090E00E944D144DCA003659E0150759E339
:1036400025075CE1350728F4605A70418C41934EA0
:1036500041CB0036A3E71A07A1E52A07ACE13A07F8
:1036600028F4605A7A478443934E34CB0036BDED3C
:103670001B07B9E62B07BCE13B0728F4605A744EE0
:103680008C44934E27CB0036E7E41E07E2E82E0772
:10369000ECE13E0728F4605A7E448546934E1ACBEF
:1036A0000036F1EB1F07FAE92F07FCE13F0728F48A
:1036B000605A784B8D47934E0DCB00364BE1140783
:1036C00043EB24074CE1340728F4605A72428649E0
:1036D000934E00CB003655E815075BEC25075CE1FF
:1036E000350728F4605A7C488E4A934EF3CA003658
:1036F000AFEE1A07A3EE2A07ACE13A0728F4605AA6
:10370000764F864C934EE6CA0036B9E51B07BCEFF0
:103710002B07BCE13B0728F4605A70468F4D934E4F
:10372000D9CA0093C8031093C9032093CA033093E6
:10373000CB03D8CAE3E1E0CA8CE59FEF25CB8091AB
:103740000004877009F06AC00E942A0D81E00E947F
:103750004E0D80E00E94A40B60E085E20E94910B78
:1037600065E086E20E94910B0E94380C0E94D10B0A
:1037700069E28AE00E94910B64E380E40E94910B6D
:10378000609194046F5F82E30E94910B60919404B6
:1037900080E00E94910B4091940450E020E065E9A4
:1037A00074E080E80E94160B81E00E94EF076091B0
:1037B000BC037091BD038091BE039091BF0361155E
:1037C00071058105910531F10E947B076115710535
:1037D00081059105F9F00091B6031091B70320918E
:1037E000B8033091B903DC01CB01800F911FA21FF8
:1037F000B31F8093B6039093B703A093B803B0931D
:10380000B9038091BA039091BB0301969093BB03D7
:103810008093BA0383E00E944E0D5BC90E943C0D69
:1038200081E00E947F0B87FD06C061E273E085E9BD
:1038300091E00E94EF0581E00E944E0D0E94880CED
:103840000E94380C68E08AE00E94910B0E94D10B24
:1038500064E389E30E94910B6CE780E40E94910B82
:103860006FEF82E10E94910B67EF81E10E94910B63
:1038700060E08EE00E94910B60E08DE00E94910B71
:103880006091940482E285CF8091020481FF05C09B
:10389000411551056105710589F041575240610993
:1038A000710921EC3CE188EA93E00E94230711C9E9
:1038B00040E050E0BA0101FDF0CF0BC941E050E01B
:1038C00060E070E0EACF82E08093080409C980914B
:1038D00002049091030483FF35C010921D0482FFFF
:1038E0002CC0877E909303048093020482E190E0D1
:1038F0000E944D14809102049091030485709927D1
:10390000892B01F50E94E8058091AA039091AB03F1
:10391000A091AC03B091AD03892B8A2B8B2B79F44A
:1039200089E195E068EA73E00E9499040E945C06D0
:1039300080E00E944E0D0C942E158776D3CF87E140
:1039400095E0F0CF08950E94671C0E940E128CE053
:1039500090E00E944D140C94FD10E2E0F4E08081B0
:1039600091818E7D9F7B918380831092D4031092EE
:10397000D5031092D6031092D7030E94671C0C94B3
:10398000FD100C942E15CF938091020490910304A6
:103990008777909303048093020410921904109285
:1039A000910420915204222351F030915304332387
:1039B00009F466C0806190930304809302040E941E
:1039C00038066E5E75488F4F9F4F40E00E9485110C
:1039D00080919204877079F08091020490910304A1
:1039E00094FF09C09F7E90930304809302048FE0AC
:1039F00090E00E944D148AE090E00E944D140E94D5
:103A00002E1580910604909107048197B4F180915E
:103A100016040E940D0BC82F2091FC033091FD036A
:103A2000809116042730310508F4C82F8C1332C05A
:103A30008091060490910704813F92404CF0809160
:103A40000204909103049064909303048093020411
:103A500063E18C2F0E94440580910204909103043D
:103A60009C01306130930304209302042817390726
:103A700021F08EE090E00E944D1481E0CF910895F6
:103A800010921C0410921B0420931D0410925204E7
:103A9000886091CFCC23E1F290E080E00E94610544
:103AA000D7CF809191048823B1F1883020F58F5FC2
:103AB0008093910480FF07C0809116040E940D0B33
:103AC00060E80E9444056091C0037091C103809139
:103AD000C2039091C30343E00E94851180910204C8
:103AE000909103048F7790930304809302040E94C3
:103AF0002E1581E0089580E680939204809106045B
:103B00009091070401960E9461051092940410920E
:103B100093040C94C31C80911904882379F090912C
:103B20001404891758F48F5F809319040E94380693
:103B30006E5E75488F4F9F4F40E0CECF80E2DCCF66
:103B400080911A04882341F00E94800E85E090E065
:103B50000E944D140C942E1581E080931A04F6CF28
:103B6000CF92DF92EF92FF92CF93DF938091020486
:103B70009091030482FD22C085FD0DC08F77909344
:103B800003048093020481E0DF91CF91FF90EF90D6
:103B9000DF90CF9008958F75909303048093020473
:103BA000809118048A3018F48F5F8093180489E09C
:103BB00090E00E944D140E942E15E5CF8F779093D0
:103BC00003048093020484E190E00E944D148091EC
:103BD0001304809311048091FC039091FD030E94D3
:103BE000B70F809191048F5F80939104C82FC770A5
:103BF000109216048091020490910304977F909391
:103C00000304809302040E9438066B017C0120911A
:103C1000160480E190E002C0959587952A95E2F719
:103C20000E945711C60ED71EE81EF91EC092BC0393
:103C3000D092BD03E092BE03F092BF03C12CD12C01
:103C40007601C394CC2399F0C12CD12C7601C1EC20
:103C5000DCE10E943806AB01BC014C0D5D1D6E1D00
:103C60007F1D9E0188EA93E00E9423078CCFC9E75D
:103C7000DFE1EFCF8091920480FF0C94B01D80E0D3
:103C80000895CF92DF92EF92FF920F931F93CF93FD
:103C9000DF938091920480FF05C080919404882373
:103CA00009F402C1809102049091030487FFE6C0E9
:103CB00084729927892B51F4DF91CF911F910F9135
:103CC000FF90EF90DF90CF900C943A1E10919404E7
:103CD00011110AC0DF91CF911F910F91FF90EF90CA
:103CE000DF90CF900C94B01D113111F0113221F7FB
:103CF00080919504837E8032F9F6C12FD0E0AE0129
:103D00004150510966E974E080E00E94A90E2497B1
:103D1000AE0165E974E08AE00E94A90E6B017C01A6
:103D2000CB56DB4F688179818A819B810E941D2956
:103D3000C616D706E806F90609F0BECF8CE994E06E
:103D40000E94DA056093D4037093D5038093D60361
:103D50009093D70389E994E00E94DA05992760934C
:103D6000D0037093D1038093D2039093D303113285
:103D7000D1F48091B1048130B1F492EAE92E94E05B
:103D8000F92EC0E0D70111960C9111978C91102F4C
:103D9000082FD0E1DC0FDC1373C0B2E0EB0EF11C96
:103DA000CD2FD03679F780910404909105040197C6
:103DB000EBE6F4E028E0DF011D922A95E9F721E027
:103DC0002093630426E0E6E9F4E0A4E6B4E0019081
:103DD0000D922A95E1F780936A0490936B0480E139
:103DE000E3E6F4E0A3E7B4E001900D928A95E1F7F1
:103DF00082E08093730440E150E063E674E080E089
:103E00000E94A90E40E150E063E774E080E00E9468
:103E1000A90E8091020485FF08C0C091180480910A
:103E20001604C150E0F5809316048091020490912D
:103E3000030489759D7F9860909303048093020426
:103E4000109291040E94B60580EC9FEF0E946105DC
:103E50008091A004982F9F7090938D048295877015
:103E600080938C048091A1048823E1F080938604E0
:103E700086E090E00E944D140E942E1581E015C04E
:103E8000C03609F48ACF8C2F00FF06C00E94B00410
:103E9000CF5F169507957FCF0E94E004F9CF0E946F
:103EA0000D0BBFCF81E0E2CF80E0DF91CF911F917A
:103EB0000F91FF90EF90DF90CF9008958091940440
:103EC00081110AC020918D0447E055E168ED78EB3F
:103ED00085E090E00C943D0A0E94411E882391F3F6
:103EE000089580919404811102C0109292040C9460
:103EF000411E88E090E00E944D140C942E15809194
:103F000002049091030487FF04C08CE392E00C94B8
:103F100049088C799927892BE1F430911604409156
:103F2000FC035091FD03832F90E04730510588F04A
:103F3000863078F4FC01EC54FD4FE491EE2349F017
:103F4000E83390F5FC01E453FD4FE4910196EF3F17
:103F500061F780910204909103049C012C7933272E
:103F6000232BF9F42BE2E0E0F1E0AEE1B4E00190C4
:103F70000D922A95E1F710921C0421E020931B0476
:103F80002BE220931D049C012860309303042093AE
:103F9000020482FD04C010929104109219040E9440
:103FA0002E1585E592E0B3CF381799F260E80E94AC
:103FB0004405CFCF2F923F924F925F926F927F92A4
:103FC0008F929F92AF92BF92CF92DF92EF92FF9229
:103FD0000F931F93CF93DF93CDB7DEB76C970FB6D8
:103FE000F894DEBF0FBECDBF998F888F3B01109232
:103FF0005204452B09F510925304F12CE12CE614E0
:10400000F704F4F0C7016C960FB6F894DEBF0FBE4C
:10401000CDBFDF91CF911F910F91FF90EF90DF9077
:10402000CF90BF90AF909F908F907F906F905F9058
:104030004F903F902F90089581E080935304DDCFFF
:10404000C88CD98CCE0CDF1CF6012081223050F1B7
:10405000422F4250550BFA014231510518F5E359F0
:10406000FD4FE4918E2F90E09D8B8C8B892B51F22C
:10407000C3018E199F09EC89FD898E179F070CF4E7
:10408000C1CF2250283080F4E22FF0E0E65BFF4DF4
:104090000C94172955205D202022A9217D21542030
:1040A00012223122E0E0DECF3701EC89FD89EE0DEE
:1040B000FF1D730137017F01A2CFD60107E01B8AE4
:1040C0001A8A2A893B892B5F3F4F49019C014A8903
:1040D0005B89241B350B253031050CF493C01196F8
:1040E0002C91119712964D915C91139714963C91D7
:1040F00014973077E22FE295EF70303558F0303575
:1041000009F078C04115510509F47AC04427452BC0
:1041100009F076C0E63030F4F0E0E553FD4FE4916D
:10412000EF3F09F40D7F2F70283038F4E22FF0E0D4
:10413000E455FD4FE491E03809F40B7F15962C917E
:10414000233009F454C08CE0E4EEF3E0DE01119674
:1041500001900D928A95E1F78091FC039091FD0307
:104160009B8F8A8F412C10E0073009F077C09F8A1F
:104170008E8A160181E0412C10E0EE89FF89359787
:104180000CF469C0F101A280B38011814480F42D48
:10419000F077F98BF035D9F5512C852DA0FE34C080
:1041A0000E9419065394B694A79428E05212F5CFB2
:1041B0002091FC033091FD034E895F8945505109E0
:1041C0005F8B4E8B55E0250E311C81E021153105AA
:1041D00009F480E0A1014C195D09481559056CF2FC
:1041E000232BD9F1A12EA2948FE0A8223DC09B8A57
:1041F0008A8A67CF303609F489CF303709F482CF05
:104200000E7F88CF00E09FCF0E94F205CBCF898937
:10421000803578F4805F8C8F5988FC8D5F1640F66E
:10422000852DA0FE15C00E94B0045394B694A794A7
:10423000F4CF512C9989852D903639F40E94B00421
:104240005394E0E65E12F6CFE8CF0E94E004F8CF88
:104250000E94E004EACF811101C006E0A12EA294E1
:104260007FE0A722073041F48091FC039091FD0389
:1042700007E0079780F405E08CE0FE013196A4EE9C
:10428000B3E001900D928A95E1F72A8D3B8D309332
:10429000FD032093FC03BB24B394D12CC12CC40197
:1042A0008C199D0905976CF0602F83E00E948C05A6
:1042B000B82E35E0C30ED11CC814D90414F48111F2
:1042C000EECF073099F4842D8F70909114048913E8
:1042D000809314041F7060E8183028F4E12FF0E098
:1042E000E455FD4F64918A2D0E9444054A895B89FB
:1042F000E40EF51EBB2001F1D8CE20910A04022E57
:10430000000C330BC901029697FD0396959587958E
:1043100095958795182F1F734F970CF01FE11093F9
:104320008804D090A7030091520486E00E946D0596
:10433000811104C000935204F701BCCE8D2D0E9460
:104340006D058823B9F3812F0E946D05882391F3B1
:10435000ACCEC7010196E88DF98D8E0F9F1FFC0131
:104360002081122F1F7030E044E0359527954A9543
:10437000E1F7022F07700E94DA05272F382F492F07
:104380005527A4E6B0E00E943A294B015C01F0E811
:104390008F1AF1EA9F0AF3E0AF0AFCE1BF0A21E0BD
:1043A00082162AE5920622E6A20622E0B20618F05C
:1043B00060E070E0CB0130EC30938E04163050F4A6
:1043C000E12FF0E0E553FD4FE491EF3F19F042ECAF
:1043D00040938E04611571058105910529F02091A6
:1043E0008E04216020938E04043028F420918E04E2
:1043F000246020938E0420918E04273C61F4109356
:104400008D046093E0037093E1038093E203909343
:10441000E30300938C04622F677085E00E948C0593
:10442000B82E68CFF60181818F7009F481E0809306
:104430008604F2E0F093900488E00E946D05F0CFCE
:10444000F60181818F70809312040E943806609378
:10445000CC037093CD038093CE039093CF0384E07D
:10446000ECCFF60181818F7380938B0489E0E5CFD7
:104470002F923F924F925F926F927F928F929F9274
:10448000AF92BF92CF92DF92EF92FF920F931F9362
:10449000CF93DF9300D000D000D0CDB7DEB78091AE
:1044A000020487FFE5C1F0909404F1101AC026962B
:1044B0000FB6F894DEBF0FBECDBFDF91CF911F9135
:1044C0000F91FF90EF90DF90CF90BF90AF909F90B3
:1044D0008F907F906F905F904F903F902F900C94B3
:1044E000511D2F2D30E03E832D832C30310544F4B7
:1044F000109294048091920480FFD9CF80E0B9C1DA
:1045000080919504982F937099F7807E89838036E7
:1045100011F0803A69F786E994E00E94DA0500918B
:10452000D4031091D5032091D6033091D70360179F
:10453000710782079307E1F630919A043B833F703D
:10454000E32EC32ED12C1601A8E02A0E311C2D819A
:104550003E81245031093E832D832215330544F2D8
:1045600088248A94982C221633064CF4F101EB56D9
:10457000FB4F2081822E912CD60119961D0140906F
:10458000D8035090D9036090DA037090DB03009158
:104590009B0410919C04041915090F3F100709F0A2
:1045A00078C021E0421A51086108710820E1E9E26F
:1045B000F3E0DF01322F1D923A95E9F739E43093A9
:1045C000290331E030932E03ACEFAF0DAC83A09301
:1045D000380360932F0370933003809331039093DB
:1045E0003203409233035092340360923503709249
:1045F0003603E3E6F4E0A9E7B3E001900D922A95D3
:10460000E1F74D815E8165E974E082E00E94A90EC8
:104610009B01AC01ED81FE81EB56FB4F6081718106
:10462000828193810E941D29261737074807590761
:1046300009F05ECF8091D8039091D903A091DA035D
:10464000B091DB03481659066A067B0638F58415D7
:104650009505A605B7050CF44BCF0197A109B10943
:10466000481659066A067B0609F042CF80918404F9
:10467000882309F43DCFB981B03A09F039CF80E2FF
:10468000809383048114910409F40CC101E010E0CB
:1046900033C0400E511E611C711C88CF0130104484
:1046A00008F026CFD301C2010196A11DB11D809350
:1046B000D8039093D903A093DA03B093DB03398135
:1046C00080E2303A09F080E0809384048093830490
:1046D00010E000E08114910441F4EE2031F08D816E
:1046E0009E81281639060CF403CF80918304811132
:1046F00003C09B8194FF09C0809102049091030440
:104700008061909303048093020410921804109225
:10471000850480EC9FEF0E94610510928E04109238
:104720009004E0910004F09101048E2F877033E033
:10473000F695E7953A95E1F7E370F0E0A3E08A9FFC
:10474000E00DF11D1124E956FD4FE491809109041B
:10475000082E000C990B80549109ED58FF0B8E1B0D
:104760009F0B97FD80E080938704A401B6018DE93B
:1047700094E00E94DA1F012B09F0BACEBFEF8B162E
:104780009B0699F12D813E81221933093E832D83A9
:104790001216130654F5C1018B569B4F9A838983D9
:1047A0004091D4035091D5036091D6037091D70303
:1047B00083E694E08114910411F083E794E0AD80E6
:1047C000BE80C980DA80EE24E394F12C930182014B
:1047D0000E94C3118114910441F450E040E06D81C6
:1047E0007E8189819A810E94DA1F90919104992398
:1047F00049F0AB8120E8A5FF20E480919204822B50
:104800008093920480919204181419043CF1806200
:10481000809392042092930410929404992321F09F
:104820008091920486FD43CE26960FB6F894DEBFA3
:104830000FBECDBFDF91CF911F910F91FF90EF90F1
:10484000DF90CF90BF90AF909F908F907F906F90B0
:104850005F904F903F902F900C94C31C8061809389
:10486000920420929304FC80F218F0929404D6CF24
:1048700081E026960FB6F894DEBF0FBECDBFDF9164
:10488000CF911F910F91FF90EF90DF90CF90BF904D
:10489000AF909F908F907F906F905F904F903F90E0
:1048A0002F900895EE2009F4F1CE01E010E017CF2B
:1048B0008091940481110EC0A0918604B0E01196FD
:1048C00024E234EF0E94332920918D044FEF54E10C
:1048D0000C943D0A0E943822882371F30895809138
:1048E000940481110BC0109292040E943806655EF8
:1048F00078448F4F9F4F42E00E9485110C943822DC
:104900001F920F920FB60F9211242F933F934F9344
:104910005F936F937F938F939F93AF93BF93EF9327
:10492000FF938BE195E00E94E702FF91EF91BF9129
:10493000AF919F918F917F916F915F914F913F9137
:104940002F910F900FBE0F901F9018951F920F92EE
:104950000FB60F9211242F938F939F93EF93FF9392
:10496000E0912B05F0912C058081E0913105F091CB
:10497000320582FD1BC09081809134058F5F8F735B
:1049800020913505821741F0E0913405F0E0E55EB5
:10499000FA4F958F80933405FF91EF919F918F91FE
:1049A0002F910F900FBE0F901F9018958081F4CF1C
:1049B0001F920F920FB60F9211242F933F938F9354
:1049C0009F93AF93BF938091670390916803A091E9
:1049D0006903B0916A033091390323E0230F2D3727
:1049E00058F50196A11DB11D2093390380936703EB
:1049F00090936803A0936903B0936A0380913A038C
:104A000090913B03A0913C03B0913D030196A11D01
:104A1000B11D80933A0390933B03A0933C03B09362
:104A20003D03BF91AF919F918F913F912F910F9037
:104A30000FBE0F901F90189526E8230F0296A11D18
:104A4000B11DD2CFEBE1F5E01382128288EE93E044
:104A5000A0E0B0E084839583A683B7838EE391E0E2
:104A60009183808385EC90E09587848784EC90E047
:104A70009787868780EC90E0918B808B81EC90E02B
:104A8000938B828B82EC90E0958B848B86EC90E00C
:104A9000978B868B118E128E138E148E80E591E08B
:104AA0009093B9058093B8050895CF93DF93CDB760
:104AB000DEB7A0970FB6F894DEBF0FBECDBF7894D7
:104AC00084B5826084BD84B5816084BD85B5826013
:104AD00085BD85B5816085BD80916E0081608093C4
:104AE0006E0010928100809181008260809381002D
:104AF000809181008160809381008091800081603D
:104B0000809380008091B10084608093B100809197
:104B1000B00081608093B00080917A0084608093BF
:104B20007A0080917A00826080937A0080917A0086
:104B3000816080937A0080917A00806880937A0007
:104B40001092C100E0912B05F0912C0582E080834A
:104B5000E0912705F09128051082E0912905F09158
:104B60002A0580E1808310923305E0912F05F091B2
:104B7000300586E08083E0912D05F0912E0580813F
:104B800080618083E0912D05F0912E058081886001
:104B90008083E0912D05F0912E05808180688083CF
:104BA000E0912D05F0912E0580818F7D808364E654
:104BB00070E080E090E00E943E0485E493E00E9473
:104BC0004908E7E1F5E084E0DF011D928A95E9F705
:104BD0008CE291E0909378038093770388EB95E0E3
:104BE00090935E0380935D0361E08AE00E94BA03C4
:104BF00061E08AE00E94E80360E089E00E94E80347
:104C000060E082E00E94E80360E086E00E94E80342
:104C100060E087E00E94E8031FB7F89480915C038E
:104C2000811127C0EBE1F3E08491E7E0F3E0949198
:104C3000E82FF0E0EE0FFF1FED50FD4FA591B4916E
:104C4000EC91E92321F461E08AE00E94BA0361E07B
:104C50008AE00E94E8038CB580618CBD8CB58064CD
:104C60008CBD61E08DE00E94E80361E08BE00E9472
:104C7000E80380915C038F5F80935C031FBFEEE4C9
:104C8000F3E08EE0DF011D928A95E9F780EE95E072
:104C9000909357038093560382E080935103F093DF
:104CA000BD05E093BC0581E00E94C5070091770334
:104CB00010917803F80182818F3F49F060E00E94F3
:104CC000BA0361E0D80112968C910E94E8030E9419
:104CD0003806625C7F4F8F4F9F4F0E947B07F80121
:104CE00082818F3F19F060E00E94E8030E9438063D
:104CF000685C7E4F8F4F9F4F0E947B0780E00E9431
:104D00004E0D82E40E947F0B823109F020C2809117
:104D10005D0390915E03DC01ED91FC910680F781CB
:104D2000E02D0995882341F08BE40E947F0B682FCA
:104D300060618BE40E94910B82E00E94580D81E03B
:104D40000E947F0B87708530D1F70EE313E0BDE43E
:104D5000CB2EB3E0DB2EA8E0EA2EF12C8CE20E94F1
:104D60007F0B8170B82E8CE20E947F0B8170B81689
:104D7000A9F3F8018181880F8B298183F1E0EF1A73
:104D8000F10861F70F5F1F4FC016D10621F710E140
:104D900010933E0380E00E944E0D80E490E09093DB
:104DA0000304809302048FEF8093A7030E940E12E6
:104DB00040E150E065E373E0CE0141960E94AD28EA
:104DC00040E150E065E273E0CE0101960E94AD281B
:104DD00083E190E0A0E0B0E08093D0039093D10312
:104DE000A093D203B093D30385E19AEEAEEDB0E089
:104DF0008093D4039093D503A093D603B093D703A5
:104E0000FE013196A3E6B4E0812F01900D928A95C0
:104E1000E1F7FE017196A3E7B4E001900D921A95B7
:104E2000E1F7809102049091030489759D7B98605D
:104E300090930304809302040E94B60590E080E002
:104E40000E94610510E0812F0E94F2051F5F18305B
:104E5000D1F71092850480E89FEF90930704809328
:104E6000060410928D04109289046BE080E00E9489
:104E700044058FE593E00E947F1FEFE0BE2EF0E037
:104E8000CF2EF0E0DF2E2FB7F8948091670390913A
:104E90006803A0916903B0916A032FBF61E091FF9D
:104EA00060E08DE00E94BA037BE6E72E73E0F72E08
:104EB00010E000E0E0917703F0917803E00FF11F3C
:104EC00083818F3FC9F1D7014D905D906D907C90AB
:104ED000411451046104710479F1F70110821182C7
:104EE0001282138281E00E947F0B87FFCEC082E195
:104EF0000E947F0B8093160583FF45C0F2E04F1A96
:104F00005108610871084092BC035092BD03609241
:104F1000BE037092BF036FEF81E10E94910B6FEFB0
:104F200082E10E94910B80E00E944E0D8091AE03C1
:104F30009091AF030E94E4060F5F1F4FE4E0EE0E76
:104F4000F11C0330110509F0B5CF0E94E80500916E
:104F5000190510911A050115110509F4C9C0D801E8
:104F60008D919C9190931A05809319050E945C067F
:104F70000115110509F4DFC0D8011696ED91FC91D9
:104F8000C8010995D8C086FF7BC0E0910004F0916C
:104F90000104CF0163E0969587956A95E1F78370E8
:104FA00061F4E770F0E0EE0FFF1FE25BFC4F8591CC
:104FB0009491481A590A610871084092C0035092AE
:104FC000C1036092C2037092C3038DE10E947F0B04
:104FD00080FF45C082E20E947F0B8093940480E1B1
:104FE0000E947F0B682F8DE00E94910B40919404EA
:104FF00050E021E065E974E080E00E94160B89E151
:105000000E947F0B80930A048AE10E947F0B282F65
:1050100030E04091C8035091C9036091CA03709178
:10502000CB0341345D4D6A447F41D8F02D5931099D
:1050300090910A0497FF18C0A92FBB27A1950CF4E3
:10504000B095CD019595879595958795281B390B3A
:10505000203431059CF4205C209309045CCF83E16B
:10506000BACF245A3109E4CF2D39BFEF3B079CF367
:105070006B2D0E94B628280F311DEACF2FE7ECCF09
:1050800087FF49CF1092940446CF8EE30E947F0B96
:105090008FE30E947F0B83FF0CC04092BC035092B1
:1050A000BD036092BE037092BF0381E00E944E0D6B
:1050B0003ACF82FF1AC04092C0035092C10360925F
:1050C000C2037092C30382E30E947F0B8093940417
:1050D000482F50E021E065E974E080E00E94160B63
:1050E00010920A0410920904E0CF10929404DDCFCC
:1050F000E0911705F09118053097D9F04280538060
:10510000648075800E943806461A570A680A790A30
:10511000141415041604170464F000911705109177
:105120001805F801808191819093180580931705E7
:105130001DCF0E945C06C114D10409F4A4CE0E94C4
:10514000D302882309F49FCE0E9400009CCE65E321
:1051500070E080EF92E00E94EF05FB01DC0102C0ED
:1051600005900D9241505040D8F70895991B79E071
:1051700004C0991F961708F0961B881F7A95C9F7E7
:1051800080950895AA1BBB1B51E107C0AA1FBB1F36
:10519000A617B70710F0A61BB70B881F991F5A95C3
:1051A000A9F780959095BC01CD010895A1E21A2E32
:1051B000AA1BBB1BFD010DC0AA1FBB1FEE1FFF1FBB
:1051C000A217B307E407F50720F0A21BB30BE40B0B
:1051D000F50B661F771F881F991F1A9469F7609552
:1051E0007095809590959B01AC01BD01CF0108950C
:1051F000052E97FB1EF400940E940F2957FD07D03F
:105200000E94D62807FC03D04EF40C940F29509529
:105210004095309521953F4F4F4F5F4F08959095A2
:105220008095709561957F4F8F4F9F4F0895EE0F3A
:10523000FF1F0590F491E02D0994692796276927AF
:105240007827872778270895A29FB001B39FC001D0
:10525000A39F700D811D1124911DB29F700D811DA2
:105260001124911D08950E942429B7FF0895821BDF
:10527000930B08950E942429A59F900DB49F900D33
:10528000A49F800D911D1124089597FB57FF0C9446
:1052900055299F938F930E9455296E1B7F0BAF91C9
:1052A000BF918A0B9B0B0895E894DF93CF93FC0189
:1052B000DB010E9424297F936F93E9019A01AC01DD
:1052C000BF93AF933F932F93DF010E94242926F4CD
:1052D0006C1B7D0B820B930B9E01EB01FC010E946A
:1052E0004B2AAF91BF912F913F910E944B2ABE0153
:1052F000CF01F9012F913F91CF91DF9108956894EB
:1053000001C0E8948F929F92CF93DF930E948D29E2
:10531000DF91CF919F908F90089588249924F40174
:10532000E401B0E49F93AA279A158B049C04ED0531
:10533000FE05CF05D007A10798F4AD2FDC2FCF2FA6
:10534000FE2FE92D982C892E982F872F762F652FE9
:10535000542F432F322F2227B85031F7BF9127C047
:105360001B2EBF91BB27220F331F441F551F661FE3
:10537000771F881F991F881C991CEE1FFF1FCC1FC9
:10538000DD1FAA1FBB1F8A149B04EC05FD05CE057B
:10539000DF05A007B10748F08A189B08EC09FD0952
:1053A000CE09DF09A00BB10B21601A94E1F62EF4AF
:1053B0009401AF01BE01CD01000C08952F923F92E0
:1053C0004F925F926F927F928F929F92AF92BF9215
:1053D000CF92DF92EF92FF920F931F93CF93DF93C1
:1053E000CDB7DEB7CA1BDB0B0FB6F894DEBF0FBE1E
:1053F000CDBF09942A88398848885F846E847D846B
:105400008C849B84AA84B984C884DF80EE80FD806C
:105410000C811B81AA81B981CE0FD11D0FB6F894E2
:10542000DEBF0FBECDBFED010895002E083090F015
:10543000982F872F762F652F542F432F322F222717
:105440000850F4CF220F331F441F551F661F771FCC
:10545000881F991F0A95B2F7002D089597FD1094A3
:10546000002E083098F00850232F342F452F562F48
:10547000672F782F892F912DF4CF159497958795C5
:105480007795679557954795379527950A95AAF784
:105490001124002D08950E942429460F571FC81F6C
:1054A000D91F08F431960895FB01DC0102C0019078
:1054B0000D9241505040D8F70895DC0101C06D9322
:1054C00041505040E0F70895B0E0A0E0EAE6FAE28B
:1054D0000C94EE29AE014B5F5F4FFA01619171911F
:1054E000AF018091BC059091BD050E94812AE2E048
:1054F0000C940A2A6091BC057091BD050E94712C24
:105500000895ABE0B0E0E7E8FAE20C94DE297C0114
:105510003B018A01FC0117821682838181FFC8C189
:10552000CE0101965C01F7019381F30193FD859112
:1055300093FF81913F01882309F453C1853239F4E7
:1055400093FD859193FF81913F01853229F4B70145
:1055500090E00E94712CE7CF912C212C312CFFE19F
:10556000F31538F08B3211F190F4803209F1833267
:1055700029F137FC3CC020ED280F2A3050F536FECB
:1055800020C08AE0989E200D1124922E06C08D32F4
:1055900091F0803371F7689430F8F30193FD8591B1
:1055A00093FF81913F018111DACF21C0689431F8D6
:1055B000689432F8F2CF689433F8EFCF689434F8F7
:1055C000ECCFEAE02E9E200D1124222E689435F8AF
:1055D000E4CF8E3229F436FC04C1689436F8DDCF6E
:1055E0008C3619F4689437F8D8CF8836B1F2982FF2
:1055F0009F7D95549330E0F08336A1F18337C1F15C
:10560000833509F063C02801F2E04F0E511CF80108
:10561000C080D180692D70E036FC02C06FEF7FEF53
:10562000C6010E945B2C4C01689437F882010AC0C5
:105630000C5F1F4FFFE3F98388248394912C65014D
:10564000E89437F833FE2DC0522C8114910471F583
:10565000552009F468CFB70180E290E00E94712CD8
:105660005A94F6CFF801808189830E5F1F4FE4CFF3
:105670002801F2E04F0E511CF801C080D180692D45
:1056800070E036FC02C06FEF7FEFC6010E94662C0F
:105690004C018201D5CFB70180E290E00E94712CCD
:1056A0002A942814190409F0B0F7CECFF60137FC7C
:1056B000859137FE81916F01B70190E00E94712CB6
:1056C00051105A94F1E08F1A9108BFCF843619F027
:1056D000893609F077C0F80137FE6BC060817181AF
:1056E000828193810C5F1F4FF32DFF763F2E97FF32
:1056F00009C090958095709561957F4F8F4F9F4F12
:10570000689437F82AE030E0A5010E94A12CC82E49
:10571000CA188C2C432C36FE0CC0E89440F8C914EF
:1057200040F434FE05C032FC03C0F32DFE7E4F2E44
:10573000892C44FE95C0FE01EC0DF11D8081803363
:1057400009F087C0242D297E422E842D8870582E82
:1057500043FC95C040FE8FC09C2C821418F42C0C86
:10576000922C981844FE91C0B70180E390E00E940B
:10577000712C42FE09C088E790E041FE02C088E536
:1057800090E0B7010E94712CC91408F48AC0CA9431
:10579000D12C9FEFC91AD90ACA0CDB1CF6018291E1
:1057A0006F01B70190E00E94712CAC14BD04B1F7F9
:1057B0004FCF60817181072E000C880B990B0E5F13
:1057C0001F4F92CFD32CE894D4F82AE030E08537ED
:1057D00039F1232D297FD22E8F3601F148F48835F7
:1057E000A9F0F701868197812B96E2E10C94FA29C2
:1057F000803749F08837A9F7D4FE02C06894D2F800
:1058000020E130E00DC06894D4F8F6CF34FE03C038
:10581000822F8660D82E20E132E002C028E030E0FE
:10582000F801D7FE0FC060817181828193810C5F86
:105830001F4FA5010E94A12CC82ECA183D2CE89428
:1058400037F867CF6081718190E080E00E5F1F4F75
:10585000F0CF42FC02C0839478CF8394839475CFB9
:10586000842D867809F471CFF6CFB70180E290E0FD
:105870000E94712C83948214C0F3512C73CF522C4C
:105880005818821408F46ECFF8CF842D867809F466
:105890007BCF8BE241FE80E247FC8DE2B70190E0D6
:1058A00071CFB70180E390E00E94712C9A946CCF85
:1058B0008FEF9FEF99CFFC01059061507040011070
:1058C000D8F7809590958E0F9F1F0895FC01615029
:1058D000704001900110D8F7809590958E0F9F1F12
:1058E00008950F931F93CF93DF93182F092FEB0188
:1058F0008B8181FD09C01FEF0FEF812F902FDF916A
:10590000CF911F910F91089582FF14C02E813F8186
:105910008C819D81281739073CF4E881F981CF01FA
:1059200001969983888310838E819F8101969F833E
:105930008E83E3CFE885F985812F0995892BA1F323
:10594000DACFFA01AA27283051F1203181F1E89409
:105950006F936E7F6E5F7F4F8F4F9F4FAF4FB1E062
:105960003ED0B4E03CD0670F781F891F9A1FA11D5D
:10597000680F791F8A1F911DA11D6A0F711D811D5E
:10598000911DA11D20D009F468943F912AE0269F23
:1059900011243019305D3193DEF6CF010895462F82
:1059A0004770405D4193B3E00FD0C9F7F6CF462F63
:1059B0004F70405D4A3318F0495D31FD40524193CC
:1059C00002D0A9F7EACFB4E0A69597958795779589
:1059D0006795BA95C9F700976105710508959B0110
:1059E000AC010A2E06945795479537952795BA9599
:1059F000C9F7620F731F841F951FA01D0895F894A7
:025A0000FFCFD6
:105A020048656C6C6F48656C6C6F48656C6C6F4870
:105A1200656C6C6F48656C6C6F48656C6C6F486543
:105A22006C6C6F2C20776F726C6421000AFF090284
:105A3200060700000000000000000000000009034B
:105A4200690296027103C702A502B90200000000B2
:105A52000408030803080108FF07453A5C41726421
:105A620075696E6F5C6C69627261726965735C61A3
:105A7200726475696E6F2D6C6D69635C7372635CC1
:105A82006C6D69635C6C6D69635F636E3439302E73
:105A920063000D0A00453A5C41726475696E6F5C81
:105AA2006C69627261726965735C61726475696E58
:105AB2006F2D6C6D69635C7372635C6C6D69635CA2
:105AC200726164696F2E6300453A5C417264756964
:105AD2006E6F5C6C69627261726965735C6172643B
