:020000040000FA
:100000000C940A020C9432020C9432020C943202C8
:100010000C9432020C9432020C9432020C94320290
:100020000C9432020C9432020C9432020C94320280
:100030000C9432020C9432020C9432020C94320270
:100040000C9433240C9432020C9401240C94DB2382
:100050000C9432020C9432020C9432020C94320250
:100060000C9432020C943202556E6B6E6F776E20D8
:100070006576656E743A200045565F4A4F494E5F7B
:100080005458434F4D504C4554453A206E6F204ACA
:100090006F696E4163636570740045565F545843E1
:1000A000414E43454C45440045565F5458535441D6
:1000B00052540045565F4C494E4B5F414C495645A2
:1000C0000045565F4C494E4B5F4445414400455600
:1000D0005F5258434F4D504C4554450045565F5272
:1000E000455345540045565F4C4F53545F54535944
:1000F0004E43004261736536342D6465636F6465F9
:10010000642068657861646563696D616C207374EF
:1001100072696E67207061796C6F61643A200020AB
:100120006279746573206F66207061796C6F6164A9
:100130003A20005265636569766564200052656304
:1001400065697665642061636B0045565F5458436A
:100150004F4D504C4554452028696E636C7564655D
:10016000732077616974696E6720666F72205258D8
:100170002077696E646F7773290045565F52454A50
:100180004F494E5F4641494C45440045565F4A4FF2
:10019000494E5F4641494C45440045565F4A4F49E8
:1001A0004E45440045565F4A4F494E494E4700452B
:1001B000565F424541434F4E5F545241434B454485
:1001C0000045565F424541434F4E5F4D49535345AD
:1001D000440045565F424541434F4E5F464F554EA2
:1001E000440045565F5343414E5F54494D454F557A
:1001F00054004F505F5458525850454E442C206E76
:100200006F742073656E64696E67005061636B651F
:100210007420717565756564000000000023002678
:100220000029000305020501060202050000060080
:1002300000010504040004000000020000000100A9
:10024000008000000040000000200000002020206E
:100250000E11140C0F12090C0F06090C03060900ED
:10026000030613110F0D0B09070540404080EBEB0F
:10027000080A0C0D0E10121415181A1B1D1E21242D
:10028000FF060504030201FFC04000000000002536
:100290000028002B000000000800020100000304F9
:1002A00007000000000000000000000000240027FC
:1002B000002A0001020408102040800102040810F6
:1002C00020010204081020040404040404040402AD
:1002D000020202020203030303030343579EA99C85
:1002E000F9256204D4778F63A61C0CE9B53B908591
:1002F00077E0CF4A7DBE490D40B0455374617274BA
:10030000696E6700000000006700CC00B80154036C
:100310009D07637C777BF26B6FC53001672BFED73F
:10032000AB76CA82C97DFA5947F0ADD4A2AF9CA47E
:1003300072C0B7FD9326363FF7CC34A5E5F171D8EE
:10034000311504C723C31896059A071280E2EB27DC
:10035000B27509832C1A1B6E5AA0523BD6B329E3FF
:100360002F8453D100ED20FCB15B6ACBBE394A4CDF
:1003700058CFD0EFAAFB434D338545F9027F503C5F
:100380009FA851A3408F929D38F5BCB6DA2110FF8B
:10039000F3D2CD0C13EC5F974417C4A77E3D645D88
:1003A000197360814FDC222A908846EEB814DE5E15
:1003B0000BDBE0323A0A4906245CC2D3AC62919569
:1003C000E479E7C8376D8DD54EA96C56F4EA657AA5
:1003D000AE08BA78252E1CA6B4C6E8DD741F4BBD46
:1003E0008B8A703EB5664803F60E613557B986C1F3
:1003F0001D9EE1F8981169D98E949B1E87E9CE5510
:1004000028DF8CA1890DBFE6426841992D0FB054B9
:10041000BB167D2411241FBECFEFD8E0DEBFCDBFB9
:1004200025E0A2E8B3E001C01D92AE3DB207E1F7BE
:1004300013E0A0E0B1E0ECE9F8E502C005900D9210
:10044000A238B107D9F712E0CAE0D2E004C0219780
:10045000FE010E947228C930D107C9F70E94B0245A
:100460000C944C2C0C940000FC0120E1215008F469
:10047000089580E0211181819191990F87FD91600C
:10048000DF0111979C93F2CFAF92BF92CF92DF9290
:10049000EF92FF920F931F93CF93DF936C017B0139
:1004A0008B01040F151FEB015E01AE18BF08C017CA
:1004B000D10759F06991D601ED91FC910190F0813D
:1004C000E02DC6010995892B79F7C501DF91CF9100
:1004D0001F910F91FF90EF90DF90CF90BF90AF9062
:1004E0000895FC01538D448D252F30E0842F90E03A
:1004F000821B930B541710F0CF960895019708951F
:10050000FC01918D828D981761F0A28DAE0FBF2FE7
:10051000B11D5D968C91928D9F5F9F73928F90E03D
:1005200008958FEF9FEF0895FC01918D828D9817AC
:1005300031F0828DE80FF11D858D90E008958FEFE9
:100540009FEF0895FC01918D228D892F90E0805CB2
:100550009F4F821B91098F739927089589E395E036
:100560000E94A20221E0892B09F420E0822F089545
:1005700080E090E0892B29F00E94AE0281110C945A
:1005800000000895FC01A48DA80FB92FB11DA35A36
:10059000BF4F2C91848D90E001968F739927848FA3
:1005A000A689B7892C93A089B1898C9183708064C6
:1005B0008C93938D848D981306C00288F389E02D67
:1005C00080818F7D80830895EF92FF920F931F9318
:1005D000CF93DF93EC0181E0888F9B8D8C8D9813F6
:1005E0001AC0E889F989808185FF15C09FB7F89402
:1005F000EE89FF896083E889F9898081837080644E
:1006000080839FBF81E090E0DF91CF911F910F9198
:10061000FF90EF900895F62E0B8D10E00F5F1F4FA7
:100620000F731127E02E8C8D8E110CC00FB607FCB6
:10063000FACFE889F989808185FFF5CFCE010E9444
:10064000C202F1CFEB8DEC0FFD2FF11DE35AFF4FEE
:10065000F0829FB7F8940B8FEA89FB8980818062D2
:10066000CFCF0F931F93CF93DF938C01D0E0C0E0E7
:10067000F801EC0FFD1F6491662341F089E395E0DA
:100680000E94E402892B11F02196F2CFCE01DF9176
:10069000CF911F910F910895CF93DF93EC01888D37
:1006A0008823B9F0AA89BB89E889F9898C9185FDED
:1006B00003C0808186FD0DC00FB607FCF7CF8C917B
:1006C00085FFF2CF808185FFEDCFCE010E94C2026F
:1006D000E9CFDF91CF910895833081F028F4813004
:1006E00099F08230A9F008958730A9F08830C9F0D8
:1006F0008430B1F4809180008F7D03C080918000B0
:100700008F7780938000089584B58F7784BD089596
:1007100084B58F7DFBCF8091B0008F778093B00040
:1007200008958091B0008F7DF9CF1F93CF93DF9311
:10073000282F30E0F901EB56FD4F8491F901ED547B
:10074000FD4FD491F901E953FD4FC491CC23A9F099
:10075000162F81110E946C03EC2FF0E0EE0FFF1FAB
:10076000E557FD4FA591B4918FB7F894EC91111115
:1007700008C0D095DE23DC938FBFDF91CF911F910E
:100780000895DE2BF8CFCF93DF9390E0FC01ED547A
:10079000FD4F249189539D4FFC0184918823D1F012
:1007A00090E0880F991FFC01E755FD4FA591B4918A
:1007B000FC01E557FD4FC591D49161110EC09FB763
:1007C000F8948C91E22FE0958E238C932881E2237C
:1007D000E8839FBFDF91CF9108958FB7F894EC9194
:1007E000E22BEC938FBFF6CF3FB7F894809198033C
:1007F00090919903A0919A03B0919B0326B5A89B71
:1008000005C02F3F19F00196A11DB11D3FBFBA2FA2
:10081000A92F982F8827BC01CD01620F711D811D62
:10082000911D42E0660F771F881F991F4A95D1F7E7
:1008300008958F929F92AF92BF92CF92DF92EF92E4
:10084000FF924B015C010E94F4036B017C010E944A
:10085000F4036C197D098E099F09683E7340810578
:100860009105A8F321E0821A9108A108B10888EE49
:10087000C80E83E0D81EE11CF11C81149104A10470
:10088000B10429F7FF90EF90DF90CF90BF90AF9029
:100890009F908F9008950F931F93611571058105A7
:1008A0009105F9F000910E0410910F0420911004AD
:1008B00030911104DC01CB01800F911FA21FB31FE7
:1008C00080930E0490930F04A0931004B09311042E
:1008D00080911204909113040196909313048093D5
:1008E00012041F910F910895FC012081318121157F
:1008F000310519F490E080E008952617370749F490
:10090000FB0120813181FC013183208381E090E073
:100910000895C901E9CF803660F5282F22952F7000
:1009200030E0220F331FF901EE5BFB4F4081518114
:100930008F7061E070E002C0660F771F8A95E2F762
:10094000CA0186239723892B91F480915A049091B0
:100950005B04019690935B0480935A0481E02E5BC4
:100960003B4F462B572BF90151834083089580E07C
:10097000F6CF80E00895803670F5282F22952F70ED
:1009800030E0220F331FF901EE5BFB4F6081718174
:100990008F7041E050E002C0440F551F8A95E2F786
:1009A000CA0186239723892BA1F080915A04909144
:1009B0005B04019790935B0480935A0481E02E5B63
:1009C0003B4F4095509546235723F901518340836F
:1009D000089580E0F4CF80E00895FC0190E080E08D
:1009E0006115710509F4089521913191A901569578
:1009F000479545755575241B350BA90143735373F2
:100A0000369527953695279523733373240F351F15
:100A1000A901407F507F2F703F70A4E0220F331F49
:100A2000AA95E1F7240F351FA9015527232F332756
:100A3000240F351F820F931F61507109D1CF982F5A
:100A40006038C1F0809173046817A1F0609373045B
:100A500081E020917404291761F0909374048091CF
:100A600060049091610498609093610480936004A5
:100A700081E0089580E0EDCF209164043091650419
:100A800020383F4F21F090936504809364040895CB
:100A9000982F8091B104E091B004882361F0EF3089
:100AA000A0F481E08E0F8093B004F0E0EE54FB4F91
:100AB000908381E00895E43348F481E08E0F8093C1
:100AC000B004F0E0E458FB4FF3CF80E00895CF93FB
:100AD000DF93C62FD091B0040E944805811106C053
:100AE000D093B00480E0DF91CF9108958C2F0E94C5
:100AF00048058823A9F381E0F6CF1092EA0410920A
:100B0000EB0480E294E4AEE1BEE180933E04909376
:100B10003F04A0934004B09341048FEF8093E90415
:100B2000089510923A0410923B0410923C041092E3
:100B30003D0410923604109237041092380410923B
:100B40003904109276041092E3041092E204109299
:100B5000E10410927204109277041092EC04109247
:100B6000EE041092E8040C947D05FC016081718113
:100B7000828193810895682F89E395E00E94E402C1
:100B800090E080E00895F894809186038F5F8093D1
:100B9000860308950E94C305FFCFEF92FF921F9333
:100BA000CF93DF938C3030F067EA70E08CE391E014
:100BB0000E94CA05880F880F880F98E0980FC82FE9
:100BC000D0E010E0E92EF12CCE15DF053CF0812FAE
:100BD000DF91CF911F91FF90EF9008958C2F0E948D
:100BE000BB04182B2196F0CFEF92FF921F93CF9367
:100BF000DF93880F880F880F98E0980FC82FD0E0F8
:100C000010E0E92EF12CCE15DF053CF0812FDF91AD
:100C1000CF911F91FF90EF9008958C2F0E948B042D
:100C2000182B2196F0CF0F931F930E94F403AB0172
:100C3000BC0120918203DC01CA013CE1B695A79575
:100C4000979587953A95D1F782278870820F809380
:100C50008203E4E07695679557954795EA95D1F735
:100C60009B01382BC901BA011F910F910895AF92D2
:100C7000BF92CF92DF92EF92FF920F931F93CF9389
:100C8000DF9380918603815080938603811169C030
:100C9000789403E813E0D0E0C0E0BB24B394E09183
:100CA000D503F091D603EC0FFD1F23812F3F09F4EC
:100CB00051C0F801D080ED2CF12C30E0F901EB5659
:100CC000FD4F8491F901ED54FD4FC490F901E953B2
:100CD000FD4FA490AA2009F44FC081110E946C031B
:100CE000EA2DF0E0EE0FFF1FE75EFD4FA591B491F6
:100CF000EC91CE2231E020E009F430E0832F922FF6
:100D0000E816F90639F1DB24F801D082DD2011F173
:100D1000CE01880F991F880F991F9C0127533C4FC4
:100D20007901F90180819181A281B381892B8A2B7C
:100D30008B2B81F40E9413066115710581059105C5
:100D400021F461E070E080E090E0F701608371835E
:100D50008283938321960F5F1F4FC330D10509F023
:100D60009ECFDF91CF911F910F91FF90EF90DF9079
:100D7000CF90BF90AF90089590E080E0C1CFCF9327
:100D8000DF93EC010E94C30580910804909109044F
:100D9000A0910A04B0910B04892B8A2B8B2B31F57F
:100DA00087E395E066E074E00E9474041092070403
:100DB00010920604109208041092090410920A047A
:100DC00010920B04D0930D04C0930C04E0913705EE
:100DD000F0913805A7E3B5E0309759F486E094E048
:100DE0008D939C93DF91CF910C94370685E395E02A
:100DF000D9CFDF010190F081E02DEECFCF92DF92CD
:100E0000EF92FF920F931F93CF93DF93EC016A0150
:100E10007B018901C114D104E104F10421F4C12C46
:100E2000D12C7601C3940E94C3058A819B81AC8139
:100E3000BD81892B8A2B8B2B89F587E395E0BE0139
:100E40000E94740419821882CA82DB82EC82FD82BD
:100E50001F830E83E0913505F091360525E335E0DB
:100E6000309779F082819381A481B5818C199D0995
:100E7000AE09BF09181619061A061B0694F4F98361
:100E8000E883F901D183C083DF91CF911F910F9146
:100E9000FF90EF90DF90CF900C94370685E395E0BC
:100EA000CECF9F010190F081E02DDACFCF92DF927B
:100EB000EF92FF926B017C010E941306A70196013D
:100EC000261B370B480B590BDA01C901B7FF0CC0C1
:100ED00066277727CB01621B730B840B950BFF9062
:100EE000EF90DF90CF900895833332E09307A10510
:100EF000B1058CF068E070E080E090E00E94190499
:100F00000E941306A7019601261B370B480B590BAD
:100F1000DA01C901E9CF181619061A061B0664F48E
:100F200024E0880F991F2A95E1F7880F991F880FF1
:100F3000991F05970197F1F760E070E0CB01CFCFE3
:100F4000CF92DF92EF92FF92A091BB03B091BC03CE
:100F5000682F6170ED91FC9111970190F081E02D67
:100F6000CD0109956B017C01C114D104E104F104A8
:100F700061F00E9413066C0D7D1D8E1D9F1DFF905C
:100F8000EF90DF90CF900C945607FF90EF90DF909A
:100F9000CF900895982FE091D503F091D6038181E9
:100FA0008F3F39F061E02681291301C060E00C9485
:100FB0009503089581E0089580E00895089560E024
:100FC00070E0CB010895E7EEF3E08481958194838E
:100FD0009681958397819683878380859285908774
:100FE0008287818593859187838787859685978773
:100FF000958596879485958784870895CF9327EE66
:1010000033E0BC01605F7F4FDC01F90140E0CD912E
:1010100050815C2750834F5F34964430C1F72F5F77
:101020003F4F04968617970779F7CF910895FC01F3
:1010300001900020E9F73197AF01481B590BBC0123
:1010400089E395E00C944402CF93DF930E9431032F
:10105000EC018EE891E00E9417088C0F9D1FDF9134
:10106000CF9108958F929F92AF92BF920F931F934B
:10107000CF93DF93CDB7DEB7A1970FB6F894DEBF5D
:101080000FBECDBF19A2423008F44AE08E010F5DB9
:101090001F4F842E912CB12CA12CA50194010E94EC
:1010A0003128E62FB901CA01EA30F4F4E05DD80135
:1010B000EE938D01232B242B252B79F790E080E0F4
:1010C000109719F0CD010E941708A1960FB6F89459
:1010D000DEBF0FBECDBFDF91CF911F910F91BF90AB
:1010E000AF909F908F900895E95CE1CF0F931F938D
:1010F000CF93DF9300D000D0CDB7DEB7DB011C96D5
:101100009C911C971E963C911E971F962C911F97A1
:101110001D964C911D9749833A832B839C83BE0176
:101120006B5F7F4F9E012F5F3F4FF90111919F0130
:10113000412F42954F70F0E14F9FA0011124E12F04
:10114000EF70E40FF52FF11DEE5EFC4F9491A901B5
:1011500041505109FA0190832617370731F791E082
:101160005BE1813039F0492F440F97FD45278150CD
:10117000942FF7CF8981982799838D0194E0FE0100
:101180003196A801DA018D91AD0161918627BD01EB
:1011900061507109DB018C93BF0161507109DB0162
:1011A0008C93E217F30771F791500C5F1F4F911169
:1011B000E6CF0F900F900F900F90DF91CF911F917E
:1011C0000F9108953F924F925F926F927F928F920C
:1011D0009F92AF92BF92CF92DF92EF92FF920F93C6
:1011E0001F93CF93DF93CDB7DEB768970FB6F89410
:1011F000DEBF0FBECDBF8C0127EEC22E23E0D22E64
:10120000AC01405F5F4FC6017801FC01D70120E0CF
:101210003D9130832F5F34962430D1F724E0E20EE5
:10122000F11C01964E155F0581F7A7EDB3E0FE01B5
:10123000319687EE93E05E2E6F2E2D9121938A17C3
:101240009B07D9F7852D962D0E94FE0744244394D1
:101250008BEEA82E83E0B82E4E0139E1830E911C4F
:101260009BE1392E87EE93E024E0DC01712CEC91B8
:101270004E2F42954F7030E1439FA0011124EF7033
:10128000E40FF52FF11DEE5EFC4FE491EC937394A7
:10129000149654E07512EBCF215001962111E5CF41
:1012A0000E94E307E7EEF3E0CE014596BE016F5ED4
:1012B0007F4F9F01D9015C91DC015D93CD01452FEA
:1012C000440F57FD83C0DB014C932C5F3F4F6F5F92
:1012D0007F4F8816990671F78E89398938272F89AB
:1012E000688D9A8992279627432F492741934D89E4
:1012F0005B899427952793839C8986278427852754
:10130000892787832427292732273387AE16BF06EC
:1013100059F6652D762D842D0E947608852D962D03
:101320000E94FE074394BAE04B129CCF87EE93E0F5
:10133000DC0140E0EC912E2F22952F7050E1259F8B
:1013400090011124EF70E20FF32FF11DEE5EFC4FC0
:10135000E491EC934F5F1496443061F77A940196D0
:101360007110E6CF0E94E307652D762D8AE00E947A
:101370007608852D962D0E94FE07D801F60180E0A3
:1013800090819D938F5F34968430D1F78FEFC81A88
:10139000D80A0C5F1F4FE016F10679F768960FB672
:1013A000F894DEBF0FBECDBFDF91CF911F910F919B
:1013B000FF90EF90DF90CF90BF90AF909F908F9075
:1013C0007F906F905F904F903F90089543257BCF23
:1013D000E0916B04A0916F04A770B0E020E43DE0C1
:1013E00043E050E00E94952860527F458C4C914E1E
:1013F0006093260470932704809328049093290413
:101400008091EA04E53090F4E81BE63008F0E5E06E
:10141000E0936B04F0E0EF57FD4FE491F0E0EF77DD
:10142000E068F0935F04E0935E040895E5E0ECCF9C
:101430004F925F926F927F928F929F92AF92BF92E4
:10144000CF92DF92EF92FF920F93CF93DF9300D072
:1014500000D000D0CDB7DEB76B017C015E834D8339
:10146000277084E0289FF0011124EB5CFD4F8591EB
:101470009591A591B49189839A83AB83BC83409065
:101480001A0450901B0460901C0470901D0460911D
:101490000304709104046115710531F0673091E027
:1014A000790710F066E071E090E080E0A701960116
:1014B0000E94A02800E10E94892949015A0129813E
:1014C0003A814B815C81220F331F441F551FC50198
:1014D000B401660F771F881F991F620F731F841F47
:1014E000951F64587F4F8F4F9F4F0E9453282A5F4C
:1014F0003F4F43E85FEF6FEF7FEF481959096A09E3
:101500007B092115A4E03A07B8F18FEF93E090939F
:101510006A0480936904C40ED51EE61EF71E4C0CA7
:101520005D1C6E1C7F1C40921E0450921F04609232
:10153000200470922104B301A20141575240610975
:1015400071092D813E8186E094E026960FB6F894CD
:10155000DEBF0FBECDBFDF91CF910F91FF90EF9017
:10156000DF90CF90BF90AF909F908F907F906F90C3
:101570005F904F900C94FE0630936A0420936904A8
:10158000CACFCF92DF92EF92FF922091E40430E035
:10159000A4E2B4EF0E947F286B017C010E94E8095D
:1015A00020916B0443ED53E2C701B601FF90EF9029
:1015B000DF90CF900C94180A0E94E80920916B04E8
:1015C00047ED53E264EB74EC84E090E00C94180A6D
:1015D000E82FF0E0E058FD4FE491EF3F09F0815033
:1015E00008958F929F92AF92BF92DF92EF92FF92F7
:1015F0000F931F93CF93DF93D82EEB018A01E22E36
:10160000E091D503F091D603F08080849184A28488
:10161000B38481149104A104B10439F420E4822E2E
:1016200022E4922E2FE0A22EB12C40E052E16AE794
:1016300070E080E084169506A606B70640F476951D
:101640006795579547958F5F8630A1F787E0982F6C
:10165000906A9695809581709CBD8DBD60E08F2DC0
:101660000E949503DEBC00000DB407FEFDCF8EB5D1
:101670000C0F1D1FC017D10771F080E0E11001C0F1
:1016800088818EBD00000DB407FEFDCF8EB5E11040
:1016900088832196EFCF61E08F2DDF91CF911F914D
:1016A0000F91FF90EF90DF90BF90AF909F908F9041
:1016B0000C949503CF93DF931F92CDB7DEB721E053
:1016C00041E050E0BE016F5F7F4F0E94F10A8981C7
:1016D0000F90DF91CF910895CF93DF931F92CDB7F5
:1016E000DEB7698320E041E050E0BE016F5F7F4FCD
:1016F00080680E94F10A0F90DF91CF910895CF93F7
:10170000C82F62E082E00E946C0B60E883E00E94D8
:101710006C0B61E084E00E946C0B69E985E00E943B
:101720006C0B62E187E20E946C0B60EDC11168ED09
:1017300080E30E946C0B60E481E30E946C0B61EC1F
:1017400088E20E946C0B64E989E20E946C0B61ECF8
:101750008AE2CF910C946C0B0F931F93CF93DF937E
:10176000C0916D04C4310CF040C0CE30CCF1C23118
:101770000CF0C1E161E08091BB039091BC0300914A
:101780002604109127042091280430912904DC01BB
:10179000ED91FC910084F185E02D4C2F099581306D
:1017A00059F18230E1F1CF301CF5CC301CF1C0672B
:1017B000D7E014E06C2F89E00E946C0B8DE40E944E
:1017C0005A0B887F682F612B8DE40E946C0B6D2F64
:1017D00060628BE0DF91CF911F910F910C946C0BA5
:1017E000CC3F0CF4CCEF60E0C6CF62E0C4E1C3CFE5
:1017F000CEE0DDCFCC5FDCCF80915E04877011F44A
:10180000CB305CF0C2302CF4C2E0C250C068DBE0E8
:10181000D0CFC231D4F3C1E1F8CFCBE0F6CFD0E1E5
:1018200017E0CFE8C7CFAF92BF92CF92DF92EF928F
:10183000FF920F931F93CF93DF9380912604909193
:101840002704A0912804B09129049C01AD0160E017
:1018500070E080E090E003E10E947029A12CE8E4B0
:10186000BE2EF8EECF2EDD24D394E12CF12C00E037
:1018700010E00E94DC28C22FB32E6A017B01182FD2
:10188000D92F00E10E948B29622F86E00E946C0B09
:101890002C2F3B2DA601B701812F9D2F08E00E9420
:1018A0008B29622F87E00E946C0B6C2F88E0DF9100
:1018B000CF911F910F91FF90EF90DF90CF90BF904D
:1018C000AF900C946C0B1F93CF93DF9360915E04E9
:1018D00070915F04162F1770CB0133E096958795B2
:1018E0003A95E1F7D82FD370D13059F008F466C09B
:1018F000D23009F465C066EC71E081E991E00E94A4
:10190000CA05C0E8CB0125E0969587952A95E1F7B1
:101910008370823009F458C0833009F457C0813095
:1019200009F450C0C260672F77276115710521F057
:10193000C16082E20E946C0B6C2F8DE10E946C0BE7
:1019400060916A04637060598FEF810F8295807F88
:10195000680F80915E0487FF64608EE10E946C0BCB
:101960008BEF810F823010F4DD2391F1163011F4EA
:10197000D13071F164E086E20E946C0BC0E063E05C
:10198000D23081F48091260490912704A0912804FC
:10199000B0912904CFE781349D4DAA44BF4108F09E
:1019A000C4E662E086E30E946C0BCC2399F06C2FB6
:1019B0008AE3DF91CF911F910C946C0BC0E7A2CF0B
:1019C000C0E9A0CFC460AFCFC660ADCFC860ABCF19
:1019D0006CE0D1CFDF91CF911F910895CF93DF932A
:1019E000D82FC82FC77019F081E00E94A0076D2F73
:1019F00081E00E946C0BC11105C080E0DF91CF91A6
:101A00000C94A007DF91CF910895809126049091C6
:101A10002704A0912804B091290481349D4DAA4443
:101A2000BF4118F488E00C94EE0C80E0FCCF80916C
:101A3000260490912704A0912804B09129048134B0
:101A40009D4DAA44BF4118F488E80C94EE0C80E840
:101A5000FCCFCF93C82F81E00E945A0B887F8C2B3C
:101A6000CF910C94EE0CCF92DF92EF92FF92CF9336
:101A7000DF93D82F0E94170D81E00E945A0B87FD3B
:101A800006C06FE973E081E991E00E94CA0581E038
:101A90000E94290DD23009F07CC06AE08DE10E94DD
:101AA0006C0B60E78EE10E946C0B63E28CE00E949D
:101AB0006C0B60E483E20E946C0B809133058823F9
:101AC00009F46CC083E30E945A0B682F6F7B83E399
:101AD0000E946C0B80915E0490915F0423E09695C8
:101AE00087952A95E1F7C82FC37081E30E945A0BAE
:101AF0008877682F6360C23008F056C081E30E9487
:101B00006C0B60E48FE20E946C0B60E480E30E9447
:101B10006C0B609169048FE10E946C0B64E389E3B4
:101B20000E946C0B6CE080E40E946C0B6FEF82E112
:101B30000E946C0BED2FF0E0E857FD4F649160952B
:101B400081E10E946C0B80E00E94CA0760E08DE09A
:101B50000E946C0B60E08FE00E946C0BD11128C0DA
:101B600060911E0470911F048091200490912104C3
:101B70000E9456076B017C0186E00E94290DC70177
:101B8000B601DF91CF91FF90EF90DF90CF900C9452
:101B90004B040E94630C0E94130C87CF83E30E94C6
:101BA0005A0B682F606493CF682F636881E3AFCFCF
:101BB00085E0DF91CF91FF90EF90DF90CF900C9474
:101BC000290DCF92DF92EF92FF92CF93C82F81E041
:101BD0000E945A0B87706FE274E0C1F480915E043A
:101BE000877009F060C0C13041F41092F204809116
:101BF0000C0490910D040E94BF060E94050D81E027
:101C00000E945A0B87FF06C068E074E081E991E00A
:101C10000E94CA0581E00E94290D0E94130C63E214
:101C20008CE00E946C0B6EE18DE00E946C0B6BE00F
:101C300082E10E946C0B62E183E10E946C0B6AEA14
:101C40008FE10E946C0B6FEF81E20E946C0B81E0D0
:101C50000E947F0B68E380E40E946C0B80E00E948E
:101C6000CA07C11118C060911E0470911F048091B1
:101C70002004909121040E9456076B017C0185E0AD
:101C80000E94290DC701B601CF91FF90EF90DF9020
:101C9000CF900C944B0485E0CF91FF90EF90DF90B4
:101CA000CF900C94290D8C2FCF91FF90EF90DF9067
:101CB000CF900C94330D8FEF9FEF9093430480935C
:101CC0004204909345048093440490934704809386
:101CD000460490934904809348048FEF90E09093DA
:101CE0004B0480934A04EEE4F4E08CE0DF011D92A3
:101CF0008A95E9F780E690E090935B0480935A041C
:101D00008FEF80936F0408956F927F928F929F92CE
:101D1000AF92BF92CF92DF92EF92FF920F931F93F9
:101D2000CF93DF93CDB7DEB760970FB6F894DEBFE1
:101D30000FBECDBF7B018A01282F30E0277F2230E4
:101D4000310549F02430310509F4CBC0232B09F0CB
:101D50009FC0D12C98C083FD32C087E893E00E94D9
:101D6000E20890E1692EFE0131966F0127E9822E8B
:101D700023E0922E37E8732E0115110509F060C09B
:101D800060918703709188038091890390918A0301
:101D90000E94782860960FB6F894DEBF0FBECDBFC4
:101DA000DF91CF911F910F91FF90EF90DF90CF9037
:101DB000BF90AF909F908F907F906F900895E7E8CD
:101DC000F3E080E1DF011D928A95E9F7CACF0115A2
:101DD0001105E9F5E62FF0E0E957FC4F80818058C6
:101DE000808311E0D601E62D1D92EA95E9F7C60140
:101DF0000E94E2080981C6010E94340207FF03C065
:101E000088898725888B112349F01981C6010E9492
:101E1000340217FF03C088898725888BF601D50116
:101E20008D915D019191119789278C938A149B0460
:101E3000B1F710E000E087E893E00E94E2089CCF51
:101E400087E8A82E83E0B82ED701950160E0F9015C
:101E500081919F019D91AF01415051098927FA015C
:101E600080836F5F7D0101501109603109F0AFCFB0
:101E70000115110501F710E0B5CF8E0D9F1D0E94D1
:101E8000E208B0E1DB0E8D2D90E080179107A8F3FA
:101E900060E070E0CB017ECF80E1E7E8F3E0DE01B7
:101EA000119601900D928A95E1F7CE0101960E945C
:101EB000E208FE0131969701205F3F4F9191D701D3
:101EC0008C9189278D937D0101501109A217B307C9
:101ED00019F00115110591F7809196038F5F80939A
:101EE000960301151105C1F6D3CF90919C03911172
:101EF00006C062E974E081E991E00E94CA05903170
:101F000041F440E150E06CE973E080E00E94840E0F
:101F100090E0E92FF0E0E456FC4F80819F5F9093C2
:101F20009C030895DF92EF92FF920F931F93CF933C
:101F3000DF936FE270E0009729F08136910530F071
:101F400061E370E08EED91E00E94CA05C0916F04DC
:101F5000D0E0CF3F11F4CFEFDFEFE2E4F4E02EE486
:101F600034E0DF0132961C968D919C911D974D9126
:101F70005C9184239523938782872E173F0789F7E7
:101F800066E070E08EE494E00E94ED047C01892B11
:101F900009F08FC08CE0E2E4F4E0AEE4B4E001903C
:101FA0000D928A95E1F766E070E08EE494E00E947D
:101FB000ED047C01009709F4DDC0419708F479C075
:101FC00010E000E0CF3FDC0751F1C136D1050CF045
:101FD00070C09E012F70332781E090E002C0880F0F
:101FE000991F2A95E2F7FE0144E0F595E7954A9599
:101FF000E1F7EE0FFF1FE25BFB4F208131818C0187
:1020000002231323809590958223932391838083C9
:102010000115110509F44FC070E1E71AF1080E949B
:10202000750FD82E0E94750F9D2DB70124E076956F
:1020300067952A95E1F70E941D2834E0880F991FC3
:102040003A95E1F7EEE4F4E070E060E0219131913F
:102050002115310559F1A9015695479545755575D5
:10206000D901A41BB50BAD0143735373B695A79566
:10207000B695A795A373B3734A0F5B1FDA01A07FD0
:10208000B07F4F705F7042955295507F5427407FCC
:1020900054274A0F5B1FDA01BB27452F55274A0FEC
:1020A0005B1F8417950780F0841B950B605F7F4F43
:1020B000CDCF10E000E0CFEFDFEFB1CFA90141506D
:1020C00051092423352340970097C1F7442755270A
:1020D000421B530B42235323CA018575957521E09A
:1020E00030E0892B11F030E020E0CA018373937354
:1020F000892B09F447C090E080E0820F931F9A017A
:102100002F703F70232B09F440C030E020E0820F95
:10211000931F30E020E0411102C028E030E0820F40
:10212000931F860F971FFC0144E0F695E7954A95AB
:10213000E1F7EE0FFF1FE25BFB4FAC014F7055273D
:1021400021E030E0B90102C0660F771F4A95E2F73F
:10215000AB01208131812627352731832083CF3F72
:10216000DC07B1F497FD06C0803491050CF4885F5C
:1021700080936F04DF91CF911F910F91FF90EF90AB
:10218000DF90089582E090E0B8CF24E030E0BFCF48
:1021900024E0D595C7952A95E1F7CC0FDD1FC25BEA
:1021A000DB4F28813981022B132B19830883DACF67
:1021B0008091320490913304A0913404B09135049D
:1021C000892B8A2B8B2B09F04BC080916004909156
:1021D0006104109270048E7C977A909361048093CE
:1021E00060041092EF04109276040E947D058FEF38
:1021F00080936F0480915A0490915B040E94920F27
:102200000E94130660931A0470931B0480931C04AD
:1022100090931D04809160049091610493FF06C027
:1022200064ED70E08EED91E00E94CA051092740496
:10223000E091E904EF3F91F0EF70F0E0E059FD4FDD
:10224000E491E0937304846090936104809360044C
:1022500084EA91E20E94BF0681E00895E3E1F1CFB4
:1022600080E00895CF92DF92EF92FF92CF93C82F34
:102270000E94750FF82E0E94750F9F2D6C018532FC
:1022800024EF920720F024E2C21A24EFD20AF12CA4
:10229000E12CCC2369F06C2F0E941128292F30E00B
:1022A000A4E2B4EF0E947F28C60ED71EE81EF91ED6
:1022B000C701B601CF91FF90EF90DF90CF900895C6
:1022C000CF92DF92EF92FF926B017C01842F442327
:1022D00031F00E943211C60ED71EE81EF91E809101
:1022E00070048823A9F080912A0490912B04A09176
:1022F0002C04B0912D04A7019601281B390B4A0B21
:102300005B0BDA01C901181619061A061B068CF4B4
:10231000C0922A04D0922B04E0922C04F0922D0457
:102320008091600490916104916090936104809326
:102330006004FF90EF90DF90CF900895AF92BF922E
:10234000CF92DF92EF920F931F93CF93DF93DC0135
:102350001A141B04A4F590E1E7E8F3E0EF01892FDC
:1023600019928A95E9F7F1E0F0939603F0938703C9
:10237000E0928C0340938D0350938E0360938F0300
:10238000709390030093910310939203209393030F
:1023900030939403FD01A7EDB3E001900D929A955F
:1023A000E1F7A501B60184E0DF91CF911F910F9174
:1023B000EF90DF90CF90BF90AF900C94840EDF91A0
:1023C000CF911F910F91EF90DF90CF90BF90AF9082
:1023D00008951F93CF93DF93CDB7DEB72F970FB636
:1023E000F894DEBF0FBECDBF80E00E94290D0E9491
:1023F000C3058091080490910904A0910A04B0914A
:102400000B04892B8A2B8B2B09F047C087E395E0BF
:1024100066E074E00E9474040E9437068FE0E7EFE4
:10242000F3E0DE01119601900D928A95E1F7E7EF56
:10243000F3E08EE391E0DF019C011D9221503040DA
:10244000E1F78FE0FE013196A7EFB3E001900D9226
:102450008A95E1F70E94750F182F0E94750F912F32
:10246000909363048093620410926104109260045C
:102470001092750480E88093E7040E947D0581E056
:102480008093E4042F960FB6F894DEBF0FBECDBF45
:10249000DF91CF911F910C945B0E85E395E0B8CF4F
:1024A0002F923F924F925F926F927F928F929F9264
:1024B000AF92BF92CF92DF92EF92FF920F931F9352
:1024C000CF93DF93CDB7DEB76C970FB6F894DEBF2E
:1024D0000FBECDBF998F888F3B011092B004452B62
:1024E00009F51092B104F12CE12CE614F704F4F094
:1024F000C7016C960FB6F894DEBF0FBECDBFDF915B
:10250000CF911F910F91FF90EF90DF90CF90BF90F0
:10251000AF909F908F907F906F905F904F903F9083
:102520002F90089581E08093B104DDCFC88CD98CC1
:10253000CE0CDF1CF6012081223050F1422F425098
:10254000550BFA014231510518F5ED5DFD4FE4914F
:102550008E2F90E09D8B8C8B892B51F2C3018E19AD
:102560009F09EC89FD898E179F070CF4C1CF22507B
:10257000283080F4E22FF0E0E054FD4E0C947228F5
:10258000CB12D31296141F14F313CA128814A71473
:10259000E0E0DECF3701EC89FD89EE0DFF1D730110
:1025A00037017F01A2CFD60107E01B8A1A8A2A8948
:1025B0003B892B5F3F4F49019C014A895B89241B62
:1025C000350B253031050CF493C011962C911197E1
:1025D00012964D915C91139714963C911497307715
:1025E000E22FE295EF70303558F0303509F078C0C1
:1025F0004115510509F47AC04427452B09F076C0EE
:10260000E63030F4F0E0EF57FD4FE491EF3F09F48E
:102610000D7F2F70283038F4E22FF0E0EE59FD4F97
:10262000E491E03809F40B7F15962C91233009F4DE
:1026300054C08CE0E2E4F4E0DE01119601900D92CA
:102640008A95E1F780915A0490915B049B8F8A8F61
:10265000412C10E0073009F077C09F8A8E8A16015E
:1026600081E0412C10E0EE89FF8935970CF469C0B8
:10267000F101A280B38011814480F42DF077F98BB1
:10268000F035D9F5512C852DA0FE34C00E94F405FB
:102690005394B694A79428E05212F5CF20915A048F
:1026A00030915B044E895F89455051095F8B4E8B99
:1026B00055E0250E311C81E02115310509F480E03B
:1026C000A1014C195D09481559056CF2232BD9F16C
:1026D000A12EA2948FE0A8223DC09B8A8A8A67CF50
:1026E000303609F489CF303709F482CF0E7F88CF96
:1026F00000E09FCF0E94CD05CBCF8989803578F44B
:10270000805F8C8F5988FC8D5F1640F6852DA0FE6A
:1027100015C00E948B045394B694A794F4CF512C07
:102720009989852D903639F40E948B045394E0E604
:102730005E12F6CFE8CF0E94BB04F8CF0E94BB0424
:10274000EACF811101C006E0A12EA2947FE0A7226A
:10275000073041F480915A0490915B0407E0079799
:1027600080F405E08CE0FE013196A2E4B4E0019033
:102770000D928A95E1F72A8D3B8D30935B0420936F
:102780005A04BB24B394D12CC12CC4018C199D09CB
:1027900005976CF0602F83E00E946705B82E35E046
:1027A000C30ED11CC814D90414F48111EECF073024
:1027B00099F4842D8F709091720489138093720420
:1027C0001F7060E8183028F4E12FF0E0EE59FD4F5B
:1027D00064918A2D0E941F054A895B89E40EF51ECB
:1027E000BB2001F1D8CE20916804022E000C330BDF
:1027F000C901029697FD03969595879595958795BE
:10280000182F1F734F970CF01FE11093E604D09020
:1028100005040091B00486E00E944805811104C0BF
:102820000093B004F701BCCE8D2D0E94480588238B
:10283000B9F3812F0E944805882391F3ACCEC701DC
:102840000196E88DF98D8E0F9F1FFC012081122FBC
:102850001F7030E044E0359527954A95E1F7022F47
:1028600007700E94B505272F382F492F5527A4E65A
:10287000B0E00E9495284B015C01F0E88F1AF1EA64
:102880009F0AF3E0AF0AFCE1BF0A21E082162AE5C5
:10289000920622E6A20622E0B20618F060E070E09E
:1028A000CB0130EC3093EC04163050F4E12FF0E023
:1028B000EF57FD4FE491EF3F19F042EC4093EC04E9
:1028C000611571058105910529F02091EC042160C5
:1028D0002093EC04043028F42091EC04246020932D
:1028E000EC042091EC04273C61F41093EB0460931A
:1028F0003E0470933F0480934004909341040093FE
:10290000EA04622F677085E00E946705B82E68CFE1
:10291000F60181818F7009F481E08093E404F2E094
:10292000F093EE0488E00E944805F0CFF601818123
:102930008F70809370040E94130660932A04709332
:102940002B0480932C0490932D0484E0ECCFF601AB
:1029500081818F738093E90489E0E5CF2F923F92C4
:102960004F925F926F927F928F929F92AF92BF929F
:10297000CF92DF92EF92FF920F931F93CF93DF934B
:10298000CDB7DEB72A970FB6F894DEBF0FBECDBF26
:102990008C010E9413066B017C014AE0F7FE0DC01A
:1029A0006DE289E395E00E94E40266277727CB0178
:1029B0006C197D098E099F094AE00E9432088FEF49
:1029C00092E00E941708F8013197E431F10508F010
:1029D00030C3E351FB4E0C94722801151D152015D0
:1029E00023152615291519182C152F153215A6157E
:1029F000A915AC15AF15B2151918B5151318FA1796
:102A0000161882EE91E02A960FB6F894DEBF0FBE3C
:102A1000CDBFDF91CF911F910F91FF90EF90DF908D
:102A2000CF90BF90AF909F908F907F906F905F906E
:102A30004F903F902F900C94240882ED91E0E3CFCB
:102A400081EC91E0E0CF8FEA91E0DDCF84EA91E084
:102A5000DACF8AE991E0D7CF8BE891E0D4CF8AE74B
:102A600091E0D1CF8AE491E00E9424088091F004A3
:102A700087FF04C08DE391E00E9424088091F20456
:102A80008823F1F183E391E00E9431036091F20425
:102A900070E090E080E04AE00E9432088FE191E02F
:102AA0000E94310383EF90E00E9431031A82198261
:102AB0008091F20429813A8182171306C9F0C4F08B
:102AC000E091F104C90189509C4FE80FF92FF11DE5
:102AD000E450FF4F608170E090E080E040E10E94B0
:102AE000320849815A814F5F5F4F5A834983E0CF53
:102AF0008FE891E00E9417088EE891E00E94170885
:102B00000E941306AB01BC0148595647664F7F4FE0
:102B10002AE13EE18DEB93E02A960FB6F894DEBFF2
:102B20000FBECDBFDF91CF911F910F91FF90EF901E
:102B3000DF90CF90BF90AF909F908F907F906F90DD
:102B40005F904F903F902F900C94FE0685EE90E0A2
:102B50005ACF8CED90E057CF8EEC90E054CF81ECC3
:102B600090E051CF83EB90E04ECF88EA90E00E9456
:102B70002408A090F204AA2009F43CC2C0905E048C
:102B8000D0905F040C2D07700A5F960143E03695E4
:102B900027954A95E1F72370C60155E096958795EC
:102BA0005A95E1F7837080907304E0903A04F090B6
:102BB0003B0451E0E51AF10815E0882339F016E0EE
:102BC000813021F017E0823009F018E0222309F467
:102BD0006EC084EFB82E99249394213019F42AEF13
:102BE000B22E912CC0902604709027046090280487
:102BF000509029040E9413061F92DF92FF92EF92D9
:102C00001F921F939F92BF921F928F921F920F93BA
:102C10001F92AF925F926F927F92CF929F938F930A
:102C20007F936F9382E392E09F938F930E94B829E2
:102C3000109172040E9413061F921F939F938F930B
:102C40007F936F938FE792E09F938F930E94B829B1
:102C50000FB6F894DEBF0FBECDBF80917B041F92EC
:102C60008F9388E992E09F938F930E94B8290F90E9
:102C70000F900F900F9010E000E080917B04801780
:102C80001106C1F0BCF0E091F104C80189509C4FDD
:102C9000E80FF92FF11DEB57FF4F608170E090E0D6
:102CA00080E040E10E9432080F5F1F4FE6CF9DE7B2
:102CB000B92E97CF8EE891E00E9417088091F20418
:102CC0001F928F9383EE92E09F938F930E94B82977
:102CD0000F900F900F900F9010E000E08091F204A1
:102CE00080171106A9F0A4F0E091F104C801895001
:102CF0009C4FE80FF92FF11DE450FF4F608170E009
:102D000090E080E040E10E9432080F5F1F4FE6CF65
:102D10008EE891E00E9417082091F20483EF94E07E
:102D20009C838B8390E080E01A821982E22FF0E08E
:102D3000F887EF832F81388549815A8142175307DD
:102D40000CF048C1EB81FC812191FC83EB83022EC6
:102D5000000C330B6C014CE0D594C7944A95E1F715
:102D6000A92FBB27A7FDBA95AC25BD253D0162263D
:102D70007326F1E06F2277247C016DE0F594E794EF
:102D80006A95E1F75C01AB2CBB0CBB08A594AE24A3
:102D9000BF244901959487948A249B24880C991C0C
:102DA00042E084229924862897288C01110F000B79
:102DB000110F102F001F2C01452C550C5508459460
:102DC000459440265126F901F595E795F595E79547
:102DD000E425F525EE0FFF1FEE0FFF1FE470FF2720
:102DE000E80DF91D592F551F5527551F59871A866C
:102DF0001C014BE0359427944A95E1F723FB6627A5
:102E000060F96D831E82A1014170552769857A851D
:102E1000462757276D817E814627572763E0440F59
:102E2000551F6A95E1F74E0F5F1FB901E4E07595F4
:102E30006795EA95E1F76C257D25F4E0660F771F2D
:102E4000FA95E1F760717727460F571FF90165E0A2
:102E5000F595E7956A95E1F7BD016E257F256E270B
:102E60007F27E5E0660F771FEA95E1F76072772725
:102E7000640F751FA50140275127F901689415F8C3
:102E8000F595E7951694E1F74E275F27E6E0440FA6
:102E9000551FEA95E1F740745527640F751F4201ED
:102EA000E1E08E22992449855A8584269526222799
:102EB000330F221F3327282539253695322F222715
:102EC00037952795260F371FB1016827792761703D
:102ED000772764277527762F6627620F731F3C01BB
:102EE00075946794C624D724DC2CCC24DD0CCC2428
:102EF00052E0D5226C0D7D1DAC0155954795559539
:102F000047954E255F25542F4427550F550F4427CD
:102F10005470640F751FFC0123E0F595E7952A9521
:102F2000E1F7E027F127FE2FEE27FF0FFF0FFF0F3E
:102F3000EE27F8706E0F7F1F9C0144E035952795B2
:102F40004A95E1F7A227B327A170BB27E985FA8547
:102F5000AE27BF27BA2FAA27B295B07F6A0F7B1F73
:102F60009C01E5E035952795EA95E1F72A253B2573
:102F7000322F22273295330F307E22273072620F94
:102F8000731F9C01A6E035952795AA95E1F7422687
:102F90005326B0E44B9E502C442411244424F0E4E6
:102FA0005F22640D751D880F892F881F990B82255C
:102FB000932529853A858227932799278695979582
:102FC0008827860F971F49815A814F5F5F4F5A8329
:102FD0004983B0CE9F938F939F938F9382E093E02A
:102FE0009F938F930E94B8290F900F900F900F908E
:102FF0000F900F902A960FB6F894DEBF0FBECDBF8C
:10300000DF91CF911F910F91FF90EF90DF90CF90C4
:10301000BF90AF909F908F907F906F905F904F90F8
:103020003F902F9008958AE990E0EDCC88E790E0FA
:10303000EACC88E690E00E943103B80190E080E09D
:103040004AE00E9432088EE891E02A960FB6F89482
:10305000DEBF0FBECDBFDF91CF911F910F91FF90CB
:10306000EF90DF90CF90BF90AF909F908F907F9028
:103070006F905F904F903F902F900C941708CF92D5
:10308000DF92EF92FF92CF93DF93EC01C12CD12C12
:103090007601C3940C2E04C0CC0CDD1CEE1CFF1C6E
:1030A0000A94D2F7E3FC03C0CE010E94AE14D7010C
:1030B000C60188279472AA27BB27892B8A2B8B2BC2
:1030C00001F1E091FB03F091FC033097D1F02091E6
:1030D000F2044091F104211102C0442391F0809147
:1030E000F00450E060E084FF04C0DA01AE50BB4F52
:1030F0006C9130E04D505B4F8091FD039091FE0349
:103100000995CC2484E0D822E822FF24CD28CE28BB
:10311000CF2819F1E091FF03F09100043097E9F016
:10312000109200041092FF03C231D10541F1809149
:10313000F00483FD24C090917A0461E0992339F072
:10314000082E000C990B692F661F6627661F70E01A
:1031500080910104909102040995E091F703F091A8
:10316000F803309771F0BE018091F9039091FA0352
:10317000DF91CF91FF90EF90DF90CF90099460E0C6
:10318000E6CFDF91CF91FF90EF90DF90CF90089541
:103190002F923F924F925F926F927F928F929F9267
:1031A000AF92BF92CF92DF92EF92FF920F931F9355
:1031B000CF93DF93809166048111E6C481E0809310
:1031C000660487E8282E83E0382E90E1692E21ECF2
:1031D000422E2AE0522E3CED832E3AE0932E80912F
:1031E0006004909161049C01217C3327232B81F49E
:1031F000409132045091330460913404709135044D
:10320000452B462B472BF1F482FD28C00E94D81095
:10321000809166048150809366048111E0CFDF9134
:10322000CF911F910F91FF90EF90DF90CF90BF90C3
:10323000AF909F908F907F906F905F904F903F9056
:103240002F90089596FF0AC09F7B9093610480930E
:10325000600484E09EE10E94BF06DACF0E9413065C
:103260006B017C01C0916004D0916104CE018C732C
:103270009927892B09F47DC4D3FF4CC180915A044E
:1032800090915B04009711F00E94920FC0921A0473
:10329000D0921B04E0921C04F0921D048091600403
:1032A00090916104977F9093610480936004B701CB
:1032B000A60180917004811106C0809160049091F4
:1032C000610490FF12C080912A0490912B04A09178
:1032D0002C04B0912D048A019B01081B190B2A0BA9
:1032E0003B0B37FF02C0AC01BD0121E7C20E22E05B
:1032F000D21EE11CF11CDB01CA018C199D09AE092B
:10330000BF09B7FF22C470907404C472DD27CD2BAF
:1033100009F410C180916004C091760485FD07C155
:103320001092F304909162048091630490930405D9
:103330008093050543E150E063EF74E08AE00E946A
:10334000840E609309057093080580930705909398
:10335000060587E18093F2048091620490916304F2
:103360000196909363048093620490920D0480927E
:103370000C04E72DF0E0EF57FD4FE49180917504C8
:1033800040E2849FC0011124EF798E2B90935F045B
:1033900080935E0470926B0480916004909161044C
:1033A0008F76967F80689860909361048093600424
:1033B000A0916F04A03670F5B0E020E43DE043E05A
:1033C00050E00E9495288B019C01005A1A4C274F0F
:1033D000334E0036EFE91E07E0E22E07ECE13E0730
:1033E00008F08EC2605A764A8340934E609326045A
:1033F000709327048093280490932904E091E904B2
:10340000EF3F09F4FBC2EF70F0E0E059FD4FE491AB
:10341000E0936C049091730480916C0498170CF401
:10342000892F80936D0481E190E00E943F181092F3
:103430001A0410921B0410921C0410921D0481E0C7
:103440000E945A0B877059F080E00E94290D0E945B
:103450001306625C7F4F8F4F9F4F0E945607C090AC
:103460002204D0902304E0902404F09025041C143E
:103470001D041E041F040CF0C3C281E00E94330D22
:103480008091260490912704A0912804B0912904EA
:10349000C3E6DFEF81349D4DAA44BF4110F4CCE573
:1034A000DFEFE091D503F091D6038781C80FD11DDE
:1034B00087FDDA950E941306615E7F4F8F4F9F4F05
:1034C0000E9456070E94130610E0C60ED71EE81E83
:1034D000F91E8BE10E945A0B181708F4182F0E944E
:1034E00013066C197D098E099F0997FDF2CF80E0C4
:1034F0000E94290D80916E04082E000C990BC10FBB
:10350000D11DC817D9070CF47BC280910C0490918F
:103510000D04A1CE40911A0450911B0460911C042B
:1035200070911D04C6CE872D0E94E80A782EC150E6
:10353000D0F7F6CE8091360490913704A0913804EC
:10354000B091390480389F4FAF4FBF4F18F085E7D7
:103550009EE181CE8091EF0481110DC080913A04EB
:1035600090913B04A0913C04B0913D048F3F9F4F4C
:10357000AF4FBF4F61F3E0906004F090610488E1C9
:10358000E822FF2490E1E916F10409F451C1A0906A
:103590007B0480917904882309F44CC18091B104A3
:1035A000882309F447C1C090B004CC2009F442C17B
:1035B0000C2D10E0A80162EB74E08BEF94E00E9408
:1035C000AF29085F1F4F1092B0041092B1042091F0
:1035D000EC04222331F026FF30C180E42827209319
:1035E000EC042091ED04222331F026FF36C180E463
:1035F00028272093ED048091EE04823009F03DC12C
:1036000081E08093EE04093111050CF058C18091DE
:10361000E304882361F0809164049091650497FF2E
:1036200004C090E080E00E943C051092E304CA2DA3
:10363000D0E02596F0E1EF16F10411F4C4E0D0E0FB
:10364000C00FD11FC134D1050CF022C191E020E19F
:10365000E216F10409F490E0E0917404E63008F019
:103660001AC1F0E0E659FD4FE491EC171D0608F48D
:1036700026C180E48093F3048091E1044091E70443
:10368000482B209164043091650437FD06C1215216
:103690003109203B324008F400C120E488EF800F5C
:1036A000842B822B8093F8044091320430913304B0
:1036B00020913404809135044093F4043093F50450
:1036C0002093F6048093F7048091EF04811118C0D1
:1036D00020917704211114C040913A0450913B0489
:1036E00060913C0470913D044F5F5F4F6F4F7F4F7F
:1036F00040933A0450933B0460933C0470933D0420
:1037000020913A0430913B04215031092093F9046F
:103710003093FA041092E1049923D9F190917A043C
:10372000992309F4BCC090E89093F304811103C07D
:1037300081E08093EF04F801ED50FB4F8091790414
:103740008083C8018C509B4F6C01B12CA5016CE7A4
:1037500074E00E94AF2900913A0410913B0420913B
:103760003C0430913D040150110921093109409177
:103770003204509133046091340470913504809187
:103780007904811199C081EC94E0F12CE12C0E9424
:103790009E118E010450110980913A0490913B04CE
:1037A000A0913C04B0913D040197A109B109509149
:1037B0003204409133043091340420913504F101F6
:1037C000662D11926A95E9F7E9E4E0938703109278
:1037D0008C030093960350938D0340938E03309394
:1037E0008F03209390038093910390939203A0936F
:1037F0009303B0939403E1ECF4E0A7EDB3E0862DDE
:1038000001900D928A95E1F7A80163EF74E082E0E0
:103810000E94840EF801ED50FB4F63837283818315
:103820009083C093F20450920D0440920C04A1CDF9
:10383000A12CB4CE08E010E0C6CEC80189509C4F40
:10384000FC01E450FF4F35E0308383509F4F2770D9
:10385000FC0120830E5F1F4FC4CEC80189509C4FCE
:10386000FC01E450FF4F3AE0308383509F4F2370B8
:10387000FC0120830E5F1F4FBECE882309F4C3CE08
:10388000F801ED50FB4F88E080830F5F1F4FBBCEE8
:10389000E8012496E0CEE0E0E8CE20E0FFCE809183
:1038A0007204882309F447CF80917704811143CFB4
:1038B00081E0809377043FCF81ED94E066CF88E08C
:1038C0008093F00480917A04811104C08091EF0408
:1038D000882319F028E42093F004809160049091EB
:1038E000610487769E7F90936104809360041092B8
:1038F000F2041092F1048AE090E00E943F1888CC14
:103900000036F9E01F07F9E32F07FCE13F0728F431
:10391000605A70418C41934E69CD003643E71407DD
:1039200041E524074CE1340728F4605A7A47844380
:10393000934E5CCD0036EDED1E07E9E62E07ECE177
:103940003E0728F4605A744E8C44934E4FCD003697
:10395000F7E41F07F2E82F07FCE13F0728F4605A5D
:103960007E448546934E42CD003641EB14074AE92A
:1039700024074CE1340728F4605A784B8D47934E66
:1039800035CD0036EBE11E07E3EB2E07ECE13E07F9
:1039900028F4605A72428649934E28CD0036F5E8E5
:1039A0001F07FBEC2F07FCE13F0728F4605A7C4817
:1039B0008E4A934E1BCD00364FEE140743EE24077C
:1039C0004CE1340728F4605A764F864C934E0ECD66
:1039D0000036E9E51E07ECEF2E07ECE13E0728F480
:1039E000605A70468F4D934E01CD0093260410937C
:1039F0002704209328043093290400CDE3E108CD67
:103A000080915E04877009F06AC00E94050D81E014
:103A10000E94290D80E00E947F0B60E085E20E94F9
:103A20006C0B65E086E20E946C0B0E94130C0E94F6
:103A3000AC0B69E28AE00E946C0B64E380E40E94B4
:103A40006C0B6091F2046F5F82E30E946C0B6091DB
:103A5000F20480E00E946C0B4091F20450E020E000
:103A600063EF74E080E80E94F10A81E00E94CA07D7
:103A700060911A0470911B0480911C0490911D04A4
:103A8000611571058105910531F10E945607611597
:103A9000710581059105F9F0009114041091150448
:103AA0002091160430911704DC01CB01800F911F87
:103AB000A21FB31F8093140490931504A0931604BF
:103AC000B093170480911804909119040196909373
:103AD00019048093180483E00E94290D99CB0E9459
:103AE000170D81E00E945A0B87FD06C061E273E06A
:103AF00081E991E00E94CA0581E00E94290D0E949F
:103B0000630C0E94130C68E08AE00E946C0B0E9418
:103B1000AC0B64E389E30E946C0B6CE780E40E94C9
:103B20006C0B6FEF82E10E946C0B67EF81E10E94EA
:103B30006C0B60E08EE00E946C0B60E08DE00E94F8
:103B40006C0B6091F20482E285CF8091600481FF6A
:103B500005C0411551056105710589F04157524075
:103B60006109710928E13EE186E094E00E94FE06C9
:103B70004FCB40E050E0BA01C1FDF0CF49CB41E06E
:103B800050E060E070E0EACF82E08093660447CBCB
:103B9000809160049091610483FF35C010927B0492
:103BA00082FF2CC0877E909361048093600482E141
:103BB00090E00E943F1880916004909161048570AC
:103BC0009927892B01F50E94C305809108049091E3
:103BD0000904A0910A04B0910B04892B8A2B8B2B2A
:103BE00079F487E395E066E074E00E9474040E9433
:103BF000370680E00E94290D0C94C8188776D3CF31
:103C000085E395E0F0CF0895E0E6F4E080819181CE
:103C10008E7D9F7B918380831092320410923304B7
:103C200010923404109235040E94C81D0C94D810D0
:103C30000C94C818809160049091610487FF04C0BF
:103C400082EF91E00C9424088C799927892BE1F478
:103C50003091740440915A0450915B04832F90E09A
:103C60004730510588F0863078F4FC01E659FD4F65
:103C7000E491EE2349F0EA3190F5FC01EE57FD4F57
:103C8000E4910196EF3F61F78091600490916104A7
:103C90009C012C793327232BF9F42DE0E0E0F1E0AF
:103CA000ACE7B4E001900D922A95E1F710927A0406
:103CB00021E0209379042DE020937B049C0128606F
:103CC000309361042093600482FD04C01092EF04DD
:103CD000109277040E94C8188BE092E0B3CF381797
:103CE00099F260E80E941F05CFCF0E94C81D0E9474
:103CF000E9118CE090E00E943F180C94D810CF930B
:103D0000809160049091610487779093610480931F
:103D10006004109277041092EF042091B0042223E3
:103D200051F03091B104332309F466C0806190935F
:103D30006104809360040E9413066E5E75488F4F85
:103D40009F4F40E00E9460118091F004877079F0ED
:103D5000809160049091610494FF09C09F7E9093CC
:103D60006104809360048FE090E00E943F188AE035
:103D700090E00E943F180E94C818809164049091BE
:103D800065048197B4F1809174040E94E80AC82FF9
:103D900020915A0430915B048091740427303105DE
:103DA00008F4C82F8C1332C080916404909165048C
:103DB000813F92404CF08091600490916104906446
:103DC000909361048093600463E18C2F0E941F052F
:103DD00080916004909161049C0130613093610492
:103DE000209360042817390721F08EE090E00E94AC
:103DF0003F1881E0CF91089510927A0410927904CF
:103E000020937B041092B004886091CFCC23E1F220
:103E100090E080E00E943C05D7CF8091EF0488239A
:103E2000B1F1883020F58F5F8093EF0480FF07C0E9
:103E3000809174040E94E80A60E80E941F05609166
:103E40001E0470911F04809120049091210443E08E
:103E50000E94601180916004909161048F7790932B
:103E60006104809360040E94C81881E0089580E690
:103E70008093F004809164049091650401960E94FF
:103E80003C051092F2041092F1040C947F1E809174
:103E90007704882379F090917204891758F48F5F22
:103EA000809377040E9413066E5E75488F4F9F4F74
:103EB00040E0CECF80E2DCCF2F923F924F925F92D4
:103EC0006F927F928F929F92AF92BF92CF92DF922A
:103ED000EF92FF920F931F93CF93DF9300D000D008
:103EE00000D0CDB7DEB78091600487FFE5C1F090C8
:103EF000F204F1101AC026960FB6F894DEBF0FBE7A
:103F0000CDBFDF91CF911F910F91FF90EF90DF9088
:103F1000CF90BF90AF909F908F907F906F905F9069
:103F20004F903F902F900C940D1F2F2D30E03E832B
:103F30002D832C30310544F41092F2048091F0046A
:103F400080FFD9CF80E0B9C18091F304982F93709E
:103F500099F7807E8983803611F0803A69F784EF83
:103F600094E00E94B5050091320410913304209131
:103F70003404309135046017710782079307E1F626
:103F80003091F8043B833F70E32EC32ED12C1601F1
:103F9000A8E02A0E311C2D813E81245031093E8338
:103FA0002D832215330544F288248A94982C2216F6
:103FB00033064CF4F101ED50FB4F2081822E912C01
:103FC000D60119961D014090360450903704609038
:103FD0003804709039040091F9041091FA0404191E
:103FE00015090F3F100709F078C021E0421A510867
:103FF0006108710820E1E7E8F3E0DF01322F1D924C
:104000003A95E9F739E43093870331E030938C0334
:10401000ACEFAF0DAC83A093960360938D037093C8
:104020008E0380938F03909390034092910350925C
:1040300092036092930370929403E1ECF4E0A7ED95
:10404000B3E001900D922A95E1F74D815E8163EF17
:1040500074E082E00E94840E9B01AC01ED81FE8140
:10406000ED50FB4F60817181828193810E9478289D
:10407000261737074807590709F05ECF80913604A5
:1040800090913704A0913804B0913904481659062C
:104090006A067B0638F584159505A605B7050CF468
:1040A0004BCF0197A109B109481659066A067B064C
:1040B00009F042CF8091E204882309F43DCFB98111
:1040C000B03A09F039CF80E28093E1048114910481
:1040D00009F40CC101E010E033C0400E511E611C18
:1040E000711C88CF0130104408F026CFD301C201E3
:1040F0000196A11DB11D8093360490933704A093BF
:104100003804B0933904398180E2303A09F080E014
:104110008093E2048093E10410E000E081149104B4
:1041200041F4EE2031F08D819E81281639060CF481
:1041300003CF8091E104811103C09B8194FF09C0EA
:1041400080916004909161048061909361048093F8
:104150006004109276041092E30480EC9FEF0E94BA
:104160003C051092EC041092EE04E0915E04F09194
:104170005F048E2F877033E0F695E7953A95E1F767
:10418000E370F0E0A3E08A9FE00DF11D1124E35BF2
:10419000FD4FE49180916704082E000C990B805428
:1041A0009109ED58FF0B8E1B9F0B97FD80E08093CC
:1041B000E504A401B6018BEF94E00E945012012B9C
:1041C00009F0BACEBFEF8B169B0699F12D813E8187
:1041D000221933093E832D831216130654F5C101AB
:1041E0008D509B4F9A8389834091320450913304C0
:1041F000609134047091350481EC94E08114910451
:1042000011F081ED94E0AD80BE80C980DA80EE24AB
:10421000E394F12C930182010E949E118114910478
:1042200041F450E040E06D817E8189819A810E9455
:1042300050129091EF04992349F0AB8120E8A5FF3B
:1042400020E48091F004822B8093F0048091F004AC
:10425000181419043CF180628093F0042092F10458
:104260001092F204992321F08091F00486FD43CE50
:1042700026960FB6F894DEBF0FBECDBFDF91CF916B
:104280001F910F91FF90EF90DF90CF90BF90AF9074
:104290009F908F907F906F905F904F903F902F9066
:1042A0000C947F1E80618093F0042092F104FC80C6
:1042B000F218F092F204D6CF81E026960FB6F89469
:1042C000DEBF0FBECDBFDF91CF911F910F91FF9049
:1042D000EF90DF90CF90BF90AF909F908F907F90A6
:1042E0006F905F904F903F902F900895EE2009F4CB
:1042F000F1CE01E010E017CF8091F20481110EC0E1
:10430000A091E404B0E0119624E234EF0E948E28DC
:104310002091EB044CEA53E20C94180A0E945C1FB3
:10432000882371F308958091F20481110BC01092DB
:10433000F0040E941306655E78448F4F9F4F42E061
:104340000E9460110C945C1F80917804882341F0D6
:104350000E945B0E85E090E00E943F180C94C81804
:1043600081E080937804F6CFCF92DF92EF92FF92B4
:10437000CF93DF93809160049091610482FD22C00D
:1043800085FD0DC08F77909361048093600481E078
:10439000DF91CF91FF90EF90DF90CF9008958F75D0
:1043A0009093610480936004809176048A3018F4BD
:1043B0008F5F8093760489E090E00E943F180E940E
:1043C000C818E5CF8F77909361048093600484E1EF
:1043D00090E00E943F188091710480936F04809157
:1043E0005A0490915B040E94920F8091EF048F5FBA
:1043F0008093EF04C82FC7701092740480916004FA
:1044000090916104977F90936104809360040E946F
:1044100013066B017C012091740480E190E002C0DE
:10442000959587952A95E2F70E943211C60ED71E00
:10443000E81EF91EC0921A04D0921B04E0921C04DC
:10444000F0921D04C12CD12C7601C394CC2399F099
:10445000C12CD12C7601C8E1DEE10E941306AB012C
:10446000BC014C0D5D1D6E1D7F1D9E0186E094E01C
:104470000E94FE068CCFCDE7D3E2EFCF8091F0040F
:1044800080FF0C94B42180E00895CF92DF92EF92E8
:10449000FF920F931F93CF93DF938091F00480FFDF
:1044A00005C08091F204882309F402C18091600460
:1044B0009091610487FFE6C084729927892B51F49B
:1044C000DF91CF911F910F91FF90EF90DF90CF90F0
:1044D0000C943E221091F20411110AC0DF91CF9189
:1044E0001F910F91FF90EF90DF90CF900C94B4212B
:1044F000113111F0113221F78091F304837E803263
:10450000F9F6C12FD0E0AE014150510964EF74E0DB
:1045100080E00E94840E2497AE0163EF74E08AE08D
:104520000E94840E6B017C01CD50DB4F6881798144
:104530008A819B810E947828C616D706E806F9066C
:1045400009F0BECF8AEF94E00E94B5056093320473
:1045500070933304809334049093350487EF94E090
:104560000E94B505992760932E0470932F048093C1
:104570003004909331041132D1F480910F058130D1
:10458000B1F490E0E92E95E0F92EC0E0D701119644
:104590000C9111978C91102F082FD0E1DC0FDC13B8
:1045A00073C0B2E0EB0EF11CCD2FD03679F78091BD
:1045B0006204909163040197E9ECF4E028E0DF01E4
:1045C0001D922A95E9F721E02093C10426E0E4EF4B
:1045D000F4E0A2ECB4E001900D922A95E1F780930B
:1045E000C8049093C90480E1E1ECF4E0A1EDB4E0EB
:1045F00001900D928A95E1F782E08093D10440E129
:1046000050E061EC74E080E00E94840E40E150E0F4
:1046100061ED74E080E00E94840E8091600485FF6B
:1046200008C0C091760480917404C150E0F5809375
:104630007404809160049091610489759D7F9860F5
:1046400090936104809360041092EF040E9491059E
:1046500080EC9FEF0E943C058091FE04982F9F7094
:104660009093EB04829587708093EA048091FF0415
:104670008823E1F08093E40486E090E00E943F18F4
:104680000E94C81881E015C0C03609F48ACF8C2F6B
:1046900000FF06C00E948B04CF5F169507957FCF61
:1046A0000E94BB04F9CF0E94E80ABFCF81E0E2CFAD
:1046B00080E0DF91CF911F910F91FF90EF90DF90FD
:1046C000CF9008958091F20481110AC02091EB04EB
:1046D00044EB53E268ED78EB85E090E00C94180A27
:1046E0000E944522882391F308958091F20481115C
:1046F00002C01092F0040C94452288E090E00E94E1
:104700003F180C94C81882E08093F004E091EB0409
:10471000F0E0EF57FD4FE491F0E0EF77E068F093C1
:104720005F04E0935E0480913E0490913F04A09169
:104730004004B09141048093260490932704A093F1
:104740002804B09329041092F20483E190E00E94BF
:104750003F1880E00C94E10D83E991E290930D0401
:1047600080930C040C94832385E793E290930D04CB
:1047700080930C040C94832321E02093F004EEE555
:10478000F4E0208131812068318320831092F2048B
:1047900090930D0480930C0483E190E00E943F18F5
:1047A00080E00C94E10D8CE791E20C94BC2382E64E
:1047B00093E20C94BC231F920F920FB60F92112418
:1047C0002F933F934F935F936F937F938F939F9319
:1047D000AF93BF93EF93FF9389E395E00E94C202EA
:1047E000FF91EF91BF91AF919F918F917F916F91C9
:1047F0005F914F913F912F910F900FBE0F901F909F
:1048000018951F920F920FB60F9211242F938F932A
:104810009F93EF93FF93E0914905F0914A058081C2
:10482000E0914F05F091500582FD1BC09081809171
:1048300052058F5F8F7320915305821741F0E091ED
:104840005205F0E0E75CFA4F958F80935205FF9197
:10485000EF919F918F912F910F900FBE0F901F900E
:1048600018958081F4CF1F920F920FB60F921124EA
:104870002F933F938F939F93AF93BF938091C503E3
:104880009091C603A091C703B091C80330919703DC
:1048900023E0230F2D3758F50196A11DB11D20935C
:1048A00097038093C5039093C603A093C703B09367
:1048B000C8038091980390919903A0919A03B091B5
:1048C0009B030196A11DB11D8093980390939903BA
:1048D000A0939A03B0939B03BF91AF919F918F9147
:1048E0003F912F910F900FBE0F901F90189526E8C3
:1048F000230F0296A11DB11DD2CFE9E3F5E013828B
:10490000128288EE93E0A0E0B0E084839583A683D2
:10491000B78380E291E09183808385EC90E0958776
:10492000848784EC90E09787868780EC90E0918B79
:10493000808B81EC90E0938B828B82EC90E0958B66
:10494000848B86EC90E0978B868B118E128E138E63
:10495000148E82E391E09093D7058093D605089555
:10496000CF93DF93CDB7DEB7A0970FB6F894DEBF35
:104970000FBECDBF789484B5826084BD84B581605C
:1049800084BD85B5826085BD85B5816085BD80911A
:104990006E00816080936E00109281008091810092
:1049A000826080938100809181008160809381008A
:1049B000809180008160809380008091B10084604C
:1049C0008093B1008091B00081608093B0008091AD
:1049D0007A00846080937A0080917A00826080936C
:1049E0007A0080917A00816080937A0080917A00C9
:1049F000806880937A001092C100E0914905F0919F
:104A00004A0582E08083E0914505F09146051082D9
:104A1000E0914705F091480580E1808310925105AF
:104A2000E0914D05F0914E0586E08083E0914B05C5
:104A3000F0914C05808180618083E0914B05F0917D
:104A40004C05808188608083E0914B05F0914C0596
:104A5000808180688083E0914B05F0914C058081D6
:104A60008F7D808364E670E080E090E00E9419040E
:104A70008BEF92E00E942408E5E3F5E084E0DF019B
:104A80001D928A95E9F78EE091E09093D60380938A
:104A9000D50386ED95E09093BC038093BB0361E062
:104AA0008AE00E94950361E08AE00E94C30360E00F
:104AB00089E00E94C30360E082E00E94C30360E0DB
:104AC00086E00E94C30360E087E00E94C3031FB733
:104AD000F8948091BA03811127C0E1EDF2E084914E
:104AE000EDEBF2E09491E82FF0E0EE0FFF1FE755B9
:104AF000FD4FA591B491EC91E92321F461E08AE0A6
:104B00000E94950361E08AE00E94C3038CB5806136
:104B10008CBD8CB580648CBD61E08DE00E94C303C8
:104B200061E08BE00E94C3038091BA038F5F8093A2
:104B3000BA031FBFECEAF3E08EE0DF011D928A9515
:104B4000E9F78BEB95E09093B5038093B40382E093
:104B50008093AF03F093DB05E093DA0581E00E94D8
:104B6000A0070091D5031091D603F80182818F3FF1
:104B700049F060E00E94950361E0D80112968C91A3
:104B80000E94C3030E941306625C7F4F8F4F9F4FAA
:104B90000E945607F80182818F3F19F060E00E9461
:104BA000C3030E941306685C7E4F8F4F9F4F0E9485
:104BB000560780E00E94290D82E40E945A0B823140
:104BC00009F020C28091BB039091BC03DC01ED9100
:104BD000FC910680F781E02D0995882341F08BE454
:104BE0000E945A0B682F60618BE40E946C0B82E07C
:104BF0000E94330D81E00E945A0B87708530D1F7F7
:104C00000CE913E0BBEACB2EB3E0DB2EA8E0EA2EE2
:104C1000F12C8CE20E945A0B8170B82E8CE20E941B
:104C20005A0B8170B816A9F3F8018181880F8B297E
:104C30008183F1E0EF1AF10861F70F5F1F4FC01693
:104C4000D10621F710E110939C0380E00E94290D0A
:104C500080E490E090936104809360048FEF8093F0
:104C600005040E94E91140E150E06BEE72E0CE01D4
:104C700041960E94082840E150E06BED72E0CE01C1
:104C800001960E94082883E190E0A0E0B0E08093C4
:104C90002E0490932F04A0933004B093310485E147
:104CA0009AEEAEEDB0E08093320490933304A0937B
:104CB0003404B0933504FE013196A1ECB4E0812FA9
:104CC00001900D928A95E1F7FE017196A1EDB4E095
:104CD00001900D921A95E1F7809160049091610422
:104CE00089759D7B986090936104809360040E9415
:104CF000910590E080E00E943C0510E0812F0E9429
:104D0000CD051F5F1830D1F71092E30480E89FEFC4
:104D100090936504809364041092EB041092E7046E
:104D20006FE082E00E941F058DEB93E00E941A1E47
:104D3000EFE0BE2EF0E0CF2EF0E0DF2E2FB7F8949C
:104D40008091C5039091C603A091C703B091C80399
:104D50002FBF61E091FF60E08DE00E94950379EC48
:104D6000E72E73E0F72E10E000E0E091D503F0911C
:104D7000D603E00FF11F83818F3FC9F1D7014D901A
:104D80005D906D907C90411451046104710479F13F
:104D9000F701108211821282138281E00E945A0B65
:104DA00087FFCEC082E10E945A0B8093340583FFB7
:104DB00045C0F2E04F1A51086108710840921A0488
:104DC00050921B0460921C0470921D046FEF81E1ED
:104DD0000E946C0B6FEF82E10E946C0B80E00E94DE
:104DE000290D80910C0490910D040E94BF060F5F65
:104DF0001F4FE4E0EE0EF11C0330110509F0B5CFB2
:104E00000E94C30500913705109138050115110561
:104E100009F4C9C0D8018D919C9190933805809375
:104E200037050E9437060115110509F4DFC0D801C6
:104E30001696ED91FC91C8010995D8C086FF7BC0FC
:104E4000E0915E04F0915F04CF0163E09695879551
:104E50006A95E1F7837061F4E770F0E0EE0FFF1FF1
:104E6000EC5FFC4F85919491481A590A61087108CA
:104E700040921E0450921F046092200470922104FC
:104E80008DE10E945A0B80FF45C082E20E945A0BBE
:104E90008093F20480E10E945A0B682F8DE00E94FB
:104EA0006C0B4091F20450E021E063EF74E080E08D
:104EB0000E94F10A89E10E945A0B809368048AE1FA
:104EC0000E945A0B282F30E040912604509127046D
:104ED000609128047091290441345D4D6A447F41FA
:104EE000D8F02D5931099091680497FF18C0A92F67
:104EF000BB27A1950CF4B095CD0195958795959517
:104F00008795281B390B203431059CF4205C2093B5
:104F100067045CCF83E1BACF245A3109E4CF2D393D
:104F2000BFEF3B079CF36B2D0E941128280F311D0A
:104F3000EACF2FE7ECCF87FF49CF1092F20446CF9C
:104F40008EE30E945A0B8FE30E945A0B83FF0CC022
:104F500040921A0450921B0460921C0470921D042B
:104F600081E00E94290D3ACF82FF1AC040921E04B0
:104F700050921F04609220047092210482E30E94E8
:104F80005A0B8093F204482F50E021E063EF74E065
:104F900080E00E94F10A1092680410926704E0CF4A
:104FA0001092F204DDCFE0913505F091360530978F
:104FB000D9F042805380648075800E941306461A9F
:104FC000570A680A790A141415041604170464F0C1
:104FD0000091350510913605F801808191819093FB
:104FE0003605809335051DCF0E943706C114D104C4
:104FF00009F4A4CE0E94AE02882309F49FCE0E9439
:1050000000009CCE65E370E083E393E00E94CA0554
:10501000FB01DC0102C005900D9241505040D8F7D1
:105020000895991B79E004C0991F961708F0961B04
:10503000881F7A95C9F780950895AA1BBB1B51E17B
:1050400007C0AA1FBB1FA617B70710F0A61BB70BF8
:10505000881F991F5A95A9F780959095BC01CD019D
:105060000895A1E21A2EAA1BBB1BFD010DC0AA1FA9
:10507000BB1FEE1FFF1FA217B307E407F50720F0C1
:10508000A21BB30BE40BF50B661F771F881F991F3C
:105090001A9469F760957095809590959B01AC0185
:1050A000BD01CF010895052E97FB1EF400940E94C8
:1050B0006A2857FD07D00E94312807FC03D04EF420
:1050C0000C946A2850954095309521953F4F4F4F4D
:1050D0005F4F089590958095709561957F4F8F4FA4
:1050E0009F4F0895EE0FFF1F0590F491E02D099456
:1050F0006927962769277827872778270895A29F09
:10510000B001B39FC001A39F700D811D1124911D9B
:10511000B29F700D811D1124911D08950E947F285A
:10512000B7FF0895821B930B08950E947F28A59FC7
:10513000900DB49F900DA49F800D911D1124089592
:1051400097FB57FF0C94B0289F938F930E94B02831
:105150006E1B7F0BAF91BF918A0B9B0B0895E89458
:10516000DF93CF93FC01DB010E947F287F936F9335
:10517000E9019A01AC01BF93AF933F932F93DF01F5
:105180000E947F2826F46C1B7D0B820B930B9E01E3
:10519000EB01FC010E94A629AF91BF912F913F9195
:1051A0000E94A629BE01CF01F9012F913F91CF9115
:1051B000DF910895689401C0E8948F929F92CF93F5
:1051C000DF930E94E828DF91CF919F908F90089500
:1051D00088249924F401E401B0E49F93AA279A1546
:1051E0008B049C04ED05FE05CF05D007A10798F4BC
:1051F000AD2FDC2FCF2FFE2FE92D982C892E982F45
:10520000872F762F652F542F432F322F2227B85008
:1052100031F7BF9127C01B2EBF91BB27220F331F31
:10522000441F551F661F771F881F991F881C991CD4
:10523000EE1FFF1FCC1FDD1FAA1FBB1F8A149B047C
:10524000EC05FD05CE05DF05A007B10748F08A187B
:105250009B08EC09FD09CE09DF09A00BB10B216009
:105260001A94E1F62EF49401AF01BE01CD01000CB9
:1052700008952F923F924F925F926F927F928F92FA
:105280009F92AF92BF92CF92DF92EF92FF920F93D5
:105290001F93CF93DF93CDB7DEB7CA1BDB0B0FB6DF
:1052A000F894DEBF0FBECDBF09942A88398848889C
:1052B0005F846E847D848C849B84AA84B984C88432
:1052C000DF80EE80FD800C811B81AA81B981CE0F29
:1052D000D11D0FB6F894DEBF0FBECDBFED0108950E
:1052E000002E083090F0982F872F762F652F542F9F
:1052F000432F322F22270850F4CF220F331F441F91
:10530000551F661F771F881F991F0A95B2F7002D3A
:10531000089597FD1094002E083098F00850232F20
:10532000342F452F562F672F782F892F912DF4CFAB
:1053300015949795879577956795579547953795E0
:1053400027950A95AAF71124002D08950E947F2819
:10535000460F571FC81FD91F08F431960895FB0147
:10536000DC0102C001900D9241505040D8F70895E1
:10537000B0E0A0E0EEEBF9E20C944929AE014B5FFE
:105380005F4FFA0161917191AF018091DA059091BF
:10539000DB050E94CE29E2E00C946529ABE0B0E089
:1053A000E4EDF9E20C9439297C013B018A01FC010E
:1053B00017821682838181FFC8C1CE0101965C01EC
:1053C000F7019381F30193FD859193FF81913F0153
:1053D000882309F453C1853239F493FD859193FFF5
:1053E00081913F01853229F4B70190E00E94BE2BE4
:1053F000E7CF912C212C312CFFE1F31538F08B32C3
:1054000011F190F4803209F1833229F137FC3CC06C
:1054100020ED280F2A3050F536FE20C08AE0989EF5
:10542000200D1124922E06C08D3291F0803371F739
:10543000689430F8F30193FD859193FF81913F01CA
:105440008111DACF21C0689431F8689432F8F2CF34
:10545000689433F8EFCF689434F8ECCFEAE02E9EEE
:10546000200D1124222E689435F8E4CF8E3229F4D1
:1054700036FC04C1689436F8DDCF8C3619F4689494
:1054800037F8D8CF8836B1F2982F9F7D9554933056
:10549000E0F08336A1F18337C1F1833509F063C0B1
:1054A0002801F2E04F0E511CF801C080D180692D17
:1054B00070E036FC02C06FEF7FEFC6010E94A82BA0
:1054C0004C01689437F882010AC00C5F1F4FFFE35C
:1054D000F98388248394912C6501E89437F833FE8E
:1054E0002DC0522C8114910471F5552009F468CF18
:1054F000B70180E290E00E94BE2B5A94F6CFF801EB
:10550000808189830E5F1F4FE4CF2801F2E04F0EA8
:10551000511CF801C080D180692D70E036FC02C0BA
:105520006FEF7FEFC6010E94B32B4C018201D5CFF4
:10553000B70180E290E00E94BE2B2A94281419043F
:1055400009F0B0F7CECFF60137FC859137FE819197
:105550006F01B70190E00E94BE2B51105A94F1E008
:105560008F1A9108BFCF843619F0893609F077C0B9
:10557000F80137FE6BC060817181828193810C5F7D
:105580001F4FF32DFF763F2E97FF09C09095809512
:10559000709561957F4F8F4F9F4F689437F82AE041
:1055A00030E0A5010E94EE2BC82ECA188C2C432C8B
:1055B00036FE0CC0E89440F8C91440F434FE05C02F
:1055C00032FC03C0F32DFE7E4F2E892C44FE95C085
:1055D000FE01EC0DF11D8081803309F087C0242D80
:1055E000297E422E842D8870582E43FC95C040FEA3
:1055F0008FC09C2C821418F42C0C922C981844FE0A
:1056000091C0B70180E390E00E94BE2B42FE09C02A
:1056100088E790E041FE02C088E590E0B7010E9473
:10562000BE2BC91408F48AC0CA94D12C9FEFC91AA2
:10563000D90ACA0CDB1CF60182916F01B70190E018
:105640000E94BE2BAC14BD04B1F74FCF60817181B5
:10565000072E000C880B990B0E5F1F4F92CFD32C97
:10566000E894D4F82AE030E0853739F1232D297FFA
:10567000D22E8F3601F148F48835A9F0F7018681E2
:1056800097812B96E2E10C945529803749F08837B1
:10569000A9F7D4FE02C06894D2F820E130E00DC032
:1056A0006894D4F8F6CF34FE03C0822F8660D82EDB
:1056B00020E132E002C028E030E0F801D7FE0FC060
:1056C00060817181828193810C5F1F4FA5010E94CF
:1056D000EE2BC82ECA183D2CE89437F867CF6081AE
:1056E000718190E080E00E5F1F4FF0CF42FC02C05E
:1056F000839478CF8394839475CF842D867809F42E
:1057000071CFF6CFB70180E290E00E94BE2B839468
:105710008214C0F3512C73CF522C5818821408F401
:105720006ECFF8CF842D867809F47BCF8BE241FED3
:1057300080E247FC8DE2B70190E071CFB70180E3D2
:1057400090E00E94BE2B9A946CCF8FEF9FEF99CF81
:10575000FC010590615070400110D8F7809590953C
:105760008E0F9F1F0895FC01615070400190011041
:10577000D8F7809590958E0F9F1F08950F931F93D4
:10578000CF93DF93182F092FEB018B8181FD09C087
:105790001FEF0FEF812F902FDF91CF911F910F916E
:1057A000089582FF14C02E813F818C819D8128172E
:1057B00039073CF4E881F981CF0101969983888308
:1057C00010838E819F8101969F838E83E3CFE8852E
:1057D000F985812F0995892BA1F3DACFFA01AA2740
:1057E000283051F1203181F1E8946F936E7F6E5F24
:1057F0007F4F8F4F9F4FAF4FB1E03ED0B4E03CD0D2
:10580000670F781F891F9A1FA11D680F791F8A1FB4
:10581000911DA11D6A0F711D811D911DA11D20D01B
:1058200009F468943F912AE0269F11243019305DD5
:105830003193DEF6CF010895462F4770405D4193C6
:10584000B3E00FD0C9F7F6CF462F4F70405D4A3313
:1058500018F0495D31FD4052419302D0A9F7EACFDB
:10586000B4E0A6959795879577956795BA95C9F70A
:1058700000976105710508959B01AC010A2E0694FD
:105880005795479537952795BA95C9F7620F731FB6
:10589000841F951FA01D0895F894FFCF48656C6C78
:1058A0006F2C20776F726C6421000AFF09020607D3
:1058B000000000000000000000000000E4024402BC
:1058C00071024C03A2028002940200000000DF0774
:1058D000DE07DE07DC07DA07433A5C55736572734F
:1058E0005C3232393037373033355C446F63756D35
:1058F000656E74735C41726475696E6F5C6C69622D
:105900007261726965735C61726475696E6F2D6C2A
:105910006D69635C7372635C6C6D69635C6C6D690B
:10592000635F636E3439302E63000D0A00433A5CC6
:1059300055736572735C3232393037373033355CCA
:10594000446F63756D656E74735C41726475696EE6
:105950006F5C6C69627261726965735C61726475B7
:10596000696E6F2D6C6D69635C7372635C6C6D69DD
:10597000635C726164696F2E6300433A5C557365C2
:1059800072735C3232393037373033355C446F6391
:10599000756D656E74735C41726475696E6F5C6C75
:1059A00069627261726965735C61726475696E6F58
:1059B0002D6C6D69635C7372635C6C6D69635C6CA8
:1059C0006D69635F75735F6C696B652E6300256C31
:1059D000643A2054584D4F44452C20667265713D01
:1059E000256C752C206C656E3D25642C2053463D3E
:1059F00025642C2050573D25642C2042573D2564BA
:105A00002C2043523D342F25642C2046434E543DD8
:105A100025642C2049483D25640A00256C643A2001
:105A20007570526570656174206E6F77203A20251D
:105A300020640A0053656E742025642062797465C1
:105A400073206F66204672616D65205061796C6FBE
:105A500061643A204261736536342D6465636F6416
:105A600065642068657861646563696D616C207345
:105A70007472696E67207061796C6F61643A00536B
:105A8000656E74202564206279746573206F6620CA
:105A9000504859205061796C6F61643A2000506120
:105AA000796C6F6164204352432048657820283028
:105AB0007825303458292C205061796C6F6164202E
:105AC0004352432044454320282575290A2000439A
:105AD0003A5C55736572735C323239303737303324
