:100000000C943E020C9466020C9466020C946602F8
:100010000C9466020C9466020C9466020C946602C0
:100020000C9466020C9466020C9466020C946602B0
:100030000C9466020C9466020C9466020C946602A0
:100040000C94AC250C9466020C947A250C945425DF
:100050000C9466020C9466020C9466020C94660280
:100060000C9466020C946602556E6B6E6F776E2070
:100070006576656E743A200045565F4A4F494E5F7B
:100080005458434F4D504C4554453A206E6F204ACA
:100090006F696E4163636570740045565F545843E1
:1000A000414E43454C454400206279746573206F8E
:1000B0006620504859205061796C6F61643A200085
:1000C00053656E742000206279746573206F66201A
:1000D0004672616D65205061796C6F61643A2042AF
:1000E00061736536342D6465636F6465642068658B
:1000F0007861646563696D616C20737472696E67A1
:10010000207061796C6F61643A0053656E742000F1
:1001100045565F545853544152540045565F4C491C
:100120004E4B5F414C4956450045565F4C494E4B3E
:100130005F444541440045565F5258434F4D504C33
:100140004554450045565F52455345540045565F5A
:100150004C4F53545F5453594E43004261736536BC
:10016000342D6465636F64656420686578616465D7
:1001700063696D616C20737472696E672070617958
:100180006C6F61643A2000206279746573206F6639
:10019000207061796C6F61643A2000526563656913
:1001A00076656420005265636569766564206163E5
:1001B0006B0045565F5458434F4D504C45544520B5
:1001C00028696E636C756465732077616974696E04
:1001D0006720666F722052582077696E646F77735C
:1001E000290045565F52454A4F494E5F4641494CAA
:1001F00045440045565F4A4F494E5F4641494C458C
:10020000440045565F4A4F494E45440045565F4AB3
:100210004F494E494E470045565F424541434F4E78
:100220005F545241434B45440045565F424541436C
:100230004F4E5F4D49535345440045565F4245413B
:10024000434F4E5F464F554E440045565F53434122
:100250004E5F54494D454F5554004F505F545852CE
:100260005850454E442C206E6F742073656E64693F
:100270006E67005061636B657420717565756564A8
:1002800000000000002300260029000305020501EC
:100290000602020500000600000105040400040037
:1002A000000002000000010000800000004000008B
:1002B00000200000002020200E11140C0F12090C49
:1002C0000F06090C03060900030613110F0D0B0995
:1002D000070540404080EBEB080A0C0D0E1012148D
:1002E00015181A1B1D1E2124FF060504030201FF19
:1002F000C0400000000000250028002B0000000086
:1003000008000201000003040700000000000000D4
:100310000000000000240027002A00010204081049
:10032000204080010204081020010204081020046B
:10033000040404040404040202020202020303038C
:1003400003030343579EA99CF9256204D4778F6366
:10035000A61C0CE9B53B908577E0CF4A7DBE490DE0
:1003600040B0455374617274696E6700000000000C
:100370006700CC00B80154039D07637C777BF26B68
:100380006FC53001672BFED7AB76CA82C97DFA599B
:1003900047F0ADD4A2AF9CA472C0B7FD9326363F00
:1003A000F7CC34A5E5F171D8311504C723C31896ED
:1003B000059A071280E2EB27B27509832C1A1B6E8F
:1003C0005AA0523BD6B329E32F8453D100ED20FC31
:1003D000B15B6ACBBE394A4C58CFD0EFAAFB434D34
:1003E000338545F9027F503C9FA851A3408F929DD1
:1003F00038F5BCB6DA2110FFF3D2CD0C13EC5F97C1
:100400004417C4A77E3D645D197360814FDC222AC6
:10041000908846EEB814DE5E0BDBE0323A0A4906FD
:10042000245CC2D3AC629195E479E7C8376D8DD571
:100430004EA96C56F4EA657AAE08BA78252E1CA649
:10044000B4C6E8DD741F4BBD8B8A703EB5664803A9
:10045000F60E613557B986C11D9EE1F8981169D92C
:100460008E949B1E87E9CE5528DF8CA1890DBFE6AF
:10047000426841992D0FB054BB16F62511241FBEBA
:10048000CFEFD8E0DEBFCDBF25E0A0ECB2E001C0E9
:100490001D92AC31B207E1F712E0A0E0B1E0E4EC6C
:1004A000FBE502C005900D92A03CB107D9F712E020
:1004B000CEE3D2E004C02197FE010E94FF29CD3394
:1004C000D107C9F70E9429260C94E02D0C94000056
:1004D000FC0120E1215008F4089580E02111818180
:1004E0009191990F87FD9160DF0111979C93F2CF55
:1004F000AF92BF92CF92DF92EF92FF920F931F9332
:10050000CF93DF936C017B018B01040F151FEB016F
:100510005E01AE18BF08C017D10759F06991D60126
:10052000ED91FC910190F081E02DC6010995892B98
:1005300079F7C501DF91CF911F910F91FF90EF9057
:10054000DF90CF90BF90AF900895FC01538D448D04
:10055000252F30E0842F90E0821B930B541710F06E
:10056000CF96089501970895FC01918D828D98177B
:1005700061F0A28DAE0FBF2FB11D5D968C91928D53
:100580009F5F9F73928F90E008958FEF9FEF089584
:10059000FC01918D828D981731F0828DE80FF11D4D
:1005A000858D90E008958FEF9FEF0895FC01918D68
:1005B000228D892F90E0805C9F4F821B91098F7361
:1005C0009927089587E794E00E94D60221E0892BBD
:1005D00009F420E0822F089580E090E0892B29F033
:1005E0000E94E20281110C9400000895FC01A48D88
:1005F000A80FB92FB11DA35ABF4F2C91848D90E045
:1006000001968F739927848FA689B7892C93A08927
:10061000B1898C91837080648C93938D848D9813B1
:1006200006C00288F389E02D80818F7D8083089544
:10063000EF92FF920F931F93CF93DF93EC0181E032
:10064000888F9B8D8C8D98131AC0E889F9898081D9
:1006500085FF15C09FB7F894EE89FF896083E8890C
:10066000F98980818370806480839FBF81E090E0FE
:10067000DF91CF911F910F91FF90EF900895F62E8B
:100680000B8D10E00F5F1F4F0F731127E02E8C8D25
:100690008E110CC00FB607FCFACFE889F98980816A
:1006A00085FFF5CFCE010E94F602F1CFEB8DEC0F66
:1006B000FD2FF11DE35AFF4FF0829FB7F8940B8F87
:1006C000EA89FB8980818062CFCF0F931F93CF93FC
:1006D000DF938C01D0E0C0E0F801EC0FFD1F6491C6
:1006E000662341F087E794E00E941803892B11F0FC
:1006F0002196F2CFCE01DF91CF911F910F910895F6
:10070000CF93DF93EC01888D8823B9F0AA89BB8948
:10071000E889F9898C9185FD03C0808186FD0DC033
:100720000FB607FCF7CF8C9185FFF2CF808185FF54
:10073000EDCFCE010E94F602E9CFDF91CF9108956F
:10074000833081F028F4813099F08230A9F0089547
:100750008730A9F08830C9F08430B1F480918000EE
:100760008F7D03C0809180008F77809380000895F3
:1007700084B58F7784BD089584B58F7DFBCF80913C
:10078000B0008F778093B00008958091B0008F7D86
:10079000F9CF1F93CF93DF93282F30E0F901E35077
:1007A000FD4F8491F901E55EFC4FD491F901E15DC3
:1007B000FC4FC491CC23A9F0162F81110E94A003F5
:1007C000EC2FF0E0EE0FFF1FED50FD4FA591B4911F
:1007D0008FB7F894EC91111108C0D095DE23DC930B
:1007E0008FBFDF91CF911F910895DE2BF8CFCF936C
:1007F000DF9390E0FC01E55EFC4F2491815D9C4F0E
:10080000FC0184918823D1F090E0880F991FFC01AE
:10081000EF5EFC4FA591B491FC01ED50FD4FC591E9
:10082000D49161110EC09FB7F8948C91E22FE0959E
:100830008E238C932881E223E8839FBFDF91CF91A1
:1008400008958FB7F894EC91E22BEC938FBFF6CF1D
:100850003FB7F8948091D6029091D702A091D80228
:10086000B091D90226B5A89B05C02F3F19F001967B
:10087000A11DB11D3FBFBA2FA92F982F8827BC01FA
:10088000CD01620F711D811D911D42E0660F771F22
:10089000881F991F4A95D1F708958F929F92AF9222
:1008A000BF92CF92DF92EF92FF924B015C010E94C8
:1008B00028046B017C010E9428046C197D098E09B3
:1008C0009F09683E734081059105A8F321E0821AD3
:1008D0009108A108B10888EEC80E83E0D81EE11C7B
:1008E000F11C81149104A104B10429F7FF90EF9049
:1008F000DF90CF90BF90AF909F908F9008950F930F
:100900001F936115710581059105F9F000914C0364
:1009100010914D0320914E0330914F03DC01CB0128
:10092000800F911FA21FB31F80934C0390934D0320
:10093000A0934E03B0934F038091500390915103C5
:10094000019690935103809350031F910F91089546
:10095000FC01208131812115310519F490E080E0FE
:1009600008952617370749F4FB0120813181FC01E6
:100970003183208381E090E00895C901E9CF80367A
:1009800060F5282F22952F7030E0220F331FF901D8
:10099000E058FC4F408151818F7061E070E002C0EF
:1009A000660F771F8A95E2F7CA0186239723892B62
:1009B00091F48091980390919903019690939903F3
:1009C0008093980381E020583C4F462B572BF90128
:1009D00051834083089580E0F6CF80E0089580360B
:1009E00070F5282F22952F7030E0220F331FF90168
:1009F000E058FC4F608171818F7041E050E002C08F
:100A0000440F551F8A95E2F7CA0186239723892B45
:100A1000A1F0809198039091990301979093990385
:100A20008093980381E020583C4F40955095462391
:100A30005723F90151834083089580E0F4CF80E08B
:100A40000895FC0190E080E06115710509F40895B6
:100A500021913191A9015695479545755575241BEE
:100A6000350BA90143735373369527953695279512
:100A700023733373240F351FA901407F507F2F70DC
:100A80003F70A4E0220F331FAA95E1F7240F351F12
:100A9000A9015527232F3327240F351F820F931FBA
:100AA00061507109D1CF982F6038C1F08091B103A6
:100AB0006817A1F06093B10381E02091B203291778
:100AC00061F09093B20380919E0390919F03986090
:100AD00090939F0380939E0381E0089580E0EDCF83
:100AE0002091A2033091A30320383F4F21F090932F
:100AF000A3038093A2030895982F8091EF03E091C0
:100B0000EE03882361F0EF30A0F481E08E0F809334
:100B1000EE03F0E0E051FC4F908381E00895E43370
:100B200048F481E08E0F8093EE03F0E0E654FC4F32
:100B3000F3CF80E00895CF93DF93C62FD091EE03DB
:100B40000E947C05811106C0D093EE0380E0DF9106
:100B5000CF9108958C2F0E947C058823A9F381E012
:100B6000F6CF109228041092290480E294E4AEE1BA
:100B7000BEE180937C0390937D03A0937E03B093AA
:100B80007F038FEF809327040895109278031092CB
:100B9000790310927A0310927B03109274031092DF
:100BA000750310927603109277031092B40310929B
:100BB00021041092200410921F041092B00310928E
:100BC000B50310922A0410922C04109226040C945F
:100BD000B105FC0160817181828193810895682F44
:100BE00087E794E00E94180390E080E00895F8946D
:100BF0008091C4028F5F8093C40208950E94F7051C
:100C0000FFCFEF92FF921F93CF93DF938C3030F0A2
:100C100067EA70E08CE391E00E94FE05880F880F80
:100C2000880F98E0980FC82FD0E010E0E92EF12C43
:100C3000CE15DF053CF0812FDF91CF911F91FF9002
:100C4000EF9008958C2F0E94EF04182B2196F0CF7F
:100C5000EF92FF921F93CF93DF93880F880F880F37
:100C600098E0980FC82FD0E010E0E92EF12CCE15B7
:100C7000DF053CF0812FDF91CF911F91FF90EF9026
:100C800008958C2F0E94BF04182B2196F0CF0F934C
:100C90001F930E942804AB01BC012091C002DC011B
:100CA000CA013CE1B695A795979587953A95D1F7F6
:100CB00082278870820F8093C002E4E07695679562
:100CC00057954795EA95D1F79B01382BC901BA0191
:100CD0001F910F910895AF92BF92CF92DF92EF9242
:100CE000FF920F931F93CF93DF938091C4028150A3
:100CF0008093C402811169C0789401EC12E0D0E0C5
:100D0000C0E0BB24B394E0911303F0911403EC0F03
:100D1000FD1F23812F3F09F451C0F801D080ED2C35
:100D2000F12C30E0F901E350FD4F8491F901E55ECB
:100D3000FC4FC490F901E15DFC4FA490AA2009F496
:100D40004FC081110E94A003EA2DF0E0EE0FFF1FBB
:100D5000EF57FD4FA591B491EC91CE2231E020E008
:100D600009F430E0832F922FE816F90639F1DB24DD
:100D7000F801D082DD2011F1CE01880F991F880F74
:100D8000991F9C01295F3C4F7901F9018081918174
:100D9000A281B381892B8A2B8B2B81F40E94470679
:100DA000611571058105910521F461E070E080E035
:100DB00090E0F701608371838283938321960F5FB4
:100DC0001F4FC330D10509F09ECFDF91CF911F9106
:100DD0000F91FF90EF90DF90CF90BF90AF9008956C
:100DE00090E080E0C1CFCF93DF93EC010E94F70544
:100DF0008091460390914703A0914803B091490325
:100E0000892B8A2B8B2B31F585E794E064E473E022
:100E10000E94A804109245031092440310924603C6
:100E2000109247031092480310924903D0934B034A
:100E3000C0934A03E0917504F0917604A5E7B4E00D
:100E4000309759F484E493E08D939C93DF91CF9194
:100E50000C946B0683E794E0D9CFDF010190F08119
:100E6000E02DEECFCF92DF92EF92FF920F931F9380
:100E7000CF93DF93EC016A017B018901C114D10496
:100E8000E104F10421F4C12CD12C7601C3940E9419
:100E9000F7058A819B81AC81BD81892B8A2B8B2BA5
:100EA00089F585E794E0BE010E94A80419821882A2
:100EB000CA82DB82EC82FD821F830E83E091730481
:100EC000F091740423E734E0309779F082819381C4
:100ED000A481B5818C199D09AE09BF0918161906A0
:100EE0001A061B0694F4F983E883F901D183C083C1
:100EF000DF91CF911F910F91FF90EF90DF90CF90F6
:100F00000C946B0683E794E0CECF9F010190F081B3
:100F1000E02DDACFCF92DF92EF92FF926B017C014E
:100F20000E944706A7019601261B370B480B590B59
:100F3000DA01C901B7FF0CC066277727CB01621B16
:100F4000730B840B950BFF90EF90DF90CF9008957B
:100F5000833332E09307A105B1058CF068E070E0BF
:100F600080E090E00E944D040E944706A701960190
:100F7000261B370B480B590BDA01C901E9CF1816AC
:100F800019061A061B0664F424E0880F991F2A9597
:100F9000E1F7880F991F880F991F05970197F1F7BF
:100FA00060E070E0CB01CFCFCF92DF92EF92FF9263
:100FB000A091F902B091FA02682F6170ED91FC9155
:100FC00011970190F081E02DCD0109956B017C0115
:100FD000C114D104E104F10461F00E9447066C0DD4
:100FE0007D1D8E1D9F1DFF90EF90DF90CF900C9484
:100FF0008A07FF90EF90DF90CF900895982FE091AF
:101000001303F091140381818F3F39F061E0268151
:10101000291301C060E00C94C903089581E008958C
:1010200080E00895089560E070E0CB010895E5E266
:10103000F3E084819581948396819583978196834B
:101040008783808592859087828781859385918724
:1010500083878785968597879585968794859587D5
:1010600084870895CF9325E233E0BC01605F7F4F12
:10107000DC01F90140E0CD9150815C2750834F5F46
:1010800034964430C1F72F5F3F4F04968617970779
:1010900079F7CF910895FC0101900020E9F731978D
:1010A000AF01481B590BBC0187E794E00C94780210
:1010B000CF93DF930E946503EC0184E791E00E94E7
:1010C0004B088C0F9D1FDF91CF9108958F929F92B7
:1010D000AF92BF920F931F93CF93DF93CDB7DEB73D
:1010E000A1970FB6F894DEBF0FBECDBF19A2423054
:1010F00008F44AE08E010F5D1F4F842E912CB12C15
:10110000A12CA50194010E94BE29E62FB901CA01B4
:10111000EA30F4F4E05DD801EE938D01232B242B0B
:10112000252B79F790E080E0109719F0CD010E940F
:101130004B08A1960FB6F894DEBF0FBECDBFDF916E
:10114000CF911F910F91BF90AF909F908F90089576
:10115000E95CE1CF0F931F93CF93DF9300D000D0D2
:10116000CDB7DEB7DB011C969C911C971E963C9177
:101170001E971F962C911F971D964C911D97498382
:101180003A832B839C83BE016B5F7F4F9E012F5F51
:101190003F4FF90111919F01412F42954F70F0E1AE
:1011A0004F9FA0011124E12FEF70E40FF52FF11DE7
:1011B000E658FC4F9491A90141505109FA019083DE
:1011C0002617370731F791E05BE1813039F0492F7D
:1011D000440F97FD45278150942FF7CF8981982799
:1011E00099838D0194E0FE013196A801DA018D9179
:1011F000AD0161918627BD0161507109DB018C93BE
:10120000BF0161507109DB018C93E217F30771F79D
:1012100091500C5F1F4F9111E6CF0F900F900F90E0
:101220000F90DF91CF911F910F9108953F924F92B0
:101230005F926F927F928F929F92AF92BF92CF9266
:10124000DF92EF92FF920F931F93CF93DF93CDB76F
:10125000DEB768970FB6F894DEBF0FBECDBF8C0126
:1012600025E2C22E23E0D22EAC01405F5F4FC601C3
:101270007801FC01D70120E03D9130832F5F349647
:101280002430D1F724E0E20EF11C01964E155F05E3
:1012900081F7A5E1B3E0FE01319685E293E05E2E91
:1012A0006F2E2D9121938A179B07D9F7852D962DA7
:1012B0000E9432084424439489E2A82E83E0B82E89
:1012C0004E0139E1830E911C9BE1392E85E293E0BA
:1012D00024E0DC01712CEC914E2F42954F7030E1EF
:1012E000439FA0011124EF70E40FF52FF11DE65884
:1012F000FC4FE491EC937394149654E07512EBCF89
:10130000215001962111E5CF0E941708E5E2F3E094
:10131000CE014596BE016F5E7F4F9F01D9015C9162
:10132000DC015D93CD01452F440F57FD83C0DB01E8
:101330004C932C5F3F4F6F5F7F4F8816990671F774
:101340008E89398938272F89688D9A89922796271F
:10135000432F492741934D895B8994279527938390
:101360009C898627842785278927878324272927FF
:1013700032273387AE16BF0659F6652D762D842D9C
:101380000E94AA08852D962D0E9432084394BAE047
:101390004B129CCF85E293E0DC0140E0EC912E2FD4
:1013A00022952F7050E1259F90011124EF70E20FDC
:1013B000F32FF11DE658FC4FE491EC934F5F149628
:1013C000443061F77A9401967110E6CF0E941708B5
:1013D000652D762D8AE00E94AA08852D962D0E9403
:1013E0003208D801F60180E090819D938F5F34969A
:1013F0008430D1F78FEFC81AD80A0C5F1F4FE01660
:10140000F10679F768960FB6F894DEBF0FBECDBF30
:10141000DF91CF911F910F91FF90EF90DF90CF90D0
:10142000BF90AF909F908F907F906F905F904F9004
:101430003F90089543257BCFE091A903A091AD0390
:10144000A770B0E020E43DE043E050E00E94222A93
:1014500060527F458C4C914E60936403709365039A
:10146000809366039093670380912804E53090F49D
:10147000E81BE63008F0E5E0E093A903F0E0E7516F
:10148000FD4FE491F0E0EF77E068F0939D03E09387
:101490009C030895E5E0ECCF4F925F926F927F92AC
:1014A0008F929F92AF92BF92CF92DF92EF92FF9274
:1014B0000F93CF93DF9300D000D000D0CDB7DEB72D
:1014C0006B017C015E834D83277084E0289FF001CF
:1014D0001124E356FD4F85919591A591B49189838F
:1014E0009A83AB83BC83409058035090590360901B
:1014F0005A0370905B036091410370914203611540
:10150000710531F0673091E0790710F066E071E025
:1015100090E080E0A70196010E942D2A00E10E9440
:10152000162B49015A0129813A814B815C81220F96
:10153000331F441F551FC501B401660F771F881F55
:10154000991F620F731F841F951F64587F4F8F4F21
:101550009F4F0E94E0292A5F3F4F43E85FEF6FEF04
:101560007FEF481959096A097B092115A4E03A0758
:10157000B8F18FEF93E09093A8038093A703C40E74
:10158000D51EE61EF71E4C0C5D1C6E1C7F1C409287
:101590005C0350925D0360925E0370925F03B3013F
:1015A000A20141575240610971092D813E8184E4B5
:1015B00093E026960FB6F894DEBF0FBECDBFDF9145
:1015C000CF910F91FF90EF90DF90CF90BF90AF90B1
:1015D0009F908F907F906F905F904F900C94320708
:1015E0003093A8032093A703CACFCF92DF92EF9244
:1015F000FF922091220430E0A4E2B4EF0E940C2A72
:101600006B017C010E941C0A2091A9034CE455E265
:10161000C701B601FF90EF90DF90CF900C944C0A79
:101620000E941C0A2091A90340E555E264EB74EC8A
:1016300084E090E00C944C0AE82FF0E0E851FD4F74
:10164000E491EF3F09F0815008958F929F92AF92FD
:10165000BF92DF92EF92FF920F931F93CF93DF938E
:10166000D82EEB018A01E22EE0911303F0911403CE
:10167000F08080849184A284B38481149104A104B5
:10168000B10439F420E4822E22E4922E2FE0A22E1F
:10169000B12C40E052E16AE770E080E084169506E4
:1016A000A606B70640F476956795579547958F5FE0
:1016B0008630A1F787E0982F906A96958095817083
:1016C0009CBD8DBD60E08F2D0E94C903DEBC000073
:1016D0000DB407FEFDCF8EB50C0F1D1FC017D1072F
:1016E00071F080E0E11001C088818EBD00000DB472
:1016F00007FEFDCF8EB5E11088832196EFCF61E024
:101700008F2DDF91CF911F910F91FF90EF90DF9080
:10171000BF90AF909F908F900C94C903CF93DF93AD
:101720001F92CDB7DEB721E041E050E0BE016F5F10
:101730007F4F0E94250B89810F90DF91CF910895F3
:10174000CF93DF931F92CDB7DEB7698320E041E0EE
:1017500050E0BE016F5F7F4F80680E94250B0F90A5
:10176000DF91CF910895CF93C82F62E082E00E946D
:10177000A00B60E883E00E94A00B61E084E00E947F
:10178000A00B69E985E00E94A00B62E187E20E945C
:10179000A00B60EDC11168ED80E30E94A00B60E436
:1017A00081E30E94A00B61EC88E20E94A00B64E937
:1017B00089E20E94A00B61EC8AE2CF910C94A00B0D
:1017C0000F931F93CF93DF93C091AB03C4310CF001
:1017D00040C0CE30CCF1C2310CF0C1E161E080916B
:1017E000F9029091FA02009164031091650320912F
:1017F000660330916703DC01ED91FC910084F18573
:10180000E02D4C2F0995813059F18230E1F1CF3034
:101810001CF5CC301CF1C067D7E014E06C2F89E0D8
:101820000E94A00B8DE40E948E0B887F682F612B95
:101830008DE40E94A00B6D2F60628BE0DF91CF9151
:101840001F910F910C94A00BCC3F0CF4CCEF60E0F7
:10185000C6CF62E0C4E1C3CFCEE0DDCFCC5FDCCF4A
:1018600080919C03877011F4CB305CF0C2302CF473
:10187000C2E0C250C068DBE0D0CFC231D4F3C1E1D6
:10188000F8CFCBE0F6CFD0E117E0CFE8C7CFAF92EB
:10189000BF92CF92DF92EF92FF920F931F93CF935D
:1018A000DF938091640390916503A0916603B091EA
:1018B00067039C01AD0160E070E080E090E003E12F
:1018C0000E94FD2AA12CE8E4BE2EF8EECF2EDD24E6
:1018D000D394E12CF12C00E010E00E94692AC22F81
:1018E000B32E6A017B01182FD92F00E10E94182B1B
:1018F000622F86E00E94A00B2C2F3B2DA601B70182
:10190000812F9D2F08E00E94182B622F87E00E94F4
:10191000A00B6C2F88E0DF91CF911F910F91FF906A
:10192000EF90DF90CF90BF90AF900C94A00B1F93DF
:10193000CF93DF9360919C0370919D03162F1770D6
:10194000CB0133E0969587953A95E1F7D82FD37080
:10195000D13059F008F466C0D23009F465C066ECA5
:1019600071E087E791E00E94FE05C0E8CB0125E029
:10197000969587952A95E1F78370823009F458C0CF
:10198000833009F457C0813009F450C0C260672F1A
:1019900077276115710521F0C16082E20E94A00BDA
:1019A0006C2F8DE10E94A00B6091A80363706059B9
:1019B0008FEF810F8295807F680F80919C0387FF56
:1019C00064608EE10E94A00B8BEF810F823010F4D7
:1019D000DD2391F1163011F4D13071F164E086E22B
:1019E0000E94A00BC0E063E0D23081F480916403D8
:1019F00090916503A0916603B0916703CFE78134AE
:101A00009D4DAA44BF4108F0C4E662E086E30E940F
:101A1000A00BCC2399F06C2F8AE3DF91CF911F911B
:101A20000C94A00BC0E7A2CFC0E9A0CFC460AFCF99
:101A3000C660ADCFC860ABCF6CE0D1CFDF91CF91A6
:101A40001F910895CF93DF93D82FC82FC77019F037
:101A500081E00E94D4076D2F81E00E94A00BC1118C
:101A600005C080E0DF91CF910C94D407DF91CF9136
:101A700008958091640390916503A0916603B091ED
:101A8000670381349D4DAA44BF4118F488E00C944B
:101A9000220D80E0FCCF8091640390916503A091BA
:101AA0006603B091670381349D4DAA44BF4118F489
:101AB00088E80C94220D80E8FCCFCF93C82F81E0FA
:101AC0000E948E0B887F8C2BCF910C94220DCF928D
:101AD000DF92EF92FF92CF93DF93D82F0E944B0DAE
:101AE00081E00E948E0B87FD06C06BE973E087E7FB
:101AF00091E00E94FE0581E00E945D0DD23009F068
:101B00007CC06AE08DE10E94A00B60E78EE10E943C
:101B1000A00B63E28CE00E94A00B60E483E20E94D1
:101B2000A00B80917104882309F46CC083E30E94A8
:101B30008E0B682F6F7B83E30E94A00B80919C0328
:101B400090919D0323E0969587952A95E1F7C82FFC
:101B5000C37081E30E948E0B8877682F6360C23068
:101B600008F056C081E30E94A00B60E48FE20E945F
:101B7000A00B60E480E30E94A00B6091A7038FE1BB
:101B80000E94A00B64E389E30E94A00B6CE080E458
:101B90000E94A00B6FEF82E10E94A00BED2FF0E0FE
:101BA000E051FD4F6491609581E10E94A00B80E0BF
:101BB0000E94FE0760E08DE00E94A00B60E08FE0D5
:101BC0000E94A00BD11128C060915C0370915D034D
:101BD00080915E0390915F030E948A076B017C01F4
:101BE00086E00E945D0DC701B601DF91CF91FF90A5
:101BF000EF90DF90CF900C947F040E94970C0E948E
:101C0000470C87CF83E30E948E0B682F606493CFCD
:101C1000682F636881E3AFCF85E0DF91CF91FF90BC
:101C2000EF90DF90CF900C945D0DCF92DF92EF920A
:101C3000FF92CF93C82F81E00E948E0B877069E2DC
:101C400074E0C1F480919C03877009F060C0C130DA
:101C500041F41092300480914A0390914B030E940A
:101C6000F3060E94390D81E00E948E0B87FF06C0AB
:101C700062E074E087E791E00E94FE0581E00E9447
:101C80005D0D0E94470C63E28CE00E94A00B6EE1A8
:101C90008DE00E94A00B6BE082E10E94A00B62E14C
:101CA00083E10E94A00B6AEA8FE10E94A00B6FEF14
:101CB00081E20E94A00B81E00E94B30B68E380E404
:101CC0000E94A00B80E00E94FE07C11118C0609125
:101CD0005C0370915D0380915E0390915F030E94AD
:101CE0008A076B017C0185E00E945D0DC701B6018A
:101CF000CF91FF90EF90DF90CF900C947F0485E020
:101D0000CF91FF90EF90DF90CF900C945D0D8C2FD2
:101D1000CF91FF90EF90DF90CF900C94670D8FEFF5
:101D20009FEF90938103809380039093830380932C
:101D30008203909385038093840390938703809319
:101D400086038FEF90E09093890380938803ECE8FB
:101D5000F3E08CE0DF011D928A95E9F780E690E0E0
:101D600090939903809398038FEF8093AD03089528
:101D70006F927F928F929F92AF92BF92CF92DF929B
:101D8000EF92FF920F931F93CF93DF93CDB7DEB700
:101D900060970FB6F894DEBF0FBECDBF7B018A01FE
:101DA000282F30E0277F2230310549F024303105DB
:101DB00009F4CBC0232B09F09FC0D12C98C083FD20
:101DC00032C085EC92E00E94160990E1692EFE0176
:101DD00031966F0125ED822E22E0922E37E8732E88
:101DE0000115110509F060C06091C5027091C6022D
:101DF0008091C7029091C8020E94052A60960FB692
:101E0000F894DEBF0FBECDBFDF91CF911F910F9130
:101E1000FF90EF90DF90CF90BF90AF909F908F900A
:101E20007F906F900895E5ECF2E080E1DF011D9274
:101E30008A95E9F7CACF01151105E9F5E62FF0E01B
:101E4000EB53FD4F80818058808311E0D601E62D51
:101E50001D92EA95E9F7C6010E9416090981C6019B
:101E60000E94680207FF03C088898725888B112399
:101E700049F01981C6010E94680217FF03C08889D2
:101E80008725888BF601D5018D915D019191119780
:101E900089278C938A149B04B1F710E000E085EC4D
:101EA00092E00E9416099CCF85ECA82E82E0B82E05
:101EB000D701950160E0F90181919F019D91AF01EA
:101EC000415051098927FA0180836F5F7D010150DC
:101ED0001109603109F0AFCF0115110501F710E0CC
:101EE000B5CF8E0D9F1D0E941609B0E1DB0E8D2D22
:101EF00090E080179107A8F360E070E0CB017ECFFF
:101F000080E1E5ECF2E0DE01119601900D928A95F8
:101F1000E1F7CE0101960E941609FE013196970164
:101F2000205F3F4F9191D7018C9189278D937D013F
:101F300001501109A217B30719F00115110591F706
:101F40008091D4028F5F8093D40201151105C1F6F0
:101F5000D3CF9091DA02911106C06CE874E087E764
:101F600091E00E94FE05903141F440E150E06AEDBD
:101F700072E080E00E94B80E90E0E92FF0E0E652B7
:101F8000FD4F80819F5F9093DA020895DF92EF9278
:101F9000FF920F931F93CF93DF936FE270E0009750
:101FA00029F08136910530F061E370E08AEA91E032
:101FB0000E94FE05C091AD03D0E0CF3F11F4CFEFFA
:101FC000DFEFE0E8F3E02CE833E0DF0132961C9627
:101FD0008D919C911D974D915C91842395239387BE
:101FE00082872E173F0789F766E070E08CE893E060
:101FF0000E9421057C01892B09F08FC08CE0E0E86C
:10200000F3E0ACE8B3E001900D928A95E1F766E069
:1020100070E08CE893E00E9421057C01009709F4B0
:10202000DDC0419708F479C010E000E0CF3FDC0745
:1020300051F1C136D1050CF070C09E012F703327CD
:1020400081E090E002C0880F991F2A95E2F7FE0117
:1020500044E0F595E7954A95E1F7EE0FFF1FE45749
:10206000FC4F208131818C010223132380959095B0
:1020700082239323918380830115110509F44FC0B6
:1020800070E1E71AF1080E94A90FD82E0E94A90F4B
:102090009D2DB70124E0769567952A95E1F70E947A
:1020A000962934E0880F991F3A95E1F7ECE8F3E0C0
:1020B00070E060E0219131912115310559F1A901BC
:1020C0005695479545755575D901A41BB50BAD01BE
:1020D00043735373B695A795B695A795A373B3733A
:1020E0004A0F5B1FDA01A07FB07F4F705F7042958F
:1020F0005295507F5427407F54274A0F5B1FDA01C7
:10210000BB27452F55274A0F5B1F8417950780F083
:10211000841B950B605F7F4FCDCF10E000E0CFEFC9
:10212000DFEFB1CFA9014150510924233523409756
:102130000097C1F744275527421B530B42235323D3
:10214000CA018575957521E030E0892B11F030E0EA
:1021500020E0CA0183739373892B09F447C090E090
:1021600080E0820F931F9A012F703F70232B09F498
:1021700040C030E020E0820F931F30E020E04111AA
:1021800002C028E030E0820F931F860F971FFC01EA
:1021900044E0F695E7954A95E1F7EE0FFF1FE45707
:1021A000FC4FAC014F70552721E030E0B90102C06F
:1021B000660F771F4A95E2F7AB0120813181262710
:1021C000352731832083CF3FDC07B1F497FD06C06C
:1021D000803491050CF4885F8093AD03DF91CF913B
:1021E0001F910F91FF90EF90DF90089582E090E0B3
:1021F000B8CF24E030E0BFCF24E0D595C7952A952D
:10220000E1F7CC0FDD1FC457DC4F28813981022B49
:10221000132B19830883DACF809170039091710397
:10222000A0917203B0917303892B8A2B8B2B09F039
:102230004BC080919E0390919F031092AE038E7CC1
:10224000977A90939F0380939E0310922D0410928F
:10225000B4030E94B1058FEF8093AD038091980382
:10226000909199030E94C60F0E94470660935803FD
:102270007093590380935A0390935B0380919E035C
:1022800090919F0393FF06C064ED70E08AEA91E0AD
:102290000E94FE051092B203E0912704EF3F91F0F7
:1022A000EF70F0E0E852FD4FE491E093B1038460F9
:1022B00090939F0380939E038DE193E20E94F30627
:1022C00081E00895E3E1F1CF80E00895CF92DF92BD
:1022D000EF92FF92CF93C82F0E94A90FF82E0E9471
:1022E000A90F9F2D6C01853224EF920720F024E284
:1022F000C21A24EFD20AF12CE12CCC2369F06C2F06
:102300000E948A29292F30E0A4E2B4EF0E940C2A0F
:10231000C60ED71EE81EF91EC701B601CF91FF9069
:10232000EF90DF90CF900895CF92DF92EF92FF92DF
:102330006B017C01842F442331F00E946611C60E8C
:10234000D71EE81EF91E8091AE038823A9F0809164
:10235000680390916903A0916A03B0916B03A70190
:102360009601281B390B4A0B5B0BDA01C9011816C1
:1023700019061A061B068CF4C0926803D0926903F2
:10238000E0926A03F0926B0380919E0390919F0309
:10239000916090939F0380939E03FF90EF90DF9056
:1023A000CF900895AF92BF92CF92DF92EF920F93AA
:1023B0001F93CF93DF93DC011A141B04A4F590E163
:1023C000E5ECF2E0EF01892F19928A95E9F7F1E047
:1023D000F093D402F093C502E092CA024093CB027C
:1023E0005093CC026093CD027093CE020093CF0243
:1023F0001093D0022093D1023093D202FD01A5E1C7
:10240000B3E001900D929A95E1F7A501B60184E041
:10241000DF91CF911F910F91EF90DF90CF90BF9000
:10242000AF900C94B80EDF91CF911F910F91EF9068
:10243000DF90CF90BF90AF9008951F93CF93DF931D
:10244000CDB7DEB72F970FB6F894DEBF0FBECDBF66
:1024500080E00E945D0D0E94F705809146039091F7
:102460004703A0914803B0914903892B8A2B8B2BFA
:1024700009F047C085E794E064E473E00E94A80493
:102480000E946B068FE0E5E3F3E0DE011196019018
:102490000D928A95E1F7E5E3F3E08EE391E0DF0149
:1024A0009C011D9221503040E1F78FE0FE013196F2
:1024B000A5E3B3E001900D928A95E1F70E94A90F80
:1024C000182F0E94A90F912F9093A1038093A0032E
:1024D00010929F0310929E031092B30380E88093A2
:1024E00025040E94B10581E0809322042F960FB647
:1024F000F894DEBF0FBECDBFDF91CF911F910C943A
:102500008F0E83E794E0B8CF2F923F924F925F9265
:102510006F927F928F929F92AF92BF92CF92DF92F3
:10252000EF92FF920F931F93CF93DF93CDB7DEB758
:102530006C970FB6F894DEBF0FBECDBF998F888F12
:102540003B011092EE03452B09F51092EF03F12C9D
:10255000E12CE614F704F4F0C7016C960FB6F8947A
:10256000DEBF0FBECDBFDF91CF911F910F91FF90C6
:10257000EF90DF90CF90BF90AF909F908F907F9023
:102580006F905F904F903F902F90089581E08093DF
:10259000EF03DDCFC88CD98CCE0CDF1CF601208177
:1025A000223050F1422F4250550BFA014231510571
:1025B00018F5E557FD4FE4918E2F90E09D8B8C8BA5
:1025C000892B51F2C3018E199F09EC89FD898E1761
:1025D0009F070CF4C1CF2250283080F4E22FF0E0A6
:1025E000EC50FD4E0C94FF29FF120713CA1453142C
:1025F0002714FE12BC14DB14E0E0DECF3701EC89B7
:10260000FD89EE0DFF1D730137017F01A2CFD601B9
:1026100007E01B8A1A8A2A893B892B5F3F4F4901B1
:102620009C014A895B89241B350B253031050CF44C
:1026300093C011962C91119712964D915C9113971E
:1026400014963C9114973077E22FE295EF70303575
:1026500058F0303509F078C04115510509F47AC0B9
:102660004427452B09F076C0E63030F4F0E0E7511E
:10267000FD4FE491EF3F09F40D7F2F70283038F4BF
:10268000E22FF0E0E653FD4FE491E03809F40B7FD0
:1026900015962C91233009F454C08CE0E0E8F3E067
:1026A000DE01119601900D928A95E1F780919803D1
:1026B000909199039B8F8A8F412C10E0073009F08D
:1026C00077C09F8A8E8A160181E0412C10E0EE8946
:1026D000FF8935970CF469C0F101A280B3801181A4
:1026E0004480F42DF077F98BF035D9F5512C852DF8
:1026F000A0FE34C00E9428065394B694A79428E004
:102700005212F5CF20919803309199034E895F8939
:10271000455051095F8B4E8B55E0250E311C81E0F1
:102720002115310509F480E0A1014C195D09481516
:1027300059056CF2232BD9F1A12EA2948FE0A82287
:102740003DC09B8A8A8A67CF303609F489CF3037FB
:1027500009F482CF0E7F88CF00E09FCF0E94010650
:10276000CBCF8989803578F4805F8C8F5988FC8D38
:102770005F1640F6852DA0FE15C00E94BF0453943D
:10278000B694A794F4CF512C9989852D903639F4BD
:102790000E94BF045394E0E65E12F6CFE8CF0E9499
:1027A000EF04F8CF0E94EF04EACF811101C006E0E8
:1027B000A12EA2947FE0A722073041F480919803D4
:1027C0009091990307E0079780F405E08CE0FE0103
:1027D0003196A0E8B3E001900D928A95E1F72A8D39
:1027E0003B8D3093990320939803BB24B394D12C51
:1027F000C12CC4018C199D0905976CF0602F83E0F2
:102800000E949B05B82E35E0C30ED11CC814D90414
:1028100014F48111EECF073099F4842D8F709091CC
:10282000B00389138093B0031F7060E8183028F458
:10283000E12FF0E0E653FD4F64918A2D0E9453058D
:102840004A895B89E40EF51EBB2001F1D8CE2091A8
:10285000A603022E000C330BC901029697FD0396C6
:102860009595879595958795182F1F734F970CF021
:102870001FE110932404D09043030091EE0386E0FF
:102880000E947C05811104C00093EE03F701BCCEC9
:102890008D2D0E947C058823B9F3812F0E947C0531
:1028A000882391F3ACCEC7010196E88DF98D8E0F88
:1028B0009F1FFC012081122F1F7030E044E03595EE
:1028C00027954A95E1F7022F07700E94E905272F07
:1028D000382F492F5527A4E6B0E00E94222A4B0149
:1028E0005C01F0E88F1AF1EA9F0AF3E0AF0AFCE11D
:1028F000BF0A21E082162AE5920622E6A20622E01D
:10290000B20618F060E070E0CB0130EC30932A049E
:10291000163050F4E12FF0E0E751FD4FE491EF3F26
:1029200019F042EC40932A04611571058105910567
:1029300029F020912A04216020932A04043028F4ED
:1029400020912A04246020932A0420912A04273C01
:1029500061F41093290460937C0370937D0380934A
:102960007E0390937F0300932804622F677085E0B5
:102970000E949B05B82E68CFF60181818F7009F403
:1029800081E080932204F2E0F0932C0488E00E941E
:102990007C05F0CFF60181818F708093AE030E9499
:1029A0004706609368037093690380936A0390936A
:1029B0006B0384E0ECCFF60181818F738093270451
:1029C00089E0E5CF8A3110F48F5B089596EE980F79
:1029D0009A3110F4895B08959CEC980F9A3010F4AA
:1029E000845008958E3331F08F3331F081E090E0E0
:1029F0000E94E02D8BE208958FE208952F923F927E
:102A00004F925F926F927F928F929F92AF92BF92FE
:102A1000CF92DF92EF92FF920F931F93CF93DF93AA
:102A2000CDB7DEB7C850D3400FB6F894DEBF0FBEA7
:102A3000CDBF7C010E9447064B015C014AE0B7FE16
:102A40000DC06DE287E794E00E94180366277727A0
:102A5000CB01681979098A099B094AE00E94660836
:102A600084EE91E00E944B08F7013197E431F105C3
:102A700008F06FC4E25CFA4E0C94FF29521557150A
:102A80005A155D1560156315A919661569156C153C
:102A9000DC15DF15E215E515E815A919EB15A319E5
:102AA000C215A6198AE492E00E9458086BC08AE316
:102AB00092E0FACF89E292E0F7CF87E192E0F4CF9B
:102AC0008CE092E0F1CF82E092E0EECF83EF91E0F4
:102AD000EBCF82EE91E0E8CF82EB91E00E945808C4
:102AE00080912E0487FF04C085EA91E00E94580877
:102AF000809130048823C1F18BE991E00E94650345
:102B00006091300470E090E080E04AE00E94660846
:102B100087E891E00E9465038BE591E00E946503E0
:102B200010E000E08091300480171106A9F0A4F0B5
:102B3000E0912F04C8018B5C9C4FE80FF92FF11D29
:102B4000E450FF4F608170E090E080E040E10E943F
:102B500066080F5F1F4FE6CF85E791E00E944B08A4
:102B600084E791E00E944B080E944706AB01BC013C
:102B700048595647664F7F4F23E93FE18BEF92E07C
:102B80000E943207C85FDC4F0FB6F894DEBF0FBE5D
:102B9000CDBFDF91CF911F910F91FF90EF90DF900C
:102BA000CF90BF90AF909F908F907F906F905F90ED
:102BB0004F903F902F9008958DE491E075CF84E47D
:102BC00091E072CF86E391E06FCF89E291E06CCF24
:102BD0008BE191E069CF80E191E00E94580870900C
:102BE0003004772079F2A0909C03B0909D038A2D49
:102BF000877006E0E02EE80E950183E03695279574
:102C00008A95E1F72370C50135E0969587953A9549
:102C1000E1F783703090B103C0907803D0907903CE
:102C200031E0C31AD108B5E0FB2E882351F0A6E0AD
:102C3000FA2E813031F017E0F12E823011F0F8E0F9
:102C4000FF2E222349F0EAEF9E2E213039F064EF67
:102C5000962E8824839403C07DE7972E812CA09024
:102C600064036090650350906603409067030E9480
:102C700047061F92BF92DF92CF921F92FF928F92D0
:102C80009F921F923F921F92EF921F927F924F92BC
:102C90005F926F92AF929F938F937F936F9387EE24
:102CA00091E09F938F930E944C2BF090B0030E9471
:102CB00047061F92FF929F938F937F936F9384E3B6
:102CC00092E09F938F930E944C2B0FB6F894DEBF37
:102CD0000FBECDBF8AE091E00E9465036091B90309
:102CE00070E090E080E04AE00E94660886EC90E0A8
:102CF0000E946503F12CE12C8091B9038E151F040D
:102D0000B1F0ACF0E0912F04C7018B5C9C4FE80F51
:102D1000F92FF11DEB57FF4F608170E090E080E0EC
:102D200040E10E9466085FEFE51AF50AE5CF84E707
:102D300091E00E944B0880EC90E00E946503609156
:102D4000300470E090E080E04AE00E94660888EA83
:102D500090E00E946503F12CE12C809130048E15E7
:102D60001F04B1F0ACF0E0912F04C7018B5C9C4FC5
:102D7000E80FF92FF11DE450FF4F608170E090E003
:102D800080E040E10E9466086FEFE61AF60AE5CFA0
:102D900084E791E00E944B082091300481E394E0A5
:102DA000CD5FDC4F99838883C350D34090E080E0AF
:102DB000CF5FDC4F19821882C150D340E22FF0E080
:102DC000C95FDC4FF983E883C750D340C95FDC4F4C
:102DD00028813981C750D340CF5FDC4F488159816A
:102DE000C150D340421753070CF05DC1CD5FDC4F9B
:102DF000E881F981C350D3402191CD5FDC4FF98345
:102E0000E883C350D340022E000C330B6C011CE04E
:102E1000D594C7941A95E1F7892E992487FC9A9442
:102E20008C249D24390168247924F1E06F227724D1
:102E30007C014DE0F594E7944A95E1F72C01452C8F
:102E4000550C550845944E245F24F901F595E795F6
:102E5000E425F525EE0FFF1FE270FF27E629F7298D
:102E6000DC01BB0FAA0BBB0FBA2FAA1F1C01232C1E
:102E7000330C3308259425942A263B26A901559521
:102E800047955595479542255325440F551F440FA7
:102E9000551F447055274E0F5F1F092F001F002735
:102EA000001F10E03C01EBE075946794EA95E1F7B0
:102EB000530161E0A622BB24A026B12623FB77277D
:102EC00070F9CB5FDC4F7883C550D340CA5FDC4FCD
:102ED0001882C650D340CB5FDC4FE881F981C550E2
:102EE000D340AE26BF26F3E0AA0CBB1CFA95E1F74F
:102EF0004A0D5B1DB901E4E075956795EA95E1F728
:102F00006C257D25F4E0660F771FFA95E1F7607177
:102F10007727460F571FF701E825F925B90168946F
:102F200014F8759567951694E1F76E277F27E5E00D
:102F3000660F771FEA95E1F760727727640F751FB8
:102F4000AD0144255525F901689415F8F595E795E7
:102F50001694E1F74E275F27E6E0440F551FEA95E8
:102F6000E1F740745527640F751F5101F1E0AF225E
:102F7000BB24A026B1262227330F221F33272A2560
:102F80003B253695322F222737952795260F371F59
:102F9000B301682779276170772760277127762F1B
:102FA0006627620F731F9C0135952795C226D3268D
:102FB000DC2CCC24DD0CCC2422E0D2226C0D7D1D37
:102FC000AC0155954795559547954E255F25542F4E
:102FD0004427550F550F44275470640F751FFC018B
:102FE00043E0F595E7954A95E1F7EA27FB27FE2FA1
:102FF000EE27FF0FFF0FFF0FEE27F8706E0F7F1FFA
:103000009C01E4E035952795EA95E1F78226932621
:1030100031E08322992480269126982C882492944A
:10302000F0EF9F22680D791D9C01A5E0359527954D
:10303000AA95E1F724253525322F22273295330F23
:10304000307E22273072620F731FAC0126E0559547
:1030500047952A95E1F74225532550E4459F502D89
:103060004427112444275074640F751F880F892F3B
:10307000881F990B86259725802791279927869564
:1030800097958827860F971FCF5FDC4F488159811E
:10309000C150D3404F5F5F4FCF5FDC4F59834883B0
:1030A000C150D34093CE9F938F939F938F938DE482
:1030B00092E09F938F930E944C2B0091300410E07C
:1030C0000F900F900F900F900F900F90011511051A
:1030D00009F51982C801837099278230910509F496
:1030E0000AC1039709F41DC18E010F5F1D4FBE0178
:1030F0006F5F7F4FC8010E94452B1F930F938DE791
:1031000092E09F938F930E944C2B0F900F900F9003
:103110000F9038CDC80163E070E00E94AA294B01EE
:10312000A2E0CA2ED12C8130910539F0D12CC12CCE
:10313000029719F4B3E0CB2ED12C7401EE0CFF1CD6
:10314000EE0CFF1C87010C0D1D1D053551E0150708
:103150005CF662E374E0CF5FDC4F79836883C15033
:10316000D340CE0101965C01312C212C82149304B2
:1031700009F455C0CF5FDC4FE881F981C150D340DD
:103180004080512C542C4424052C000C66087708F0
:103190008181482AD301C20162E1B695A79597952E
:1031A00087956A95D1F78F730E94E214F5018083A9
:1031B000D301C2017CE0B695A795979587957A953E
:1031C000D1F78F730E94E214F5018183D301C2010C
:1031D000E6E0B695A79597958795EA95D1F78F7311
:1031E0000E94E214F5018283842D8F730E94E21401
:1031F000F5018383FFEF2F1A3F0ACF5FDC4F288151
:103200003981C150D3402D5F3F4FCF5FDC4F3983B1
:103210002883C150D34034E0A30EB11CA7CFC11402
:10322000D10441F4E1E0F0E0EC0FFD1FE00FF11FED
:10323000108250CF42E0C416D10489F4E1E0F0E0FE
:10324000EC0FFD1FEE0DFF1D81E48083FE01EE0DEE
:10325000FF1D8283FE01EE0DFF1D13823BCF53E065
:10326000C516D10409F036CFF401EE0FFF1FE80DAB
:10327000F91DEE5CFB4F8080912C982C8824092C42
:10328000000CAA08BB08D501C40122E1B695A79598
:10329000979587952A95D1F78F730E94E214E1E004
:1032A000F0E0EC0FFD1FEE0DFF1D8083D501C40182
:1032B0003CE0B695A795979587953A95D1F78F738A
:1032C0000E94E214FE01EE0DFF1D8283D501C401B0
:1032D00046E0B695A795979587954A95D1F78F7350
:1032E0000E94E214FE01EE0DFF1D8383FE01EE0D30
:1032F000FF1D1482EFCE033561E016070CF0F4CE0B
:10330000E1E0F0E0EC0FFD1FE00FF11F8DE38083A3
:10331000FE01E00FF11F8283FE01E00FF11F138217
:10332000E3CE043571E0170709F4DECEE1E0F0E00A
:10333000EC0FFD1FE00FF11F8DE38083FE01E00F16
:10334000F11F1282D1CE8AE990E0AECB88E790E0FF
:10335000ABCB88E690E00E946503B70190E080E087
:103360004AE00E94660884E791E00E944B080ACC7C
:10337000CF92DF92EF92FF92CF93DF93EC01C12CBB
:10338000D12C7601C3940C2E04C0CC0CDD1CEE1C99
:10339000FF1C0A94D2F7E3FC03C0CE010E94FE1486
:1033A000D701C60188279472AA27BB27892B8A2BAD
:1033B0008B2B01F1E0913903F0913A033097D1F072
:1033C0002091300440912F04211102C0442391F038
:1033D00080912E0450E060E084FF04C0DA01A05D1B
:1033E000BB4F6C9130E04F5C5B4F80913B03909101
:1033F0003C030995CC2484E0D822E822FF24CD2880
:10340000CE28CF2819F1E0913D03F0913E0330978B
:10341000E9F010923E0310923D03C231D10541F113
:1034200080912E0483FD24C09091B80361E099231C
:1034300039F0082E000C990B692F661F6627661F4E
:1034400070E080913F03909140030995E09135032E
:10345000F0913603309771F0BE018091370390915F
:103460003803DF91CF91FF90EF90DF90CF900994D8
:1034700060E0E6CFDF91CF91FF90EF90DF90CF90AB
:1034800008952F923F924F925F926F927F928F9208
:103490009F92AF92BF92CF92DF92EF92FF920F93E3
:1034A0001F93CF93DF938091A4038111E6C481E041
:1034B0008093A40385EC282E82E0382E90E1692EBB
:1034C00025EF422E2AE0522E30E1832E3BE0932E50
:1034D00080919E0390919F039C01217C3327232B95
:1034E00081F4409170035091710360917203709167
:1034F0007303452B462B472BF1F482FD28C00E9415
:103500000C118091A40381508093A4038111E0CF1A
:10351000DF91CF911F910F91FF90EF90DF90CF90AF
:10352000BF90AF909F908F907F906F905F904F90E3
:103530003F902F90089596FF0AC09F7B90939F0322
:1035400080939E038DE79FE10E94F306DACF0E94ED
:1035500047066B017C01C0919E03D0919F03CE0171
:103560008C739927892B09F47DC4D3FF4CC18091BA
:10357000980390919903009711F00E94C60FC09292
:103580005803D0925903E0925A03F0925B03809162
:103590009E0390919F03977F90939F0380939E0338
:1035A000B701A6018091AE03811106C080919E03F0
:1035B00090919F0390FF12C08091680390916903DE
:1035C000A0916A03B0916B038A019B01081B190B40
:1035D0002A0B3B0B37FF02C0AC01BD0121E7C20E35
:1035E00022E0D21EE11CF11CDB01CA018C199D09ED
:1035F000AE09BF09B7FF22C47090B203C472DD27C1
:10360000CD2B09F410C180919E03C091B40385FDB8
:1036100007C1109231049091A0038091A10390936F
:1036200042048093430443E150E061E374E08AE0A4
:103630000E94B80E6093470470934604809345043B
:103640009093440487E1809330048091A00390918B
:10365000A10301969093A1038093A00390924B0342
:1036600080924A03E72DF0E0E751FD4FE49180910D
:10367000B30340E2849FC0011124EF798E2B909315
:103680009D0380939C037092A90380919E03909167
:103690009F038F76967F8068986090939F038093B6
:1036A0009E03A091AD03A03670F5B0E020E43DE0AC
:1036B00043E050E00E94222A8B019C01005A1A4CE0
:1036C000274F334E0036EFE91E07E0E22E07ECE10C
:1036D0003E0708F08EC2605A764A8340934E60934C
:1036E0006403709365038093660390936703E0918E
:1036F0002704EF3F09F4FBC2EF70F0E0E852FD4F02
:10370000E491E093AA039091B1038091AA039817E2
:103710000CF4892F8093AB0381E190E00E94B819EB
:10372000109258031092590310925A0310925B039F
:1037300081E00E948E0B877059F080E00E945D0D41
:103740000E944706625C7F4F8F4F9F4F0E948A07FF
:10375000C0906003D0906103E0906203F090630337
:103760001C141D041E041F040CF0C3C281E00E943F
:10377000670D8091640390916503A0916603B091F9
:103780006703C3E6DFEF81349D4DAA44BF4110F4C7
:10379000CCE5DFEFE0911303F09114038781C80FAC
:1037A000D11D87FDDA950E944706615E7F4F8F4FDE
:1037B0009F4F0E948A070E94470610E0C60ED71E40
:1037C000E81EF91E8BE10E948E0B181708F4182FC3
:1037D0000E9447066C197D098E099F0997FDF2CF5B
:1037E00080E00E945D0D8091AC03082E000C990BC7
:1037F000C10FD11DC817D9070CF47BC280914A03B1
:1038000090914B03A1CE4091580350915903609180
:103810005A0370915B03C6CE872D0E941C0B782E35
:10382000C150D0F7F6CE8091740390917503A091AA
:103830007603B091770380389F4FAF4FBF4F18F09A
:103840008EEE9FE181CE80912D0481110DC080917B
:10385000780390917903A0917A03B0917B038F3F15
:103860009F4FAF4FBF4F61F3E0909E03F0909F03D7
:1038700088E1E822FF2490E1E916F10409F451C13E
:10388000A090B9038091B703882309F44CC18091BB
:10389000EF03882309F447C1C090EE03CC2009F45C
:1038A00042C10C2D10E0A80160EF73E089E394E0C1
:1038B0000E943C2B085F1F4F1092EE031092EF0303
:1038C00020912A04222331F026FF30C180E42827EA
:1038D00020932A0420912B04222331F026FF36C1A5
:1038E00080E4282720932B0480912C04823009F057
:1038F0003DC181E080932C04093111050CF058C1C1
:1039000080912104882361F08091A2039091A30308
:1039100097FF04C090E080E00E947005109221049F
:10392000CA2DD0E02596F0E1EF16F10411F4C4E0C1
:10393000D0E0C00FD11FC134D1050CF022C191E0FD
:1039400020E1E216F10409F490E0E091B203E630E0
:1039500008F01AC1F0E0EE52FD4FE491EC171D069D
:1039600008F426C180E48093310480911F044091C3
:103970002504482B2091A2033091A30337FD06C1F3
:1039800021523109203B324008F400C120E488EF85
:10399000800F842B822B80933604409170033091EA
:1039A000710320917203809173034093320430932A
:1039B0003304209334048093350480912D048111C5
:1039C00018C02091B503211114C040917803509183
:1039D000790360917A0370917B034F5F5F4F6F4F64
:1039E0007F4F409378035093790360937A037093E9
:1039F0007B03209178033091790321503109209382
:103A000037043093380410921F049923D9F1909110
:103A1000B803992309F4BCC090E890933104811154
:103A200003C081E080932D04F801EF5CFB4F80918F
:103A3000B7038083C8018E5C9B4F6C01B12CA5013C
:103A40006AEB73E00E943C2B00917803109179039C
:103A500020917A0330917B0301501109210931092A
:103A600040917003509171036091720370917303E0
:103A70008091B703811199C08FEF93E0F12CE12C75
:103A80000E94D2118E010450110980917803909107
:103A90007903A0917A03B0917B030197A109B10941
:103AA0005091700340917103309172032091730320
:103AB000F101662D11926A95E9F7E9E4E093C502F8
:103AC0001092CA020093D4025093CB024093CC02CE
:103AD0003093CD022093CE028093CF029093D002F8
:103AE000A093D102B093D202EFEFF3E0A5E1B3E0EF
:103AF000862D01900D928A95E1F7A80161E374E0AB
:103B000082E00E94B80EF801EF5CFB4F6383728382
:103B100081839083C093300450924B0340924A03B8
:103B2000A1CDA12CB4CE08E010E0C6CEC8018B5CBC
:103B30009C4FFC01E450FF4F35E0308383509F4F92
:103B40002770FC0120830E5F1F4FC4CEC8018B5C21
:103B50009C4FFC01E450FF4F3AE0308383509F4F6D
:103B60002370FC0120830E5F1F4FBECE882309F413
:103B7000C3CEF801EF5CFB4F88E080830F5F1F4FDF
:103B8000BBCEE8012496E0CEE0E0E8CE20E0FFCE18
:103B90008091B003882309F447CF8091B503811148
:103BA00043CF81E08093B5033FCF8FE094E066CFB1
:103BB00088E080932E048091B803811104C0809125
:103BC0002D04882319F028E420932E0480919E036D
:103BD00090919F0387769E7F90939F0380939E038F
:103BE0001092300410922F048AE090E00E94B819DD
:103BF00088CC0036F9E01F07F9E32F07FCE13F0707
:103C000028F4605A70418C41934E69CD003643E7E9
:103C1000140741E524074CE1340728F4605A7A4739
:103C20008443934E5CCD0036EDED1E07E9E62E078A
:103C3000ECE13E0728F4605A744E8C44934E4FCD0D
:103C40000036F7E41F07F2E82F07FCE13F0728F4EE
:103C5000605A7E448546934E42CD003641EB1407B0
:103C60004AE924074CE1340728F4605A784B8D4721
:103C7000934E35CD0036EBE11E07E3EB2E07ECE16A
:103C80003E0728F4605A72428649934E28CD00368A
:103C9000F5E81F07FBEC2F07FCE13F0728F4605A0B
:103CA0007C488E4A934E1BCD00364FEE140743EEF0
:103CB00024074CE1340728F4605A764F864C934E23
:103CC0000ECD0036E9E51E07ECEF2E07ECE13E07CE
:103CD00028F4605A70468F4D934E01CD00936403D3
:103CE00010936503209366033093670300CDE3E1EF
:103CF00008CD80919C03877009F06AC00E94390D3D
:103D000081E00E945D0D80E00E94B30B60E085E2DF
:103D10000E94A00B65E086E20E94A00B0E94470C67
:103D20000E94E00B69E28AE00E94A00B64E380E459
:103D30000E94A00B609130046F5F82E30E94A00B91
:103D40006091300480E00E94A00B4091300450E06C
:103D500020E061E374E080E80E94250B81E00E948E
:103D6000FE07609158037091590380915A03909116
:103D70005B03611571058105910531F10E948A0788
:103D80006115710581059105F9F0009152031091BB
:103D900053032091540330915503DC01CB01800F74
:103DA000911FA21FB31F8093520390935303A093BC
:103DB0005403B09355038091560390915703019695
:103DC000909357038093560383E00E945D0D99CB37
:103DD0000E944B0D81E00E948E0B87FD06C061E2C0
:103DE00073E087E791E00E94FE0581E00E945D0D8F
:103DF0000E94970C0E94470C68E08AE00E94A00B8A
:103E00000E94E00B64E389E30E94A00B6CE780E46E
:103E10000E94A00B6FEF82E10E94A00B67EF81E18F
:103E20000E94A00B60E08EE00E94A00B60E08DE09D
:103E30000E94A00B6091300482E285CF80919E03A6
:103E400081FF05C0411551056105710589F0415794
:103E500052406109710921E93FE184E493E00E9445
:103E600032074FCB40E050E0BA01C1FDF0CF49CB63
:103E700041E050E060E070E0EACF82E08093A4038C
:103E800047CB80919E0390919F0383FF35C0109292
:103E9000B90382FF2CC0877E90939F0380939E037B
:103EA00082E190E00E94B81980919E0390919F0357
:103EB00085709927892B01F50E94F70580914603AB
:103EC00090914703A0914803B0914903892B8A2B15
:103ED0008B2B79F485E794E064E473E00E94A804F6
:103EE0000E946B0680E00E945D0D0C94411A87765B
:103EF000D3CF83E794E0F0CF0895EEE9F3E080813B
:103F000091818E7D9F7B91838083109270031092AC
:103F1000710310927203109273030E94411F0C945C
:103F20000C110C94411A80919E0390919F0387FF7E
:103F300004C08AE592E00C9458088C799927892B63
:103F4000E1F43091B2034091980350919903832F8B
:103F500090E04730510588F0863078F4FC01EE524D
:103F6000FD4FE491EE2349F0EA3190F5FC01E65172
:103F7000FD4FE4910196EF3F61F780919E03909190
:103F80009F039C012C793327232BF9F42DE0E0E0EB
:103F9000F1E0AAEBB3E001900D922A95E1F71092BF
:103FA000B80321E02093B7032DE02093B9039C01CF
:103FB000286030939F0320939E0382FD04C01092DB
:103FC0002D041092B5030E94411A83E792E0B3CF0B
:103FD000381799F260E80E945305CFCF0E94411F25
:103FE0000E941D128CE090E00E94B8190C940C11F4
:103FF000CF9380919E0390919F03877790939F0327
:1040000080939E031092B50310922D042091EE032D
:10401000222351F03091EF03332309F466C080610D
:1040200090939F0380939E030E9447066E5E75489F
:104030008F4F9F4F40E00E94941180912E04877013
:1040400079F080919E0390919F0394FF09C09F7E19
:1040500090939F0380939E038FE090E00E94B81995
:104060008AE090E00E94B8190E94411A8091A20350
:104070009091A3038197B4F18091B2030E941C0B2D
:10408000C82F20919803309199038091B203273073
:10409000310508F4C82F8C1332C08091A20390918F
:1040A000A303813F92404CF080919E0390919F0327
:1040B000906490939F0380939E0363E18C2F0E94F2
:1040C000530580919E0390919F039C013061309332
:1040D0009F0320939E032817390721F08EE090E07C
:1040E0000E94B81981E0CF9108951092B803109200
:1040F000B7032093B9031092EE03886091CFCC23CD
:10410000E1F290E080E00E947005D7CF80912D040D
:104110008823B1F1883020F58F5F80932D0480FFD4
:1041200007C08091B2030E941C0B60E80E945305F7
:1041300060915C0370915D0380915E0390915F03D9
:1041400043E00E94941180919E0390919F038F778A
:1041500090939F0380939E030E94411A81E00895EB
:1041600080E680932E048091A2039091A303019690
:104170000E9470051092300410922F040C94F81FC6
:104180008091B503882379F09091B003891758F492
:104190008F5F8093B5030E9447066E5E75488F4F10
:1041A0009F4F40E0CECF80E2DCCF2F923F924F92E4
:1041B0005F926F927F928F929F92AF92BF92CF92B7
:1041C000DF92EF92FF920F931F93CF93DF9300D074
:1041D00000D000D0CDB7DEB780919E0387FFE5C148
:1041E000F0903004F1101AC026960FB6F894DEBF96
:1041F0000FBECDBFDF91CF911F910F91FF90EF9038
:10420000DF90CF90BF90AF909F908F907F906F90F6
:104210005F904F903F902F900C9486202F2D30E090
:104220003E832D832C30310544F41092300480916C
:104230002E0480FFD9CF80E0B9C180913104982F3E
:10424000937099F7807E8983803611F0803A69F700
:1042500082E394E00E94E9050091700310917103DC
:1042600020917203309173036017710782079307DF
:10427000E1F6309136043B833F70E32EC32ED12C00
:104280001601A8E02A0E311C2D813E8124503109EF
:104290003E832D832215330544F288248A94982C7A
:1042A000221633064CF4F101EF5CFB4F2081822E85
:1042B000912CD60119961D014090740350907503FE
:1042C0006090760370907703009137041091380462
:1042D000041915090F3F100709F078C021E0421AB0
:1042E00051086108710820E1E5ECF2E0DF01322FAE
:1042F0001D923A95E9F739E43093C50231E03093E5
:10430000CA02ACEFAF0DAC83A093D4026093CB0292
:104310007093CC028093CD029093CE024092CF0254
:104320005092D0026092D1027092D202EFEFF3E08D
:10433000A5E1B3E001900D922A95E1F74D815E81F0
:1043400061E374E082E00E94B80E9B01AC01ED8154
:10435000FE81EF5CFB4F60817181828193810E94BD
:10436000052A261737074807590709F05ECF8091BD
:10437000740390917503A0917603B091770348166A
:1043800059066A067B0638F584159505A605B70516
:104390000CF44BCF0197A109B109481659066A06DA
:1043A0007B0609F042CF80912004882309F43DCF99
:1043B000B981B03A09F039CF80E280931F048114AB
:1043C000910409F40CC101E010E033C0400E511E0D
:1043D000611C711C88CF0130104408F026CFD30136
:1043E000C2010196A11DB11D8093740390937503C2
:1043F000A0937603B0937703398180E2303A09F0D5
:1044000080E08093200480931F0410E000E081147A
:10441000910441F4EE2031F08D819E8128163906F9
:104420000CF403CF80911F04811103C09B8194FF82
:1044300009C080919E0390919F03806190939F0398
:1044400080939E031092B4031092210480EC9FEF9E
:104450000E94700510922A0410922C04E0919C0393
:10446000F0919D038E2F877033E0F695E7953A958E
:10447000E1F7E370F0E0A3E08A9FE00DF11D112465
:10448000EB54FD4FE4918091A503082E000C990B8D
:1044900080549109ED58FF0B8E1B9F0B97FD80E018
:1044A00080932304A401B60189E394E00E9484125E
:1044B000012B09F0BACEBFEF8B169B0699F12D8127
:1044C0003E81221933093E832D831216130654F5BB
:1044D000C1018F5C9B4F9A838983409170035091F7
:1044E000710360917203709173038FEF93E08114F5
:1044F000910411F08FE094E0AD80BE80C980DA8035
:10450000EE24E394F12C930182010E94D2118114D4
:10451000910441F450E040E06D817E8189819A816F
:104520000E94841290912D04992349F0AB8120E8D8
:10453000A5FF20E480912E04822B80932E0480918D
:104540002E04181419043CF1806280932E042092EA
:104550002F0410923004992321F080912E0486FDBF
:1045600043CE26960FB6F894DEBF0FBECDBFDF91C7
:10457000CF911F910F91FF90EF90DF90CF90BF9060
:10458000AF909F908F907F906F905F904F903F90F3
:104590002F900C94F81F806180932E0420922F049A
:1045A000FC80F218F0923004D6CF81E026960FB648
:1045B000F894DEBF0FBECDBFDF91CF911F910F9159
:1045C000FF90EF90DF90CF90BF90AF909F908F9033
:1045D0007F906F905F904F903F902F900895EE20C6
:1045E00009F4F1CE01E010E017CF80913004811181
:1045F0000EC0A0912204B0E0119624E234EF0E9494
:104600001B2A2091290445E255E20C944C0A0E9491
:10461000D520882371F308958091300481110BC057
:1046200010922E040E944706655E78448F4F9F4F7C
:1046300042E00E9494110C94D5208091B603882307
:1046400041F00E948F0E85E090E00E94B8190C9412
:10465000411A81E08093B603F6CFCF92DF92EF92BA
:10466000FF92CF93DF9380919E0390919F0382FDF1
:1046700022C085FD0DC08F7790939F0380939E038A
:1046800081E0DF91CF91FF90EF90DF90CF90089580
:104690008F7590939F0380939E038091B4038A301B
:1046A00018F48F5F8093B40389E090E00E94B819FA
:1046B0000E94411AE5CF8F7790939F0380939E03CA
:1046C00084E190E00E94B8198091AF038093AD031C
:1046D00080919803909199030E94C60F80912D04B8
:1046E0008F5F80932D04C82FC7701092B203809102
:1046F0009E0390919F03977F90939F0380939E03C7
:104700000E9447066B017C012091B20380E190E09A
:1047100002C0959587952A95E2F70E946611C60E0C
:10472000D71EE81EF91EC0925803D0925903E0929A
:104730005A03F0925B03C12CD12C7601C394CC2395
:1047400099F0C12CD12C7601C1E9DFE10E94470626
:10475000AB01BC014C0D5D1D6E1D7F1D9E0184E4EF
:1047600093E00E9432078CCFC6EFD4E2EFCF809166
:104770002E0480FF0C942D2380E00895CF92DF92C9
:10478000EF92FF920F931F93CF93DF9380912E04AC
:1047900080FF05C080913004882309F402C1809114
:1047A0009E0390919F0387FFE6C084729927892B0F
:1047B00051F4DF91CF911F910F91FF90EF90DF9017
:1047C000CF900C94B7231091300411110AC0DF91DF
:1047D000CF911F910F91FF90EF90DF90CF900C94AD
:1047E0002D23113111F0113221F780913104837E94
:1047F0008032F9F6C12FD0E0AE014150510962E399
:1048000074E080E00E94B80E2497AE0161E374E08A
:104810008AE00E94B80E6B017C01CF5CDB4F68819F
:1048200079818A819B810E94052AC616D706E806EF
:10483000F90609F0BECF88E394E00E94E905609391
:10484000700370937103809372039093730385E3F5
:1048500094E00E94E905992760936C0370936D03BF
:1048600080936E0390936F031132D1F480914D04C5
:104870008130B1F49EE3E92E94E0F92EC0E0D70137
:1048800011960C9111978C91102F082FD0E1DC0F0D
:10489000DC1373C0B2E0EB0EF11CCD2FD03679F7EC
:1048A0008091A0039091A1030197E7E0F4E028E054
:1048B000DF011D922A95E9F721E02093FF0326E00E
:1048C000E2E3F4E0A0E0B4E001900D922A95E1F774
:1048D000809306049093070480E1EFEFF3E0AFE0EC
:1048E000B4E001900D928A95E1F782E080930F0485
:1048F00040E150E06FEF73E080E00E94B80E40E1CD
:1049000050E06FE074E080E00E94B80E80919E035A
:1049100085FF08C0C091B4038091B203C150E0F597
:104920008093B20380919E0390919F0389759D7F30
:10493000986090939F0380939E0310922D040E9491
:10494000C50580EC9FEF0E94700580913C04982F74
:104950009F7090932904829587708093280480919A
:104960003D048823E1F08093220486E090E00E94D9
:10497000B8190E94411A81E015C0C03609F48ACFE7
:104980008C2F00FF06C00E94BF04CF5F16950795CD
:104990007FCF0E94EF04F9CF0E941C0BBFCF81E0B4
:1049A000E2CF80E0DF91CF911F910F91FF90EF90C8
:1049B000DF90CF9008958091300481110AC020913A
:1049C00029044DE255E268ED78EB85E090E00C9427
:1049D0004C0A0E94BE23882391F3089580913004ED
:1049E000811102C010922E040C94BE2388E090E046
:1049F0000E94B8190C94411A82E080932E04E09131
:104A00002904F0E0E751FD4FE491F0E0EF77E06832
:104A1000F0939D03E0939C0380917C0390917D0330
:104A2000A0917E03B0917F0380936403909365030C
:104A3000A0936603B09367031092300483E190E083
:104A40000E94B81980E00C94150E8CE093E29093CC
:104A50004B0380934A030C94FC248EEE94E29093D3
:104A60004B0380934A030C94FC2421E020932E04F2
:104A7000ECE9F3E0208131812068318320831092BA
:104A8000300490934B0380934A0383E190E00E94AB
:104A9000B81980E00C94150E85EF92E20C94352540
:104AA0008BED94E20C9435251F920F920FB60F9266
:104AB00011242F933F934F935F936F937F938F9323
:104AC0009F93AF93BF93EF93FF9387E794E00E9488
:104AD000F602FF91EF91BF91AF919F918F917F91DE
:104AE0006F915F914F913F912F910F900FBE0F905B
:104AF0001F9018951F920F920FB60F9211242F93AB
:104B00008F939F93EF93FF93E0918704F091880434
:104B10008081E0918D04F0918E0482FD1BC0908114
:104B2000809190048F5F8F7320919104821741F0E0
:104B3000E0919004F0E0E958FB4F958F809390044A
:104B4000FF91EF919F918F912F910F900FBE0F903A
:104B50001F9018958081F4CF1F920F920FB60F927D
:104B600011242F933F938F939F93AF93BF93809183
:104B7000030390910403A0910503B09106033091C3
:104B8000D50223E0230F2D3758F50196A11DB11D45
:104B90002093D5028093030390930403A09305030D
:104BA000B09306038091D6029091D702A091D802CB
:104BB000B091D9020196A11DB11D8093D6029093A8
:104BC000D702A093D802B093D902BF91AF919F9121
:104BD0008F913F912F910F900FBE0F901F901895BE
:104BE00026E8230F0296A11DB11DD2CFE7E7F4E01E
:104BF0001382128288EE93E0A0E0B0E08483958374
:104C0000A683B78380E291E09183808385EC90E076
:104C10009587848784EC90E09787868780EC90E086
:104C2000918B808B81EC90E0938B828B82EC90E077
:104C3000958B848B86EC90E0978B868B118E128EF1
:104C4000138E148E82E391E09093150580931405E2
:104C50000895CF93DF93CDB7DEB7A0970FB6F89442
:104C6000DEBF0FBECDBF789484B5826084BD84B5AD
:104C7000816084BD85B5826085BD85B5816085BD57
:104C800080916E00816080936E001092810080910F
:104C90008100826080938100809181008160809397
:104CA0008100809180008160809380008091B100BC
:104CB00084608093B1008091B00081608093B000E7
:104CC00080917A00846080937A0080917A0082607B
:104CD00080937A0080917A00816080937A0080913D
:104CE0007A00806880937A001092C100E091870476
:104CF000F091880482E08083E0918304F091840441
:104D00001082E0918504F091860480E18083109206
:104D10008F04E0918B04F0918C0486E08083E09115
:104D20008904F0918A04808180618083E091890404
:104D3000F0918A04808188608083E0918904F091F9
:104D40008A04808180688083E0918904F0918A04DC
:104D500080818F7D808364E670E080E090E00E9437
:104D60004D0483E693E00E945808E3E7F4E084E012
:104D7000DF011D928A95E9F78EE091E0909314038C
:104D80008093130384E195E09093FA028093F902F3
:104D900061E08AE00E94C90361E08AE00E94F703B3
:104DA00060E089E00E94F70360E082E00E94F70380
:104DB00060E086E00E94F70360E087E00E94F7036E
:104DC0001FB7F8948091F802811127C0E9E3F3E05E
:104DD0008491E5E2F3E09491E82FF0E0EE0FFF1FFD
:104DE000EF5EFC4FA591B491EC91E92321F461E0D1
:104DF0008AE00E94C90361E08AE00E94F7038CB553
:104E000080618CBD8CB580648CBD61E08DE00E94BA
:104E1000F70361E08BE00E94F7038091F8028F5F57
:104E20008093F8021FBFEAEEF2E08EE0DF011D92F0
:104E30008A95E9F78FEE95E09093F3028093F20262
:104E400082E08093ED02F0931905E093180581E06C
:104E50000E94D4070091130310911403F80182817A
:104E60008F3F49F060E00E94C90361E0D8011296CB
:104E70008C910E94F7030E944706625C7F4F8F4F20
:104E80009F4F0E948A07F80182818F3F19F060E0EE
:104E90000E94F7030E944706685C7E4F8F4F9F4F2A
:104EA0000E948A0780E00E945D0D82E40E948E0BC2
:104EB000823109F020C28091F9029091FA02DC015E
:104EC000ED91FC910680F781E02D0995882341F052
:104ED0008BE40E948E0B682F60618BE40E94A00B14
:104EE00082E00E94670D81E00E948E0B8770853002
:104EF000D1F70AED12E0B9EECB2EB2E0DB2EA8E03E
:104F0000EA2EF12C8CE20E948E0B8170B82E8CE27E
:104F10000E948E0B8170B816A9F3F8018181880F69
:104F20008B298183F1E0EF1AF10861F70F5F1F4FC2
:104F3000C016D10621F710E11093DA0280E00E943A
:104F40005D0D80E490E090939F0380939E038FEF2C
:104F5000809343030E941D1240E150E063E573E03B
:104F6000CE0141960E94812940E150E063E473E064
:104F7000CE0101960E94812983E190E0A0E0B0E09B
:104F800080936C0390936D03A0936E03B0936F03B3
:104F900085E19AEEAEEDB0E08093700390937103DB
:104FA000A0937203B0937303FE013196AFEFB3E0A9
:104FB000812F01900D928A95E1F7FE017196AFE085
:104FC000B4E001900D921A95E1F780919E039091C3
:104FD0009F0389759D7B986090939F0380939E03A8
:104FE0000E94C50590E080E00E94700510E0812FCE
:104FF0000E9401061F5F1830D1F71092210480E84B
:105000009FEF9093A3038093A20310922904109220
:10501000250465E082E00E9453058BEF92E00E9438
:10502000931FEFE0BE2EF0E0CF2EF0E0DF2E2FB783
:10503000F8948091030390910403A0910503B0912B
:1050400006032FBF61E091FF60E08DE00E94C9037D
:1050500077E0E72E73E0F72E10E000E0E091130315
:10506000F0911403E00FF11F83818F3FC9F1D70145
:105070004D905D906D907C904114510461047104D9
:1050800079F1F701108211821282138281E00E946D
:105090008E0B87FFCEC082E10E948E0B809372043C
:1050A00083FF45C0F2E04F1A510861087108409231
:1050B00058035092590360925A0370925B036FEF4A
:1050C00081E10E94A00B6FEF82E10E94A00B80E0C3
:1050D0000E945D0D80914A0390914B030E94F3065C
:1050E0000F5F1F4FE4E0EE0EF11C0330110509F0D5
:1050F000B5CF0E94F7050091750410917604011553
:10510000110509F4C9C0D8018D919C919093760442
:10511000809375040E946B060115110509F4DFC028
:10512000D8011696ED91FC91C8010995D8C086FF6B
:105130007BC0E0919C03F0919D03CF0163E09695C5
:1051400087956A95E1F7837061F4E770F0E0EE0F00
:10515000FF1FE459FC4F85919491481A590A610840
:10516000710840925C0350925D0360925E037092FE
:105170005F038DE10E948E0B80FF45C082E20E949A
:105180008E0B8093300480E10E948E0B682F8DE09F
:105190000E94A00B4091300450E021E061E374E0F4
:1051A00080E00E94250B89E10E948E0B8093A6036C
:1051B0008AE10E948E0B282F30E0409164035091C9
:1051C0006503609166037091670341345D4D6A44E5
:1051D0007F41D8F02D5931099091A60397FF18C04F
:1051E000A92FBB27A1950CF4B095CD019595879576
:1051F00095958795281B390B203431059CF4205C4C
:105200002093A5035CCF83E1BACF245A3109E4CFC0
:105210002D39BFEF3B079CF36B2D0E948A29280F85
:10522000311DEACF2FE7ECCF87FF49CF1092300432
:1052300046CF8EE30E948E0B8FE30E948E0B83FF7E
:105240000CC0409258035092590360925A037092D6
:105250005B0381E00E945D0D3ACF82FF1AC040924D
:105260005C0350925D0360925E0370925F0382E381
:105270000E948E0B80933004482F50E021E061E3C0
:1052800074E080E00E94250B1092A6031092A50303
:10529000E0CF10923004DDCFE0917304F0917404FC
:1052A0003097D9F042805380648075800E94470611
:1052B000461A570A680A790A1414150416041704C2
:1052C00064F00091730410917404F801808191815D
:1052D00090937404809373041DCF0E946B06C114D5
:1052E000D10409F4A4CE0E94E202882309F49FCEDF
:1052F0000E9400009CCE65E370E08CE892E00E9482
:10530000FE05FB01DC0102C005900D9241505040AA
:10531000D8F70895991B79E004C0991F961708F0F3
:10532000961B881F7A95C9F780950895AA1BBB1B09
:1053300051E107C0AA1FBB1FA617B70710F0A61B95
:10534000B70B881F991F5A95A9F780959095BC01B6
:10535000CD01089597FB072E16F4009407D077FD32
:1053600009D00E94962907FC05D03EF490958195BE
:105370009F4F0895709561957F4F0895A1E21A2E71
:10538000AA1BBB1BFD010DC0AA1FBB1FEE1FFF1FE9
:10539000A217B307E407F50720F0A21BB30BE40B39
:1053A000F50B661F771F881F991F1A9469F7609580
:1053B0007095809590959B01AC01BD01CF0108953A
:1053C000052E97FB1EF400940E94F72957FD07D085
:1053D0000E94BE2907FC03D04EF40C94F729509587
:1053E0004095309521953F4F4F4F5F4F08959095D1
:1053F0008095709561957F4F8F4F9F4F0895EE0F69
:10540000FF1F0590F491E02D0994692796276927DD
:105410007827872778270895A29FB001B39FC001FE
:10542000A39F700D811D1124911DB29F700D811DD0
:105430001124911D08950E940C2AB7FF0895821B24
:10544000930B08950E940C2AA59F900DB49F900D78
:10545000A49F800D911D1124089597FB57FF0C9474
:105460003D2A9F938F930E943D2A6E1B7F0BAF9125
:10547000BF918A0B9B0B0895E894DF93CF93FC01B7
:10548000DB010E940C2A7F936F93E9019A01AC0122
:10549000BF93AF933F932F93DF010E940C2A26F412
:1054A0006C1B7D0B820B930B9E01EB01FC010E9498
:1054B000332BAF91BF912F913F910E94332BBE01AF
:1054C000CF01F9012F913F91CF91DF910895689419
:1054D00001C0E8948F929F92CF93DF930E94752A28
:1054E000DF91CF919F908F90089588249924F401A3
:1054F000E401B0E49F93AA279A158B049C04ED0560
:10550000FE05CF05D007A10798F4AD2FDC2FCF2FD4
:10551000FE2FE92D982C892E982F872F762F652F17
:10552000542F432F322F2227B85031F7BF9127C075
:105530001B2EBF91BB27220F331F441F551F661F11
:10554000771F881F991F881C991CEE1FFF1FCC1FF7
:10555000DD1FAA1FBB1F8A149B04EC05FD05CE05A9
:10556000DF05A007B10748F08A189B08EC09FD0980
:10557000CE09DF09A00BB10B21601A94E1F62EF4DD
:105580009401AF01BE01CD01000C08952F923F920E
:105590004F925F926F927F928F929F92AF92BF9243
:1055A000CF92DF92EF92FF920F931F93CF93DF93EF
:1055B000CDB7DEB7CA1BDB0B0FB6F894DEBF0FBE4C
:1055C000CDBF09942A88398848885F846E847D8499
:1055D0008C849B84AA84B984C884DF80EE80FD809B
:1055E0000C811B81AA81B981CE0FD11D0FB6F89411
:1055F000DEBF0FBECDBFED010895002E083090F044
:10560000982F872F762F652F542F432F322F222745
:105610000850F4CF220F331F441F551F661F771FFA
:10562000881F991F0A95B2F7002D089597FD1094D1
:10563000002E083098F00850232F342F452F562F76
:10564000672F782F892F912DF4CF159497958795F3
:105650007795679557954795379527950A95AAF7B2
:105660001124002D08950E940C2A460F571FC81FB1
:10567000D91F08F431960895FB01DC0102C00190A6
:105680000D9241505040D8F70895FB01DC01019084
:105690000D920020E1F70895B0E0A0E0E2E5FBE222
:1056A0000C94D62AAE014B5F5F4FFA016191719164
:1056B000AF0180911805909119050E94622BE2E0DC
:1056C0000C94F22AABE0B0E0E8E6FBE20C94C62AC8
:1056D0007C013B018A01FC0117821682838181FFD4
:1056E000C8C1CE0101965C01F7019381F30193FDDE
:1056F000859193FF81913F01882309F453C185323D
:1057000039F493FD859193FF81913F01853229F40E
:10571000B70190E00E94522DE7CF912C212C312C23
:10572000FFE1F31538F08B3211F190F4803209F17A
:10573000833229F137FC3CC020ED280F2A3050F588
:1057400036FE20C08AE0989E200D1124922E06C0BD
:105750008D3291F0803371F7689430F8F30193FD46
:10576000859193FF81913F018111DACF21C0689427
:1057700031F8689432F8F2CF689433F8EFCF689438
:1057800034F8ECCFEAE02E9E200D1124222E6894EE
:1057900035F8E4CF8E3229F436FC04C1689436F82B
:1057A000DDCF8C3619F4689437F8D8CF8836B1F24B
:1057B000982F9F7D95549330E0F08336A1F1833785
:1057C000C1F1833509F063C02801F2E04F0E511C8E
:1057D000F801C080D180692D70E036FC02C06FEF07
:1057E0007FEFC6010E943C2D4C01689437F882017E
:1057F0000AC00C5F1F4FFFE3F98388248394912C28
:105800006501E89437F833FE2DC0522C81149104C1
:1058100071F5552009F468CFB70180E290E00E944D
:10582000522D5A94F6CFF801808189830E5F1F4F65
:10583000E4CF2801F2E04F0E511CF801C080D18066
:10584000692D70E036FC02C06FEF7FEFC6010E9449
:10585000472D4C018201D5CFB70180E290E00E9434
:10586000522D2A942814190409F0B0F7CECFF6016E
:1058700037FC859137FE81916F01B70190E00E945E
:10588000522D51105A94F1E08F1A9108BFCF8436EF
:1058900019F0893609F077C0F80137FE6BC06081D6
:1058A0007181828193810C5F1F4FF32DFF763F2E14
:1058B00097FF09C090958095709561957F4F8F4FA8
:1058C0009F4F689437F82AE030E0A5010E94822DAE
:1058D000C82ECA188C2C432C36FE0CC0E89440F815
:1058E000C91440F434FE05C032FC03C0F32DFE7E23
:1058F0004F2E892C44FE95C0FE01EC0DF11D8081D8
:10590000803309F087C0242D297E422E842D887093
:10591000582E43FC95C040FE8FC09C2C821418F476
:105920002C0C922C981844FE91C0B70180E390E0B3
:105930000E94522D42FE09C088E790E041FE02C05D
:1059400088E590E0B7010E94522DC91408F48AC07E
:10595000CA94D12C9FEFC91AD90ACA0CDB1CF601D4
:1059600082916F01B70190E00E94522DAC14BD04EA
:10597000B1F74FCF60817181072E000C880B990B16
:105980000E5F1F4F92CFD32CE894D4F82AE030E07A
:10599000853739F1232D297FD22E8F3601F148F436
:1059A0008835A9F0F701868197812B96E2E10C9466
:1059B000E22A803749F08837A9F7D4FE02C06894FC
:1059C000D2F820E130E00DC06894D4F8F6CF34FE70
:1059D00003C0822F8660D82E20E132E002C028E08A
:1059E00030E0F801D7FE0FC0608171818281938120
:1059F0000C5F1F4FA5010E94822DC82ECA183D2C96
:105A0000E89437F867CF6081718190E080E00E5FA5
:105A10001F4FF0CF42FC02C0839478CF83948394CD
:105A200075CF842D867809F471CFF6CFB70180E267
:105A300090E00E94522D83948214C0F3512C73CFB6
:105A4000522C5818821408F46ECFF8CF842D867823
:105A500009F47BCF8BE241FE80E247FC8DE2B70187
:105A600090E071CFB70180E390E00E94522D9A94AC
:105A70006CCF8FEF9FEF99CFFC0105906150704084
:105A80000110D8F7809590958E0F9F1F0895FC0107
:105A90006150704001900110D8F7809590958E0F5D
:105AA0009F1F08950F931F93CF93DF93182F092FF4
:105AB000EB018B8181FD09C01FEF0FEF812F902F2C
:105AC000DF91CF911F910F91089582FF14C02E8115
:105AD0003F818C819D81281739073CF4E881F98149
