:100000000C9442020C946A020C946A020C946A02E8
:100010000C946A020C946A020C946A020C946A02B0
:100020000C946A020C946A020C946A020C946A02A0
:100030000C946A020C946A020C946A020C946A0290
:100040000C94B8260C946A020C9486260C946026B4
:100050000C946A020C946A020C946A020C946A0270
:100060000C946A020C946A02556E6B6E6F776E2068
:100070006576656E743A200045565F4A4F494E5F7B
:100080005458434F4D504C4554453A206E6F204ACA
:100090006F696E4163636570740045565F545843E1
:1000A000414E43454C454400206279746573206F8E
:1000B0006620504859205061796C6F61643A200085
:1000C00041637475616C2053656E74200020627901
:1000D000746573206F66204672616D65205061798A
:1000E0006C6F61643A204261736536342D646563D8
:1000F0006F6465642068657861646563696D616CCF
:1001000020737472696E67207061796C6F61643AF4
:100110000053656E74200045565F54585354415245
:10012000540045565F4C494E4B5F414C4956450083
:1001300045565F4C494E4B5F444541440045565F30
:100140005258434F4D504C4554450045565F52451B
:100150005345540045565F4C4F53545F5453594ECA
:1001600043004261736536342D6465636F64656472
:100170002068657861646563696D616C2073747271
:10018000696E67207061796C6F61643A200020624B
:1001900079746573206F66207061796C6F61643A61
:1001A0002000526563656976656420005265636569
:1001B000697665642061636B0045565F5458434F10
:1001C0004D504C4554452028696E636C75646573C9
:1001D0002077616974696E6720666F7220525820BB
:1001E00077696E646F7773290045565F52454A4FB1
:1001F000494E5F4641494C45440045565F4A4F4988
:100200004E5F4641494C45440045565F4A4F494E72
:1002100045440045565F4A4F494E494E47004556B2
:100220005F424541434F4E5F545241434B4544006A
:1002300045565F424541434F4E5F4D4953534544F8
:100240000045565F424541434F4E5F464F554E4431
:100250000045565F5343414E5F54494D454F5554F9
:10026000004F505F5458525850454E442C206E6FEA
:10027000742073656E64696E67005061636B6574AA
:10028000207175657565640000000000230026007C
:100290002900030502050106020205000006000010
:1002A0000105040400040000000200000001000039
:1002B0008000000040000000200000002020200EF0
:1002C00011140C0F12090C0F06090C030609000388
:1002D0000613110F0D0B09070540404080EBEB089A
:1002E0000A0C0D0E10121415181A1B1D1E2124FFC6
:1002F000060504030201FFC04000000000002500C5
:1003000028002B0000000008000201000003040781
:100310000000000000000000000000002400270092
:100320002A00010204081020408001020408102065
:10033000010204081020040404040404040402025A
:100340000202020203030303030343579EA99CF91D
:10035000256204D4778F63A61C0CE9B53B908577A2
:10036000E0CF4A7DBE490D40B04553746172746957
:100370006E6700000000006700CC00B80154039DC8
:1003800007637C777BF26B6FC53001672BFED7ABC1
:1003900076CA82C97DFA5947F0ADD4A2AF9CA47247
:1003A000C0B7FD9326363FF7CC34A5E5F171D831BF
:1003B0001504C723C31896059A071280E2EB27B2EB
:1003C0007509832C1A1B6E5AA0523BD6B329E32F12
:1003D0008453D100ED20FCB15B6ACBBE394A4C5846
:1003E000CFD0EFAAFB434D338545F9027F503C9FA8
:1003F000A851A3408F929D38F5BCB6DA2110FFF3C7
:10040000D2CD0C13EC5F974417C4A77E3D645D19F1
:100410007360814FDC222A908846EEB814DE5E0BB2
:10042000DBE0323A0A4906245CC2D3AC629195E41F
:1004300079E7C8376D8DD54EA96C56F4EA657AAE6A
:1004400008BA78252E1CA6B4C6E8DD741F4BBD8BF8
:100450008A703EB5664803F60E613557B986C11DF0
:100460009EE1F8981169D98E949B1E87E9CE552894
:10047000DF8CA1890DBFE6426841992D0FB054BBB6
:100480001600022711241FBECFEFD8E0DEBFCDBF7C
:1004900025E0A2E5B3E001C01D92AE3EB207E1F750
:1004A00013E0A0E0B1E0E2ECFDE502C005900D92A2
:1004B000A235B107D9F712E0C2E4D2E004C0219717
:1004C000FE010E94F72AC134D107C9F70E943527DF
:1004D0000C94DF2E0C940000FC0120E1215008F464
:1004E000089580E0211181819191990F87FD91609C
:1004F000DF0111979C93F2CFAF92BF92CF92DF9220
:10050000EF92FF920F931F93CF93DF936C017B01C8
:100510008B01040F151FEB015E01AE18BF08C01759
:10052000D10759F06991D601ED91FC910190F081CC
:10053000E02DC6010995892B79F7C501DF91CF918F
:100540001F910F91FF90EF90DF90CF90BF90AF90F1
:100550000895FC01538D448D252F30E0842F90E0C9
:10056000821B930B541710F0CF96089501970895AE
:10057000FC01918D828D981761F0A28DAE0FBF2F77
:10058000B11D5D968C91928D9F5F9F73928F90E0CD
:1005900008958FEF9FEF0895FC01918D828D98173C
:1005A00031F0828DE80FF11D858D90E008958FEF79
:1005B0009FEF0895FC01918D228D892F90E0805C42
:1005C0009F4F821B91098F739927089589E495E0C5
:1005D0000E94DA0221E0892B09F420E0822F08959D
:1005E00080E090E0892B29F00E94E60281110C94B2
:1005F00000000895FC01A48DA80FB92FB11DA35AC6
:10060000BF4F2C91848D90E001968F739927848F32
:10061000A689B7892C93A089B1898C918370806455
:100620008C93938D848D981306C00288F389E02DF6
:1006300080818F7D80830895EF92FF920F931F93A7
:10064000CF93DF93EC0181E0888F9B8D8C8D981385
:100650001AC0E889F989808185FF15C09FB7F89491
:10066000EE89FF896083E889F989808183708064DD
:1006700080839FBF81E090E0DF91CF911F910F9128
:10068000FF90EF900895F62E0B8D10E00F5F1F4F37
:100690000F731127E02E8C8D8E110CC00FB607FC46
:1006A000FACFE889F989808185FFF5CFCE010E94D4
:1006B000FA02F1CFEB8DEC0FFD2FF11DE35AFF4F46
:1006C000F0829FB7F8940B8FEA89FB898081806262
:1006D000CFCF0F931F93CF93DF938C01D0E0C0E077
:1006E000F801EC0FFD1F6491662341F089E495E069
:1006F0000E941C03892B11F02196F2CFCE01DF91CD
:10070000CF911F910F910895CF93DF93EC01888DC6
:100710008823B9F0AA89BB89E889F9898C9185FD7C
:1007200003C0808186FD0DC00FB607FCF7CF8C910A
:1007300085FFF2CF808185FFEDCFCE010E94FA02C6
:10074000E9CFDF91CF910895833081F028F4813093
:1007500099F08230A9F008958730A9F08830C9F067
:100760008430B1F4809180008F7D03C0809180003F
:100770008F7780938000089584B58F7784BD089526
:1007800084B58F7DFBCF8091B0008F778093B000D0
:1007900008958091B0008F7DF9CF1F93CF93DF93A1
:1007A000282F30E0F901EC5FFC4F8491F901EE5DF8
:1007B000FC4FD491F901EA5CFC4FC491CC23A9F021
:1007C000162F81110E94A403EC2FF0E0EE0FFF1F03
:1007D000E650FD4FA591B4918FB7F894EC911111AB
:1007E00008C0D095DE23DC938FBFDF91CF911F919E
:1007F0000895DE2BF8CFCF93DF9390E0FC01EE5D00
:10080000FC4F24918A5C9C4FFC0184918823D1F099
:1008100090E0880F991FFC01E85EFC4FA591B49110
:10082000FC01E650FD4FC591D49161110EC09FB7F8
:10083000F8948C91E22FE0958E238C932881E2230B
:10084000E8839FBFDF91CF9108958FB7F894EC9123
:10085000E22BEC938FBFF6CF3FB7F89480916803FB
:1008600090916903A0916A03B0916B0326B5A89B90
:1008700005C02F3F19F00196A11DB11D3FBFBA2F32
:10088000A92F982F8827BC01CD01620F711D811DF2
:10089000911D42E0660F771F881F991F4A95D1F777
:1008A00008958F929F92AF92BF92CF92DF92EF9274
:1008B000FF924B015C010E942C046B017C010E94A1
:1008C0002C046C197D098E099F09683E73408105CF
:1008D0009105A8F321E0821A9108A108B10888EED9
:1008E000C80E83E0D81EE11CF11C81149104A10400
:1008F000B10429F7FF90EF90DF90CF90BF90AF90B9
:100900009F908F9008950F931F9361157105810536
:100910009105F9F00091DE031091DF032091E003CF
:100920003091E103DC01CB01800F911FA21FB31FA7
:100930008093DE039093DF03A093E003B093E10381
:100940008091E2039091E30301969093E3038093F7
:10095000E2031F910F910895FC012081318121153F
:10096000310519F490E080E008952617370749F41F
:10097000FB0120813181FC013183208381E090E003
:100980000895C901E9CF803660F5282F22952F7090
:1009900030E0220F331FF901EE5EFB4F40815181A1
:1009A0008F7061E070E002C0660F771F8A95E2F7F2
:1009B000CA0186239723892B91F480912A04909170
:1009C0002B04019690932B0480932A0481E02E5EE1
:1009D0003B4F462B572BF90151834083089580E00C
:1009E000F6CF80E00895803670F5282F22952F707D
:1009F00030E0220F331FF901EE5EFB4F6081718101
:100A00008F7041E050E002C0440F551F8A95E2F715
:100A1000CA0186239723892BA1F080912A04909103
:100A20002B04019790932B0480932A0481E02E5E7F
:100A30003B4F4095509546235723F90151834083FE
:100A4000089580E0F4CF80E00895FC0190E080E01C
:100A50006115710509F4089521913191A901569507
:100A6000479545755575241B350BA9014373537381
:100A7000369527953695279523733373240F351FA5
:100A8000A901407F507F2F703F70A4E0220F331FD9
:100A9000AA95E1F7240F351FA9015527232F3327E6
:100AA000240F351F820F931F61507109D1CF982FEA
:100AB0006038C1F0809143046817A1F0609343044B
:100AC00081E020914404291761F0909344048091BF
:100AD00030049091310498609093310480933004F5
:100AE00081E0089580E0EDCF209134043091350409
:100AF00020383F4F21F090933504809334040895BB
:100B0000982F80918104E0918004882361F0EF3078
:100B1000A0F481E08E0F80938004F0E0EE57FB4F4D
:100B2000908381E00895E43348F481E08E0F809350
:100B30008004F0E0E45BFB4FF3CF80E00895CF93B7
:100B4000DF93C62FD09180040E948005811106C0DA
:100B5000D093800480E0DF91CF9108958C2F0E9484
:100B600080058823A9F381E0F6CF1092BA04109291
:100B7000BB0480E294E4AEE1BEE180930E04909366
:100B80000F04A0931004B09311048FEF8093B90465
:100B9000089510920A0410920B0410920C04109203
:100BA0000D0410920604109207041092080410928B
:100BB0000904109246041092B3041092B2041092E9
:100BC000B10410924204109247041092BC04109297
:100BD000BE041092B8040C94B505FC0160817181CB
:100BE000828193810895682F89E495E00E941C0317
:100BF00090E080E00895F894809156038F5F809391
:100C0000560308950E94FB05FFCFEF92FF921F93BA
:100C1000CF93DF938C3030F067EA70E08AE591E0A3
:100C20000E940206880F880F880F98E0980FC82F3F
:100C3000D0E010E0E92EF12CCE15DF053CF0812F3D
:100C4000DF91CF911F91FF90EF9008958C2F0E941C
:100C5000F304182B2196F0CFEF92FF921F93CF93BE
:100C6000DF93880F880F880F98E0980FC82FD0E087
:100C700010E0E92EF12CCE15DF053CF0812FDF913D
:100C8000CF911F91FF90EF9008958C2F0E94C30485
:100C9000182B2196F0CF0F931F930E942C04AB01C9
:100CA000BC0120915203DC01CA013CE1B695A79535
:100CB000979587953A95D1F782278870820F809310
:100CC0005203E4E07695679557954795EA95D1F7F5
:100CD0009B01382BC901BA011F910F910895AF9262
:100CE000BF92CF92DF92EF92FF920F931F93CF9319
:100CF000DF9380915603815080935603811169C020
:100D0000789403E513E0D0E0C0E0BB24B394E09115
:100D1000A503F091A603EC0FFD1F23812F3F09F4DB
:100D200051C0F801D080ED2CF12C30E0F901EC5FDE
:100D3000FC4F8491F901EE5DFC4FC490F901EA5C2F
:100D4000FC4FA490AA2009F44FC081110E94A40373
:100D5000EA2DF0E0EE0FFF1FE857FD4FA591B4918B
:100D6000EC91CE2231E020E009F430E0832F922F85
:100D7000E816F90639F1DB24F801D082DD2011F103
:100D8000CE01880F991F880F991F9C0127563C4F51
:100D90007901F90180819181A281B381892B8A2B0C
:100DA0008B2B81F40E944B0661157105810591051D
:100DB00021F461E070E080E090E0F70160837183EE
:100DC0008283938321960F5F1F4FC330D10509F0B3
:100DD0009ECFDF91CF911F910F91FF90EF90DF9009
:100DE000CF90BF90AF90089590E080E0C1CFCF93B7
:100DF000DF93EC010E94FB058091D8039091D90309
:100E0000A091DA03B091DB03892B8A2B8B2B31F570
:100E100087E495E066ED73E00E94AC041092D7037E
:100E20001092D6031092D8031092D9031092DA03CD
:100E30001092DB03D093DD03C093DC03E091470500
:100E4000F0914805A7E4B5E0309759F486ED93E0BA
:100E50008D939C93DF91CF910C946F0685E495E080
:100E6000D9CFDF010190F081E02DEECFCF92DF925C
:100E7000EF92FF920F931F93CF93DF93EC016A01E0
:100E80007B018901C114D104E104F10421F4C12CD6
:100E9000D12C7601C3940E94FB058A819B81AC8191
:100EA000BD81892B8A2B8B2B89F587E495E0BE01C8
:100EB0000E94AC0419821882CA82DB82EC82FD8215
:100EC0001F830E83E0914505F091460525E435E04A
:100ED000309779F082819381A481B5818C199D0925
:100EE000AE09BF09181619061A061B0694F4F983F1
:100EF000E883F901D183C083DF91CF911F910F91D6
:100F0000FF90EF90DF90CF900C946F0685E495E012
:100F1000CECF9F010190F081E02DDACFCF92DF920A
:100F2000EF92FF926B017C010E944B06A701960194
:100F3000261B370B480B590BDA01C901B7FF0CC050
:100F400066277727CB01621B730B840B950BFF90F1
:100F5000EF90DF90CF900895833332E09307A1059F
:100F6000B1058CF068E070E080E090E00E945104F0
:100F70000E944B06A7019601261B370B480B590B05
:100F8000DA01C901E9CF181619061A061B0664F41E
:100F900024E0880F991F2A95E1F7880F991F880F81
:100FA000991F05970197F1F760E070E0CB01CFCF73
:100FB000CF92DF92EF92FF92A0918B03B0918C03BE
:100FC000682F6170ED91FC9111970190F081E02DF7
:100FD000CD0109956B017C01C114D104E104F10438
:100FE00061F00E944B066C0D7D1D8E1D9F1DFF90B4
:100FF000EF90DF90CF900C948E07FF90EF90DF90F2
:10100000CF900895982FE091A503F091A6038181D8
:101010008F3F39F061E02681291301C060E00C9414
:10102000CD03089581E0089580E00895089560E07B
:1010300070E0CB010895E7EBF3E084819581948320
:101040009681958397819683878380859285908703
:101050008287818593859187838787859685978702
:10106000958596879485958784870895CF9327EBF8
:1010700033E0BC01605F7F4FDC01F90140E0CD91BE
:1010800050815C2750834F5F34964430C1F72F5F07
:101090003F4F04968617970779F7CF910895FC0183
:1010A00001900020E9F73197AF01481B590BBC01B3
:1010B00089E495E00C947C02CF93DF930E9469034E
:1010C000EC0182E991E00E944F088C0F9D1FDF9197
:1010D000CF9108958F929F92AF92BF920F931F93DB
:1010E000CF93DF93CDB7DEB7A1970FB6F894DEBFED
:1010F0000FBECDBF19A2423008F44AE08E010F5D49
:101100001F4F842E912CB12CA12CA50194010E947B
:10111000B62AE62FB901CA01EA30F4F4E05DD8013D
:10112000EE938D01232B242B252B79F790E080E083
:10113000109719F0CD010E944F08A1960FB6F894B0
:10114000DEBF0FBECDBFDF91CF911F910F91BF903A
:10115000AF909F908F900895E95CE1CF0F931F931C
:10116000CF93DF9300D000D0CDB7DEB7DB011C9664
:101170009C911C971E963C911E971F962C911F9731
:101180001D964C911D9749833A832B839C83BE0106
:101190006B5F7F4F9E012F5F3F4FF90111919F01C0
:1011A000412F42954F70F0E14F9FA0011124E12F94
:1011B000EF70E40FF52FF11DEF57FC4F9491A9014B
:1011C00041505109FA0190832617370731F791E012
:1011D0005BE1813039F0492F440F97FD452781505D
:1011E000942FF7CF8981982799838D0194E0FE0190
:1011F0003196A801DA018D91AD0161918627BD017B
:1012000061507109DB018C93BF0161507109DB01F1
:101210008C93E217F30771F791500C5F1F4F9111F8
:10122000E6CF0F900F900F900F90DF91CF911F910D
:101230000F9108953F924F925F926F927F928F929B
:101240009F92AF92BF92CF92DF92EF92FF920F9355
:101250001F93CF93DF93CDB7DEB768970FB6F8949F
:10126000DEBF0FBECDBF8C0127EBC22E23E0D22EF6
:10127000AC01405F5F4FC6017801FC01D70120E05F
:101280003D9130832F5F34962430D1F724E0E20E75
:10129000F11C01964E155F0581F7A7EAB3E0FE0148
:1012A000319687EB93E05E2E6F2E2D9121938A1756
:1012B0009B07D9F7852D962D0E9436084424439428
:1012C0008BEBA82E83E0B82E4E0139E1830E911CE2
:1012D0009BE1392E87EB93E024E0DC01712CEC914B
:1012E0004E2F42954F7030E1439FA0011124EF70C3
:1012F000E40FF52FF11DEF57FC4FE491EC9373943D
:10130000149654E07512EBCF215001962111E5CFD0
:101310000E941B08E7EBF3E0CE014596BE016F5E2D
:101320007F4F9F01D9015C91DC015D93CD01452F79
:10133000440F57FD83C0DB014C932C5F3F4F6F5F21
:101340007F4F8816990671F78E89398938272F893A
:10135000688D9A8992279627432F492741934D8973
:101360005B899427952793839C89862784278527E3
:10137000892787832427292732273387AE16BF067C
:1013800059F6652D762D842D0E94AE08852D962D5B
:101390000E9436084394BAE04B129CCF87EB93E04F
:1013A000DC0140E0EC912E2F22952F7050E1259F1B
:1013B00090011124EF70E20FF32FF11DEF57FC4F56
:1013C000E491EC934F5F1496443061F77A94019660
:1013D0007110E6CF0E941B08652D762D8AE00E94D1
:1013E000AE08852D962D0E943608D801F60180E0C2
:1013F00090819D938F5F34968430D1F78FEFC81A18
:10140000D80A0C5F1F4FE016F10679F768960FB601
:10141000F894DEBF0FBECDBFDF91CF911F910F912A
:10142000FF90EF90DF90CF90BF90AF909F908F9004
:101430007F906F905F904F903F90089543257BCFB2
:10144000E0913B04A0913F04A770B0E020E43DE0B0
:1014500043E050E00E941A2B60527F458C4C914E25
:101460006093F6037093F7038093F8039093F90366
:101470008091BA04E53090F4E81BE63008F0E5E02E
:10148000E0933B04F0E0E051FD4FE491F0E0EF77B2
:10149000E068F0932F04E0932E040895E5E0ECCF8C
:1014A0004F925F926F927F928F929F92AF92BF9274
:1014B000CF92DF92EF92FF920F93CF93DF9300D002
:1014C00000D000D0CDB7DEB76B017C015E834D83C9
:1014D000277084E0289FF0011124EC55FD4F859181
:1014E0009591A591B49189839A83AB83BC834090F5
:1014F000EA035090EB036090EC037090ED03609171
:10150000D3037091D4036115710531F0673091E018
:10151000790710F066E071E090E080E0A7019601A5
:101520000E94252B00E10E940E2C49015A012981BD
:101530003A814B815C81220F331F441F551FC50127
:10154000B401660F771F881F991F620F731F841FD6
:10155000951F64587F4F8F4F9F4F0E94D82A2A5F54
:101560003F4F43E85FEF6FEF7FEF481959096A0972
:101570007B092115A4E03A07B8F18FEF93E090932F
:101580003A0480933904C40ED51EE61EF71E4C0C97
:101590005D1C6E1C7F1C4092EE035092EF03609224
:1015A000F0037092F103B301A20141575240610967
:1015B00071092D813E8186ED93E026960FB6F89451
:1015C000DEBF0FBECDBFDF91CF910F91FF90EF90A7
:1015D000DF90CF90BF90AF909F908F907F906F9053
:1015E0005F904F900C94360730933A04209339045F
:1015F000CACFCF92DF92EF92FF922091B40430E0F5
:10160000A4E2B4EF0E94042B6B017C010E94200A2B
:1016100020913B0446E057E1C701B601FF90EF90EF
:10162000DF90CF900C94500A0E94200A20913B0436
:101630004AE057E164EB74EC84E090E00C94500ACB
:10164000E82FF0E0E151FD4FE491EF3F09F08150C8
:1016500008958F929F92AF92BF92DF92EF92FF9286
:101660000F931F93CF93DF93D82EEB018A01E22EC5
:10167000E091A503F091A603F08080849184A28478
:10168000B38481149104A104B10439F420E4822EBE
:1016900022E4922E2FE0A22EB12C40E052E16AE724
:1016A00070E080E084169506A606B70640F47695AD
:1016B0006795579547958F5F8630A1F787E0982FFC
:1016C000906A9695809581709CBD8DBD60E08F2D50
:1016D0000E94CD03DEBC00000DB407FEFDCF8EB529
:1016E0000C0F1D1FC017D10771F080E0E11001C081
:1016F00088818EBD00000DB407FEFDCF8EB5E110D0
:1017000088832196EFCF61E08F2DDF91CF911F91DC
:101710000F91FF90EF90DF90BF90AF909F908F90D0
:101720000C94CD03CF93DF931F92CDB7DEB721E0AA
:1017300041E050E0BE016F5F7F4F0E94290B89811D
:101740000F90DF91CF910895CF93DF931F92CDB784
:10175000DEB7698320E041E050E0BE016F5F7F4F5C
:1017600080680E94290B0F90DF91CF910895CF934D
:10177000C82F62E082E00E94A40B60E883E00E9430
:10178000A40B61E084E00E94A40B69E985E00E945B
:10179000A40B62E187E20E94A40B60EDC11168ED29
:1017A00080E30E94A40B60E481E30E94A40B61EC3F
:1017B00088E20E94A40B64E989E20E94A40B61EC18
:1017C0008AE2CF910C94A40B0F931F93CF93DF93D6
:1017D000C0913D04C4310CF040C0CE30CCF1C231D8
:1017E0000CF0C1E161E080918B0390918C0300913A
:1017F000F6031091F7032091F8033091F903DC010F
:10180000ED91FC910084F185E02D4C2F09958130FC
:1018100059F18230E1F1CF301CF5CC301CF1C067BA
:10182000D7E014E06C2F89E00E94A40B8DE40E94A5
:10183000920B887F682F612B8DE40E94A40B6D2F83
:1018400060628BE0DF91CF911F910F910C94A40BFC
:10185000CC3F0CF4CCEF60E0C6CF62E0C4E1C3CF74
:10186000CEE0DDCFCC5FDCCF80912E04877011F409
:10187000CB305CF0C2302CF4C2E0C250C068DBE078
:10188000D0CFC231D4F3C1E1F8CFCBE0F6CFD0E175
:1018900017E0CFE8C7CFAF92BF92CF92DF92EF921F
:1018A000FF920F931F93CF93DF938091F603909154
:1018B000F703A091F803B091F9039C01AD0160E03A
:1018C00070E080E090E003E10E94F52BA12CE8E4B9
:1018D000BE2EF8EECF2EDD24D394E12CF12C00E0C7
:1018E00010E00E94612BC22FB32E6A017B01182FDA
:1018F000D92F00E10E94102C622F86E00E94A40BD9
:101900002C2F3B2DA601B701812F9D2F08E00E94AF
:10191000102C622F87E00E94A40B6C2F88E0DF91CF
:10192000CF911F910F91FF90EF90DF90CF90BF90DC
:10193000AF900C94A40B1F93CF93DF9360912E0470
:1019400070912F04162F1770CB0133E09695879571
:101950003A95E1F7D82FD370D13059F008F466C02A
:10196000D23009F465C066EC71E085E991E00E942F
:101970000206C0E8CB0125E0969587952A95E1F708
:101980008370823009F458C0833009F457C0813025
:1019900009F450C0C260672F77276115710521F0E7
:1019A000C16082E20E94A40B6C2F8DE10E94A40B07
:1019B00060913A04637060598FEF810F8295807F48
:1019C000680F80912E0487FF64608EE10E94A40B53
:1019D0008BEF810F823010F4DD2391F1163011F47A
:1019E000D13071F164E086E20E94A40BC0E063E0B4
:1019F000D23081F48091F6039091F703A091F8031F
:101A0000B091F903CFE781349D4DAA44BF4108F05E
:101A1000C4E662E086E30E94A40BCC2399F06C2F0D
:101A20008AE3DF91CF911F910C94A40BC0E7A2CF62
:101A3000C0E9A0CFC460AFCFC660ADCFC860ABCFA8
:101A40006CE0D1CFDF91CF911F910895CF93DF93B9
:101A5000D82FC82FC77019F081E00E94D8076D2FCA
:101A600081E00E94A40BC11105C080E0DF91CF91FD
:101A70000C94D807DF91CF9108958091F60390914F
:101A8000F703A091F803B091F90381349D4DAA4466
:101A9000BF4118F488E00C94260D80E0FCCF8091C3
:101AA000F6039091F703A091F803B091F903813404
:101AB0009D4DAA44BF4118F488E80C94260D80E897
:101AC000FCCFCF93C82F81E00E94920B887F8C2B94
:101AD000CF910C94260DCF92DF92EF92FF92CF938D
:101AE000DF93D82F0E944F0D81E00E94920B87FD5B
:101AF00006C06BE973E085E991E00E94020681E08F
:101B00000E94610DD23009F07CC06AE08DE10E9434
:101B1000A40B60E78EE10E94A40B63E28CE00E94BC
:101B2000A40B60E483E20E94A40B80914305882308
:101B300009F46CC083E30E94920B682F6F7B83E3F0
:101B40000E94A40B80912E0490912F0423E096957F
:101B500087952A95E1F7C82FC37081E30E94920B05
:101B60008877682F6360C23008F056C081E30E9416
:101B7000A40B60E48FE20E94A40B60E480E30E9467
:101B8000A40B609139048FE10E94A40B64E389E304
:101B90000E94A40B6CE080E40E94A40B6FEF82E132
:101BA0000E94A40BED2FF0E0E950FD4F6491609589
:101BB00081E10E94A40B80E00E94020860E08DE0B9
:101BC0000E94A40B60E08FE00E94A40BD11128C0FA
:101BD0006091EE037091EF038091F0039091F10317
:101BE0000E948E076B017C0186E00E94610DC70197
:101BF000B601DF91CF91FF90EF90DF90CF900C94E2
:101C000083040E949B0C0E944B0C87CF83E30E94AD
:101C1000920B682F606493CF682F636881E3AFCF26
:101C200085E0DF91CF91FF90EF90DF90CF900C9403
:101C3000610DCF92DF92EF92FF92CF93C82F81E098
:101C40000E94920B877069E274E0C1F480912E04C7
:101C5000877009F060C0C13041F41092C2048091D5
:101C6000DC039091DD030E94F7060E943D0D81E0A8
:101C70000E94920B87FF06C062E074E085E991E064
:101C80000E94020681E00E94610D0E944B0C63E2FB
:101C90008CE00E94A40B6EE18DE00E94A40B6BE02F
:101CA00082E10E94A40B62E183E10E94A40B6AEA34
:101CB0008FE10E94A40B6FEF81E20E94A40B81E0F0
:101CC0000E94B70B68E380E40E94A40B80E00E94AE
:101CD0000208C11118C06091EE037091EF0380916A
:101CE000F0039091F1030E948E076B017C0185E067
:101CF0000E94610DC701B601CF91FF90EF90DF9078
:101D0000CF900C94830485E0CF91FF90EF90DF900B
:101D1000CF900C94610D8C2FCF91FF90EF90DF90BE
:101D2000CF900C946B0D8FEF9FEF909313048093E3
:101D300012049093150480931404909317048093D5
:101D4000160490931904809318048FEF90E09093F9
:101D50001B0480931A04EEE1F4E08CE0DF011D9295
:101D60008A95E9F780E690E090932B0480932A040B
:101D70008FEF80933F0408956F927F928F929F928E
:101D8000AF92BF92CF92DF92EF92FF920F931F9389
:101D9000CF93DF93CDB7DEB760970FB6F894DEBF71
:101DA0000FBECDBF7B018A01282F30E0277F223074
:101DB000310549F02430310509F4CBC0232B09F05B
:101DC0009FC0D12C98C083FD32C087E593E00E946C
:101DD0001A0990E1692EFE0131966F0127E6822EE5
:101DE00023E0922E37E8732E0115110509F060C02B
:101DF00060915703709158038091590390915A0351
:101E00000E94FD2A60960FB6F894DEBF0FBECDBFCC
:101E1000DF91CF911F910F91FF90EF90DF90CF90C6
:101E2000BF90AF909F908F907F906F900895E7E55F
:101E3000F3E080E1DF011D928A95E9F7CACF011531
:101E40001105E9F5E62FF0E0E95AFC4F8081805852
:101E5000808311E0D601E62D1D92EA95E9F7C601CF
:101E60000E941A090981C6010E946C0207FF03C083
:101E700088898725888B112349F01981C6010E9422
:101E80006C0217FF03C088898725888BF601D5016E
:101E90008D915D019191119789278C938A149B04F0
:101EA000B1F710E000E087E593E00E941A099CCFAB
:101EB00087E5A82E83E0B82ED701950160E0F901EF
:101EC00081919F019D91AF01415051098927FA01EC
:101ED00080836F5F7D0101501109603109F0AFCF40
:101EE0000115110501F710E0B5CF8E0D9F1D0E9461
:101EF0001A09B0E1DB0E8D2D90E080179107A8F351
:101F000060E070E0CB017ECF80E1E7E5F3E0DE0149
:101F1000119601900D928A95E1F7CE0101960E94EB
:101F20001A09FE0131969701205F3F4F9191D70129
:101F30008C9189278D937D0101501109A217B30758
:101F400019F00115110591F7809166038F5F809359
:101F5000660301151105C1F6D3CF90916C03911161
:101F600006C06CE874E085E991E00E9402069031B9
:101F700041F440E150E06CE673E080E00E94BC0E6A
:101F800090E0E92FF0E0E459FC4F80819F5F90934F
:101F90006C030895DF92EF92FF920F931F93CF93FC
:101FA000DF936FE270E0009729F08136910530F001
:101FB00061E370E088EC91E00E940206C0913F046A
:101FC000D0E0CF3F11F4CFEFDFEFE2E1F4E02EE11C
:101FD00034E0DF0132961C968D919C911D974D91B6
:101FE0005C9184239523938782872E173F0789F777
:101FF00066E070E08EE194E00E9425057C01892B6B
:1020000009F08FC08CE0E2E1F4E0AEE1B4E00190D1
:102010000D928A95E1F766E070E08EE194E00E940F
:1020200025057C01009709F4DDC0419708F479C0CB
:1020300010E000E0CF3FDC0751F1C136D1050CF0D4
:1020400070C09E012F70332781E090E002C0880F9E
:10205000991F2A95E2F7FE0144E0F595E7954A9528
:10206000E1F7EE0FFF1FE25EFB4F208131818C0113
:102070000223132380959095822393239183808359
:102080000115110509F44FC070E1E71AF1080E942B
:10209000AD0FD82E0E94AD0F9D2DB70124E076958F
:1020A00067952A95E1F70E94A22A34E0880F991FCC
:1020B0003A95E1F7EEE1F4E070E060E021913191D2
:1020C0002115310559F1A901569547954575557565
:1020D000D901A41BB50BAD0143735373B695A795F6
:1020E000B695A795A373B3734A0F5B1FDA01A07F60
:1020F000B07F4F705F7042955295507F5427407F5C
:1021000054274A0F5B1FDA01BB27452F55274A0F7B
:102110005B1F8417950780F0841B950B605F7F4FD2
:10212000CDCF10E000E0CFEFDFEFB1CFA9014150FC
:1021300051092423352340970097C1F74427552799
:10214000421B530B42235323CA018575957521E029
:1021500030E0892B11F030E020E0CA0183739373E3
:10216000892B09F447C090E080E0820F931F9A0109
:102170002F703F70232B09F440C030E020E0820F25
:10218000931F30E020E0411102C028E030E0820FD0
:10219000931F860F971FFC0144E0F695E7954A953B
:1021A000E1F7EE0FFF1FE25EFB4FAC014F705527CA
:1021B00021E030E0B90102C0660F771F4A95E2F7CF
:1021C000AB01208131812627352731832083CF3F02
:1021D000DC07B1F497FD06C0803491050CF4885FEC
:1021E00080933F04DF91CF911F910F91FF90EF906B
:1021F000DF90089582E090E0B8CF24E030E0BFCFD8
:1022000024E0D595C7952A95E1F7CC0FDD1FC25E76
:10221000DB4F28813981022B132B19830883DACFF6
:102220008091020490910304A0910404B0910504EC
:10223000892B8A2B8B2B09F04BC080913004909115
:102240003104109240048E7C977A909331048093ED
:1022500030041092BF04109246040E94B5058FEF1F
:1022600080933F0480912A0490912B040E94CA0F0E
:102270000E944B066093EA037093EB038093EC0398
:102280009093ED03809130049091310493FF06C048
:1022900064ED70E088EC91E00E9402061092440424
:1022A000E091B904EF3F91F0EF70F0E0E152FD4FA3
:1022B000E491E0934304846090933104809330046C
:1022C00080E89FE10E94F70681E00895E3E1F1CF05
:1022D00080E00895CF92DF92EF92FF92CF93C82FC4
:1022E0000E94AD0FF82E0E94AD0F9F2D6C0185321C
:1022F00024EF920720F024E2C21A24EFD20AF12C34
:10230000E12CCC2369F06C2F0E94962A292F30E013
:10231000A4E2B4EF0E94042BC60ED71EE81EF91EDD
:10232000C701B601CF91FF90EF90DF90CF90089555
:10233000CF92DF92EF92FF926B017C01842F4423B6
:1023400031F00E946A11C60ED71EE81EF91E809158
:1023500040048823A9F08091FA039091FB03A09197
:10236000FC03B091FD03A7019601281B390B4A0B12
:102370005B0BDA01C901181619061A061B068CF444
:10238000C092FA03D092FB03E092FC03F092FD03AB
:102390008091300490913104916090933104809346
:1023A0003004FF90EF90DF90CF900895AF92BF92EE
:1023B000CF92DF92EF920F931F93CF93DF93DC01C5
:1023C0001A141B04A4F590E1E7E5F3E0EF01892F6F
:1023D00019928A95E9F7F1E0F0936603F0935703B9
:1023E000E0925C0340935D0350935E0360935F0350
:1023F000709360030093610310936203209363035F
:1024000030936403FD01A7EAB3E001900D929A9521
:10241000E1F7A501B60184E0DF91CF911F910F9103
:10242000EF90DF90CF90BF90AF900C94BC0EDF91F7
:10243000CF911F910F91EF90DF90CF90BF90AF9011
:1024400008951F93CF93DF93CDB7DEB72F970FB6C5
:10245000F894DEBF0FBECDBF80E00E94610D0E94E8
:10246000FB058091D8039091D903A091DA03B09134
:10247000DB03892B8A2B8B2B09F047C087E495E07F
:1024800066ED73E00E94AC040E946F068FE0E7ECFB
:10249000F3E0DE01119601900D928A95E1F7E7ECE9
:1024A000F3E08EE791E0DF019C011D922150304066
:1024B000E1F78FE0FE013196A7ECB3E001900D92B9
:1024C0008A95E1F70E94AD0F182F0E94AD0F912F52
:1024D00090933304809332041092310410923004AC
:1024E0001092450480E88093B7040E94B50581E00E
:1024F0008093B4042F960FB6F894DEBF0FBECDBF05
:10250000DF91CF911F910C94930E85E495E0B8CFA5
:102510002F923F924F925F926F927F928F929F92F3
:10252000AF92BF92CF92DF92EF92FF920F931F93E1
:10253000CF93DF93CDB7DEB72A970FB6F894DEBFFF
:102540000FBECDBF8C010E944B066B017C014AE09F
:10255000F7FE0DC06DE289E495E00E941C0366273A
:102560007727CB016C197D098E099F094AE00E94EB
:102570006A0883EE92E00E944F08F8013197E43137
:10258000F10508F044C3E953FD4E0C94F72ADB1221
:10259000F712FA12FD12001303130716061309139C
:1025A0000C1380138313861389138C1307168F1350
:1025B0000116E815041681E592E02A960FB6F89404
:1025C000DEBF0FBECDBFDF91CF911F910F91FF9066
:1025D000EF90DF90CF90BF90AF909F908F907F90C3
:1025E0006F905F904F903F902F900C945C0881E427
:1025F00092E0E3CF80E392E0E0CF8EE192E0DDCFA6
:1026000083E192E0DACF89E092E0D7CF8AEF91E0E0
:10261000D4CF89EE91E0D1CF89EB91E00E945C08A4
:102620008091C00487FF04C08CEA91E00E945C089E
:102630008091C2048823F1F182EA91E00E9469034B
:102640006091C20470E090E080E04AE00E946A0875
:102650008EE891E00E94690382E691E00E9469039E
:102660001A8219828091C20429813A818217130645
:10267000C9F0C4F0E091C104C90189539C4FE80F2F
:10268000F92FF11DE450FF4F608170E090E080E091
:1026900040E10E946A0849815A814F5F5F4F5A8327
:1026A0004983E0CF84EC92E00E944F0882E991E0F8
:1026B0000E944F080E944B06AB01BC014859564787
:1026C000664F7F4F2FE531E28DE893E02A960FB6F3
:1026D000F894DEBF0FBECDBFDF91CF911F910F9158
:1026E000FF90EF90DF90CF90BF90AF909F908F9032
:1026F0007F906F905F904F903F902F900C94360793
:1027000084E591E05ACF8BE491E057CF8DE391E0DF
:1027100054CF80E391E051CF82E291E04ECF87E148
:1027200091E00E945C08A090C204AA2009F450C263
:10273000C0902E04D0902F040C2D07700A5F9601D4
:1027400043E0369527954A95E1F72370C60155E099
:10275000969587955A95E1F7837080904304E090B1
:102760000A04F0900B0451E0E51AF10815E0882303
:1027700039F016E0813021F017E0823009F018E0DE
:10278000222309F471C084EFB82E99249394213048
:1027900019F42AEFB22E912CC090F6037090F70333
:1027A0006090F8035090F9030E944B061F92DF924D
:1027B000FF92EF921F921F939F92BF921F928F9250
:1027C0001F920F931F92AF925F926F927F92CF9260
:1027D0009F938F937F936F9382E092E09F938F9369
:1027E0000E94442C809142041F928F938FE492E0C8
:1027F0009F938F930E94442C81E191E00E94690392
:1028000060914B0470E090E080E04AE00E946A082A
:102810008DEC90E00E9469030FB6F894DEBF0FBE06
:10282000CDBFF12CE12C03E612E080914B048E1514
:102830001F04E9F0E4F0E091C104C70189539C4F03
:10284000E80FF92FF11DEB57FF4F80811F928F93F7
:102850001F930F930E94442C7FEFE71AF70A0F9003
:102860000F900F900F90E1CF9DE7B92E94CF82E9A2
:1028700091E00E944F0880EC90E00E946903609113
:10288000C20470E090E080E04AE00E946A0888EAB2
:1028900090E00E946903F12CE12C03E612E08091A4
:1028A000C2048E151F04D1F0CCF0E091C104C70121
:1028B00089539C4FE80FF92FF11DE450FF4F8081A1
:1028C0001F928F931F930F930E94442C8FEFE81A4F
:1028D000F80A0F900F900F900F90E1CF82E991E0EE
:1028E0000E944F082091C204E3ECF4E0FC83EB83E8
:1028F00090E080E01A821982422F50E058874F837F
:102900006F817885E981FA81E617F7070CF048C1F5
:10291000EB81FC812191FC83EB83022E000C330BB5
:102920006C014CE0D594C7944A95E1F7A92FBB27D9
:10293000A7FDBA95AC25BD253D0162267326F1E0C1
:102940006F2277247C016DE0F594E7946A95E1F7B6
:102950005C01AB2CBB0CBB08A594AE24BF24490181
:10296000959487948A249B24880C991C42E08422A5
:102970009924862897288C01110F000B110F102F16
:10298000001F2C01452C550C5508459445944026B4
:102990005126F901F595E795F595E795E425F52597
:1029A000EE0FFF1FEE0FFF1FE470FF27E80DF91D6C
:1029B000592F551F5527551F59871A861C014BE063
:1029C000359427944A95E1F723FB662760F96D83D8
:1029D0001E82A1014170552769857A8546275727B0
:1029E0006D817E814627572763E0440F551F6A9506
:1029F000E1F74E0F5F1FB901E4E075956795EA9521
:102A0000E1F76C257D25F4E0660F771FFA95E1F775
:102A100060717727460F571FF90165E0F595E79537
:102A20006A95E1F7BD016E257F256E277F27E5E0DA
:102A3000660F771FEA95E1F760727727640F751FBD
:102A4000A50140275127F901689415F8F595E795F8
:102A50001694E1F74E275F27E6E0440F551FEA95ED
:102A6000E1F740745527640F751F4201E1E08E22A3
:102A7000992449855A85842695262227330F221FBB
:102A80003327282539253695322F22273795279544
:102A9000260F371FB10168277927617077276427D0
:102AA0007527762F6627620F731F3C017594679414
:102AB000C624D724DC2CCC24DD0CCC2452E0D52237
:102AC0006C0D7D1DAC0155954795559547954E2547
:102AD0005F25542F4427550F550F44275470640F1A
:102AE000751FFC0123E0F595E7952A95E1F7E027AE
:102AF000F127FE2FEE27FF0FFF0FFF0FEE27F870D5
:102B00006E0F7F1F9C0144E0359527954A95E1F7AC
:102B1000A227B327A170BB27E985FA85AE27BF2777
:102B2000BA2FAA27B295B07F6A0F7B1F9C01E5E000
:102B300035952795EA95E1F72A253B25322F22275F
:102B40003295330F307E22273072620F731F9C0143
:102B5000A6E035952795AA95E1F742265326B0E4DD
:102B60004B9E502C442411244424F0E45F22640D35
:102B7000751D880F892F881F990B8225932529851C
:102B80003A85822793279927869597958827860FD8
:102B9000971F49815A814F5F5F4F5A834983B0CE57
:102BA0009F938F939F938F9388E692E09F938F9349
:102BB0000E94442C1F9282E08F938FE992E09F93B2
:102BC0008F930E94442C0FB6F894DEBF0FBECDBF8A
:102BD0002A960FB6F894DEBF0FBECDBFDF91CF911E
:102BE0001F910F91FF90EF90DF90CF90BF90AF902B
:102BF0009F908F907F906F905F904F903F902F901D
:102C000008958AE990E0D9CC88E790E0D6CC88E6B0
:102C100090E00E946903B80190E080E04AE00E94E1
:102C20006A0882E991E02A960FB6F894DEBF0FBEDB
:102C3000CDBFDF91CF911F910F91FF90EF90DF906B
:102C4000CF90BF90AF909F908F907F906F905F904C
:102C50004F903F902F900C944F08CF92DF92EF92BD
:102C6000FF92CF93DF93EC01C12CD12C7601C3945A
:102C70000C2E04C0CC0CDD1CEE1CFF1C0A94D2F7F9
:102C8000E3FC03C0CE010E948812D701C601882749
:102C90009472AA27BB27892B8A2B8B2B01F1E091F9
:102CA000CB03F091CC033097D1F02091C204409136
:102CB000C104211102C0442391F08091C00450E06E
:102CC00060E084FF04C0DA01AE53BB4F6C9130E08A
:102CD0004D535B4F8091CD039091CE030995CC2449
:102CE00084E0D822E822FF24CD28CE28CF2819F16D
:102CF000E091CF03F091D0033097E9F01092D00328
:102D00001092CF03C231D10541F18091C00483FDFF
:102D100024C090914A0461E0992339F0082E000CF8
:102D2000990B692F661F6627661F70E08091D1039B
:102D30009091D2030995E091C703F091C8033097B1
:102D400071F0BE018091C9039091CA03DF91CF91C8
:102D5000FF90EF90DF90CF90099460E0E6CFDF9195
:102D6000CF91FF90EF90DF90CF90089582E0809315
:102D7000C004E091BB04F0E0E051FD4FE491F0E0CD
:102D8000EF77E068F0932F04E0932E0480910E0417
:102D900090910F04A0911004B09111048093F60358
:102DA0009093F703A093F803B093F9031092C20431
:102DB00083E190E00E942D1680E00C94190E8FE4C0
:102DC00096E29093DD038093DC030C94B61681E5C4
:102DD00091E29093DD038093DC030C94B61621E01E
:102DE0002093C004EEE2F4E0208131812068318339
:102DF00020831092C2049093DD038093DC0383E16F
:102E000090E00E942D1680E00C94190E88E396E263
:102E10000C94EF168EE391E20C94EF162F923F92F2
:102E20004F925F926F927F928F929F92AF92BF92DA
:102E3000CF92DF92EF92FF920F931F93CF93DF9386
:102E4000CDB7DEB7CB58D1090FB6F894DEBF0FBEB1
:102E5000CDBF80913604811116C781E0809336047E
:102E600080913004909131049C01217C3327232BE5
:102E700081F4409102045091030460910404709124
:102E80000504452B462B472B29F582FD2FC00E94B8
:102E90001011809136048150809336048111E0CF67
:102EA000C557DF4F0FB6F894DEBF0FBECDBFDF9121
:102EB000CF911F910F91FF90EF90DF90CF90BF9037
:102EC000AF909F908F907F906F905F904F903F90CA
:102ED0002F90089596FF0AC09F7B909331048093B2
:102EE00030048DE89EE10E94F706D3CF0E944B0686
:102EF0006B017C010091300410913104C8018C7386
:102F00009927892B09F4B4C613FF58C180912A046C
:102F100090912B04009711F00E94CA0FC092EA030F
:102F2000D092EB03E092EC03F092ED038091300439
:102F300090913104977F9093310480933004B701CE
:102F4000A60180914004811106C0809130049091C7
:102F5000310490FF12C08091FA039091FB03A0917D
:102F6000FC03B091FD032A013B01481A590A6A0A81
:102F70007B0A77FE02C0AC01BD0121E7C20E22E050
:102F8000D21EE11CF11CDB01CA018C199D09AE099E
:102F9000BF09B7FF59C630914404CF57DF4F38837C
:102FA000C158D04004721127012B09F41FC1809130
:102FB00030041091460485FD16C11092C30490910F
:102FC0003204809133049093D4048093D50443E178
:102FD00050E063EC74E08AE00E94BC0E6093D90478
:102FE0007093D8048093D7049093D60487E180939C
:102FF000C20480913204909133040196909333047B
:103000008093320484E19BE09093DD038093DC03A2
:10301000CF57DF4FC880C158D040EC2DF0E0E051D1
:10302000FD4FE4918091450420E2829FC00111246C
:10303000EF798E2B90932F0480932E04C0923B0443
:1030400080913004909131048F76967F80689860EB
:103050009093310480933004A0913F04A03670F522
:10306000B0E020E43DE043E050E00E941A2B8B01E9
:103070009C01005A1A4C274F334E00364FE9140773
:1030800040E224074CE1340708F0B6C4605A764A9F
:103090008340934E6093F6037093F7038093F80395
:1030A0009093F903E091B904EF3F09F423C5EF7061
:1030B000F0E0E152FD4FE491E0933C049091430431
:1030C00080913C0498170CF4892F80933D0481E192
:1030D00090E00E942D161092EA031092EB031092DA
:1030E000EC031092ED0381E00E94920B877059F07F
:1030F00080E00E94610D0E944B06625C7F4F8F4F03
:103100009F4F0E948E074090F2035090F30360900F
:10311000F4037090F50314141504160417040CF04E
:10312000EEC481E00E946B0D8091F6039091F7034D
:10313000A091F803B091F90381349D4DAA44BF4199
:1031400008F4DAC483E69FEFE091A503F091A603AB
:1031500027817C01E20EF11C27FDFA940E944B06A8
:10316000615E7F4F8F4F9F4F0E948E070E944B06DC
:1031700010E0460E571E681E791E8BE10E94920BCE
:10318000181708F4182F0E944B0664197509860950
:10319000970997FDF2CF80E00E94610D80913E0477
:1031A000082E000C990BE10EF11CE816F9060CF440
:1031B000A6C48091DC039091DD0395CE4091EA0393
:1031C0005091EB036091EC037091ED03BACECF57B1
:1031D000DF4F8881C158D0400E94200BCF57DF4F6E
:1031E0008883C158D040115090F7E7CE80910604F3
:1031F00090910704A0910804B091090480389F4F72
:10320000AF4FBF4F18F083E89EE16DCE8091BF04B1
:1032100081110DC080910A0490910B04A0910C04BF
:10322000B0910D048F3F9F4FAF4FBF4F61F3E090C0
:103230003004F090310478E1E722FF2480E1E816C1
:10324000F10409F4CEC1A0904B0480914904882375
:1032500009F4C9C180918104882309F4C4C1009193
:103260008004002309F4BFC110E0A80162E874E003
:103270008BEC94E00E94342C085F1F4F1092800466
:10328000109281048091BC04882331F086FFAEC186
:1032900090E489278093BC048091BD04882331F099
:1032A00086FFB4C190E489278093BD048091BE0459
:1032B000823009F0BBC181E08093BE040931110561
:1032C0000CF079C38091B304882361F080913404B9
:1032D0009091350497FF04C090E080E00E9474054F
:1032E0001092B3046A2C712C25E0620E711CF0E17F
:1032F000EF16F10419F4A4E06A2E712C600E711E11
:1033000031E4631671040CF09CC191E040E1E416D5
:10331000F10409F490E0E0914404E63008F096C12D
:10332000F0E0E752FD4FE491E615170408F443C3BB
:1033300080E48093C3048091B1044091B704482B8A
:10334000209134043091350437FD82C12152310976
:10335000203B324008F47CC120E488EF800F842BAE
:10336000822B8093C8044091020430910304209181
:103370000404809105044093C4043093C504209351
:10338000C6048093C7048091BF04811118C02091A6
:103390004704211114C040910A0450910B0460911C
:1033A0000C0470910D044F5F5F4F6F4F7F4F409340
:1033B0000A0450930B0460930C0470930D04209145
:1033C0000A0430910B04215031092093C904309331
:1033D000CA041092B1049923D9F190914A04992317
:1033E00009F438C190E89093C304811103C081E0CF
:1033F0008093BF04F801ED53FB4F80914904808313
:10340000C8018C539B4F6C01B12CA5016CE474E096
:103410000E94342C00910A0410910B0420910C049A
:1034200030910D0401501109210931094091020424
:103430005091030460910404709105048091490443
:10344000811115C181E994E0F12CE12C0E94D61183
:1034500083010450110980910A0490910B04A091FA
:103460000C04B0910D040197A109B1096091020407
:1034700050910304409104043091050420E1E7E5F4
:10348000F3E0C22E1192CA94E9F779E470935703DE
:1034900010925C030093660360935D0350935E0398
:1034A00040935F03309360038093610390936203C2
:1034B000A0936303B0936403E1E9F4E0A7EAB3E007
:1034C00001900D922A95E1F7A80163EC74E082E087
:1034D0000E94BC0EF801ED53FB4F6383728381831E
:1034E00090836092C2047F926F9226EC32E03F9309
:1034F0002F930E94442C0F900F900F900F9010E08C
:1035000000E08091C2048017110611F00CF0B2C0E7
:103510008AE090E00E945A2C8091C204E3ECF4E02F
:10352000CC57DF4FF983E883C458D040CA57DF4FE8
:10353000F983E883C658D04010E000E0912C812C3C
:10354000482F50E0C657DF4F59834883CA58D040B0
:10355000C657DF4F48815981CA58D0408416950616
:103560000CF4A2C01F930F931F930F9386EE92E06B
:103570009F938F930E94442C19831A8211271C83D6
:103580000B831091C204412F50E0FE0135960F903D
:103590000F900F900F900F900F90A3ECB4E090E07D
:1035A00080E0841795070CF4EEC1440F551F70E0BE
:1035B00060E083EC94E00E943D2C1E5F1093C204F7
:1035C000FE01319630E020E0812F90E02817390786
:1035D0000CF4DFC1E9EFFAE0F093DD03E093DC03E4
:1035E00017CDA12C37CE08E010E048CE9801295322
:1035F0003C4FF901E450FF4F95E0908323503F4F3B
:103600008770D9018C930E5F1F4F46CE98012953C6
:103610003C4FF901E450FF4F9AE0908323503F4F15
:103620008370F90180830E5F1F4F40CE882309F419
:1036300045CEF801ED53FB4F88E080830F5F1F4FAD
:103640003DCE380154E0650E711C64CEE0E06CCED6
:1036500020E083CE80914204882309F4CBCE809170
:1036600047048111C7CE81E080934704C3CE81EA2D
:1036700094E0EACEE091C104C80189539C4FE80F61
:10368000F92FF11DE450FF4F80811F928F9383E645
:1036900092E09F938F930E94442C0F5F1F4F0F90D7
:1036A0000F900F900F902DCFCA57DF4FA881B9818F
:1036B000C658D040BD90CA57DF4FB983A883C658BB
:1036C000D04078019CE0F594E7949A95E1F7412E7B
:1036D000552447FC5A944E245F244B2D0B2C000C90
:1036E000550B44255525CA0181709927D801A8E0BA
:1036F000BA02A12DBB0B11249801232F330F330BDA
:103700002595F901EA27FB27CE57DF4FF983E88398
:10371000C258D0402B2D2595022E000C330B2E279E
:103720003F27220F331F22703327822B932BF80160
:10373000FF0FEE0BFF0FFE2FEE1F1801232C330C93
:103740003308259425942E263F262B2D2595259547
:10375000022E000C330B22253325220F331F220F9C
:10376000331F24703327280F391FA8014427550F12
:10377000441F5527B80160E27602612D770B1124B2
:10378000CB018170992784279527B3FACC24C0F800
:10379000C857DF4FC882C858D040C757DF4F18827C
:1037A000C958D040C857DF4FC880D980C858D040CA
:1037B0008C259D25880F991F880F991F880F991FA9
:1037C000280F391F8B2D8595859585958595082E14
:1037D000000C990B8E259F2582959295907F9827B6
:1037E000807F982780719927820F931F2B2D259515
:1037F0002595259525952595022E000C330B6D01F9
:10380000C424D5242C253D25689414F8220F331F99
:103810001694E1F720723327820F931FCE57DF4FA4
:1038200028813981C258D0402E273F27CB2CC6FA99
:10383000CC0CCC08C0F80C2C000CDD082C253D2548
:10384000689415F8220F331F1694E1F7207433277C
:10385000820F931F310121E06222772464267526AE
:10386000BB1CBB24BB1C6B247694762C66247794FB
:103870006794680E791ECB01802791278170992764
:1038800084279527982F8827860D971D98013595B1
:103890002795E226F326FE2CEE24FF0CEE2432E0E0
:1038A000F3228E0D9F1D6801D594C794D594C794BB
:1038B000CA26DB26DC2CCC24DD0CDD0CCC24A4E0D9
:1038C000DA228C0D9D1D3801B3E075946794BA958A
:1038D000E1F76E267F26762C6624770C770C770C22
:1038E0006624B8E07B22860D971D9801E4E03595AB
:1038F0002795EA95E1F742265326E1E04E2255242A
:1039000044265526542C44245294F0EF5F22840D13
:10391000951D9801A5E035952795AA95E1F7CE5715
:10392000DF4FC880D980C258D0402C253D25322F8A
:1039300022273295330F307E22273072820F931F59
:10394000D80126E0B595A7952A95E1F7A225B325DC
:10395000B0E4AB9FB02DAA271124AA27B0748A0F18
:103960009B1F000F012F001F110B0627172704278D
:1039700015271127069517950027080F191F2FEFF8
:10398000821A920AE5CD2D9130E021933193019670
:1039900008CE40813296CC57DF4FA881B981C458F8
:1039A000D0404D93CC57DF4FB983A883C458D04043
:1039B0002F5F3F4F0BCE88E08093C00480914A0474
:1039C000811104C08091BF04882319F088E480939A
:1039D000C004809130049091310487769E7F90934B
:1039E0003104809330041092C2041092C1048AE022
:1039F00090E00E942D164DCA003659E0150759E394
:103A000025075CE1350728F4605A70418C41934EDC
:103A100041CB0036A3E71A07A1E52A07ACE13A0734
:103A200028F4605A7A478443934E34CB0036BDED78
:103A30001B07B9E62B07BCE13B0728F4605A744E1C
:103A40008C44934E27CB0036E7E41E07E2E82E07AE
:103A5000ECE13E0728F4605A7E448546934E1ACB2B
:103A60000036F1EB1F07FAE92F07FCE13F0728F4C6
:103A7000605A784B8D47934E0DCB00364BE11407BF
:103A800043EB24074CE1340728F4605A724286491C
:103A9000934E00CB003655E815075BEC25075CE13B
:103AA000350728F4605A7C488E4A934EF3CA003694
:103AB000AFEE1A07A3EE2A07ACE13A0728F4605AE2
:103AC000764F864C934EE6CA0036B9E51B07BCEF2D
:103AD0002B07BCE13B0728F4605A70468F4D934E8C
:103AE000D9CA0093F6031093F7032093F803309399
:103AF000F903D8CAE3E1E0CA8CE59FEF25CB8091BA
:103B00002E04877009F06AC00E943D0D81E00E947A
:103B1000610D80E00E94B70B60E085E20E94A40B7B
:103B200065E086E20E94A40B0E944B0C0E94E40B0D
:103B300069E28AE00E94A40B64E380E40E94A40B83
:103B40006091C2046F5F82E30E94A40B6091C20483
:103B500080E00E94A40B4091C20450E020E063EC9E
:103B600074E080E80E94290B81E00E9402086091C5
:103B7000EA037091EB038091EC039091ED036115E2
:103B800071058105910531F10E948E07611571055E
:103B900081059105F9F00091E4031091E50320916E
:103BA000E6033091E703DC01CB01800F911FA21FD8
:103BB000B31F8093E4039093E503A093E603B093CF
:103BC000E7038091E8039091E90301969093E9035C
:103BD0008093E80383E00E94610D5BC90E944F0D52
:103BE00081E00E94920B87FD06C061E273E085E9E7
:103BF00091E00E94020681E00E94610D0E949B0CF0
:103C00000E944B0C68E08AE00E94A40B0E94E40B27
:103C100064E389E30E94A40B6CE780E40E94A40B98
:103C20006FEF82E10E94A40B67EF81E10E94A40B79
:103C300060E08EE00E94A40B60E08DE00E94A40B87
:103C40006091C20482E285CF8091300481FF05C07B
:103C5000411551056105710589F0415752406109CF
:103C6000710921EA3EE186ED93E00E94360711C911
:103C700040E050E0BA0101FDF0CF0BC941E050E057
:103C800060E070E0EACF82E08093360409C9809159
:103C900030049091310483FF35C010924B0482FFB1
:103CA0002CC0877E909331048093300482E190E0B1
:103CB0000E942D16809130049091310485709927CF
:103CC000892B01F50E94FB058091D8039091D903BF
:103CD000A091DA03B091DB03892B8A2B8B2B79F42B
:103CE00087E495E066ED73E00E94AC040E946F06E5
:103CF00080E00E94610D0C940E178776D3CF85E487
:103D000095E0F0CF08950E94471E0E9421128CE09A
:103D100090E00E942D160C941011E0E3F4E08081F5
:103D200091818E7D9F7B91838083109202041092FB
:103D3000030410920404109205040E94471E0C9480
:103D400010110C940E17CF93809130049091310490
:103D50008777909331048093300410924704109237
:103D6000BF0420918004222351F030918104332339
:103D700009F466C0806190933104809330040E94FE
:103D80004B066E5E75488F4F9F4F40E00E94981122
:103D90008091C004877079F0809130049091310453
:103DA00094FF09C09F7E90933104809330048FE08C
:103DB00090E00E942D168AE090E00E942D160E944D
:103DC0000E1780913404909135048197B4F180915D
:103DD00044040E94200BC82F20912A0430912B0408
:103DE000809144042730310508F4C82F8C1332C069
:103DF0008091340490913504813F92404CF0809141
:103E00003004909131049064909331048093300495
:103E100063E18C2F0E94570580913004909131040A
:103E20009C01306130933104209330042817390706
:103E300021F08EE090E00E942D1681E0CF91089550
:103E400010924A041092490420934B04109280046B
:103E5000886091CFCC23E1F290E080E00E9474056D
:103E6000D7CF8091BF048823B1F1883020F58F5FD0
:103E70008093BF0480FF07C0809144040E94200B00
:103E800060E80E9457056091EE037091EF03809106
:103E9000F0039091F10343E00E9498118091300467
:103EA000909131048F7790933104809330040E9475
:103EB0000E1781E0089580E68093C0048091340459
:103EC0009091350401960E9474051092C2041092DC
:103ED000C1040C94A31E80914704882379F090912B
:103EE0004204891758F48F5F809347040E944B0661
:103EF0006E5E75488F4F9F4F40E0CECF80E2DCCFA3
:103F000080914804882341F00E94930E85E090E060
:103F10000E942D160C940E1781E080934804F6CF72
:103F2000CF92DF92EF92FF92CF93DF938091300494
:103F30009091310482FD22C085FD0DC08F77909352
:103F400031048093300481E0DF91CF91FF90EF90B6
:103F5000DF90CF9008958F75909331048093300453
:103F6000809146048A3018F48F5F8093460489E07C
:103F700090E00E942D160E940E17E5CF8F77909348
:103F800031048093300484E190E00E942D168091EA
:103F9000410480933F0480912A0490912B040E9455
:103FA000CA0F8091BF048F5F8093BF04C82FC77072
:103FB000109244048091300490913104977F909343
:103FC0003104809330040E944B066B017C012091E8
:103FD000440480E190E002C0959587952A95E2F728
:103FE0000E946A11C60ED71EE81EF91EC092EA038F
:103FF000D092EB03E092EC03F092ED03C12CD12CB4
:104000007601C394CC2399F0C12CD12C7601C1EA5E
:10401000DEE10E944B06AB01BC014C0D5D1D6E1D27
:104020007F1D9E0186ED93E00E9436078CCFC9E587
:10403000D1E2EFCF8091C00480FF0C94901F80E00C
:104040000895CF92DF92EF92FF920F931F93CF9339
:10405000DF938091C00480FF05C08091C204882353
:1040600009F402C1809130049091310487FFE6C0C9
:1040700084729927892B51F4DF91CF911F910F9171
:10408000FF90EF90DF90CF900C941A201091C20413
:1040900011110AC0DF91CF911F910F91FF90EF9006
:1040A000DF90CF900C94901F113111F0113221F755
:1040B0008091C304837E8032F9F6C12FD0E0AE0137
:1040C0004150510964EC74E080E00E94BC0E2497DA
:1040D000AE0163EC74E08AE00E94BC0E6B017C01CF
:1040E000CD53DB4F688179818A819B810E94FD2AB3
:1040F000C616D706E806F90609F0BECF8AEC94E0AA
:104100000E94ED05609302047093030480930404FD
:104110009093050487EC94E00E94ED059927609345
:10412000FE037093FF038093000490930104113207
:10413000D1F48091DF048130B1F490EDE92E94E068
:10414000F92EC0E0D70111960C9111978C91102F88
:10415000082FD0E1DC0FDC1373C0B2E0EB0EF11CD2
:10416000CD2FD03679F780913204909133040197A6
:10417000E9E9F4E028E0DF011D922A95E9F721E062
:104180002093910426E0E4ECF4E0A2E9B4E001908D
:104190000D922A95E1F7809398049093990480E119
:1041A000E1E9F4E0A1EAB4E001900D928A95E1F72B
:1041B00082E08093A10440E150E061E974E080E096
:1041C0000E94BC0E40E150E061EA74E080E00E9491
:1041D000BC0E8091300485FF08C0C09146048091D8
:1041E0004404C150E0F580934404809130049091E0
:1041F000310489759D7F98609093310480933004D9
:104200001092BF040E94C90580EC9FEF0E947405C4
:104210008091CE04982F9F709093BB0482958770F5
:104220008093BA048091CF048823E1F08093B40492
:1042300086E090E00E942D160E940E1781E015C0C6
:10424000C03609F48ACF8C2F00FF06C00E94C30439
:10425000CF5F169507957FCF0E94F304F9CF0E9498
:10426000200BBFCF81E0E2CF80E0DF91CF911F91A3
:104270000F91FF90EF90DF90CF9008958091C2044E
:1042800081110AC02091BB0447EE56E168ED78EB3E
:1042900085E090E00C94500A0E942120882391F33D
:1042A00008958091C204811102C01092C0040C9440
:1042B000212088E090E00E942D160C940E1780912A
:1042C00030049091310487FF04C081E692E00C94A1
:1042D0005C088C799927892BE1F430914404409152
:1042E0002A0450912B04832F90E04730510588F029
:1042F000863078F4FC01E752FD4FE491EE2349F05B
:10430000E83390F5FC01EF50FD4FE4910196EF3F4B
:1043100061F780913004909131049C012C7933270E
:10432000232BF9F42BE2E0E0F1E0ACE4B4E00190FF
:104330000D922A95E1F710924A0421E02093490456
:104340002BE220934B049C0128603093310420938E
:10435000300482FD04C01092BF04109247040E94F2
:104360000E178AE792E0B3CF381799F260E80E94FF
:104370005705CFCF2F923F924F925F926F927F92CD
:104380008F929F92AF92BF92CF92DF92EF92FF9265
:104390000F931F93CF93DF93CDB7DEB76C970FB614
:1043A000F894DEBF0FBECDBF998F888F3B0110926E
:1043B0008004452B09F510928104F12CE12CE614C0
:1043C000F704F4F0C7016C960FB6F894DEBF0FBE89
:1043D000CDBFDF91CF911F910F91FF90EF90DF90B4
:1043E000CF90BF90AF909F908F907F906F905F9095
:1043F0004F903F902F90089581E080938104DDCF0E
:10440000C88CD98CCE0CDF1CF6012081223050F1F3
:10441000422F4250550BFA014231510518F5EE5624
:10442000FD4FE4918E2F90E09D8B8C8B892B51F268
:10443000C3018E199F09EC89FD898E179F070CF423
:10444000C1CF2250283080F4E22FF0E0E65DFD4D30
:104450000C94F72A35223D22002489235D2334223F
:10446000F2231124E0E0DECF3701EC89FD89EE0D67
:10447000FF1D730137017F01A2CFD60107E01B8A20
:104480001A8A2A893B892B5F3F4F49019C014A893F
:104490005B89241B350B253031050CF493C0119634
:1044A0002C91119712964D915C91139714963C9113
:1044B00014973077E22FE295EF70303558F03035B1
:1044C00009F078C04115510509F47AC04427452BFD
:1044D00009F076C0E63030F4F0E0E051FD4FE491B1
:1044E000EF3F09F40D7F2F70283038F4E22FF0E011
:1044F000EF52FD4FE491E03809F40B7F15962C91B3
:10450000233009F454C08CE0E2E1F4E0DE011196BE
:1045100001900D928A95E1F780912A0490912B04E5
:104520009B8F8A8F412C10E0073009F077C09F8A5B
:104530008E8A160181E0412C10E0EE89FF893597C3
:104540000CF469C0F101A280B38011814480F42D84
:10455000F077F98BF035D9F5512C852DA0FE34C0BC
:104560000E942C065394B694A79428E05212F5CFDB
:1045700020912A0430912B044E895F8945505109BE
:104580005F8B4E8B55E0250E311C81E021153105E6
:1045900009F480E0A1014C195D09481559056CF238
:1045A000232BD9F1A12EA2948FE0A8223DC09B8A93
:1045B0008A8A67CF303609F489CF303709F482CF41
:1045C0000E7F88CF00E09FCF0E940506CBCF898960
:1045D000803578F4805F8C8F5988FC8D5F1640F6AB
:1045E000852DA0FE15C00E94C3045394B694A794D1
:1045F000F4CF512C9989852D903639F40E94C3044B
:104600005394E0E65E12F6CFE8CF0E94F304F8CFB1
:104610000E94F304EACF811101C006E0A12EA2940A
:104620007FE0A722073041F480912A0490912B0467
:1046300007E0079780F405E08CE0FE013196A2E1E7
:10464000B4E001900D928A95E1F72A8D3B8D30936D
:104650002B0420932A04BB24B394D12CC12CC40175
:104660008C199D0905976CF0602F83E00E949F05CF
:10467000B82E35E0C30ED11CC814D90414F481112E
:10468000EECF073099F4842D8F70909142048913F6
:10469000809342041F7060E8183028F4E12FF0E0A6
:1046A000EF52FD4F64918A2D0E9457054A895B891C
:1046B000E40EF51EBB2001F1D8CE20913804022E65
:1046C000000C330BC901029697FD039695958795CB
:1046D00095958795182F1F734F970CF01FE1109336
:1046E000B604D090D5030091800486E00E94800536
:1046F000811104C000938004F701BCCE8D2D0E946F
:1047000080058823B9F3812F0E948005882391F3C7
:10471000ACCEC7010196E88DF98D8E0F9F1FFC016D
:104720002081122F1F7030E044E0359527954A957F
:10473000E1F7022F07700E94ED05272F382F492F30
:104740005527A4E6B0E00E941A2B4B015C01F0E86B
:104750008F1AF1EA9F0AF3E0AF0AFCE1BF0A21E0F9
:1047600082162AE5920622E6A20622E0B20618F098
:1047700060E070E0CB0130EC3093BC04163050F4B4
:10478000E12FF0E0E051FD4FE491EF3F19F042ECF2
:104790004093BC04611571058105910529F02091B4
:1047A000BC0421602093BC04043028F42091BC0494
:1047B00024602093BC042091BC04273C61F4109336
:1047C000BB0460930E0470930F04809310049093C5
:1047D00011040093BA04622F677085E00E949F0560
:1047E000B82E68CFF60181818F7009F481E0809343
:1047F000B404F2E0F093BE0488E00E948005F0CF9C
:10480000F60181818F70809340040E944B06609373
:10481000FA037093FB038093FC039093FD0384E001
:10482000ECCFF60181818F738093B90489E0E5CFE5
:104830002F923F924F925F926F927F928F929F92B0
:10484000AF92BF92CF92DF92EF92FF920F931F939E
:10485000CF93DF9300D000D000D0CDB7DEB78091EA
:10486000300487FFE5C1F090C204F1101AC026960B
:104870000FB6F894DEBF0FBECDBFDF91CF911F9171
:104880000F91FF90EF90DF90CF90BF90AF909F90EF
:104890008F907F906F905F904F903F902F900C94EF
:1048A000311F2F2D30E03E832D832C30310544F411
:1048B0001092C2048091C00480FFD9CF80E0B9C1BA
:1048C0008091C304982F937099F7807E89838036F6
:1048D00011F0803A69F784EC94E00E94ED050091B4
:1048E0000204109103042091040430910504601720
:1048F000710782079307E1F63091C8043B833F704C
:10490000E32EC32ED12C1601A8E02A0E311C2D81D6
:104910003E81245031093E832D832215330544F214
:1049200088248A94982C221633064CF4F101ED5316
:10493000FB4F2081822E912CD60119961D014090AB
:1049400006045090070460900804709009040091D8
:10495000C9041091CA04041915090F3F100709F082
:1049600078C021E0421A51086108710820E1E7E5AA
:10497000F3E0DF01322F1D923A95E9F739E43093E5
:10498000570331E030935C03ACEFAF0DAC83A093E1
:10499000660360935D0370935E0380935F0390935F
:1049A00060034092610350926203609263037092CD
:1049B0006403E1E9F4E0A7EAB3E001900D922A95DF
:1049C000E1F74D815E8163EC74E082E00E94BC0EF1
:1049D0009B01AC01ED81FE81ED53FB4F6081718144
:1049E000828193810E94FD2A2617370748075907BD
:1049F00009F05ECF8091060490910704A09108040D
:104A0000B0910904481659066A067B0638F58415E4
:104A10009505A605B7050CF44BCF0197A109B1097F
:104A2000481659066A067B0609F042CF8091B20407
:104A3000882309F43DCFB981B03A09F039CF80E23B
:104A40008093B1048114910409F40CC101E010E0D9
:104A500033C0400E511E611C711C88CF01301044C0
:104A600008F026CFD301C2010196A11DB11D80938C
:104A7000060490930704A0930804B09309043981B5
:104A800080E2303A09F080E08093B2048093B10470
:104A900010E000E08114910441F4EE2031F08D81AA
:104AA0009E81281639060CF403CF8091B104811140
:104AB00003C09B8194FF09C0809130049091310420
:104AC00080619093310480933004109246041092D8
:104AD000B30480EC9FEF0E9474051092BC04109206
:104AE000BE04E0912E04F0912F048E2F877033E0E6
:104AF000F695E7953A95E1F7E370F0E0A3E08A9F39
:104B0000E00DF11D1124E454FD4FE4918091370430
:104B1000082E000C990B80549109ED58FF0B8E1B49
:104B20009F0B97FD80E08093B504A401B6018BEC48
:104B300094E00E94BA21012B09F0BACEBFEF8B1688
:104B40009B0699F12D813E81221933093E832D83E5
:104B50001216130654F5C1018D539B4F9A83898316
:104B60004091020450910304609104047091050483
:104B700081E994E08114910411F081EA94E0AD8020
:104B8000BE80C980DA80EE24E394F12C9301820187
:104B90000E94D6118114910441F450E040E06D81EF
:104BA0007E8189819A810E94BA219091BF049923C4
:104BB00049F0AB8120E8A5FF20E48091C004822B5E
:104BC0008093C0048091C004181419043CF18062E1
:104BD0008093C0042092C1041092C204992321F052
:104BE0008091C00486FD43CE26960FB6F894DEBFB2
:104BF0000FBECDBFDF91CF911F910F91FF90EF902E
:104C0000DF90CF90BF90AF909F908F907F906F90EC
:104C10005F904F903F902F900C94A31E80618093E3
:104C2000C0042092C104FC80F218F092C204D6CFD6
:104C300081E026960FB6F894DEBF0FBECDBFDF91A0
:104C4000CF911F910F91FF90EF90DF90CF90BF9089
:104C5000AF909F908F907F906F905F904F903F901C
:104C60002F900895EE2009F4F1CE01E010E017CF67
:104C70008091C20481110EC0A091B404B0E01196DD
:104C800024E234EF0E94132B2091BB044FED56E138
:104C90000C94500A0E941824882371F3089580917F
:104CA000C20481110BC01092C0040E944B06655EC5
:104CB00078448F4F9F4F42E00E9498110C94182423
:104CC0001F920F920FB60F9211242F933F934F9381
:104CD0005F936F937F938F939F93AF93BF93EF9364
:104CE000FF9389E495E00E94FA02FF91EF91BF9152
:104CF000AF919F918F917F916F915F914F913F9174
:104D00002F910F900FBE0F901F9018951F920F922A
:104D10000FB60F9211242F938F939F93EF93FF93CE
:104D2000E0915905F0915A058081E0915F05F0917D
:104D3000600582FD1BC09081809162058F5F8F733B
:104D400020916305821741F0E0916205F0E0E75B96
:104D5000FA4F958F80936205FF91EF919F918F910C
:104D60002F910F900FBE0F901F9018958081F4CF58
:104D70001F920F920FB60F9211242F933F938F9390
:104D80009F93AF93BF938091950390919603A091C9
:104D90009703B09198033091670323E0230F2D37D9
:104DA00058F50196A11DB11D2093670380939503CB
:104DB00090939603A0939703B09398038091680310
:104DC00090916903A0916A03B0916B030196A11DB4
:104DD000B11D8093680390936903A0936A03B09315
:104DE0006B03BF91AF919F918F913F912F910F9046
:104DF0000FBE0F901F90189526E8230F0296A11D55
:104E0000B11DD2CFE9E4F5E01382128288EE93E07F
:104E1000A0E0B0E084839583A683B7838EE391E01E
:104E20009183808385EC90E09587848784EC90E083
:104E30009787868780EC90E0918B808B81EC90E067
:104E4000938B828B82EC90E0958B848B86EC90E048
:104E5000978B868B118E128E138E148E80E591E0C7
:104E60009093E7058093E6050895CF93DF93CDB740
:104E7000DEB7A0970FB6F894DEBF0FBECDBF789413
:104E800084B5826084BD84B5816084BD85B582604F
:104E900085BD85B5816085BD80916E008160809300
:104EA0006E00109281008091810082608093810069
:104EB0008091810081608093810080918000816079
:104EC000809380008091B10084608093B1008091D4
:104ED000B00081608093B00080917A0084608093FC
:104EE0007A0080917A00826080937A0080917A00C3
:104EF000816080937A0080917A00806880937A0044
:104F00001092C100E0915905F0915A0582E080832A
:104F1000E0915505F09156051082E0915705F0910A
:104F2000580580E1808310926105E0915D05F09164
:104F30005E0586E08083E0915B05F0915C058081F1
:104F400080618083E0915B05F0915C0580818860E1
:104F50008083E0915B05F0915C05808180688083AF
:104F6000E0915B05F0915C0580818F7D808364E634
:104F700070E080E090E00E9451048AE693E00E9495
:104F80005C08E5E4F5E084E0DF011D928A95E9F72D
:104F90008CE291E09093A6038093A50386EE95E0C2
:104FA00090938C0380938B0361E08AE00E94CD0391
:104FB00061E08AE00E94FB0360E089E00E94FB035D
:104FC00060E082E00E94FB0360E086E00E94FB0359
:104FD00060E087E00E94FB031FB7F89480918A038A
:104FE000811127C0E0E4F3E08491ECE2F3E09491D6
:104FF000E82FF0E0EE0FFF1FE85EFC4FA591B491A3
:10500000EC91E92321F461E08AE00E94CD0361E0A4
:105010008AE00E94FB038CB580618CBD8CB58064F6
:105020008CBD61E08DE00E94FB0361E08BE00E949B
:10503000FB0380918A038F5F80938A031FBFECE795
:10504000F3E08EE0DF011D928A95E9F783EF95E0AA
:10505000909385038093840382E080937F03F09391
:10506000EB05E093EA0581E00E94D8070091A503D3
:105070001091A603F80182818F3F49F060E00E9401
:10508000CD0361E0D80112968C910E94FB030E942F
:105090004B06625C7F4F8F4F9F4F0E948E07F80137
:1050A00082818F3F19F060E00E94FB030E944B0653
:1050B000685C7E4F8F4F9F4F0E948E0780E00E945A
:1050C000610D82E40E94920B823109F020C280912E
:1050D0008B0390918C03DC01ED91FC910680F781AC
:1050E000E02D0995882341F08BE40E94920B682FF4
:1050F00060618BE40E94A40B82E00E946B0D81E052
:105100000E94920B87708530D1F70CE613E0BBE765
:10511000CB2EB3E0DB2EA8E0EA2EF12C8CE20E942D
:10512000920B8170B82E8CE20E94920B8170B8169F
:10513000A9F3F8018181880F8B298183F1E0EF1AAF
:10514000F10861F70F5F1F4FC016D10621F710E17C
:1051500010936C0380E00E94610D80E490E09093D6
:105160003104809330048FEF8093D5030E94211285
:1051700040E150E06AE573E0CE0141960E948D2A3D
:1051800040E150E06AE473E0CE0101960E948D2A6E
:1051900083E190E0A0E0B0E08093FE039093FF03F2
:1051A000A0930004B093010485E19AEEAEEDB0E067
:1051B0008093020490930304A0930404B093050425
:1051C000FE013196A1E9B4E0812F01900D928A95FC
:1051D000E1F7FE017196A1EAB4E001900D921A95F3
:1051E000E1F7809130049091310489759D7B98603E
:1051F00090933104809330040E94C90590E080E0D0
:105200000E94740510E0812F0E9405061F5F183070
:10521000D1F71092B30480E89FEF90933504809308
:1052200034041092BB041092B7046BE082E00E9439
:1052300057058DE893E00E945F21EFE0BE2EF0E07D
:10524000CF2EF0E0DF2E2FB7F89480919503909148
:105250009603A0919703B09198032FBF61E091FF4F
:1052600060E08DE00E94CD0379E9E72E73E0F72E30
:1052700010E000E0E091A503F091A603E00FF11F1C
:1052800083818F3FC9F1D7014D905D906D907C90E7
:10529000411451046104710479F1F7011082118203
:1052A0001282138281E00E94920B87FFCEC082E1BE
:1052B0000E94920B8093440583FF45C0F2E04F1A91
:1052C0005108610871084092EA035092EB03609222
:1052D000EC037092ED036FEF81E10E94A40B6FEF7E
:1052E00082E10E94A40B80E00E94610D8091DC03AA
:1052F0009091DD030E94F7060F5F1F4FE4E0EE0E72
:10530000F11C0330110509F0B5CF0E94FB05009197
:105310004705109148050115110509F4C9C0D801C8
:105320008D919C9190934805809347050E946F064C
:105330000115110509F4DFC0D8011696ED91FC9115
:10534000C8010995D8C086FF7BC0E0912E04F0917A
:105350002F04CF0163E0969587956A95E1F78370F6
:1053600061F4E770F0E0EE0FFF1FED58FC4F859100
:105370009491481A590A610871084092EE035092BC
:10538000EF036092F0037092F1038DE10E94920BA3
:1053900080FF45C082E20E94920B8093C20480E1AC
:1053A0000E94920B682F8DE00E94A40B4091C204D2
:1053B00050E021E063EC74E080E00E94290B89E179
:1053C0000E94920B809338048AE10E94920B282F4E
:1053D00030E04091F6035091F7036091F80370912B
:1053E000F90341345D4D6A447F41D8F02D593109AC
:1053F0009091380497FF18C0A92FBB27A1950CF4F2
:10540000B095CD019595879595958795281B390B76
:10541000203431059CF4205C209337045CCF83E179
:10542000BACF245A3109E4CF2D39BFEF3B079CF3A3
:105430006B2D0E94962A280F311DEACF2FE7ECCF63
:1054400087FF49CF1092C20446CF8EE30E94920B91
:105450008FE30E94920B83FF0CC04092EA035092AC
:10546000EB036092EC037092ED0381E00E94610D0A
:105470003ACF82FF1AC04092EE035092EF0360923F
:10548000F0037092F10382E30E94920B8093C204B6
:10549000482F50E021E063EC74E080E00E94290B8B
:1054A0001092380410923704E0CF1092C204DDCF7E
:1054B000E0914505F09146053097D9F04280538040
:1054C000648075800E944B06461A570A680A790A5A
:1054D000141415041604170464F000914505109186
:1054E0004605F8018081918190934605809345059A
:1054F0001DCF0E946F06C114D10409F4A4CE0E94EE
:10550000E602882309F49FCE0E9400009CCE65E34A
:1055100070E08EE193E00E940206FB01DC0102C014
:1055200005900D9241505040D8F70895991B79E0AD
:1055300004C0991F961708F0961B881F7A95C9F723
:1055400080950895AA1BBB1B51E107C0AA1FBB1F72
:10555000A617B70710F0A61BB70B881F991F5A95FF
:10556000A9F780959095BC01CD010895A1E21A2E6E
:10557000AA1BBB1BFD010DC0AA1FBB1FEE1FFF1FF7
:10558000A217B307E407F50720F0A21BB30BE40B47
:10559000F50B661F771F881F991F1A9469F760958E
:1055A0007095809590959B01AC01BD01CF01089548
:1055B000052E97FB1EF400940E94EF2A57FD07D09A
:1055C0000E94B62A07FC03D04EF40C94EF2A5095A3
:1055D0004095309521953F4F4F4F5F4F08959095DF
:1055E0008095709561957F4F8F4F9F4F0895EE0F77
:1055F000FF1F0590F491E02D0994692796276927EC
:105600007827872778270895A29FB001B39FC0010C
:10561000A39F700D811D1124911DB29F700D811DDE
:105620001124911D08950E94042BB7FF0895821B39
:10563000930B08950E94042BA59F900DB49F900D8D
:10564000A49F800D911D1124089597FB57FF0C9482
:10565000352B9F938F930E94352B6E1B7F0BAF9141
:10566000BF918A0B9B0B0895E894DF93CF93FC01C5
:10567000DB010E94042B7F936F93E9019A01AC0137
:10568000BF93AF933F932F93DF010E94042B26F427
:105690006C1B7D0B820B930B9E01EB01FC010E94A6
:1056A0002B2CAF91BF912F913F910E942B2CBE01CB
:1056B000CF01F9012F913F91CF91DF910895689427
:1056C00001C0E8948F929F92CF93DF930E946D2B3D
:1056D000DF91CF919F908F90089588249924F401B1
:1056E000E401B0E49F93AA279A158B049C04ED056E
:1056F000FE05CF05D007A10798F4AD2FDC2FCF2FE3
:10570000FE2FE92D982C892E982F872F762F652F25
:10571000542F432F322F2227B85031F7BF9127C083
:105720001B2EBF91BB27220F331F441F551F661F1F
:10573000771F881F991F881C991CEE1FFF1FCC1F05
:10574000DD1FAA1FBB1F8A149B04EC05FD05CE05B7
:10575000DF05A007B10748F08A189B08EC09FD098E
:10576000CE09DF09A00BB10B21601A94E1F62EF4EB
:105770009401AF01BE01CD01000C08952F923F921C
:105780004F925F926F927F928F929F92AF92BF9251
:10579000CF92DF92EF92FF920F931F93CF93DF93FD
:1057A000CDB7DEB7CA1BDB0B0FB6F894DEBF0FBE5A
:1057B000CDBF09942A88398848885F846E847D84A7
:1057C0008C849B84AA84B984C884DF80EE80FD80A9
:1057D0000C811B81AA81B981CE0FD11D0FB6F8941F
:1057E000DEBF0FBECDBFED010895002E083090F052
:1057F000982F872F762F652F542F432F322F222754
:105800000850F4CF220F331F441F551F661F771F08
:10581000881F991F0A95B2F7002D089597FD1094DF
:10582000002E083098F00850232F342F452F562F84
:10583000672F782F892F912DF4CF15949795879501
:105840007795679557954795379527950A95AAF7C0
:105850001124002D08950E94042B460F571FC81FC6
:10586000D91F08F431960895FB01DC0102C00190B4
:105870000D9241505040D8F70895DC0101C06D935E
:1058800041505040E0F70895B0E0A0E0EAE4FCE2C7
:105890000C94CE2BAE014B5F5F4FFA016191719179
:1058A000AF018091EA059091EB050E94612CE2E046
:1058B0000C94EA2B6091EA057091EB050E94512E41
:1058C0000895ABE0B0E0E7E6FCE20C94BE2B7C016F
:1058D0003B018A01FC0117821682838181FFC8C1C6
:1058E000CE0101965C01F7019381F30193FD85914F
:1058F00093FF81913F01882309F453C1853239F424
:1059000093FD859193FF81913F01853229F4B70181
:1059100090E00E94512EE7CF912C212C312CFFE1F9
:10592000F31538F08B3211F190F4803209F18332A3
:1059300029F137FC3CC020ED280F2A3050F536FE07
:1059400020C08AE0989E200D1124922E06C08D3230
:1059500091F0803371F7689430F8F30193FD8591ED
:1059600093FF81913F018111DACF21C0689431F812
:10597000689432F8F2CF689433F8EFCF689434F833
:10598000ECCFEAE02E9E200D1124222E689435F8EB
:10599000E4CF8E3229F436FC04C1689436F8DDCFAA
:1059A0008C3619F4689437F8D8CF8836B1F2982F2E
:1059B0009F7D95549330E0F08336A1F18337C1F198
:1059C000833509F063C02801F2E04F0E511CF80145
:1059D000C080D180692D70E036FC02C06FEF7FEF90
:1059E000C6010E943B2E4C01689437F882010AC020
:1059F0000C5F1F4FFFE3F98388248394912C65018A
:105A0000E89437F833FE2DC0522C8114910471F5BF
:105A1000552009F468CFB70180E290E00E94512E32
:105A20005A94F6CFF801808189830E5F1F4FE4CF2F
:105A30002801F2E04F0E511CF801C080D180692D81
:105A400070E036FC02C06FEF7FEFC6010E94462E69
:105A50004C018201D5CFB70180E290E00E94512E27
:105A60002A942814190409F0B0F7CECFF60137FCB8
:105A7000859137FE81916F01B70190E00E94512E10
:105A800051105A94F1E08F1A9108BFCF843619F063
:105A9000893609F077C0F80137FE6BC060817181EB
:105AA000828193810C5F1F4FF32DFF763F2E97FF6E
:105AB00009C090958095709561957F4F8F4F9F4F4E
:105AC000689437F82AE030E0A5010E94812EC82EA4
:105AD000CA188C2C432C36FE0CC0E89440F8C9142C
