:100000000C941E020C9446020C9446020C94460278
:100010000C9446020C9446020C9446020C94460240
:100020000C9446020C9446020C9446020C94460230
:100030000C9446020C9446020C9446020C94460220
:100040000C9408270C9446020C94D6260C94B026E7
:100050000C9446020C9446020C9446020C94460200
:100060000C9446020C944602556E6B6E6F776E20B0
:100070006576656E743A200045565F4A4F494E5F7B
:100080005458434F4D504C4554453A206E6F204ACA
:100090006F696E4163636570740045565F545843E1
:1000A000414E43454C454400206279746573206F8E
:1000B00066205048595061796C6F61643A20004164
:1000C000637475616C2053656E74200020627974CE
:1000D0006573206F662046524D5061796C6F616484
:1000E0003A0041637475616C2053656E742000455D
:1000F000565F545853544152540045565F4C494E34
:100100004B5F414C4956450045565F4C494E4B5F4D
:10011000444541440045565F5258434F4D504C456D
:1001200054450045565F52455345540045565F4C73
:100130004F53545F5453594E430046524D506179CA
:100140006C6F61643A2000206279746573206F6679
:10015000207061796C6F61643A2000526563656953
:100160007665642000526563656976656420616325
:100170006B0045565F5458434F4D504C45544520F5
:1001800028696E636C756465732077616974696E44
:100190006720666F722052582077696E646F77739C
:1001A000290045565F52454A4F494E5F4641494CEA
:1001B00045440045565F4A4F494E5F4641494C45CC
:1001C000440045565F4A4F494E45440045565F4AF4
:1001D0004F494E494E470045565F424541434F4EB9
:1001E0005F545241434B45440045565F42454143AD
:1001F0004F4E5F4D49535345440045565F4245417C
:10020000434F4E5F464F554E440045565F53434162
:100210004E5F54494D454F5554004F505F5458520E
:100220005850454E442C206E6F742073656E64697F
:100230006E67005061636B657420717565756564E8
:10024000000000000023002600290003050205012C
:100250000602020500000600000105040400040077
:1002600000000200000001000080000000400000CB
:1002700000200000002020200E11140C0F12090C89
:100280000F06090C03060900030613110F0D0B09D5
:10029000070540404080EBEB080A0C0D0E101214CD
:1002A00015181A1B1D1E2124FF060504030201FF59
:1002B000C0400000000000250028002B00000000C6
:1002C0000800020100000304070000000000000015
:1002D0000000000000240027002A0001020408108A
:1002E00020408001020408102001020408102004AC
:1002F00004040404040404020202020202030303CD
:1003000003030343579EA99CF9256204D4778F63A6
:10031000A61C0CE9B53B908577E0CF4A7DBE490D20
:1003200040B0455374617274696E6700000000004C
:100330006700CC00B80154039D07637C777BF26BA8
:100340006FC53001672BFED7AB76CA82C97DFA59DB
:1003500047F0ADD4A2AF9CA472C0B7FD9326363F40
:10036000F7CC34A5E5F171D8311504C723C318962D
:10037000059A071280E2EB27B27509832C1A1B6ECF
:100380005AA0523BD6B329E32F8453D100ED20FC71
:10039000B15B6ACBBE394A4C58CFD0EFAAFB434D74
:1003A000338545F9027F503C9FA851A3408F929D11
:1003B00038F5BCB6DA2110FFF3D2CD0C13EC5F9701
:1003C0004417C4A77E3D645D197360814FDC222A07
:1003D000908846EEB814DE5E0BDBE0323A0A49063E
:1003E000245CC2D3AC629195E479E7C8376D8DD5B2
:1003F0004EA96C56F4EA657AAE08BA78252E1CA68A
:10040000B4C6E8DD741F4BBD8B8A703EB5664803E9
:10041000F60E613557B986C11D9EE1F8981169D96C
:100420008E949B1E87E9CE5528DF8CA1890DBFE6EF
:10043000426841992D0FB054BB16522711241FBE9C
:10044000CFEFD8E0DEBFCDBF26E0AEE9B3E001C01C
:100450001D92AA33B207E1F713E0A0E0B1E0E2E6B3
:10046000FEE502C005900D92AE39B107D9F712E052
:10047000CEE1D2E004C02197FE010E94472BCD318E
:10048000D107C9F70E9485270C942F2F0C940000E8
:10049000FC0120E1215008F4089580E021118181C0
:1004A0009191990F87FD9160DF0111979C93F2CF95
:1004B000AF92BF92CF92DF92EF92FF920F931F9372
:1004C000CF93DF936C017B018B01040F151FEB01B0
:1004D0005E01AE18BF08C017D10759F06991D60167
:1004E000ED91FC910190F081E02DC6010995892BD9
:1004F00079F7C501DF91CF911F910F91FF90EF9098
:10050000DF90CF90BF90AF900895FC01538D448D44
:10051000252F30E0842F90E0821B930B541710F0AE
:10052000CF96089501970895FC01918D828D9817BB
:1005300061F0A28DAE0FBF2FB11D5D968C91928D93
:100540009F5F9F73928F90E008958FEF9FEF0895C4
:10055000FC01918D828D981731F0828DE80FF11D8D
:10056000858D90E008958FEF9FEF0895FC01918DA8
:10057000228D892F90E0805C9F4F821B91098F73A1
:100580009927089585E995E00E94B60221E0892B1C
:1005900009F420E0822F089580E090E0892B29F073
:1005A0000E94C20281110C9400000895FC01A48DE8
:1005B000A80FB92FB11DA35ABF4F2C91848D90E085
:1005C00001968F739927848FA689B7892C93A08968
:1005D000B1898C91837080648C93938D848D9813F2
:1005E00006C00288F389E02D80818F7D8083089585
:1005F000EF92FF920F931F93CF93DF93EC0181E073
:10060000888F9B8D8C8D98131AC0E889F989808119
:1006100085FF15C09FB7F894EE89FF896083E8894C
:10062000F98980818370806480839FBF81E090E03E
:10063000DF91CF911F910F91FF90EF900895F62ECB
:100640000B8D10E00F5F1F4F0F731127E02E8C8D65
:100650008E110CC00FB607FCFACFE889F9898081AA
:1006600085FFF5CFCE010E94D602F1CFEB8DEC0FC6
:10067000FD2FF11DE35AFF4FF0829FB7F8940B8FC7
:10068000EA89FB8980818062CFCF0F931F93CF933C
:10069000DF938C01D0E0C0E0F801EC0FFD1F649106
:1006A000662341F085E995E00E94F802892B11F05C
:1006B0002196F2CFCE01DF91CF911F910F91089536
:1006C000CF93DF93EC01888D8823B9F0AA89BB8989
:1006D000E889F9898C9185FD03C0808186FD0DC074
:1006E0000FB607FCF7CF8C9185FFF2CF808185FF95
:1006F000EDCFCE010E94D602E9CFDF91CF910895D0
:10070000833081F028F4813099F08230A9F0089587
:100710008730A9F08830C9F08430B1F4809180002E
:100720008F7D03C0809180008F7780938000089533
:1007300084B58F7784BD089584B58F7DFBCF80917C
:10074000B0008F778093B00008958091B0008F7DC6
:10075000F9CF1F93CF93DF93282F30E0F901E354B3
:10076000FD4F8491F901E552FD4FD491F901E1511A
:10077000FD4FC491CC23A9F0162F81110E94800354
:10078000EC2FF0E0EE0FFF1FED54FD4FA591B4915B
:100790008FB7F894EC91111108C0D095DE23DC934B
:1007A0008FBFDF91CF911F910895DE2BF8CFCF93AC
:1007B000DF9390E0FC01E552FD4F249181519D4F64
:1007C000FC0184918823D1F090E0880F991FFC01EF
:1007D000EF52FD4FA591B491FC01ED54FD4FC59131
:1007E000D49161110EC09FB7F8948C91E22FE095DF
:1007F0008E238C932881E223E8839FBFDF91CF91E2
:1008000008958FB7F894EC91E22BEC938FBFF6CF5D
:100810003FB7F8948091B4039091B503A091B603CB
:10082000B091B70326B5A89B05C02F3F19F00196DC
:10083000A11DB11D3FBFBA2FA92F982F8827BC013A
:10084000CD01620F711D811D911D42E0660F771F62
:10085000881F991F4A95D1F708958F929F92AF9262
:10086000BF92CF92DF92EF92FF924B015C010E9408
:1008700008046B017C010E9408046C197D098E0933
:100880009F09683E734081059105A8F321E0821A13
:100890009108A108B10888EEC80E83E0D81EE11CBB
:1008A000F11C81149104A104B10429F7FF90EF9089
:1008B000DF90CF90BF90AF909F908F9008950F934F
:1008C0001F936115710581059105F9F000912A04C6
:1008D00010912B0420912C0430912D04DC01CB01CC
:1008E000800F911FA21FB31F80932A0490932B04A3
:1008F000A0932C04B0932D0480912E0490912F048A
:10090000019690932F0480932E041F910F910895C8
:10091000FC01208131812115310519F490E080E03E
:1009200008952617370749F4FB0120813181FC0126
:100930003183208381E090E00895C901E9CF8036BA
:1009400060F5282F22952F7030E0220F331FF90118
:10095000E25AFB4F408151818F7061E070E002C02C
:10096000660F771F8A95E2F7CA0186239723892BA2
:1009700091F4809176049091770401969093770496
:100980008093760481E0225A3B4F462B572BF90186
:1009900051834083089580E0F6CF80E0089580364B
:1009A00070F5282F22952F7030E0220F331FF901A8
:1009B000E25AFB4F608171818F7041E050E002C0CC
:1009C000440F551F8A95E2F7CA0186239723892B86
:1009D000A1F0809176049091770401979093770429
:1009E0008093760481E0225A3B4F409550954623F0
:1009F0005723F90151834083089580E0F4CF80E0CC
:100A00000895FC0190E080E06115710509F40895F6
:100A100021913191A9015695479545755575241B2E
:100A2000350BA90143735373369527953695279552
:100A300023733373240F351FA901407F507F2F701C
:100A40003F70A4E0220F331FAA95E1F7240F351F52
:100A5000A9015527232F3327240F351F820F931FFA
:100A600061507109D1CF982F6038C1F080918F0407
:100A70006817A1F060938F0481E0209190042917FA
:100A800061F09093900480917C0490917D04986033
:100A900090937D0480937C0481E0089580E0EDCF05
:100AA000209180043091810420383F4F21F09093B1
:100AB0008104809380040895982F8091CD04E09163
:100AC000CC04882361F0EF30A0F481E08E0F809396
:100AD000CC04F0E0E253FB4F908381E00895E433CF
:100AE00048F481E08E0F8093CC04F0E0E856FB4F91
:100AF000F3CF80E00895CF93DF93C62FD091CC043D
:100B00000E945C05811106C0D093CC0480E0DF9187
:100B1000CF9108958C2F0E945C058823A9F381E072
:100B2000F6CF109206051092070580E294E4AEE13C
:100B3000BEE180935A0490935B04A0935C04B0934D
:100B40005D048FEF8093050508951092560410926E
:100B500057041092580410925904109252041092A3
:100B6000530410925404109255041092920410925F
:100B7000FF041092FE041092FD0410928E04109255
:100B800093041092080510920A05109204050C9423
:100B90009105FC0160817181828193810895682FA4
:100BA00085E995E00E94F80290E080E00895F894CD
:100BB0008091A2038F5F8093A20308950E94D705BE
:100BC000FFCFEF92FF921F93CF93DF938C3030F0E3
:100BD00067EA70E086E491E00E94DE05880F880FE6
:100BE000880F98E0980FC82FD0E010E0E92EF12C84
:100BF000CE15DF053CF0812FDF91CF911F91FF9043
:100C0000EF9008958C2F0E94CF04182B2196F0CFDF
:100C1000EF92FF921F93CF93DF93880F880F880F77
:100C200098E0980FC82FD0E010E0E92EF12CCE15F7
:100C3000DF053CF0812FDF91CF911F91FF90EF9066
:100C400008958C2F0E949F04182B2196F0CF0F93AC
:100C50001F930E940804AB01BC0120919E03DC019C
:100C6000CA013CE1B695A795979587953A95D1F736
:100C700082278870820F80939E03E4E076956795C3
:100C800057954795EA95D1F79B01382BC901BA01D1
:100C90001F910F910895AF92BF92CF92DF92EF9282
:100CA000FF920F931F93CF93DF938091A203815004
:100CB0008093A203811169C078940FE913E0D0E01A
:100CC000C0E0BB24B394E091F103F091F203EC0F88
:100CD000FD1F23812F3F09F451C0F801D080ED2C76
:100CE000F12C30E0F901E354FD4F8491F901E55214
:100CF000FD4FC490F901E151FD4FA490AA2009F4E1
:100D00004FC081110E948003EA2DF0E0EE0FFF1F1B
:100D1000EF5BFD4FA591B491EC91CE2231E020E044
:100D200009F430E0832F922FE816F90639F1DB241D
:100D3000F801D082DD2011F1CE01880F991F880FB4
:100D4000991F9C012B513C4F7901F90180819181C0
:100D5000A281B381892B8A2B8B2B81F40E942706D9
:100D6000611571058105910521F461E070E080E075
:100D700090E0F701608371838283938321960F5FF4
:100D80001F4FC330D10509F09ECFDF91CF911F9146
:100D90000F91FF90EF90DF90CF90BF90AF900895AC
:100DA00090E080E0C1CFCF93DF93EC010E94D705A4
:100DB0008091240490912504A0912604B0912704E9
:100DC000892B8A2B8B2B31F583E995E062E274E065
:100DD0000E9488041092230410922204109224048A
:100DE000109225041092260410922704D09329040F
:100DF000C0932804E0919305F0919405A3E9B5E030
:100E0000309759F482E294E08D939C93DF91CF91D7
:100E10000C944B0681E995E0D9CFDF010190F08178
:100E2000E02DEECFCF92DF92EF92FF920F931F93C0
:100E3000CF93DF93EC016A017B018901C114D104D6
:100E4000E104F10421F4C12CD12C7601C3940E9459
:100E5000D7058A819B81AC81BD81892B8A2B8B2B05
:100E600089F583E995E0BE010E9488041982188201
:100E7000CA82DB82EC82FD821F830E83E0919105A2
:100E8000F091920521E935E0309779F082819381E4
:100E9000A481B5818C199D09AE09BF0918161906E0
:100EA0001A061B0694F4F983E883F901D183C08301
:100EB000DF91CF911F910F91FF90EF90DF90CF9036
:100EC0000C944B0681E995E0CECF9F010190F08113
:100ED000E02DDACFCF92DF92EF92FF926B017C018F
:100EE0000E942706A7019601261B370B480B590BBA
:100EF000DA01C901B7FF0CC066277727CB01621B57
:100F0000730B840B950BFF90EF90DF90CF900895BB
:100F1000833332E09307A105B1058CF068E070E0FF
:100F200080E090E00E942D040E942706A701960110
:100F3000261B370B480B590BDA01C901E9CF1816EC
:100F400019061A061B0664F424E0880F991F2A95D7
:100F5000E1F7880F991F880F991F05970197F1F7FF
:100F600060E070E0CB01CFCFCF92DF92EF92FF92A3
:100F7000A091D703B091D803682F6170ED91FC91D7
:100F800011970190F081E02DCD0109956B017C0155
:100F9000C114D104E104F10461F00E9427066C0D34
:100FA0007D1D8E1D9F1DFF90EF90DF90CF900C94C4
:100FB0006A07FF90EF90DF90CF900895982FE0910F
:100FC000F103F091F20381818F3F39F061E02681D6
:100FD000291301C060E00C94A903089581E00895ED
:100FE00080E00895089560E070E0CB010895E3E0AB
:100FF000F4E084819581948396819583978196838B
:101000008783808592859087828781859385918764
:101010008387878596859787958596879485958715
:1010200084870895CF9323E034E0BC01605F7F4F55
:10103000DC01F90140E0CD9150815C2750834F5F86
:1010400034964430C1F72F5F3F4F049686179707B9
:1010500079F7CF910895FC0101900020E9F73197CD
:10106000AF01481B590BBC0185E995E00C9458026F
:101070008EE791E00C942B08CF93DF930E944503F9
:10108000EC010E9438088C0F9D1FDF91CF910895CD
:101090008F929F92AF92BF920F931F93CF93DF9344
:1010A000CDB7DEB7A1970FB6F894DEBF0FBECDBFA8
:1010B00019A2423008F44AE08E010F5D1F4F842EC2
:1010C000912CB12CA12CA50194010E94062BE62F96
:1010D000B901CA01EA30F4F4E05DD801EE938D0164
:1010E000232B242B252B79F790E080E0109719F023
:1010F000CD010E942B08A1960FB6F894DEBF0FBE5B
:10110000CDBFDF91CF911F910F91BF90AF909F9076
:101110008F900895E95CE1CF0F931F93CF93DF93F6
:1011200000D000D0CDB7DEB7DB011C969C911C9798
:101130001E963C911E971F962C911F971D964C91C1
:101140001D9749833A832B839C83BE016B5F7F4F3E
:101150009E012F5F3F4FF90111919F01412F429551
:101160004F70F0E14F9FA0011124E12FEF70E40FC9
:10117000F52FF11DE65CFC4F9491A90141505109F6
:10118000FA0190832617370731F791E05BE1813050
:1011900039F0492F440F97FD45278150942FF7CF01
:1011A0008981982799838D0194E0FE013196A801E9
:1011B000DA018D91AD0161918627BD016150710900
:1011C000DB018C93BF0161507109DB018C93E21745
:1011D000F30771F791500C5F1F4F9111E6CF0F90FD
:1011E0000F900F900F90DF91CF911F910F91089565
:1011F0003F924F925F926F927F928F929F92AF92A7
:10120000BF92CF92DF92EF92FF920F931F93CF93F3
:10121000DF93CDB7DEB768970FB6F894DEBF0FBE89
:10122000CDBF8C0123E0C22E24E0D22EAC01405F62
:101230005F4FC6017801FC01D70120E03D9130836A
:101240002F5F34962430D1F724E0E20EF11C019692
:101250004E155F0581F7A3EFB3E0FE01319683E001
:1012600094E05E2E6F2E2D9121938A179B07D9F75C
:10127000852D962D0E9412084424439487E0A82EC1
:1012800084E0B82E4E0139E1830E911C9BE1392E8A
:1012900083E094E024E0DC01712CEC914E2F429528
:1012A0004F7030E1439FA0011124EF70E40FF52F40
:1012B000F11DE65CFC4FE491EC937394149654E0BA
:1012C0007512EBCF215001962111E5CF0E94F7074F
:1012D000E3E0F4E0CE014596BE016F5E7F4F9F01D3
:1012E000D9015C91DC015D93CD01452F440F57FD81
:1012F00083C0DB014C932C5F3F4F6F5F7F4F88169D
:10130000990671F78E89398938272F89688D9A89CE
:1013100092279627432F492741934D895B8994272C
:10132000952793839C898627842785278927878308
:101330002427292732273387AE16BF0659F6652D95
:10134000762D842D0E948C08852D962D0E941208E2
:101350004394BAE04B129CCF83E094E0DC0140E080
:10136000EC912E2F22952F7050E1259F9001112492
:10137000EF70E20FF32FF11DE65CFC4FE491EC936C
:101380004F5F1496443061F77A9401967110E6CF5E
:101390000E94F707652D762D8AE00E948C08852D26
:1013A000962D0E941208D801F60180E090819D934D
:1013B0008F5F34968430D1F78FEFC81AD80A0C5F4C
:1013C0001F4FE016F10679F768960FB6F894DEBF66
:1013D0000FBECDBFDF91CF911F910F91FF90EF9086
:1013E000DF90CF90BF90AF909F908F907F906F9045
:1013F0005F904F903F90089543257BCFE091870405
:10140000A0918B04A770B0E020E43DE043E050E001
:101410000E946A2B60527F458C4C914E609342042F
:10142000709343048093440490934504809106058F
:10143000E53090F4E81BE63008F0E5E0E09387043F
:10144000F0E0E755FD4FE491F0E0EF77E068F093CE
:101450007B04E0937A040895E5E0ECCF4F925F922D
:101460006F927F928F929F92AF92BF92CF92DF92B4
:10147000EF92FF920F93CF93DF9300D000D000D074
:10148000CDB7DEB76B017C015E834D83277084E0AE
:10149000289FF0011124E35AFD4F85919591A59164
:1014A000B49189839A83AB83BC8340903604509077
:1014B0003704609038047090390460911F04709173
:1014C00020046115710531F0673091E0790710F063
:1014D00066E071E090E080E0A70196010E94752B24
:1014E00000E10E945E2C49015A0129813A814B8119
:1014F0005C81220F331F441F551FC501B401660FC5
:10150000771F881F991F620F731F841F951F6458D0
:101510007F4F8F4F9F4F0E94282B2A5F3F4F43E8FA
:101520005FEF6FEF7FEF481959096A097B092115B1
:10153000A4E03A07B8F18FEF93E09093860480938C
:101540008504C40ED51EE61EF71E4C0C5D1C6E1CD9
:101550007F1C40923A0450923B0460923C0470928B
:101560003D04B301A20141575240610971092D8127
:101570003E8182E294E026960FB6F894DEBF0FBE5D
:10158000CDBFDF91CF910F91FF90EF90DF90CF9083
:10159000BF90AF909F908F907F906F905F904F9093
:1015A0000C9412073093860420938504CACFCF92FF
:1015B000DF92EF92FF922091000530E0A4E2B4EFB9
:1015C0000E94542B6B017C010E94FE09209187042C
:1015D00043E257E1C701B601FF90EF90DF90CF9053
:1015E0000C942E0A0E94FE092091870447E257E1DD
:1015F00064EB74EC84E090E00C942E0AE82FF0E0A9
:10160000E855FD4FE491EF3F09F0815008958F9226
:101610009F92AF92BF92DF92EF92FF920F931F9330
:10162000CF93DF93D82EEB018A01E22EE091F103F4
:10163000F091F203F08080849184A284B3848114B9
:101640009104A104B10439F420E4822E22E4922E04
:101650002FE0A22EB12C40E052E16AE770E080E07A
:1016600084169506A606B70640F4769567955795B5
:1016700047958F5F8630A1F787E0982F906A9695FF
:10168000809581709CBD8DBD60E08F2D0E94A90367
:10169000DEBC00000DB407FEFDCF8EB50C0F1D1F84
:1016A000C017D10771F080E0E11001C088818EBDC4
:1016B00000000DB407FEFDCF8EB5E11088832196A2
:1016C000EFCF61E08F2DDF91CF911F910F91FF90B0
:1016D000EF90DF90BF90AF909F908F900C94A903F4
:1016E000CF93DF931F92CDB7DEB721E041E050E00A
:1016F000BE016F5F7F4F0E94070B89810F90DF91C2
:10170000CF910895CF93DF931F92CDB7DEB7698352
:1017100020E041E050E0BE016F5F7F4F80680E9493
:10172000070B0F90DF91CF910895CF93C82F62E000
:1017300082E00E94820B60E883E00E94820B61E0FD
:1017400084E00E94820B69E985E00E94820B62E1DD
:1017500087E20E94820B60EDC11168ED80E30E9478
:10176000820B60E481E30E94820B61EC88E20E94BC
:10177000820B64E989E20E94820B61EC8AE2CF91DC
:101780000C94820B0F931F93CF93DF93C091890426
:10179000C4310CF040C0CE30CCF1C2310CF0C1E10C
:1017A00061E08091D7039091D80300914204109199
:1017B00043042091440430914504DC01ED91FC91F7
:1017C0000084F185E02D4C2F0995813059F182304C
:1017D000E1F1CF301CF5CC301CF1C067D7E014E04C
:1017E0006C2F89E00E94820B8DE40E94700B887F31
:1017F000682F612B8DE40E94820B6D2F60628BE05D
:10180000DF91CF911F910F910C94820BCC3F0CF480
:10181000CCEF60E0C6CF62E0C4E1C3CFCEE0DDCF65
:10182000CC5FDCCF80917A04877011F4CB305CF010
:10183000C2302CF4C2E0C250C068DBE0D0CFC2316D
:10184000D4F3C1E1F8CFCBE0F6CFD0E117E0CFE899
:10185000C7CFAF92BF92CF92DF92EF92FF920F93DA
:101860001F93CF93DF938091420490914304A09102
:101870004404B09145049C01AD0160E070E080E05B
:1018800090E003E10E94452CA12CE8E4BE2EF8EE86
:10189000CF2EDD24D394E12CF12C00E010E00E9447
:1018A000B12BC22FB32E6A017B01182FD92F00E173
:1018B0000E94602C622F86E00E94820B2C2F3B2D11
:1018C000A601B701812F9D2F08E00E94602C622F96
:1018D00087E00E94820B6C2F88E0DF91CF911F91EF
:1018E0000F91FF90EF90DF90CF90BF90AF900C944E
:1018F000820B1F93CF93DF9360917A0470917B04E6
:10190000162F1770CB0133E0969587953A95E1F73E
:10191000D82FD370D13059F008F466C0D23009F412
:1019200065C066EC71E081E891E00E94DE05C0E8E8
:10193000CB0125E0969587952A95E1F78370823053
:1019400009F458C0833009F457C0813009F450C0FD
:10195000C260672F77276115710521F0C16082E2AF
:101960000E94820B6C2F8DE10E94820B6091860495
:10197000637060598FEF810F8295807F680F80912F
:101980007A0487FF64608EE10E94820B8BEF810FE7
:10199000823010F4DD2391F1163011F4D13071F161
:1019A00064E086E20E94820BC0E063E0D23081F402
:1019B0008091420490914304A0914404B091450465
:1019C000CFE781349D4DAA44BF4108F0C4E662E0F0
:1019D00086E30E94820BCC2399F06C2F8AE3DF917F
:1019E000CF911F910C94820BC0E7A2CFC0E9A0CF8A
:1019F000C460AFCFC660ADCFC860ABCF6CE0D1CF15
:101A0000DF91CF911F910895CF93DF93D82FC82FE7
:101A1000C77019F081E00E94B4076D2F81E00E9429
:101A2000820BC11105C080E0DF91CF910C94B40707
:101A3000DF91CF9108958091420490914304A09149
:101A40004404B091450481349D4DAA44BF4118F42B
:101A500088E00C94040D80E0FCCF809142049091CA
:101A60004304A0914404B091450481349D4DAA449F
:101A7000BF4118F488E80C94040D80E8FCCFCF93A4
:101A8000C82F81E00E94700B887F8C2BCF910C9423
:101A9000040DCF92DF92EF92FF92CF93DF93D82F76
:101AA0000E942D0D81E00E94700B87FD06C06BE93E
:101AB00073E081E891E00E94DE0581E00E943F0D25
:101AC000D23009F07CC06AE08DE10E94820B60E7B1
:101AD0008EE10E94820B63E28CE00E94820B60E444
:101AE00083E20E94820B80918F05882309F46CC0E9
:101AF00083E30E94700B682F6F7B83E30E94820B4D
:101B000080917A0490917B0423E0969587952A959D
:101B1000E1F7C82FC37081E30E94700B8877682FAC
:101B20006360C23008F056C081E30E94820B60E41B
:101B30008FE20E94820B60E480E30E94820B60913E
:101B400085048FE10E94820B64E389E30E94820B8B
:101B50006CE080E40E94820B6FEF82E10E94820BB6
:101B6000ED2FF0E0E055FD4F6491609581E10E941A
:101B7000820B80E00E94DE0760E08DE00E94820B15
:101B800060E08FE00E94820BD11128C060913A047E
:101B900070913B0480913C0490913D040E946A073F
:101BA0006B017C0186E00E943F0DC701B601DF9109
:101BB000CF91FF90EF90DF90CF900C945F040E9444
:101BC000790C0E94290C87CF83E30E94700B682F49
:101BD000606493CF682F636881E3AFCF85E0DF91C6
:101BE000CF91FF90EF90DF90CF900C943F0DCF926C
:101BF000DF92EF92FF92CF93C82F81E00E94700B8B
:101C0000877069E274E0C1F480917A04877009F00A
:101C100060C0C13041F410920E058091280490916B
:101C200029040E94D3060E941B0D81E00E94700BC4
:101C300087FF06C062E074E081E891E00E94DE0563
:101C400081E00E943F0D0E94290C63E28CE00E941B
:101C5000820B6EE18DE00E94820B6BE082E10E94BC
:101C6000820B62E183E10E94820B6AEA8FE10E94AB
:101C7000820B6FEF81E20E94820B81E00E94950B44
:101C800068E380E40E94820B80E00E94DE07C111BD
:101C900018C060913A0470913B0480913C0490918B
:101CA0003D040E946A076B017C0185E00E943F0DA4
:101CB000C701B601CF91FF90EF90DF90CF900C94C9
:101CC0005F0485E0CF91FF90EF90DF90CF900C9470
:101CD0003F0D8C2FCF91FF90EF90DF90CF900C9421
:101CE000490D8FEF9FEF90935F0480935E04909374
:101CF00061048093600490936304809362049093E2
:101D00006504809364048FEF90E090936704809360
:101D10006604EAE6F4E08CE0DF011D928A95E9F7BB
:101D200080E690E090937704809376048FEF809321
:101D30008B0408956F927F928F929F92AF92BF9281
:101D4000CF92DF92EF92FF920F931F93CF93DF9387
:101D5000CDB7DEB760970FB6F894DEBF0FBECDBF2C
:101D60007B018A01282F30E0277F2230310549F09E
:101D70002430310509F4CBC0232B09F09FC0D12CAE
:101D800098C083FD32C083EA93E00E94F80890E196
:101D9000692EFE0131966F0123EB822E23E0922EF5
:101DA00037E8732E0115110509F060C06091A30397
:101DB0007091A4038091A5039091A6030E944D2BDE
:101DC00060960FB6F894DEBF0FBECDBFDF91CF9106
:101DD0001F910F91FF90EF90DF90CF90BF90AF9049
:101DE0009F908F907F906F900895E3EAF3E080E1F9
:101DF000DF011D928A95E9F7CACF01151105E9F5B2
:101E0000E62FF0E0ED55FC4F80818058808311E093
:101E1000D601E62D1D92EA95E9F7C6010E94F80861
:101E20000981C6010E94480207FF03C088898725EF
:101E3000888B112349F01981C6010E94480217FFBF
:101E400003C088898725888BF601D5018D915D01B6
:101E50009191119789278C938A149B04B1F710E014
:101E600000E083EA93E00E94F8089CCF83EAA82E62
:101E700083E0B82ED701950160E0F90181919F01BF
:101E80009D91AF01415051098927FA0180836F5F0D
:101E90007D0101501109603109F0AFCF0115110525
:101EA00001F710E0B5CF8E0D9F1D0E94F808B0E13C
:101EB000DB0E8D2D90E080179107A8F360E070E0B5
:101EC000CB017ECF80E1E3EAF3E0DE0111960190E1
:101ED0000D928A95E1F7CE0101960E94F808FE0165
:101EE00031969701205F3F4F9191D7018C918927BF
:101EF0008D937D0101501109A217B30719F0011547
:101F0000110591F78091B2038F5F8093B2030115A1
:101F10001105C1F6D3CF9091B803911106C06CE8BA
:101F200074E081E891E00E94DE05903141F440E1E7
:101F300050E068EB73E080E00E949A0E90E0E92F99
:101F4000F0E0E854FC4F80819F5F9093B8030895C0
:101F5000DF92EF92FF920F931F93CF93DF936FE285
:101F600070E0009729F08136910530F061E370E070
:101F700084EB91E00E94DE05C0918B04D0E0CF3F5E
:101F800011F4CFEFDFEFEEE5F4E02AE634E0DF0115
:101F900032961C968D919C911D974D915C91842356
:101FA0009523938782872E173F0789F766E070E0B5
:101FB0008AE694E00E9401057C01892B09F08FC01C
:101FC0008CE0EEE5F4E0AAE6B4E001900D928A958B
:101FD000E1F766E070E08AE694E00E9401057C018A
:101FE000009709F4DDC0419708F479C010E000E0E3
:101FF000CF3FDC0751F1C136D1050CF070C09E0116
:102000002F70332781E090E002C0880F991F2A9536
:10201000E2F7FE0144E0F595E7954A95E1F7EE0F0A
:10202000FF1FE659FB4F208131818C0102231323CE
:1020300080959095822393239183808301151105C8
:1020400009F44FC070E1E71AF1080E948B0FD82EF7
:102050000E948B0F9D2DB70124E0769567952A95F8
:10206000E1F70E94F22A34E0880F991F3A95E1F7D0
:10207000EAE6F4E070E060E021913191211531054C
:1020800059F1A9015695479545755575D901A41B78
:10209000B50BAD0143735373B695A795B695A79548
:1020A000A373B3734A0F5B1FDA01A07FB07F4F7039
:1020B0005F7042955295507F5427407F54274A0FB6
:1020C0005B1FDA01BB27452F55274A0F5B1F84177B
:1020D000950780F0841B950B605F7F4FCDCF10E09C
:1020E00000E0CFEFDFEFB1CFA90141505109242328
:1020F000352340970097C1F744275527421B530BC0
:1021000042235323CA018575957521E030E0892B60
:1021100011F030E020E0CA0183739373892B09F436
:1021200047C090E080E0820F931F9A012F703F70AC
:10213000232B09F440C030E020E0820F931F30E0F1
:1021400020E0411102C028E030E0820F931F860F8B
:10215000971FFC0144E0F695E7954A95E1F7EE0FED
:10216000FF1FE659FB4FAC014F70552721E030E0CF
:10217000B90102C0660F771F4A95E2F7AB012081D3
:1021800031812627352731832083CF3FDC07B1F407
:1021900097FD06C0803491050CF4885F80938B0412
:1021A000DF91CF911F910F91FF90EF90DF900895F5
:1021B00082E090E0B8CF24E030E0BFCF24E0D595B6
:1021C000C7952A95E1F7CC0FDD1FC659DB4F288153
:1021D0003981022B132B19830883DACF80914E04A7
:1021E00090914F04A0915004B0915104892B8A2BF7
:1021F0008B2B09F04BC080917C0490917D04109250
:102200008C048E7C977A90937D0480937C0410924A
:102210000B05109292040E9491058FEF80938B041E
:1022200080917604909177040E94A80F0E9427065F
:102230006093360470933704809338049093390484
:1022400080917C0490917D0493FF06C064ED70E062
:1022500084EB91E00E94DE0510929004E091050568
:10226000EF3F91F0EF70F0E0E856FD4FE491E0931E
:102270008F04846090937D0480937C0480ED9FE1C3
:102280000E94D30681E00895E3E1F1CF80E0089554
:10229000CF92DF92EF92FF92CF93C82F0E948B0FC5
:1022A000F82E0E948B0F9F2D6C01853224EF920730
:1022B00020F024E2C21A24EFD20AF12CE12CCC2324
:1022C00069F06C2F0E94E62A292F30E0A4E2B4EFD7
:1022D0000E94542BC60ED71EE81EF91EC701B60178
:1022E000CF91FF90EF90DF90CF900895CF92DF9243
:1022F000EF92FF926B017C01842F442331F00E9406
:102300004811C60ED71EE81EF91E80918C04882342
:10231000A9F08091460490914704A0914804B0919F
:102320004904A7019601281B390B4A0B5B0BDA0104
:10233000C901181619061A061B068CF4C092460429
:10234000D0924704E0924804F092490480917C04C2
:1023500090917D04916090937D0480937C04FF9024
:10236000EF90DF90CF900895AF92BF92CF92DF921F
:10237000EF920F931F93CF93DF93DC011A141B048A
:10238000A4F590E1E3EAF3E0EF01892F19928A9531
:10239000E9F7F1E0F093B203F093A303E092A8030E
:1023A0004093A9035093AA036093AB037093AC03CB
:1023B0000093AD031093AE032093AF033093B003AB
:1023C000FD01A3EFB3E001900D929A95E1F7A5010D
:1023D000B60184E0DF91CF911F910F91EF90DF90D4
:1023E000CF90BF90AF900C949A0EDF91CF911F9138
:1023F0000F91EF90DF90CF90BF90AF9008951F9313
:10240000CF93DF93CDB7DEB72F970FB6F894DEBF2B
:102410000FBECDBF80E00E943F0D0E94D705809186
:10242000240490912504A0912604B0912704892BBF
:102430008A2B8B2B09F047C083E995E062E274E0B8
:102440000E9488040E944B068FE0E3E1F4E0DE0185
:10245000119601900D928A95E1F7E3E1F4E08EE7A1
:1024600091E0DF019C011D9221503040E1F78FE0A7
:10247000FE013196A3E1B4E001900D928A95E1F757
:102480000E948B0F182F0E948B0F912F90937F0427
:1024900080937E0410927D0410927C04109291042B
:1024A00080E8809303050E94910581E080930005F8
:1024B0002F960FB6F894DEBF0FBECDBFDF91CF9140
:1024C0001F910C94710E81E995E0B8CF2F923F9245
:1024D0004F925F926F927F928F929F92AF92BF9234
:1024E000CF92DF92EF92FF920F931F93CF93DF93E0
:1024F000CDB7DEB72A970FB6F894DEBF0FBECDBFBB
:102500008C010E9427066B017C014AE0F7FE0DC09A
:102510006DE285E995E00E94F80266277727CB01F6
:102520006C197D098E099F094AE00E94480884E1E0
:1025300093E00E942B08F8013197E431F10508F08F
:1025400085C3EB55FD4E0C94472BB912D512D8120A
:10255000DB12DE12E1122616E412E712EA125E1313
:102560006113641367136A1326166D132016311650
:1025700023168AE092E02A960FB6F894DEBF0FBECB
:10258000CDBFDF91CF911F910F91FF90EF90DF9022
:10259000CF90BF90AF909F908F907F906F905F9003
:1025A0004F903F902F900C943C088AEF91E0E3CF3E
:1025B00089EE91E0E0CF87ED91E0DDCF8CEC91E00A
:1025C000DACF82EC91E0D7CF83EB91E0D4CF82EAEF
:1025D00091E0D1CF82E791E00E943C0880910C0508
:1025E00087FF04C085E691E00E943C0880910E05BB
:1025F0008823F1F18BE591E00E94450360910E057F
:1026000070E090E080E04AE00E94480887E491E0B2
:102610000E9445038AE391E00E9445031A821982D1
:102620000EEE11E080910E0529813A818217130682
:10263000E9F0E4F0E0910D05C9018D5E9B4FE80FD4
:10264000F92FF11DE450FF4F80811F928F931F934C
:102650000F930E94942C49815A814F5F5F4F5A8398
:1026600049830F900F900F900F90DCCF0E94380895
:102670000E942706AB01BC0148595647664F7F4F61
:102680002FEA31E289ED93E02A960FB6F894DEBF87
:102690000FBECDBFDF91CF911F910F91FF90EF90B3
:1026A000DF90CF90BF90AF909F908F907F906F9072
:1026B0005F904F903F902F900C9412078CE291E026
:1026C0005ACF83E291E057CF85E191E054CF88E083
:1026D00091E051CF8AEF90E04ECF8FEE90E00E94D4
:1026E0003C081F9281E08F9383EF91E09F938F933B
:1026F0000E94942C1F9282E08F938EE192E09F9330
:102700008F930E94942CA0900E050FB6F894DEBF14
:102710000FBECDBFAA2009F4A4C2C0907A04D09005
:102720007B040C2D07700A5F960143E036952795D0
:102730004A95E1F72370C60155E0969587955A951D
:10274000E1F7837080908F04E0905604F090570476
:1027500071E0E71AF10815E0882339F016E08130BE
:1027600021F017E0823009F018E0222349F03AEF17
:10277000B32E213039F094EFB92E9924939403C0ED
:102780002DE7B22E912CC0904204709043046090CB
:102790004404509045040E9427061F92DF92FF9246
:1027A000EF921F921F939F92BF921F928F921F9240
:1027B0000F931F92AF925F926F927F92CF929F93EF
:1027C0008F937F936F9382E492E09F938F930E9405
:1027D000942C80918E041F928F938FE892E09F93A8
:1027E0008F930E94942C82EE90E00E9445036091AA
:1027F000970470E090E080E04AE00E9448088CEC8A
:1028000090E00E9445030FB6F894DEBF0FBECDBF27
:10281000F12CE12C0EEE11E0809197048E151F042F
:10282000D1F0CCF0E0910D05C7018D5E9B4FE80F14
:10283000F92FF11DEB57FF4F80811F928F931F934C
:102840000F930E94942C9FEFE91AF90A0F900F90B2
:102850000F900F90E1CF0E9438088FEB90E00E941C
:10286000450360910E0570E090E080E04AE00E9430
:10287000480888EA90E00E944503F12CE12C0EEE16
:1028800011E080910E058E151F04D1F0CCF0E0917F
:102890000D05C7018D5E9B4FE80FF92FF11DE45028
:1028A000FF4F80811F928F931F930F930E94942C50
:1028B000EFEFEE1AFE0A0F900F900F900F90E1CFFE
:1028C0000E94380880910E051F928F9383EA92E050
:1028D0009F938F930E94942C00910E050450110B2E
:1028E0000F900F900F900F908EEEE82E81E0F82E53
:1028F00080910E0580171106C9F0C4F0E0910D0516
:10290000C8018D5E9B4FE80FF92FF11DE450FF4F7A
:1029100080811F928F93FF92EF920E94942C0F5F01
:102920001F4F0F900F900F900F90E2CF0E9438082A
:1029300020910E054FE055E05C834B8390E080E0F2
:102940001A821982622F70E078876F83EF81F88591
:1029500029813A812E173F070CF048C1EB81FC8199
:102960002191FC83EB83022E000C330B6C014CE0B5
:10297000D594C7944A95E1F7A92FBB27A7FDBA952F
:10298000AC25BD253D0162267326F1E06F22772438
:102990007C016DE0F594E7946A95E1F75C01AB2C5E
:1029A000BB0CBB08A594AE24BF2449019594879421
:1029B0008A249B24880C991C42E08422992486282E
:1029C00097288C01110F000B110F102F001F2C01E5
:1029D000452C550C55084594459440265126F9013F
:1029E000F595E795F595E795E425F525EE0FFF1F9D
:1029F000EE0FFF1FE470FF27E80DF91D592F551F3B
:102A00005527551F59871A861C014BE0359427948A
:102A10004A95E1F723FB662760F96D831E82A101C9
:102A20004170552769857A85462757276D817E81B4
:102A30004627572763E0440F551F6A95E1F74E0F6D
:102A40005F1FB901E4E075956795EA95E1F76C259C
:102A50007D25F4E0660F771FFA95E1F7607177271F
:102A6000460F571FF90165E0F595E7956A95E1F77F
:102A7000BD016E257F256E277F27E5E0660F771F56
:102A8000EA95E1F760727727640F751FA50140276B
:102A90005127F901689415F8F595E7951694E1F733
:102AA0004E275F27E6E0440F551FEA95E1F7407493
:102AB0005527640F751F4201E1E08E229924498554
:102AC0005A85842695262227330F221F332728254F
:102AD00039253695322F222737952795260F371F10
:102AE000B101682779276170772764277527762FCA
:102AF0006627620F731F3C0175946794C624D72420
:102B0000DC2CCC24DD0CCC2452E0D5226C0D7D1DB8
:102B1000AC0155954795559547954E255F25542F02
:102B20004427550F550F44275470640F751FFC013F
:102B300023E0F595E7952A95E1F7E027F127FE2FA9
:102B4000EE27FF0FFF0FFF0FEE27F8706E0F7F1FAE
:102B50009C0144E0359527954A95E1F7A227B327D4
:102B6000A170BB27E985FA85AE27BF27BA2FAA2710
:102B7000B295B07F6A0F7B1F9C01E5E035952795E4
:102B8000EA95E1F72A253B25322F22273295330F8C
:102B9000307E22273072620F731F9C01A6E03595AC
:102BA0002795AA95E1F742265326B0E44B9E502C78
:102BB000442411244424F0E45F22640D751D880F21
:102BC000892F881F990B8225932529853A8582278D
:102BD00093279927869597958827860F971F498170
:102BE0005A814F5F5F4F5A834983B0CE9F938F9333
:102BF0009F938F938CEB92E09F938F930E94942CE2
:102C00000F900F900F900F900F900F902A960FB685
:102C1000F894DEBF0FBECDBFDF91CF911F910F9112
:102C2000FF90EF90DF90CF90BF90AF909F908F90EC
:102C30007F906F905F904F903F902F900C9438084A
:102C40008AE990E098CC88E790E095CC88E690E01F
:102C50000E944503B80190E080E04AE00E944808E5
:102C6000D5CF2A960FB6F894DEBF0FBECDBFDF9149
:102C7000CF911F910F91FF90EF90DF90CF90BF9079
:102C8000AF909F908F907F906F905F904F903F900C
:102C90002F900895CF92DF92EF92FF92CF93DF9320
:102CA000EC01C12CD12C7601C3940C2E04C0CC0CA9
:102CB000DD1CEE1CFF1C0A94D2F7E3FC03C0CE011E
:102CC0000E946612D701C60188279472AA27BB27E3
:102CD000892B8A2B8B2B01F1E0911704F0911804BA
:102CE0003097D1F020910E0540910D05211102C0C1
:102CF000442391F080910C0550E060E084FF04C013
:102D0000DA01A25FBA4F6C9130E0415F5A4F809177
:102D1000190490911A040995CC2484E0D822E82261
:102D2000FF24CD28CE28CF2819F1E0911B04F09183
:102D30001C043097E9F010921C0410921B04C2315D
:102D4000D10541F180910C0583FD24C0909196043A
:102D500061E0992339F0082E000C990B692F661F4A
:102D60006627661F70E080911D0490911E040995EE
:102D7000E0911304F0911404309771F0BE0180913A
:102D8000150490911604DF91CF91FF90EF90DF90A2
:102D9000CF90099460E0E6CFDF91CF91FF90EF9064
:102DA000DF90CF90089582E080930C05E0910705B5
:102DB000F0E0E755FD4FE491F0E0EF77E068F09345
:102DC0007B04E0937A0480915A0490915B04A09173
:102DD0005C04B0915D048093420490934304A093FB
:102DE0004404B093450410920E0583E190E00E94E4
:102DF0004A1680E00C94F70D8FE996E2909329042F
:102E0000809328040C94D31681EA91E290932904CC
:102E1000809328040C94D31621E020930C05EAE754
:102E2000F4E02081318120683183208310920E05E7
:102E3000909329048093280483E190E00E944A162D
:102E400080E00C94F70D88E896E20C940C178EE85D
:102E500091E20C940C172F923F924F925F926F92D7
:102E60007F928F929F92AF92BF92CF92DF92EF921A
:102E7000FF920F931F93CF93DF93CDB7DEB7CB585D
:102E8000D1090FB6F894DEBF0FBECDBF809182048A
:102E9000811149C781E08093820480917C049091E4
:102EA0007D049C01217C3327232B81F440914E0427
:102EB00050914F046091500470915104452B462B62
:102EC000472B29F582FD2FC00E94EE1080918204CD
:102ED0008150809382048111E0CFC557DF4F0FB638
:102EE000F894DEBF0FBECDBFDF91CF911F910F9140
:102EF000FF90EF90DF90CF90BF90AF909F908F901A
:102F00007F906F905F904F903F902F90089596FF25
:102F10000AC09F7B90937D0480937C048DED9EE19D
:102F20000E94D306D3CF0E9427066B017C0100913B
:102F30007C0410917D04C8018C739927892B09F4B6
:102F4000E7C613FF58C180917604909177040097EB
:102F500011F00E94A80FC0923604D0923704E0927C
:102F60003804F092390480917C0490917D04977F1D
:102F700090937D0480937C04B701A60180918C041A
:102F8000811106C080917C0490917D0490FF12C055
:102F90008091460490914704A0914804B09149045F
:102FA0002A013B01481A590A6A0A7B0A77FE02C0C5
:102FB000AC01BD0121E7C20E22E0D21EE11CF11CD2
:102FC000DB01CA018C199D09AE09BF09B7FF8CC688
:102FD00030919004CF57DF4F3883C158D0400472EE
:102FE0001127012B09F41FC180917C0410919204D8
:102FF00085FD16C110920F0590917E0480917F048B
:10300000909320058093210543E150E06FE075E047
:103010008AE00E949A0E60932505709324058093A0
:1030200023059093220587E180930E0580917E040D
:1030300090917F04019690937F0480937E0482EFA9
:103040009AE09093290480932804CF57DF4FC880DB
:10305000C158D040EC2DF0E0E755FD4FE491809150
:10306000910420E2829FC0011124EF798E2B90936E
:103070007B0480937A04C092870480917C049091B1
:103080007D048F76967F8068986090937D0480930E
:103090007C04A0918B04A03670F5B0E020E43DE004
:1030A00043E050E00E946A2B8B019C01005A1A4CAD
:1030B000274F334E00364FE9140740E224074CE116
:1030C000340708F0E9C4605A764A8340934E60930F
:1030D0004204709343048093440490934504E09128
:1030E0000505EF3F09F456C5EF70F0E0E856FD4FD7
:1030F000E491E093880490918F048091880498175C
:103100000CF4892F8093890481E190E00E944A1693
:103110001092360410923704109238041092390439
:1031200081E00E94700B877059F080E00E943F0D93
:103130000E942706625C7F4F8F4F9F4F0E946A0755
:1031400040903E0450903F046090400470904104D1
:1031500014141504160417040CF021C581E00E9414
:10316000490D8091420490914304A0914404B09190
:10317000450481349D4DAA44BF4108F40DC583E642
:103180009FEFE091F103F091F20327817C01E20EC1
:10319000F11C27FDFA940E942706615E7F4F8F4F36
:1031A0009F4F0E946A070E94270610E0460E571E96
:1031B000681E791E8BE10E94700B181708F4182FF7
:1031C0000E942706641975098609970997FDF2CFB1
:1031D00080E00E943F0D80918A04082E000C990B1C
:1031E000E10EF11CE816F9060CF4D9C4809128040C
:1031F0009091290495CE4091360450913704609106
:10320000380470913904BACECF57DF4F8881C15846
:10321000D0400E94FE0ACF57DF4F8883C158D0406C
:10322000115090F7E7CE8091520490915304A091F1
:103230005404B091550480389F4FAF4FBF4F18F0E2
:1032400083ED9EE16DCE80910B0581110DC08091C3
:10325000560490915704A0915804B09159048F3F9F
:103260009F4FAF4FBF4F61F3E0907C04F0907D041F
:1032700078E1E722FF2480E1E816F10409F4EBC1CC
:10328000A090970480919504882309F4E6C1809169
:10329000CD04882309F4E1C10091CC04002309F492
:1032A000DCC110E0A8016EEC74E087E195E00E94BB
:1032B000842C085F1F4F1092CC041092CD04809193
:1032C0000805882331F086FFCBC190E489278093DD
:1032D000080580910905882331F086FFD1C190E46B
:1032E00089278093090580910A05823009F0D8C1A9
:1032F00081E080930A05093111050CF0ACC380917F
:10330000FF04882361F0809180049091810497FFED
:1033100004C090E080E00E9450051092FF046A2CE7
:10332000712C25E0620E711CF0E1EF16F10419F426
:10333000A4E06A2E712C600E711E31E463167104D4
:103340000CF0B9C191E040E1E416F10409F490E019
:10335000E0919004E63008F0B3C1F0E0EE56FD4F86
:10336000E491E615170408F476C380E480930F0512
:103370008091FD0440910305482B209180043091F9
:10338000810437FD9FC121523109203B324008F4AE
:1033900099C120E488EF800F842B822B8093140541
:1033A00040914E0430914F0420915004809151047B
:1033B0004093100530931105209312058093130557
:1033C00080910B05811118C020919304211114C024
:1033D00040915604509157046091580470915904DB
:1033E0004F5F5F4F6F4F7F4F40935604509357048A
:1033F00060935804709359042091560430915704F7
:103400002150310920931505309316051092FD04C3
:103410009923D9F190919604992309F455C190E824
:1034200090930F05811103C081E080930B05F80193
:10343000E15FFA4F809195048083C801805F9A4FC5
:103440006C01B12CA50168E974E00E94842C009104
:10345000560410915704209158043091590401509A
:1034600011092109310940914E0450914F04609196
:1034700050047091510480919504811132C18DEDF9
:1034800094E0F12CE12C0E94B41183010450110945
:103490008091560490915704A0915804B09159041A
:1034A0000197A109B10960914E0450914F044091D8
:1034B00050043091510420E1E3EAF3E0C22E11926E
:1034C000CA94E9F779E47093A3031092A8030093D8
:1034D000B2036093A9035093AA034093AB033093C4
:1034E000AC038093AD039093AE03A093AF03B0936E
:1034F000B003EDEDF4E0A3EFB3E001900D922A9557
:10350000E1F7A8016FE075E082E00E949A0EF801F1
:10351000E15FFA4F638372838183908360920E052B
:103520007F926F9223EF32E03F932F930E94942C6F
:103530000F900F900F900F9010E000E080910E051B
:103540008017110611F00CF0CFC08AE090E00E94C5
:10355000AA2C80910E051F928F93E7E1F3E0FF9371
:10356000EF930E94942C00910E050450110B0F90C4
:103570000F900F900F9080910E058017110611F09B
:103580000CF0CCC08AE090E00E94AA2C80910E053D
:10359000AFE0B5E0CC57DF4FB983A883C458D04023
:1035A000CA57DF4FB983A883C658D04010E000E067
:1035B000912C812CC82ED12CC657DF4FD982C882BE
:1035C000CA58D040C657DF4F48815981CA58D040A9
:1035D000841695060CF4B8C01F930F931F930F9396
:1035E00081E393E09F938F930E94942C19831A8216
:1035F00011271C830B8310910E05412F50E0FE0113
:1036000035960F900F900F900F900F900F90AFE0A6
:10361000B5E090E080E0841795070CF404C2440FF5
:10362000551F70E060E08FE095E00E948D2C1E5FDA
:1036300010930E05FE01319630E020E0812F90E0DE
:10364000281739070CF4F5C1E7EDFAE0F0932904E7
:10365000E0932804FACCA12C1ACE08E010E02BCE7F
:1036600098012D5E3B4FF901E450FF4F95E09083A8
:1036700023503F4F8770D9018C930E5F1F4F29CE87
:1036800098012D5E3B4FF901E450FF4F9AE0908383
:1036900023503F4F8370F90180830E5F1F4F23CE6D
:1036A000882309F428CEF801E15FFA4F88E080838F
:1036B0000F5F1F4F20CE380154E0650E711C47CEBE
:1036C000E0E04FCE20E066CE80918E04882309F49E
:1036D000AECE809193048111AACE81E080939304B1
:1036E000A6CE8DEE94E0CDCEE0910D05C8018D5EA5
:1036F0009B4FE80FF92FF11DE450FF4F80811F927F
:103700008F938EEE91E09F938F930E94942C0F5F86
:103710001F4F0F900F900F900F9010CFE0910D055D
:10372000C8018D5E9B4FE80FF92FF11DE450FF4F4C
:1037300080811F928F932EEE31E03F932F930E9452
:10374000942C0F5F1F4F13CFCA57DF4FA881B98149
:10375000C658D040BD90CA57DF4FB983A883C6581A
:10376000D04078019CE0F594E7949A95E1F7212EFA
:10377000332427FC3A942E243F244B2D0B2C000C91
:10378000550B42255325CA0181709927D801A8E01D
:10379000BA02A12DBB0B11249801232F330F330B39
:1037A0002595F901EA27FB27CE57DF4FF983E883F8
:1037B000C258D0402B2D2595022E000C330B2E27FE
:1037C0003F27220F331F22703327822B932BF801C0
:1037D000FF0FEE0BFF0FFE2FEE1F2801452C550C9F
:1037E0005508459445944E265F262B2D2595259505
:1037F000022E000C330B24253525220F331F220FF8
:10380000331F24703327280F391FA8014427550F71
:10381000441F5527B80160E27602612D770B112411
:10382000CB018170992784279527B3FACC24C0F85F
:10383000C857DF4FC882C858D040C757DF4F1882DB
:10384000C958D040C857DF4FC880D980C858D04029
:103850008C259D25880F991F880F991F880F991F08
:10386000280F391F8B2D8595859585958595082E73
:10387000000C990B8E259F2582959295907F982715
:10388000807F982780719927820F931F2B2D259574
:103890002595259525952595022E000C330B6D0158
:1038A000C224D3242C253D25689414F8220F331FFD
:1038B0001694E1F720723327820F931FCE57DF4F04
:1038C00028813981C258D0402E273F27CB2CC6FAF9
:1038D000CC0CCC08C0F80C2C000CDD082C253D25A8
:1038E000689415F8220F331F1694E1F720743327DC
:1038F000820F931F320121E062227724642675260D
:10390000BB1CBB24BB1C6B247694762C662477945A
:103910006794680E791ECB018027912781709927C3
:1039200084279527982F8827860D971D9801359510
:103930002795E226F326FE2CEE24FF0CEE2432E03F
:10394000F3228E0D9F1D6801D594C794D594C7941A
:10395000CA26DB26DC2CCC24DD0CDD0CCC24A4E038
:10396000DA228C0D9D1D3801B3E075946794BA95E9
:10397000E1F76E267F26762C6624770C770C770C81
:103980006624B8E07B22860D971D9801E4E035950A
:103990002795EA95E1F722263326E1E02E2233240B
:1039A00024263526322C22243294F0EF3F22820D39
:1039B000931D9801A5E035952795AA95E1F7CE5777
:1039C000DF4FC880D980C258D0402C253D25322FEA
:1039D00022273295330F307E22273072820F931FB9
:1039E000D80126E0B595A7952A95E1F7A425B52538
:1039F000B0E4AB9FB02DAA271124AA27B0748A0F78
:103A00009B1F000F012F001F110B062717270427EC
:103A100015271127069517950027080F191F2FEF57
:103A2000821A920ACFCD2D9130E0219331930196E5
:103A3000F2CD40813296CC57DF4FA881B981C4586E
:103A4000D0404D93CC57DF4FB983A883C458D040A2
:103A50002F5F3F4FF5CD88E080930C058091960451
:103A6000811104C080910B05882319F088E48093AC
:103A70000C0580917C0490917D0487769E7F9093C5
:103A80007D0480937C0410920E0510920D058AE04F
:103A900090E00E944A161ACA003659E0150759E309
:103AA00025075CE1350728F4605A70418C41934E3C
:103AB0000ECB0036A3E71A07A1E52A07ACE13A07C7
:103AC00028F4605A7A478443934E01CB0036BDED0B
:103AD0001B07B9E62B07BCE13B0728F4605A744E7C
:103AE0008C44934EF4CA0036E7E41E07E2E82E0742
:103AF000ECE13E0728F4605A7E448546934EE7CABF
:103B00000036F1EB1F07FAE92F07FCE13F0728F425
:103B1000605A784B8D47934EDACA00364BE1140752
:103B200043EB24074CE1340728F4605A724286497B
:103B3000934ECDCA003655E815075BEC25075CE1CE
:103B4000350728F4605A7C488E4A934EC0CA003626
:103B5000AFEE1A07A3EE2A07ACE13A0728F4605A41
:103B6000764F864C934EB3CA0036B9E51B07BCEFBF
:103B70002B07BCE13B0728F4605A70468F4D934EEB
:103B8000A6CA009342041093430420934404309344
:103B90004504A5CAE3E1ADCA8CE59FEFF2CA809166
:103BA0007A04877009F06AC00E941B0D81E00E94B0
:103BB0003F0D80E00E94950B60E085E20E94820B41
:103BC00065E086E20E94820B0E94290C0E94C20BD3
:103BD00069E28AE00E94820B64E380E40E94820B27
:103BE00060910E056F5F82E30E94820B60910E056B
:103BF00080E00E94820B40910E0550E020E06FE0D3
:103C000075E080E80E94070B81E00E94DE0760916A
:103C1000360470913704809138049091390461150D
:103C200071058105910531F10E946A0761157105E1
:103C300081059105F9F00091300410913104209133
:103C4000320430913304DC01CB01800F911FA21F9D
:103C5000B31F8093300490933104A0933204B09347
:103C60003304809134049091350401969093350487
:103C70008093340483E00E943F0D28C90E942D0DDB
:103C800081E00E94700B87FD06C061E273E081E86D
:103C900091E00E94DE0581E00E943F0D0E94790CB8
:103CA0000E94290C68E08AE00E94820B0E94C20BED
:103CB00064E389E30E94820B6CE780E40E94820B3C
:103CC0006FEF82E10E94820B67EF81E10E94820B1D
:103CD00060E08EE00E94820B60E08DE00E94820B2B
:103CE00060910E0582E285CF80917C0481FF05C042
:103CF000411551056105710589F04157524061092F
:103D0000710921EF3EE182E294E00E941207DEC8D1
:103D100040E050E0BA0101FDF0CFD8C841E050E0EA
:103D200060E070E0EACF82E080938204D6C88091A0
:103D30007C0490917D0483FF35C01092970482FF2C
:103D40002CC0877E90937D0480937C0482E190E078
:103D50000E944A1680917C0490917D048570992779
:103D6000892B01F50E94D7058091240490912504A8
:103D7000A0912604B0912704892B8A2B8B2B79F4F0
:103D800083E995E062E274E00E9488040E944B0699
:103D900080E00E943F0D0C942B178776D3CF81E9EA
:103DA00095E0F0CF08950E94971E0E94FF118CE0CD
:103DB00090E00E944A160C94EE10ECE7F4E080814B
:103DC00091818E7D9F7B9183808310924E0410920F
:103DD0004F0410925004109251040E94971E0C94AC
:103DE000EE100C942B17CF9380917C0490917D045E
:103DF000877790937D0480937C04109293041092B3
:103E00000B052091CC04222351F03091CD043323B3
:103E100009F466C0806190937D0480937C040E94C5
:103E200027066E5E75488F4F9F4F40E00E947611C7
:103E300080910C05877079F080917C0490917D04CD
:103E400094FF09C09F7E90937D0480937C048FE053
:103E500090E00E944A168AE090E00E944A160E9472
:103E60002B1780918004909181048197B4F1809107
:103E700090040E94FE0AC82F2091760430917704A6
:103E8000809190042730310508F4C82F8C1332C07C
:103E90008091800490918104813F92404CF0809108
:103EA0007C0490917D04906490937D0480937C04C5
:103EB00063E18C2F0E94330580917C0490917D04F6
:103EC0009C01306130937D0420937C0428173907CE
:103ED00021F08EE090E00E944A1681E0CF91089593
:103EE0001092960410929504209397041092CC049B
:103EF000886091CFCC23E1F290E080E00E945005F1
:103F0000D7CF80910B058823B1F1883020F58F5FE2
:103F100080930B0580FF07C0809190040E94FE0AE9
:103F200060E80E94330560913A0470913B048091EF
:103F30003C0490913D0443E00E94761180917C0402
:103F400090917D048F7790937D0480937C040E94F0
:103F50002B1781E0089580E680930C058091800402
:103F60009091810401960E94500510920E051092C6
:103F70000D050C94F31E80919304882379F09091A1
:103F80008E04891758F48F5F809393040E9427064C
:103F90006E5E75488F4F9F4F40E0CECF80E2DCCF02
:103FA00080919404882341F00E94710E85E090E096
:103FB0000E944A160C942B1781E080939404F6CF4C
:103FC000CF92DF92EF92FF92CF93DF9380917C04A8
:103FD00090917D0482FD22C085FD0DC08F77909366
:103FE0007D0480937C0481E0DF91CF91FF90EF907E
:103FF000DF90CF9008958F7590937D0480937C041B
:10400000809192048A3018F48F5F8093920489E043
:1040100090E00E944A160E942B17E5CF8F7790936D
:104020007D0480937C0484E190E00E944A16809194
:104030008D0480938B0480917604909177040E9484
:10404000A80F80910B058F5F80930B05C82FC77059
:104050001092900480917C0490917D04977F9093BE
:104060007D0480937C040E9427066B017C012091D3
:10407000900480E190E002C0959587952A95E2F73B
:104080000E944811C60ED71EE81EF91EC0923604C3
:10409000D0923704E0923804F0923904C12CD12C2C
:1040A0007601C394CC2399F0C12CD12C7601C1EFB9
:1040B000DEE10E942706AB01BC014C0D5D1D6E1DAB
:1040C0007F1D9E0182E294E00E9412078CCFC9EA14
:1040D000D1E2EFCF80910C0580FF0C94E01F80E0CF
:1040E0000895CF92DF92EF92FF920F931F93CF9399
:1040F000DF9380910C0580FF05C080910E05882319
:1041000009F402C180917C0490917D0487FFE6C090
:1041100084729927892B51F4DF91CF911F910F91D0
:10412000FF90EF90DF90CF900C946A2010910E05D5
:1041300011110AC0DF91CF911F910F91FF90EF9065
:10414000DF90CF900C94E01F113111F0113221F764
:1041500080910F05837E8032F9F6C12FD0E0AE0149
:104160004150510960E175E080E00E949A0E249769
:10417000AE016FE075E08AE00E949A0E6B017C014F
:10418000C15FDA4F688179818A819B810E944D2BC2
:10419000C616D706E806F90609F0BECF86E195E017
:1041A0000E94C90560934E0470934F04809350049D
:1041B0009093510483E195E00E94C905992760938B
:1041C0004A0470934B0480934C0490934D04113235
:1041D000D1F480912B058130B1F49CE1E92E95E07A
:1041E000F92EC0E0D70111960C9111978C91102FE8
:1041F000082FD0E1DC0FDC1373C0B2E0EB0EF11C32
:10420000CD2FD03679F780917E0490917F0401976D
:10421000E5EEF4E028E0DF011D922A95E9F721E0C0
:104220002093DD0426E0E0E1F5E0AEEDB4E001909E
:104230000D922A95E1F78093E4049093E50480E1E0
:10424000EDEDF4E0ADEEB4E001900D928A95E1F76A
:1042500082E08093ED0440E150E06DED74E080E099
:104260000E949A0E40E150E06DEE74E080E00E9402
:104270009A0E80917C0485FF08C0C09192048091C1
:104280009004C150E0F58093900480917C0490915B
:104290007D0489759D7F986090937D0480937C0454
:1042A00010920B050E94A50580EC9FEF0E9450051F
:1042B00080911A05982F9F709093070582958770BB
:1042C0008093060580911B058823E1F0809300050B
:1042D00086E090E00E944A160E942B1781E015C0EC
:1042E000C03609F48ACF8C2F00FF06C00E949F04BD
:1042F000CF5F169507957FCF0E94CF04F9CF0E941C
:10430000FE0ABFCF81E0E2CF80E0DF91CF911F9125
:104310000F91FF90EF90DF90CF90089580910E0560
:1043200081110AC02091070544E057E168ED78EB60
:1043300085E090E00C942E0A0E947120882391F36E
:10434000089580910E05811102C010920C050C9405
:10435000712088E090E00E944A160C942B178091FF
:104360007C0490917D0487FF04C08AE192E00C9464
:104370003C088C799927892BE1F430919004409185
:10438000760450917704832F90E04730510588F0F0
:10439000863078F4FC01EE56FD4FE491EE2349F0AF
:1043A000E43290F5FC01E655FD4FE4910196EF3FB4
:1043B00061F780917C0490917D049C012C793327D6
:1043C000232BF9F427E1E0E0F1E0A8E9B4E0019063
:1043D0000D922A95E1F71092960421E0209395041E
:1043E00027E1209397049C01286030937D0420935B
:1043F0007C0482FD04C010920B05109293040E946D
:104400002B1783E392E0B3CF381799F260E80E944C
:104410003305CFCF2F923F924F925F926F927F9250
:104420008F929F92AF92BF92CF92DF92EF92FF92C4
:104430000F931F93CF93DF93CDB7DEB76C970FB673
:10444000F894DEBF0FBECDBF998F888F3B011092CD
:10445000CC04452B09F51092CD04F12CE12CE61487
:10446000F704F4F0C7016C960FB6F894DEBF0FBEE8
:10447000CDBFDF91CF911F910F91FF90EF90DF9013
:10448000CF90BF90AF909F908F907F906F905F90F4
:104490004F903F902F90089581E08093CD04DDCF21
:1044A000C88CD98CCE0CDF1CF6012081223050F153
:1044B000422F4250550BFA014231510518F5E55B88
:1044C000FD4FE4918E2F90E09D8B8C8B892B51F2C8
:1044D000C3018E199F09EC89FD898E179F070CF483
:1044E000C1CF2250283080F4E22FF0E0E658FD4D95
:1044F0000C94472B85228D225024D923AD2384226E
:1045000042246124E0E0DECF3701EC89FD89EE0D25
:10451000FF1D730137017F01A2CFD60107E01B8A7F
:104520001A8A2A893B892B5F3F4F49019C014A899E
:104530005B89241B350B253031050CF493C0119693
:104540002C91119712964D915C91139714963C9172
:1045500014973077E22FE295EF70303558F0303510
:1045600009F078C04115510509F47AC04427452B5C
:1045700009F076C0E63030F4F0E0E755FD4FE49105
:10458000EF3F09F40D7F2F70283038F4E22FF0E070
:10459000E657FD4FE491E03809F40B7F15962C9116
:1045A000233009F454C08CE0EEE5F4E0DE0111960E
:1045B00001900D928A95E1F78091760490917704AD
:1045C0009B8F8A8F412C10E0073009F077C09F8ABB
:1045D0008E8A160181E0412C10E0EE89FF89359723
:1045E0000CF469C0F101A280B38011814480F42DE4
:1045F000F077F98BF035D9F5512C852DA0FE34C01C
:104600000E9408065394B694A79428E05212F5CF5E
:1046100020917604309177044E895F894550510985
:104620005F8B4E8B55E0250E311C81E02115310545
:1046300009F480E0A1014C195D09481559056CF297
:10464000232BD9F1A12EA2948FE0A8223DC09B8AF2
:104650008A8A67CF303609F489CF303709F482CFA0
:104660000E7F88CF00E09FCF0E94E105CBCF8989E4
:10467000803578F4805F8C8F5988FC8D5F1640F60A
:10468000852DA0FE15C00E949F045394B694A79454
:10469000F4CF512C9989852D903639F40E949F04CE
:1046A0005394E0E65E12F6CFE8CF0E94CF04F8CF35
:1046B0000E94CF04EACF811101C006E0A12EA2948E
:1046C0007FE0A722073041F480917604909177042F
:1046D00007E0079780F405E08CE0FE013196AEE537
:1046E000B4E001900D928A95E1F72A8D3B8D3093CD
:1046F000770420937604BB24B394D12CC12CC4013D
:104700008C199D0905976CF0602F83E00E947B0552
:10471000B82E35E0C30ED11CC814D90414F481118D
:10472000EECF073099F4842D8F7090918E04891309
:1047300080938E041F7060E8183028F4E12FF0E0B9
:10474000E657FD4F64918A2D0E9433054A895B89A3
:10475000E40EF51EBB2001F1D8CE20918404022E78
:10476000000C330BC901029697FD0396959587952A
:1047700095958795182F1F734F970CF01FE1109395
:104780000205D09021040091CC0486E00E945C05D3
:10479000811104C00093CC04F701BCCE8D2D0E9482
:1047A0005C058823B9F3812F0E945C05882391F36F
:1047B000ACCEC7010196E88DF98D8E0F9F1FFC01CD
:1047C0002081122F1F7030E044E0359527954A95DF
:1047D000E1F7022F07700E94C905272F382F492FB4
:1047E0005527A4E6B0E00E946A2B4B015C01F0E87B
:1047F0008F1AF1EA9F0AF3E0AF0AFCE1BF0A21E059
:1048000082162AE5920622E6A20622E0B20618F0F7
:1048100060E070E0CB0130EC30930805163050F4C6
:10482000E12FF0E0E755FD4FE491EF3F19F042EC46
:1048300040930805611571058105910529F02091C6
:104840000805216020930805043028F4209108050C
:1048500024602093080520910805273C61F41093FB
:10486000070560935A0470935B0480935C049093F3
:104870005D0400930605622F677085E00E947B054A
:10488000B82E68CFF60181818F7009F481E08093A2
:104890000005F2E0F0930A0588E00E945C05F0CF85
:1048A000F60181818F7080938C040E9427066093AB
:1048B000460470934704809348049093490484E02D
:1048C000ECCFF60181818F738093050589E0E5CFF8
:1048D0002F923F924F925F926F927F928F929F9210
:1048E000AF92BF92CF92DF92EF92FF920F931F93FE
:1048F000CF93DF9300D000D000D0CDB7DEB780914A
:104900007C0487FFE5C1F0900E05F1101AC02696D1
:104910000FB6F894DEBF0FBECDBFDF91CF911F91D0
:104920000F91FF90EF90DF90CF90BF90AF909F904E
:104930008F907F906F905F904F903F902F900C944E
:10494000811F2F2D30E03E832D832C30310544F420
:1049500010920E0580910C0580FFD9CF80E0B9C17F
:1049600080910F05982F937099F7807E8983803608
:1049700011F0803A69F780E195E00E94C905009145
:104980004E0410914F04209150043091510460174F
:10499000710782079307E1F6309114053B833F705E
:1049A000E32EC32ED12C1601A8E02A0E311C2D8136
:1049B0003E81245031093E832D832215330544F274
:1049C00088248A94982C221633064CF4F101E15F76
:1049D000FA4F2081822E912CD60119961D0140900C
:1049E0005204509053046090540470905504009108
:1049F000150510911605041915090F3F100709F048
:104A000078C021E0421A51086108710820E1E3EA08
:104A1000F3E0DF01322F1D923A95E9F739E4309344
:104A2000A30331E03093A803ACEFAF0DAC83A093A8
:104A3000B2036093A9037093AA038093AB0390938E
:104A4000AC034092AD035092AE036092AF037092FC
:104A5000B003EDEDF4E0A3EFB3E001900D922A95E1
:104A6000E1F74D815E816FE075E082E00E949A0E71
:104A70009B01AC01ED81FE81E15FFA4F60817181A4
:104A8000828193810E944D2B2617370748075907CB
:104A900009F05ECF8091520490915304A091540488
:104AA000B0915504481659066A067B0638F58415F8
:104AB0009505A605B7050CF44BCF0197A109B109DF
:104AC000481659066A067B0609F042CF8091FE041B
:104AD000882309F43DCFB981B03A09F039CF80E29B
:104AE0008093FD048114910409F40CC101E010E0ED
:104AF00033C0400E511E611C711C88CF0130104420
:104B000008F026CFD301C2010196A11DB11D8093EB
:104B1000520490935304A0935404B09355043981E4
:104B200080E2303A09F080E08093FE048093FD0437
:104B300010E000E08114910441F4EE2031F08D8109
:104B40009E81281639060CF403CF8091FD04811153
:104B500003C09B8194FF09C080917C0490917D04E7
:104B6000806190937D0480937C0410929204109253
:104B7000FF0480EC9FEF0E945005109208051092F0
:104B80000A05E0917A04F0917B048E2F877033E060
:104B9000F695E7953A95E1F7E370F0E0A3E08A9F98
:104BA000E00DF11D1124EB58FD4FE4918091830439
:104BB000082E000C990B80549109ED58FF0B8E1BA9
:104BC0009F0B97FD80E080930105A401B60187E16A
:104BD00095E00E940A22012B09F0BACEBFEF8B1696
:104BE0009B0699F12D813E81221933093E832D8345
:104BF0001216130654F5C101815F9A4F9A83898377
:104C000040914E0450914F046091500470915104B2
:104C10008DED94E08114910411F08DEE94E0AD805F
:104C2000BE80C980DA80EE24E394F12C93018201E6
:104C30000E94B4118114910441F450E040E06D8170
:104C40007E8189819A810E940A2290910B05992385
:104C500049F0AB8120E8A5FF20E480910C05822B70
:104C600080930C0580910C05181419043CF18062A6
:104C700080930C0520920D0510920E05992321F0CA
:104C800080910C0586FD43CE26960FB6F894DEBFC4
:104C90000FBECDBFDF91CF911F910F91FF90EF908D
:104CA000DF90CF90BF90AF909F908F907F906F904C
:104CB0005F904F903F902F900C94F31E80618093F3
:104CC0000C0520920D05FC80F218F0920E05D6CF4F
:104CD00081E026960FB6F894DEBF0FBECDBFDF9100
:104CE000CF911F910F91FF90EF90DF90CF90BF90E9
:104CF000AF909F908F907F906F905F904F903F907C
:104D00002F900895EE2009F4F1CE01E010E017CFC6
:104D100080910E0581110EC0A0910005B0E01196A2
:104D200024E234EF0E94632B209107054CEF56E1FB
:104D30000C942E0A0E946824882371F308958091B0
:104D40000E0581110BC010920C050E942706655EAE
:104D500078448F4F9F4F42E00E9476110C94682454
:104D60001F920F920FB60F9211242F933F934F93E0
:104D70005F936F937F938F939F93AF93BF93EF93C3
:104D8000FF9385E995E00E94D602FF91EF91BF91D4
:104D9000AF919F918F917F916F915F914F913F91D3
:104DA0002F910F900FBE0F901F9018951F920F928A
:104DB0000FB60F9211242F938F939F93EF93FF932E
:104DC000E091A505F091A6058081E091AB05F091F9
:104DD000AC0582FD1BC090818091AE058F5F8F7303
:104DE0002091AF05821741F0E091AE05F0E0EB565F
:104DF000FA4F958F8093AE05FF91EF919F918F9120
:104E00002F910F900FBE0F901F9018958081F4CFB7
:104E10001F920F920FB60F9211242F933F938F93EF
:104E20009F93AF93BF938091E1039091E203A09190
:104E3000E303B091E4033091B30323E0230F2D3754
:104E400058F50196A11DB11D2093B3038093E10392
:104E50009093E203A093E303B093E4038091B4033F
:104E60009091B503A091B603B091B7030196A11D2F
:104E7000B11D8093B4039093B503A093B603B09390
:104E8000B703BF91AF919F918F913F912F910F9059
:104E90000FBE0F901F90189526E8230F0296A11DB4
:104EA000B11DD2CFE5E9F5E01382128288EE93E0DE
:104EB000A0E0B0E084839583A683B7838AE291E083
:104EC0009183808385EC90E09587848784EC90E0E3
:104ED0009787868780EC90E0918B808B81EC90E0C7
:104EE000938B828B82EC90E0958B848B86EC90E0A8
:104EF000978B868B118E128E138E148E8CE391E01D
:104F000090933306809332060895CF93DF93CDB705
:104F1000DEB7A0970FB6F894DEBF0FBECDBF789472
:104F200084B5826084BD84B5816084BD85B58260AE
:104F300085BD85B5816085BD80916E00816080935F
:104F40006E001092810080918100826080938100C8
:104F500080918100816080938100809180008160D8
:104F6000809380008091B10084608093B100809133
:104F7000B00081608093B00080917A00846080935B
:104F80007A0080917A00826080937A0080917A0022
:104F9000816080937A0080917A00806880937A00A3
:104FA0001092C100E091A505F091A60582E08083F2
:104FB000E091A105F091A2051082E091A305F09186
:104FC000A40580E180831092AD05E091A905F091E0
:104FD000AA0586E08083E091A705F091A80580816D
:104FE00080618083E091A705F091A80580818860A9
:104FF0008083E091A705F091A80580818068808377
:10500000E091A705F091A80580818F7D808364E6FB
:1050100070E080E090E00E942D0483E293E00E9423
:105020003C08E1E9F5E084E0DF011D928A95E9F7AB
:1050300088E191E09093F2038093F10382E396E09C
:105040009093D8038093D70361E08AE00E94A9037C
:1050500061E08AE00E94D70360E089E00E94D70304
:1050600060E082E00E94D70360E086E00E94D70300
:1050700060E087E00E94D7031FB7F8948091D603C1
:10508000811127C0E9EFF2E08491E5EEF2E094911E
:10509000E82FF0E0EE0FFF1FEF52FD4FA591B49106
:1050A000EC91E92321F461E08AE00E94A90361E028
:1050B0008AE00E94D7038CB580618CBD8CB580647A
:1050C0008CBD61E08DE00E94D70361E08BE00E941F
:1050D000D7038091D6038F5F8093D6031FBFE8EC80
:1050E000F3E08EE0DF011D928A95E9F78FEC95E001
:1050F0009093D1038093D00382E08093CB03F0930D
:105100003706E093360681E00E94B4070091F10370
:105110001091F203F80182818F3F49F060E00E9414
:10512000A90361E0D80112968C910E94D7030E94D6
:105130002706625C7F4F8F4F9F4F0E946A07F801DE
:1051400082818F3F19F060E00E94D7030E942706FA
:10515000685C7E4F8F4F9F4F0E946A0780E00E94DD
:105160003F0D82E40E94700B823109F020C28091D1
:10517000D7039091D803DC01ED91FC910680F78173
:10518000E02D0995882341F08BE40E94700B682F75
:1051900060618BE40E94820B82E00E94490D81E0F5
:1051A0000E94700B87708530D1F708EB13E0B7ECE5
:1051B000CB2EB3E0DB2EA8E0EA2EF12C8CE20E948D
:1051C000700B8170B82E8CE20E94700B8170B81643
:1051D000A9F3F8018181880F8B298183F1E0EF1A0F
:1051E000F10861F70F5F1F4FC016D10621F710E1DC
:1051F0001093B80380E00E943F0D80E490E090930C
:105200007D0480937C048FEF809321040E94FF1122
:1052100040E150E063E173E0CE0141960E94DD2A57
:1052200040E150E063E073E0CE0101960E94DD2A88
:1052300083E190E0A0E0B0E080934A0490934B04B7
:10524000A0934C04B0934D0485E19AEEAEEDB0E02E
:1052500080934E0490934F04A0935004B093510454
:10526000FE013196ADEDB4E0812F01900D928A954B
:10527000E1F7FE017196ADEEB4E001900D921A9542
:10528000E1F780917C0490917D0489759D7B986005
:1052900090937D0480937C040E94A50590E080E0BB
:1052A0000E94500510E0812F0E94E1051F5F183019
:1052B000D1F71092FF0480E89FEF909381048093D0
:1052C0008004109207051092030561E182E00E94BC
:1052D000330589ED93E00E94AF21EFE0BE2EF0E0B0
:1052E000CF2EF0E0DF2E2FB7F8948091E10390915C
:1052F000E203A091E303B091E4032FBF61E091FFCB
:1053000060E08DE00E94A90375EEE72E73E0F72EB2
:1053100010E000E0E091F103F091F203E00FF11FE3
:1053200083818F3FC9F1D7014D905D906D907C9046
:10533000411451046104710479F1F7011082118262
:105340001282138281E00E94700B87FFCEC082E13F
:105350000E94700B8093900583FF45C0F2E04F1AC6
:1053600051086108710840923604509237046092E7
:105370003804709239046FEF81E10E94820B6FEF65
:1053800082E10E94820B80E00E943F0D8091280400
:10539000909129040E94D3060F5F1F4FE4E0EE0EA8
:1053A000F11C0330110509F0B5CF0E94D70500911B
:1053B0009305109194050115110509F4C9C0D80190
:1053C0008D919C9190939405809393050E944B0638
:1053D0000115110509F4DFC0D8011696ED91FC9175
:1053E000C8010995D8C086FF7BC0E0917A04F0918E
:1053F0007B04CF0163E0969587956A95E1F783700A
:1054000061F4E770F0E0EE0FFF1FE45DFC4F859163
:105410009491481A590A6108710840923A045092CE
:105420003B0460923C0470923D048DE10E94700B3D
:1054300080FF45C082E20E94700B80930E0580E1E0
:105440000E94700B682F8DE00E94820B40910E0528
:1054500050E021E06FE075E080E00E94070B89E1F9
:105460000E94700B809384048AE10E94700B282FA5
:1054700030E04091420450914304609144047091A3
:10548000450441345D4D6A447F41D8F02D593109BE
:105490009091840497FF18C0A92FBB27A1950CF405
:1054A000B095CD019595879595958795281B390BD6
:1054B000203431059CF4205C209383045CCF83E18D
:1054C000BACF245A3109E4CF2D39BFEF3B079CF303
:1054D0006B2D0E94E62A280F311DEACF2FE7ECCF73
:1054E00087FF49CF10920E0546CF8EE30E94700BC6
:1054F0008FE30E94700B83FF0CC0409236045092E1
:105500003704609238047092390481E00E943F0DA4
:105510003ACF82FF1AC040923A0450923B04609204
:105520003C0470923D0482E30E94700B80930E0550
:10553000482F50E021E06FE075E080E00E94070B0B
:105540001092840410928304E0CF10920E05DDCFF8
:10555000E0919105F09192053097D9F04280538007
:10556000648075800E942706461A570A680A790ADD
:10557000141415041604170464F000919105109199
:105580009205F80180819181909392058093910515
:105590001DCF0E944B06C114D10409F4A4CE0E9471
:1055A000C202882309F49FCE0E9400009CCE65E3CE
:1055B00070E089E693E00E94DE05FB01DC0102C099
:1055C00005900D9241505040D8F70895991B79E00D
:1055D00004C0991F961708F0961B881F7A95C9F783
:1055E00080950895AA1BBB1B51E107C0AA1FBB1FD2
:1055F000A617B70710F0A61BB70B881F991F5A955F
:10560000A9F780959095BC01CD010895A1E21A2ECD
:10561000AA1BBB1BFD010DC0AA1FBB1FEE1FFF1F56
:10562000A217B307E407F50720F0A21BB30BE40BA6
:10563000F50B661F771F881F991F1A9469F76095ED
:105640007095809590959B01AC01BD01CF010895A7
:10565000052E97FB1EF400940E943F2B57FD07D0A8
:105660000E94062B07FC03D04EF40C943F2B509560
:105670004095309521953F4F4F4F5F4F089590953E
:105680008095709561957F4F8F4F9F4F0895EE0FD6
:10569000FF1F0590F491E02D09946927962769274B
:1056A0007827872778270895A29FB001B39FC0016C
:1056B000A39F700D811D1124911DB29F700D811D3E
:1056C0001124911D08950E94542BB7FF0895821B49
:1056D000930B08950E94542BA59F900DB49F900D9D
:1056E000A49F800D911D1124089597FB57FF0C94E2
:1056F000852B9F938F930E94852B6E1B7F0BAF9101
:10570000BF918A0B9B0B0895E894DF93CF93FC0124
:10571000DB010E94542B7F936F93E9019A01AC0146
:10572000BF93AF933F932F93DF010E94542B26F436
:105730006C1B7D0B820B930B9E01EB01FC010E9405
:105740007B2CAF91BF912F913F910E947B2CBE018A
:10575000CF01F9012F913F91CF91DF910895689486
:1057600001C0E8948F929F92CF93DF930E94BD2B4C
:10577000DF91CF919F908F90089588249924F40110
:10578000E401B0E49F93AA279A158B049C04ED05CD
:10579000FE05CF05D007A10798F4AD2FDC2FCF2F42
:1057A000FE2FE92D982C892E982F872F762F652F85
:1057B000542F432F322F2227B85031F7BF9127C0E3
:1057C0001B2EBF91BB27220F331F441F551F661F7F
:1057D000771F881F991F881C991CEE1FFF1FCC1F65
:1057E000DD1FAA1FBB1F8A149B04EC05FD05CE0517
:1057F000DF05A007B10748F08A189B08EC09FD09EE
:10580000CE09DF09A00BB10B21601A94E1F62EF44A
:105810009401AF01BE01CD01000C08952F923F927B
:105820004F925F926F927F928F929F92AF92BF92B0
:10583000CF92DF92EF92FF920F931F93CF93DF935C
:10584000CDB7DEB7CA1BDB0B0FB6F894DEBF0FBEB9
:10585000CDBF09942A88398848885F846E847D8406
:105860008C849B84AA84B984C884DF80EE80FD8008
:105870000C811B81AA81B981CE0FD11D0FB6F8947E
:10588000DEBF0FBECDBFED010895002E083090F0B1
:10589000982F872F762F652F542F432F322F2227B3
:1058A0000850F4CF220F331F441F551F661F771F68
:1058B000881F991F0A95B2F7002D089597FD10943F
:1058C000002E083098F00850232F342F452F562FE4
:1058D000672F782F892F912DF4CF15949795879561
:1058E0007795679557954795379527950A95AAF720
:1058F0001124002D08950E94542B460F571FC81FD6
:10590000D91F08F431960895FB01DC0102C0019013
:105910000D9241505040D8F70895DC0101C06D93BD
:1059200041505040E0F70895B0E0A0E0EAE9FCE221
:105930000C941E2CAE014B5F5F4FFA016191719187
:10594000AF0180913606909137060E94B12CE2E0BB
:105950000C943A2C60913606709137060E94A12E65
:105960000895ABE0B0E0E7EBFCE20C940E2C7C0178
:105970003B018A01FC0117821682838181FFC8C125
:10598000CE0101965C01F7019381F30193FD8591AE
:1059900093FF81913F01882309F453C1853239F483
:1059A00093FD859193FF81913F01853229F4B701E1
:1059B00090E00E94A12EE7CF912C212C312CFFE109
:1059C000F31538F08B3211F190F4803209F1833203
:1059D00029F137FC3CC020ED280F2A3050F536FE67
:1059E00020C08AE0989E200D1124922E06C08D3290
:1059F00091F0803371F7689430F8F30193FD85914D
:105A000093FF81913F018111DACF21C0689431F871
:105A1000689432F8F2CF689433F8EFCF689434F892
:105A2000ECCFEAE02E9E200D1124222E689435F84A
:105A3000E4CF8E3229F436FC04C1689436F8DDCF09
:105A40008C3619F4689437F8D8CF8836B1F2982F8D
:105A50009F7D95549330E0F08336A1F18337C1F1F7
:105A6000833509F063C02801F2E04F0E511CF801A4
:105A7000C080D180692D70E036FC02C06FEF7FEFEF
:105A8000C6010E948B2E4C01689437F882010AC02F
:105A90000C5F1F4FFFE3F98388248394912C6501E9
:105AA000E89437F833FE2DC0522C8114910471F51F
:105AB000552009F468CFB70180E290E00E94A12E42
:105AC0005A94F6CFF801808189830E5F1F4FE4CF8F
:105AD0002801F2E04F0E511CF801C080D180692DE1
