:020000040000FA
:100000000C9442020C946A020C946A020C946A02E8
:100010000C946A020C946A020C946A020C946A02B0
:100020000C946A020C946A020C946A020C946A02A0
:100030000C946A020C946A020C946A020C946A0290
:100040000C94B4260C946A020C9482260C945C26C0
:100050000C946A020C946A020C946A020C946A0270
:100060000C946A020C946A02556E6B6E6F776E2068
:100070006576656E743A200045565F4A4F494E5F7B
:100080005458434F4D504C4554453A206E6F204ACA
:100090006F696E4163636570740045565F545843E1
:1000A000414E43454C454400206279746573206F8E
:1000B0006620504859205061796C6F61643A200085
:1000C00041637475616C2053656E74200020627901
:1000D000746573206F66204672616D65205061798A
:1000E0006C6F61643A204261736536342D646563D8
:1000F0006F6465642068657861646563696D616CCF
:1001000020737472696E67207061796C6F61643AF4
:100110000053656E74200045565F54585354415245
:10012000540045565F4C494E4B5F414C4956450083
:1001300045565F4C494E4B5F444541440045565F30
:100140005258434F4D504C4554450045565F52451B
:100150005345540045565F4C4F53545F5453594ECA
:1001600043004261736536342D6465636F64656472
:100170002068657861646563696D616C2073747271
:10018000696E67207061796C6F61643A200020624B
:1001900079746573206F66207061796C6F61643A61
:1001A0002000526563656976656420005265636569
:1001B000697665642061636B0045565F5458434F10
:1001C0004D504C4554452028696E636C75646573C9
:1001D0002077616974696E6720666F7220525820BB
:1001E00077696E646F7773290045565F52454A4FB1
:1001F000494E5F4641494C45440045565F4A4F4988
:100200004E5F4641494C45440045565F4A4F494E72
:1002100045440045565F4A4F494E494E47004556B2
:100220005F424541434F4E5F545241434B4544006A
:1002300045565F424541434F4E5F4D4953534544F8
:100240000045565F424541434F4E5F464F554E4431
:100250000045565F5343414E5F54494D454F5554F9
:10026000004F505F5458525850454E442C206E6FEA
:10027000742073656E64696E67005061636B6574AA
:10028000207175657565640000000000230026007C
:100290002900030502050106020205000006000010
:1002A0000105040400040000000200000001000039
:1002B0008000000040000000200000002020200EF0
:1002C00011140C0F12090C0F06090C030609000388
:1002D0000613110F0D0B09070540404080EBEB089A
:1002E0000A0C0D0E10121415181A1B1D1E2124FFC6
:1002F000060504030201FFC04000000000002500C5
:1003000028002B0000000008000201000003040781
:100310000000000000000000000000002400270092
:100320002A00010204081020408001020408102065
:10033000010204081020040404040404040402025A
:100340000202020203030303030343579EA99CF91D
:10035000256204D4778F63A61C0CE9B53B908577A2
:10036000E0CF4A7DBE490D40B04553746172746957
:100370006E6700000000006700CC00B80154039DC8
:1003800007637C777BF26B6FC53001672BFED7ABC1
:1003900076CA82C97DFA5947F0ADD4A2AF9CA47247
:1003A000C0B7FD9326363FF7CC34A5E5F171D831BF
:1003B0001504C723C31896059A071280E2EB27B2EB
:1003C0007509832C1A1B6E5AA0523BD6B329E32F12
:1003D0008453D100ED20FCB15B6ACBBE394A4C5846
:1003E000CFD0EFAAFB434D338545F9027F503C9FA8
:1003F000A851A3408F929D38F5BCB6DA2110FFF3C7
:10040000D2CD0C13EC5F974417C4A77E3D645D19F1
:100410007360814FDC222A908846EEB814DE5E0BB2
:10042000DBE0323A0A4906245CC2D3AC629195E41F
:1004300079E7C8376D8DD54EA96C56F4EA657AAE6A
:1004400008BA78252E1CA6B4C6E8DD741F4BBD8BF8
:100450008A703EB5664803F60E613557B986C11DF0
:100460009EE1F8981169D98E949B1E87E9CE552894
:10047000DF8CA1890DBFE6426841992D0FB054BBB6
:100480001600FE2611241FBECFEFD8E0DEBFCDBF81
:1004900025E0A4E4B3E001C01D92A03EB207E1F75D
:1004A00013E0A0E0B1E0EAEBFDE502C005900D929B
:1004B000A434B107D9F712E0C2E4D2E004C0219716
:1004C000FE010E94F32AC134D107C9F70E943127E7
:1004D0000C94DB2E0C940000FC0120E1215008F468
:1004E000089580E0211181819191990F87FD91609C
:1004F000DF0111979C93F2CFAF92BF92CF92DF9220
:10050000EF92FF920F931F93CF93DF936C017B01C8
:100510008B01040F151FEB015E01AE18BF08C01759
:10052000D10759F06991D601ED91FC910190F081CC
:10053000E02DC6010995892B79F7C501DF91CF918F
:100540001F910F91FF90EF90DF90CF90BF90AF90F1
:100550000895FC01538D448D252F30E0842F90E0C9
:10056000821B930B541710F0CF96089501970895AE
:10057000FC01918D828D981761F0A28DAE0FBF2F77
:10058000B11D5D968C91928D9F5F9F73928F90E0CD
:1005900008958FEF9FEF0895FC01918D828D98173C
:1005A00031F0828DE80FF11D858D90E008958FEF79
:1005B0009FEF0895FC01918D228D892F90E0805C42
:1005C0009F4F821B91098F73992708958BE395E0C4
:1005D0000E94DA0221E0892B09F420E0822F08959D
:1005E00080E090E0892B29F00E94E60281110C94B2
:1005F00000000895FC01A48DA80FB92FB11DA35AC6
:10060000BF4F2C91848D90E001968F739927848F32
:10061000A689B7892C93A089B1898C918370806455
:100620008C93938D848D981306C00288F389E02DF6
:1006300080818F7D80830895EF92FF920F931F93A7
:10064000CF93DF93EC0181E0888F9B8D8C8D981385
:100650001AC0E889F989808185FF15C09FB7F89491
:10066000EE89FF896083E889F989808183708064DD
:1006700080839FBF81E090E0DF91CF911F910F9128
:10068000FF90EF900895F62E0B8D10E00F5F1F4F37
:100690000F731127E02E8C8D8E110CC00FB607FC46
:1006A000FACFE889F989808185FFF5CFCE010E94D4
:1006B000FA02F1CFEB8DEC0FFD2FF11DE35AFF4F46
:1006C000F0829FB7F8940B8FEA89FB898081806262
:1006D000CFCF0F931F93CF93DF938C01D0E0C0E077
:1006E000F801EC0FFD1F6491662341F08BE395E068
:1006F0000E941C03892B11F02196F2CFCE01DF91CD
:10070000CF911F910F910895CF93DF93EC01888DC6
:100710008823B9F0AA89BB89E889F9898C9185FD7C
:1007200003C0808186FD0DC00FB607FCF7CF8C910A
:1007300085FFF2CF808185FFEDCFCE010E94FA02C6
:10074000E9CFDF91CF910895833081F028F4813093
:1007500099F08230A9F008958730A9F08830C9F067
:100760008430B1F4809180008F7D03C0809180003F
:100770008F7780938000089584B58F7784BD089526
:1007800084B58F7DFBCF8091B0008F778093B000D0
:1007900008958091B0008F7DF9CF1F93CF93DF93A1
:1007A000282F30E0F901EC5FFC4F8491F901EE5DF8
:1007B000FC4FD491F901EA5CFC4FC491CC23A9F021
:1007C000162F81110E94A403EC2FF0E0EE0FFF1F03
:1007D000E650FD4FA591B4918FB7F894EC911111AB
:1007E00008C0D095DE23DC938FBFDF91CF911F919E
:1007F0000895DE2BF8CFCF93DF9390E0FC01EE5D00
:10080000FC4F24918A5C9C4FFC0184918823D1F099
:1008100090E0880F991FFC01E85EFC4FA591B49110
:10082000FC01E650FD4FC591D49161110EC09FB7F8
:10083000F8948C91E22FE0958E238C932881E2230B
:10084000E8839FBFDF91CF9108958FB7F894EC9123
:10085000E22BEC938FBFF6CF3FB7F89480915A0309
:1008600090915B03A0915C03B0915D0326B5A89BBA
:1008700005C02F3F19F00196A11DB11D3FBFBA2F32
:10088000A92F982F8827BC01CD01620F711D811DF2
:10089000911D42E0660F771F881F991F4A95D1F777
:1008A00008958F929F92AF92BF92CF92DF92EF9274
:1008B000FF924B015C010E942C046B017C010E94A1
:1008C0002C046C197D098E099F09683E73408105CF
:1008D0009105A8F321E0821A9108A108B10888EED9
:1008E000C80E83E0D81EE11CF11C81149104A10400
:1008F000B10429F7FF90EF90DF90CF90BF90AF90B9
:100900009F908F9008950F931F9361157105810536
:100910009105F9F00091D0031091D1032091D203F9
:100920003091D303DC01CB01800F911FA21FB31FB5
:100930008093D0039093D103A093D203B093D303B9
:100940008091D4039091D50301969093D503809321
:10095000D4031F910F910895FC012081318121154D
:10096000310519F490E080E008952617370749F41F
:10097000FB0120813181FC013183208381E090E003
:100980000895C901E9CF803660F5282F22952F7090
:1009900030E0220F331FF901EC5FFB4F40815181A2
:1009A0008F7061E070E002C0660F771F8A95E2F7F2
:1009B000CA0186239723892B91F480911C0490917E
:1009C0001D04019690931D0480931C0481E02C5F0C
:1009D0003B4F462B572BF90151834083089580E00C
:1009E000F6CF80E00895803670F5282F22952F707D
:1009F00030E0220F331FF901EC5FFB4F6081718102
:100A00008F7041E050E002C0440F551F8A95E2F715
:100A1000CA0186239723892BA1F080911C04909111
:100A20001D04019790931D0480931C0481E02C5FAA
:100A30003B4F4095509546235723F90151834083FE
:100A4000089580E0F4CF80E00895FC0190E080E01C
:100A50006115710509F4089521913191A901569507
:100A6000479545755575241B350BA9014373537381
:100A7000369527953695279523733373240F351FA5
:100A8000A901407F507F2F703F70A4E0220F331FD9
:100A9000AA95E1F7240F351FA9015527232F3327E6
:100AA000240F351F820F931F61507109D1CF982FEA
:100AB0006038C1F0809135046817A1F06093350467
:100AC00081E020913604291761F0909336048091DB
:100AD000220490912304986090932304809322042D
:100AE00081E0089580E0EDCF209126043091270425
:100AF00020383F4F21F090932704809326040895D7
:100B0000982F80917304E0917204882361F0EF3094
:100B1000A0F481E08E0F80937204F0E0EC58FB4F5C
:100B2000908381E00895E43348F481E08E0F809350
:100B30007204F0E0E25CFB4FF3CF80E00895CF93C6
:100B4000DF93C62FD09172040E948005811106C0E8
:100B5000D093720480E0DF91CF9108958C2F0E9492
:100B600080058823A9F381E0F6CF1092AC0410929F
:100B7000AD0480E294E4AEE1BEE180930004909382
:100B80000104A0930204B09303048FEF8093AB049D
:100B900008951092FC031092FD031092FE03109230
:100BA000FF031092F8031092F9031092FA031092C7
:100BB000FB03109238041092A5041092A404109222
:100BC000A30410923404109239041092AE041092CF
:100BD000B0041092AA040C94B505FC0160817181E7
:100BE000828193810895682F8BE395E00E941C0316
:100BF00090E080E00895F894809148038F5F80939F
:100C0000480308950E94FB05FFCFEF92FF921F93C8
:100C1000CF93DF938C3030F067EA70E08BE491E0A3
:100C20000E940206880F880F880F98E0980FC82F3F
:100C3000D0E010E0E92EF12CCE15DF053CF0812F3D
:100C4000DF91CF911F91FF90EF9008958C2F0E941C
:100C5000F304182B2196F0CFEF92FF921F93CF93BE
:100C6000DF93880F880F880F98E0980FC82FD0E087
:100C700010E0E92EF12CCE15DF053CF0812FDF913D
:100C8000CF911F91FF90EF9008958C2F0E94C30485
:100C9000182B2196F0CF0F931F930E942C04AB01C9
:100CA000BC0120914403DC01CA013CE1B695A79543
:100CB000979587953A95D1F782278870820F809310
:100CC0004403E4E07695679557954795EA95D1F703
:100CD0009B01382BC901BA011F910F910895AF9262
:100CE000BF92CF92DF92EF92FF920F931F93CF9319
:100CF000DF9380914803815080934803811169C03C
:100D0000789405E413E0D0E0C0E0BB24B394E09114
:100D10009703F0919803EC0FFD1F23812F3F09F4F7
:100D200051C0F801D080ED2CF12C30E0F901EC5FDE
:100D3000FC4F8491F901EE5DFC4FC490F901EA5C2F
:100D4000FC4FA490AA2009F44FC081110E94A40373
:100D5000EA2DF0E0EE0FFF1FE857FD4FA591B4918B
:100D6000EC91CE2231E020E009F430E0832F922F85
:100D7000E816F90639F1DB24F801D082DD2011F103
:100D8000CE01880F991F880F991F9C0125573C4F52
:100D90007901F90180819181A281B381892B8A2B0C
:100DA0008B2B81F40E944B0661157105810591051D
:100DB00021F461E070E080E090E0F70160837183EE
:100DC0008283938321960F5F1F4FC330D10509F0B3
:100DD0009ECFDF91CF911F910F91FF90EF90DF9009
:100DE000CF90BF90AF90089590E080E0C1CFCF93B7
:100DF000DF93EC010E94FB058091CA039091CB0325
:100E0000A091CC03B091CD03892B8A2B8B2B31F58C
:100E100089E395E068EC73E00E94AC041092C9038A
:100E20001092C8031092CA031092CB031092CC0305
:100E30001092CD03D093CF03C093CE03E091390538
:100E4000F0913A05A9E3B5E0309759F488EC93E0C6
:100E50008D939C93DF91CF910C946F0687E395E07F
:100E6000D9CFDF010190F081E02DEECFCF92DF925C
:100E7000EF92FF920F931F93CF93DF93EC016A01E0
:100E80007B018901C114D104E104F10421F4C12CD6
:100E9000D12C7601C3940E94FB058A819B81AC8191
:100EA000BD81892B8A2B8B2B89F589E395E0BE01C7
:100EB0000E94AC0419821882CA82DB82EC82FD8215
:100EC0001F830E83E0913705F091380527E335E065
:100ED000309779F082819381A481B5818C199D0925
:100EE000AE09BF09181619061A061B0694F4F983F1
:100EF000E883F901D183C083DF91CF911F910F91D6
:100F0000FF90EF90DF90CF900C946F0687E395E011
:100F1000CECF9F010190F081E02DDACFCF92DF920A
:100F2000EF92FF926B017C010E944B06A701960194
:100F3000261B370B480B590BDA01C901B7FF0CC050
:100F400066277727CB01621B730B840B950BFF90F1
:100F5000EF90DF90CF900895833332E09307A1059F
:100F6000B1058CF068E070E080E090E00E945104F0
:100F70000E944B06A7019601261B370B480B590B05
:100F8000DA01C901E9CF181619061A061B0664F41E
:100F900024E0880F991F2A95E1F7880F991F880F81
:100FA000991F05970197F1F760E070E0CB01CFCF73
:100FB000CF92DF92EF92FF92A0917D03B0917E03DA
:100FC000682F6170ED91FC9111970190F081E02DF7
:100FD000CD0109956B017C01C114D104E104F10438
:100FE00061F00E944B066C0D7D1D8E1D9F1DFF90B4
:100FF000EF90DF90CF900C948E07FF90EF90DF90F2
:10100000CF900895982FE0919703F09198038181F4
:101010008F3F39F061E02681291301C060E00C9414
:10102000CD03089581E0089580E00895089560E07B
:1010300070E0CB010895E9EAF3E08481958194831F
:101040009681958397819683878380859285908703
:101050008287818593859187838787859685978702
:10106000958596879485958784870895CF9329EAF7
:1010700033E0BC01605F7F4FDC01F90140E0CD91BE
:1010800050815C2750834F5F34964430C1F72F5F07
:101090003F4F04968617970779F7CF910895FC0183
:1010A00001900020E9F73197AF01481B590BBC01B3
:1010B0008BE395E00C947C0283E891E00C944F085C
:1010C000CF93DF930E946903EC010E945C088C0FB0
:1010D0009D1FDF91CF9108958F929F92AF92BF9203
:1010E0000F931F93CF93DF93CDB7DEB7A1970FB6C2
:1010F000F894DEBF0FBECDBF19A2423008F44AE01B
:101100008E010F5D1F4F842E912CB12CA12CA501B7
:1011100094010E94B22AE62FB901CA01EA30F4F420
:10112000E05DD801EE938D01232B242B252B79F73D
:1011300090E080E0109719F0CD010E944F08A19631
:101140000FB6F894DEBF0FBECDBFDF91CF911F91D8
:101150000F91BF90AF909F908F900895E95CE1CF81
:101160000F931F93CF93DF9300D000D0CDB7DEB79E
:10117000DB011C969C911C971E963C911E971F9616
:101180002C911F971D964C911D9749833A832B8371
:101190009C83BE016B5F7F4F9E012F5F3F4FF90124
:1011A00011919F01412F42954F70F0E14F9FA00197
:1011B0001124E12FEF70E40FF52FF11DEF57FC4FD5
:1011C0009491A90141505109FA01908326173707DC
:1011D00031F791E05BE1813039F0492F440F97FD01
:1011E00045278150942FF7CF8981982799838D01C6
:1011F00094E0FE013196A801DA018D91AD01619173
:101200008627BD0161507109DB018C93BF016150DC
:101210007109DB018C93E217F30771F791500C5FB2
:101220001F4F9111E6CF0F900F900F900F90DF910D
:10123000CF911F910F9108953F924F925F926F92BD
:101240007F928F929F92AF92BF92CF92DF92EF9256
:10125000FF920F931F93CF93DF93CDB7DEB76897BD
:101260000FB6F894DEBF0FBECDBF8C0129EAC22EA7
:1012700023E0D22EAC01405F5F4FC6017801FC0134
:10128000D70120E03D9130832F5F34962430D1F791
:1012900024E0E20EF11C01964E155F0581F7A9E9E5
:1012A000B3E0FE01319689EA93E05E2E6F2E2D9118
:1012B00021938A179B07D9F7852D962D0E94360812
:1012C000442443948DEAA82E83E0B82E4E0139E1E0
:1012D000830E911C9BE1392E89EA93E024E0DC0126
:1012E000712CEC914E2F42954F7030E1439FA0013D
:1012F0001124EF70E40FF52FF11DEF57FC4FE4912F
:10130000EC937394149654E07512EBCF2150019630
:101310002111E5CF0E941B08E9EAF3E0CE014596D2
:10132000BE016F5E7F4F9F01D9015C91DC015D932F
:10133000CD01452F440F57FD83C0DB014C932C5F3B
:101340003F4F6F5F7F4F8816990671F78E893989F5
:1013500038272F89688D9A8992279627432F492706
:1013600041934D895B899427952793839C89862790
:1013700084278527892787832427292732273387AE
:10138000AE16BF0659F6652D762D842D0E94B00845
:10139000852D962D0E9436084394BAE04B129CCFBF
:1013A00089EA93E0DC0140E0EC912E2F22952F702A
:1013B00050E1259F90011124EF70E20FF32FF11DF2
:1013C000EF57FC4FE491EC934F5F1496443061F774
:1013D0007A9401967110E6CF0E941B08652D762D38
:1013E0008AE00E94B008852D962D0E943608D8010B
:1013F000F60180E090819D938F5F34968430D1F721
:101400008FEFC81AD80A0C5F1F4FE016F10679F764
:1014100068960FB6F894DEBF0FBECDBFDF91CF91B7
:101420001F910F91FF90EF90DF90CF90BF90AF9002
:101430009F908F907F906F905F904F903F90089516
:1014400043257BCFE0912D04A0913104A770B0E03B
:1014500020E43DE043E050E00E94162B60527F45BF
:101460008C4C914E6093E8037093E9038093EA03F8
:101470009093EB038091AC04E53090F4E81BE630E8
:1014800008F0E5E0E0932D04F0E0E051FD4FE49139
:10149000F0E0EF77E068F0932104E09320040895F2
:1014A000E5E0ECCF4F925F926F927F928F929F9286
:1014B000AF92BF92CF92DF92EF92FF920F93CF93B2
:1014C000DF9300D000D000D0CDB7DEB76B017C0138
:1014D0005E834D83277084E0289FF0011124EC5532
:1014E000FD4F85919591A591B49189839A83AB83A2
:1014F000BC834090DC035090DD036090DE0370906D
:10150000DF036091C5037091C6036115710531F069
:10151000673091E0790710F066E071E090E080E0DC
:10152000A70196010E94212B00E10E940A2C49018B
:101530005A0129813A814B815C81220F331F441F5C
:10154000551FC501B401660F771F881F991F620FD1
:10155000731F841F951F64587F4F8F4F9F4F0E94AA
:10156000D42A2A5F3F4F43E85FEF6FEF7FEF4819C0
:1015700059096A097B092115A4E03A07B8F18FEFF0
:1015800093E090932C0480932B04C40ED51EE61E8A
:10159000F71E4C0C5D1C6E1C7F1C4092E0035092A9
:1015A000E1036092E2037092E303B301A2014157A9
:1015B0005240610971092D813E8188EC93E02696A5
:1015C0000FB6F894DEBF0FBECDBFDF91CF910F9164
:1015D000FF90EF90DF90CF90BF90AF909F908F9053
:1015E0007F906F905F904F900C94360730932C044F
:1015F00020932B04CACFCF92DF92EF92FF922091DB
:10160000A60430E0A4E2B4EF0E94002B6B017C0141
:101610000E94220A20912D0442E057E1C701B60141
:10162000FF90EF90DF90CF900C94520A0E94220A14
:1016300020912D0446E057E164EB74EC84E090E0E7
:101640000C94520AE82FF0E0E151FD4FE491EF3F96
:1016500009F0815008958F929F92AF92BF92DF92CE
:10166000EF92FF920F931F93CF93DF93D82EEB014E
:101670008A01E22EE0919703F0919803F080808434
:101680009184A284B38481149104A104B10439F437
:1016900020E4822E22E4922E2FE0A22EB12C40E0F4
:1016A00052E16AE770E080E084169506A606B70668
:1016B00040F476956795579547958F5F8630A1F7EB
:1016C00087E0982F906A9695809581709CBD8DBD1E
:1016D00060E08F2D0E94CD03DEBC00000DB407FE3C
:1016E000FDCF8EB50C0F1D1FC017D10771F080E024
:1016F000E11001C088818EBD00000DB407FEFDCF52
:101700008EB5E11088832196EFCF61E08F2DDF91B8
:10171000CF911F910F91FF90EF90DF90BF90AF900E
:101720009F908F900C94CD03CF93DF931F92CDB7F2
:10173000DEB721E041E050E0BE016F5F7F4F0E94C5
:101740002B0B89810F90DF91CF910895CF93DF9379
:101750001F92CDB7DEB7698320E041E050E0BE01C3
:101760006F5F7F4F80680E942B0B0F90DF91CF91AE
:101770000895CF93C82F62E082E00E94A60B60E834
:1017800083E00E94A60B61E084E00E94A60B69E959
:1017900085E00E94A60B62E187E20E94A60B60ED45
:1017A000C11168ED80E30E94A60B60E481E30E9412
:1017B000A60B61EC88E20E94A60B64E989E20E9414
:1017C000A60B61EC8AE2CF910C94A60B0F931F93AA
:1017D000CF93DF93C0912F04C4310CF040C0CE30C2
:1017E000CCF1C2310CF0C1E161E080917D039091B8
:1017F0007E030091E8031091E9032091EA03309100
:10180000EB03DC01ED91FC910084F185E02D4C2F80
:101810000995813059F18230E1F1CF301CF5CC309F
:101820001CF1C067D7E014E06C2F89E00E94A60B82
:101830008DE40E94940B887F682F612B8DE40E94B9
:10184000A60B6D2F60628BE0DF91CF911F910F91FE
:101850000C94A60BCC3F0CF4CCEF60E0C6CF62E05A
:10186000C4E1C3CFCEE0DDCFCC5FDCCF80912004DC
:10187000877011F4CB305CF0C2302CF4C2E0C2505F
:10188000C068DBE0D0CFC231D4F3C1E1F8CFCBE008
:10189000F6CFD0E117E0CFE8C7CFAF92BF92CF929B
:1018A000DF92EF92FF920F931F93CF93DF9380917C
:1018B000E8039091E903A091EA03B091EB039C0146
:1018C000AD0160E070E080E090E003E10E94F12B68
:1018D000A12CE8E4BE2EF8EECF2EDD24D394E12C2B
:1018E000F12C00E010E00E945D2BC22FB32E6A01A4
:1018F0007B01182FD92F00E10E940C2C622F86E06B
:101900000E94A60B2C2F3B2DA601B701812F9D2FE6
:1019100008E00E940C2C622F87E00E94A60B6C2F1F
:1019200088E0DF91CF911F910F91FF90EF90DF90B2
:10193000CF90BF90AF900C94A60B1F93CF93DF93E3
:101940006091200470912104162F1770CB0133E0B1
:10195000969587953A95E1F7D82FD370D13059F005
:1019600008F466C0D23009F465C066EC71E086E820
:1019700091E00E940206C0E8CB0125E0969587958C
:101980002A95E1F78370823009F458C0833009F456
:1019900057C0813009F450C0C260672F77276115A6
:1019A000710521F0C16082E20E94A60B6C2F8DE1CF
:1019B0000E94A60B60912C04637060598FEF810F19
:1019C0008295807F680F8091200487FF64608EE19C
:1019D0000E94A60B8BEF810F823010F4DD2391F172
:1019E000163011F4D13071F164E086E20E94A60B4A
:1019F000C0E063E0D23081F48091E8039091E90384
:101A0000A091EA03B091EB03CFE781349D4DAA4446
:101A1000BF4108F0C4E662E086E30E94A60BCC2337
:101A200099F06C2F8AE3DF91CF911F910C94A60B54
:101A3000C0E7A2CFC0E9A0CFC460AFCFC660ADCF32
:101A4000C860ABCF6CE0D1CFDF91CF911F910895EB
:101A5000CF93DF93D82FC82FC77019F081E00E9471
:101A6000D8076D2F81E00E94A60BC11105C080E050
:101A7000DF91CF910C94D807DF91CF910895809199
:101A8000E8039091E903A091EA03B091EB0381345C
:101A90009D4DAA44BF4118F488E00C94280D80E0C5
:101AA000FCCF8091E8039091E903A091EA03B09103
:101AB000EB0381349D4DAA44BF4118F488E80C948F
:101AC000280D80E8FCCFCF93C82F81E00E94940BB3
:101AD000887F8C2BCF910C94280DCF92DF92EF92C0
:101AE000FF92CF93DF93D82F0E94510D81E00E9487
:101AF000940B87FD06C06BE973E086E891E00E94D5
:101B0000020681E00E94630DD23009F07CC06AE0D9
:101B10008DE10E94A60B60E78EE10E94A60B63E2B6
:101B20008CE00E94A60B60E483E20E94A60B8091E9
:101B30003505882309F46CC083E30E94940B682F59
:101B40006F7B83E30E94A60B809120049091210477
:101B500023E0969587952A95E1F7C82FC37081E316
:101B60000E94940B8877682F6360C23008F056C0DB
:101B700081E30E94A60B60E48FE20E94A60B60E462
:101B800080E30E94A60B60912B048FE10E94A60BBC
:101B900064E389E30E94A60B6CE080E40E94A60B3C
:101BA0006FEF82E10E94A60BED2FF0E0E950FD4FB0
:101BB0006491609581E10E94A60B80E00E9402087A
:101BC00060E08DE00E94A60B60E08FE00E94A60B13
:101BD000D11128C06091E0037091E1038091E2038C
:101BE0009091E3030E948E076B017C0186E00E94C6
:101BF000630DC701B601DF91CF91FF90EF90DF90A9
:101C0000CF900C9483040E949D0C0E944D0C87CFB2
:101C100083E30E94940B682F606493CF682F6368FE
:101C200081E3AFCF85E0DF91CF91FF90EF90DF9020
:101C3000CF900C94630DCF92DF92EF92FF92CF93EF
:101C4000C82F81E00E94940B877069E274E0C1F4B0
:101C500080912004877009F060C0C13041F4109277
:101C6000B4048091CE039091CF030E94F7060E94A6
:101C70003F0D81E00E94940B87FF06C062E074E094
:101C800086E891E00E94020681E00E94630D0E94B6
:101C90004D0C63E28CE00E94A60B6EE18DE00E9489
:101CA000A60B6BE082E10E94A60B62E183E10E9439
:101CB000A60B6AEA8FE10E94A60B6FEF81E20E94F9
:101CC000A60B81E00E94B90B68E380E40E94A60B9A
:101CD00080E00E940208C11118C06091E003709179
:101CE000E1038091E2039091E3030E948E076B0170
:101CF0007C0185E00E94630DC701B601CF91FF9082
:101D0000EF90DF90CF900C94830485E0CF91FF900B
:101D1000EF90DF90CF900C94630D8C2FCF91FF90BC
:101D2000EF90DF90CF900C946D0D8FEF9FEF90931D
:101D30000504809304049093070480930604909311
:101D400009048093080490930B0480930A048FEF96
:101D500090E090930D0480930C04E0E1F4E08CE0BB
:101D6000DF011D928A95E9F780E690E090931D04CB
:101D700080931C048FEF8093310408956F927F92BB
:101D80008F929F92AF92BF92CF92DF92EF92FF928B
:101D90000F931F93CF93DF93CDB7DEB760970FB646
:101DA000F894DEBF0FBECDBF7B018A01282F30E043
:101DB000277F2230310549F02430310509F4CBC0AA
:101DC000232B09F09FC0D12C98C083FD32C089E439
:101DD00093E00E941C0990E1692EFE0131966F018B
:101DE00029E5822E23E0922E37E8732E0115110586
:101DF00009F060C06091490370914A0380914B03E0
:101E000090914C030E94F92A60960FB6F894DEBFB9
:101E10000FBECDBFDF91CF911F910F91FF90EF903B
:101E2000DF90CF90BF90AF909F908F907F906F90FA
:101E30000895E9E4F3E080E1DF011D928A95E9F776
:101E4000CACF01151105E9F5E62FF0E0E75BFC4F7D
:101E500080818058808311E0D601E62D1D92EA959D
:101E6000E9F7C6010E941C090981C6010E946C02A3
:101E700007FF03C088898725888B112349F01981C2
:101E8000C6010E946C0217FF03C088898725888BD2
:101E9000F601D5018D915D019191119789278C9360
:101EA0008A149B04B1F710E000E089E493E00E94FB
:101EB0001C099CCF89E4A82E83E0B82ED701950198
:101EC00060E0F90181919F019D91AF01415051095D
:101ED0008927FA0180836F5F7D010150110960310C
:101EE00009F0AFCF0115110501F710E0B5CF8E0D48
:101EF0009F1D0E941C09B0E1DB0E8D2D90E0801724
:101F00009107A8F360E070E0CB017ECF80E1E9E4C7
:101F1000F3E0DE01119601900D928A95E1F7CE0172
:101F200001960E941C09FE0131969701205F3F4FE8
:101F30009191D7018C9189278D937D0101501109D1
:101F4000A217B30719F00115110591F780915803F5
:101F50008F5F8093580301151105C1F6D3CF90917F
:101F60005E03911106C06CE874E086E891E00E947F
:101F70000206903141F440E150E06EE573E080E00C
:101F80000E94BE0E90E0E92FF0E0E25AFC4F808103
:101F90009F5F90935E030895DF92EF92FF920F93FD
:101FA0001F93CF93DF936FE270E0009729F08136A3
:101FB000910530F061E370E089EB91E00E94020648
:101FC000C0913104D0E0CF3F11F4CFEFDFEFE4E078
:101FD000F4E020E134E0DF0132961C968D919C9173
:101FE0001D974D915C9184239523938782872E17AB
:101FF0003F0789F766E070E080E194E00E942505E4
:102000007C01892B09F08FC08CE0E4E0F4E0A0E1D2
:10201000B4E001900D928A95E1F766E070E080E10E
:1020200094E00E9425057C01009709F4DDC04197EA
:1020300008F479C010E000E0CF3FDC0751F1C13671
:10204000D1050CF070C09E012F70332781E090E025
:1020500002C0880F991F2A95E2F7FE0144E0F5952A
:10206000E7954A95E1F7EE0FFF1FE05FFB4F2081F8
:1020700031818C0102231323809590958223932331
:10208000918380830115110509F44FC070E1E71AAF
:10209000F1080E94AF0FD82E0E94AF0F9D2DB701FF
:1020A00024E0769567952A95E1F70E949E2A34E010
:1020B000880F991F3A95E1F7E0E1F4E070E060E005
:1020C000219131912115310559F1A9015695479575
:1020D00045755575D901A41BB50BAD0143735373F9
:1020E000B695A795B695A795A373B3734A0F5B1FD3
:1020F000DA01A07FB07F4F705F7042955295507F9C
:102100005427407F54274A0F5B1FDA01BB27452F16
:1021100055274A0F5B1F8417950780F0841B950B8A
:10212000605F7F4FCDCF10E000E0CFEFDFEFB1CFAA
:10213000A901415051092423352340970097C1F745
:1021400044275527421B530B42235323CA0185754D
:10215000957521E030E0892B11F030E020E0CA01D4
:1021600083739373892B09F447C090E080E0820F5A
:10217000931F9A012F703F70232B09F440C030E069
:1021800020E0820F931F30E020E0411102C028E0E0
:1021900030E0820F931F860F971FFC0144E0F695F5
:1021A000E7954A95E1F7EE0FFF1FE05FFB4FAC01AB
:1021B0004F70552721E030E0B90102C0660F771F4C
:1021C0004A95E2F7AB0120813181262735273183FB
:1021D0002083CF3FDC07B1F497FD06C08034910522
:1021E0000CF4885F80933104DF91CF911F910F91A0
:1021F000FF90EF90DF90089582E090E0B8CF24E068
:1022000030E0BFCF24E0D595C7952A95E1F7CC0FF4
:10221000DD1FC05FDB4F28813981022B132B19830F
:102220000883DACF8091F4039091F503A091F6032F
:10223000B091F703892B8A2B8B2B09F04BC080912F
:10224000220490912304109232048E7C977A90930A
:102250002304809322041092B104109238040E9447
:10226000B5058FEF8093310480911C0490911D047B
:102270000E94CC0F0E944B066093DC037093DD0339
:102280008093DE039093DF038091220490912304D6
:1022900093FF06C064ED70E089EB91E00E940206B6
:1022A00010923604E091AB04EF3F91F0EF70F0E054
:1022B000E152FD4FE491E093350484609093230450
:1022C000809322048CE79FE10E94F70681E0089545
:1022D000E3E1F1CF80E00895CF92DF92EF92FF9299
:1022E000CF93C82F0E94AF0FF82E0E94AF0F9F2DE3
:1022F0006C01853224EF920720F024E2C21A24EF09
:10230000D20AF12CE12CCC2369F06C2F0E94922A86
:10231000292F30E0A4E2B4EF0E94002BC60ED71E96
:10232000E81EF91EC701B601CF91FF90EF90DF9034
:10233000CF900895CF92DF92EF92FF926B017C01D4
:10234000842F442331F00E946C11C60ED71EE81E64
:10235000F91E809132048823A9F08091EC039091BA
:10236000ED03A091EE03B091EF03A7019601281BA6
:10237000390B4A0B5B0BDA01C901181619061A064C
:102380001B068CF4C092EC03D092ED03E092EE03B6
:10239000F092EF0380912204909123049160909336
:1023A000230480932204FF90EF90DF90CF90089554
:1023B000AF92BF92CF92DF92EF920F931F93CF9382
:1023C000DF93DC011A141B04A4F590E1E9E4F3E0C7
:1023D000EF01892F19928A95E9F7F1E0F0935803FC
:1023E000F0934903E0924E0340934F035093500300
:1023F000609351037093520300935303109354035B
:102400002093550330935603FD01A9E9B3E00190F1
:102410000D929A95E1F7A501B60184E0DF91CF9185
:102420001F910F91EF90DF90CF90BF90AF900C94E1
:10243000BE0EDF91CF911F910F91EF90DF90CF9063
:10244000BF90AF9008951F93CF93DF93CDB7DEB7C2
:102450002F970FB6F894DEBF0FBECDBF80E00E946D
:10246000630D0E94FB058091CA039091CB03A0915C
:10247000CC03B091CD03892B8A2B8B2B09F047C05D
:1024800089E395E068EC73E00E94AC040E946F065B
:102490008FE0E9EBF3E0DE01119601900D928A9551
:1024A000E1F7E9EBF3E08EE791E0DF019C011D929B
:1024B00021503040E1F78FE0FE013196A9EBB3E007
:1024C00001900D928A95E1F70E94AF0F182F0E949C
:1024D000AF0F912F9093250480932404109223042E
:1024E000109222041092370480E88093A9040E947D
:1024F000B50581E08093A6042F960FB6F894DEBF51
:102500000FBECDBFDF91CF911F910C94950E87E345
:1025100095E0B8CF2F923F924F925F926F927F9249
:102520008F929F92AF92BF92CF92DF92EF92FF92E3
:102530000F931F93CF93DF93CDB7DEB72A970FB6D4
:10254000F894DEBF0FBECDBF8C010E944B066B011D
:102550007C014AE0F7FE0DC06DE28BE395E00E943E
:102560001C0366277727CB016C197D098E099F090B
:102570004AE00E946C0884ED92E00E944F08F80146
:102580003197E431F10508F040C3E753FD4E0C9458
:10259000F32ADD12F912FC12FF12021305130516BD
:1025A00008130B130E138213851388138B138E13CA
:1025B00005169113FF15E615021681E592E02A969D
:1025C0000FB6F894DEBF0FBECDBFDF91CF911F9144
:1025D0000F91FF90EF90DF90CF90BF90AF909F90C2
:1025E0008F907F906F905F904F903F902F900C94C2
:1025F000600881E492E0E3CF80E392E0E0CF8EE1F7
:1026000092E0DDCF83E192E0DACF89E092E0D7CFAC
:102610008AEF91E0D4CF89EE91E0D1CF89EB91E0C0
:102620000E9460088091B20487FF04C08CEA91E0A8
:102630000E9460088091B4048823F1F182EA91E05D
:102640000E9469036091B40470E090E080E04AE089
:102650000E946C088EE891E00E94690382E691E096
:102660000E9469031A82198203EF11E08091B40479
:1026700029813A8182171306E9F0E4F0E091B3046E
:10268000C90187549C4FE80FF92FF11DE450FF4F0B
:1026900080811F928F931F930F930E94402C49813A
:1026A0005A814F5F5F4F5A8349830F900F900F906D
:1026B0000F90DCCF0E945C080E944B06AB01BC016E
:1026C00048595647664F7F4F2BE531E28FE793E03D
:1026D0002A960FB6F894DEBF0FBECDBFDF91CF9123
:1026E0001F910F91FF90EF90DF90CF90BF90AF9030
:1026F0009F908F907F906F905F904F903F902F9022
:102700000C94360784E591E05ACF8BE491E057CFE3
:102710008DE391E054CF80E391E051CF82E291E0EC
:102720004ECF87E191E00E946008A090B404AA20F7
:1027300009F44CC2C0902004D09021040C2D0770E5
:102740000A5F960143E0369527954A95E1F7237095
:10275000C60155E0969587955A95E1F7837080906C
:102760003504E090FC03F090FD0351E0E51AF10818
:1027700015E0882339F016E0813021F017E082302F
:1027800009F018E0222309F471C084EFB82E9924CF
:102790009394213019F42AEFB22E912CC090E803C3
:1027A0007090E9036090EA035090EB030E944B069F
:1027B0001F92DF92FF92EF921F921F939F92BF9200
:1027C0001F928F921F920F931F92AF925F926F9200
:1027D0007F92CF929F938F937F936F9388EF91E037
:1027E0009F938F930E94402C809134041F928F936B
:1027F00085E492E09F938F930E94402C81E191E0C9
:102800000E94690360913D0470E090E080E04AE03E
:102810000E946C088DEC90E00E9469030FB6F8945A
:10282000DEBF0FBECDBFF12CE12C03EF11E0809194
:102830003D048E151F04E9F0E4F0E091B304C701F4
:1028400087549C4FE80FF92FF11DEB57FF4F808104
:102850001F928F931F930F930E94402C7FEFE71AD4
:10286000F70A0F900F900F900F90E1CF9DE7B92ED0
:1028700094CF0E945C0880EC90E00E946903609114
:10288000B40470E090E080E04AE00E946C0888EABE
:1028900090E00E946903F12CE12C03EF11E080919C
:1028A000B4048E151F04D1F0CCF0E091B304C7013D
:1028B00087549C4FE80FF92FF11DE450FF4F8081A2
:1028C0001F928F931F930F930E94402C8FEFE81A53
:1028D000F80A0F900F900F900F90E1CF0E945C08C4
:1028E0002091B404E5EBF4E0FC83EB8390E080E01E
:1028F0001A821982422F50E058874F836F81788562
:10290000E981FA81E617F7070CF048C1EB81FC81F9
:102910002191FC83EB83022E000C330B6C014CE005
:10292000D594C7944A95E1F7A92FBB27A7FDBA957F
:10293000AC25BD253D0162267326F1E06F22772488
:102940007C016DE0F594E7946A95E1F75C01AB2CAE
:10295000BB0CBB08A594AE24BF2449019594879471
:102960008A249B24880C991C42E08422992486287E
:1029700097288C01110F000B110F102F001F2C0135
:10298000452C550C55084594459440265126F9018F
:10299000F595E795F595E795E425F525EE0FFF1FED
:1029A000EE0FFF1FE470FF27E80DF91D592F551F8B
:1029B0005527551F59871A861C014BE035942794DB
:1029C0004A95E1F723FB662760F96D831E82A1011A
:1029D0004170552769857A85462757276D817E8105
:1029E0004627572763E0440F551F6A95E1F74E0FBE
:1029F0005F1FB901E4E075956795EA95E1F76C25ED
:102A00007D25F4E0660F771FFA95E1F7607177276F
:102A1000460F571FF90165E0F595E7956A95E1F7CF
:102A2000BD016E257F256E277F27E5E0660F771FA6
:102A3000EA95E1F760727727640F751FA5014027BB
:102A40005127F901689415F8F595E7951694E1F783
:102A50004E275F27E6E0440F551FEA95E1F74074E3
:102A60005527640F751F4201E1E08E2299244985A4
:102A70005A85842695262227330F221F332728259F
:102A800039253695322F222737952795260F371F60
:102A9000B101682779276170772764277527762F1A
:102AA0006627620F731F3C0175946794C624D72470
:102AB000DC2CCC24DD0CCC2452E0D5226C0D7D1D09
:102AC000AC0155954795559547954E255F25542F53
:102AD0004427550F550F44275470640F751FFC0190
:102AE00023E0F595E7952A95E1F7E027F127FE2FFA
:102AF000EE27FF0FFF0FFF0FEE27F8706E0F7F1FFF
:102B00009C0144E0359527954A95E1F7A227B32724
:102B1000A170BB27E985FA85AE27BF27BA2FAA2760
:102B2000B295B07F6A0F7B1F9C01E5E03595279534
:102B3000EA95E1F72A253B25322F22273295330FDC
:102B4000307E22273072620F731F9C01A6E03595FC
:102B50002795AA95E1F742265326B0E44B9E502CC8
:102B6000442411244424F0E45F22640D751D880F71
:102B7000892F881F990B8225932529853A858227DD
:102B800093279927869597958827860F971F4981C0
:102B90005A814F5F5F4F5A834983B0CE9F938F9383
:102BA0009F938F9389E592E09F938F930E94402C8F
:102BB0001F9282E08F9380E992E09F938F930E940F
:102BC000402C0FB6F894DEBF0FBECDBF2A960FB6CD
:102BD000F894DEBF0FBECDBFDF91CF911F910F9153
:102BE000FF90EF90DF90CF90BF90AF909F908F902D
:102BF0007F906F905F904F903F902F9008958AE95B
:102C000090E0DDCC88E790E0DACC88E690E00E94A6
:102C10006903B80190E080E04AE00E946C082A96BF
:102C20000FB6F894DEBF0FBECDBFDF91CF911F91DD
:102C30000F91FF90EF90DF90CF90BF90AF909F905B
:102C40008F907F906F905F904F903F902F900C945B
:102C50005C08CF92DF92EF92FF92CF93DF93EC016B
:102C6000C12CD12C7601C3940C2E04C0CC0CDD1CDD
:102C7000EE1CFF1C0A94D2F7E3FC03C0CE010E94B5
:102C80008A12D701C60188279472AA27BB27892BED
:102C90008A2B8B2B01F1E091BD03F091BE0330979D
:102CA000D1F02091B4044091B304211102C0442317
:102CB00091F08091B20450E060E084FF04C0DA013A
:102CC000AC54BB4F6C9130E04B545B4F8091BF03D1
:102CD0009091C0030995CC2484E0D822E822FF24F7
:102CE000CD28CE28CF2819F1E091C103F091C2037D
:102CF0003097E9F01092C2031092C103C231D1059E
:102D000041F18091B20483FD24C090913C0461E0C4
:102D1000992339F0082E000C990B692F661F66273E
:102D2000661F70E08091C3039091C4030995E09100
:102D3000B903F091BA03309771F0BE018091BB03E3
:102D40009091BC03DF91CF91FF90EF90DF90CF90F7
:102D5000099460E0E6CFDF91CF91FF90EF90DF9094
:102D6000CF90089582E08093B204E091AD04F0E04A
:102D7000E051FD4FE491F0E0EF77E068F09321043B
:102D8000E09320048091000490910104A09102043A
:102D9000B09103048093E8039093E903A093EA03BE
:102DA000B093EB031092B40483E190E00E942916E3
:102DB00080E00C941B0E8BE496E29093CF038093FB
:102DC000CE030C94B2168DE491E29093CF038093DE
:102DD000CE030C94B21621E02093B204E0E2F4E0BA
:102DE000208131812068318320831092B404909334
:102DF000CF038093CE0383E190E00E94291680E008
:102E00000C941B0E84E396E20C94EB168AE391E299
:102E10000C94EB162F923F924F925F926F927F929B
:102E20008F929F92AF92BF92CF92DF92EF92FF92DA
:102E30000F931F93CF93DF93CDB7DEB7CB58D10954
:102E40000FB6F894DEBF0FBECDBF8091280481116C
:102E500016C781E080932804809122049091230476
:102E60009C01217C3327232B81F44091F403509162
:102E7000F5036091F6037091F703452B462B472B22
:102E800029F582FD2FC00E941211809128048150E3
:102E9000809328048111E0CFC557DF4F0FB6F89417
:102EA000DEBF0FBECDBFDF91CF911F910F91FF907D
:102EB000EF90DF90CF90BF90AF909F908F907F90DA
:102EC0006F905F904F903F902F90089596FF0AC0AB
:102ED0009F7B909323048093220489E89EE10E94C3
:102EE000F706D3CF0E944B066B017C0100912204B0
:102EF00010912304C8018C739927892B09F4B4C657
:102F000013FF58C180911C0490911D04009711F08B
:102F10000E94CC0FC092DC03D092DD03E092DE036E
:102F2000F092DF038091220490912304977F909385
:102F3000230480932204B701A601809132048111F9
:102F400006C0809122049091230490FF12C08091CA
:102F5000EC039091ED03A091EE03B091EF032A01F1
:102F60003B01481A590A6A0A7B0A77FE02C0AC0183
:102F7000BD0121E7C20E22E0D21EE11CF11CDB01E3
:102F8000CA018C199D09AE09BF09B7FF59C6309116
:102F90003604CF57DF4F3883C158D0400472112711
:102FA000012B09F41FC1809122041091380485FD82
:102FB00016C11092B5049091240480912504909339
:102FC000C6048093C70443E150E065EB74E08AE0F7
:102FD0000E94BE0E6093CB047093CA048093C90410
:102FE0009093C80487E18093B40480912404909165
:102FF00025040196909325048093240486E19BE0A8
:103000009093CF038093CE03CF57DF4FC880C15832
:10301000D040EC2DF0E0E051FD4FE4918091370479
:1030200020E2829FC0011124EF798E2B909321041E
:1030300080932004C0922D04809122049091230457
:103040008F76967F80689860909323048093220403
:10305000A0913104A03670F5B0E020E43DE043E0FB
:1030600050E00E94162B8B019C01005A1A4C274FEE
:10307000334E00364FE9140740E224074CE1340791
:1030800008F0B6C4605A764A8340934E6093E803D2
:103090007093E9038093EA039093EB03E091AB0410
:1030A000EF3F09F423C5EF70F0E0E152FD4FE491EA
:1030B000E0932E049091350480912E0498170CF41F
:1030C000892F80932F0481E190E00E9429161092AD
:1030D000DC031092DD031092DE031092DF0381E027
:1030E0000E94940B877059F080E00E94630D0E944B
:1030F0004B06625C7F4F8F4F9F4F0E948E07409020
:10310000E4035090E5036090E6037090E703141425
:103110001504160417040CF0EEC481E00E946D0D36
:103120008091E8039091E903A091EA03B091EB0349
:1031300081349D4DAA44BF4108F4DAC483E69FEF71
:10314000E0919703F091980327817C01E20EF11C36
:1031500027FDFA940E944B06615E7F4F8F4F9F4F71
:103160000E948E070E944B0610E0460E571E681EF6
:10317000791E8BE10E94940B181708F4182F0E94F7
:103180004B06641975098609970997FDF2CF80E00F
:103190000E94630D80913004082E000C990BE10E03
:1031A000F11CE816F9060CF4A6C48091CE039091A8
:1031B000CF0395CE4091DC035091DD036091DE0397
:1031C0007091DF03BACECF57DF4F8881C158D0400E
:1031D0000E94220BCF57DF4F8883C158D040115037
:1031E00090F7E7CE8091F8039091F903A091FA034C
:1031F000B091FB0380389F4FAF4FBF4F18F08FE760
:103200009EE16DCE8091B10481110DC08091FC03CF
:103210009091FD03A091FE03B091FF038F3F9F4F5C
:10322000AF4FBF4F61F3E0902204F090230478E1A8
:10323000E722FF2480E1E816F10409F4CEC1A09052
:103240003D0480913B04882309F4C9C18091730433
:10325000882309F4C4C100917204002309F4BFC19A
:1032600010E0A80164E774E08DEB94E00E94302C3C
:10327000085F1F4F10927204109273048091AE0485
:10328000882331F086FFAEC190E489278093AE0495
:103290008091AF04882331F086FFB4C190E4892780
:1032A0008093AF048091B004823009F0BBC181E00B
:1032B0008093B004093111050CF079C38091A50405
:1032C000882361F0809126049091270497FF04C021
:1032D00090E080E00E9474051092A5046A2C712C85
:1032E00025E0620E711CF0E1EF16F10419F4A4E080
:1032F0006A2E712C600E711E31E4631671040CF09D
:103300009CC191E040E1E416F10409F490E0E09101
:103310003604E63008F096C1F0E0E752FD4FE49144
:10332000E615170408F443C380E48093B504809144
:10333000A3044091A904482B20912604309127042E
:1033400037FD82C121523109203B324008F47CC153
:1033500020E488EF800F842B822B8093BA04409165
:10336000F4033091F5032091F6038091F703409325
:10337000B6043093B7042093B8048093B9048091C5
:10338000B104811118C020913904211114C0409159
:10339000FC035091FD036091FE037091FF034F5FAA
:1033A0005F4F6F4F7F4F4093FC035093FD0360933B
:1033B000FE037093FF032091FC033091FD03215025
:1033C00031092093BB043093BC041092A3049923C9
:1033D000D9F190913C04992309F438C190E8909375
:1033E000B504811103C081E08093B104F801EB546E
:1033F000FB4F80913B048083C8018A549B4F6C0132
:10340000B12CA5016EE374E00E94302C0091FC0306
:103410001091FD032091FE033091FF03015011092B
:10342000210931094091F4035091F5036091F603AD
:103430007091F70380913B04811115C183E894E0FA
:10344000F12CE12C0E94D8118301045011098091C4
:10345000FC039091FD03A091FE03B091FF0301973F
:10346000A109B1096091F4035091F5034091F6036D
:103470003091F70320E1E9E4F3E0C22E1192CA94FF
:10348000E9F779E47093490310924E0300935803CF
:1034900060934F0350935003409351033093520372
:1034A0008093530390935403A0935503B093560312
:1034B000E3E8F4E0A9E9B3E001900D922A95E1F781
:1034C000A80165EB74E082E00E94BE0EF801EB54A7
:1034D000FB4F63837283818390836092B4047F92F5
:1034E0006F9227EB32E03F932F930E94402C0F9076
:1034F0000F900F900F9010E000E08091B4048017BF
:10350000110611F00CF0B2C08AE090E00E94562C37
:103510008091B404E5EBF4E0CC57DF4FF983E88306
:10352000C458D040CA57DF4FF983E883C658D0400B
:1035300010E000E0912C812C482F50E0C657DF4F5F
:1035400059834883CA58D040C657DF4F48815981B4
:10355000CA58D040841695060CF4A2C01F930F934E
:103560001F930F9387ED92E09F938F930E94402CBF
:1035700019831A8211271C830B831091B404412FE5
:1035800050E0FE0135960F900F900F900F900F9026
:103590000F90A5EBB4E090E080E0841795070CF461
:1035A000EEC1440F551F70E060E085EB94E00E948F
:1035B000392C1E5F1093B404FE01319630E020E0F8
:1035C000812F90E0281739070CF4DFC1EBEFFAE008
:1035D000F093CF03E093CE0317CDA12C37CE08E0B4
:1035E00010E048CE980127543C4FF901E450FF4FBA
:1035F00095E0908323503F4F8770D9018C930E5FE5
:103600001F4F46CE980127543C4FF901E450FF4F1D
:103610009AE0908323503F4F8370F90180830E5FBF
:103620001F4F40CE882309F445CEF801EB54FB4FE1
:1036300088E080830F5F1F4F3DCE380154E0650E58
:10364000711C64CEE0E06CCE20E083CE8091340427
:10365000882309F4CBCE809139048111C7CE81E053
:1036600080933904C3CE83E994E0EACEE091B304B9
:10367000C80187549C4FE80FF92FF11DE450FF4F0C
:1036800080811F928F9383EF91E09F938F930E948D
:10369000402C0F5F1F4F0F900F900F900F902DCF6A
:1036A000CA57DF4FA881B981C658D040BD90CA57CC
:1036B000DF4FB983A883C658D04078019CE0F594C9
:1036C000E7949A95E1F7412E552447FC5A944E24ED
:1036D0005F244B2D0B2C000C550B44255525CA019E
:1036E00081709927D801A8E0BA02A12DBB0B112443
:1036F0009801232F330F330B2595F901EA27FB2778
:10370000CE57DF4FF983E883C258D0402B2D259543
:10371000022E000C330B2E273F27220F331F22705F
:103720003327822B932BF801FF0FEE0BFF0FFE2F99
:10373000EE1F1801232C330C3308259425942E26D4
:103740003F262B2D25952595022E000C330B222587
:103750003325220F331F220F331F24703327280FE6
:10376000391FA8014427550F441F5527B80160E2AF
:103770007602612D770B1124CB0181709927842764
:103780009527B3FACC24C0F8C857DF4FC882C85871
:10379000D040C757DF4F1882C958D040C857DF4FB5
:1037A000C880D980C858D0408C259D25880F991F86
:1037B000880F991F880F991F280F391F8B2D85950A
:1037C000859585958595082E000C990B8E259F254E
:1037D00082959295907F9827807F9827807199276E
:1037E000820F931F2B2D259525952595259525959C
:1037F000022E000C330B6D01C424D5242C253D254D
:10380000689414F8220F331F1694E1F720723327BF
:10381000820F931FCE57DF4F28813981C258D04085
:103820002E273F27CB2CC6FACC0CCC08C0F80C2C8A
:10383000000CDD082C253D25689415F8220F331F58
:103840001694E1F720743327820F931F310121E092
:103850006222772464267526BB1CBB24BB1C6B2408
:103860007694762C662477946794680E791ECB0143
:10387000802791278170992784279527982F88275B
:10388000860D971D980135952795E226F326FE2C87
:10389000EE24FF0CEE2432E0F3228E0D9F1D680112
:1038A000D594C794D594C794CA26DB26DC2CCC24A7
:1038B000DD0CDD0CCC24A4E0DA228C0D9D1D38013A
:1038C000B3E075946794BA95E1F76E267F26762C5F
:1038D0006624770C770C770C6624B8E07B22860D83
:1038E000971D9801E4E035952795EA95E1F7422682
:1038F0005326E1E04E22552444265526542C4424D8
:103900005294F0EF5F22840D951D9801A5E0359546
:103910002795AA95E1F7CE57DF4FC880D980C258C6
:10392000D0402C253D25322F22273295330F307E73
:1039300022273072820F931FD80126E0B595A795F4
:103940002A95E1F7A225B325B0E4AB9FB02DAA27B5
:103950001124AA27B0748A0F9B1F000F012F001F8C
:10396000110B0627172704271527112706951795EA
:103970000027080F191F2FEF821A920AE5CD2D910B
:1039800030E021933193019608CE40813296CC5796
:10399000DF4FA881B981C458D0404D93CC57DF4F39
:1039A000B983A883C458D0402F5F3F4F0BCE88E027
:1039B0008093B20480913C04811104C08091B104D1
:1039C000882319F088E48093B204809122049091B6
:1039D000230487769E7F9093230480932204109281
:1039E000B4041092B3048AE090E00E9429164DCAF4
:1039F000003659E0150759E325075CE1350728F43F
:103A0000605A70418C41934E41CB0036A3E71A07B0
:103A1000A1E52A07ACE13A0728F4605A7A478443C3
:103A2000934E34CB0036BDED1B07B9E62B07BCE146
:103A30003B0728F4605A744E8C44934E27CB0036D3
:103A4000E7E41E07E2E82E07ECE13E0728F4605A9F
:103A50007E448546934E1ACB0036F1EB1F07FAE9F8
:103A60002F07FCE13F0728F4605A784B8D47934EAF
:103A70000DCB00364BE1140743EB24074CE1340730
:103A800028F4605A72428649934E00CB003655E8BE
:103A900015075BEC25075CE1350728F4605A7C4884
:103AA0008E4A934EF3CA0036AFEE1A07A3EE2A07EA
:103AB000ACE13A0728F4605A764F864C934EE6CA3A
:103AC0000036B9E51B07BCEF2B07BCE13B0728F428
:103AD000605A70468F4D934ED9CA0093E8031093F5
:103AE000E9032093EA033093EB03D8CAE3E1E0CA89
:103AF0008CE59FEF25CB80912004877009F06AC088
:103B00000E943F0D81E00E94630D80E00E94B90B8E
:103B100060E085E20E94A60B65E086E20E94A60BAB
:103B20000E944D0C0E94E60B69E28AE00E94A60BFF
:103B300064E380E40E94A60B6091B4046F5F82E3AB
:103B40000E94A60B6091B40480E00E94A60B4091F5
:103B5000B40450E020E065EB74E080E80E942B0B99
:103B600081E00E9402086091DC037091DD03809186
:103B7000DE039091DF03611571058105910531F137
:103B80000E948E076115710581059105F9F000917C
:103B9000D6031091D7032091D8033091D903DC01CB
:103BA000CB01800F911FA21FB31F8093D603909368
:103BB000D703A093D803B093D9038091DA039091EF
:103BC000DB0301969093DB038093DA0383E00E948A
:103BD000630D5BC90E94510D81E00E94940B87FD2B
:103BE00006C061E273E086E891E00E94020681E08F
:103BF0000E94630D0E949D0C0E944D0C68E08AE0BB
:103C00000E94A60B0E94E60B64E389E30E94A60BC8
:103C10006CE780E40E94A60B6FEF82E10E94A60B86
:103C200067EF81E10E94A60B60E08EE00E94A60B88
:103C300060E08DE00E94A60B6091B40482E285CF23
:103C40008091220481FF05C0411551056105710570
:103C500089F041575240610971092DE93EE188EC34
:103C600093E00E94360711C940E050E0BA0101FD1F
:103C7000F0CF0BC941E050E060E070E0EACF82E0B5
:103C80008093280409C9809122049091230483FF22
:103C900035C010923D0482FF2CC0877E9093230490
:103CA0008093220482E190E00E94291680912204F0
:103CB0009091230485709927892B01F50E94FB05BB
:103CC0008091CA039091CB03A091CC03B091CD0316
:103CD000892B8A2B8B2B79F489E395E068EC73E0D0
:103CE0000E94AC040E946F0680E00E94630D0C9459
:103CF0000A178776D3CF87E395E0F0CF08950E9427
:103D0000431E0E9423128CE090E00E9429160C941E
:103D10001211E2E2F4E0808191818E7D9F7B91839C
:103D200080831092F4031092F5031092F603109220
:103D3000F7030E94431E0C9412110C940A17CF93A0
:103D40008091220490912304877790932304809399
:103D50002204109239041092B1042091720422239B
:103D600051F030917304332309F466C0806190935D
:103D70002304809322040E944B066E5E75488F4F89
:103D80009F4F40E00E949A118091B204877079F0B1
:103D9000809122049091230494FF09C09F7E909308
:103DA0002304809322048FE090E00E9429168AE089
:103DB00090E00E9429160E940A1780912604909193
:103DC00027048197B4F1809136040E94220BC82FFA
:103DD00020911C0430911D04809136042730310558
:103DE00008F4C82F8C1332C08091260490912704C8
:103DF000813F92404CF08091220490912304906482
:103E0000909323048093220463E18C2F0E94570532
:103E100080912204909123049C013061309323040B
:103E2000209322042817390721F08EE090E00E94A9
:103E3000291681E0CF91089510923C0410923B0422
:103E400020933D0410927204886091CFCC23E1F25C
:103E500090E080E00E947405D7CF8091B104882360
:103E6000B1F1883020F58F5F8093B10480FF07C0E7
:103E7000809136040E94220B60E80E9457056091F1
:103E8000E0037091E1038091E2039091E30343E04A
:103E90000E949A1180912204909123048F7790932D
:103EA0002304809322040E940A1781E0089580E68B
:103EB0008093B204809126049091270401960E9479
:103EC00074051092B4041092B3040C949F1E809158
:103ED0003904882379F090913404891758F48F5F5E
:103EE000809339040E944B066E5E75488F4F9F4F3A
:103EF00040E0CECF80E2DCCF80913A04882341F0CD
:103F00000E94950E85E090E00E9429160C940A17F5
:103F100081E080933A04F6CFCF92DF92EF92FF9246
:103F2000CF93DF93809122049091230482FD22C0DD
:103F300085FD0DC08F77909323048093220481E048
:103F4000DF91CF91FF90EF90DF90CF9008958F7524
:103F50009093230480932204809138048A3018F4CB
:103F60008F5F8093380489E090E00E9429160E94B8
:103F70000A17E5CF8F77909323048093220484E17E
:103F800090E00E942916809133048093310480913F
:103F90001C0490911D040E94CC0F8091B1048F5F8E
:103FA0008093B104C82FC770109236048091220408
:103FB00090912304977F90932304809322040E947E
:103FC0004B066B017C012091360480E190E002C039
:103FD000959587952A95E2F70E946C11C60ED71E1B
:103FE000E81EF91EC092DC03D092DD03E092DE03EE
:103FF000F092DF03C12CD12C7601C394CC2399F02D
:10400000C12CD12C7601CDE9DEE10E944B06AB013B
:10401000BC014C0D5D1D6E1D7F1D9E0188EC93E063
:104020000E9436078CCFC5E5D1E2EFCF8091B20474
:1040300080FF0C948C1F80E00895CF92DF92EF9266
:10404000FF920F931F93CF93DF938091B20480FF71
:1040500005C08091B404882309F402C18091220430
:104060009091230487FFE6C084729927892B51F42D
:10407000DF91CF911F910F91FF90EF90DF90CF9044
:104080000C9416201091B40411110AC0DF91CF9145
:104090001F910F91FF90EF90DF90CF900C948C1FA9
:1040A000113111F0113221F78091B504837E8032F5
:1040B000F9F6C12FD0E0AE014150510966EB74E032
:1040C00080E00E94BE0E2497AE0165EB74E08AE0AA
:1040D0000E94BE0E6B017C01CB54DB4F688179815D
:1040E0008A819B810E94F92AC616D706E806F9063E
:1040F00009F0BECF8CEB94E00E94ED056093F403D1
:104100007093F5038093F6039093F70389EB94E0A3
:104110000E94ED0599276093F0037093F10380935B
:10412000F2039093F3031132D1F48091D1048130E2
:10413000B1F492ECE92E94E0F92EC0E0D70111968B
:104140000C9111978C91102F082FD0E1DC0FDC130C
:1041500073C0B2E0EB0EF11CCD2FD03679F7809111
:104160002404909125040197EBE8F4E028E0DF01B6
:104170001D922A95E9F721E02093830426E0E6EBDF
:10418000F4E0A4E8B4E001900D922A95E1F7809361
:104190008A0490938B0480E1E3E8F4E0A3E9B4E0BF
:1041A00001900D928A95E1F782E08093930440E1BB
:1041B00050E063E874E080E00E94BE0E40E150E011
:1041C00063E974E080E00E94BE0E8091220485FFC6
:1041D00008C0C091380480913604C150E0F5809346
:1041E0003604809122049091230489759D7F986004
:1041F00090932304809322041092B1040E94C90575
:1042000080EC9FEF0E9474058091C004982F9F70EE
:104210009093AD04829587708093AC048091C10423
:104220008823E1F08093A60486E090E00E9429169E
:104230000E940A1781E015C0C03609F48ACF8C2F7E
:1042400000FF06C00E94C304CF5F169507957FCF7D
:104250000E94F304F9CF0E94220BBFCF81E0E2CF8E
:1042600080E0DF91CF911F910F91FF90EF90DF9051
:10427000CF9008958091B40481110AC02091AD04BB
:1042800043EE56E168ED78EB85E090E00C94520A3D
:104290000E941D20882391F308958091B404811118
:1042A00002C01092B2040C941D2088E090E00E949D
:1042B00029160C940A17809122049091230487FFF9
:1042C00004C081E692E00C9460088C799927892BD0
:1042D000E1F43091360440911C0450911D04832F69
:1042E00090E04730510588F0863078F4FC01E752C1
:1042F000FD4FE491EE2349F0E93290F5FC01EF50D7
:10430000FD4FE4910196EF3F61F780912204909177
:1043100023049C012C793327232BF9F42CE1E0E0D2
:10432000F1E0AEE3B4E001900D922A95E1F710922E
:104330003C0421E020933B042CE120933D049C01AC
:104340002860309323042093220482FD04C010923D
:10435000B104109239040E940A178AE792E0B3CFA1
:10436000381799F260E80E945705CFCF2F923F92FD
:104370004F925F926F927F928F929F92AF92BF9275
:10438000CF92DF92EF92FF920F931F93CF93DF9321
:10439000CDB7DEB76C970FB6F894DEBF0FBECDBFBA
:1043A000998F888F3B0110927204452B09F510926A
:1043B0007304F12CE12CE614F704F4F0C7016C96B9
:1043C0000FB6F894DEBF0FBECDBFDF91CF911F9126
:1043D0000F91FF90EF90DF90CF90BF90AF909F90A4
:1043E0008F907F906F905F904F903F902F900895A7
:1043F00081E080937304DDCFC88CD98CCE0CDF1C98
:10440000F6012081223050F1422F4250550BFA0123
:104410004231510518F5EE56FD4FE4918E2F90E094
:104420009D8B8C8B892B51F2C3018E199F09EC89CE
:10443000FD898E179F070CF4C1CF2250283080F4DD
:10444000E22FF0E0EA5DFD4D0C94F32A312239228F
:10445000FC23852359233022EE230D24E0E0DECF18
:104460003701EC89FD89EE0DFF1D730137017F01D6
:10447000A2CFD60107E01B8A1A8A2A893B892B5FC3
:104480003F4F49019C014A895B89241B350B25302C
:1044900031050CF493C011962C91119712964D9101
:1044A0005C91139714963C9114973077E22FE29524
:1044B000EF70303558F0303509F078C041155105AE
:1044C00009F47AC04427452B09F076C0E63030F471
:1044D000F0E0E051FD4FE491EF3F09F40D7F2F70C4
:1044E000283038F4E22FF0E0EF52FD4FE491E0384D
:1044F00009F40B7F15962C91233009F454C08CE0FD
:10450000E4E0F4E0DE01119601900D928A95E1F766
:1045100080911C0490911D049B8F8A8F412C10E088
:10452000073009F077C09F8A8E8A160181E0412CFE
:1045300010E0EE89FF8935970CF469C0F101A28083
:10454000B38011814480F42DF077F98BF035D9F5E3
:10455000512C852DA0FE34C00E942C065394B69495
:10456000A79428E05212F5CF20911C0430911D042D
:104570004E895F89455051095F8B4E8B55E0250E62
:10458000311C81E02115310509F480E0A1014C19AD
:104590005D09481559056CF2232BD9F1A12EA2947F
:1045A0008FE0A8223DC09B8A8A8A67CF303609F403
:1045B00089CF303709F482CF0E7F88CF00E09FCFBC
:1045C0000E940506CBCF8989803578F4805F8C8F77
:1045D0005988FC8D5F1640F6852DA0FE15C00E94FF
:1045E000C3045394B694A794F4CF512C9989852D84
:1045F000903639F40E94C3045394E0E65E12F6CF7D
:10460000E8CF0E94F304F8CF0E94F304EACF8111AF
:1046100001C006E0A12EA2947FE0A722073041F45A
:1046200080911C0490911D0407E0079780F405E039
:104630008CE0FE013196A4E0B4E001900D928A95E1
:10464000E1F72A8D3B8D30931D0420931C04BB247D
:10465000B394D12CC12CC4018C199D0905976CF021
:10466000602F83E00E949F05B82E35E0C30ED11C59
:10467000C814D90414F48111EECF073099F4842DB5
:104680008F70909134048913809334041F7060E814
:10469000183028F4E12FF0E0EF52FD4F64918A2D9D
:1046A0000E9457054A895B89E40EF51EBB2001F183
:1046B000D8CE20912A04022E000C330BC901029699
:1046C00097FD03969595879595958795182F1F7358
:1046D0004F970CF01FE11093A804D090C7030091EE
:1046E000720486E00E948005811104C00093720468
:1046F000F701BCCE8D2D0E9480058823B9F3812F50
:104700000E948005882391F3ACCEC7010196E88D05
:10471000F98D8E0F9F1FFC012081122F1F7030E03A
:1047200044E0359527954A95E1F7022F07700E94DE
:10473000ED05272F382F492F5527A4E6B0E00E941A
:10474000162B4B015C01F0E88F1AF1EA9F0AF3E0A7
:10475000AF0AFCE1BF0A21E082162AE5920622E6B2
:10476000A20622E0B20618F060E070E0CB0130EC67
:104770003093AE04163050F4E12FF0E0E051FD4FDD
:10478000E491EF3F19F042EC4093AE0461157105DE
:104790008105910529F02091AE0421602093AE049B
:1047A000043028F42091AE0424602093AE042091BC
:1047B000AE04273C61F41093AD0460930004709341
:1047C000010480930204909303040093AC04622FCD
:1047D000677085E00E949F05B82E68CFF601818141
:1047E0008F7009F481E08093A604F2E0F093B004A6
:1047F00088E00E948005F0CFF60181818F70809360
:1048000032040E944B066093EC037093ED03809397
:10481000EE039093EF0384E0ECCFF60181818F7378
:104820008093AB0489E0E5CF2F923F924F925F9245
:104830006F927F928F929F92AF92BF92CF92DF92B0
:10484000EF92FF920F931F93CF93DF9300D000D08E
:1048500000D0CDB7DEB78091220487FFE5C1F0908C
:10486000B404F1101AC026960FB6F894DEBF0FBE3E
:10487000CDBFDF91CF911F910F91FF90EF90DF900F
:10488000CF90BF90AF909F908F907F906F905F90F0
:104890004F903F902F900C942D1F2F2D30E03E8392
:1048A0002D832C30310544F41092B4048091B2046D
:1048B00080FFD9CF80E0B9C18091B504982F937063
:1048C00099F7807E8983803611F0803A69F786EB0C
:1048D00094E00E94ED050091F4031091F5032091FE
:1048E000F6033091F7036017710782079307E1F62B
:1048F0003091BA043B833F70E32EC32ED12C1601B6
:10490000A8E02A0E311C2D813E81245031093E83BE
:104910002D832215330544F288248A94982C22167C
:1049200033064CF4F101EB54FB4F2081822E912C85
:10493000D60119961D014090F8035090F90360903C
:10494000FA037090FB030091BB041091BC0404199E
:1049500015090F3F100709F078C021E0421A5108ED
:104960006108710820E1E9E4F3E0DF01322F1D92D4
:104970003A95E9F739E43093490331E030934E0337
:10498000ACEFAF0DAC83A093580360934F037093CB
:1049900050038093510390935203409253035092DB
:1049A00054036092550370925603E3E8F4E0A9E9DA
:1049B000B3E001900D922A95E1F74D815E8165EBA0
:1049C00074E082E00E94BE0E9B01AC01ED81FE818D
:1049D000EB54FB4F60817181828193810E94F92A9F
:1049E000261737074807590709F05ECF8091F8036B
:1049F0009091F903A091FA03B091FB034816590670
:104A00006A067B0638F584159505A605B7050CF4EE
:104A10004BCF0197A109B109481659066A067B06D2
:104A200009F042CF8091A404882309F43DCFB981D5
:104A3000B03A09F039CF80E28093A3048114910445
:104A400009F40CC101E010E033C0400E511E611C9E
:104A5000711C88CF0130104408F026CFD301C20169
:104A60000196A11DB11D8093F8039093F903A093C3
:104A7000FA03B093FB03398180E2303A09F080E019
:104A80008093A4048093A30410E000E081149104B7
:104A900041F4EE2031F08D819E81281639060CF408
:104AA00003CF8091A304811103C09B8194FF09C0AF
:104AB0008091220490912304806190932304809339
:104AC0002204109238041092A50480EC9FEF0E94FB
:104AD00074051092AE041092B004E0912004F0919D
:104AE00021048E2F877033E0F695E7953A95E1F72C
:104AF000E370F0E0A3E08A9FE00DF11D1124E4547F
:104B0000FD4FE49180912904082E000C990B8054EC
:104B10009109ED58FF0B8E1B9F0B97FD80E0809352
:104B2000A704A401B6018DEB94E00E94B621012BED
:104B300009F0BACEBFEF8B169B0699F12D813E810D
:104B4000221933093E832D831216130654F5C10131
:104B50008B549B4F9A8389834091F4035091F503C2
:104B60006091F6037091F70383E894E08114910457
:104B700011F083E994E0AD80BE80C980DA80EE2434
:104B8000E394F12C930182010E94D81181149104C5
:104B900041F450E040E06D817E8189819A810E94DC
:104BA000B6219091B104992349F0AB8120E8A5FF8B
:104BB00020E48091B204822B8093B2048091B204ED
:104BC000181419043CF180628093B2042092B3045B
:104BD0001092B404992321F08091B20486FD43CE53
:104BE00026960FB6F894DEBF0FBECDBFDF91CF91F2
:104BF0001F910F91FF90EF90DF90CF90BF90AF90FB
:104C00009F908F907F906F905F904F903F902F90EC
:104C10000C949F1E80618093B2042092B304FC80A8
:104C2000F218F092B404D6CF81E026960FB6F8942D
:104C3000DEBF0FBECDBFDF91CF911F910F91FF90CF
:104C4000EF90DF90CF90BF90AF909F908F907F902C
:104C50006F905F904F903F902F900895EE2009F451
:104C6000F1CE01E010E017CF8091B40481110EC0A5
:104C7000A091A604B0E0119624E234EF0E940F2B1D
:104C80002091AD044BED56E10C94520A0E9414247D
:104C9000882371F308958091B40481110BC01092A0
:104CA000B2040E944B06655E78448F4F9F4F42E0EE
:104CB0000E949A110C9414241F920F920FB60F9217
:104CC00011242F933F934F935F936F937F938F9311
:104CD0009F93AF93BF93EF93FF938BE395E00E9475
:104CE000FA02FF91EF91BF91AF919F918F917F91C8
:104CF0006F915F914F913F912F910F900FBE0F9049
:104D00001F9018951F920F920FB60F9211242F9398
:104D10008F939F93EF93FF93E0914B05F0914C0598
:104D20008081E0915105F091520582FD1BC0908178
:104D3000809154058F5F8F7320915505821741F044
:104D4000E0915405F0E0E55CFA4F958F80935405AF
:104D5000FF91EF919F918F912F910F900FBE0F9028
:104D60001F9018958081F4CF1F920F920FB60F926B
:104D700011242F933F938F939F93AF93BF93809171
:104D8000870390918803A0918903B0918A033091A1
:104D9000590323E0230F2D3758F50196A11DB11DAE
:104DA000209359038093870390938803A0938903EA
:104DB000B0938A0380915A0390915B03A0915C03A6
:104DC000B0915D030196A11DB11D80935A0390938C
:104DD0005B03A0935C03B0935D03BF91AF919F9180
:104DE0008F913F912F910F900FBE0F901F901895AC
:104DF00026E8230F0296A11DB11DD2CFEBE3F5E00B
:104E00001382128288EE93E0A0E0B0E08483958361
:104E1000A683B7838FE291E09183808385EC90E055
:104E20009587848784EC90E09787868780EC90E074
:104E3000918B808B81EC90E0938B828B82EC90E065
:104E4000958B848B86EC90E0978B868B118E128EDF
:104E5000138E148E81E491E09093D9058093D80548
:104E60000895CF93DF93CDB7DEB7A0970FB6F89430
:104E7000DEBF0FBECDBF789484B5826084BD84B59B
:104E8000816084BD85B5826085BD85B5816085BD45
:104E900080916E00816080936E00109281008091FD
:104EA0008100826080938100809181008160809385
:104EB0008100809180008160809380008091B100AA
:104EC00084608093B1008091B00081608093B000D5
:104ED00080917A00846080937A0080917A00826069
:104EE00080937A0080917A00816080937A0080912B
:104EF0007A00806880937A001092C100E0914B059F
:104F0000F0914C0582E08083E0914705F0914805DF
:104F10001082E0914905F0914A0580E1808310926A
:104F20005305E0914F05F091500586E08083E091B4
:104F30004D05F0914E05808180618083E0914D05A3
:104F4000F0914E05808188608083E0914D05F0915D
:104F50004E05808180688083E0914D05F0914E057B
:104F600080818F7D808364E670E080E090E00E9425
:104F700051048AE693E00E946008E7E3F5E084E0EC
:104F8000DF011D928A95E9F78DE191E090939803F6
:104F90008093970388ED95E090937E0380937D0343
:104FA00061E08AE00E94CD0361E08AE00E94FB0399
:104FB00060E089E00E94FB0360E082E00E94FB0366
:104FC00060E086E00E94FB0360E087E00E94FB0354
:104FD0001FB7F89480917C03811127C0E0E4F3E0CF
:104FE0008491ECE2F3E09491E82FF0E0EE0FFF1FE4
:104FF000E85EFC4FA591B491EC91E92321F461E0C6
:105000008AE00E94CD0361E08AE00E94FB038CB538
:1050100080618CBD8CB580648CBD61E08DE00E94A8
:10502000FB0361E08BE00E94FB0380917C038F5FB8
:1050300080937C031FBFEEE6F3E08EE0DF011D925C
:105040008A95E9F783EF95E0909377038093760351
:1050500082E080937103F093DD05E093DC0581E04D
:105060000E94D8070091970310919803F80182815C
:105070008F3F49F060E00E94CD0361E0D8011296B5
:105080008C910E94FB030E944B06625C7F4F8F4F06
:105090009F4F0E948E07F80182818F3F19F060E0D8
:1050A0000E94FB030E944B06685C7E4F8F4F9F4F10
:1050B0000E948E0780E00E94630D82E40E94940BA0
:1050C000823109F020C280917D0390917E03DC0142
:1050D000ED91FC910680F781E02D0995882341F040
:1050E0008BE40E94940B682F60618BE40E94A60BF6
:1050F00082E00E946D0D81E00E94940B87708530E4
:10510000D1F70EE513E0BDE6CB2EB3E0DB2EA8E031
:10511000EA2EF12C8CE20E94940B8170B82E8CE266
:105120000E94940B8170B816A9F3F8018181880F51
:105130008B298183F1E0EF1AF10861F70F5F1F4FB0
:10514000C016D10621F710E110935E0380E00E94A3
:10515000630D80E490E090932304809322048FEF0A
:105160008093C7030E94231240E150E06AE573E098
:10517000CE0141960E94892A40E150E06AE473E042
:10518000CE0101960E94892A83E190E0A0E0B0E080
:105190008093F0039093F103A093F203B093F30391
:1051A00085E19AEEAEEDB0E08093F4039093F503C1
:1051B000A093F603B093F703FE013196A3E8B4E0A1
:1051C000812F01900D928A95E1F7FE017196A3E976
:1051D000B4E001900D921A95E1F78091220490912C
:1051E000230489759D7B9860909323048093220407
:1051F0000E94C90590E080E00E94740510E0812FB4
:105200000E9405061F5F1830D1F71092A50480E8B0
:105210009FEF90932704809326041092AD04109280
:10522000A9046FE082E00E9457058FE793E00E9497
:105230005B21EFE0BE2EF0E0CF2EF0E0DF2E2FB7A7
:10524000F8948091870390918803A0918903B0918D
:105250008A032FBF61E091FF60E08DE00E94CD03E3
:105260007BE8E72E73E0F72E10E000E0E091970373
:10527000F0919803E00FF11F83818F3FC9F1D701AF
:105280004D905D906D907C904114510461047104C7
:1052900079F1F701108211821282138281E00E945B
:1052A000940B87FFCEC082E10E94940B8093360559
:1052B00083FF45C0F2E04F1A51086108710840921F
:1052C000DC035092DD036092DE037092DF036FEF28
:1052D00081E10E94A60B6FEF82E10E94A60B80E0A5
:1052E0000E94630D8091CE039091CF030E94F70638
:1052F0000F5F1F4FE4E0EE0EF11C0330110509F0C3
:10530000B5CF0E94FB050091390510913A050115B2
:10531000110509F4C9C0D8018D919C9190933A056B
:10532000809339050E946F060115110509F4DFC04D
:10533000D8011696ED91FC91C8010995D8C086FF59
:105340007BC0E0912004F0912104CF0163E09695A9
:1053500087956A95E1F7837061F4E770F0E0EE0FEE
:10536000FF1FED58FC4F85919491481A590A610826
:1053700071084092E0035092E1036092E203709260
:10538000E3038DE10E94940B80FF45C082E20E94FE
:10539000940B8093B40480E10E94940B682F8DE0FD
:1053A0000E94A60B4091B40450E021E065EB74E04C
:1053B00080E00E942B0B89E10E94940B80932A04C9
:1053C0008AE10E94940B282F30E04091E80350912D
:1053D000E9036091EA037091EB0341345D4D6A4447
:1053E0007F41D8F02D59310990912A0497FF18C0B8
:1053F000A92FBB27A1950CF4B095CD019595879564
:1054000095958795281B390B203431059CF4205C39
:10541000209329045CCF83E1BACF245A3109E4CF29
:105420002D39BFEF3B079CF36B2D0E94922A280F6A
:10543000311DEACF2FE7ECCF87FF49CF1092B4049C
:1054400046CF8EE30E94940B8FE30E94940B83FF60
:105450000CC04092DC035092DD036092DE03709238
:10546000DF0381E00E94630D3ACF82FF1AC04092B1
:10547000E0035092E1036092E2037092E30382E35F
:105480000E94940B8093B404482F50E021E065EB18
:1054900074E080E00E942B0B10922A0410922904E1
:1054A000E0CF1092B404DDCFE0913705F0913805DC
:1054B0003097D9F042805380648075800E944B06FB
:1054C000461A570A680A790A1414150416041704B0
:1054D00064F00091370510913805F80180819181C1
:1054E00090933805809337051DCF0E946F06C11435
:1054F000D10409F4A4CE0E94E602882309F49FCEC9
:105500000E9400009CCE65E370E08FE093E00E9473
:105510000206FB01DC0102C005900D924150504093
:10552000D8F70895991B79E004C0991F961708F0E1
:10553000961B881F7A95C9F780950895AA1BBB1BF7
:1055400051E107C0AA1FBB1FA617B70710F0A61B83
:10555000B70B881F991F5A95A9F780959095BC01A4
:10556000CD010895A1E21A2EAA1BBB1BFD010DC09F
:10557000AA1FBB1FEE1FFF1FA217B307E407F50703
:1055800020F0A21BB30BE40BF50B661F771F881FDF
:10559000991F1A9469F760957095809590959B0175
:1055A000AC01BD01CF010895052E97FB1EF40094B8
:1055B0000E94EB2A57FD07D00E94B22A07FC03D0B5
:1055C0004EF40C94EB2A50954095309521953F4F21
:1055D0004F4F5F4F089590958095709561957F4FDF
:1055E0008F4F9F4F0895EE0FFF1F0590F491E02D10
:1055F00009946927962769277827872778270895A8
:10560000A29FB001B39FC001A39F700D811D112403
:10561000911DB29F700D811D1124911D08950E944E
:10562000002BB7FF0895821B930B08950E94002B57
:10563000A59F900DB49F900DA49F800D911D1124E6
:10564000089597FB57FF0C94312B9F938F930E94E3
:10565000312B6E1B7F0BAF91BF918A0B9B0B089573
:10566000E894DF93CF93FC01DB010E94002B7F9332
:105670006F93E9019A01AC01BF93AF933F932F93CE
:10568000DF010E94002B26F46C1B7D0B820B930B19
:105690009E01EB01FC010E94272CAF91BF912F913D
:1056A0003F910E94272CBE01CF01F9012F913F911C
:1056B000CF91DF910895689401C0E8948F929F92F2
:1056C000CF93DF930E94692BDF91CF919F908F90B2
:1056D000089588249924F401E401B0E49F93AA2753
:1056E0009A158B049C04ED05FE05CF05D007A10794
:1056F00098F4AD2FDC2FCF2FFE2FE92D982C892E7B
:10570000982F872F762F652F542F432F322F222744
:10571000B85031F7BF9127C01B2EBF91BB27220F76
:10572000331F441F551F661F771F881F991F881C32
:10573000991CEE1FFF1FCC1FDD1FAA1FBB1F8A1461
:105740009B04EC05FD05CE05DF05A007B10748F079
:105750008A189B08EC09FD09CE09DF09A00BB10BE3
:1057600021601A94E1F62EF49401AF01BE01CD013F
:10577000000C08952F923F924F925F926F927F920A
:105780008F929F92AF92BF92CF92DF92EF92FF9251
:105790000F931F93CF93DF93CDB7DEB7CA1BDB0BFD
:1057A0000FB6F894DEBF0FBECDBF09942A883988A2
:1057B00048885F846E847D848C849B84AA84B984A9
:1057C000C884DF80EE80FD800C811B81AA81B981B5
:1057D000CE0FD11D0FB6F894DEBF0FBECDBFED01C9
:1057E0000895002E083090F0982F872F762F652F80
:1057F000542F432F322F22270850F4CF220F331F6C
:10580000441F551F661F771F881F991F0A95B2F7FF
:10581000002D089597FD1094002E083098F0085040
:10582000232F342F452F562F672F782F892F912D17
:10583000F4CF1594979587957795679557954795E4
:10584000379527950A95AAF71124002D08950E94EF
:10585000002B460F571FC81FD91F08F43196089513
:10586000FB01DC0102C001900D9241505040D8F77D
:105870000895DC0101C06D9341505040E0F7089558
:10588000B0E0A0E0E6E4FCE20C94CA2BAE014B5F72
:105890005F4FFA0161917191AF018091DC059091A8
:1058A000DD050E945D2CE2E00C94E62B6091DC05A6
:1058B0007091DD050E944D2E0895ABE0B0E0E3E667
:1058C000FCE20C94BA2B7C013B018A01FC0117829B
:1058D0001682838181FFC8C1CE0101965C01F70168
:1058E0009381F30193FD859193FF81913F0188237B
:1058F00009F453C1853239F493FD859193FF819169
:105900003F01853229F4B70190E00E944D2EE7CF88
:10591000912C212C312CFFE1F31538F08B3211F151
:1059200090F4803209F1833229F137FC3CC020ED3C
:10593000280F2A3050F536FE20C08AE0989E200DB0
:105940001124922E06C08D3291F0803371F7689445
:1059500030F8F30193FD859193FF81913F0181110F
:10596000DACF21C0689431F8689432F8F2CF6894A5
:1059700033F8EFCF689434F8ECCFEAE02E9E200D98
:105980001124222E689435F8E4CF8E3229F436FCA7
:1059900004C1689436F8DDCF8C3619F4689437F872
:1059A000D8CF8836B1F2982F9F7D95549330E0F090
:1059B0008336A1F18337C1F1833509F063C0280133
:1059C000F2E04F0E511CF801C080D180692D70E0CB
:1059D00036FC02C06FEF7FEFC6010E94372E4C01EC
:1059E000689437F882010AC00C5F1F4FFFE3F98308
:1059F00088248394912C6501E89437F833FE2DC0F8
:105A0000522C8114910471F5552009F468CFB70127
:105A100080E290E00E944D2E5A94F6CFF8018081EA
:105A200089830E5F1F4FE4CF2801F2E04F0E511C17
:105A3000F801C080D180692D70E036FC02C06FEFA4
:105A40007FEFC6010E94422E4C018201D5CFB701E3
:105A500080E290E00E944D2E2A942814190409F047
:105A6000B0F7CECFF60137FC859137FE81916F01FB
:105A7000B70190E00E944D2E51105A94F1E08F1A18
:105A80009108BFCF843619F0893609F077C0F80144
:105A900037FE6BC060817181828193810C5F1F4FE3
:105AA000F32DFF763F2E97FF09C090958095709556
:105AB00061957F4F8F4F9F4F689437F82AE030E011
:105AC000A5010E947D2EC82ECA188C2C432C36FEB0
:105AD0000CC0E89440F8C91440F434FE05C032FC10
