:100000000C942F020C9457020C9457020C94570234
:100010000C9457020C9457020C9457020C945702FC
:100020000C9457020C9457020C9457020C945702EC
:100030000C9457020C9457020C9457020C945702DC
:100040000C94B3250C9457020C9481250C945B25D9
:100050000C9457020C9457020C9457020C945702BC
:100060000C9457020C945702556E6B6E6F776E208E
:100070006576656E743A200045565F4A4F494E5F7B
:100080005458434F4D504C4554453A206E6F204ACA
:100090006F696E4163636570740045565F545843E1
:1000A000414E43454C454400206279746573206F8E
:1000B00066204672616D65205061796C6F61643AAB
:1000C000204261736536342D6465636F6465642016
:1000D00068657861646563696D616C2073747269C9
:1000E0006E67207061796C6F61643A0053656E745D
:1000F000200045565F545853544152540045565FB2
:100100004C494E4B5F414C4956450045565F4C4962
:100110004E4B5F444541440045565F5258434F4D56
:10012000504C4554450045565F5245534554004593
:10013000565F4C4F53545F5453594E4300426173C2
:100140006536342D6465636F646564206865786125
:10015000646563696D616C20737472696E67207089
:1001600061796C6F61643A20002062797465732054
:100170006F66207061796C6F61643A20005265632C
:1001800065697665642000526563656976656420FB
:1001900061636B0045565F5458434F4D504C455476
:1001A000452028696E636C75646573207761697496
:1001B000696E6720666F722052582077696E646F8F
:1001C0007773290045565F52454A4F494E5F464175
:1001D000494C45440045565F4A4F494E5F464149A8
:1001E0004C45440045565F4A4F494E4544004556EC
:1001F0005F4A4F494E494E470045565F424541438D
:100200004F4E5F545241434B45440045565F424573
:1002100041434F4E5F4D49535345440045565F425D
:100220004541434F4E5F464F554E440045565F5340
:1002300043414E5F54494D454F5554004F505F5414
:1002400058525850454E442C206E6F742073656E82
:1002500064696E67005061636B65742071756575C4
:100260006564000000000023002600290003050249
:100270000501060202050000060000010504040055
:1002800004000000020000000100008000000040A7
:10029000000000200000002020200E11140C0F127E
:1002A000090C0F06090C03060900030613110F0DB4
:1002B0000B09070540404080EBEB080A0C0D0E10BF
:1002C000121415181A1B1D1E2124FF060504030213
:1002D00001FFC0400000000000250028002B0000A6
:1002E00000000800020100000304070000000000F5
:1002F00000000000000000240027002A0001020482
:100300000810204080010204081020010204081097
:10031000200404040404040404020202020202038E
:10032000030303030343579EA99CF9256204D47772
:100330008F63A61C0CE9B53B908577E0CF4A7DBE64
:10034000490D40B0455374617274696E67000000D6
:1003500000006700CC00B80154039D07637C777BE5
:10036000F26B6FC53001672BFED7AB76CA82C97DB1
:10037000FA5947F0ADD4A2AF9CA472C0B7FD932642
:10038000363FF7CC34A5E5F171D8311504C723C346
:100390001896059A071280E2EB27B27509832C1A8A
:1003A0001B6E5AA0523BD6B329E32F8453D100EDE4
:1003B00020FCB15B6ACBBE394A4C58CFD0EFAAFBC8
:1003C000434D338545F9027F503C9FA851A3408F90
:1003D000929D38F5BCB6DA2110FFF3D2CD0C13ECA8
:1003E0005F974417C4A77E3D645D197360814FDC3D
:1003F000222A908846EEB814DE5E0BDBE0323A0A21
:100400004906245CC2D3AC629195E479E7C8376DA4
:100410008DD54EA96C56F4EA657AAE08BA78252EC9
:100420001CA6B4C6E8DD741F4BBD8B8A703EB56652
:100430004803F60E613557B986C11D9EE1F8981143
:1004400069D98E949B1E87E9CE5528DF8CA1890D32
:10045000BFE6426841992D0FB054BB16FD2511240B
:100460001FBECFEFD8E0DEBFCDBF25E0A2EEB2E0E9
:1004700001C01D92AE33B207E1F712E0A0E0B1E097
:10048000E0EEFBE502C005900D92A23EB107D9F760
:1004900012E0CFE2D2E004C02197FE010E94062ABA
:1004A000CE32D107C9F70E9430260C94EE2D0C9461
:1004B0000000FC0120E1215008F4089580E02111A2
:1004C00081819191990F87FD9160DF0111979C9334
:1004D000F2CFAF92BF92CF92DF92EF92FF920F9343
:1004E0001F93CF93DF936C017B018B01040F151FCA
:1004F000EB015E01AE18BF08C017D10759F0699132
:10050000D601ED91FC910190F081E02DC601099595
:10051000892B79F7C501DF91CF911F910F91FF9042
:10052000EF90DF90CF90BF90AF900895FC01538D76
:10053000448D252F30E0842F90E0821B930B5417BD
:1005400010F0CF96089501970895FC01918D828D4A
:10055000981761F0A28DAE0FBF2FB11D5D968C91E3
:10056000928D9F5F9F73928F90E008958FEF9FEF22
:100570000895FC01918D828D981731F0828DE80FDE
:10058000F11D858D90E008958FEF9FEF0895FC0198
:10059000918D228D892F90E0805C9F4F821B910965
:1005A0008F739927089589E994E00E94C70221E09A
:1005B000892B09F420E0822F089580E090E0892BB8
:1005C00029F00E94D30281110C9400000895FC01CF
:1005D000A48DA80FB92FB11DA35ABF4F2C91848DA4
:1005E00090E001968F739927848FA689B7892C9301
:1005F000A089B1898C91837080648C93938D848D54
:10060000981306C00288F389E02D80818F7D808356
:100610000895EF92FF920F931F93CF93DF93EC0116
:1006200081E0888F9B8D8C8D98131AC0E889F98999
:10063000808185FF15C09FB7F894EE89FF8960839C
:10064000E889F98980818370806480839FBF81E01D
:1006500090E0DF91CF911F910F91FF90EF9008955F
:10066000F62E0B8D10E00F5F1F4F0F731127E02E3A
:100670008C8D8E110CC00FB607FCFACFE889F98972
:10068000808185FFF5CFCE010E94E702F1CFEB8D8F
:10069000EC0FFD2FF11DE35AFF4FF0829FB7F89446
:1006A0000B8FEA89FB8980818062CFCF0F931F93E4
:1006B000CF93DF938C01D0E0C0E0F801EC0FFD1F79
:1006C0006491662341F089E994E00E940903892B33
:1006D00011F02196F2CFCE01DF91CF911F910F91B2
:1006E0000895CF93DF93EC01888D8823B9F0AA8910
:1006F000BB89E889F9898C9185FD03C0808186FDDD
:100700000DC00FB607FCF7CF8C9185FFF2CF80812B
:1007100085FFEDCFCE010E94E702E9CFDF91CF91B7
:100720000895833081F028F4813099F08230A9F067
:1007300008958730A9F08830C9F08430B1F48091F1
:1007400080008F7D03C0809180008F778093800030
:10075000089584B58F7784BD089584B58F7DFBCFD0
:100760008091B0008F778093B00008958091B000A1
:100770008F7DF9CF1F93CF93DF93282F30E0F901BE
:10078000E152FD4F8491F901E350FD4FD491F901FD
:10079000EF5EFC4FC491CC23A9F0162F81110E946B
:1007A0009103EC2FF0E0EE0FFF1FEB52FD4FA591F0
:1007B000B4918FB7F894EC91111108C0D095DE2355
:1007C000DC938FBFDF91CF911F910895DE2BF8CF7F
:1007D000CF93DF9390E0FC01E350FD4F24918F5EB7
:1007E0009C4FFC0184918823D1F090E0880F991FE1
:1007F000FC01ED50FD4FA591B491FC01EB52FD4F72
:10080000C591D49161110EC09FB7F8948C91E22FDD
:10081000E0958E238C932881E223E8839FBFDF91AC
:10082000CF9108958FB7F894EC91E22BEC938FBFA2
:10083000F6CF3FB7F8948091F8029091F902A09119
:10084000FA02B091FB0226B5A89B05C02F3F19F014
:100850000196A11DB11D3FBFBA2FA92F982F882740
:10086000BC01CD01620F711D811D911D42E0660F1B
:10087000771F881F991F4A95D1F708958F929F92ED
:10088000AF92BF92CF92DF92EF92FF924B015C0149
:100890000E9419046B017C010E9419046C197D09E6
:1008A0008E099F09683E734081059105A8F321E0F8
:1008B000821A9108A108B10888EEC80E83E0D81EFC
:1008C000E11CF11C81149104A104B10429F7FF90EB
:1008D000EF90DF90CF90BF90AF909F908F90089552
:1008E0000F931F936115710581059105F9F0009132
:1008F0006E0310916F032091700330917103DC013E
:10090000CB01800F911FA21FB31F80936E039093A2
:100910006F03A0937003B093710380917203909161
:100920007303019690937303809372031F910F9149
:100930000895FC01208131812115310519F490E0E1
:1009400080E008952617370749F4FB0120813181A3
:10095000FC013183208381E090E00895C901E9CF53
:10096000803660F5282F22952F7030E0220F331F3C
:10097000F901EE55FC4F408151818F7061E070E0CC
:1009800002C0660F771F8A95E2F7CA018623972374
:10099000892B91F48091BA039091BB0301969093B7
:1009A000BB038093BA0381E02E553C4F462B572B57
:1009B000F90151834083089580E0F6CF80E00895E7
:1009C000803670F5282F22952F7030E0220F331FCC
:1009D000F901EE55FC4F608171818F7041E050E06C
:1009E00002C0440F551F8A95E2F7CA018623972358
:1009F000892BA1F08091BA039091BB03019790934A
:100A0000BB038093BA0381E02E553C4F409550952F
:100A100046235723F90151834083089580E0F4CFA2
:100A200080E00895FC0190E080E06115710509F413
:100A3000089521913191A9015695479545755575B0
:100A4000241B350BA90143735373369527953695AF
:100A5000279523733373240F351FA901407F507FDF
:100A60002F703F70A4E0220F331FAA95E1F7240FE7
:100A7000351FA9015527232F3327240F351F820F38
:100A8000931F61507109D1CF982F6038C1F08091C8
:100A9000D3036817A1F06093D30381E02091D403BE
:100AA000291761F09093D4038091C0039091C10302
:100AB00098609093C1038093C00381E0089580E023
:100AC000EDCF2091C4033091C50320383F4F21F072
:100AD0009093C5038093C4030895982F80911104C7
:100AE000E0911004882361F0EF30A0F481E08E0FD4
:100AF00080931004F0E0EE5EFB4F908381E0089558
:100B0000E43348F481E08E0F80931004F0E0E45267
:100B1000FC4FF3CF80E00895CF93DF93C62FD091A1
:100B200010040E946D05811106C0D093100480E06E
:100B3000DF91CF9108958C2F0E946D058823A9F332
:100B400081E0F6CF10924A0410924B0480E294E4C4
:100B5000AEE1BEE180939E0390939F03A093A00318
:100B6000B093A1038FEF80934904089510929A03E4
:100B700010929B0310929C0310929D031092960377
:100B80001092970310929803109299031092D60333
:100B90001092430410924204109241041092D20326
:100BA0001092D70310924C0410924E0410924804F5
:100BB0000C94A205FC01608171818281938108956A
:100BC000682F89E994E00E94090390E080E008958D
:100BD000F8948091E6028F5F8093E60208950E9468
:100BE000E805FFCFEF92FF921F93CF93DF938C30F6
:100BF00030F067EA70E08CE391E00E94EF05880F27
:100C0000880F880F98E0980FC82FD0E010E0E92EE9
:100C1000F12CCE15DF053CF0812FDF91CF911F9194
:100C2000FF90EF9008958C2F0E94E004182B2196DE
:100C3000F0CFEF92FF921F93CF93DF93880F880F2F
:100C4000880F98E0980FC82FD0E010E0E92EF12C23
:100C5000CE15DF053CF0812FDF91CF911F91FF90E2
:100C6000EF9008958C2F0E94B004182B2196F0CF9E
:100C70000F931F930E941904AB01BC012091E20263
:100C8000DC01CA013CE1B695A795979587953A9501
:100C9000D1F782278870820F8093E202E4E0769594
:100CA000679557954795EA95D1F79B01382BC90170
:100CB000BA011F910F910895AF92BF92CF92DF9228
:100CC000EF92FF920F931F93CF93DF938091E602F1
:100CD00081508093E602811169C0789403EE12E09E
:100CE000D0E0C0E0BB24B394E0913503F09136032B
:100CF000EC0FFD1F23812F3F09F451C0F801D08074
:100D0000ED2CF12C30E0F901E152FD4F8491F90115
:100D1000E350FD4FC490F901EF5EFC4FA490AA2070
:100D200009F44FC081110E949103EA2DF0E0EE0F0B
:100D3000FF1FED59FD4FA591B491EC91CE2231E00A
:100D400020E009F430E0832F922FE816F90639F1FC
:100D5000DB24F801D082DD2011F1CE01880F991F2C
:100D6000880F991F9C01275D3C4F7901F901808113
:100D70009181A281B381892B8A2B8B2B81F40E94D4
:100D80003806611571058105910521F461E070E077
:100D900080E090E0F70160837183828393832196E2
:100DA0000F5F1F4FC330D10509F09ECFDF91CF9168
:100DB0001F910F91FF90EF90DF90CF90BF90AF9079
:100DC000089590E080E0C1CFCF93DF93EC010E94C3
:100DD000E8058091680390916903A0916A03B0913E
:100DE0006B03892B8A2B8B2B31F587E994E066E620
:100DF00073E00E94990410926703109266031092A8
:100E000068031092690310926A0310926B03D093E7
:100E10006D03C0936C03E0919704F0919804A7E9E7
:100E2000B4E0309759F486E693E08D939C93DF917C
:100E3000CF910C945C0685E994E0D9CFDF01019055
:100E4000F081E02DEECFCF92DF92EF92FF920F93E1
:100E50001F93CF93DF93EC016A017B018901C114D9
:100E6000D104E104F10421F4C12CD12C7601C39406
:100E70000E94E8058A819B81AC81BD81892B8A2BE8
:100E80008B2B89F587E994E0BE010E9499041982B1
:100E90001882CA82DB82EC82FD821F830E83E0917E
:100EA0009504F091960425E934E0309779F0828139
:100EB0009381A481B5818C199D09AE09BF091816CB
:100EC00019061A061B0694F4F983E883F901D18305
:100ED000C083DF91CF911F910F91FF90EF90DF9032
:100EE000CF900C945C0685E994E0CECF9F010190F1
:100EF000F081E02DDACFCF92DF92EF92FF926B017B
:100F00007C010E943806A7019601261B370B480B6F
:100F1000590BDA01C901B7FF0CC066277727CB014F
:100F2000621B730B840B950BFF90EF90DF90CF90BB
:100F30000895833332E09307A105B1058CF068E092
:100F400070E080E090E00E943E040E943806A70115
:100F50009601261B370B480B590BDA01C901E9CF63
:100F6000181619061A061B0664F424E0880F991F48
:100F70002A95E1F7880F991F880F991F0597019708
:100F8000F1F760E070E0CB01CFCFCF92DF92EF922C
:100F9000FF92A0911B03B0911C03682F6170ED912B
:100FA000FC9111970190F081E02DCD0109956B0125
:100FB0007C01C114D104E104F10461F00E943806FF
:100FC0006C0D7D1D8E1D9F1DFF90EF90DF90CF90CB
:100FD0000C947B07FF90EF90DF90CF900895982FAF
:100FE000E0913503F091360381818F3F39F061E064
:100FF0002681291301C060E00C94BA03089581E0B2
:10100000089580E00895089560E070E0CB010895B0
:10101000E7E4F3E0848195819483968195839781B9
:101020009683878380859285908782878185938543
:1010300091878387878596859787958596879485F9
:10104000958784870895CF9327E433E0BC01605FE0
:101050007F4FDC01F90140E0CD9150815C27508346
:101060004F5F34964430C1F72F5F3F4F0496861789
:10107000970779F7CF910895FC0101900020E9F7D7
:101080003197AF01481B590BBC0189E994E00C94DE
:101090006902CF93DF930E945603EC0184E791E04D
:1010A0000E943C088C0F9D1FDF91CF9108958F9275
:1010B0009F92AF92BF920F931F93CF93DF93CDB7C1
:1010C000DEB7A1970FB6F894DEBF0FBECDBF19A251
:1010D000423008F44AE08E010F5D1F4F842E912CA0
:1010E000B12CA12CA50194010E94C529E62FB901BC
:1010F000CA01EA30F4F4E05DD801EE938D01232BB0
:10110000242B252B79F790E080E0109719F0CD0182
:101110000E943C08A1960FB6F894DEBF0FBECDBF6B
:10112000DF91CF911F910F91BF90AF909F908F90C3
:101130000895E95CE1CF0F931F93CF93DF9300D025
:1011400000D0CDB7DEB7DB011C969C911C971E9694
:101150003C911E971F962C911F971D964C911D97A1
:1011600049833A832B839C83BE016B5F7F4F9E0133
:101170002F5F3F4FF90111919F01412F42954F7011
:10118000F0E14F9FA0011124E12FEF70E40FF52F44
:10119000F11DE45AFC4F9491A90141505109FA0103
:1011A00090832617370731F791E05BE1813039F002
:1011B000492F440F97FD45278150942FF7CF898100
:1011C000982799838D0194E0FE013196A801DA01F8
:1011D0008D91AD0161918627BD0161507109DB01DF
:1011E0008C93BF0161507109DB018C93E217F30707
:1011F00071F791500C5F1F4F9111E6CF0F900F9038
:101200000F900F90DF91CF911F910F9108953F9212
:101210004F925F926F927F928F929F92AF92BF9206
:10122000CF92DF92EF92FF920F931F93CF93DF93B2
:10123000CDB7DEB768970FB6F894DEBF0FBECDBF4F
:101240008C0127E4C22E23E0D22EAC01405F5F4F19
:10125000C6017801FC01D70120E03D9130832F5F6A
:1012600034962430D1F724E0E20EF11C01964E159D
:101270005F0581F7A7E3B3E0FE01319687E493E0D1
:101280005E2E6F2E2D9121938A179B07D9F7852DFE
:10129000962D0E942308442443948BE4A82E83E0D7
:1012A000B82E4E0139E1830E911C9BE1392E87E463
:1012B00093E024E0DC01712CEC914E2F42954F70AD
:1012C00030E1439FA0011124EF70E40FF52FF11DD1
:1012D000E45AFC4FE491EC937394149654E0751225
:1012E000EBCF215001962111E5CF0E940808E7E4D9
:1012F000F3E0CE014596BE016F5E7F4F9F01D9019D
:101300005C91DC015D93CD01452F440F57FD83C0F7
:10131000DB014C932C5F3F4F6F5F7F4F8816990620
:1013200071F78E89398938272F89688D9A89922794
:101330009627432F492741934D895B899427952709
:1013400093839C8986278427852789278783242759
:10135000292732273387AE16BF0659F6652D762D1D
:10136000842D0E949B08852D962D0E94230843946E
:10137000BAE04B129CCF87E493E0DC0140E0EC91B3
:101380002E2F22952F7050E1259F90011124EF7090
:10139000E20FF32FF11DE45AFC4FE491EC934F5F01
:1013A0001496443061F77A9401967110E6CF0E944A
:1013B0000808652D762D8AE00E949B08852D962DC4
:1013C0000E942308D801F60180E090819D938F5FF1
:1013D00034968430D1F78FEFC81AD80A0C5F1F4FAC
:1013E000E016F10679F768960FB6F894DEBF0FBEE7
:1013F000CDBFDF91CF911F910F91FF90EF90DF90C4
:10140000CF90BF90AF909F908F907F906F905F90A4
:101410004F903F90089543257BCFE091CB03A0915F
:10142000CF03A770B0E020E43DE043E050E00E942D
:10143000292A60527F458C4C914E609386037093AD
:101440008703809388039093890380914A04E53051
:1014500090F4E81BE63008F0E5E0E093CB03F0E021
:10146000E553FD4FE491F0E0EF77E068F093BF03C0
:10147000E093BE030895E5E0ECCF4F925F926F9248
:101480007F928F929F92AF92BF92CF92DF92EF9214
:10149000FF920F93CF93DF9300D000D000D0CDB751
:1014A000DEB76B017C015E834D83277084E0289F4B
:1014B000F0011124E158FD4F85919591A591B491CA
:1014C00089839A83AB83BC8340907A0350907B03DB
:1014D00060907C0370907D0360916303709164035E
:1014E0006115710531F0673091E0790710F066E021
:1014F00071E090E080E0A70196010E94342A00E1AB
:101500000E941D2B49015A0129813A814B815C813E
:10151000220F331F441F551FC501B401660F771FEB
:10152000881F991F620F731F841F951F64587F4F78
:101530008F4F9F4F0E94E7292A5F3F4F43E85FEF9D
:101540006FEF7FEF481959096A097B092115A4E05B
:101550003A07B8F18FEF93E09093CA038093C903E1
:10156000C40ED51EE61EF71E4C0C5D1C6E1C7F1CA7
:1015700040927E0350927F036092800370928103B9
:10158000B301A20141575240610971092D813E8189
:1015900086E693E026960FB6F894DEBF0FBECDBF69
:1015A000DF91CF910F91FF90EF90DF90CF90BF90A0
:1015B000AF909F908F907F906F905F904F900C9422
:1015C00023073093CA032093C903CACFCF92DF9277
:1015D000EF92FF922091440430E0A4E2B4EF0E9425
:1015E000132A6B017C010E940D0A2091CB0343E575
:1015F00055E2C701B601FF90EF90DF90CF900C94B9
:101600003D0A0E940D0A2091CB0347E555E264EBA9
:1016100074EC84E090E00C943D0AE82FF0E0E6538F
:10162000FD4FE491EF3F09F0815008958F929F9212
:10163000AF92BF92DF92EF92FF920F931F93CF93DF
:10164000DF93D82EEB018A01E22EE0913503F09171
:101650003603F08080849184A284B3848114910441
:10166000A104B10439F420E4822E22E4922E2FE06A
:10167000A22EB12C40E052E16AE770E080E08416CF
:101680009506A606B70640F4769567955795479553
:101690008F5F8630A1F787E0982F906A96958095A6
:1016A00081709CBD8DBD60E08F2D0E94BA03DEBCB1
:1016B00000000DB407FEFDCF8EB50C0F1D1FC01727
:1016C000D10771F080E0E11001C088818EBD00007B
:1016D0000DB407FEFDCF8EB5E11088832196EFCFC4
:1016E00061E08F2DDF91CF911F910F91FF90EF90CF
:1016F000DF90BF90AF909F908F900C94BA03CF93E0
:10170000DF931F92CDB7DEB721E041E050E0BE018C
:101710006F5F7F4F0E94160B89810F90DF91CF91F1
:101720000895CF93DF931F92CDB7DEB7698320E092
:1017300041E050E0BE016F5F7F4F80680E94160B52
:101740000F90DF91CF910895CF93C82F62E082E090
:101750000E94910B60E883E00E94910B61E084E0BD
:101760000E94910B69E985E00E94910B62E187E29A
:101770000E94910B60EDC11168ED80E30E94910B16
:1017800060E481E30E94910B61EC88E20E94910B7E
:1017900064E989E20E94910B61EC8AE2CF910C949A
:1017A000910B0F931F93CF93DF93C091CD03C4315F
:1017B0000CF040C0CE30CCF1C2310CF0C1E161E0A0
:1017C00080911B0390911C03009186031091870365
:1017D0002091880330918903DC01ED91FC91008414
:1017E000F185E02D4C2F0995813059F18230E1F1DE
:1017F000CF301CF5CC301CF1C067D7E014E06C2F63
:1018000089E00E94910B8DE40E947F0B887F682FF6
:10181000612B8DE40E94910B6D2F60628BE0DF9154
:10182000CF911F910F910C94910BCC3F0CF4CCEF06
:1018300060E0C6CF62E0C4E1C3CFCEE0DDCFCC5FD5
:10184000DCCF8091BE03877011F4CB305CF0C230E6
:101850002CF4C2E0C250C068DBE0D0CFC231D4F378
:10186000C1E1F8CFCBE0F6CFD0E117E0CFE8C7CFAA
:10187000AF92BF92CF92DF92EF92FF920F931F939E
:10188000CF93DF938091860390918703A091880383
:10189000B09189039C01AD0160E070E080E090E0D0
:1018A00003E10E94042BA12CE8E4BE2EF8EECF2E1B
:1018B000DD24D394E12CF12C00E010E00E94702A8A
:1018C000C22FB32E6A017B01182FD92F00E10E948D
:1018D0001F2B622F86E00E94910B2C2F3B2DA6011F
:1018E000B701812F9D2F08E00E941F2B622F87E0F8
:1018F0000E94910B6C2F88E0DF91CF911F910F9187
:10190000FF90EF90DF90CF90BF90AF900C94910B31
:101910001F93CF93DF936091BE037091BF03162F87
:101920001770CB0133E0969587953A95E1F7D82F5C
:10193000D370D13059F008F466C0D23009F465C0D4
:1019400066EC71E087E791E00E94EF05C0E8CB010B
:1019500025E0969587952A95E1F78370823009F402
:1019600058C0833009F457C0813009F450C0C260B8
:10197000672F77276115710521F0C16082E20E940F
:10198000910B6C2F8DE10E94910B6091CA036370E3
:1019900060598FEF810F8295807F680F8091BE0321
:1019A00087FF64608EE10E94910B8BEF810F823084
:1019B00010F4DD2391F1163011F4D13071F164E0AF
:1019C00086E20E94910BC0E063E0D23081F4809106
:1019D000860390918703A0918803B0918903CFE794
:1019E00081349D4DAA44BF4108F0C4E662E086E31D
:1019F0000E94910BCC2399F06C2F8AE3DF91CF9159
:101A00001F910C94910BC0E7A2CFC0E9A0CFC46096
:101A1000AFCFC660ADCFC860ABCF6CE0D1CFDF91A8
:101A2000CF911F910895CF93DF93D82FC82FC77000
:101A300019F081E00E94C5076D2F81E00E94910B93
:101A4000C11105C080E0DF91CF910C94C507DF91F3
:101A5000CF9108958091860390918703A091880388
:101A6000B091890381349D4DAA44BF4118F488E0A8
:101A70000C94130D80E0FCCF809186039091870336
:101A8000A0918803B091890381349D4DAA44BF4140
:101A900018F488E80C94130D80E8FCCFCF93C82F7E
:101AA00081E00E947F0B887F8C2BCF910C94130DCB
:101AB000CF92DF92EF92FF92CF93DF93D82F0E94C5
:101AC0003C0D81E00E947F0B87FD06C06BE973E04F
:101AD00087E791E00E94EF0581E00E944E0DD23031
:101AE00009F07CC06AE08DE10E94910B60E78EE115
:101AF0000E94910B63E28CE00E94910B60E483E210
:101B00000E94910B80919304882309F46CC083E3B5
:101B10000E947F0B682F6F7B83E30E94910B809163
:101B2000BE039091BF0323E0969587952A95E1F730
:101B3000C82FC37081E30E947F0B8877682F636092
:101B4000C23008F056C081E30E94910B60E48FE23E
:101B50000E94910B60E480E30E94910B6091C903A5
:101B60008FE10E94910B64E389E30E94910B6CE08A
:101B700080E40E94910B6FEF82E10E94910BED2FA8
:101B8000F0E0EE52FD4F6491609581E10E94910B6F
:101B900080E00E94EF0760E08DE00E94910B60E022
:101BA0008FE00E94910BD11128C060917E0370914B
:101BB0007F0380918003909181030E947B076B01DA
:101BC0007C0186E00E944E0DC701B601DF91CF91E6
:101BD000FF90EF90DF90CF900C9470040E94880CDF
:101BE0000E94380C87CF83E30E947F0B682F6064CC
:101BF00093CF682F636881E3AFCF85E0DF91CF910A
:101C0000FF90EF90DF90CF900C944E0DCF92DF922B
:101C1000EF92FF92CF93C82F81E00E947F0B8770D5
:101C200069E274E0C1F48091BE03877009F060C07E
:101C3000C13041F41092520480916C0390916D0375
:101C40000E94E4060E942A0D81E00E947F0B87FF1C
:101C500006C062E074E087E791E00E94EF0581E052
:101C60000E944E0D0E94380C63E28CE00E94910BA2
:101C70006EE18DE00E94910B6BE082E10E94910B7E
:101C800062E183E10E94910B6AEA8FE10E94910B6D
:101C90006FEF81E20E94910B81E00E94A40B68E348
:101CA00080E40E94910B80E00E94EF07C11118C0F0
:101CB00060917E0370917F038091800390918103F6
:101CC0000E947B076B017C0185E00E944E0DC701DD
:101CD000B601CF91FF90EF90DF90CF900C947004FD
:101CE00085E0CF91FF90EF90DF90CF900C944E0D58
:101CF0008C2FCF91FF90EF90DF90CF900C94580DE8
:101D00008FEF9FEF9093A3038093A2039093A5037B
:101D10008093A4039093A7038093A6039093A903B1
:101D20008093A8038FEF90E09093AB038093AA0376
:101D3000EEEAF3E08CE0DF011D928A95E9F780E698
:101D400090E09093BB038093BA038FEF8093CF030F
:101D500008956F927F928F929F92AF92BF92CF928F
:101D6000DF92EF92FF920F931F93CF93DF93CDB744
:101D7000DEB760970FB6F894DEBF0FBECDBF7B0114
:101D80008A01282F30E0277F2230310549F02430A6
:101D9000310509F4CBC0232B09F09FC0D12C98C08A
:101DA00083FD32C087EE92E00E94070990E1692E20
:101DB000FE0131966F0127EF822E22E0922E37E846
:101DC000732E0115110509F060C06091E702709152
:101DD000E8028091E9029091EA020E940C2A609642
:101DE0000FB6F894DEBF0FBECDBFDF91CF911F912C
:101DF0000F91FF90EF90DF90CF90BF90AF909F90AA
:101E00008F907F906F900895E7EEF2E080E1DF0120
:101E10001D928A95E9F7CACF01151105E9F5E62F5C
:101E2000F0E0E951FD4F80818058808311E0D601B8
:101E3000E62D1D92EA95E9F7C6010E94070909817E
:101E4000C6010E94590207FF03C088898725888B35
:101E5000112349F01981C6010E94590217FF03C0DE
:101E600088898725888BF601D5018D915D01919137
:101E7000119789278C938A149B04B1F710E000E036
:101E800087EE92E00E9407099CCF87EEA82E82E0A1
:101E9000B82ED701950160E0F90181919F019D91D4
:101EA000AF01415051098927FA0180836F5F7D019D
:101EB00001501109603109F0AFCF0115110501F78B
:101EC00010E0B5CF8E0D9F1D0E940709B0E1DB0E1B
:101ED0008D2D90E080179107A8F360E070E0CB01B2
:101EE0007ECF80E1E7EEF2E0DE01119601900D92E7
:101EF0008A95E1F7CE0101960E940709FE0131960D
:101F00009701205F3F4F9191D7018C9189278D9345
:101F10007D0101501109A217B30719F00115110530
:101F200091F78091F6028F5F8093F60201151105FB
:101F3000C1F6D3CF9091FC02911106C06CE874E019
:101F400087E791E00E94EF05903141F440E150E0D5
:101F50006CEF72E080E00E94A90E90E0E92FF0E0C3
:101F6000E450FD4F80819F5F9093FC020895DF92C3
:101F7000EF92FF920F931F93CF93DF936FE270E086
:101F8000009729F08136910530F061E370E08AEA2C
:101F900091E00E94EF05C091CF03D0E0CF3F11F454
:101FA000CFEFDFEFE2EAF3E02EEA33E0DF01329633
:101FB0001C968D919C911D974D915C918423952346
:101FC000938782872E173F0789F766E070E08EEAD5
:101FD00093E00E9412057C01892B09F08FC08CE0F0
:101FE000E2EAF3E0AEEAB3E001900D928A95E1F700
:101FF00066E070E08EEA93E00E9412057C01009793
:1020000009F4DDC0419708F479C010E000E0CF3F4B
:10201000DC0751F1C136D1050CF070C09E012F7064
:10202000332781E090E002C0880F991F2A95E2F7DC
:10203000FE0144E0F595E7954A95E1F7EE0FFF1FA5
:10204000E255FC4F208131818C01022313238095BE
:10205000909582239323918380830115110509F4C0
:102060004FC070E1E71AF1080E949A0FD82E0E9423
:102070009A0F9D2DB70124E0769567952A95E1F793
:102080000E949D2934E0880F991F3A95E1F7EEEA06
:10209000F3E070E060E0219131912115310559F1B3
:1020A000A9015695479545755575D901A41BB50BE2
:1020B000AD0143735373B695A795B695A795A373D2
:1020C000B3734A0F5B1FDA01A07FB07F4F705F7060
:1020D00042955295507F5427407F54274A0F5B1FEB
:1020E000DA01BB27452F55274A0F5B1F8417950739
:1020F00080F0841B950B605F7F4FCDCF10E000E038
:10210000CFEFDFEFB1CFA90141505109242335238F
:1021100040970097C1F744275527421B530B422392
:102120005323CA018575957521E030E0892B11F0A4
:1021300030E020E0CA0183739373892B09F447C010
:1021400090E080E0820F931F9A012F703F70232B45
:1021500009F440C030E020E0820F931F30E020E01F
:10216000411102C028E030E0820F931F860F971FB5
:10217000FC0144E0F695E7954A95E1F7EE0FFF1F65
:10218000E255FC4FAC014F70552721E030E0B9011A
:1021900002C0660F771F4A95E2F7AB0120813181BB
:1021A0002627352731832083CF3FDC07B1F497FD05
:1021B00006C0803491050CF4885F8093CF03DF91D3
:1021C000CF911F910F91FF90EF90DF90089582E0E3
:1021D00090E0B8CF24E030E0BFCF24E0D595C7959C
:1021E0002A95E1F7CC0FDD1FC255DC4F28813981DC
:1021F000022B132B19830883DACF809192039091DD
:102200009303A0919403B0919503892B8A2B8B2B78
:1022100009F04BC08091C0039091C1031092D0038C
:102220008E7C977A9093C1038093C00310924F04E1
:102230001092D6030E94A2058FEF8093CF03809166
:10224000BA039091BB030E94B70F0E9438066093B7
:102250007A0370937B0380937C0390937D0380913A
:10226000C0039091C10393FF06C064ED70E08AEA59
:1022700091E00E94EF051092D403E0914904EF3FF2
:1022800091F0EF70F0E0E654FD4FE491E093D3035A
:1022900084609093C1038093C00384E293E20E9420
:1022A000E40681E00895E3E1F1CF80E00895CF9264
:1022B000DF92EF92FF92CF93C82F0E949A0FF82ED1
:1022C0000E949A0F9F2D6C01853224EF920720F017
:1022D00024E2C21A24EFD20AF12CE12CCC2369F0BB
:1022E0006C2F0E949129292F30E0A4E2B4EF0E94C4
:1022F000132AC60ED71EE81EF91EC701B601CF91DC
:10230000FF90EF90DF90CF900895CF92DF92EF9201
:10231000FF926B017C01842F442331F00E945711FE
:10232000C60ED71EE81EF91E8091D0038823A9F09F
:1023300080918A0390918B03A0918C03B0918D03BF
:10234000A7019601281B390B4A0B5B0BDA01C90167
:10235000181619061A061B068CF4C0928A03D0922E
:102360008B03E0928C03F0928D038091C0039091D7
:10237000C10391609093C1038093C003FF90EF90DD
:10238000DF90CF900895AF92BF92CF92DF92EF92FD
:102390000F931F93CF93DF93DC011A141B04A4F552
:1023A00090E1E7EEF2E0EF01892F19928A95E9F7C3
:1023B000F1E0F093F602F093E702E092EC02409332
:1023C000ED025093EE026093EF027093F0020093DF
:1023D000F1021093F2022093F3023093F402FD0114
:1023E000A7E3B3E001900D929A95E1F7A501B6013C
:1023F00084E0DF91CF911F910F91EF90DF90CF900C
:10240000BF90AF900C94A90EDF91CF911F910F91C7
:10241000EF90DF90CF90BF90AF9008951F93CF9330
:10242000DF93CDB7DEB72F970FB6F894DEBF0FBEA0
:10243000CDBF80E00E944E0D0E94E80580916803A8
:1024400090916903A0916A03B0916B03892B8A2B49
:102450008B2B09F047C087E994E066E673E00E94A1
:1024600099040E945C068FE0E7E5F3E0DE01119637
:1024700001900D928A95E1F7E7E5F3E08EE391E0B4
:10248000DF019C011D9221503040E1F78FE0FE01F9
:102490003196A7E5B3E001900D928A95E1F70E948D
:1024A0009A0F182F0E949A0F912F9093C303809335
:1024B000C2031092C1031092C0031092D50380E8AA
:1024C000809347040E94A20581E0809344042F96E4
:1024D0000FB6F894DEBF0FBECDBFDF91CF911F9135
:1024E0000C94800E85E994E0B8CF2F923F924F92E2
:1024F0005F926F927F928F929F92AF92BF92CF9294
:10250000DF92EF92FF920F931F93CF93DF93CDB79C
:10251000DEB76C970FB6F894DEBF0FBECDBF998FB4
:10252000888F3B0110921004452B09F5109211047D
:10253000F12CE12CE614F704F4F0C7016C960FB609
:10254000F894DEBF0FBECDBFDF91CF911F910F91E9
:10255000FF90EF90DF90CF90BF90AF909F908F90C3
:102560007F906F905F904F903F902F90089581E003
:1025700080931104DDCFC88CD98CCE0CDF1CF60102
:102580002081223050F1422F4250550BFA01423146
:10259000510518F5E359FD4FE4918E2F90E09D8B86
:1025A0008C8B892B51F2C3018E199F09EC89FD890F
:1025B0008E179F070CF4C1CF2250283080F4E22FF1
:1025C000F0E0EB51FD4E0C94062AF012F812BB1409
:1025D00044141814EF12AD14CC14E0E0DECF370130
:1025E000EC89FD89EE0DFF1D730137017F01A2CF3C
:1025F000D60107E01B8A1A8A2A893B892B5F3F4F45
:1026000049019C014A895B89241B350B2530310522
:102610000CF493C011962C91119712964D915C91E8
:10262000139714963C9114973077E22FE295EF7050
:10263000303558F0303509F078C04115510509F4AE
:102640007AC04427452B09F076C0E63030F4F0E03C
:10265000E553FD4FE491EF3F09F40D7F2F702830D3
:1026600038F4E22FF0E0E455FD4FE491E03809F44E
:102670000B7F15962C91233009F454C08CE0E2EACC
:10268000F3E0DE01119601900D928A95E1F78091B9
:10269000BA039091BB039B8F8A8F412C10E00730C7
:1026A00009F077C09F8A8E8A160181E0412C10E0E4
:1026B000EE89FF8935970CF469C0F101A280B380DF
:1026C00011814480F42DF077F98BF035D9F5512C38
:1026D000852DA0FE34C00E9419065394B694A79489
:1026E00028E05212F5CF2091BA033091BB034E89F6
:1026F0005F89455051095F8B4E8B55E0250E311C8B
:1027000081E02115310509F480E0A1014C195D0932
:10271000481559056CF2232BD9F1A12EA2948FE014
:10272000A8223DC09B8A8A8A67CF303609F489CFB8
:10273000303709F482CF0E7F88CF00E09FCF0E9410
:10274000F205CBCF8989803578F4805F8C8F5988EA
:10275000FC8D5F1640F6852DA0FE15C00E94B004CA
:102760005394B694A794F4CF512C9989852D903623
:1027700039F40E94B0045394E0E65E12F6CFE8CF3D
:102780000E94E004F8CF0E94E004EACF811101C06A
:1027900006E0A12EA2947FE0A722073041F48091A9
:1027A000BA039091BB0307E0079780F405E08CE043
:1027B000FE013196A2EAB3E001900D928A95E1F70D
:1027C0002A8D3B8D3093BB032093BA03BB24B39473
:1027D000D12CC12CC4018C199D0905976CF0602F78
:1027E00083E00E948C05B82E35E0C30ED11CC814BE
:1027F000D90414F48111EECF073099F4842D8F7031
:102800009091D20389138093D2031F7060E818302F
:1028100028F4E12FF0E0E455FD4F64918A2D0E94E9
:1028200044054A895B89E40EF51EBB2001F1D8CE30
:102830002091C803022E000C330BC901029697FDAC
:1028400003969595879595958795182F1F734F97A4
:102850000CF01FE110934604D09065030091100422
:1028600086E00E946D05811104C000931004F701F9
:10287000BCCE8D2D0E946D058823B9F3812F0E9457
:102880006D05882391F3ACCEC7010196E88DF98DD3
:102890008E0F9F1FFC012081122F1F7030E044E03B
:1028A000359527954A95E1F7022F07700E94DA05C2
:1028B000272F382F492F5527A4E6B0E00E94292A58
:1028C0004B015C01F0E88F1AF1EA9F0AF3E0AF0ACE
:1028D000FCE1BF0A21E082162AE5920622E6A20662
:1028E00022E0B20618F060E070E0CB0130EC3093EB
:1028F0004C04163050F4E12FF0E0E553FD4FE49125
:10290000EF3F19F042EC40934C04611571058105CD
:10291000910529F020914C04216020934C0404304F
:1029200028F420914C04246020934C0420914C0402
:10293000273C61F410934B0460939E0370939F03B4
:102940008093A0039093A10300934A04622F6770C1
:1029500085E00E948C05B82E68CFF60181818F70CA
:1029600009F481E080934404F2E0F0934E0488E09F
:102970000E946D05F0CFF60181818F708093D003A6
:102980000E94380660938A0370938B0380938C03B4
:1029900090938D0384E0ECCFF60181818F73809357
:1029A000490489E0E5CF8A3110F48F5B089596EEF3
:1029B000980F9A3110F4895B08959CEC980F9A3027
:1029C00010F4845008958E3331F08F3331F081E06C
:1029D00090E00E94EE2D8BE208958FE208952F92F1
:1029E0003F924F925F926F927F928F929F92AF929F
:1029F000BF92CF92DF92EF92FF920F931F93CF93EC
:102A0000DF93CDB7DEB7C250D2400FB6F894DEBF29
:102A10000FBECDBF8C010E9438066B017C014AE0DD
:102A2000F7FE0DC06DE289E994E00E940903662774
:102A30007727CB016C197D098E099F094AE00E9416
:102A4000570882E792E00E943C08F8013197E43190
:102A5000F10508F0A7C2E15DFA4E0C94062A431571
:102A600048154B154E1551155415D21757155A15B3
:102A70005D15CD15D015D315D615D915D217DC1582
:102A8000CC17B315CF178CE292E00E9449086BC0B7
:102A90008CE192E0FACF8BE092E0F7CF89EF91E002
:102AA000F4CF8EEE91E0F1CF84EE91E0EECF85EDA4
:102AB00091E0EBCF84EC91E0E8CF84E991E00E94D3
:102AC00049088091500487FF04C087E891E00E9484
:102AD0004908809152048823C1F18DE791E00E945A
:102AE00056036091520470E090E080E04AE00E945A
:102AF000570889E691E00E9456038DE391E00E9419
:102B0000560310E000E08091520480171106A9F0EE
:102B1000A4F0E0915104C801895A9C4FE80FF92FA5
:102B2000F11DE450FF4F608170E090E080E040E1F3
:102B30000E9457080F5F1F4FE6CF85E791E00E9484
:102B40003C0884E791E00E943C080E943806AB01F3
:102B5000BC0148595647664F7F4F2AE93FE18DE156
:102B600093E00E942307CE5FDD4F0FB6F894DEBFDF
:102B70000FBECDBFDF91CF911F910F91FF90EF90CE
:102B8000DF90CF90BF90AF909F908F907F906F908D
:102B90005F904F903F902F9008958FE291E075CF16
:102BA00086E291E072CF88E191E06FCF8BE091E017
:102BB0006CCF8DEF90E069CF82EF90E00E944908E2
:102BC00090905204992079F2C090BE03D090BF0338
:102BD0000C2D07700A5F960143E0369527954A95BC
:102BE000E1F72370C60155E0969587955A95E1F770
:102BF00083707090D303E0909A03F0909B0391E070
:102C0000E91AF10815E0882339F016E0813021F047
:102C100018E0823009F417E0222349F034EFB32E94
:102C2000AA24A394213031F49AEFB92E02C02DE7E3
:102C3000B22EA12CC09086038090870360908803F9
:102C4000509089030E9438061F92DF92FF92EF9204
:102C50001F921F93AF92BF921F927F921F920F936A
:102C60001F929F925F926F928F92CF929F938F93BA
:102C70007F936F9384EE91E09F938F930E94532BE9
:102C80001091D2030E9438061F921F939F938F9337
:102C90007F936F9381E392E09F938F930E94532BD6
:102CA0000FB6F894DEBF0FBECDBF8CEE90E00E9451
:102CB00056036091DB0370E090E080E04AE00E9400
:102CC000570888EA90E00E94560310E000E08AE48A
:102CD000E82E82E0F82E8091DB0380171106C9F000
:102CE000C4F0E0915104C801895A9C4FE80FF92FB4
:102CF000F11DEB57FF4F80811F928F93FF92EF9250
:102D00000E94532B0F5F1F4F0F900F900F900F904B
:102D1000E2CF84E791E00E943C080091520410E069
:102D20000115110509F51982C801837099278230B0
:102D3000910509F409C1039709F41CC18E010F5FC5
:102D40001E4FBE016F5F7F4FC8010E944C2B1F9327
:102D50000F938FE492E09F938F930E94532B0F90D9
:102D60000F900F900F90FFCEC80163E070E00E94BB
:102D7000B1294B01B2E0CB2ED12C8130910539F035
:102D8000A3E0CA2ED12C029711F0D12CC12C7401D2
:102D9000EE0CFF1CEE0CFF1C87010C0D1D1D0535F4
:102DA000F1E01F075CF684E594E0CF5FDD4F998387
:102DB0008883C150D240FE0131965F01312C212C15
:102DC0008214930409F454C0CF5FDD4FE881F98188
:102DD000C150D2404080512C542C4424052C000C6E
:102DE000660877088181482AD301C20162E1B6955D
:102DF000A795979587956A95D1F78F730E94D314FD
:102E0000F5018083D301C2017CE0B695A795979523
:102E100087957A95D1F78F730E94D314F50181833A
:102E2000D301C201E6E0B695A79597958795EA95F7
:102E3000D1F78F730E94D314F5018283842D8F7391
:102E40000E94D314F5018383FFEF2F1A3F0ACF5F4F
:102E5000DD4F88819981C150D2400396CF5FDD4F0D
:102E600099838883C150D24094E0A90EB11CA8CFA9
:102E7000C114D10441F4E1E0F0E0EC0FFD1FE00FDC
:102E8000F11F108251CFE2E0CE16D10489F4E1E0C7
:102E9000F0E0EC0FFD1FEE0DFF1D81E48083FE01CD
:102EA000EE0DFF1D8283FE01EE0DFF1D13823CCF50
:102EB000F3E0CF16D10409F037CFF401EE0FFF1F76
:102EC000E80DF91DEC5AFB4F8080912C982C88243A
:102ED000092C000CAA08BB08D501C40122E1B69553
:102EE000A795979587952A95D1F78F730E94D3144C
:102EF000E1E0F0E0EC0FFD1FEE0DFF1D8083D5013A
:102F0000C4013CE0B695A795979587953A95D1F77A
:102F10008F730E94D314FE01EE0DFF1D8283D50135
:102F2000C40146E0B695A795979587954A95D1F740
:102F30008F730E94D314FE01EE0DFF1D8383FE01EB
:102F4000EE0DFF1D1482F0CE033581E018070CF062
:102F5000F5CEE1E0F0E0EC0FFD1FE00FF11F8DE397
:102F60008083FE01E00FF11F8283FE01E00FF11F5D
:102F70001382E4CE043591E0190709F4DFCEE1E0D5
:102F8000F0E0EC0FFD1FE00FF11F8DE38083FE01E9
:102F9000E00FF11F1282D2CE8AE990E076CD88E769
:102FA00090E073CD88E690E00E945603B80190E06F
:102FB00080E04AE00E94570884E791E00E943C08C4
:102FC000D2CDCF92DF92EF92FF92CF93DF93EC01BD
:102FD000C12CD12C7601C3940C2E04C0CC0CDD1C6A
:102FE000EE1CFF1C0A94D2F7E3FC03C0CE010E9442
:102FF000EF14D701C60188279472AA27BB27892B13
:103000008A2B8B2B01F1E0915B03F0915C033097ED
:10301000D1F02091520440915104211102C0442367
:1030200091F08091500450E060E084FF04C0DA0128
:10303000AE5ABB4F6C9130E04D5A5B4F80915D03AF
:1030400090915E030995CC2484E0D822E822FF24E5
:10305000CD28CE28CF2819F1E0915F03F0916003CD
:103060003097E9F01092600310925F03C231D105EE
:1030700041F18091500483FD24C09091DA0361E016
:10308000992339F0082E000C990B692F661F6627CB
:10309000661F70E080916103909162030995E09151
:1030A0005703F0915803309771F0BE018091590396
:1030B00090915A03DF91CF91FF90EF90DF90CF90E6
:1030C000099460E0E6CFDF91CF91FF90EF90DF9021
:1030D000CF9008952F923F924F925F926F927F927E
:1030E0009F92AF92BF92CF92DF92EF92FF920F9397
:1030F0001F93CF93DF93CDB7DEB728970FB6F89421
:10310000DEBF0FBECDBF8091C6038111BDC681E079
:103110008093C6038091C0039091C1039C01217CE0
:103120003327232B81F440919203509193036091B4
:10313000940370919503452B462B472B19F582FD7F
:103140002DC00E94FD108091C60381508093C6035C
:103150008111E0CF28960FB6F894DEBF0FBECDBF29
:10316000DF91CF911F910F91FF90EF90DF90CF9063
:10317000BF90AF909F907F906F905F904F903F90E7
:103180002F90089596FF0AC09F7B9093C103809370
:10319000C00384E89FE10E94E406D5CF0E94380670
:1031A0006B017C012091C0033091C1033A832983D4
:1031B000C9018C739927892B09F45AC633FF5AC168
:1031C0008091BA039091BB03009711F00E94B70F52
:1031D000C0927A03D0927B03E0927C03F0927D034D
:1031E0008091C0039091C103977F9093C103809316
:1031F000C003B701A6018091D003811106C0809160
:10320000C0039091C10390FF12C080918A039091F6
:103210008B03A0918C03B0918D038A019B01081B45
:10322000190B2A0B3B0B37FF02C0AC01BD0131E784
:10323000C30E32E0D31EE11CF11CDB01CA018C1964
:103240009D09AE09BF09B7FFFFC59090D4038981DE
:103250009A8184729927892B09F41AC18091C0033D
:1032600085FF09C09091D6039983E981E150E983F4
:10327000EF3F09F008C1109253049091C20380916E
:10328000C303909364048093650443E150E063E5D5
:1032900074E08AE00E94A90E609369047093680448
:1032A000809367049093660487E180935204809131
:1032B000C2039091C30301969093C3038093C2030A
:1032C00081E09BE090936D0380936C03E92DF0E027
:1032D000E553FD4FE4918091D503F0E28F9FC0014B
:1032E0001124EF798E2B9093BF038093BE039092AD
:1032F000CB038091C0039091C1038F76967F806845
:1033000098609093C1038093C003A091CF03A0362F
:1033100070F5B0E020E43DE043E050E00E94292A4F
:103320008B019C01005A1A4C274F334E00364FE94F
:10333000140740E224074CE1340708F060C4605AE7
:10334000764A8340934E60938603709387038093FD
:10335000880390938903E0914904EF3F09F4CDC4B9
:10336000EF70F0E0E654FD4FE491E093CC039091D0
:10337000D3038091CC0398170CF4892F8093CD034D
:1033800081E190E00E94E11710927A0310927B0392
:1033900010927C0310927D0381E00E947F0B877066
:1033A00059F080E00E944E0D0E943806625C7F4F0B
:1033B0008F4F9F4F0E947B07C0908203D090830362
:1033C000E0908403F09085031C141D041E041F0468
:1033D0000CF095C481E00E94580D80918603909175
:1033E0008703A0918803B091890303E61FEF81341E
:1033F0009D4DAA44BF4110F40CE51FEFE091350349
:10340000F09136038781080F111D87FD1A950E94E0
:103410003806615E7F4F8F4F9F4F0E947B070E944F
:1034200038061982C60ED71EE81EF91E8BE10E94CF
:103430007F0B9981981708F489830E9438066C19CC
:103440007D098E099F0997FDF1CF80E00E944E0D06
:103450008091CE03082E000C990BE981E00FF12F2B
:10346000F11DE817F9070CF44AC480916C039091A0
:103470006D0391CE40917A0350917B0360917C0360
:1034800070917D03B8CE892D0E940D0B982EEDCE44
:103490008091960390919703A0919803B09199031E
:1034A00080389F4FAF4FBF4F18F085EF9FE173CE2D
:1034B00080914F0481110DC080919A0390919B03DC
:1034C000A0919C03B0919D038F3F9F4FAF4FBF4F83
:1034D00061F3E090C003F090C10338E1E322FF24E0
:1034E00040E1E416F10409F4ACC1A090DB03809143
:1034F000D903882309F4A7C180911104882309F412
:10350000A2C1C0901004CC2009F49DC10C2D10E084
:10351000A80162E174E08BE594E00E94432B085F10
:103520001F4F109210041092110420914C0422237A
:1035300031F026FF8BC180E4282720934C04209192
:103540004D04222331F026FF91C180E428272093E7
:103550004D0480914E04823009F098C181E080933F
:103560004E04093111050CF029C3809143048823CE
:1035700061F08091C4039091C50397FF04C090E06F
:1035800080E00E94610510924304F0E1EF16F1041F
:1035900009F487C12A2D30E02B5F3F4F3A832983FE
:1035A000E981FA81E00FF11FFA83E983E134F10543
:1035B0000CF07CC121E0F0E1EF16F10409F420E009
:1035C000E091D403E63008F077C1F0E0EC54FD4F11
:1035D000E49189819A81E817190608F4EFC280E422
:1035E000809353048091410430914704382B80919B
:1035F000C4039091C50397FD61C18197803B9240C0
:1036000008F45CC190E488EF800F832B892B8093B2
:1036100058044091920330919303909194038091C8
:10362000950340935404309355049093560480932B
:10363000570430914F04311117C08091D703811185
:1036400013C080919A0390919B03A0919C03B09129
:103650009D030196A11DB11D80939A0390939B0336
:10366000A0939C03B0939D0380919A0390919B0338
:1036700001978093590490935A0410924104222395
:10368000E1F18091DA03882309F41AC180E880937C
:103690005304311103C081E080934F04F801ED5AC7
:1036A000FB4F8091D903808398012C5A3B4F6901CD
:1036B000B12CA5016CED73E0C9010E94432B009170
:1036C0009A0310919B0320919C0330919D0301501C
:1036D000110921093109409192035091930360919E
:1036E0009403709195038091D9038111F6C081E212
:1036F00094E0F12CE12C0E94C31109811A8104503D
:10370000110980919A0390919B03A0919C03B09121
:103710009D030197A109B109609192035091930310
:10372000409194033091950320E1E7EEF2E0722F8F
:1037300011927A95E9F779E47093E7021092EC021E
:103740000093F6026093ED025093EE024093EF0275
:103750003093F0028093F1029093F202A093F3026F
:10376000B093F402E1E2F4E0A7E3B3E001900D923C
:103770002A95E1F7A80163E574E082E00E94A90EB2
:10378000F801ED5AFB4F63837283818390838981B3
:1037900080935204EEE5F2E0FF93EF930E94532BE7
:1037A0000F900F901A82198280915204E981FA8158
:1037B0008E171F0611F00CF093C08AE090E00E9473
:1037C000692B8091520423E534E03A8329831886DB
:1037D0001F82512C412CE82FF0E0FE83ED83ED8118
:1037E000FE814E165F060CF49AC0F885FF932F8178
:1037F0002F93FF932F9385E792E09F938F930E94DF
:10380000532B20915204822F90E0895A9C4FFC0147
:10381000E450FF4F3885308383509F4F3F81FC0138
:1038200030832E5F2093520486EE9AE090936D03CE
:1038300080936C030F900F900F900F900F900F904C
:1038400045CDA12C59CE08E010E06BCEC801895AB5
:103850009C4FFC01E450FF4F35E0308383509F4F75
:103860002770FC0120830E5F1F4F69CEC801895A63
:103870009C4FFC01E450FF4F3AE0308383509F4F50
:103880002370FC0120830E5F1F4F63CE882309F451
:1038900068CEF801ED5AFB4F88E080830F5F1F4F21
:1038A00060CE84E090E09A8389837ACE98012C5F81
:1038B0003F4F3A83298383CEE0E08BCE90E0A3CEC6
:1038C0008091D203882309F4E9CE8091D703811136
:1038D000E5CE81E08093D703E1CE81E394E009CF88
:1038E000E091510489819A81895A9C4FE80FF92F00
:1038F000F11DE450FF4F80811F928F938AE492E084
:103900009F938F930E94532B29813A812F5F3F4FC2
:103910003A8329830F900F900F900F9045CFE98144
:10392000FA81B190FA83E983EF80F8848CE0F59412
:10393000E7948A95E1F72F813885632F772767FD14
:103940007A956E257F25EB2D0B2C000CFF0BE627BF
:10395000F727CF0181709927890108E01002012D16
:10396000110B11243901672C770C770865946026B8
:1039700071264B2D4595042E000C550B46255725D9
:10398000440F551F42705527842B952BD901BB0F2F
:10399000AA0BBB0FBA2FAA1F6901CD2CDD0CDD08C5
:1039A000C594C594CA26DB264B2D45954595042E16
:1039B000000C550B4C255D25440F551F440F551F1A
:1039C00044705527480F591F232E221C2224221CE5
:1039D000312CF901E0E2FE02E12DFF0B1124B3FAD4
:1039E000332730F93B831C82CF01817099278225D0
:1039F00093252B813C818227932723E0880F991FF1
:103A00002A95E1F7840F951F2B2D25952595259552
:103A10002595022E000C330B2E253F2544E0220F66
:103A2000331F4A95E1F720713327820F931F4B2DE7
:103A300045954595459545954595042E000C550BA6
:103A40009801262737272427352755E0220F331FD3
:103A50005A95E1F720723327280F391F8B2D86FBEB
:103A6000880F880B80F9082E000C990BAD014625B4
:103A700057258427952746E0880F991F4A95E1F737
:103A800080749927280F391FC601817099278225D4
:103A90009325BB1CBB24BB1C8B259695982F882790
:103AA00097958795820F931F2F8138852E273F2763
:103AB0002170332722253325322F2227280F391F43
:103AC0004F81588555954795E426F526FE2CEE2422
:103AD000FF0CEE2442E0F4222E0D3F1D8F819885CD
:103AE000959587959595879580279127982F882775
:103AF000990F990F88279470280F391FAF80B884C9
:103B000013E0B594A7941A95E1F7AA26BB26BA2C20
:103B1000AA24BB0CBB0CBB0CAA2488E0B8222A0D3B
:103B20003B1D4F81588584E0559547958A95E1F76F
:103B3000642775276170772762257325762F66279E
:103B40007295707F260F371F8F81988545E0959578
:103B500087954A95E1F786259725982F882792958E
:103B6000990F907E88279072280F391F0F81188532
:103B700066E0159507956A95E1F70C251D2510E47B
:103B8000019F102D0027112400271074200F311FD2
:103B90008F819885880F892F881F990B8E279F27E3
:103BA000822593259927869597958827820F931FBD
:103BB00098878F839FEF491A590A11CE88E0809326
:103BC00050048091DA03811104C080914F0488234E
:103BD00019F088E4809350048091C0039091C10350
:103BE00087769E7F9093C1038093C0031092520406
:103BF000109251048AE090E00E94E117A4CA0036B6
:103C0000E9E01E07E9E32E07ECE13E0728F4605ADD
:103C100070418C41934E97CB0036F3E71F07F1E5D7
:103C20002F07FCE13F0728F4605A7A478443934EFC
:103C30008ACB00364DED140749E624074CE13407E2
:103C400028F4605A744E8C44934E7DCB0036E7E4E2
:103C50001E07E2E82E07ECE13E0728F4605A7E4496
:103C60008546934E70CB0036F1EB1F07FAE92F071C
:103C7000FCE13F0728F4605A784B8D47934E63CBA5
:103C800000364BE1140743EB24074CE1340728F4DA
:103C9000605A72428649934E56CB0036E5E81E07BD
:103CA000EBEC2E07ECE13E0728F4605A7C488E4A84
:103CB000934E49CB0036FFEE1F07F3EE2F07FCE1D2
:103CC0003F0728F4605A764F864C934E3CCB003623
:103CD00049E514074CEF24074CE1340728F4605AF7
:103CE00070468F4D934E2FCB00938603109387031E
:103CF00020938803309389032ECBE3E136CB809168
:103D0000BE03877009F06AC00E942A0D81E00E94FC
:103D10004E0D80E00E94A40B60E085E20E94910BB2
:103D200065E086E20E94910B0E94380C0E94D10B44
:103D300069E28AE00E94910B64E380E40E94910BA7
:103D4000609152046F5F82E30E94910B6091520474
:103D500080E00E94910B4091520450E020E063E526
:103D600074E080E80E94160B81E00E94EF076091EA
:103D70007A0370917B0380917C0390917D036115A0
:103D800071058105910531F10E947B07611571056F
:103D900081059105F9F0009174031091750320914C
:103DA000760330917703DC01CB01800F911FA21FB6
:103DB000B31F8093740390937503A0937603B0931D
:103DC000770380917803909179030196909379031A
:103DD0008093780383E00E944E0DB5C90E943C0D8C
:103DE00081E00E947F0B87FD06C061E273E087E7F8
:103DF00091E00E94EF0581E00E944E0D0E94880C28
:103E00000E94380C68E08AE00E94910B0E94D10B5E
:103E100064E389E30E94910B6CE780E40E94910BBC
:103E20006FEF82E10E94910B67EF81E10E94910B9D
:103E300060E08EE00E94910B60E08DE00E94910BAB
:103E40006091520482E285CF8091C00381FF05C05A
:103E5000411551056105710591F0415752406109C5
:103E6000710928E93FE186E693E00E9423076BC9C8
:103E7000F98140E050E0BA01F1FDEFCF64C941E0C3
:103E800050E060E070E0E9CF82E08093C60362C951
:103E90008091C0039091C10383FF35C01092DB0372
:103EA00082FF2CC0877E9093C1038093C00382E180
:103EB00090E00E94E1178091C0039091C10385704A
:103EC0009927892B01F50E94E8058091680390915C
:103ED0006903A0916A03B0916B03892B8A2B8B2B0A
:103EE00079F487E994E066E673E00E9499040E9401
:103EF0005C0680E00E944E0D0C946A188776D3CF42
:103F000085E994E0F0CF0895E0ECF3E080819181C1
:103F10008E7D9F7B918380831092920310929303F6
:103F200010929403109295030E94481F0C94FD1068
:103F30000C946A188091C0039091C10387FF04C05C
:103F40008CE392E00C9449088C799927892BE1F451
:103F50003091D4034091BA035091BB03832F90E07A
:103F60004730510588F0863078F4FC01EC54FD4F61
:103F7000E491EE2349F0EA3190F5FC01E453FD4F62
:103F8000E4910196EF3F61F78091C0039091C103E6
:103F90009C012C793327232BF9F42DE0E0E0F1E0AC
:103FA000ACEDB3E001900D922A95E1F71092DA039F
:103FB00021E02093D9032DE02093DB039C012860AE
:103FC0003093C1032093C00382FD04C010924F04BC
:103FD0001092D7030E946A1885E592E0B3CF381794
:103FE00099F260E80E944405CFCF0E94481F0E94CA
:103FF0000E128CE090E00E94E1170C94FD10CF931C
:104000008091C0039091C10387779093C1038093FF
:10401000C0031092D70310924F0420911004222362
:1040200051F030911104332309F466C080619093FC
:10403000C1038093C0030E9438066E5E75488F4F9F
:104040009F4F40E00E94851180915004877079F065
:104050008091C0039091C10394FF09C09F7E90930B
:10406000C1038093C0038FE090E00E94E1178AE0D3
:1040700090E00E94E1170E946A188091C403909119
:10408000C5038197B4F18091D4030E940D0BC82F12
:104090002091BA033091BB038091D40327303105BE
:1040A00008F4C82F8C1332C08091C4039091C503CB
:1040B000813F92404CF08091C0039091C103906485
:1040C0009093C1038093C00363E18C2F0E94440549
:1040D0008091C0039091C1039C0130613093C10372
:1040E0002093C0032817390721F08EE090E00E944A
:1040F000E11781E0CF9108951092DA031092D9036D
:104100002093DB0310921004886091CFCC23E1F25E
:1041100090E080E00E946105D7CF80914F04882312
:10412000B1F1883020F58F5F80934F0480FF07C086
:104130008091D4030E940D0B60E80E9444056091B9
:104140007E0370917F03809180039091810343E00F
:104150000E9485118091C0039091C1038F77909345
:10416000C1038093C0030E946A1881E0089580E62D
:10417000809350048091C4039091C50301960E94DE
:10418000610510925204109251040C94FF1F80910B
:10419000D703882379F09091D203891758F48F5F61
:1041A0008093D7030E9438066E5E75488F4F9F4FED
:1041B00040E0CECF80E2DCCF2F923F924F925F92D1
:1041C0006F927F928F929F92AF92BF92CF92DF9227
:1041D000EF92FF920F931F93CF93DF9300D000D005
:1041E00000D0CDB7DEB78091C00387FFE5C1F09066
:1041F0005204F1101AC026960FB6F894DEBF0FBE17
:10420000CDBFDF91CF911F910F91FF90EF90DF9085
:10421000CF90BF90AF909F908F907F906F905F9066
:104220004F903F902F900C948D202F2D30E03E83A7
:104230002D832C30310544F41092520480915004A7
:1042400080FFD9CF80E0B9C180915304982F93703B
:1042500099F7807E8983803611F0803A69F784E58A
:1042600094E00E94DA05009192031091930320914B
:104270009403309195036017710782079307E1F665
:10428000309158043B833F70E32EC32ED12C16018E
:10429000A8E02A0E311C2D813E81245031093E8335
:1042A0002D832215330544F288248A94982C2216F3
:1042B00033064CF4F101ED5AFB4F2081822E912CF4
:1042C000D60119961D014090960350909703609077
:1042D0009803709099030091590410915A0404199D
:1042E00015090F3F100709F078C021E0421A510864
:1042F0006108710820E1E7EEF2E0DF01322F1D9244
:104300003A95E9F739E43093E70231E03093EC0273
:10431000ACEFAF0DAC83A093F6026093ED02709307
:10432000EE028093EF029093F0024092F1025092DD
:10433000F2026092F3027092F402E1E2F4E0A7E389
:10434000B3E001900D922A95E1F74D815E8163E51E
:1043500074E082E00E94A90E9B01AC01ED81FE8118
:10436000ED5AFB4F60817181828193810E940C2AFA
:10437000261737074807590709F05ECF8091960343
:1043800090919703A0919803B0919903481659060C
:104390006A067B0638F584159505A605B7050CF465
:1043A0004BCF0197A109B109481659066A067B0649
:1043B00009F042CF80914204882309F43DCFB981AE
:1043C000B03A09F039CF80E280934104811491041E
:1043D00009F40CC101E010E033C0400E511E611C15
:1043E000711C88CF0130104408F026CFD301C201E0
:1043F0000196A11DB11D8093960390939703A093FE
:104400009803B0939903398180E2303A09F080E053
:10441000809342048093410410E000E081149104F1
:1044200041F4EE2031F08D819E81281639060CF47E
:1044300003CF80914104811103C09B8194FF09C087
:104440008091C0039091C10380619093C1038093D8
:10445000C0031092D6031092430480EC9FEF0E9499
:10446000610510924C0410924E04E091BE03F0914D
:10447000BF038E2F877033E0F695E7953A95E1F705
:10448000E370F0E0A3E08A9FE00DF11D1124E956EE
:10449000FD4FE4918091C703082E000C990B8054C6
:1044A0009109ED58FF0B8E1B9F0B97FD80E08093C9
:1044B0004504A401B6018BE594E00E947512012B1E
:1044C00009F0BACEBFEF8B169B0699F12D813E8184
:1044D000221933093E832D831216130654F5C101A8
:1044E0008D5A9B4F9A8389834091920350919303F5
:1044F000609194037091950381E294E0811491049A
:1045000011F081E394E0AD80BE80C980DA80EE24B2
:10451000E394F12C930182010E94C3118114910450
:1045200041F450E040E06D817E8189819A810E9452
:10453000751290914F04992349F0AB8120E8A5FFB3
:1045400020E480915004822B809350048091500489
:10455000181419043CF18062809350042092510495
:1045600010925204992321F08091500486FD43CE8D
:1045700026960FB6F894DEBF0FBECDBFDF91CF9168
:104580001F910F91FF90EF90DF90CF90BF90AF9071
:104590009F908F907F906F905F904F903F902F9063
:1045A0000C94FF1F80618093500420925104FC8082
:1045B000F218F0925204D6CF81E026960FB6F89406
:1045C000DEBF0FBECDBFDF91CF911F910F91FF9046
:1045D000EF90DF90CF90BF90AF909F908F907F90A3
:1045E0006F905F904F903F902F900895EE2009F4C8
:1045F000F1CE01E010E017CF8091520481110EC07E
:10460000A0914404B0E0119624E234EF0E94222AE3
:1046100020914B044CE255E20C943D0A0E94DC20B0
:10462000882371F308958091520481110BC0109278
:1046300050040E943806655E78448F4F9F4F42E0D9
:104640000E9485110C94DC208091D803882341F0CE
:104650000E94800E85E090E00E94E1170C946A1899
:1046600081E08093D803F6CFCF92DF92EF92FF9252
:10467000CF93DF938091C0039091C10382FD22C04C
:1046800085FD0DC08F779093C1038093C00381E0B7
:10469000DF91CF91FF90EF90DF90CF9008958F75CD
:1046A0009093C1038093C0038091D6038A3018F49D
:1046B0008F5F8093D60389E090E00E94E1170E940B
:1046C0006A18E5CF8F779093C1038093C00384E18C
:1046D00090E00E94E1178091D1038093CF038091F5
:1046E000BA039091BB030E94B70F80914F048F5F74
:1046F00080934F04C82FC7701092D4038091C003D9
:104700009091C103977F9093C1038093C0030E944F
:1047100038066B017C012091D40380E190E002C057
:10472000959587952A95E2F70E945711C60ED71ED8
:10473000E81EF91EC0927A03D0927B03E0927C03BC
:10474000F0927D03C12CD12C7601C394CC2399F037
:10475000C12CD12C7601C8E9DFE10E943806AB01FB
:10476000BC014C0D5D1D6E1D7F1D9E0186E693E014
:104770000E9423078CCFCDEFD4E2EFCF809150047D
:1047800080FF0C94342380E00895CF92DF92EF9263
:10479000FF920F931F93CF93DF938091500480FF7C
:1047A00005C080915204882309F402C18091C0039E
:1047B0009091C10387FFE6C084729927892B51F439
:1047C000DF91CF911F910F91FF90EF90DF90CF90ED
:1047D0000C94BE231091520411110AC0DF91CF91A5
:1047E0001F910F91FF90EF90DF90CF900C943423A6
:1047F000113111F0113221F780915304837E803200
:10480000F9F6C12FD0E0AE014150510964E574E0E2
:1048100080E00E94A90E2497AE0163E574E08AE06F
:104820000E94A90E6B017C01CD5ADB4F6881798112
:104830008A819B810E940C2AC616D706E806F906D3
:1048400009F0BECF8AE594E00E94DA0560939203F6
:1048500070939303809394039093950387E594E07A
:104860000E94DA05992760938E0370938F038093DB
:104870009003909391031132D1F480916F048130B1
:10488000B1F490E6E92E94E0F92EC0E0D70111963C
:104890000C9111978C91102F082FD0E1DC0FDC13B5
:1048A00073C0B2E0EB0EF11CCD2FD03679F78091BA
:1048B000C2039091C3030197E9E2F4E028E0DF012D
:1048C0001D922A95E9F721E02093210426E0E4E5F2
:1048D000F4E0A2E2B4E001900D922A95E1F7809312
:1048E00028049093290480E1E1E2F4E0A1E3B4E03C
:1048F00001900D928A95E1F782E08093310440E1C6
:1049000050E061E274E080E00E94A90E40E150E0D6
:1049100061E374E080E00E94A90E8091C00385FFEE
:1049200008C0C091D6038091D403C150E0F58093B4
:10493000D4038091C0039091C10389759D7F9860D5
:104940009093C1038093C00310924F040E94B60558
:1049500080EC9FEF0E94610580915E04982F9F700C
:1049600090934B048295877080934A0480915F04F2
:104970008823E1F08093440486E090E00E94E117F0
:104980000E946A1881E015C0C03609F48ACF8C2FC6
:1049900000FF06C00E94B004CF5F169507957FCF39
:1049A0000E94E004F9CF0E940D0BBFCF81E0E2CF5F
:1049B00080E0DF91CF911F910F91FF90EF90DF90FA
:1049C000CF9008958091520481110AC020914B0428
:1049D00044E355E268ED78EB85E090E00C943D0A05
:1049E0000E94C523882391F3089580915204811178
:1049F00002C0109250040C94C52388E090E00E94FD
:104A0000E1170C946A1882E080935004E0914B0403
:104A1000F0E0E553FD4FE491F0E0EF77E068F093CC
:104A2000BF03E093BE0380919E0390919F03A091EA
:104A3000A003B091A1038093860390938703A09372
:104A40008803B09389031092520483E190E00E949E
:104A5000E11780E00C94060E83E193E290936D03DE
:104A600080936C030C94032585EF94E290936D037F
:104A700080936C030C94032521E020935004EEEB0B
:104A8000F3E0208131812068318320831092520429
:104A900090936D0380936C0383E190E00E94E11793
:104AA00080E00C94060E8CEF92E20C943C2582EE92
:104AB00094E20C943C251F920F920FB60F92112492
:104AC0002F933F934F935F936F937F938F939F9316
:104AD000AF93BF93EF93FF9389E994E00E94E702BD
:104AE000FF91EF91BF91AF919F918F917F916F91C6
:104AF0005F914F913F912F910F900FBE0F901F909C
:104B000018951F920F920FB60F9211242F938F9327
:104B10009F93EF93FF93E091A904F091AA04808101
:104B2000E091AF04F091B00482FD1BC090818091B0
:104B3000B2048F5F8F732091B304821741F0E0912C
:104B4000B204F0E0E756FB4F958F8093B204FF91DB
:104B5000EF919F918F912F910F900FBE0F901F900B
:104B600018958081F4CF1F920F920FB60F921124E7
:104B70002F933F938F939F93AF93BF938091250380
:104B800090912603A0912703B09128033091F7025A
:104B900023E0230F2D3758F50196A11DB11D209359
:104BA000F7028093250390932603A0932703B093E5
:104BB00028038091F8029091F902A091FA02B09135
:104BC000FB020196A11DB11D8093F8029093F9029A
:104BD000A093FA02B093FB02BF91AF919F918F9186
:104BE0003F912F910F900FBE0F901F90189526E8C0
:104BF000230F0296A11DB11DD2CFE9E9F4E0138283
:104C0000128288EE93E0A0E0B0E084839583A683CF
:104C1000B78380E291E09183808385EC90E0958773
:104C2000848784EC90E09787868780EC90E0918B76
:104C3000808B81EC90E0938B828B82EC90E0958B63
:104C4000848B86EC90E0978B868B118E128E138E60
:104C5000148E82E391E09093370580933605089592
:104C6000CF93DF93CDB7DEB7A0970FB6F894DEBF32
:104C70000FBECDBF789484B5826084BD84B5816059
:104C800084BD85B5826085BD85B5816085BD809117
:104C90006E00816080936E0010928100809181008F
:104CA0008260809381008091810081608093810087
:104CB000809180008160809380008091B100846049
:104CC0008093B1008091B00081608093B0008091AA
:104CD0007A00846080937A0080917A008260809369
:104CE0007A0080917A00816080937A0080917A00C6
:104CF000806880937A001092C100E091A904F0913D
:104D0000AA0482E08083E091A504F091A6041082B9
:104D1000E091A704F091A80480E180831092B1048F
:104D2000E091AD04F091AE0486E08083E091AB04A5
:104D3000F091AC04808180618083E091AB04F091BC
:104D4000AC04808188608083E091AB04F091AC0476
:104D5000808180688083E091AB04F091AC04808115
:104D60008F7D808364E670E080E090E00E943E04E6
:104D700085E493E00E944908E5E9F4E084E0DF017E
:104D80001D928A95E9F78EE091E090933603809327
:104D9000350386E395E090931C0380931B0361E049
:104DA0008AE00E94BA0361E08AE00E94E80360E0C2
:104DB00089E00E94E80360E082E00E94E80360E08E
:104DC00086E00E94E80360E087E00E94E8031FB7E6
:104DD000F89480911A03811127C0EBE1F3E08491EC
:104DE000E7E0F3E09491E82FF0E0EE0FFF1FED50C5
:104DF000FD4FA591B491EC91E92321F461E08AE0A3
:104E00000E94BA0361E08AE00E94E8038CB58061E9
:104E10008CBD8CB580648CBD61E08DE00E94E803A0
:104E200061E08BE00E94E80380911A038F5F80931A
:104E30001A031FBFECE0F3E08EE0DF011D928A95BC
:104E4000E9F780EE95E0909315038093140382E0D8
:104E500080930F03F0933B05E0933A0581E00E94B5
:104E6000C5070091350310913603F80182818F3F09
:104E700049F060E00E94BA0361E0D80112968C917B
:104E80000E94E8030E943806625C7F4F8F4F9F4F5D
:104E90000E947B07F80182818F3F19F060E00E9439
:104EA000E8030E943806685C7E4F8F4F9F4F0E9438
:104EB0007B0780E00E944E0D82E40E947F0B8231CE
:104EC00009F020C280911B0390911C03DC01ED913D
:104ED000FC910680F781E02D0995882341F08BE451
:104EE0000E947F0B682F60618BE40E94910B82E02F
:104EF0000E94580D81E00E947F0B87708530D1F7AA
:104F00000CEF12E0BBE0CB2EB3E0DB2EA8E0EA2EE4
:104F1000F12C8CE20E947F0B8170B82E8CE20E94F3
:104F20007F0B8170B816A9F3F8018181880F8B2956
:104F30008183F1E0EF1AF10861F70F5F1F4FC01690
:104F4000D10621F710E11093FC0280E00E944E0D83
:104F500080E490E09093C1038093C0038FEF80932F
:104F600065030E940E1240E150E065E373E0CE015C
:104F700041960E94882940E150E065E273E0CE014D
:104F800001960E94882983E190E0A0E0B0E0809340
:104F90008E0390938F03A0939003B093910385E1C8
:104FA0009AEEAEEDB0E08093920390939303A093BA
:104FB0009403B0939503FE013196A1E2B4E0812FF2
:104FC00001900D928A95E1F7FE017196A1E3B4E09C
:104FD00001900D921A95E1F78091C0039091C10361
:104FE00089759D7B98609093C1038093C0030E9454
:104FF000B60590E080E00E94610510E0812F0E94DC
:10500000F2051F5F1830D1F71092430480E89FEF3C
:105010009093C5038093C40310924B0410924704ED
:1050200065E082E00E9444058DE193E00E949A1FB2
:10503000EFE0BE2EF0E0CF2EF0E0DF2E2FB7F89499
:105040008091250390912603A0912703B091280316
:105050002FBF61E091FF60E08DE00E94BA0379E22A
:10506000E72E73E0F72E10E000E0E0913503F091B9
:105070003603E00FF11F83818F3FC9F1D7014D90B7
:105080005D906D907C90411451046104710479F13C
:10509000F701108211821282138281E00E947F0B3D
:1050A00087FFCEC082E10E947F0B8093940483FF30
:1050B00045C0F2E04F1A51086108710840927A0326
:1050C00050927B0360927C0370927D036FEF81E1CD
:1050D0000E94910B6FEF82E10E94910B80E00E9491
:1050E0004E0D80916C0390916D030E94E4060F5F5A
:1050F0001F4FE4E0EE0EF11C0330110509F0B5CFAF
:105100000E94E8050091970410919804011511057B
:1051100009F4C9C0D8018D919C9190939804809313
:1051200097040E945C060115110509F4DFC0D8013F
:105130001696ED91FC91C8010995D8C086FF7BC0F9
:10514000E091BE03F091BF03CF0163E09695879590
:105150006A95E1F7837061F4E770F0E0EE0FFF1FEE
:10516000E25BFC4F85919491481A590A61087108D5
:1051700040927E0350927F0360928003709281037D
:105180008DE10E947F0B80FF45C082E20E947F0B71
:105190008093520480E10E947F0B682F8DE00E9473
:1051A000910B4091520450E021E063E574E080E00F
:1051B0000E94160B89E10E947F0B8093C8038AE14D
:1051C0000E947F0B282F30E0409186035091870387
:1051D000609188037091890341345D4D6A447F4139
:1051E000D8F02D5931099091C80397FF18C0A92F05
:1051F000BB27A1950CF4B095CD0195958795959514
:105200008795281B390B203431059CF4205C2093B2
:10521000C7035CCF83E1BACF245A3109E4CF2D39DB
:10522000BFEF3B079CF36B2D0E949129280F311D86
:10523000EACF2FE7ECCF87FF49CF1092520446CF39
:105240008EE30E947F0B8FE30E947F0B83FF0CC0D5
:1052500040927A0350927B0360927C0370927D03AC
:1052600081E00E944E0D3ACF82FF1AC040927E0329
:1052700050927F03609280037092810382E30E94C8
:105280007F0B80935204482F50E021E063E574E0E7
:1052900080E00E94160B1092C8031092C703E0CF63
:1052A00010925204DDCFE0919504F091960430976E
:1052B000D9F042805380648075800E943806461A77
:1052C000570A680A790A141415041604170464F0BE
:1052D0000091950410919604F8018081918190933A
:1052E0009604809395041DCF0E945C06C114D104DE
:1052F00009F4A4CE0E94D302882309F49FCE0E9411
:1053000000009CCE65E370E08DEA92E00E94EF051C
:10531000FB01DC0102C005900D9241505040D8F7CE
:105320000895991B79E004C0991F961708F0961B01
:10533000881F7A95C9F780950895AA1BBB1B51E178
:1053400007C0AA1FBB1FA617B70710F0A61BB70BF5
:10535000881F991F5A95A9F780959095BC01CD019A
:10536000089597FB072E16F4009407D077FD09D017
:105370000E949D2907FC05D03EF4909581959F4F92
:105380000895709561957F4F0895A1E21A2EAA1B8A
:10539000BB1BFD010DC0AA1FBB1FEE1FFF1FA217E5
:1053A000B307E407F50720F0A21BB30BE40BF50BE2
:1053B000661F771F881F991F1A9469F7609570956B
:1053C000809590959B01AC01BD01CF010895052EFC
:1053D00097FB1EF400940E94FE2957FD07D00E94FF
:1053E000C52907FC03D04EF40C94FE295095409536
:1053F000309521953F4F4F4F5F4F08959095809581
:10540000709561957F4F8F4F9F4F0895EE0FFF1F4F
:105410000590F491E02D099469279627692778274C
:10542000872778270895A29FB001B39FC001A39F4B
:10543000700D811D1124911DB29F700D811D1124CD
:10544000911D08950E94132AB7FF0895821B930BA4
:1054500008950E94132AA59F900DB49F900DA49FBC
:10546000800D911D1124089597FB57FF0C94442A39
:105470009F938F930E94442A6E1B7F0BAF91BF9125
:105480008A0B9B0B0895E894DF93CF93FC01DB011B
:105490000E94132A7F936F93E9019A01AC01BF9395
:1054A000AF933F932F93DF010E94132A26F46C1BC6
:1054B0007D0B820B930B9E01EB01FC010E943A2BAA
:1054C000AF91BF912F913F910E943A2BBE01CF0126
:1054D000F9012F913F91CF91DF910895689401C018
:1054E000E8948F929F92CF93DF930E947C2ADF9162
:1054F000CF919F908F90089588249924F401E4011E
:10550000B0E49F93AA279A158B049C04ED05FE0531
:10551000CF05D007A10798F4AD2FDC2FCF2FFE2F9A
:10552000E92D982C892E982F872F762F652F542FB1
:10553000432F322F2227B85031F7BF9127C01B2E9F
:10554000BF91BB27220F331F441F551F661F771FB4
:10555000881F991F881C991CEE1FFF1FCC1FDD1F81
:10556000AA1FBB1F8A149B04EC05FD05CE05DF05B1
:10557000A007B10748F08A189B08EC09FD09CE097D
:10558000DF09A00BB10B21601A94E1F62EF494010F
:10559000AF01BE01CD01000C08952F923F924F92B2
:1055A0005F926F927F928F929F92AF92BF92CF92B3
:1055B000DF92EF92FF920F931F93CF93DF93CDB7BC
:1055C000DEB7CA1BDB0B0FB6F894DEBF0FBECDBF34
:1055D00009942A88398848885F846E847D848C8405
:1055E0009B84AA84B984C884DF80EE80FD800C810E
:1055F0001B81AA81B981CE0FD11D0FB6F894DEBFF1
:105600000FBECDBFED010895002E083090F0982F09
:10561000872F762F652F542F432F322F22270850A4
:10562000F4CF220F331F441F551F661F771F881F9B
:10563000991F0A95B2F7002D089597FD1094002E3A
:10564000083098F00850232F342F452F562F672FFE
:10565000782F892F912DF4CF15949795879577956D
:10566000679557954795379527950A95AAF7112479
:10567000002D08950E94132A460F571FC81FD91FD7
:1056800008F431960895FB01DC0102C001900D92EF
:1056900041505040D8F70895FB01DC0101900D9274
:1056A0000020E1F70895B0E0A0E0E9E5FBE20C940A
:1056B000DD2AAE014B5F5F4FFA0161917191AF013D
:1056C00080913A0590913B050E94702BE2E00C948A
:1056D000F92A60913A0570913B050E94602D08956A
:1056E000ABE0B0E0E6E7FBE20C94CD2A7C013B01A5
:1056F0008A01FC0117821682838181FFC8C1CE0115
:1057000001965C01F7019381F30193FD859193FF6D
:1057100081913F01882309F453C1853239F493FD07
:10572000859193FF81913F01853229F4B70190E083
:105730000E94602DE7CF912C212C312CFFE1F31535
:1057400038F08B3211F190F4803209F1833229F173
:1057500037FC3CC020ED280F2A3050F536FE20C023
:105760008AE0989E200D1124922E06C08D3291F071
:10577000803371F7689430F8F30193FD859193FFBE
:1057800081913F018111DACF21C0689431F868948A
:1057900032F8F2CF689433F8EFCF689434F8ECCF56
:1057A000EAE02E9E200D1124222E689435F8E4CFD5
:1057B0008E3229F436FC04C1689436F8DDCF8C367D
:1057C00019F4689437F8D8CF8836B1F2982F9F7DB6
:1057D00095549330E0F08336A1F18337C1F18335DE
:1057E00009F063C02801F2E04F0E511CF801C0809F
:1057F000D180692D70E036FC02C06FEF7FEFC601EB
:105800000E944A2D4C01689437F882010AC00C5F4F
:105810001F4FFFE3F98388248394912C6501E8945A
:1058200037F833FE2DC0522C8114910471F55520A8
:1058300009F468CFB70180E290E00E94602D5A948D
:10584000F6CFF801808189830E5F1F4FE4CF2801D6
:10585000F2E04F0E511CF801C080D180692D70E03C
:1058600036FC02C06FEF7FEFC6010E94552D4C0140
:105870008201D5CFB70180E290E00E94602D2A948A
:105880002814190409F0B0F7CECFF60137FC859142
:1058900037FE81916F01B70190E00E94602D511099
:1058A0005A94F1E08F1A9108BFCF843619F08936E7
:1058B00009F077C0F80137FE6BC060817181828189
:1058C00093810C5F1F4FF32DFF763F2E97FF09C08A
:1058D00090958095709561957F4F8F4F9F4F6894FD
:1058E00037F82AE030E0A5010E94902DC82ECA1892
:1058F0008C2C432C36FE0CC0E89440F8C91440F4BC
:1059000034FE05C032FC03C0F32DFE7E4F2E892CE1
:1059100044FE95C0FE01EC0DF11D8081803309F03D
:1059200087C0242D297E422E842D8870582E43FC5A
:1059300095C040FE8FC09C2C821418F42C0C922C25
:10594000981844FE91C0B70180E390E00E94602D5A
:1059500042FE09C088E790E041FE02C088E590E081
:10596000B7010E94602DC91408F48AC0CA94D12CD2
:105970009FEFC91AD90ACA0CDB1CF60182916F018C
:10598000B70190E00E94602DAC14BD04B1F74FCF79
:1059900060817181072E000C880B990B0E5F1F4FE1
:1059A00092CFD32CE894D4F82AE030E0853739F14F
:1059B000232D297FD22E8F3601F148F48835A9F0A6
:1059C000F701868197812B96E2E10C94E92A8037D2
:1059D00049F08837A9F7D4FE02C06894D2F820E1D4
:1059E00030E00DC06894D4F8F6CF34FE03C0822FA7
:1059F0008660D82E20E132E002C028E030E0F801D5
:105A0000D7FE0FC060817181828193810C5F1F4F2F
:105A1000A5010E94902DC82ECA183D2CE89437F895
:105A200067CF6081718190E080E00E5F1F4FF0CF03
:105A300042FC02C0839478CF8394839475CF842DE5
:105A4000867809F471CFF6CFB70180E290E00E942A
:105A5000602D83948214C0F3512C73CF522C5818AC
:105A6000821408F46ECFF8CF842D867809F47BCFAA
:105A70008BE241FE80E247FC8DE2B70190E071CFFE
:105A8000B70180E390E00E94602D9A946CCF8FEF75
:105A90009FEF99CFFC010590615070400110D8F73D
:105AA000809590958E0F9F1F0895FC016150704066
:105AB00001900110D8F7809590958E0F9F1F089543
:105AC0000F931F93CF93DF93182F092FEB018B8137
:105AD00081FD09C01FEF0FEF812F902FDF91CF9134
